:020000040800F2
:100000000080012071210008C5200008C9200008D7
:10001000C1210008C1210008C12100080000000022
:10002000000000000000000000000000C1210008E6
:10003000CD20000800000000C1210008D1200008E8
:10004000C1210008C1210008C1210008C121000808
:10005000C1210008C1210008C1210008C1210008F8
:10006000C1210008C1210008C1210008C1210008E8
:10007000C1210008C1210008C1210008C1210008D8
:10008000C1210008C1210008C121000800000000B2
:10009000000000000000000000000000C121000876
:1000A000C1210008C1210008C1210008C1210008A8
:1000B000C1210008D5200008C1210008C121000885
:1000C000C1210008C1210008C1210008C121000888
:1000D000C1210008C1210008C12100080000000062
:1000E000E1200008C1210008C12100080000000033
:1000F000000000000000000000000000C121000816
:1001000000000000C1210008C1210008C121000831
:1001100000000000000000000000000000000000DF
:10012000C1210008C1210008C1210008C121000827
:10013000C1210008000000000000000000000000D5
:10014000000000000000000000000000C1210008C5
:10015000C1210008C1210008C1210008C1210008F7
:10016000C1210008C12100080000000000000000BB
:10017000000000000000000000000000000000007F
:1001800000000000C1210008000000000000000085
:10019000C121000800000000000000000000000075
:1001A000044B05481B1A062B02D9044B03B1184710
:1001B000704700BF07050020040500200000000074
:1001C00005490648091A891001EBD171491002D07E
:1001D000034B03B1184770470405002004050020B5
:1001E0000000000010B5064C237843B9FFF7D8FF94
:1001F000044B13B10448AFF300800123237010BDFA
:1002000004050020000000006807010808B5084B3D
:100210001BB108490848AFF300800848036813B9C8
:10022000BDE80840CCE7064B002BF9D09847F7E72C
:1002300000000000080500206807010804050020F0
:1002400000000000000000000000000000000000AE
:1002500001F0FF01102A2BDB10F0070F08D010F877
:10026000013B013A8B422DD010F0070F42B3F6D17B
:10027000F0B441EA012141EA014122F007047FF094
:1002800000070023F0E80256083C85EA010586EAEB
:10029000010685FA47F5A3FA87F586FA47F6A5FA27
:1002A00087F68EB9EED1F0BC01F0FF0102F0070233
:1002B00032B110F8013B013A83EA010313B1F8D1DE
:1002C0000020704701387047002D06BF35460338BF
:1002D000073815F0010F07D1013015F4807F02BFF8
:1002E000013015F4C03F0130F0BC0138704700BF49
:1002F00081F0004102E000BF83F0004330B54FEAD7
:1003000041044FEA430594EA050F08BF90EA020F43
:100310001FBF54EA000C55EA020C7FEA645C7FEAD6
:10032000655C00F0E2804FEA5454D4EB5555B8BFF9
:100330006D420CDD2C4480EA020281EA030382EA6A
:10034000000083EA010180EA020281EA0303362DFC
:1003500088BF30BD11F0004F4FEA01314FF4801CCF
:100360004CEA113102D0404261EB410113F0004FE1
:100370004FEA03334CEA133302D0524263EB430398
:1003800094EA050F00F0A780A4F10104D5F1200E36
:100390000DDB02FA0EFC22FA05F2801841F1000191
:1003A00003FA0EF2801843FA05F359410EE0A5F165
:1003B00020050EF1200E012A03FA0EFC28BF4CF096
:1003C000020C43FA05F3C01851EBE37101F000454C
:1003D00007D54FF0000EDCF1000C7EEB00006EEB59
:1003E0000101B1F5801F1BD3B1F5001F0CD34908E3
:1003F0005FEA30004FEA3C0C04F101044FEA44523A
:1004000012F5800F80F09A80BCF1004F08BF5FEAC0
:10041000500C50F1000041EB045141EA050130BDA0
:100420005FEA4C0C404141EB010111F4801FA4F143
:100430000104E9D191F0000F04BF01460020B1FA98
:1004400081F308BF2033A3F10B03B3F120020CDAD0
:100450000C3208DD02F1140CC2F10C0201FA0CF0AE
:1004600021FA02F10CE002F11402D8BFC2F1200C13
:1004700001FA02F120FA0CFCDCBF41EA0C019040C9
:10048000E41AA2BF01EB0451294330BD6FEA040412
:100490001F3C1CDA0C340EDC04F11404C4F12002FD
:1004A00020FA04F001FA02F340EA030021FA04F30F
:1004B00045EA030130BDC4F10C04C4F1200220FA66
:1004C00002F001FA04F340EA0300294630BD21FAA4
:1004D00004F0294630BD94F0000F83F4801306BF6A
:1004E00081F480110134013D4EE77FEA645C18BF5E
:1004F0007FEA655C29D094EA050F08BF90EA020FF5
:1005000005D054EA000C04BF1946104630BD91EAEC
:10051000030F1EBF0021002030BD5FEA545C05D1EF
:100520004000494128BF41F0004130BD14F580042E
:100530003CBF01F5801130BD01F0004545F0FE41A2
:1005400041F470014FF0000030BD7FEA645C1ABFD7
:10055000194610467FEA655C1CBF0B46024650EA0E
:10056000013406BF52EA033591EA030F41F400213A
:1005700030BD00BF90F0000F04BF0021704730B5C0
:100580004FF4806404F132044FF000054FF0000195
:1005900050E700BF90F0000F04BF0021704730B556
:1005A0004FF4806404F1320410F0004548BF40422B
:1005B0004FF000013EE700BF42004FEAE2014FEA80
:1005C00031014FEA02701FBF12F07F4393F07F4F5B
:1005D00081F06051704792F0000F14BF93F07F4F8D
:1005E000704730B54FF4607401F0004521F00041D0
:1005F00020E700BF50EA010208BF704730B54FF056
:1006000000050AE050EA010208BF704730B511F05A
:10061000004502D5404261EB41014FF4806404F192
:1006200032045FEA915C3FF4DCAE4FF003025FEA14
:10063000DC0C18BF03325FEADC0C18BF033202EB9C
:10064000DC02C2F1200300FA03FC20FA02F001FAF6
:1006500003FE40EA0E0021FA02F11444C1E600BF95
:1006600070B54FF0FF0C4CF4E06C1CEA11541DBF48
:100670001CEA135594EA0C0F95EA0C0F00F0DEF813
:100680002C4481EA030621EA4C5123EA4C5350EAF8
:10069000013518BF52EA033541F4801143F4801349
:1006A00038D0A0FB02CE4FF00005E1FB02E506F0DA
:1006B0000042E0FB03E54FF00006E1FB03569CF02F
:1006C000000F18BF4EF0010EA4F1FF04B6F5007F35
:1006D00064F5407404D25FEA4E0E6D4146EB0606A7
:1006E00042EAC62141EA55514FEAC52040EA5E5030
:1006F0004FEACE2EB4F1FD0C88BFBCF5E06F1ED8DA
:10070000BEF1004F08BF5FEA500E50F1000041EB10
:10071000045170BD06F0004646EA010140EA0200BD
:1007200081EA0301B4EB5C04C2BFD4EB0C0541EADF
:10073000045170BD41F480114FF0000E013C00F3F4
:10074000AB8014F1360FDEBF002001F0004170BD18
:10075000C4F10004203C35DA0C341BDC04F1140431
:10076000C4F1200500FA05F320FA04F001FA05F2BD
:1007700040EA020001F0004221F0004110EBD3708A
:1007800021FA04F642EB06015EEA430E08BF20EAB6
:10079000D37070BDC4F10C04C4F1200500FA04F359
:1007A00020FA05F001FA04F240EA020001F00041EB
:1007B00010EBD37041F100015EEA430E08BF20EA5E
:1007C000D37070BDC4F1200500FA05F24EEA020EA6
:1007D00020FA04F301FA05F243EA020321FA04F0D5
:1007E00001F0004121FA04F220EA020000EBD3708C
:1007F0005EEA430E08BF20EAD37070BD94F0000F8C
:100800000FD101F00046400041EB010111F4801FBF
:1008100008BF013CF7D041EA060195F0000F18BF70
:10082000704703F00046520043EB030313F4801FAC
:1008300008BF013DF7D043EA0603704794EA0C0F66
:100840000CEA135518BF95EA0C0F0CD050EA41067C
:1008500018BF52EA4306D1D181EA030101F00041F9
:100860004FF0000070BD50EA410606BF1046194621
:1008700052EA430619D094EA0C0F02D150EA01362D
:1008800013D195EA0C0F05D152EA03361CBF10466E
:1008900019460AD181EA030101F0004141F0FE410D
:1008A00041F470014FF0000070BD41F0FE4141F491
:1008B000780170BD70B54FF0FF0C4CF4E06C1CEA91
:1008C00011541DBF1CEA135594EA0C0F95EA0C0F46
:1008D00000F0A7F8A4EB050481EA030E52EA033501
:1008E0004FEA013100F088804FEA03334FF0805522
:1008F00045EA131343EA12634FEA022245EA11154F
:1009000045EA10654FEA00260EF000419D4208BFFF
:10091000964244F1FD0404F5407402D25B084FEAAC
:100920003202B61A65EB03055B084FEA32024FF458
:1009300080104FF4002CB6EB020E75EB030E22BFB5
:10094000B61A754640EA0C005B084FEA3202B6EB75
:10095000020E75EB030E22BFB61A754640EA5C0024
:100960005B084FEA3202B6EB020E75EB030E22BFB4
:10097000B61A754640EA9C005B084FEA3202B6EBB5
:10098000020E75EB030E22BFB61A754640EADC0074
:1009900055EA060E18D04FEA051545EA16754FEAD6
:1009A00006164FEAC30343EA52734FEAC2025FEAF4
:1009B0001C1CC0D111F4801F0BD141EA00014FF083
:1009C00000004FF0004CB6E711F4801F04BF014354
:1009D0000020B4F1FD0C88BFBCF5E06F3FF6AFAE70
:1009E000B5EB030C04BFB6EB020C5FEA500C50F100
:1009F000000041EB045170BD0EF0004E4EEA113183
:100A000014EB5C04C2BFD4EB0C0541EA045170BD89
:100A100041F480114FF0000E013C90E645EA060ECD
:100A20008DE60CEA135594EA0C0F08BF95EA0C0FFB
:100A30003FF43BAF94EA0C0F0AD150EA01347FF443
:100A400034AF95EA0C0F7FF425AF104619462CE71A
:100A500095EA0C0F06D152EA03353FF4FDAE10467D
:100A6000194622E750EA410618BF52EA43067FF4CE
:100A7000C5AE50EA41047FF40DAF52EA43057FF45E
:100A8000EBAE12E74FEA4102B2F1E04324BFB3F507
:100A9000001CDCF1FE5C0DD901F0004C4FEAC002F5
:100AA0004CEA5070B2F1004F40EB830008BF20F0D9
:100AB0000100704711F0804F21D113F13872BCBF93
:100AC00001F00040704741F480114FEA5252C2F1E8
:100AD0001802C2F1200C10FA0CF320FA02F018BF31
:100AE00040F001004FEAC1234FEAD32303FA0CFC84
:100AF00040EA0C0023FA02F34FEA4303CCE77FEA13
:100B0000625307D150EA01331EBF4FF0FE4040F45C
:100B10004000704701F0004040F0FE4040F400000B
:100B2000704700BF4FF0FF3C06E000BF4FF0010CE4
:100B300002E000BF4FF0010C4DF804CD4FEA410C2C
:100B40007FEA6C5C4FEA430C18BF7FEA6C5C1BD0F9
:100B500001B050EA410C0CBF52EA430C91EA030F7A
:100B600002BF90EA020F0020704710F1000F91EAD7
:100B7000030F58BF994208BF90422CBFD8176FEAA5
:100B8000E37040F0010070474FEA410C7FEA6C5C73
:100B900002D150EA013C07D14FEA430C7FEA6C5C7A
:100BA000D6D152EA033CD3D05DF8040B704700BFA6
:100BB0008446104662468C461946634600E000BFF4
:100BC00001B5FFF7B7FF002848BF10F1000F01BDC6
:100BD0004DF808EDFFF7F4FF0CBF012000205DF891
:100BE00008FB00BF4DF808EDFFF7EAFF34BF012016
:100BF00000205DF808FB00BF4DF808EDFFF7E0FFAF
:100C000094BF012000205DF808FB00BF4DF808EDFF
:100C1000FFF7CEFF94BF012000205DF808FB00BF66
:100C20004DF808EDFFF7C4FF34BF012000205DF848
:100C300008FB00BFF0B587B000230122022506247F
:100C40000E4600930193049207460595039401F024
:100C500041FD154BF322DA60694601A801F084FDDD
:100C600008B101F07DF801F047FD01F033FDB7B1A7
:100C70000E4D043E002404E00134BC4205F104059D
:100C80000DD056F8042F00232946022001F07EFCE7
:100C90000028F1D0013401F063F8BC42F1D101F039
:100CA0002BFD07B0F0BD00BF003C0240000004086F
:100CB000800000F10060064B00F58020984205D0CE
:100CC00053F8042B41F8042B8342F9D3704700BF3B
:100CD0000000040800B587B000230621012202208D
:100CE0000093019303910492059001F0F3FC074BEC
:100CF000F322DA60694601A801F036FD08B101F07F
:100D00002FF801F0F9FC07B05DF804FB003C02404D
:100D1000044B1B7803713221082203234171827135
:100D200003607047000000200268012A40F28B80B7
:100D300070B50679322E88B002D0002008B070BDA0
:100D400085790E2D00F0C581044655D8082D00F098
:100D500091817AD8012D00F01181022DEDD1032A65
:100D6000EBD1B94B4279027103F10801E21D04F1A4
:100D70000F058220914288BF9D426671A07100F2EA
:100D8000D181510740F0CE81083BD3E90201C2E98D
:100D90000001D3E90401C5E90001D3E9060104F12A
:100DA0001702C2E90001D3E9080104F11F02C2E9F8
:100DB000000193F8282084F8272093F8292084F84C
:100DC000282093F82A2084F8292093F82B2084F8EF
:100DD0002A2093F82C2084F82B2093F82D2084F8D7
:100DE0002C2093F82E3084F82D302A2320462360BF
:100DF00000F0C0FA0120A1E7622D00F0158143D870
:100E0000522D00F0A680602D97D1022A95D043790B
:100E10008E4A2371E023A3711068667102A904F061
:100E200073FD9DF80830012B00F08B80002B00F043
:100E30000381022B3FD104220321E01D01F0CAF8F7
:100E40000723236037E000207047092D38D00C2D90
:100E50007FF473AF022A3FF470AF437903718C22A1
:100E6000032382710360427A017A4671C07900F0EF
:100E70005DFF637B227BE17AA07A00F03FFF204692
:100E800000F078FA012059E7762D47D07A2D7FF4CB
:100E900054AF022A3FF451AF43796D4A2371FA23CC
:100EA000A3711068667102A904F07AFB9DF80830FE
:100EB000002B00F0C180204600F05CFA01203DE7E5
:100EC000022A3FF43AAF634B634800251D7003F0DC
:100ED0001BF95E4B186804F0FFFC604B186804F0C7
:100EE00033FF5F4B186804F09FFA5E4B186804F0FC
:100EF0007DF85D4B186804F0E1F9554B186804F073
:100F000037FBA3796179594A2171803B2046A3714F
:100F10006671156000F02EFA01200FE7022A3FF4F7
:100F20000CAF4379504A2371F623A37110686671A0
:100F300002A904F0DBF99DF80830002B7CD0012BCE
:100F4000B9D104220221E01D01F044F807232360F7
:100F5000B1E7022A3FF4F1AEC37942790271D2219E
:100F60000422013B467181710260092BA3D8DFE89E
:100F700003F057534F4B47433F3B1B12032A7FF469
:100F8000DCAE41790260812301714671837100F00A
:100F9000F1F92846D2E601A800F04EF90198C4F80C
:100FA00009000923236086E702A800F041F902AB9B
:100FB000064607CB04F1090505ABC4F809006960D2
:100FC000AA6007CBC4F81500C4F81910C4F81D2096
:100FD00004F121003146012200F0FCFF1E2302A88B
:100FE000236000F02DF966E7002000F00FF962E7BA
:100FF000032000F00BF95EE7012000F007F95AE743
:10100000022000F003F956E7052000F0FFF852E750
:10101000042000F0FBF84EE7154B01221A704AE756
:10102000134B00221A7046E7022A3FF486AE43793A
:101030000371E2234671837104220121E01D00F057
:10104000C9FF0723236036E708000020340500208D
:10105000280500207C050020D40D00202C05002050
:101060003005002020050020240500206405002014
:101070006C050020022A3FF460AE0421073000F026
:101080009DFF2E4DC207286046D483073ED44607F5
:1010900030D4C10628D4820632D4430603D5284B67
:1010A000186804F055FA2748274E03F021F8A37971
:1010B000264962790A70803B012532200321357070
:1010C0006071A37120462271216000F053F9284617
:1010D00034E6032A7FF431AE417902608E22017139
:1010E00046718271012029E6194B186803F06EFFE2
:1010F0002868D0E7174B186804F086F92868C8E715
:10110000154B186804F0CAF82868C6E7134B18682E
:1011100004F00AFE2868BAE7114B186804F0CCFB0B
:101120002868B2E70F4BA21D03F1270013F8011F37
:1011300002F8011F8342F9D157E600BF6405002081
:1011400028050020D40D00207C0500200000002090
:101150002005002030050020240500202C0500205B
:10116000340500200700002030B504468FB00DF094
:1011700071FC20460DF1030103F050FF9DF8033090
:1011800073B3012B29D16E21772275238DF80410BA
:101190008DF805208DF80630164D01A80DF07EFC67
:1011A0000FCD08AC0FC495E8030008AD84E8030038
:1011B00029460620FFF77CFD95E8070002AB83E88F
:1011C00007000EAA12E9070005AC84E807001846DC
:1011D0000EF0B8F801200FB030BD00200FB030BDC8
:1011E00065216E2275238DF804108DF805208DF889
:1011F0000630D1E7800701080DF0DCBC0DF08CBE95
:1012000010B50C460DF0D6FE206010BD10B5ADF542
:10121000966D04466421684600F0DAFC20B9224647
:10122000684664210DF0EAFE0DF5966D10BD00BF15
:101230000EF072B80EF086B8642100F027BD00BF32
:1012400070B50E4D06460FCD86B06C460FC495E8BE
:101250000300B26884E80300306871686B4607C316
:10126000344654F80C0F6168A26807C3694606202B
:10127000FFF7E0FC002006B070BD00BF800701084A
:101280002DE9F04F814683B0374800F043F918B19B
:10129000002003B0BDE8F08F334800F0A9F9334BCC
:1012A000C0F500709C8883B2A34236BFC4F5007BB2
:1012B000C4EB030B9B4401931FFA8BF30093002BA9
:1012C000E6D04FF0000ADFF8A8B05546D0465646A3
:1012D00005E00136009B1FFA86F843453CD9621CA5
:1012E0001BF8043094B2B4F5007F28BF0024F02B23
:1012F000EFD11E4B9C880EB3002701E047451DD25D
:1013000004F1010ACAF3080A09EB05021BF80400FC
:101310001BF80A10043200F073FDC0B283B21F4400
:1013200001352344BFB2C3F30804ADB20028E5D1B0
:101330000E4BA3F804A003B0BDE8F08F01340B4BB3
:10134000C9F80050C4F3080448469C8000F0D0FD62
:101350000028BED001209CE7B3F5807F98D9034BCD
:10136000BDF804209A8093E7C807002028080020D1
:10137000D008002070B5084C054600F053FD294602
:10138000204600F00DFD214682B241F28833034829
:10139000BDE8704003F008BAD00A002030080020F1
:1013A000F0B58BB0334B3448344C002501951A6BA3
:1013B00042F001021A631A6B02F001020192019AD3
:1013C00002951A6B42F001021A631A6B02F00102D5
:1013D0000292029A03951A6C42F400321A641A6C53
:1013E00002F400320392039A04951A6B42F400123D
:1013F0001A631B6B079503F400130422049305A9D9
:1014000002230726059206930893049F099601F08C
:101410005FFA08231848059305A9099601F058FAC0
:10142000174B184A1B68636020460C23A560E560D3
:101430002561A5612260636103F086F910B100F0B7
:101440008FFCFEE7104D114E0746284600F0D4F8F9
:10145000284600F079FF4FF4007331461A462046C3
:101460006563AC63E763A662A38503F02DFA0BB056
:10147000F0BD00BF003802400000024030080020EC
:101480003000002000440040C8070020D0080020A1
:10149000F0B595B000241D4B0194196C1C4A41F025
:1014A000805119641B6C03F080530193019B0294DB
:1014B000136823F4404343F40043136013680F940C
:1014C00003F440430225029304211023072201273D
:1014D0004FF4A87608A8DDF808E00C931093129159
:1014E000139208950E950B97119601F0E9FF0F22C4
:1014F0004FF48053294603A804950594079403925A
:10150000069302F0DDF915B0F0BD00BF00380240CF
:101510000070004003682A4A93420FD92949583A7B
:101520008B42526842D018318B4243D026488342C6
:101530000CBF4FF480334FF4800338E0234A9342CA
:1015400010D9234902F552728B4212682ED01831FD
:101550008B422FD01F4883420CBF4FF480334FF48F
:10156000800324E01C4A93420FD91C49583A8B420D
:1015700052681BD018318B421CD0194883420CBFD3
:101580004FF480334FF4800311E0164A164993421A
:10159000086813D0183293420ED0183293420CBF11
:1015A0004FF480334FF48003184070470F4B03EA29
:1015B000020070474023FAE74023F5E70B4BF3E7BF
:1015C0005864024070640240A0640240B860024067
:1015D0001064024040640240586002407060024063
:1015E000A0600240106002400060024001008000E4
:1015F00003685868704700BFF0B40E4B03604FF0AB
:10160000006700234FF480664FF480754FF48034F8
:101610004FF40002032147600661C56104628162E4
:101620008360C360436183614362C2620263F0BC52
:10163000704700BF886002402DE9F04F2DED028B0E
:10164000A5B000F0D7FDFFF723FF00220E214FF0D9
:10165000FF3000F01BFE002004F0A0FB0121002061
:1016600004F0E0FB00243D4B06941A6B3C4D42F421
:1016700080521A631B6B03F48053294606934FF084
:10168000FF30069B03F0BCFB9FED360A286803F091
:10169000F1FC0221286803F0FDFC291D4FF0FF300A
:1016A00003F018FD05F108014FF0FF3003F0E6FEEE
:1016B00005F10C014FF0FF3004F040F905F1100185
:1016C0004FF0FF3003F02CFE05F114014FF0FF3016
:1016D00003F080FF2868FFF747FD05A90FA8FFF773
:1016E0008FFD0126FFF75CFE0C2318A81E941D94A5
:1016F00018931A9601F0E4FE7F2288B1F923AE61B7
:101700006A62AB62EB63184BEB614022002317481F
:101710002A62EB622B636B6302F06CFA30B1FEE776
:10172000FF23A8616A62AB62EB63ECE724AE4FF083
:10173000013346F8683D012231460C4802F0A4FB13
:10174000034600B1FEE7012218A9084818931B932D
:101750001C9302F0A7FA074650B1FEE7003802409A
:101760002005002000004842002800403C050020E1
:10177000B54CB649A0604AF20F422723204684E8C0
:1017800006002761E36002F053FC4FF480532046CB
:1017900018A9189302F0CEFC314620460A970B9701
:1017A00002F03AFE384604F021FB4FF4FA7000F0E4
:1017B00049FD3846A64CDFF8B4A29FEDA68ADFEDBE
:1017C000A68A04F01DFB04F1090804F11507A146DF
:1017D0009F48FFF755FD20B199F80430322B00F0F7
:1017E000FF8095F84030002B56D04FF0000B584644
:1017F0008AF840B004F004FBFFF76CFA4FF07E5318
:1018000018A81B931C931D938DED188A8DED198AD2
:101810008DED1A8AFFF70EFD904B8DED078A93E848
:1018200007008DED088A8DED098A07AB86E8070071
:1018300007CB3346C8F80820C8F80410C8F80000E1
:1018400007CB874BBA601B783860322279604FF043
:10185000D20E59468348237162710923012284F80C
:1018600006E0E37100F0B6FB1E2379482360FFF722
:1018700081FD4FF0030B002004F0CCFA4FF4FA7016
:1018800000F0E0FC002004F0C5FA4FF4FA7000F01C
:10189000D9FCBBF1010BEED195F84130002B97D06C
:1018A0004FF0000B70485A46314680F825B002F0E0
:1018B000B5FA5A4607A96C4802F08AFB6B4B0B9AA3
:1018C000D86B9DF828105B6C9DF829E0E171821AB5
:1018D0006421013084F808E001FB02F29DF82AE05F
:1018E00092FBF0F2D8068DF828B084F809E0A272D5
:1018F00000F1CA80002299068DF81C2000F1D580E5
:1019000000228DF81C205A0600F1DF8000225807C3
:101910008DF81C2000F18B80002299078DF81C2087
:1019200062D400228DF81C20DA076DD400F084FC0C
:101930006B6CDB0683464AD54D4ADAF848301268AC
:101940000192C31A07EE903A9DED017A484AB8EE2B
:10195000C76AF8EE677A52680292C7EEA85A444AFC
:10196000926803920020C6EE287A9DED027ACDEDB2
:101970000A7AF8EEC76A07EE102AB8EEC77A86EE42
:10198000A86AC7EE287ACDED0D5A8DED0B6ACDED24
:101990000C7A04F02BFA3046FFF72EFC9AF84C1024
:1019A0003448FFF72BFC002004F02AFA9AED140AC1
:1019B000314800F019FB9AED150A304800F014FB8D
:1019C0009AED160A2E4800F00FFBCAF848B02048DE
:1019D000FFF79EF943231E482360FFF7CBFCF7E691
:1019E0001B48FFF7A1F9FCE607A9E86804F0BCF979
:1019F00020B99DF81C30012B00F0BA806B6C0022DE
:101A00008DF81C20DA0791D507A9686903F074FFE7
:101A100000288BD19DF81C30012B87D13146DAF894
:101A2000140003F079FF174B306818607EE707A9B0
:101A3000286903F009FD20B99DF81C30012B00F046
:101A4000A2806B6C68E700BFD40D0020000400404A
:101A5000D00C00200000000000007A449807010824
:101A600000000020F10C00203C0500202005002093
:101A7000100E0020700500200B0D00200F0D00201F
:101A8000130D0020DB0C0020444B3146186803F096
:101A9000BDFA18B99DF82830012B4FD06B6C00228D
:101AA00099068DF81C207FF52BAF07A9686803F015
:101AB00015FC18B99DF81C30012B11D06B6C00225D
:101AC0008DF81C205A067FF521AF07A9A86803F0FE
:101AD0005FFD18B99DF81C30012B18D06B6C15E711
:101AE0003146DAF8040003F009FC04220A992C4874
:101AF00000F070FA04220B992A4800F06BFA0422D5
:101B00000C99294800F066FADAF84430F8E63146D4
:101B1000DAF8080003F04CFD04220A99234800F08B
:101B200059FA04220B99224800F054FA04220C9925
:101B3000204800F04FFADAF84430E7E6174B1E4928
:101B4000186803F073FA1C4B1C481968042200F053
:101B500041FA194B1A485968042200F03BFA164B17
:101B600018489968042200F035FA0C4B5B6CC1E60A
:101B70003146DAF80C0004F0FFF8134A3068DAF85E
:101B800044301060CDE63146DAF8100003F064FC12
:101B90000E4A3068DAF844301060BDE620050020B7
:101BA000F30C0020F70C0020FB0C0020FF0C0020A1
:101BB000030D0020070D0020100E0020E70C002070
:101BC000EB0C0020EF0C0020DF0C0020E30C0020C9
:101BD0002DE9F0472DED028B82B002AC002604F80F
:101BE000016D274D074688462868214603F00EFA06
:101BF000012802D09DF807302BB9012002B0BDECBE
:101C0000028BBDE8F0871F4928689FED1F8A03F00B
:101C10000DFAAA46B04504D12FE09DF80730012BFC
:101C200006D02146286803F045FA0128F5D1E4E7FB
:101C3000DFF85090DAF80000494603F0F7F9012880
:101C400007F10C07D9D0D9ED006A99ED017AD9EDE9
:101C5000027AF8EEE66AB8EEC77AF8EEE77A86EE30
:101C6000886A0136C7EE086A87EE887A07ED036A4C
:101C700047ED026A07ED017ACCE70020BEE700BF1E
:101C800020050020100E002000007A4470B582B0BC
:101C900002AB002203F8052D164C002205460E4625
:101CA00020680192194603F0B1F9012802D09DF88D
:101CB00003301BB900232B6002B070BD206803F015
:101CC00085F90128F6D0206801A903F0C1F99DED3E
:101CD000017ADFED097AB4EEE77AF1EE10FAEBDD86
:101CE00007EE906AF8EE677AC7EE876AC5ED006A7C
:101CF000E2E700BF200500206F12833A10B50024F0
:101D000063F3070482B061F30F2462F3174402A95E
:101D100060F31F6441F8044D0022034802F0B4F858
:101D200000B1FEE702B010BD3C05002000B587B051
:101D300000238DF804008DF805108DF8062001A908
:101D40001A4606488DF8073002930493059301F074
:101D5000A9FF00B1FEE707B05DF804FB3C050020D9
:101D6000FEE700BFB0F5005F00D0704708B5002067
:101D700004F098F818B9024B012283F8402008BDFE
:101D8000200500200268044B9A4200D07047034BA4
:101D9000012283F841207047000400402005002004
:101DA0000A68F0B5074642B300221046CD1C4FF03A
:101DB000F10C4FF0F20E09E0F12B1BD12370637090
:101DC00002260B680130834232440FD915F8013FD7
:101DD000F02B07EB0204EFD107F802C084F801E012
:101DE0000B680130022683423244EFD8501CF023A6
:101DF000BB54F0BD01262370E3E70120F7E700BFE5
:101E0000F12802D0107001207047F12903D0F22987
:101E100004D000207047117002207047F023137027
:101E2000022070470268002A5CD0F0B5141FA40895
:101E3000531E0134042B4FEA840550D900273E4637
:101E400000F1040E5EF8043B03F07F316FEA030CEF
:101E5000C1F180310CF080334B4003F07F3101370A
:101E6000734006F07F3603F080330E44BC4286EAAE
:101E70000306E7D8C6F307233344C6F307441C44DC
:101E800004EB166395422946DBB223D045184C1C5F
:101E90002D799442A3EB0503DBB21BD205198C1CF0
:101EA0002D79A242A3EB0503DBB213D90519CC1C93
:101EB0002D79A242A3EB0503DBB20BD90444043114
:101EC00024798A42A3EB0403DBB203D901440979E4
:101ED0005B1ADBB2511C024413710160F0BD00219A
:101EE0000B46D3E71346024401211371016070478A
:101EF0000168F0B500295CD00D1FAD084F1E0135FB
:101F0000062F4FEA850251D90026334600F1040C12
:101F10005CF8044B013604F07F3E5C4003F07F33F5
:101F200004F080347344AE4283EA0403F0D3C3F375
:101F300007241D19C3F307442C4404EB1363914297
:101F4000DBB22DD08518541C2D798C422B44DBB28A
:101F500026D20519941C2D79A1422B44DBB21FD93E
:101F60000519D41C2D79A1422B44DBB218D90519CF
:101F7000141D2D79A1422B44DBB211D90519541D32
:101F80002D79A1422B44DBB20AD9044406322479CC
:101F900091422344DBB203D9024412791344DBB2E9
:101FA000B3FA83F35B0907601846F0BD00221346BD
:101FB000C8E701234FF0FF37F5E700BF01394318A9
:101FC000425C29B113F8011D984201EB0222F9D1BC
:101FD0001046704732B1024400F8011B90424FEAAC
:101FE0002121F9D1704700BF82B002AB23ED010A75
:101FF00002461868106002B0704700BF00B51F4B62
:102000001B6893B00C210BBB012206A80C930B9309
:102010000691089201F054FA60BB02224FF48073DB
:1020200001A80192049301F031FD08B1FFF798FE79
:10203000134B01221A600F210022022000F026F922
:10204000022000F05BF913B05DF804FB00230122CD
:1020500006A806910C9308930B9201F031FA18B977
:1020600002224FF40073DBE7FFF77AFE02224FF4FF
:102070000073D5E7FFF774FECFE700BF38050020F7
:102080003C0E474202680E4B9A4200D0704700B5A2
:1020900083B0002203F50D330192196C41F0020167
:1020A00019641B6C03F0020301930F211D20019B97
:1020B00000F0ECF81D2000F021F903B05DF804FBFE
:1020C00000040040704700BFFEE700BF704700BF3C
:1020D00000F0AAB8014802F0F5B800BFD40D002006
:1020E0004FF4005000F0E8BC70B5161E07DD0C463A
:1020F0008D19AFF3008004F8010BA542F9D13046E9
:1021000070BD00BF70B5161E07DD0C468D1914F8A2
:10211000010BAFF30080A542F9D1304670BD00BF7E
:102120000A4A08B5136873B118446946884202D850
:102130001060184608BD0BF0C1FC0C2303604FF083
:10214000FF33184608BD024B1360EDE78005002001
:10215000740E00204FF0FF30704700BF4FF4005363
:102160004B600020704700BF01207047002070477F
:10217000DFF834D0002103E00C4B5B5843500431AE
:102180000B480C4B42189A42F6D30B4A02E000234C
:1021900042F8043B094B9A42F9D302F037FC0BF0AA
:1021A00093FCFFF749FA704700800120080A0108F4
:1021B000000000200405002004050020740E00200B
:1021C000FEE70000704700BF084B094A1B6810B5C6
:1021D000A2FB03230446980900F09CF82146002244
:1021E0004FF0FF3000F052F8002010BD3400002006
:1021F000D34D621008B50B4B1A6842F400721A6096
:102200001A6842F480621A601A6842F480721A6096
:10221000032000F029F80F20FFF7D6FFFFF7D2FFC9
:10222000002008BD003C0240024A136801331360DD
:10223000704700BF1C0E0020014B1868704700BF9C
:102240001C0E002030B583B00190FFF7F5FF019C14
:10225000631C054618BF0134FFF7EEFF401BA04288
:10226000FAD303B030BD00BF074AD1684FF6FF0371
:102270000B40000243F0BF6300F4E06043F400331E
:102280000343D360704700BF00ED00E0194BDB68EB
:10229000C3F3022330B4C3F10705042D03F1040492
:1022A00028BF0425062C18D9033B01249C40013C7F
:1022B00022400124AC40013C214001FA03F30028F4
:1022C00042EA03020CDB00F1604000F561401201BC
:1022D000D2B280F8002330BC704700221346E8E7F2
:1022E000054B00F00F0012010344D2B21A7630BC45
:1022F000704700BF00ED00E0FCEC00E000F01F01C3
:1023000001234009024A8B4042F82030704700BF49
:1023100000E100E00138B0F1807F0ED2084B10B42C
:10232000084C5860F02084F8230000220721104652
:102330009A6019605DF8044B70470120704700BF38
:1023400010E000E000ED00E0F8B50446FFF774FF90
:10235000002C72D00222236884F835201A680021EC
:1023600022F0010284F8341005461A6005E0FFF7F8
:1023700063FF401B05283AD823681A68D107F6D4B2
:1023800004F10C0027C86768A6683E433043014348
:102390001143E669206A1F68344A29430E43616A83
:1023A00030433A40042942EA000227D01A605A69B1
:1023B00022F007021143DAB22D4D5961103AA5FB04
:1023C000021212092B4823F47F73815CE16523F02C
:1023D0000303032A88BF04333F228A4001250021DA
:1023E000A36508469A60616584F83550F8BD0323FB
:1023F00020226265184684F83530F8BDE06A216B0A
:10240000A66A01430A431A605A6946F0040122F0A1
:10241000070211430028CED08DB1B5F5005F18D06A
:10242000022E03D9032EC6D1C201C4D501234022F6
:102430006265184684F83530F8BD0120F8BD012EDC
:1024400003D0F1D3022EB6D1EEE7B0F1C07FB2D106
:10245000ECE7032EAFD801A252F826F02D24000895
:10246000292400082D2400084B2400083F8010F088
:10247000ABAAAAAAA4070108F0B490F83440012C32
:102480000DD090F83540866D0125AC4280F834506F
:1024900008D0002380F834300220F0BC70470220BE
:1024A000F0BC704704680227002580F83570456548
:1024B0002568876825F48025402F256063600ABF62
:1024C000A260A160E160C16D18BFE2603F238B4054
:1024D000026CB360236843F016032360636943F022
:1024E000800363611AB1236843F008032360236803
:1024F00043F0010323600020CFE700BF214BDA68DF
:10250000D00605D52049CA6910200243CA61D860A7
:102510001C4BDA68910606D51B49CA69202042F097
:102520000802CA61D860174BDA68520606D5164908
:10253000CA69402042F00402CA61D860114BDA68CF
:10254000100606D51049CA69802042F00202CA610D
:10255000D8600C4BDA68D10507D50B49CA694FF42E
:10256000807042F00102CA61D860064BDA689207B7
:1025700006D50549CA69022042F02002CA61D86026
:10258000704700BF003C0240200E00202DE9F84FAC
:102590004E4F3C7E012C02D10220BDE8F88F9B46B5
:1025A0009046002301228A4681463A76FB61FFF776
:1025B00043FE474C06464CF2503504E0FFF73CFE24
:1025C000801BA8424DD8E368414ADB03F6D4D368A8
:1025D000D80744BF0123D3603D4BDA6812F4F97F7A
:1025E00038D1B9F1000F41D11A6922F440721A6151
:1025F0001A691A6119695FFA88F841F001011961D5
:102600008AF800800023FB61FFF716FE304C064677
:102610004CF2503504E0FFF70FFE801BA8423CD877
:10262000E3682B4AD903F6D4D368DB0744BF012300
:10263000D360274BD86810F4F97002D0FFF75EFF23
:102640000120234A136923F00103136100233B7621
:10265000BDE8F88FFFF752FF002301203B76BDE86D
:10266000F88F002303203B76BDE8F88F1A6922F427
:1026700040721A61B9F1010F1A691AD0B9F1020F4B
:102680000DD042F440721A611A6942F001021A61D7
:10269000CAF80080CAF804B0B4E70320D1E742F4D6
:1026A00000721A611A6942F001021A61CAF80080C8
:1026B000A8E742F480721A611A691FFA88F842F09A
:1026C00001021A61AAF800809CE700BF200E0020DA
:1026D000003C0240054B1A69002A01DB01207047CB
:1026E0000349044A596000205A607047003C024088
:1026F00023016745AB89EFCD034A136943F00043DB
:1027000013610020704700BF003C0240144B70B5BD
:1027100000220446DA61FFF78FFD124D0646631C66
:1027200012D1104AD368D803FCD40E4BDA68D20712
:1027300044BF0122DA600B4BDB6813F4F97002D05E
:10274000FFF7DCFE012070BDEB68D903EDD524B1A5
:10275000FFF772FD801B8442E1D2032070BD00BFF1
:10276000200E0020003C02402DE9F843564E337EF7
:10277000012B02D10220BDE8F883012380464CF2F0
:1027800050300F463376FFF7C1FF0546002840F072
:1027900091804FF0FF333B60D8F80030012B45D0DB
:1027A000D8F80890D8F80C304B4499455AD2474C89
:1027B00033E0022B0CBF4FF400734FF440732169D8
:1027C00021F44071216121690B432361236923F0C6
:1027D000F803F822236192FAA2F22369B2FA82F294
:1027E00009FA02F243F0020313432361236943F41D
:1027F000803323614CF25030FFF788FF236923F0C8
:10280000FA03236100285AD1D8F80C20D8F80830F0
:1028100009F1010913444B4524D998F81030002BD5
:10282000CDD0012BC5D14FF48073C8E7274CD8F821
:102830001020236923F440732361236943F00403C8
:1028400023612369120202F47F4243F4803313436D
:1028500023614CF25030FFF759FF236923F0040342
:1028600005462361194B1A6891050FD51A6822F4A1
:1028700000721A601A6842F400621A601A6822F440
:1028800000621A601A6842F400721A600F4B1A68EC
:1028900052050FD51A6822F480621A601A6842F451
:1028A00080521A601A6822F480521A601A6842F440
:1028B00080621A60002328463376BDE8F883C7F8A3
:1028C00000900546CEE700BF200E0020003C0240ED
:1028D0002DE9F04FD1F800C0DFF8B881DFF8B8E19A
:1028E00083B000254FF0010903E00135102D00F001
:1028F000838009FA05F232EA0C03F6D14C6824F021
:102900001006022E7BD04FEA450A0323076803FA1C
:102910000AF3DB4304F0030B1F400BFA0AFB013EF2
:102920004BEA0707012E076040F28C80C7688E686B
:102930003B4006FA0AF63343C360E300D5D50023D3
:102940000193D8F8443043F48043C8F84430D8F8B1
:10295000443025F0030606F1804603F4804306F573
:102960009C36019305F00303019FD6F808A09B0055
:102970000F279F402AEA070B424FB84272D007F553
:102980008067B84270D0404FB84270D03F4FB842D5
:1029900072D03F4FB8420CBF4FF0040A4FF0070A05
:1029A0000AFA03F343EA0B03B360DEF80030D643C0
:1029B000E7034CBF13433340CEF80030DEF8043059
:1029C000A7034CBF13433340CEF80430DEF8083081
:1029D000E7024CBF13433340CEF80830DEF80C302A
:1029E000A40205F1010554BF06EA03021A43102DA3
:1029F000CEF80C207FF47DAF03B0BDE8F08F4FEA36
:102A0000D50A00EB8A0A05F00703DAF820700E6990
:102A10009B004FF00F0B0BFA03FB27EA0B0706FA9C
:102A200003F33B43CAF820304FEA450A0323066804
:102A300003FA0AF3DB4304F003071E4007FA0AF720
:102A40003E4306608668CF681E4007FA0AF73743A0
:102A500087604668C4F3001726EA0206AF403E438B
:102A6000466063E700239DE709FA03F39AE74FF016
:102A7000020A0AFA03F395E74FF0030A0AFA03F38E
:102A800090E700BF0000024000080240000C024036
:102A90000010024000380240003C01400369194226
:102AA00014BF01200020704702B9090481617047FA
:102AB0004369594041617047044A5169014200D15C
:102AC000704708B55061FFF74DF908BD003C014063
:102AD000F8B504460D46164623685869C04310F001
:102AE000020026D05A69510511D51A6800216FF4E9
:102AF000806742F40072042620251A6001205F617D
:102B0000266484F83C10216384F83D50F8BD6A1CAB
:102B1000E3D045B900232022236384F83C3084F8B5
:102B20003D200320F8BDFFF787FB801B8542D3D2F1
:102B3000F0E7F8BD2DE9F0410546006882B006686F
:102B4000089C884646F480711F4616460160621C48
:102B500041D14369DB07FCD508F0FE010161631C2C
:102B600014D043699B0714D443695A053FD4002C01
:102B700000F09380FFF760FB099BC01A8442C0F00D
:102B80008C802868EBE743695A0530D4436999077C
:102B9000F9D5002301934369019383690193019B54
:102BA000621C5CD143691B0648D443695905F9D5B9
:102BB00000236FF48064042120224461296485F895
:102BC0003C302B6385F83D202B6C042B2FD0032049
:102BD00002B0BDE8F0814369D907BDD4E4B1FFF785
:102BE0002BFB099BC01A844216D32868AFE7036801
:102BF00000226FF4806643F40073042420210360F4
:102C000046612C6485F83C202A6385F83D102B6CC6
:102C1000042BDCD10120DBE7002320222B6385F885
:102C20003C3085F83D20032085F83E30D0E72A6807
:102C3000136843F4007313600120C9E7012F0AD021
:102C4000330A0361671C19D14369190603D4436928
:102C50005A05ADD4F8E7F6B206610020B8E743693B
:102C60001A06EBD443695905A2D4F4B1FFF7E4FA8C
:102C7000099BC01A844218D3286891E743691B0650
:102C8000E9D443695B0593D47CB1FFF7D5FA099B7E
:102C9000C01A844209D32868D4E7002320222B637A
:102CA00085F83C3085F83D20B1E72B6C002243F0DD
:102CB000200320212B6485F83C202A6385F83D10F1
:102CC00082E700BF2DE9F0430446006889460168A9
:102CD00041F48061016083B001680A9E0B9D41F45C
:102CE0008071174698460160711C42D14369DA072A
:102CF000FCD55FFA89F909F0FE030361721C13D059
:102D000043699A0713D4436959053DD4002E00F056
:102D1000A880FFF791FA401B8642C0F0A28020688D
:102D2000ECE7436959052FD443699B07F9D5002384
:102D300001934369019383690193019B711C63D1E2
:102D400043691A0647D443695B05F9D500236FF43C
:102D50008065042120224561216484F83C3023638E
:102D600084F83D20236C042B2ED0032003B0BDE853
:102D7000F0834369DB07BCD4DEB1FFF75DFA401B8B
:102D8000864216D32068AFE7036800226FF480669E
:102D900043F400730425202103604661256484F810
:102DA0003C20226384F83D10236C042BDDD10120EC
:102DB000DCE700232022236384F83C3084F83D20A4
:102DC000032084F83E30D1E72268136843F400738F
:102DD00013600120CAE7B8F1010F0AD03B0A036172
:102DE000731C2FD14369190603D443695A05ADD426
:102DF000F8E7FFB20761711C15D143691A0638D490
:102E000043695B05A2D4F8E743691906E3D4436933
:102E10005B059BD4002E4CD0FFF70EFA401B864278
:102E200047D320688AE743691F0622D443695F05B8
:102E30008CD4002E3DD0FFF7FFF9401B864238D3DB
:102E40002068D8E743691B06D3D443695A053FF588
:102E50007DAF76B3FFF7F0F9401B864229D3206897
:102E6000BEE700232022236384F83C3084F83D2011
:102E70009AE7036843F480730360711C0DD14369C2
:102E8000DA07FCD549F0010303612A4631462046A2
:102E9000FFF71EFE002887D168E74369DB07F1D4FE
:102EA000002E86D0FFF7C8F9401B864281D32068E8
:102EB000E3E7236C002243F020032021236484F8FD
:102EC0003C20226384F83D104CE700BF704700BFF0
:102ED00000286CD0F8B590F83D30044603F0FF02AE
:102EE000002B4FD02268334D242384F83D301368E3
:102EF00023F00103136000F099FD2F4A61682368F5
:102F0000A2FB0062920CA9425A6026D84900B0FB8D
:102F1000F1F0C0F30B01013203291A6298BF0420BB
:102F2000256AD4F81CE02769E1686669A269D8615E
:102F300039434EEA0500324318609960DA60196837
:102F4000002241F00101202519601046226484F816
:102F50003D50226384F83E20F8BD4FF49675174F1C
:102F6000A66805FB02F2A7FB0252920901321A621F
:102F70006EB901EB4101B0FBF1F0C0F30B029AB95D
:102F80000120CDE780F83C20FFF7A0FFAAE701EB86
:102F9000810101EB8101B0FBF1F0C0F30B02002ACB
:102FA000EED040F44040BBE740F40040B8E70120D9
:102FB000704700BFA086010083DE1B43D34D621023
:102FC000704700BFB0B10268242310B580F83D30CF
:102FD000136823F0010304461360FFF7F1FF002399
:102FE000236484F83C3084F83D301846236384F829
:102FF0003E3010BD012070472DE9F047044682B0F5
:1030000098460E461746BDF82C90FFF715F994F830
:103010003D30202B04D00226304602B0BDE8F087B8
:10302000054605E0FFF708F9401B192800F28B80E0
:1030300022689369DB4313F0020AF3D094F83C3022
:10304000012BE8D013680121D80784F83C1002D482
:1030500013680B43136013685B4923F40063136028
:103060004FF0000A2122402384F83D2084F83E30AE
:10307000C4F840A0A4F82A90E162608D0A9B6362C4
:1030800031460C9E00960195434620853A462046DF
:10309000FFF750FD0646002870D12368228D002AD4
:1030A00029D00C9A013259D15A6912062DD45A6985
:1030B0005705F9D500226FF48065042020215D6159
:1030C000206484F83C20226384F83D10236C042B98
:1030D00074D00326A0E75A69520756D45A69570597
:1030E000E8D40C9B002B5DD0FFF7A6F80C9B401B8F
:1030F000834257D323680C9A0132ECD15A695007A6
:1031000043D45A695105D5D4F8E7606A278D421C2B
:10311000626202781A61618D013989B261855969EB
:103120007A1E92B249072285B9D5002AE3D0821CC3
:10313000626242781A61618DBA1E013992B289B217
:1031400022856185ABE72023C4F830A084F83CA039
:1031500084F83D30022684F83EA05DE75A691006E7
:10316000D3D45A695105A5D40C9BDBB1FFF764F8A1
:103170000C9B401B834215D3236892E7236C84F891
:103180003CA0042BA5D1012646E71A680021202087
:1031900042F400721A6084F83D0084F83C1084F810
:1031A0003E1039E7236C002243F0200320212364E2
:1031B00084F83C20226384F83D1087E72268136876
:1031C00043F400731360DEE70000FFFF2DE9F04FCA
:1031D000044687B099460F469046BDF844A0129E1B
:1031E000FFF72AF894F83D30202B04D00227384608
:1031F00007B0BDE8F08F054604E0FFF71DF8401B5F
:1032000019283AD822689369DB4313F0020BF4D0F3
:1032100094F83C30012BE9D013680121DB0784F8D6
:103220003C1002D413680B4313601368994923F4CC
:10323000006313604FF0000B2222402384F83D20EE
:1032400084F83E30C4F840B0A4F82AA0E162608D52
:10325000109B63623946019500964B462085424695
:103260002046FFF72FFD074690B1236C84F83CB051
:10327000042B00F0E0800327B9E72023C4F830B026
:1032800084F83CB084F83D30022784F83EB0AEE7C5
:10329000228D236892B902905A6902929A69029229
:1032A000029A1A6842F400721A600023202284F8FD
:1032B0003D2084F83C3084F83E3098E7012A00F045
:1032C000DA80022A00F0E880059059690591996931
:1032D00005910599032A76D8012A00F0AE80022ACA
:1032E00046D0701C50D15A695107FCD51A68616AE2
:1032F00022F480621A601B694A1C62620B70638D43
:10330000228D013B9BB2013A63852285701C2268A5
:1033100045D153695907FCD51368616A43F40073BA
:10332000136013694A1C62620B70638D218D606AA1
:103330002268013B9BB2638512694B1E411C2385A9
:1033400061620270228D638D013A013B92B29BB2A1
:1033500022856385002AA8D02368BBE75A695207F3
:103360000BD42EB3FEF768FF401B864220D32368A0
:10337000701CF3D15A695107FCD51A68616A42F48E
:1033800000721A601B69CDE75A695207AED47EB14C
:10339000FEF752FF401B86420AD32368A1E7536918
:1033A0005B07B9D426B1FEF747FF401B8642ADD27A
:1033B00000232022236384F83C3084F83D20032737
:1033C00084F83E3013E74EB922E05A69D20642D45F
:1033D000FEF732FF401B864220D323685A6951060C
:1033E000F3D5626A1B69511C61621370618D236899
:1033F000228D013989B261855969013A92B2490732
:103400002285A7D5626A1B69511C6162137099E716
:103410005A695006E5D45A69D0061CD4236C202280
:1034200013430021236484F83C1084F83D20236C6E
:10343000202B3FF420AF0127D9E636B917E0FEF77D
:10344000FBFE401B8642E9D323685A695006D9D453
:103450005A69D106F3D500226FF01000202158617F
:10346000226484F83C20226384F83D10DFE75A6927
:103470005206D0D5C6E7196821F48061196003901F
:1034800059690391996903910399196841F400718D
:1034900019601FE70000FFFF196821F480611960BF
:1034A000196841F40061196004905969049199699F
:1034B000049104990EE700BF90F83D00704700BFEB
:1034C000F0B50368DD0783B004462FD5A5498A68A7
:1034D00002F00C02042A00F0F6808A6802F00C0266
:1034E000082A00F0EC806368B3F5803F00F02F817C
:1034F000B3F5A02F00F003819A4D2A6822F48032A0
:103500002A602A6822F480222A60002B40F0008181
:10351000FEF792FE064605E0FEF78EFE801B64284D
:1035200000F2AC802B689B03F6D423689F072FD54D
:103530008C4A916811F00C0F00F0A780916801F09F
:103540000C01082900F09D80E368002B00F0EE805C
:10355000854B844D01221A60FEF76EFE064605E09B
:10356000FEF76AFE801B022800F288802B687D4AE5
:103570009807F5D51168F82393FAA3F32069B3FAF5
:1035800083F321F0F80100FA03F30B43136023687F
:103590001A0720D4590734D4A269CAB1714B99686B
:1035A00001F00C01082977D0022A704A4FF000017F
:1035B000116000F0D2801C46FEF73EFE054604E096
:1035C000FEF73AFE401B022858D823689B01F7D427
:1035D000002003B0F0BD6369002B60D0644B614DE7
:1035E00001221A60FEF728FE064604E0FEF724FEDC
:1035F000801B022842D86B6F9F07F7D523685907B5
:10360000CAD5584B5B4D002201921A6C42F0805291
:103610001A641B6C03F080530193019B2B6843F4E5
:1036200080732B60FEF708FE064604E0FEF704FEFA
:10363000801B022822D82B68DA05F7D5A368012B56
:1036400000F0F680052B00F0DA80464D2A6F22F05C
:1036500001022A672A6F22F004022A67002B40F039
:10366000D780FEF7E9FD41F2883607462B6F9807B1
:1036700092D5FEF7E1FDC01BB042F7D9032003B09D
:10368000F0BD526856023FF55FAF364A12689507A3
:1036900023D5E268012A20D0012003B0F0BD344ACE
:1036A000304D1360FEF7C8FD064604E0FEF7C4FD8A
:1036B000801B0228E2D86B6F9807F7D49EE74A6810
:1036C00050027FF510AF274A126891037FF52EAFA5
:1036D0006268002A7FF42AAFDEE7224DF8222968CB
:1036E00092FAA2F22069B2FA82F221F0F80100FA0D
:1036F00002F20A432A601A077FF54CAF6BE7194BB9
:103700001A6842F480221A601A6842F480321A6001
:10371000FEF792FD134D064604E0FEF78DFD801B7B
:103720006428ABD82B689A03F7D5FEE60E4A0D4DF8
:103730001360FEF781FD064604E0FEF77DFD801B69
:1037400002289BD82B689907F7D4236820E7054AFD
:10375000136843F480331360DAE71D46FEF76CFD0F
:1037600006460FE000380240000047426000474232
:10377000800E474200700040FEF75EFD801B02286D
:103780003FF67CAF2B682D4A9901F5D447F6C076F9
:1037900096FAA6F64FF44033B6FA86F793FAA3F3F7
:1037A0004FF07065B3FA83F395FAA5F5A16A666ADE
:1037B000D4F81CC0D4F820E0E06A4908BE400139C2
:1037C0004CEA0E07B5FA85F401FA03F347EA060559
:1037D00000FA04F12B431A480B43012153600160A6
:1037E0001446FEF729FD054605E0FEF725FD401BC2
:1037F00002283FF643AF23689A01F6D5E8E60F4B5F
:103800001A6F42F004021A671A6F42F001021A6737
:10381000FEF712FD094D074641F288362B6F9B07D4
:103820003FF5BAAEFEF708FDC01BB042F6D925E75A
:10383000024A136F43F001031367E9E700380240BF
:10384000600047421B4A936803F00C03042B2ED000
:10385000082B2AD15368516803F03F0311F4800FFD
:1038600047F6C070516890FAA0F047F6C07202EABD
:103870000102B0FA80F022FA00F014BF0E4A0F4A9B
:10388000B2FBF3F30B4A03FB00F352684FF44030F2
:1038900090FAA0F002F44032B0FA80F022FA00F080
:1038A00001304000B3FBF0F0704704487047024815
:1038B000704700BF0038024000127A000024F40074
:1038C000564A136803F00F038B422DE9F04109D2E9
:1038D000CBB21370136803F00F03994202D001209A
:1038E000BDE8F08103689A0706D54D4D8268AC6843
:1038F00024F0F0042243AA60DF0706460C4626D5D2
:103900004368012B00F084809A1E012A444A126801
:1039100078D99107E3D5424DAA6822F003021343F8
:10392000AB60FEF789FC7368012B074641F28838CB
:103930004CD0022B55D0032B05D15DE0FEF77CFC6B
:10394000C01B404561D8AB6813F00C0FF6D1334A69
:10395000136803F00F039C4206D2E3B2137013689E
:1039600003F00F039C42BAD133685A0706D52C489E
:10397000F268816821F4E0510A4382601B0707D591
:10398000274A3169936823F4604343EAC103936093
:10399000FFF758FF224B0146F0229B6892FAA2F2F1
:1039A000B2FA82F203F0F003D3401E481E4AC35C11
:1039B0000F2021FA03F31360FEF706FC0020BDE898
:1039C000F081FEF739FCC01B40451ED8AB6803F000
:1039D0000C03042BF5D1BAE7FEF72EFCC01B4045C3
:1039E00013D8AB6803F00C03082BF5D1AFE7FEF753
:1039F00023FCC01B404508D8AB6803F00C030C2B1C
:103A0000F5D1A4E7900186D469E70320BDE8F081F1
:103A1000034A126895033FF57EAF60E7003C024021
:103A200000380240AC07010834000020084B4FF476
:103A3000E0529B6892FAA2F2B2FA82F203F4E053E7
:103A4000D3400449044ACB5C1068D840704700BF9B
:103A500000380240BC07010834000020084B4FF436
:103A600060429B6892FAA2F2B2FA82F203F46043D7
:103A7000D3400449044ACB5C1068D840704700BF6B
:103A800000380240BC07010834000020F0B503688C
:103A900013F0050F83B005460BD1286883073FD488
:103AA00010F0080003D04E4B2A7C1A60002003B0AF
:103AB000F0BD4C4B4C4C00221A60FEF7BDFB064695
:103AC00004E0FEF7B9FB801B022826D82368464A8B
:103AD0001F01F6D447F6C07191FAA1F14FF0E04012
:103AE000B1FA81F190FAA0F06C68AB683D4EB0FA83
:103AF00080F004FA01F183400B430121C2F88430C5
:103B000031601446FEF798FB064623681801C4D4BA
:103B1000FEF792FB801B0228F7D9032003B0F0BD0B
:103B2000314B324C002201921A6C42F080521A64DE
:103B30001B6C03F080530193019B236843F4807353
:103B40002360FEF779FB064604E0FEF775FB801B59
:103B50000228E2D82368D905F7D523490B6F13F45F
:103B60004072EB6803F4407010D082420ED00B6FAD
:103B70001F4A23F4407301240020146010600B6777
:103B80000B6FDA071DD4EB6803F44070B0F5407F8B
:103B90000CD015498A6822F4F8128A6012490A6F1B
:103BA000C3F30B0313430B67286879E70E4881685A
:103BB00023F0704221F4F81122F440720A4382602B
:103BC000ECE70C46FEF738FB41F288360746236FD8
:103BD0009B07D8D4FEF730FBC01BB042F7D99CE757
:103BE000E011474268004742003802400070004040
:103BF000400E4742002852D0F8B5437F044603F0F8
:103C0000FF02002B47D02368CA215322022060778D
:103C100059625A62DA68510626D59A682569606940
:103C20006668E168A76822F4E00222F040029A6028
:103C30009A6832432A4302439A6019611969A2695A
:103C400041EA07411961D96821F08001D960196CF6
:103C500021F480211964196CFF250A4301211A649B
:103C600000205D626177F8BD4FF0FF32DA60FEF749
:103C7000E3FA05462368DA685206CED4FEF7DCFA8A
:103C8000401BB0F57A7FF5D92268FF2104235162E9
:103C900001206377F8BD0277FEF7B0F9B3E70120A2
:103CA000704700BF2DE9F843037F012B00F08280AD
:103CB00001240223047743770468002A3CD0A768D4
:103CC0004E780B7817F0400516BFCF78CD703D04C5
:103CD0004FEA06268F7808BF046846EA03433B4351
:103CE00043EA0507CA22532362626362E3685A0605
:103CF0008846064661D507F07F3323F0FE432360F4
:103D0000A168D8F80C30D8F8102021F48021A160E7
:103D1000A1680B431343A360E36823F08003E360CF
:103D2000A3689B0664D50023FF2101226162184627
:103D300072773377BDE8F883A6680B7816F04006F3
:103D400015BFCE78CE7036040468092B63D90022E3
:103D50000A3BDBB2092B02F10102F9D84FEA021E3D
:103D60005FFA8EFE4A7843EA0E03092A4FEA034EB1
:103D70004FF0000507D90A3AD2B2092A05F1010528
:103D8000F9D82D01EDB28B782A43092B4FEA022591
:103D90004FF0000707D90A3BDBB2092B07F10107F7
:103DA000F9D83F01FFB24EEA06022A433B4342EAFA
:103DB000030797E70220BDE8F8834FF0FF33E36085
:103DC000FEF73AFA81463468E36813F0400592D171
:103DD000FEF732FAC9EB0000B0F57A7FF3D932680A
:103DE000FF2104235162012035777377BDE8F88302
:103DF000E36823F0A003E360FEF71EFA0746346889
:103E0000E36813F020058ED1FEF716FAC01BB0F55B
:103E10007A7FF4D9E3E74FF0000EA3E70368F0B52B
:103E20009D6A1C691B684D6003F07F3323F0FE43DD
:103E3000180CC3F30627C4F30E04DBB200F0400EE7
:103E400000F03F068C6081F803E00E704F708B70BD
:103E5000BAB93D091C09360906EB860605EB85054E
:103E600004EB840400F00F0007F00F0703F00F03CA
:103E700000EB460007EB450503EB440408704D706A
:103E80008C700020F0BD00BFF8B5037F012B61D01E
:103E9000012402230477437732B34A78CB788D78B4
:103EA0000C78110241EA03422A4342EA443403688F
:103EB000CA21532259625A62DA68510607464BD525
:103EC00024F07F4424F0C0045C60DA6822F08002B1
:103ED000DA609A6892065ED50022FF2001215862BE
:103EE000104679773A77F8BD4B78DC064DD4CA781E
:103EF000092A4FF0000407D90A3AD2B2092A04F17C
:103F00000104F9D82401E4B22243092B4FEA02420A
:103F10005BD900240A3BDBB2092B04F10104F9D878
:103F20002501EDB28C782B43092C4FEA03254FF085
:103F3000000607D90A3CE4B2092C06F10106F9D8BB
:103F40003601F6B20B7842EA433242EA05033443C3
:103F50001C43ACE70220F8BD4FF0FF32DA60FEF7F9
:103F60006BF906463B68DA6812F04005A8D1FEF707
:103F700063F9801BB0F57A7FF4D93A68FF210423F6
:103F8000516201203D777B77F8BD23F010030A339F
:103F9000DBB24B70ABE7DA6822F0A002DA60FEF722
:103FA0004BF905463B68DA6812F0200494D1FEF71D
:103FB00043F9401BB0F57A7FF4D93A68FF21042316
:103FC000516201203C777B77F8BD0025AAE700BF4E
:103FD00003685B6823F07F4323F0C003F0B4C3F3AE
:103FE0000725DEB2C3F3423705F01F001B0C0F702C
:103FF0004870CB708E70BAB9000934091A0987006D
:1040000004EB840405F00F0506F00F06384402EBBC
:10401000820203F00F0306EB440405EB400003EBC0
:1040200042038C704870CB700020F0BC704700BF1A
:10403000002858D0F8B590F83930044603F0FF0254
:10404000002B3BD023682949022284F839208B4277
:104050001A6838D0B3F1804F22D0A1F57C418B4251
:104060001ED001F580618B421AD001F580618B4230
:1040700016D001F59A318B4216D001F580618B4242
:1040800012D001F580618B420ED0E06861681A6041
:10409000D862996201225A61002084F83920F8BD63
:1040A000A16822F070020A432169E568606822F481
:1040B00040720A431A60DD629862EBE780F83820AC
:1040C000FDF7E0FFBEE7A1682069E76866686569FB
:1040D00022F07002114321F4407101431960DF6244
:1040E0009E621D63D6E70120704700BF00000140BB
:1040F0000368DA6842F00102DA601A6842F00102ED
:104100001A600020704700BF0368DA6822F00102DD
:10411000DA60196A41F211120A4042B9196A40F292
:1041200044420A401AB91A6822F001021A600020BB
:10413000704700BF90F83830012B40D0022203684E
:1041400070B480F839209A680C6822F47F4222F01B
:1041500077020125402C80F838509A6073D018D926
:10416000702C60D02DD9B4F5805F57D0B4F5005FC6
:104170001CD19C688A684D68CE682A4324F47F412C
:104180000A4342EA06229A609A6842F480429A60A0
:104190000CE0102C32D038D9202C6CD0302C05D12A
:1041A0009A6822F0700242F037029A6000230122DE
:1041B00080F8392080F8383070BC184670470220EB
:1041C0007047502C5ED0602CF0D11C6A4D68CE68D0
:1041D00024F010041C6299691A6A21F4704122F0DB
:1041E000A00242EA051241EA063199611A629A6810
:1041F00022F0700242F067029A60D7E79A6822F0D4
:10420000700242F017029A60D0E7002CCED19A6873
:1042100022F0700242F007029A60C7E79A6822F023
:1042200007029A60C2E79C688A684D68CE682A4394
:1042300024F47F410A4342EA06229A609A6842F0D7
:1042400077029A60B2E71A6A1C6A4E68CD6824F059
:1042500001041C62996922F00A0221F0F001324344
:1042600041EA051199611A629A6822F0700242F0DF
:1042700047029A609AE79A6822F0700242F0270299
:104280009A6093E71A6A1C6A4E68CD6824F00104AC
:104290001C62996922F00A0221F0F001324341EADE
:1042A000051199611A629A6822F0700242F0570271
:1042B0009A607BE7704700BF704700BF704700BF40
:1042C000704700BF03681A69910710B5044602D50C
:1042D000DA68920762D41A69500702D5DA68510782
:1042E00049D41A69120702D5DA68100731D41A695D
:1042F000D20602D5DA68D00618D41A69D10702D5D9
:10430000DA68D2076BD41A69100602D5DA6811068A
:104310006DD41A69520602D5DA68500657D41A6964
:10432000910602D5DA68920649D410BD6FF01002EA
:104330001A61DB69082213F4407F2276204661D19E
:10434000FFF7B8FF2046FFF7B9FF00222368227667
:10435000D3E76FF008021A61DB690422990722761D
:10436000204655D1FFF7A6FF2046FFF7A7FF002202
:1043700023682276BBE76FF004021A619B69022270
:1043800013F4407F227620463FD1FFF793FF20466B
:10439000FFF794FF002223682276A2E76FF0020263
:1043A0001A619B6901229B07027628D1FFF782FFE1
:1043B0002046FFF783FF0022236822768BE76FF009
:1043C000200220461A61BDE8104000F049B86FF0A5
:1043D00040021A612046FFF773FF23689FE76FF0E2
:1043E00001021A612046FDF7CDFC23688BE76FF0D0
:1043F00080021A61204600F035F8236889E7FFF74C
:104400005BFFD8E7FFF758FF9FE7FFF755FFC1E7CE
:10441000FFF752FFABE700BF90F83830012B1DD0FB
:1044200002460220136830B482F839005C6824F038
:10443000700403C95C605C6820435860986820F091
:104440008000986098680024012501439960204607
:1044500082F8395082F8384030BC704702207047EB
:10446000704700BF704700BF2DE9F0470668376905
:104470000546C068EC69D5F808E02A69696927F43F
:10448000405738433061F368A8694EEA020223F4CA
:1044900016430A4323F00C0322431343F36073696A
:1044A00023F440730343B4F5004F7361A34B5DD015
:1044B0009E4200F0F68003F580639E4200F0F1809A
:1044C000FFF7B4FA6F68DFF8788200EB800000EB4A
:1044D0008000BF00B0FBF7F7FFF7A8FA6C6800EBAD
:1044E000800000EB8000A400B0FBF4F4FFF79EFA1C
:1044F000A8FB07376B6800EB80009B0000EB800097
:10450000B0FBF3F0A8FB003040094FF0640A0AFB4F
:104510001044FFF78BFA696800EB80008A0000EB1B
:104520008000B0FBF2F9FFF781FA24016A683234A7
:1045300000EB80009200A8FB043400EB8000B0FB8D
:10454000F2F0A8FB00307F09640940093F0104F044
:10455000F0040AFB109212013232A8FB0223C3F3CB
:1045600043131C442744B760BDE8F0879E4259D0EE
:1045700003F580639E4255D0FFF758FA6F68DFF865
:10458000C08100EB800000EB80007F00B0FBF7F7FC
:10459000FFF74CFA6C6800EB800000EB80006400D1
:1045A000B0FBF4F4FFF742FA6A6800EB8000A8FB66
:1045B000073700EB80005300B0FBF3F3A8FB0323A5
:1045C0005B094FF0640A0AFB1344E400FFF72EFA7C
:1045D0003234A8FB04346B687F09240900EB8000A7
:1045E00000EB80005A003F0104F4F874B0FBF2F9CC
:1045F000FFF71CFA696800EB800000EB80004900BF
:10460000B0FBF1F1A8FB013149090AFB1192D2007C
:104610003232A8FB0223C3F342133B441C44B46070
:10462000BDE8F087FFF71AFA6F68DFF8148100EB36
:10463000800000EB80007F00B0FBF7F7FFF70EFA79
:104640006C6800EB800000EB80006400B0FBF4F4C9
:10465000FFF704FA6A6800EB8000A8FB073700EB5D
:1046600080005300B0FBF3F3A8FB03235B094FF07A
:10467000640A0AFB1344E400FFF7F0F93234A8FBA4
:1046800004346B687F09240900EB80005A003F0165
:1046900004F4F87400EB8000B0FBF2F9FFF7DEF9E8
:1046A000A8E7FFF7DBF96F68DFF8948000EB800084
:1046B00000EB8000BF00B0FBF7F7FFF7CFF96C68A5
:1046C00000EB800000EB8000A400B0FBF4F4FFF7E7
:1046D000C5F96A6800EB8000A8FB073700EB800093
:1046E0009300B0FBF3F3A8FB03235B094FF0640ACC
:1046F0000AFB13442401FFF7B1F93234A8FB043458
:104700006B6800EB80009A0000EB8000B0FBF2F9D0
:10471000FFF7A4F9696800EB800000EB80008900D6
:10472000B0FBF1F1A8FB01317F09640949093F01A0
:1047300004F0F0040AFB11920DE700BF00100140E5
:104740001F85EB51704700BF60B338B590F8393022
:10475000044603F0FF0203B32268242384F83930AF
:10476000D36823F40053D3602046FFF77DFE23680F
:104770001A6922F490421A615A6922F02A025A6197
:10478000DA680025202142F40052DA602846E56309
:1047900084F8391084F83A1038BD80F83820FFF7D3
:1047A000D1FFD9E701207047F0B50E4690F83910D7
:1047B000202983B002D0022003B0F0BD002E2ED0FD
:1047C000002A2CD01F4690F83830012B0446F2D036
:1047D000002001212123E06384F8381084F8393067
:1047E0000192FDF729FD019AA28405462068E28422
:1047F000E38C9BB2002B3BD0E28CA368013A92B2CF
:10480000B3F5805FE28418D07A1C3FD1026802F0D1
:104810008002002AFAD0337843600136E8E70120AD
:10482000CAE7036803F0800373B9002F3AD0FDF79D
:1048300003FD401B8742206834D3791CF1D1026804
:1048400002F08002002AFAD033882269C3F30803F9
:104850004360002AE1D10236CAE7036803F040034F
:104860006BB9FFB1FDF7E8FC401B8742206819D304
:104870007B1CF2D1036803F04003002BFAD0202305
:10488000002084F8393084F8380095E7036803F095
:104890008003002BBFD12FB1FDF7CEFC401B874218
:1048A0002068B1D2C36823F4D073C3604369202267
:1048B00023F001030021436184F83920032084F8A8
:1048C000381084F83A2077E7F0B590F83A40202C79
:1048D00083B002D0022003B0F0BD002935D0002AF9
:1048E00033D090F83830012BF4D004460127406BC8
:1048F000174E84F838700025134622270A4621688F
:10490000A262A385E56384F83A70C663114F124E24
:1049100005650764C6640431FDF7AEFD23680195A3
:104920001A6801925A680192019ADA6884F838503C
:1049300042F48072DA605A6942F001025A615A699F
:1049400042F0400228465A61C5E70120C3E700BF94
:10495000614900089D490008AD490008704700BF43
:1049600008B50368806B1B6813F4807310D102686C
:10497000C385D36823F48073D360536923F00103A4
:1049800053615369202123F04003536180F83A10AA
:10499000FFF7E4FF08BD00BF704700BF08B5806B9C
:1049A000FFF7FAFF08BD00BF704700BF806B08B576
:1049B0000368596990F83920212A1BD0596990F869
:1049C0003A20222A06D0C36B43F01003C363FFF7DB
:1049D000EBFF08BD4A06F6D50022C285DA6822F44C
:1049E0009072DA605A69202122F001025A6180F83F
:1049F0003A10E8E70906E1D50022C284DA682021EE
:104A000022F0C002DA6080F83910D7E71049114B64
:104A1000D1F8882042F4700210B4C1F888201A68D6
:104A20000D4C002042F001021A6098601A6822F0D2
:104A3000847222F480321A605C601A684FF000645D
:104A400022F480221A60D8608C605DF8044B7047B5
:104A500000ED00E00038024010300024F0B52C4D8D
:104A600089B02846FEF728FD38B12948FEF724FD15
:104A7000203818BF012009B0F0BD264E0190264B0A
:104A80002B60336B254A044643F00203AC6033636A
:104A9000336B6A6003F00203019333224FF48043C7
:104AA0004FF44071EA602B610222042303911C48F9
:104AB000DDF804E0069203A91227079305940497F2
:104AC000FDF706FF0294336C43F400133364336C38
:104AD00003F400130293029B336A43F4001333621E
:104AE000336A23F400133362224621461F20FDF768
:104AF000CDFB1F20FDF702FC224621462020FDF7BA
:104B0000C5FB2020FDF7FAFB2846FEF7E1F9ACE7EC
:104B1000880500200038024000540040801A06003A
:104B200000040240F0B52C4D89B02846FEF7C4FCC5
:104B300038B12948FEF7C0FC203818BF012009B061
:104B4000F0BD264E0190264B2B60336B254A044660
:104B500043F00203AC603363336B6A6003F002031B
:104B6000019333224FF480434FF44071EA602B618C
:104B70000222042303911C48DDF804E0069203A9F5
:104B80001227079305940497FDF7A2FE0294336C55
:104B900043F400133364336C03F400130293029B59
:104BA000336A43F400133362336A23F4001333622D
:104BB000224621461F20FDF769FB1F20FDF79EFBC3
:104BC000224621462020FDF761FB2020FDF796FBC1
:104BD0002846FEF77DF9ACE7880500200038024042
:104BE00000540040801A0600000402400020704774
:104BF000F0B58DB000241D4D00942B6B1C4E1D484C
:104C000043F001032B632B6B049403F00103022791
:104C1000009302A910230293009A03960597FDF7CB
:104C200057FE224621460A20FDF730FB0A20FDF7F9
:104C300065FB01942B6B10483B432B632B6B089651
:104C40003B40019307A901230793019A0A9709940E
:104C5000FDF73EFE224621460620FDF717FB062003
:104C6000FDF74CFB20460DB0F0BD00BF0038024000
:104C700000001110000002400004024070B586B030
:104C80000024104B00941A6B0F4D104842F00102A3
:104C90001A631B6B039403F0010300931022022399
:104CA00001A904930192009E0295FDF711FE224690
:104CB00021460A20FDF7EAFA0A20FDF71FFB2046ED
:104CC00006B070BD00380240000011100000024024
:104CD0002DE9F0470F460178B12984B0054690468A
:104CE0001E461BD012D83D2913D04FF48053A9780B
:104CF0001C4802930196CDF800803A460123FEF746
:104D00007BF930BB002004B0BDE8F087BC39012935
:104D1000EBD8012E88BF47F08007E6E7002BF1D0E3
:104D200000244FF4805A4FF0010901E0B442E9D069
:104D300008EB04033A19A9780A480093CDF808A0B3
:104D4000CDF80490D2B20123FEF756F901340028C1
:104D5000ECD00448FEF736F9FFF780FE012004B0DE
:104D6000BDE8F087880500202DE9F0470F4601785F
:104D7000B12984B0054690461E461BD012D83D2965
:104D800013D04FF48053A9781C4802930196CDF8B4
:104D900000803A460123FEF719FA30BB002004B028
:104DA000BDE8F087BC390129EBD8012E88BF47F058
:104DB0008007E6E7002BF1D000244FF4805A4FF033
:104DC000010901E0B442E9D008EB04033A19A978DB
:104DD0000A480093CDF808A0CDF80490D2B2012380
:104DE000FEF7F4F901340028ECD00448FEF7EAF8A5
:104DF000FFF734FE012004B0BDE8F08788050020ED
:104E0000F8B500260F460E6005466B4C002800F0F2
:104E10008C800128637E2AD1012B00F08480FFF76B
:104E200081FE01287FD06923D4202375A07504F169
:104E3000380304F1300E6149614A667504F11400CB
:104E400025766676A676E576216223636663C4F8E6
:104E50001CE062623860236A1B68002B00F09E80B1
:104E60009847012858D0FFF7C3FE0020F8BD012B5A
:104E70002AD0FFF757FE012826D06921D42201232A
:104E80002175A27504F1300E4C4D4D49237604F185
:104E9000380204F11400E37666756676A67625621C
:104EA0006663C4F81CE0616222633860236A1B6891
:104EB000002B7AD098470128D5D13B681E605E60F0
:104EC0009E60DE601E613E6063793B4D012B2AD0FF
:104ED000FFF728FE012826D06821D62201230026CC
:104EE0002970AA70EB7105F1280005F13C033549E2
:104EF000354A6E702E716E71AE71E960AB622E61D3
:104F0000EE62A8602A643D60EB681B68002B3DD010
:104F10002846984701282DD13B681E605E609E6040
:104F2000DE601E613E600120F8BD6379012BFAD07E
:104F3000FFF7F8FD0128F6D06822D6232270A3706F
:104F4000012604F13C0304F128001E491E4A657045
:104F500025716571A571E671E160A3622561E56265
:104F6000A06022643C60E3681B687BB120469847E0
:104F7000B04203D0FFF73AFE0020F8BD3B681D6049
:104F80005D609D60DD601D613D60CCE700232360B6
:104F90006360A360E36023613B60C4E763614360D7
:104FA0008360C36003613B60BDE76361436083600E
:104FB000C36003613B6087E7DC0500202C03002011
:104FC000B80300208C020020540E002060B108B508
:104FD000C3689B6833B19847A0F10100B0FA80F034
:104FE000400908BD012008BD0120704760B108B527
:104FF000C368DB6833B19847A0F10100B0FA80F0D4
:10500000400908BD012008BD0120704720B119B139
:1050100043790B70002070470120704720B119B10F
:1050200003790B70002070470120704768B108B504
:10503000C26841B1936933B19847A0F10100B0FA59
:1050400080F0400908BD012008BD0120704700BF65
:1050500068B108B5C26841B1536A33B19847A0F14D
:105060000100B0FA80F0400908BD012008BD012010
:10507000704700BF60B108B5C368DB6A33B19847B9
:10508000A0F10100B0FA80F0400908BD012008BD80
:105090000120704760B108B5C3685B6B33B19847B6
:1050A000A0F10100B0FA80F0400908BD012008BD60
:1050B0000120704760B108B5C368DB6C33B1984715
:1050C000A0F10100B0FA80F0400908BD012008BD40
:1050D00001207047F8B500260F460E6005466A4C61
:1050E000002800F08C800128637E2AD1012B00F07B
:1050F0008480FFF717FD01287FD06923D420237512
:10510000A07504F1380304F1300E6049604A6675F9
:1051100004F1140025766676A676E576216223638F
:105120006663C4F81CE062623860236A1B68002B67
:1051300000F09C809847012858D0FFF759FD0020C7
:10514000F8BD012B2AD0FFF7EDFC012826D06921FC
:10515000D42201232175A27504F1300E4B4D4C4928
:10516000237604F1380204F11400E376667566765E
:10517000A67625626663C4F81CE06162226338602B
:10518000236A1B68002B78D098470128D5D13B684B
:105190001E605E609E60DE601E613E6063793A4D17
:1051A000012B2AD0FFF7BEFC012826D06821D62289
:1051B000012300262970AA70EB7105F1280005F182
:1051C0003C033449344A6E702E716E71AE71E960E1
:1051D000AB622E61EE62A8602A643D60EB681B68DA
:1051E000002B3BD02846984701282DD13B681E60F4
:1051F0005E609E60DE601E613E600120F8BD6379E6
:10520000012BFAD0FFF78EFC0128F6D06822D623B6
:105210002270A370012604F13C0304F128001D490B
:105220001D4A657025716571A571E671E160A36223
:105230002561E562A06022643C60E3681B686BB195
:1052400020469847B04201D00020F8BD3B681D6061
:105250005D609D60DD601D613D60CEE700232360E1
:105260006360A360E36023613B60C6E76361436002
:105270008360C36003613B60BFE763614360836039
:10528000C36003613B6089E720060020DC02002048
:105290007C0300203C020020540E002060B108B5C1
:1052A000C3689B6833B19847A0F10100B0FA80F061
:1052B000400908BD012008BD0120704760B108B554
:1052C000C368DB6833B19847A0F10100B0FA80F001
:1052D000400908BD012008BD0120704720B119B167
:1052E00043790B70002070470120704720B119B13D
:1052F00003790B70002070470120704768B108B532
:10530000C26841B1936933B19847A0F10100B0FA86
:1053100080F0400908BD012008BD0120704700BF92
:10532000F8B50026354C0E600F46637900282FD063
:10533000012B2BD0FFF7F6FB012827D02346304A5C
:1053400043F81C2FBC256361BE202E4B66700121E3
:1053500004F1140226716671A6712570A070E171C6
:10536000E3602661A661A2603C60E3681B68002BD5
:105370003BD020469847012801D00020F8BD3B686B
:105380001E605E609E60DE601E613E600120F8BDB2
:10539000012BFBD00546FFF7C5FB0128F6D02346BD
:1053A000174A43F81C2FBC266361BE20154B65705D
:1053B000012104F1140225716571A5712670A07098
:1053C000E171E3602561A561A2603C60E3681B6850
:1053D0005BB1204698470128CFD13B681D605D60D6
:1053E0009D60DD601D613D60D0E700232360636048
:1053F000A360E36023613B60C8E700BF6406002050
:10540000400E00207800002060B108B5C3689B689A
:1054100033B19847A0F10100B0FA80F0400908BD0F
:10542000012008BD0120704760B108B5C368DB6882
:1054300033B19847A0F10100B0FA80F0400908BDEF
:10544000012008BD0120704720B119B143790B70CC
:10545000002070470120704768B108B5C26841B1AB
:10546000936933B19847A0F10100B0FA80F0400988
:1054700008BD012008BD0120704700BFF8B5002617
:10548000314C0E600F46637960B3012B28D0FFF7D3
:1054900049FB012824D004F11C033D253C2004F1E4
:1054A00014012A4A667026716671A671E67125702C
:1054B000A070E26063612661A661A1603C60E36860
:1054C0001B68002B38D020469847012801D00020C7
:1054D000F8BD3B681E605E609E60DE601E613E60DF
:1054E0000120F8BD012BFBD00546FFF71BFB01286F
:1054F000F6D004F11C033D263C2004F11401134AAC
:10550000657025716571A571E5712670A070E26006
:1055100063612561A561A1603C60E3681B685BB1C4
:10552000204698470128D2D13B681D605D609D6090
:10553000DD601D613D60D3E7002323606360A360ED
:10554000E36023613B60CBE784060020AC000020D1
:1055500060B108B5C3689B6833B19847A0F10100FA
:10556000B0FA80F0400908BD012008BD0120704755
:1055700060B108B5C368DB6833B19847A0F101009A
:10558000B0FA80F0400908BD012008BD0120704735
:1055900020B119B143790B7000207047012070478A
:1055A00020B119B103790B700020704701207047BA
:1055B00068B108B5C26841B1936933B19847A0F1A9
:1055C0000100B0FA80F0400908BD012008BD0120AB
:1055D000704700BFF8B501284FF000060F4605469A
:1055E0000E60AE4C00F00E81022800F0D58000283D
:1055F00000F0A48094F82D30012B36D0FFF792FAFA
:10560000012832D02346A64A43F8542F0220B12263
:1056100084F8282084F82C00E3644FF0B80EA14BE6
:10562000A14A84F82960012504F14C0104F1280005
:1056300084F82D6084F82E6084F82AE084F82F50D6
:105640006263A363266521633860636B1B68002B6C
:1056500000F015819847012840F0D0803B681E601B
:105660005E609E60DE601E613E60637E8B4D012B3E
:105670002FD0FFF757FA01282BD02B468B4A43F83F
:10568000582FB8200026A87501226B644FF0BD0E7C
:10569000874B85F814E005F1440105F114006E759F
:1056A0006E76AE762A76EA762B626E62AE64E96139
:1056B00038602B6A1B68002B00F0E88098470128AF
:1056C00040F0CA803B681E605E609E60DE601E61C6
:1056D0003E606379714D012B2ED0FFF723FA01282C
:1056E0002AD02B46734A43F85C2F0026EB634FF019
:1056F000BD0E6F4B85F800E0BA20012105F13C0298
:105700006E702E716E71AE71A870E971EB602E61D2
:105710002E64AA603D60EB681B68002B00F09E8041
:1057200028469847012840F097803B681E605E60DD
:105730009E60DE601E613E600120F8BD6379012B32
:10574000FAD0FFF7EFF90128F6D02346594A43F87B
:105750005C2FBD26E363BA20554B6570012104F12F
:105760003C0225716571A5712670A070E171E3603E
:1057700025612564A2603C60E3681B68002B6DD046
:1057800020469847012867D13B681D605D609D6099
:10579000DD601D613D60CFE794F82D30012BCBD04B
:1057A000FFF7C0F90128C7D023463D4A43F8542FDC
:1057B000B82084F82A00E3644FF0B10C394B3A4A20
:1057C00084F829604FF0010E04F14C0104F1280027
:1057D00084F82C5084F82D6084F82E6084F828C05A
:1057E00084F82FE06263A363266521633860636BEE
:1057F0001B68002B41D09847012896D0FFF73EFA4E
:105800000020F8BD637E012B96D0FFF78BF90128AD
:1058100092D02346254A43F8582F4FF0BD0C4FF045
:10582000B80E04F14401224A667504F1140025768D
:105830006676A676E576636484F814C084F816E08C
:1058400022626662A664E1613860236A1B686BB1FC
:10585000984701283FF469AF0020F8BD002323607A
:105860006360A360E36023613B6065E7636143605D
:105870008360C36003613B605EE7A362F7E7A362F6
:1058800043608360C36003613B60EEE66B6143602D
:105890008360C36003613B601BE700BFA406002078
:1058A000440E002030010020A0010020500E0020F6
:1058B000080200204C0E002060B108B5C3689B6848
:1058C00033B19847A0F10100B0FA80F0400908BD5B
:1058D000012008BD0120704760B108B5C368DB68CE
:1058E00033B19847A0F10100B0FA80F0400908BD3B
:1058F000012008BD0120704720B119B143790B7018
:10590000002070470120704720B119B103790B7056
:10591000002070470120704768B108B5C26841B1E6
:10592000936933B19847A0F10100B0FA80F04009C3
:1059300008BD012008BD0120704700BFF8B5002355
:105940000D460B60834C032800F2CD80DFE800F0A9
:10595000769F400294F84130012B37D0FFF7E2F8F0
:10596000012833D023467C4A43F8702F0320B1220C
:10597000002684F83C2084F84000A3664FF0B80E5F
:10598000764B774A84F83D60012704F1680104F101
:105990003C0084F8416084F8426084F83EE084F87A
:1059A0004370A264E364E66661642860A36C1B68CC
:1059B000002B00F09C819847012840F0C7802B689D
:1059C0001E605E609E60DE601E612E600120F8BD7C
:1059D00094F82D30012BF9D0FFF7A4F80128F5D069
:1059E0002346604A43F8742FB820002684F82A0022
:1059F00023664FF0BD0E5C4B84F828E0022701219E
:105A000004F1600204F1280084F8296084F82D6014
:105A100084F82E6084F82C7084F82F106363A663DA
:105A2000666622632860636B1B68002B55D1A362F6
:105A300043608360C36003612B60C7E76379012B18
:105A4000C4D0FFF76FF80128C0D02346474A43F877
:105A5000782F00262365BC27454B2770BE200121E7
:105A600004F15002667026716671A671A070E17132
:105A7000E36026616665A2602C60E3681B68002B0A
:105A800000F02E812046984701282AD197E7637EAF
:105A9000012B9BD0FFF746F8012897D02346354AC3
:105AA00043F87C2FBD20002620750122A365BA276C
:105AB0002D4B667504F1580104F114006676A67644
:105AC000A7752276E27623626662E665E161286068
:105AD000236A1B68002B00F00081984701283FF4DF
