:020000040800F2
:1000000000800120C1070008A1070008A50700081B
:10001000110800081108000811080008000000007D
:1000200000000000000000000000000011080008AF
:10003000A90700080000000011080008AD0700082B
:10004000110800081108000811080008110800082C
:10005000110800081108000811080008110800081C
:10006000110800081108000811080008110800080C
:1000700011080008110800081108000811080008FC
:1000800011080008110800081108000811080008EC
:10009000110800081108000811080008B10700083D
:1000A00011080008110800081108000811080008CC
:1000B00011080008110800081108000811080008BC
:1000C00011080008110800081108000811080008AC
:1000D000110800081108000811080008110800089C
:1000E000B9070008110800081108000811080008E5
:1000F000110800081108000811080008110800087C
:10010000110800081108000811080008110800086B
:10011000110800081108000811080008110800085B
:10012000110800081108000811080008110800084B
:10013000110800081108000811080008110800083B
:10014000110800081108000811080008110800082B
:10015000110800081108000811080008110800081B
:10016000110800081108000811080008110800080B
:10017000110800081108000811080008000000001C
:100180001108000811080008044B05481B1A062B2B
:1001900002D9044B03B11847704700BF1B0200206F
:1001A000180200200000000005490648091A8910BD
:1001B00001EBD171491002D0034B03B118477047CE
:1001C00018020020180200200000000010B5064CA4
:1001D000237843B9FFF7D8FF044B13B10448AFF3BA
:1001E00000800123237010BD1802002000000000D1
:1001F000F466000808B5084B1BB108490848AFF37E
:1002000000800848036813B9BDE80840CCE7064BF6
:10021000002BF9D09847F7E7000000001C020020EF
:10022000F466000818020020000000007BB972B9D3
:100230000029BEBF00204FF0004106E008BF0028A3
:100240001CBF6FF000414FF0FF3000F0B1B9ADF1CD
:10025000080C6DE904CE002909DB002B1ADB00F045
:1002600035F8DDF804E0DDE9022304B070474042D0
:1002700061EB4101002B1BDB00F028F8DDF804E006
:10028000DDE9022304B0404261EB4101524263EBDD
:1002900043037047524263EB430300F017F8DDF865
:1002A00004E0DDE9022304B0404261EB4101704704
:1002B000524263EB430300F009F8DDF804E0DDE9A6
:1002C000022304B0524263EB430370472DE9F04729
:1002D0008C460E460446089D002B50D18A42174694
:1002E0006CD9B2FA82FEBEF1000F0BD0CEF1200421
:1002F00020FA04F401FA0EF644EA060C02FA0EF7AC
:1003000000FA0EF44FEA1749220CBCFBF9F01FFA71
:1003100087F809FB10C642EA064600FB08F3B34221
:1003200009D9F61900F1FF3280F02281B34240F280
:100330001F8102383E44F61AA2B2B6FBF9F309FB5C
:10034000136642EA064403FB08F8A04509D9E419FC
:1003500003F1FF3280F00A81A04540F20781023BA1
:100360003C44C8EB040443EA00400021002D62D065
:1003700024FA0EF400232C606B60BDE8F0878B42FA
:1003800007D9002D55D0002185E841000846BDE879
:10039000F087B3FA83F1002940F09080B34202D392
:1003A000824200F2F880841A66EB03060120B4460C
:1003B000002D40D085E81010BDE8F08712B9012764
:1003C000B7FBF2F7B7FA87FEBEF1000F35D1F31B8A
:1003D0004FEA17481FFA87FC0121B3FBF8F0220C03
:1003E00008FB103642EA06460CFB00F3B34207D97D
:1003F000F61900F1FF3202D2B34200F2CE8010466D
:10040000F61AA2B2B6FBF8F308FB136642EA0644FA
:100410000CFB03FCA44507D9E41903F1FF3202D217
:10042000A44500F2B5801346CCEB040443EA004037
:100430009CE729462846BDE8F087CEF1200106FA60
:100440000EF307FA0EF720FA01F94FEA1748CE40EB
:1004500049EA0309B6FBF8FA4FEA194408FB1A66A1
:100460001FFA87FC44EA06430AFB0CF29A4200FAA0
:100470000EF40AD9DB190AF1FF3180F087809A4225
:1004800040F28480AAF1020A3B449B1A1FFA89F9C0
:10049000B3FBF8F108FB113349EA034301FB0CF607
:1004A0009E4207D9DB1901F1FF326BD29E4269D916
:1004B00002393B449B1B41EA0A418EE7C1F1200E01
:1004C00022FA0EF48B40234320FA0EF706FA01F4C9
:1004D0004FEA134C26FA0EF63C43B6FBFCF9270C08
:1004E0000CFB19661FFA83F847EA064609FB08F772
:1004F000B74202FA01F200FA01FA08D9F61809F136
:10050000FF3041D2B7423FD9A9F102091E44F61B80
:10051000A0B2B6FBFCF40CFB146640EA064704FBF1
:1005200008F8B84507D9FF1804F1FF3028D2B845BC
:1005300026D9023C1F4444EA0940C8EB0707A0FB48
:1005400002894F4544464E4614D329D065B3BAEBD1
:10055000040367EB060707FA0EFECB40CF404EEAD6
:10056000030385E888000021BDE8F0871346F8E61C
:100570001046E0E6B8EB020469EB03060138E5E754
:100580000446D8E7114695E78146C0E78A467CE7EE
:10059000023B3C4448E708460AE702383E442FE75E
:1005A000C245E7D33E46D1E72946BDE8F08700BF04
:1005B000704700BF70B5002396B01946442205A8C5
:1005C0000193009302930393049306F08BF8102198
:1005D00001230222602628250724059105A804216D
:1005E0000B93109311930D960F92159212951394ED
:1005F000149100F063FF80B900230F2403226846A2
:1006000004210094019202930393049301F058FA99
:1006100008B100F0C3F816B070BD00F0BFF8EBE70A
:100620002DE9F04F83B000F00DF9474DFFF7C2FF01
:10063000002001F015FE0121002001F04BFE2946AB
:10064000002001F0C1FC012879D0DFF800B1286852
:1006500001F0B0FDD9462E46A8460027AA460AE07A
:100660009BF80040E4B2012C35D0AB79012B3ED091
:10067000EB79012B4CD02B79012BF1D173793771A8
:10068000012B50D0022BEBD101A9306801F0D2FD33
:1006900004460028E4D19DF804305B07E0D501F062
:1006A00005FE642000F0E8F8204601F009FE642011
:1006B00000F0E2F8204601F0F9FD642000F0DCF8DB
:1006C000204601F0FDFD642000F0D6F89BF80040C4
:1006D000E4B2012CC9D10021286801F07BFD00287B
:1006E000C3D189F80000AB797471012BC0D1306897
:1006F00001F07CFD0028BBD10146306801F082FD8D
:100700000028B5D10223B0717371EB79012BB2D1FE
:10071000D8F8000001F082FD0028ACD18AF805006D
:100720008AF80700A7E701A9306801F083FD0446B5
:10073000002895D19DF804309A0791D5BBE7002099
:1007400001F0B4FDFEE700BF3402002000000020ED
:10075000B0F5005F08B506D0202800D0FEE70D4BAD
:1007600001221A7108BD002001F0FCFD80B9094A80
:1007700053794BB1012B05D0022B00D0FEE70123AA
:10078000D37108BD937108BD034B01221A7008BDD7
:1007900008BD00BF3402002000000020FEE700BFBB
:1007A000704700BFFEE700BF704700BF00F056B8BB
:1007B000202000F005BA00BF4FF4005000F000BA4E
:1007C000DFF834D0002103E00C4B5B584350043178
:1007D0000B480C4B42189A42F6D30B4A02E0002316
:1007E00042F8043B094B9A42F9D301F01FFA05F095
:1007F00053FFFFF715FFFEE700800120C8670008E0
:10080000000000201802002018020020DC02002056
:10081000FEE70000704700BF084B094A1B6810B58F
:10082000A2FB03230446980900F08AF8214600221F
:100830004FF0FF3000F040F8002010BD0400002011
:10084000D34D621008B5032000F024F80F20FFF705
:10085000E3FFFFF7DFFF002008BD00BF024A136877
:1008600001331360704700BFD0020020014B1868AD
:10087000704700BFD002002038B50446FFF7F6FFEE
:10088000631C054618BF0134FFF7F0FF401B84428C
:10089000FAD838BD074AD1684FF6FF030B40000273
:1008A00043F0BF6300F4E06043F400330343D360DC
:1008B000704700BF00ED00E0194BDB68C3F3022373
:1008C00030B4C3F10705042D03F1040428BF042547
:1008D000062C18D9033B01249C40013C22400124F2
:1008E000AC40013C214001FA03F3002842EA030234
:1008F0000CDB00F1604000F561401201D2B280F8DB
:10090000002330BC704700221346E8E7054B00F097
:100910000F0012010344D2B21A7630BC704700BFF8
:1009200000ED00E0FCEC00E000F01F0101234009B5
:10093000024A8B4042F82030704700BF00E100E0DF
:100940000138B0F1807F0ED2084B10B4084C5860CB
:10095000F02084F823000022072110469A601960D5
:100960005DF8044B70470120704700BF10E000E0C5
:1009700000ED00E08C460968002900F003812DE9B4
:10098000F04FDFF820E283B0002588E04FEA450809
:100990000323D0F8009003FA08F3DB4304F0030AC2
:1009A00009EA03090AFA08FB013F4BEA0909012F8A
:1009B000C0F8009040F2A780BAF1030F00F0BB80AE
:1009C000C768DCF808203B4002FA08F21343C36012
:1009D000E30060D56C4B6C4A1B6E43F00103136659
:1009E000136E25F0030202F1804203F0010302F5C9
:1009F0008032019305F00303019FD2F808909846D6
:100A00000F279B009F40B0F1904F29EA070900F0A3
:100A10009F805E4FB84200F09D805D4FB84200F06D
:100A20009D805C4FB84200F09E805B4FB84200F062
:100A30009F805A4FB84200F0A080594FB8420CBF77
:100A40004FF006084FF0070808FA03F343EA0903DA
:100A50009360DEF80030F243E7034CBF33431340AA
:100A6000CEF80030DEF80430A7034CBF3343134008
:100A7000CEF80430DEF80830E7024CBF33431340B1
:100A8000CEF80830DEF80C30A40254BF02EA0306A8
:100A90001E43CEF80C60013531FA05F355D0012321
:100AA00003FA05F212EA0106F5D0DCF8044024F05E
:100AB0001007022F7FF46AAF4FEAD50A00EB8A0ACB
:100AC00005F00709DAF82030DCF810704FEA8909E0
:100AD0004FF00F0808FA09F823EA080807FA09F3A3
:100AE00043EA0803CAF820304FEA450803230768A1
:100AF00003FA08F3DB4304F0030A1F400AFA08F97B
:100B000049EA07070760876807EA0309DCF80C7001
:100B100007FA08F747EA090787604768C4F300192E
:100B200027EA020709FA05F949EA0707BAF1030FAC
:100B300047607FF445AFC76AC4F3C00927EA0202E1
:100B40004F46AF403A43C2623AE703B0BDE8F08F88
:100B500000237BE7012707FA03F377E74FF002084A
:100B600008FA03F372E74FF0030808FA03F36DE79E
:100B70004FF0040808FA03F368E74FF0050808FA95
:100B800003F363E7704700BF001002400004004811
:100B900000080048000C00480010004800140048FD
:100BA00000180048000401400369194214BF0120E5
:100BB000002070470AB9816270478161704700BFA9
:100BC000044A5169014200D1704708B55061FFF7EE
:100BD000BFFD08BD0004014070B504460D46164631
:100BE0006B1C226828D19369980728D49369D90689
:100BF000F9D593699D06FCD510212023D161D361DD
:100C00009369980744BF002393629369D90703D47B
:100C1000936943F00103936151681F4B04250B4016
:100C2000202000215360656484F8401084F841005E
:100C300084F84210012070BD93699B0701D5002004
:100C400070BD9369D90619D425B1FFF70FFE801B3B
:100C50008542C5D2636C202100220B43636484F873
:100C6000402084F84110032084F8422070BD4DB12B
:100C7000FFF7FCFD801B854204D3226893699B0625
:100C8000F5D5B9E70023202284F8412084F84030CC
:100C900084F84230012070BD00E800FE70B50446C3
:100CA00016460D4629B93BE0FFF7E0FD801B854263
:100CB0003DD322689369980646D49369D906F3D543
:100CC000681C22D193699906FCD510212023D1619B
:100CD000D3619369980744BF002393629369D9074E
:100CE00003D4936943F00103936151681D4B0425BC
:100CF0000B40202000215360656484F8401084F884
:100D0000410084F84210012070BD93699B06DCD439
:100D1000E5B1FFF7ABFD801B854217D32268CFE713
:100D2000026893699B061BD49369DB06C8D4636C85
:100D3000202100220B43636484F8402084F8411092
:100D4000032084F8422070BD002070BD00232022C3
:100D500084F8412084F8403084F84230012070BD8E
:100D6000084670BD00E800FE2DE9F041D0F800E033
:100D7000294CDEF80470069E3C40C1F3090144F49E
:100D800000541F462143DBB241EA03419046CEF8AE
:100D90000410079A31460546FFF71EFF60B9012F80
:100DA000044610D02B684FEA18229A623146079AFF
:100DB0002846FFF711FF30B16B6C042B1FD00324C2
:100DC0002046BDE8F08129685FFA88F38B62731CC6
:100DD00007D18B6903F04003002BFAD02046BDE811
:100DE000F0818B6903F04003002BE9D15EB1FFF77E
:100DF0003DFD079BC01A864205D32968E7E7012419
:100E00002046BDE8F0810023202285F8412085F8A6
:100E1000403085F84230D2E7009800FC2DE9F843D5
:100E200007682B4CD7F804E0089E0EEA040444F04F
:100E30008074C1F3090144F400540C43D9B244EA6C
:100E4000014491467C60099A314605469846FFF771
:100E5000C3FE68B9B8F1010F044610D02B684FEA01
:100E600019229A623146099A2846FFF7B5FE30B139
:100E70006B6C042B1FD003242046BDE8F88329683F
:100E80005FFA89F38B62731C07D18B6903F08003CF
:100E9000002BFAD02046BDE8F8838B6903F080036D
:100EA000002BE9D15EB1FFF7E1FC099BC01A864235
:100EB00005D32968E7E701242046BDE8F88300232D
:100EC000202285F8412085F8403085F84230D2E76D
:100ED000009800FC704700BF002850D0F8B590F88B
:100EE0004130044603F0FF02002B3FD02368E06846
:100EF000242284F841201968626821F0010122F05F
:100F0000706219601A619A68012822F400429A609E
:100F1000A26830D042F4044202289A6004BF4FF421
:100F200000625A6058686169256A2269A769E669A2
:100F300040F0007040F400405860D8680A4342EA2C
:100F4000072246EA050120F40040D860DA60196003
:100F50001968002241F001012025196010466264E1
:100F600084F84150226384F84220F8BD80F8402084
:100F7000FFF7B0FFBAE742F400429A60D2E70120DF
:100F8000704700BF704700BFB0B10268242310B59E
:100F900080F84130136823F0010304461360FFF723
:100FA000F1FF0023636484F8403084F84130184630
:100FB000236384F8423010BD012070472DE9F047CB
:100FC00090F8414082B0202CBDF82C5003D0022074
:100FD00002B0BDE8F0870A9C002C40D0002D3ED026
:100FE00090F84040012CF2D01F46012380F8403099
:100FF000164688460446FFF739FC814605E0FFF7B0
:1010000035FCC9EB000019282BD82368986900F437
:1010100000400028F3D10A9B6362212040214FF059
:10102000000A0C9B0093CDF804903B4684F84100E5
:10103000324684F84210C4F834A0C4F844A04146B3
:1010400065852046FFF7EAFEA0B1636C84F840A0F6
:10105000042B04D00320BBE7636C042BFAD10120DE
:10106000B6E70023202284F8412084F8403084F839
:101070004230EFE7638D9BB2FF2B67D92268474B65
:1010800051680B4043F0FF73C8F3090843F4803301
:1010900048EA0303FF2121855360FF2503E0638DA8
:1010A0009BB2002B64D04A460C992046FFF794FD72
:1010B0000028D1D1626A2168238D501C60621278A9
:1010C0008A62628D013B013A92B29BB262852385AE
:1010D000002BE4D1638D9BB2002BE0D00C9B01333D
:1010E00014D18B6903F08003002BFAD0638D9BB27F
:1010F000FF2B1CD94A68294B2585134043F0FF7309
:1011000043F4803348EA03034B60C8E78B6903F07C
:101110008003002BEAD10C9B002BA2D0FFF7A6FB8B
:101120000C9BC9EB000083429BD32168D7E7628DFB
:101130001A4B486892B2034043F00073D0B243EABE
:10114000004348EA030322854B60A8E72168628DCB
:10115000124B486892B2034043F00073D0B2C8F318
:10116000090843EA004348EA030322854B6094E7F9
:101170004A460C992046FFF791FD00287FF46CAF9A
:101180002368074A2021D9615D682A405A6084F8A3
:10119000411084F8400084F8420019E7009800FCF0
:1011A00000E800FE2DE9F04790F8414082B0202C85
:1011B000BDF82C5003D0022002B0BDE8F0870A9C95
:1011C000002C48D0002D46D090F84040012CF2D0A1
:1011D0009946012380F8403017460E460446FFF733
:1011E00045FB804605E0FFF741FBC8EB00001928EE
:1011F00041D82368986900F400400028F3D10A9B85
:101200006362222040214FF0000A0C9B0093CDF82E
:1012100004804B4684F841003A4684F84210C4F8F2
:1012200034A0C4F844A0314665852046FFF79CFDF4
:1012300058B3636C84F840A0042B0CD00320BBE7A8
:1012400042460C992046FFF729FD002800F09980BE
:10125000636C042BF2D10120AEE7936903F08003A5
:10126000002B5FD10C9B33B1FFF700FB0C9BC8EB4D
:10127000000083424ED20023202284F8412084F8CB
:10128000403084F84230032096E7638D22689BB299
:10129000FF2B64D95168424B0B4043F0FF73C6F3F8
:1012A000090643F492333343FF21218553600C9B9D
:1012B000FF2501331CD1936903F00403002BFAD0FE
:1012C000636A526A591C61621A70238D628D013BF8
:1012D000013A9BB292B22385628513B9638D9BB2AA
:1012E000BBB9638D9BB2002BAAD022680C9BE0E7B0
:1012F000936903F00403002BE2D10C9B002BBAD0BE
:10130000FFF7B4FA0C9BC8EB00008342B3D322680A
:10131000CFE70C9B226801339FD1936903F08003D0
:10132000002BFAD0638D9BB2FF2B0AD951681C4B5E
:1013300025850B4043F0FF7343F480333343536000
:10134000CFE7618D164B506889B2034043F00073BC
:10135000C8B243EA0043334321855360C1E7618D3E
:101360000F4B5068034089B243F00073C8B243F496
:101370001053C6F3090643EA004333432185536003
:1013800095E72368074A2021D9615D682A405A60A1
:1013900084F8411084F8400084F842000CE700BF54
:1013A000009800FC00E800FE90F84100704700BF84
:1013B000024B186800F4C060704700BF0070004026
:1013C0003A4B9A6812F00C0F30B439D09A6802F098
:1013D0000C020C2A2FD0354A936803F00C03042B1F
:1013E00055D0936803F00C03082B5CD02F4CA168F8
:1013F00001F00C0100200C2905463DD1E168E268AE
:1014000001F00301C2F30212022902F1010341D0EB
:10141000032933D0B5FBF3F3E268C2F3062203FBE2
:1014200002F3224AD068C0F341600130400030BC72
:10143000B3FBF0F07047DB6803F00303012BCAD164
:101440001A4B1B491A68120754BFD3F894301B6813
:10145000164A54BFC3F30323C3F30313926851F82E
:10146000235012F00C0F0CBF284600200F4CA1682F
:1014700001F00C010C29C1D030BC7047E0680D4A66
:10148000B2FBF3F2C0F3062002FB00F3C9E70A48FF
:101490000025EBE7E0680849B1FBF3F2C0F3062052
:1014A00002FB00F3BDE703480025DFE70010024020
:1014B0001067000800127A000024F4002DE9F041C2
:1014C0000368DC0684B005465DD5AB4B9A6812F024
:1014D0000C0F40F044811B68980703D5AB69002BC3
:1014E00000F0CA81A44B2C6A1A68A34E110756BF9C
:1014F000D3F894301B681B0903F0F003A34280F07B
:101500008B81B36DDA0040F13E82FFF751FFB0F5F9
:10151000007F00F08382802C00F2628200F0CA8299
:10152000A4F17004B4FA84F46409944A136823F0B3
:10153000070323431360136803F007039C4240F042
:101540009B818D4B1A6842F008021A6019682A6A5A
:1015500021F0F0010A431A605A68E96922F47F42D7
:1015600042EA01225A60FFF72BFF834B84499B68B4
:10157000844AC3F30313CB5C20FA03F30F201360F8
:10158000FFF74AF92B68D9072FD57B498A6802F003
:101590000C02082A00F08C818A6802F00C020C2AE6
:1015A00000F080816B68B3F5803F00F08B81B3F56C
:1015B000A02F00F00882704C226822F48032226052
:1015C000226822F480222260002B40F08081FFF705
:1015D0004DF9064605E0FFF749F9801B642800F243
:1015E000AA8123689F03F6D42B689E072BD56249F6
:1015F0008A6802F00C02042A00F07D818A6802F0F9
:101600000C020C2A00F07181EB685B4C002B00F09F
:101610003781236843F480732360FFF727F9064678
:1016200005E0FFF723F9801B022800F2848123687C
:10163000514A5805F5D55368296923F0F85343EA10
:10164000016353602B681A0719D56B694A4C002B4C
:1016500000F0CD80D4F8943043F00103C4F8943006
:10166000FFF704F9064605E0FFF700F9801B0228A2
:1016700000F26181D4F894309B07F5D52B685E07A2
:101680003ED53D4B9A6DD40000F159819A6D42F0E0
:1016900080529A659B6D03F080530193019B012654
:1016A000394C2368D80540F13681AB68012B00F036
:1016B000A681052B00F045812F4CD4F8902022F014
:1016C0000102C4F89020D4F8902022F00402C4F85B
:1016D0009020002B40F04281FFF7C8F841F2883794
:1016E000804606E0FFF7C2F8C8EB0000B84200F2FF
:1016F0002281D4F890309B07F4D4002E40F07981F9
:10170000AA6A42B31C4B996801F00C010C2900F045
:10171000B380022A1A6822F080721A6000F0858174
:101720001A68110103D41A68920040F15D81124CCD
:10173000E36823F0887323F48033E360FFF796F8BF
:10174000054605E0FFF792F8401B022800F2F380FF
:1017500023689B01F6D4002004B0BDE8F0818269C3
:10176000002A30D01A6842F001021A601C46FFF7C6
:101770007DF8064610E000BF001002400020024045
:10178000406700080400002000700040FFF76EF87A
:10179000801B022800F2CF802368A64A9F07F5D558
:1017A000136843F00803136011682B6A21F0F001FD
:1017B0000B4313605368E96923F47F4343EA012331
:1017C00053602B68DFE61A6822F001021A601C469B
:1017D000FFF74CF8064605E0FFF748F8801B0228A3
:1017E00000F2A98023689807F6D42B68CBE6D4F8DA
:1017F000943023F00103C4F89430FFF737F806461D
:1018000005E0FFF733F8801B022800F29480D4F83B
:1018100094309F07F5D431E7336843F00803336011
:10182000336823F0F003234333607368EA6923F4D9
:101830007F4343EA02237360B36DDB0040F1B38062
:10184000FFF7B6FDB0F5007F00F0E180802C00F2DC
:10185000C98000F03181A4F17004B4FA84F4640901
:10186000754A136823F0070323431360136803F0DA
:1018700007039C423FF477AE012004B0BDE8F0813D
:10188000236823F480732360FEF7F0FF064604E02C
:10189000FEF7ECFF801B02284DD823685905F7D4CA
:1018A0002B68D0E6CA6802F00302032A7FF47AAEFE
:1018B000604A126892037FF598AE6A68002A7FF446
:1018C00094AED9E75B4A136843F480331360FEF7A4
:1018D000CDFF584C064604E0FEF7C8FF801B642885
:1018E00029D823689B03F7D57EE6CA6802F0030275
:1018F000022A7FF489AE4F4A1268540502D5EA687D
:10190000002AB9D04B4928694A6822F0F85242EAC5
:1019100000624A6097E6236843F480732360FEF711
:10192000A5FF07462368D9053FF5BFAEFEF79EFF2A
:10193000C01B0228F6D9032004B0BDE8F0810026C0
:10194000AEE63C4BD3F8902042F00402C3F890205E
:10195000D3F8902042F00102C3F89020FEF786FFF2
:10196000344C804641F2883705E0FEF77FFFC8EB34
:101970000000B842DFD8D4F890309A07F5D5002E91
:101980003FF4BEAE35E0B36D43F08053B365B36D45
:1019900003F080530293029BFFF70AFDB36D23F01F
:1019A0008053B365B3E5B36D43F08053B365B36D56
:1019B00003F080530393039BFFF7FAFCB36D23F00E
:1019C0008053B3653EE703F18043A3F53C331A68C7
:1019D00042F480221A601A6842F480321A6076E774
:1019E0000324A2E503243BE7DA6822F00302DA606D
:1019F0009DE6104A936D23F08053936580E60D4A6F
:101A0000D2F8903043F00103C2F89030A6E7802C62
:101A10004CD9A12C34BF0124022421E7802C47D9C2
:101A2000A12C34BF012402247FE51C46FEF71EFFD3
:101A3000064609E00010024000200240FEF716FFB3
:101A4000801B02283FF677AF23681C4A9F01F5D41C
:101A500005F12C03C8CBAC6BE86B296C43EA072378
:101A6000751E43EA05132409400843EA444301383C
:101A7000490843EA4053013943EA4163D36013689C
:101A800043F080731360D36843F08073D3601446CF
:101A9000FEF7ECFE054605E0FEF7E8FE401B0228D7
:101AA0003FF649AF23689801F6D554E60024D7E6FF
:101AB00000243AE5022438E50224D1E60010024071
:101AC000564A136803F007038B422DE9F0410CD20C
:101AD000136823F007030B431360136803F0070335
:101AE000994202D00120BDE8F08103680C46D90775
:101AF00005463DD4990706D54948AA68816821F072
:101B0000F0010A43826045490A6802F007029442E4
:101B100009D20A6822F0070222430A600A6802F02A
:101B200007029442DED15A0706D53D48EA6881682B
:101B300021F4E0610A4382601B0707D5384A29690E
:101B4000936823F4605343EAC1039360FFF738FCC2
:101B5000334B34499B68344AC3F30313CB5C20FAFC
:101B600003F30F201360FEF757FE0020BDE8F0815D
:101B700043682B4A032B126849D0022B41D0002B1B
:101B800048D19607AED5264EB26822F00302134321
:101B9000B360FEF76BFE6B68032B074641F2883893
:101BA00013D0022B27D0DBB904E0FEF75FFEC01B89
:101BB000404529D8B36813F00C0FF6D12B6899E78C
:101BC000FEF754FEC01B40451ED8B36803F00C035B
:101BD0000C2BF5D1F2E7FEF749FEC01B404513D8A8
:101BE000B36803F00C03042BF5D1E7E7FEF73EFEE4
:101BF000C01B404508D8B36803F00C03082BF5D18F
:101C0000DCE79703BFD46DE70320BDE8F0819201C4
:101C1000B9D467E750057FF565AFB4E7002002400F
:101C20000010024040670008040000201149124BD8
:101C3000D1F8882042F4700210B4C1F888201A68E4
:101C4000002042F001021A6098601A6822F0A8523F
:101C500022F410224FF480541A60DC601A684FF0AE
:101C6000006422F480221A6098618C605DF8044B55
:101C7000704700BF00ED00E000100240F0B52A4CB4
:101C800089B02046FFF790FB38B12748FFF78CFB5F
:101C9000203818BF012009B0F0BD244D244B23602B
:101CA000EB6C244A626043F00203EB64EB6C03F0DC
:101CB00002030193332201234FF440710646A260D0
:101CC000E3600222042303911B48DDF804E006923E
:101CD00003A91227079305960497FEF74BFEAB6DF9
:101CE00043F40013AB65AB6D03F400130293029B46
:101CF000AB6B43F40013AB63AB6B23F40013AB6328
:101D0000324631461F20FEF7D7FD1F20FEF70CFE9E
:101D1000324631462020FEF7CFFD2020FEF704FE9C
:101D20002046FFF7D9F8B0E73C020020001002403F
:101D3000005400403A14D11000040048F0B52A4C79
:101D400089B02046FFF730FB38B12748FFF72CFB5E
:101D5000203818BF012009B0F0BD244D244B23606A
:101D6000EB6C244A626043F00203EB64EB6C03F01B
:101D700002030193332201234FF440710646A2600F
:101D8000E3600222042303911B48DDF804E006927D
:101D900003A91227079305960497FEF7EBFDAB6D99
:101DA00043F40013AB65AB6D03F400130293029B85
:101DB000AB6B43F40013AB63AB6B23F40013AB6367
:101DC000324631461F20FEF777FD1F20FEF7ACFD9F
:101DD000324631462020FEF76FFD2020FEF7A4FD9D
:101DE0002046FFF779F8B0E73C02002000100240DF
:101DF000005400403A14D110000400482DE9F0418D
:101E0000204D214EEB6C214F43F00203EB64EB6C51
:101E10008CB003F0020300244FF002080093304618
:101E2000202302A90293009A0397CDF8148004940A
:101E3000FEF7A0FD224621461720FEF73DFD1720A4
:101E4000FEF772FDEB6C43EA0803EB64EB6C08975A
:101E500003EA080301933046102307A90793019A68
:101E6000CDF828800994FEF785FD224621460A20F8
:101E7000FEF722FD0A20FEF757FD20460CB0BDE814
:101E8000F08100BF00100240000400480000111063
:101E90002DE9F0470F460178402984B00546904669
:101EA0001E463BD038D9B12922D18BB300244FF440
:101EB000805A4FF0010901E0B44229D008EB040335
:101EC0003A19A97818480093CDF808A0CDF80490E5
:101ED000D2B20123FFF772F801340028ECD0124887
:101EE000FFF752F8FFF7CAFE012004B0BDE8F08703
:101EF000BC2913D04FF48053A9780B480293019664
:101F0000CDF800803A460123FFF758F80028E6D1C3
:101F1000002004B0BDE8F0873329EBD1012E88BF43
:101F200047F08007E6E700BF3C0200202DE9F047BC
:101F30000F460178402984B0054690461E463BD0A6
:101F400038D9B12922D18BB300244FF4805A4FF0F5
:101F5000010901E0B44229D008EB04033A19A97839
:101F600018480093CDF808A0CDF80490D2B2012310
:101F7000FFF718F901340028ECD01248FFF704F8F5
:101F8000FFF77CFE012004B0BDE8F087BC2913D028
:101F90004FF48053A9780B4802930196CDF8008046
:101FA0003A460123FFF7FEF80028E6D1002004B0EE
:101FB000BDE8F0873329EBD1012E88BF47F08007B9
:101FC000E6E700BF3C020020F8B500250F460D6093
:101FD0000646724C002800F0978001282FD1637EBE
:101FE000012B00F08F80FFF7A9FE012800F08A8006
:101FF00023466B4A43F8402F4FF0330C4FF0320E1C
:1020000004F13001674A657504F11400267665769F
:10201000A576E676236384F814C084F816E022627D
:1020200065626563E1613860236A1B68002B00F01C
:102030009F809847012800F093800020F8BD6379C5
:10204000012B2DD0FFF77AFE012829D02346564ACE
:1020500043F8382F4FF06A0EA362D626534B544AEA
:102060006570012004F1280125716571A57184F85E
:1020700000E0A670E071E2602361E562A1603C606F
:10208000E3681B68002B00F08280204698470128F7
:1020900062D13B681D605D609D60DD601D613D60DB
:1020A000637E3E4D012B2DD0FFF748FE012829D03D
:1020B0002B463B4A43F8402F32200026A8750122C8
:1020C0002B634FF0330E374B85F814E005F13001E8
:1020D00005F114006E756E76AE762A76EA762B627E
:1020E0006E626E63E96138602B6A1B68002B3FD01B
:1020F00098470128A1D13B681E605E609E60DE604B
:102100001E613E600120F8BD6379012BFAD0FFF714
:1021100015FE0128F6D02346234A43F8382F4FF006
:102120006A0EA362D625214B214A6670012004F174
:10213000280126716671A67184F800E0A570E0712F
:10214000E2602361E662A1603C60E3681B68BBB1AA
:10215000204698470128CED0FFF750FE0020F8BD5A
:102160003B681D605D609D60DD601D613D60C9E78D
:102170000023636143608360C36003613B60C1E728
:1021800023606360A360E36023613B60BAE7236080
:102190006360A360E36023613B6081E78802002005
:1021A000D402002014000020D802002040010020AA
:1021B000B400002060B108B5C3689B6833B198478C
:1021C000A0F10100B0FA80F0400908BD012008BD6F
:1021D0000120704720B1026912B103786A2B01D047
:1021E00001207047936C002BFAD0184720B1026988
:1021F00012B103786A2B01D001207047D36C002BF9
:10220000FAD0184720B1026912B103786A2B01D0C5
:1022100001207047536D002BFAD0184720B1026996
:1022200012B103786A2B01D001207047936D002B07
:10223000FAD0184788B102697AB110B411B10378A5
:102240006A2B03D001205DF8044B7047D2F894301C
:10225000002BF7D05DF8044B18470120704700BFF2
:1022600010B586B000230293019303930493059362
:1022700060B903F1804303F50433DA6C42F00102E4
:10228000DA64DB6C03F001030093009B064B012230
:1022900053F820000292022301A920240194049300
:1022A000FEF768FB06B010BD08000020034B0122BA
:1022B00053F820002021FEF77DBC00BF080000205D
:1022C000034B002253F820002021FEF773BC00BF0F
:1022D0000800002000B587B0002302930193039308
:1022E0000493059360B903F1804303F50433DA6C7A
:1022F00042F00402DA64DB6C03F004030093009BF9
:1023000021B1012911D007B05DF804FB134B03EB99
:1023100080004FF40052022301A940680192049307
:10232000FEF728FB07B05DF804FB0C4B0C4A029249
:1023300003EB800001A902234FF40052406804938C
:102340000192FEF717FB00220F212820FEF7B4FAB6
:102350002820FEF7E9FA07B05DF804FB080000202A
:102360000000211008B5044B03EB80004FF400512E
:102370004068FEF719FC08BD0800002008B5FFF70B
:1023800087FDB0FA80F0400908BD00BF08B5FFF72F
:10239000CDFDB0FA80F0400908BD00BF08B50A467F
:1023A00001230F21FFF7C2FDB0FA80F0400908BDFC
:1023B00030B583B00C460DF10702012323210546F9
:1023C000FFF7B4FD10B1002003B030BD9DF8073019
:1023D00003F07F031C430DF107022846012323214C
:1023E0008DF80740FFF754FDB0FA80F0400903B0C4
:1023F00030BD00BF30B583B00C460DF1070201239C
:1024000023210546FFF792FD10B1002003B030BD37
:102410009DF8073023F030031C430DF107022846D6
:10242000012323218DF80740FFF732FDB0FA80F039
:10243000400903B030BD00BF10B50A460C46012369
:102440002321FFF773FD08B1002010BD237803F0AE
:1024500030032370012010BD08B50A460623282149
:10246000FFF764FDB0FA80F0400908BD2DE9F041A6
:1024700084B00D4601230DF1060223210646FFF725
:1024800055FD28B99DF8063003F008038DF8063095
:1024900001230DF1050220213046FFF747FD0028FA
:1024A00079D09DF8050008287ED0002840F0828071
:1024B0009DF80630002B40F0828001244FF0060882
:1024C00001230DF1070223213046FFF72FFD0028DD
:1024D0007CD09DF80700202800F08180302800F093
:1024E0008480A0F11007B7FA87F77F0902AA304667
:1024F00006232821FFF71AFD3D4ABDF9083007EBF6
:10250000840002EBC00152F830604C6843FA08F0D6
:1025100000FB04F1C31706FB0313A0FB060110F533
:10252000FA70194441F100014FF47A720023FDF76B
:102530007DFEBDF90A30286043FA08F000FB04F183
:10254000C31706FB0313A0FB060110F5FA7019442C
:1025500041F100014FF47A720023FDF767FEBDF9E7
:102560000C30686043FA08F0C31700FB04F406FB64
:102570000344A0FB060110F5FA70214441F100016B
:102580004FF47A720023FDF751FE0123A86018462C
:1025900004B0BDE8F0819DF8050000F00800C0B26D
:1025A00008288DF8050080D19DF8063013B98046C3
:1025B000022485E70023184604B0BDE8F081082B0B
:1025C0000FD00346184604B0BDE8F0819DF807001F
:1025D00000F0300020288DF807007FF47FAF02273D
:1025E00084E704464FF004086AE703277EE700BF4C
:1025F0005867000830B583B00C460DF1070201237F
:1026000020210546FFF792FC10B1002003B030BD39
:102610009DF8073003F00F031C430DF10702284615
:10262000012320218DF80740FFF732FCB0FA80F03B
:10263000400903B030BD00BF10B50A460C46012367
:102640002021FFF773FC08B1002010BD237823F090
:102650000F032370012010BD30B583B00C460DF17F
:102660000702012320210546FFF760FC10B100207E
:1026700003B030BD9DF8073023F001031C430DF17A
:1026800007022846012320218DF80740FFF700FCB0
:10269000B0FA80F0400903B030BD00BF10B50A4663
:1026A0000C4601232021FFF741FC08B1002010BD9A
:1026B000237803F001032370012010BD30B583B0EF
:1026C0000C460DF10702012320210546FFF72EFCE1
:1026D00010B1002003B030BD9DF8073023F0020395
:1026E0001C430DF107022846012320218DF80740E5
:1026F000FFF7CEFBB0FA80F0400903B030BD00BF59
:1027000010B50A460C4601232021FFF70FFC08B143
:10271000002010BD237803F002032370012010BDB8
:1027200030B583B00C460DF1070201232021054688
:10273000FFF7FCFB10B1002003B030BD9DF807305F
:1027400023F004031C430DF1070228460123202136
:102750008DF80740FFF79CFBB0FA80F0400903B00A
:1027600030BD00BF10B50A460C4601232021FFF7FB
:10277000DDFB08B1002010BD237803F004032370B3
:10278000012010BD10B50A460C4601232021FFF799
:10279000CDFB08B1002010BD237803F0080323709F
:1027A000012010BD10B50A460C4601232321FFF776
:1027B000BDFB08B1002010BD237803F0080323708F
:1027C000012010BD10B50A460C4601232721FFF752
:1027D000ADFB08B1002010BD237803F00103237086
:1027E000012010BD30B583B00C460DF10702012366
:1027F0002E210546FFF79AFB10B1002003B030BD33
:102800009DF8073003F03F031C430DF107022846F3
:1028100001232E218DF80740FFF73AFBB0FA80F034
:10282000400903B030BD00BF10B582B00C460DF1B9
:102830000701FFF7C7FF40B19DF8070040B101282D
:1028400003D12070002002B010BD012002B010BDE5
:10285000207002B010BD00BF10B582B002AC0123E1
:1028600004F8012D2246FFF789FDB0FA80F04009F7
:1028700002B010BD08B50123FFF788FDB0FA80F063
:10288000400908BD30B583B00D460DF10501044681
:10289000FFF704FF10B9012003B030BD0DF10601B0
:1028A0002046FFF72DFF0028F5D020460DF1070147
:1028B000FFF758FF0028EED09DF805109DF8062080
:1028C0009DF80730A1F10101A2F10202A3F1040376
:1028D000B1FA81F1B2FA82F2B3FA83F349095209EB
:1028E0005B0929706A70AB700020D5E7F0EE007AC2
:1028F000B4EEE70AF1EE10FA08B50DD9F1EE007A60
:10290000B4EEE70AF1EE10FA0DD81021FFF772FDD0
:10291000B0FA80F0400908BD0021FFF76BFDB0FA66
:1029200080F0400908BDF2EE007AB4EEE70AF1EE5D
:1029300010FA94BF20213021FFF75CFDB0FA80F03F
:10294000400908BD022908B50BD0042902D011B1F5
:10295000012008BD2021FFF74DFDB0FA80F04009AD
:1029600008BD1021FFF746FDB0FA80F0400908BD10
:1029700010B582B00C460DF10701FFF75DFD70B197
:102980009DF80700102813D018D920280AD0302825
:102990001AD14FF083430020236002B010BD012004
:1029A00002B010BD4FF082430020236002B010BD82
:1029B0004FF081430020236002B010BD20B94FF0DA
:1029C0008043236002B010BD024B2360012002B09F
:1029D00010BD00BF000080BF10B582B00C460DF1E5
:1029E0000701FFF729FEC0B19DF8070030282AD063
:1029F0000AD9502823D013D960281CD0702808D1B8
:102A0000164B2360002009E010280FD0202821D089
:102A1000E8B1134B2360012000E0012002B010BD9B
:102A20004028F6D10F4B23600020F7E74FF07E538C
:102A300023600020F2E70C4B23600020EEE70B4BF5
:102A400023600020EAE70A4B23600020E6E700232A
:102A50002360E3E7074B23600020DFE70000C84363
:102A6000000080BF00004842000048430000C84208
:102A70000000C84100002041F0B583B00E460DF1C2
:102A800005010546FFF77EFE10B9012003B0F0BD39
:102A90000DF106012846FFF785FE0028F5D09DF8C8
:102AA0000540C4B99DF806707FB3082FEDD12846C4
:102AB0000DF10701FFF7C0FC0028E6D09DF80700E4
:102AC000102850D039D9202845D0302831D12E4B6C
:102AD00033600020DAE7082CD7D19DF80640002C9F
:102AE000D3D128460DF10701FFF7A6FC0028CCD072
:102AF0009DF80700102843D039D920283CD0302831
:102B000017D1224B33600020C0E728460DF10701A2
:102B1000FFF792FC0028B8D09DF80700102816D0C7
:102B200010D920281BD0302803D1194B33603846E8
:102B3000ACE7184B33600120A8E70028F9D1164B09
:102B40003360A3E70028F4D1144B33609EE7144BA5
:102B5000336038469AE7114B3360204696E7114BB5
:102B60003360384692E7104B336020468EE70028EA
:102B7000DFD10C4B336089E70C4B3360204685E78F
:102B80000B4B3360204681E71F853B417B943B43E1
:102B90009A993B42000080BF48E17A3F9A99794078
:102BA000713DFA407B147A419A99F93F7B147A423D
:102BB0007B14FA4170B584B00C460DF1070106464E
:102BC000FFF7F0FD10B9012004B070BD0DF1060152
:102BD0003046FFF7D7FD0028F5D09DF80630082BCA
:102BE0001AD0002BEFD19DF80730DBB9062530460F
:102BF00002A9FFF731FC0028E5D0BDF90810BDF9A6
:102C00000A20BDF90C3029412A412B4100202180A6
:102C10006280A38004B070BD9DF80720002AD2D145
:102C20001D46E4E7082BCED10425E0E710B584B0BB
:102C30000C4601A9FFF71AFC30B101A90EC900200A
:102C400084E80E0004B010BD012004B010BD00BF28
:102C500008B5FFF7A3FBB0FA80F0400908BD00BF3C
:102C600010B582B002A9002301F8013D0446FFF728
:102C700095FB10B9012002B010BD23789DF8070024
:102C8000181A18BF012002B010BD00BF38B50C469D
:102C90000978A1F10101B1FA81F149090546FFF76F
:102CA000DBFCA0B16378012B0CBF02210021284678
:102CB000FFF704FD58B1A378012B28460CBF04216F
:102CC0000021FFF72DFDB0FA80F0400938BD01204A
:102CD00038BD00BF08B58379012B34D0F7EE007AF8
:102CE0008368B4EEE70AF1EE10FA1B6806D9F2EE3B
:102CF000047AB4EEE70AF1EE10FA03D8C3ED017AD4
:102D0000002008BDF3EE097AB4EEE70AF1EE10FAFE
:102D1000F4D9DFED2B7AB4EEE70AF1EE10FAEDD933
:102D2000DFED287AB4EEE70AF1EE10FAE6D9DFED2E
:102D3000267A9FED267AB4EEE70AF1EE10FA88BF04
:102D4000F0EE477ADAE7F7EE007AB4EEE70AF1EE52
:102D500010FA2ED9F2EE047AB4EEE70AF1EE10FA88
:102D60001ED9F3EE097AB4EEE70AF1EE10FA1ED995
:102D7000DFED137AB4EEE70AF1EE10FA1BD9DFEDBE
:102D8000117AB4EEE70AF1EE10FA16D9DFED0E7AF9
:102D9000B4EEE70AF1EE10FA94BF6021702100E072
:102DA0002021FFF727FCB0FA80F0400908BD302150
:102DB000F7E71021F5E74021F3E75021F1E700BFE5
:102DC000000048420000C842000048430000C843D9
:102DD00008B58379012B1DD083681B68042925D889
:102DE000DFE801F0070C10140300154A5A600020B8
:102DF00008BD4FF07E525A60002008BD114A5A604B
:102E0000002008BD104A5A60002008BD0F4A5A60D1
:102E1000002008BD042909D8DFE801F0030A0C10DE
:102E20000E001021FFF7E6FB0028E0D1012008BDCD
:102E30002021F7E73021F5E75021F3E74021F1E7C2
:102E40000000C842000020410000C8410000484284
:102E50008379012B29D083681B68D3ED017AB7EE03
:102E6000007AF4EEC77AF1EE10FA10B52AD9B2EE74
:102E7000047AF4EEC77AF1EE10FA18D9B3EE097AB3
:102E8000F4EEC77AF1EE10FA1ED99FED167AF4EE41
:102E9000C77AF1EE10FA19D99FED137AF4EEC77ADA
:102EA000F1EE10FA14D8502102E0002070472021E2
:102EB0000446FFF79FFB18B10123A371002010BD4A
:102EC000012010BD1021F3E73021F1E74021EFE7A9
:102ED0009FED067AF4EEC77AF1EE10FA94BF602106
:102EE0007021E5E7000048420000C8420000484366
:102EF00083790BB91846704730B5836883B00DF1FC
:102F0000070104461D68FFF797FBF0B19DF80730F5
:102F1000302B32D012D9502B2CD01FD9602B1AD085
:102F2000702B10D1164B6B6000212046FFF762FB1F
:102F300058B100231846A37103B030BD102B12D036
:102F4000202B05D09BB10F4B6B60012003B030BD2F
:102F50000D4B6B60E8E70D4B6B60E5E7402BF2D162
:102F60000B4B6B60E0E74FF07E536B60DCE70023B8
:102F70006B60D9E7074B6B60D6E7074B6B60D3E715
:102F80000000C843000080BF00002041000048430B
:102F9000000048420000C8420000C841F0B5836804
:102FA00083B01E6802AD0023376805F8013D29464D
:102FB0000446FFF7F3F910B9012003B0F0BD227801
:102FC0009DF807309A42F7D1A3793BB9002300223C
:102FD000184672603B70637103B0F0BDA368294668
:102FE00020461D68FFF728FB0028E5D09DF8073034
:102FF000302B29D011D9502B23D016D9602B1DD0BE
:10300000702B0FD1154B6B6000212046FFF7F2FAB1
:103010000028D1D00023A371D8E7102B0AD0202B91
:1030200018D0A3B10E4B6B60C6E7402BFAD10D4B05
:103030006B60E9E74FF07E536B60E5E70A4B6B602E
:10304000E2E70A4B6B60DFE7094B6B60DCE70023CC
:103050006B60D9E7074B6B60D6E700BF0000C84341
:10306000000080BF00004842000048430000C84202
:103070000000C84100002041F0B5836883B01E689D
:1030800002A90024376801F8014D0546FFF786F9CB
:1030900020B12A789DF807309A4202D0012003B06F
:1030A000F0BD80212846FFF783F90028F6D021469D
:1030B0002846FFF797FB0028F0D0124B736021469B
:1030C0002846FFF797FA0028E8D021462846FFF760
:1030D00091F90028E2D001212846FFF7BDFA002827
:1030E000DCD002212846FFF7E9FA0028D6D00421D7
:1030F0002846FFF715FB0028D0D001233B7020465F
:103100006B71CCE70000C84208B5FEF70FFFB0FABC
:1031100080F0400908BD00BF08B5FEF7B9FEB0FA5F
:1031200080F0400908BD00BF08B50A4601230F2101
:10313000FEF7FCFEB0FA80F0400908BD30B583B060
:103140000C460DF10702012312210546FEF7EEFEA3
:1031500010B1002003B030BD9DF8073023F04003CC
:103160001C430DF107022846012312218DF8074068
:10317000FEF78EFEB0FA80F0400903B030BD00BF0C
:1031800030B583B00C460DF107020123102105462E
:10319000FEF7CCFE10B1002003B030BD9DF8073023
:1031A00023F00C031C430DF10702284601231021D4
:1031B0008DF80740FEF76CFEB0FA80F0400903B0CE
:1031C00030BD00BF10B50A460C4601231021FEF7A2
:1031D000ADFE08B1002010BD237803F00C0323706E
:1031E000012010BD2DE9F04180460F460326002442
:1031F000A51CEDB204F128013A19C9B201234046D9
:10320000FEF794FE0134E4B248B9A542F2D1731E30
:1032100013F0FF062C46EBD10120BDE8F081002021
:10322000BDE8F08130B583B00C460DF107020123F3
:1032300010210546FEF77AFE10B1002003B030BD24
:103240009DF8073003F00F031C430DF107022846D9
:10325000012310218DF80740FEF71AFEB0FA80F026
:10326000400903B030BD00BF10B50A460C4601232B
:103270001021FEF75BFE08B1002010BD237823F07B
:103280000F032370012010BD30B583B00C460DF143
:103290000702012311210546FEF748FE10B1002068
:1032A00003B030BD9DF8073023F00C031C430DF133
:1032B00007022846012311218DF80740FEF7E8FD9B
:1032C000B0FA80F0400903B030BD00BF10B50A4627
:1032D0000C4601231121FEF729FE08B1002010BD84
:1032E000237803F00C032370012010BD2DE9F04179
:1032F00080460F4603260024A51CEDB204F12201EE
:103300003A19C9B201234046FEF710FE0134E4B277
:1033100048B9A542F2D1731E13F0FF062C46EBD13B
:103320000120BDE8F0810020BDE8F08130B583B018
:103330000C460DF10702012311210546FEF7F6FDAB
:1033400010B1002003B030BD9DF8073003F00F032B
:103350001C430DF107022846012311218DF8074077
:10336000FEF796FDB0FA80F0400903B030BD00BF13
:1033700010B50A460C4601231121FEF7D7FD08B10E
:10338000002010BD237823F00F032370012010BD0F
:1033900030B583B00C460DF107020123112105461B
:1033A000FEF7C4FD10B1002003B030BD9DF807301A
:1033B00023F002031C430DF10702284601231121CB
:1033C0008DF80740FEF764FDB0FA80F0400903B0C5
:1033D00030BD00BF10B50A460C4601231121FEF78F
:1033E000A5FD08B1002010BD237803F0020323706F
:1033F000012010BD30B583B00C460DF1070201234A
:1034000006210546FEF792FD48B901230DF107029A
:10341000062128468DF80740FEF73AFD10B100203E
:1034200003B030BD01230DF1070207212846FEF746
:103430007DFD0028F3D19DF80730C4F3022423F06A
:1034400007031C430DF107022846012307218DF8CD
:103450000740FEF71DFDB0FA80F04009E0E700BF2D
:1034600030B583B00C460DF1070201230821054653
:10347000FEF75CFD10B1002003B030BD9DF80730B1
:1034800023F007031C430DF10702284601230821FE
:103490008DF80740FEF7FCFCB0FA80F0400903B05D
:1034A00030BD00BF30B583B00C460DF107020123DB
:1034B00008210546FEF73AFD10B1002003B030BDEB
:1034C0009DF8073023F038031C430DF1070228460E
:1034D000012308218DF80740FEF7DAFCB0FA80F0EE
:1034E000400903B030BD00BF30B583B00C460DF1CC
:1034F0000702012309210546FEF718FD10B100203F
:1035000003B030BD9DF8073003F07F031C430DF17D
:1035100007022846012309218DF80740FEF7B8FC71
:10352000B0FA80F0400903B030BD00BF30B583B0C1
:103530000C460DF1070201230A210546FEF7F6FCB1
:1035400010B1002003B030BD9DF8073023F0070311
:103550001C430DF10702284601230A218DF807407C
:10356000FEF796FCB0FA80F0400903B030BD00BF12
:1035700030B583B00C460DF1070201230A21054640
:10358000FEF7D4FC10B1002003B030BD9DF8073029
:1035900023F078031C430DF10702284601230A217A
:1035A0008DF80740FEF774FCB0FA80F0400903B0D4
:1035B00030BD00BF30B583B00C460DF107020123CA
:1035C0000D210546FEF7B2FC10B1002003B030BD5E
:1035D0009DF8073023F020031C430DF10702284615
:1035E00001230D218DF80740FEF752FCB0FA80F060
:1035F000400903B030BD00BF30B583B00C460DF1BB
:10360000070201230D210546FEF790FC10B10020B2
:1036100003B030BD9DF8073003F07F031C430DF16C
:103620000702284601230D218DF80740FEF730FCE4
:10363000B0FA80F0400903B030BD00BF30B583B0B0
:103640000C460DF10702012312210546FEF76EFC20
:1036500010B1002003B030BD9DF8073023F0040303
:103660001C430DF107022846012312218DF8074063
:10367000FEF70EFCB0FA80F0400903B030BD00BF89
:1036800030B583B00C460DF1070201231421054625
:10369000FEF74CFC10B1002003B030BD9DF80730A0
:1036A00023F003031C430DF10702284601231421D4
:1036B0008DF80740FEF7ECFBB0FA80F0400903B04C
:1036C00030BD00BF30B583B00C460DF107020123B9
:1036D00014210546FEF72AFC10B1002003B030BDCE
:1036E0009DF8073023F00C031C430DF10702284618
:1036F000012314218DF80740FEF7CAFBB0FA80F0D1
:10370000400903B030BD00BF30B583B00C460DF1A9
:103710000702012319210546FEF708FC10B100201D
:1037200003B030BD9DF8073023F002031C430DF1B8
:1037300007022846012319218DF80740FEF7A8FB50
:10374000B0FA80F0400903B030BD00BF30B583B09F
:103750000C460DF10702012319210546FEF7E6FB91
:1037600010B1002003B030BD9DF8073023F00803EE
:103770001C430DF107022846012319218DF807404B
:10378000FEF786FBB0FA80F0400903B030BD00BF01
:1037900030B583B00C460DF107020123192105460F
:1037A000FEF7C4FB10B1002003B030BD9DF8073018
:1037B00023F010031C430DF10702284601231921B1
:1037C0008DF80740FEF764FBB0FA80F0400903B0C3
:1037D00030BD00BF30B583B00C460DF107020123A8
:1037E00019210546FEF7A2FB10B1002003B030BD41
:1037F0009DF8073023F004031C430DF1070228460F
:10380000012319218DF80740FEF742FBB0FA80F042
:10381000400903B030BD00BF10B50A460C46012375
:103820001B21FEF783FB08B1002010BD237803F0B5
:1038300008032370012010BD10B50A460C46012371
:103840001B21FEF773FB08B1002010BD237803F0A5
:1038500020032370012010BD10B50A460C46012339
:103860001C21FEF763FB08B1002010BD237803F094
:1038700010032370012010BD10B50A460C46012329
:103880001C21FEF753FB08B1002010BD237803F084
:1038900020032370012010BD10B50A460C460123F9
:1038A0001D21FEF743FB08B1002010BD237803F073
:1038B00001032370012010BD10B50A460C460123F8
:1038C0001D21FEF733FB08B1002010BD237803F063
:1038D00002032370012010BD10B50A460C460123D7
:1038E0001D21FEF723FB08B1002010BD237803F053
:1038F00004032370012010BD10B50A460C460123B5
:103900001D21FEF713FB08B1002010BD237803F042
:1039100008032370012010BD10B50A460C46012390
:103920001D21FEF703FB08B1002010BD237803F032
:1039300010032370012010BD10B50A460C46012368
:103940001D21FEF7F3FA08B1002010BD237803F023
:1039500020032370012010BD10B50A460C46012338
:103960001D21FEF7E3FA08B1002010BD237803F013
:1039700040032370012010BD10B50A460C460123F8
:103980001E21FEF7D3FA08B1002010BD237803F002
:1039900001032370012010BD10B50A460C46012317
:1039A0001E21FEF7C3FA08B1002010BD237803F0F2
:1039B00002032370012010BD30B583B00D460123F2
:1039C0000DF107023A210446FEF7B0FA38B9204655
:1039D00001230DF106023B21FEF7A8FA10B10020E9
:1039E00003B030BD9DF806309DF8072003F00F03AB
:1039F00042EA032301202B8003B030BD10B50A46F4
:103A00000C4601233B21FEF791FA08B1002010BDBE
:103A1000237803F010032370012010BD10B50A466F
:103A20000C4601233B21FEF781FA08B1002010BDAE
:103A3000237803F020032370012010BD10B50A463F
:103A40000C4601233B21FEF771FA08B1002010BD9E
:103A5000237803F040032370012010BD30B583B0FC
:103A60000D4601230DF107023C210446FEF75EFAE4
:103A700038B9204601230DF106023D21FEF756FA22
:103A800010B1002003B030BD9DF806309DF807202E
:103A900003F0030342EA032301202B8003B030BD6F
:103AA00010B50A460C4601235321FEF73FFA08B130
:103AB000002010BD237803F010032370012010BDF7
:103AC00010B50A460C4601235321FEF72FFA08B120
:103AD000002010BD237803F020032370012010BDC7
:103AE00030B583B00C460DF107020123582105467D
:103AF000FEF71CFA10B1002003B030BD9DF807306E
:103B000023F001031C430DF107022846012358212D
:103B10008DF80740FEF7BCF9B0FA80F0400903B019
:103B200030BD00BF30B583B00C460DF10702012354
:103B300058210546FEF7FAF910B1002003B030BD58
:103B40009DF8073023F002031C430DF107022846BD
:103B5000012358218DF80740FEF79AF9B0FA80F05A
:103B6000400903B030BD00BF30B583B00C460DF145
:103B70000702012358210546FEF7D8F910B10020AD
:103B800003B030BD9DF8073023F004031C430DF152
:103B900007022846012358218DF80740FEF778F9DF
:103BA000B0FA80F0400903B030BD00BF30B583B03B
:103BB0000C460DF10702012358210546FEF7B6F920
:103BC00010B1002003B030BD9DF8073023F008038A
:103BD0001C430DF107022846012358218DF80740A8
:103BE000FEF756F9B0FA80F0400903B030BD00BFCF
:103BF00030B583B00C460DF107020123582105466C
:103C0000FEF794F910B1002003B030BD9DF80730E5
:103C100003F07F031C430DF10702284601235821BE
:103C20008DF80740FEF734F9B0FA80F0400903B090
:103C300030BD00BF30B583B00C460DF10702012343
:103C400059210546FEF772F910B1002003B030BDCE
:103C50009DF8073004F01F0423F01F031C430DF1EF
:103C600007022846012359218DF80740FEF710F975
:103C7000B0FA80F0400903B030BD00BF30B583B06A
:103C80000C460DF10702012359210546FEF74EF9B6
:103C900010B1002003B030BD9DF8073023F0600361
:103CA0001C430DF107022846012359218DF80740D6
:103CB000FEF7EEF8B0FA80F0400903B030BD00BF67
:103CC00030B583B00C460DF1070201235A21054699
:103CD000FEF72CF910B1002003B030BD9DF807307D
:103CE00004F0030423F003031C430DF107022846EC
:103CF00001235A218DF80740FEF7CAF8B0FA80F088
:103D0000400903B030BD00BF30B583B00C460DF1A3
:103D1000070201235A210546FEF708F910B10020D9
:103D200003B030BD9DF80720A40004F00C0322F07E
:103D30000C041C430DF10702284601235A218DF87B
:103D40000740FEF7A5F8B0FA80F0400903B030BD97
:103D500030B583B00C460DF1070201235A21054608
:103D6000FEF7E4F810B1002003B030BD9DF8073035
:103D700003F00F0343EA04140DF107022846012360
:103D80005A218DF80740FEF783F8B0FA80F0400919
:103D900003B030BD30B583B00C460DF107020123EE
:103DA0005B210546FEF7C2F810B1002003B030BD1C
:103DB0009DF8073004F03F0423F03F031C430DF14E
:103DC0000702284601235B218DF80740FEF760F8C3
:103DD000B0FA80F0400903B030BD00BF30B583B009
:103DE0000C460DF1070201235B210546FEF79EF804
:103DF00010B1002003B030BD9DF8073003F07F0301
:103E00001C430DF10702284601235B218DF8074072
:103E1000FEF73EF8B0FA80F0400903B030BD00BFB5
:103E200030B583B00C460DF1070201235C21054635
:103E3000FEF77CF810B1002003B030BD9DF80730CC
:103E400004F00F0423F00F031C430DF10702284672
:103E500001235C218DF80740FEF71AF8B0FA80F0D4
:103E6000400903B030BD00BF30B583B00C460DF142
:103E7000070201235C210546FEF758F810B1002027
:103E800003B030BD9DF8073023F010031C430DF143
:103E90000702284601235C218DF80740FDF7F8FF53
:103EA000B0FA80F0400903B030BD00BF30B583B038
:103EB0000C460DF1070201235C210546FEF736F89A
:103EC00010B1002003B030BD9DF80720640104F05C
:103ED000600322F060041C430DF107022846012311
:103EE0005C218DF80740FDF7D3FFB0FA80F0400960
:103EF00003B030BD30B583B00C460DF1070201238D
:103F00005D210546FEF712F810B1002003B030BD68
:103F10009DF8073023F007031C430DF107022846E4
:103F200001235D218DF80740FDF7B2FFB0FA80F064
:103F3000400903B030BD00BF70B582B00E460DF130
:103F4000070201235D210546FDF7F0FF78B99DF8D2
:103F5000074004F0070444EAC60401230DF10702F8
:103F60005D2128468DF80740FDF792FF10B1002033
:103F700002B070BD01230DF107025C212846FDF758
:103F8000D5FF0028F3D19DF80730760903F07F03B1
:103F900043EAC6160DF10702284601235C218DF87D
:103FA0000760FDF775FFB0FA80F04009E0E700BF59
:103FB00030B583B00C460DF1070201235E210546A2
:103FC000FDF7B4FF10B1002003B030BD9DF80730FD
:103FD00023F002031C430DF10702284601235E2152
:103FE0008DF80740FDF754FFB0FA80F0400903B0A8
:103FF00030BD00BF30B583B00C460DF10702012380
:104000005E210546FDF792FF10B1002003B030BDE0
:104010009DF8073023F004031C430DF107022846E6
:1040200001235E218DF80740FDF732FFB0FA80F0E2
:10403000400903B030BD00BF30B583B00C460DF170
:10404000070201235E210546FDF770FF10B1002035
:1040500003B030BD9DF8073023F008031C430DF179
:104060000702284601235E218DF80740FDF710FF67
:10407000B0FA80F0400903B030BD00BF30B583B066
:104080000C460DF1070201235E210546FDF74EFFA8
:1040900010B1002003B030BD9DF8073023F01003AD
:1040A0001C430DF10702284601235E218DF80740CD
:1040B000FDF7EEFEB0FA80F0400903B030BD00BF5E
:1040C00030B583B00C460DF1070201235E21054691
:1040D000FDF72CFF10B1002003B030BD9DF8073074
:1040E00023F020031C430DF10702284601235E2123
:1040F0008DF80740FDF7CCFEB0FA80F0400903B020
:1041000030BD00BF30B583B00C460DF1070201236E
:104110005E210546FDF70AFF10B1002003B030BD57
:104120009DF8073023F040031C430DF10702284699
:1041300001235E218DF80740FDF7AAFEB0FA80F05A
:10414000400903B030BD00BF30B583B00C460DF15F
:10415000070201235F210546FDF7E8FE10B10020AC
:1041600003B030BD9DF8073023F002031C430DF16E
:104170000702284601235F218DF80740FDF788FEDE
:10418000B0FA80F0400903B030BD00BF30B583B055
:104190000C460DF1070201235F210546FDF7C6FE1F
:1041A00010B1002003B030BD9DF8073023F00403A8
:1041B0001C430DF10702284601235F218DF80740BB
:1041C000FDF766FEB0FA80F0400903B030BD00BFD5
:1041D00030B583B00C460DF1070201235F2105467F
:1041E000FDF7A4FE10B1002003B030BD9DF80730EC
:1041F00023F008031C430DF10702284601235F2129
:104200008DF80740FDF744FEB0FA80F0400903B096
:1042100030BD00BF30B583B00C460DF1070201235D
:104220005F210546FDF782FE10B1002003B030BDCE
:104230009DF8073023F010031C430DF107022846B8
:1042400001235F218DF80740FDF722FEB0FA80F0D0
:10425000400903B030BD00BF30B583B00C460DF14E
:10426000070201235F210546FDF760FE10B1002023
:1042700003B030BD9DF8073023F020031C430DF13F
:104280000702284601235F218DF80740FDF700FE55
:10429000B0FA80F0400903B030BD00BF30B583B044
:1042A0000C460DF1070201235F210546FDF73EFE96
:1042B00010B1002003B030BD9DF8073023F040035B
:1042C0001C430DF10702284601235F218DF80740AA
:1042D000FDF7DEFDB0FA80F0400903B030BD00BF4D
:1042E00038B50A460C4601233E210546FDF71EFE61
:1042F00048B9621C284601233F21FDF717FEB0FA9A
:1043000080F0400938BD002038BD00BF38B50A46EE
:104310000C4601234B210546FDF708FE48B9621CF7
:10432000284601234C21FDF701FEB0FA80F0400938
:1043300038BD002038BD00BF70B5012382B00C46E7
:104340000DF1070219460546FDF7F0FD60B99DF82D
:104350000760012366F07F0619460DF10702284623
:104360008DF80760FDF794FD0DF1060201230F2182
:104370002846FDF7DBFD9DF8063004F01F0423F00E
:104380001F030DF106021C430F21012328468DF85F
:104390000640FDF77DFD012319460DF10702284671
:1043A000FDF7C4FD60B99DF80740012304F07F04C8
:1043B0000DF10702284619468DF80740FDF768FD04
:1043C000012002B070BD00BF08B5FFF713F8B0FAC6
:1043D00080F0400908BD00BF10B582B00C460DF159
:1043E0000701FEF7EFFE60B19DF807300C2B1FD8D8
:1043F000DFE803F00F1E1E1E141E1E1E191E1E1EB9
:104400000A00012002B010BD0C4B2360002002B056
:1044100010BD0B4B2360002002B010BD094B236080
:10442000002002B010BD084B2360002002B010BD78
:10443000064B2360012002B010BD00BF23DB793E94
:1044400023DB793D23DBF93E23DBF93D000080BF10
:1044500010B582B00C460DF10701FEF7B3FE60B156
:104460009DF807300C2B23D8DFE803F0102222221E
:10447000162222221C2222220A00012002B010BD94
:104480004FF082430020236002B010BD4FF0804304
:104490000020236002B010BD4FF083430020236052
:1044A00002B010BD4FF081430020236002B010BD68
:1044B000024B2360012002B010BD00BF000080BF8E
:1044C00008B5FFF779FAB0FA80F0400908BD00BFDF
:1044D00008B5FFF705FFB0FA80F0400908BD00BF3E
:1044E00008B5FFF7BBFAB0FA80F0400908BD00BF7D
:1044F00010B582B00C460DF10701FFF79FFA48B1E5
:104500009DF8070048B1402804D101230020237002
:1045100002B010BD012002B010BD207002B010BD6D
:1045200010B582B00C460DF10701FFF767FA48B1EC
:104530009DF8070048B1102804D101230020237002
:1045400002B010BD012002B010BD207002B010BD3D
:1045500010B582B00C460DF10701FFF75FFA48B1C4
:104560009DF8070048B1202804D1012300202370C2
:1045700002B010BD012002B010BD207002B010BD0D
:10458000F2EE047AB4EEE70AF1EE10FA08B50DD9AE
:10459000F3EE097AB4EEE70AF1EE10FA0DD8102125
:1045A000FEF7E6FFB0FA80F0400908BD0821FEF7EB
:1045B000DFFFB0FA80F0400908BDDFED227AB4EEEB
:1045C000E70AF1EE10FA2CD9DFED1F7AB4EEE70A14
:1045D000F1EE10FA2CD9DFED1D7AB4EEE70AF1EE18
:1045E00010FA27D9DFED1A7AB4EEE70AF1EE10FAE5
:1045F00022D9DFED187AB4EEE70AF1EE10FA1DD9F0
:10460000DFED157AB4EEE70AF1EE10FA18D9DFED16
:10461000137AB4EEE70AF1EE10FA94BF4821502164
:10462000C5E71821FEF7A4FFB0FA80F0400908BDE5
:104630002021BCE72821BAE73021B8E73821B6E7C6
:104640004021B4E7000048420000C842000048434F
:104650000000C843000048440000C84400404E45E4
:1046600030B5012383B000240C600D460DEB03022E
:104670001B218DF801408DF802408DF803408DF824
:1046800004408DF805408DF806408DF8074004463B
:10469000FEF73AFD002800F0998001230DF1020297
:1046A0001C212046FEF730FD002800F08F800123FA
:1046B0000DF103021D212046FEF726FD002800F023
:1046C0008580012301AA53212046FEF71DFD002805
:1046D0007CD001230DF105025E212046FEF714FD7A
:1046E000002873D001230DF106025F212046FEF75A
:1046F0000BFD00286AD0204601230DF107020D2191
:10470000FEF702FD002861D09DF80530DC0603D4D9
:104710009DF80620D00607D59DF80120910603D507
:104720002A7842F001022A709A0603D49DF80620E6
:10473000940607D59DF80120100703D52A7842F08A
:1047400008022A70590603D49DF80620520607D5A0
:104750009DF80220940603D52A7842F002022A70BE
:10476000180703D49DF80620110707D59DF80220ED
:10477000D20603D52A7842F004022A705C0703D4DB
:104780009DF80620500707D59DF80320510603D554
:104790002A7842F040022A709DF90720002A18DB8F
:1047A0009B0706D49DF8063003F0020303F0FF00D8
:1047B0006BB19DF8043003F0200303F0FF0033B128
:1047C0002B7843F020032B70002000E0012003B081
:1047D00030BD9DF80420D206E2D52A7842F01002BE
:1047E0002A70DDE708B50123FEF78EFCB0FA80F0F1
:1047F000400908BD10B582B00C460DF10701FFF766
:104800009BF848B19DF8070048B1202804D1012346
:104810000020237002B010BD012002B010BD207036
:1048200002B010BD10B582B00C460DF10701FFF7C4
:1048300073F848B19DF8070048B1102804D101234E
:104840000020237002B010BD012002B010BD207006
:1048500002B010BD10B582B00C460DF10701FFF794
:104860004BF848B19DF8070048B1082804D101234E
:104870000020237002B010BD012002B010BD2070D6
:1048800002B010BD10B582B00C460DF10701FFF764
:1048900023F848B19DF8070048B1042804D101234A
:1048A0000020237002B010BD012002B010BD2070A6
:1048B00002B010BD10B582B00C460DF10701FEF735
:1048C000FBFF48B19DF8070048B1022804D101233D
:1048D0000020237002B010BD012002B010BD207076
:1048E00002B010BD10B582B00C460DF10701FEF705
:1048F000D3FF40B19DF8070040B1012803D12070DB
:10490000002002B010BD012002B010BD207002B026
:1049100010BD00BF10B582B00C460DF10701FFF7C6
:104920001BF848B19DF8070048B1402804D1012385
:104930000020237002B010BD012002B010BD207015
:1049400002B010BDF0EE007AB4EEE70AF1EE10FA14
:1049500008B50DD9F1EE007AB4EEE70AF1EE10FADF
:104960000DD80821FEF70CFCB0FA80F0400908BD14
:104970000021FEF705FCB0FA80F0400908BDF2EE18
:10498000007AB4EEE70AF1EE10FA94BF0C2104218C
:10499000FEF7F6FBB0FA80F0400908BD022908B521
:1049A0000BD0042902D011B1012008BD0C21FEF763
:1049B000E7FBB0FA80F0400908BD0821FEF7E0FBF4
:1049C000B0FA80F0400908BD08B5FFF7C1F9B0FAA8
:1049D00080F0400908BD00BF08B5FFF795F9B0FAAF
:1049E00080F0400908BD00BF08B5FFF769F9B0FACB
:1049F00080F0400908BD00BF08B5FFF71BF9B0FA09
:104A000080F0400908BD00BF10B582B00C460DF122
:104A10000701FEF721FF48B19DF8070048B11028B3
:104A200004D101230020237002B010BD012002B088
:104A300010BD207002B010BD10B582B00C460DF153
:104A40000701FEF719FF48B19DF8070048B120287B
:104A500004D101230020237002B010BD012002B058
:104A600010BD207002B010BD08B5FFF793F9B0FA81
:104A700080F0400908BD00BF10B582B00C460DF1B2
:104A80000701FEF7C9FE48B19DF8070048B10828A4
:104A900004D101230020237002B010BD012002B018
:104AA00010BD207002B010BD10B582B00C460DF1E3
:104AB0000701FFF705F848B19DF8070048B1202825
:104AC00004D101230020237002B010BD012002B0E8
:104AD00010BD207002B010BD08B5FFF72DFCB0FA74
:104AE00080F0400908BD00BF08B50021FEF70CFEAC
:104AF000B0FA80F0400908BD08B50221FEF704FEB7
:104B0000B0FA80F0400908BD08B5FFF7FFFBB0FA26
:104B100080F0400908BD00BF10B582B00C460DF111
:104B20000701FEF7BDFF48B19DF8070048B1102806
:104B300004D101230020237002B010BD012002B077
:104B400010BD207002B010BD08B5FFF7D3F9B0FA60
:104B500080F0400908BD00BF10B582B00C460DF1D1
:104B60000701FEF769FE48B19DF8070048B120280B
:104B700004D101230020237002B010BD012002B037
:104B800010BD207002B010BD30B583B00D460DF1E0
:104B900007010446FEF71EFC10B9012003B030BD2A
:104BA00020460DF10601FEF791FB0028F5D09DF897
:104BB0000730022B0CD09DF806300C2B1CD8DFE8F8
:104BC00003F0171B1B1B131B1B1B0F1B1B1B0B00BB
:104BD0000B4B2B600020E1E70A4B2B600020DDE748
:104BE000094B2B600020D9E7084B2B600020D5E74C
:104BF000074B2B600020D1E7064B2B60CDE700BFB1
:104C00000000FA420000FA4400007A440000FA432F
:104C100000007543000080BF10B582B00C460DF156
:104C20000701FEF7A9FE40B19DF8070040B1012839
:104C300003D12070002002B010BD012002B010BDD1
:104C4000207002B010BD00BF10B582B002AC0123CD
:104C500004F8012D2246FEF75FFAB0FA80F0400911
:104C600002B010BD10B582B00C460DF10701FEF781
:104C7000FBFAD0B19DF80700502837D00AD8202879
:104C800025D015D9302835D0402828D11F4B236096
:104C900000200BE0802831D011D990281BD0A0280B
:104CA0001DD11B4B2360002000E0012002B010BD8D
:104CB000C8B1102813D1174B23600020F6E76028F5
:104CC00020D070280BD1144B23600020EEE7134B4B
:104CD00023600020EAE7124B23600020E6E7114B37
:104CE00023600120E2E700232360DFE70E4B23600F
:104CF0000020DBE70D4B23600020D7E70C4B23603F
:104D00000020D3E70B4B23600020CFE70000D04208
:104D10000020D04500005041004050440000D041E8
:104D200000205045000080BF00005043000050426A
:104D30000080CF440000D04308B5FEF7F5F9B0FA83
:104D400080F0400908BD00BF10B582B00C460DF1DF
:104D50000701FEF721FE48B19DF8070048B102287F
:104D600004D101230020237002B010BD012002B045
:104D700010BD207002B010BD022908B50BD0042967
:104D800002D011B1012008BD0C21FEF77DFAB0FA66
:104D900080F0400908BD0421FEF776FAB0FA80F0F1
:104DA000400908BD10B582B00C460DF10701FEF7B1
:104DB000DFFAD0B19DF80700502837D00AD8202854
:104DC00025D015D9302835D0402828D11F4B236055
:104DD00000200BE0802831D011D990281BD0A028CA
:104DE0001DD11B4B2360002000E0012002B010BD4C
:104DF000C8B1102813D1174B23600020F6E76028B4
:104E000020D070280BD1144B23600020EEE7134B09
:104E100023600020EAE7124B23600020E6E7114BF5
:104E200023600120E2E700232360DFE70E4B2360CD
:104E30000020DBE70D4B23600020D7E70C4B2360FD
:104E40000020D3E70B4B23600020CFE70000D042C7
:104E50000020D04500005041004050440000D041A7
:104E600000205045000080BF000050430000504229
:104E70000080CF440000D043032901D901207047AE
:104E800008B5FEF7FDFBB0FA80F0400908BD00BF91
:104E9000012901D90120704708B5FEF721FEB0FABB
:104EA00080F0400908BD00BF08B519B1802901D0C4
:104EB000012008BDFEF718FBB0FA80F0400908BDDC
:104EC00008B519B1202901D0012008BDFEF772FBF9
:104ED000B0FA80F0400908BD062908D808B50123BA
:104EE00003FA01F212F05B0F03D1184608BD01204E
:104EF0007047FEF71BFBB0FA80F0400908BD00BF09
:104F0000072901D90120704708B5FEF7A9FAB0FAC0
:104F100080F0400908BD00BF10B500210446FFF72E
:104F200069F808B9012010BD00212046FFF72EF9CD
:104F30000028F7D000212046FEF75AFE0028F1D0C5
:104F400020460021FEF79AFEB0FA80F0400910BD1D
:104F500008B58379012B18D083681B68042920D8F1
:104F6000DFE801F003030B0F0700124A5A6000202C
:104F700008BD114A5A60002008BD104A5A6000203E
:104F800008BD0F4A5A60002008BD042909D8DFE88F
:104F900001F003030C0A0E001021FEF743F900286C
:104FA000E5D1012008BD3021F7E72021F5E74021B8
:104FB000F3E700BF000050410000D0420000D041A4
:104FC0000000504210B500210446FFF735F808B93B
:104FD000012010BD00212046FFF7FAF80028F7D085
:104FE00000212046FEF704FE0028F1D000212046D3
:104FF000FEF720FE0028EBD000212046FEF760FEE1
:105000000028E5D000212046FEF77EFE0028DFD0F4
:1050100000212046FEF79CFE0028D9D00021204622
:10502000FEF7DCFE0028D3D000212046FEF77AFDF3
:105030000028CDD000212046FEF796FD0028C7D0DD
:1050400020460021FEF7B2FDB0FA80F0400910BD05
:1050500010B500210446FFF755F808B9012010BD2E
:1050600000212046FFF71AF90028F7D0002120463A
:10507000FEF7BEFD0028F1D000212046FEF7DAFD44
:105080000028EBD000212046FEF71AFE0028E5D0CC
:1050900000212046FEF738FE0028DFD00021204600
:1050A000FEF740FD0028D9D000212046FEF75CFD28
:1050B0000028D3D020460021FEF778FDB0FA80F01A
:1050C000400910BD10B500210446FEF7F9FF08B9EC
:1050D000012010BD00212046FFF7BEF80028F7D0C0
:1050E00000212046FEF784FD0028F1D00021204653
:1050F000FEF7DCFE0028EBD020460021FEF74AFE3A
:10510000B0FA80F0400910BD10B500210446FEF74A
:105110004FFF08B9012010BD00212046FFF714F809
:105120000028F7D000212046FEF710FB0028F1D020
:1051300020460021FEF74EFBB0FA80F0400910BD7A
:1051400010B500210446FEF757FA08B9012010BD3A
:1051500000212046FEF71CFB0028F7D00021204646
:10516000FEF738FB0028F1D020460021FFF7E4F8D5
:10517000B0FA80F0400910BD10B500210446FEF7DA
:105180007DFF08B9012010BD00212046FFF742F83D
:105190000028F7D000212046FEF72AFD0028F1D094
:1051A00000212046FEF7C8FE0028EBD02046002153
:1051B000FEF7A0FEB0FA80F0400910BD0C2909D816
:1051C000012310B503FA01F241F2111414401CB985
:1051D000184610BD01207047FEF774FAB0FA80F04F
:1051E000400910BD30B583B00C460DF106010546EF
:1051F000FEF7F0F8B0B19DF80630022B15D0284626
:105200000DF10701FEF762F860B19DF807300C2B35
:1052100020D8DFE803F0131F1F1F171F1F1F1B1FBE
:105220001F1F0F00012003B030BD0C4B2360002076
:1052300003B030BD0A4B23600020F4E7094B236024
:105240000020F0E7084B23600020ECE7074B2360C9
:105250000020E8E7064B23600120E4E700008C40D3
:1052600000008C4200000C4100008C4100000C4208
:10527000000080BF08B538291ED8DFE801F01F1DE7
:105280001D1D1D1D1D1D1F1D1D1D1D1D1D1D1F1D4A
:105290001D1D1D1D1D1D1F1D1D1D1D1D1D1D1F1D3A
:1052A0001D1D1D1D1D1D1F1D1D1D1D1D1D1D1F1D2A
:1052B0001D1D1D1D1D1D1F00012008BDFEF7F2F85C
:1052C000B0FA80F0400908BDDFED1F7AB4EEE70ABE
:1052D000F1EE10FA38B525D9DFED1C7AB4EEE70A05
:1052E000F1EE10FA044607D8002500212046FEF70B
:1052F0004FF878B9012038BDDFED157AB4EEE70A32
:10530000F1EE10FA15D8002120460425FEF740F8EA
:105310000028EFD029462046FDF7B6FFB0FA80F00E
:10532000400938BD0221FEF733F8B0FA80F0400999
:1053300038BDDFED087AB4EEE70AF1EE10FA94BF5B
:1053400008250C25D1E700BF0000FA420000754394
:105350000000FA4300007A4408B58379012B48D055
:10536000F2EE0A7A8368B4EEE70AF1EE10FA1B68EF
:105370003BD9F3EE0A7AB4EEE70AF1EE10FA34D92B
:10538000DFED477AB4EEE70AF1EE10FA2DD9DFED42
:10539000457AB4EEE70AF1EE10FA26D9DFED427A4B
:1053A000B4EEE70AF1EE10FA1FD9DFED407AB4EE61
:1053B000E70AF1EE10FA18D9DFED3D7AB4EEE70A0C
:1053C000F1EE10FA11D9DFED3B7AB4EEE70AF1EE17
:1053D00010FA0AD9DFED387A9FED387AB4EEE70A91
:1053E000F1EE10FA88BFF0EE477AC3ED017A0020A3
:1053F00008BDF2EE0A7AB4EEE70AF1EE10FA06D82A
:105400001021FDF793FFB0FA80F0400908BDF3EEDC
:105410000A7AB4EEE70AF1EE10FA33D9DFED207A1A
:10542000B4EEE70AF1EE10FA2ED9DFED1E7AB4EEF3
:10543000E70AF1EE10FA29D9DFED1B7AB4EEE70A9C
:10544000F1EE10FA24D9DFED197AB4EEE70AF1EEA5
:1054500010FA1FD9DFED167AB4EEE70AF1EE10FA72
:105460001AD9DFED147AB4EEE70AF1EE10FA15D985
:10547000DFED117AB4EEE70AF1EE10FA94BF902155
:10548000A021BEE72021BCE73021BAE74021B8E7E0
:105490005021B6E76021B4E77021B2E78021B0E780
:1054A000000050420000D042000050430000D043B2
:1054B000004050440080CF44002050450020D0459B
:1054C00008B58379012B18D083681B68042920D87C
:1054D000DFE801F003030B0F0700124A5A600020B7
:1054E00008BD114A5A60002008BD104A5A600020C9
:1054F00008BD0F4A5A60002008BD042909D8DFE81A
:1055000001F003030C0A0E001021FDF70FFF002825
:10551000E5D1012008BD3021F7E72021F5E7402142
:10552000F3E700BF000050410000D0420000D0412E
:105530000000504208B5FDF7F7FDB0FA80F04009D1
:1055400008BD00BF08B58379012B48D0F2EE0A7A76
:105550008368B4EEE70AF1EE10FA1B683BD9F3EE6C
:105560000A7AB4EEE70AF1EE10FA34D9DFED477AA1
:10557000B4EEE70AF1EE10FA2DD9DFED457AB4EE7C
:10558000E70AF1EE10FA26D9DFED427AB4EEE70A27
:10559000F1EE10FA1FD9DFED407AB4EEE70AF1EE32
:1055A00010FA18D9DFED3D7AB4EEE70AF1EE10FA01
:1055B00011D9DFED3B7AB4EEE70AF1EE10FA0AD921
:1055C000DFED387A9FED387AB4EEE70AF1EE10FAA3
:1055D00088BFF0EE477AC3ED017A002008BDF2EEF5
:1055E0000A7AB4EEE70AF1EE10FA06D81021FDF7B8
:1055F00019FEB0FA80F0400908BDF3EE0A7AB4EE65
:10560000E70AF1EE10FA33D9DFED207AB4EEE70ABB
:10561000F1EE10FA2ED9DFED1E7AB4EEE70AF1EEC4
:1056200010FA29D9DFED1B7AB4EEE70AF1EE10FA91
:1056300024D9DFED197AB4EEE70AF1EE10FA1FD99A
:10564000DFED167AB4EEE70AF1EE10FA1AD9DFEDC3
:10565000147AB4EEE70AF1EE10FA15D9DFED117AFB
:10566000B4EEE70AF1EE10FA94BF9021A021BEE754
:105670002021BCE73021BAE74021B8E75021B6E746
:105680006021B4E77021B2E78021B0E7000050420A
:105690000000D042000050430000D043004050447E
:1056A0000080CF44002050450020D045012901D979
:1056B0000120704708B5FEF713FAB0FA80F04009F0
:1056C00008BD00BF08B50123FDF71EFDB0FA80F04C
:1056D000400908BD10B582B002AC012304F8012DC9
:1056E0002246FDF719FDB0FA80F0400902B010BD66
:1056F00038B58379012B04460D4639D08368244A96
:105700001B685A6000212046FDF73AFD08B90120C8
:1057100038BD06212046FEF70FFC0028F7D00021F7
:105720002046FEF7C3FB0028F1D000212046FEF7FB
:105730009BFB0028EBD000212046FEF771FB0028E0
:10574000E5D003212046FEF7D5FB0028DFD08021DD
:105750002046FEF74DFA0028D9D085B1012DD6D1CB
:1057600020461021FEF756FDB0FA80F0400938BD02
:105770006021FDF757FD0028C4D1012038BD204627
:105780001021FEF77BFCB0FA80F0400938BD00BF65
:105790000000D04338B58379012B04460D4621D053
:1057A0008368184A1B685A6000212046FDF7E8FC10
:1057B00008B9012038BD04212046FEF70BF8002867
:1057C000F7D008212046FDF7C1FF0028F1D085B1B0
:1057D000012DEED120460221FEF7B6FCB0FA80F092
:1057E000400938BD2021FDF71DFD0028DCD1012036
:1057F00038BD20460221FEF7DBFBB0FA80F04009FD
:1058000038BD00BF0000D04110B58379012B04469C
:1058100024D08368154A1B685A6000212046FDF792
:10582000AFFC08B9012010BD17212046FEF784FD0A
:105830000028F7D004212046FDF7CCFF0028F1D046
:1058400010212046FDF7A4FF0028EBD02046802140
:10585000FDF7D2FEB0FA80F0400910BD2021FDF71F
:10586000E1FC0028D9D1012010BD00BF0000D041CB
:10587000F0B583B000240D466946ADF804400094AD
:10588000FDF7B0FCB8B19DF805009DF801709DF8DA
:1058900000109DF803609DF802209DF8043001EB94
:1058A000072103EB002302EB0622204629806A80B1
:1058B000AB8003B0F0BD012003B0F0BDF0B583B004
:1058C00000240D466946ADF804400094FDF70EFD36
:1058D000B8B19DF805009DF801709DF800109DF885
:1058E00003609DF802209DF8043001EB072103EBD3
:1058F000002302EB0622204629806A80AB8003B099
:10590000F0BD012003B0F0BD8379012B50D0836836
:105910001B68D3ED017AB2EE0A7AF4EEC77AF1EEA3
:1059200010FA10B509D810210446FDF77BFC0028B9
:1059300040D00123A371002010BDB3EE0A7AF4EE2B
:10594000C77AF1EE10FA37D99FED227AF4EEC77AD2
:10595000F1EE10FA32D99FED207AF4EEC77AF1EE2B
:1059600010FA2DD99FED1D7AF4EEC77AF1EE10FAF8
:1059700028D99FED1B7AF4EEC77AF1EE10FA23D9FD
:105980009FED187AF4EEC77AF1EE10FA1ED99FED6A
:10599000167AF4EEC77AF1EE10FA19D99FED137A60
:1059A000F4EEC77AF1EE10FA94BF9021A021BBE784
:1059B00000207047012010BD2021B5E73021B3E75A
:1059C0004021B1E75021AFE76021ADE77021ABE79F
:1059D0008021A9E7000050420000D042000050435F
:1059E0000000D043004050440080CF440020504588
:1059F0008379012B50D083681B68D3ED017AB2EE16
:105A00000A7AF4EEC77AF1EE10FA10B509D810212F
:105A10000446FDF78BFC002840D00123A371002031
:105A200010BDB3EE0A7AF4EEC77AF1EE10FA37D968
:105A30009FED227AF4EEC77AF1EE10FA32D99FED9B
:105A4000207AF4EEC77AF1EE10FA2DD99FED1D7A87
:105A5000F4EEC77AF1EE10FA28D99FED1B7AF4EE36
:105A6000C77AF1EE10FA23D99FED187AF4EEC77ACF
:105A7000F1EE10FA1ED99FED167AF4EEC77AF1EE28
:105A800010FA19D99FED137AF4EEC77AF1EE10FAF5
:105A900094BF9021A021BBE700207047012010BDDA
:105AA0002021B5E73021B3E74021B1E75021AFE72E
:105AB0006021ADE77021ABE78021A9E700005042EB
:105AC0000000D042000050430000D043004050444A
:105AD0000080CF440020504510B582B002A90023B9
