:020000040800F2
:1000000000400120050D0008E50C0008E90C00087F
:100010004D0D00084D0D00084D0D000800000000BA
:100020000000000000000000000000004D0D00086E
:10003000ED0C0008000000004D0D0008F10C000858
:100040004D0D00084D0D00084D0D00084D0D000828
:100050004D0D00084D0D00084D0D00084D0D000818
:100060004D0D00084D0D0008F50C00084D0D000861
:100070004D0D00084D0D00084D0D00084D0D0008F8
:100080004D0D00084D0D00084D0D00084D0D0008E8
:100090004D0D00084D0D00084D0D00084D0D0008D8
:1000A0004D0D00084D0D00084D0D00084D0D0008C8
:1000B0004D0D00084D0D00084D0D00084D0D0008B8
:1000C0004D0D00084D0D00084D0D00084D0D0008A8
:1000D0004D0D00084D0D00084D0D00084D0D000898
:1000E000FD0C00084D0D00084D0D00084D0D0008D9
:1000F0004D0D0008000000004D0D00084D0D0008DA
:100100004D0D00084D0D00084D0D00084D0D000867
:100110004D0D00084D0D00084D0D000800000000B9
:100120004D0D00080000000000000000000000006D
:1001300000000000000000005FF808F1044B0548D3
:100140001B1A062B02D9044B03B11847704700BF96
:100150001702002014020020000000000549064894
:10016000091A891001EBD171491002D0034B03B178
:1001700018477047140200201402002000000000FD
:1001800010B5064C237843B9FFF7D8FF044B13B1E1
:100190000448AFF300800123237010BD1402002037
:1001A00000000000B86F000808B5084B1BB10849F3
:1001B0000848AFF300800848036813B9BDE8084059
:1001C000CCE7064B002BF9D09847F7E7000000007A
:1001D00018020020B86F0008140200200000000080
:1001E00080F0004002E000BF81F0004142001FBFEC
:1001F0005FEA410392EA030F7FEA226C7FEA236CF5
:100200006AD04FEA1262D2EB1363C1BFD2184140E9
:1002100048404140B8BF5B42192B88BF704710F07F
:10022000004F40F4000020F07F4018BF404211F022
:10023000004F41F4000121F07F4118BF494292EA8A
:10024000030F3FD0A2F1010241FA03FC10EB0C00B6
:10025000C3F1200301FA03F100F0004302D5494243
:1002600060EB4000B0F5000F13D3B0F1807F06D3F0
:1002700040084FEA310102F10102FE2A51D2B1F1E8
:10028000004F40EBC25008BF20F0010040EA0300DD
:100290007047490040EB000010F4000FA2F101028A
:1002A000EDD1B0FA80FCACF1080CB2EB0C0200FA14
:1002B0000CF0AABF00EBC25052421843BCBFD04062
:1002C0001843704792F0000F81F4000106BF80F4DC
:1002D00000000132013BB5E74FEA41037FEA226C9F
:1002E00018BF7FEA236C21D092EA030F04D092F06A
:1002F000000F08BF0846704790EA010F1CBF00209E
:10030000704712F07F4F04D1400028BF40F00040FA
:10031000704712F100723CBF00F50000704700F01A
:10032000004343F0FE4040F4000070477FEA226241
:1003300016BF08467FEA23630146420206BF5FEA12
:10034000412390EA010F40F4800070474FF0000312
:1003500004E000BF10F0004348BF40425FEA000CD9
:1003600008BF704743F0964301464FF000001CE081
:1003700050EA010208BF70474FF000030AE000BFD7
:1003800050EA010208BF704711F0004302D5404215
:1003900061EB41015FEA010C02BF84460146002087
:1003A00043F0B64308BFA3F18053A3F50003BCFAA2
:1003B0008CF2083AA3EBC25310DB01FA02FC63444F
:1003C00000FA02FCC2F12002BCF1004F20FA02F256
:1003D00043EB020008BF20F00100704702F1200249
:1003E00001FA02FCC2F1200250EA4C0021FA02F2AA
:1003F00043EB020008BF20EADC7070474FF0FF0CAF
:100400001CEAD0521EBF1CEAD15392EA0C0F93EAA9
:100410000C0F6FD01A4480EA010C400218BF5FEA4B
:1004200041211ED04FF0006343EA501043EA5111BE
:10043000A0FB01310CF00040B1F5000F3EBF4900B8
:1004400041EAD3715B0040EA010062F17F02FD2ABC
:100450001DD8B3F1004F40EBC25008BF20F001009F
:10046000704790F0000F0CF0004C08BF49024CEAB6
:10047000502040EA51207F3AC2BFD2F1FF0340EA48
:10048000C250704740F400004FF00003013A5DDCB9
:1004900012F1190FDCBF00F000407047C2F10002FA
:1004A000410021FA02F1C2F1200200FA02FC5FEAE7
:1004B000310040F1000053EA4C0308BF20EADC7031
:1004C000704792F0000F00F0004C02BF400010F4A3
:1004D000000F013AF9D040EA0C0093F0000F01F050
:1004E000004C02BF490011F4000F013BF9D041EA72
:1004F0000C018FE70CEAD15392EA0C0F18BF93EA74
:100500000C0F0AD030F0004C18BF31F0004CD8D19D
:1005100080EA010000F00040704790F0000F17BF24
:1005200090F0004F084691F0000F91F0004F14D06A
:1005300092EA0C0F01D142020FD193EA0C0F03D1C2
:100540004B0218BF084608D180EA010000F00040C5
:1005500040F0FE4040F40000704740F0FE4040F4A0
:10056000400070474FF0FF0C1CEAD0521EBF1CEA3F
:10057000D15392EA0C0F93EA0C0F69D0A2EB03025D
:1005800080EA010C49024FEA402037D04FF08053F7
:1005900043EA111143EA10130CF000408B4238BFBC
:1005A0005B0042F17D024FF4000C8B4224BF5B1ACA
:1005B00040EA0C00B3EB510F24BFA3EB510340EA18
:1005C0005C00B3EB910F24BFA3EB910340EA9C00C6
:1005D000B3EBD10F24BFA3EBD10340EADC001B0136
:1005E00018BF5FEA1C1CE0D1FD2A3FF650AF8B42DA
:1005F00040EBC25008BF20F0010070470CF0004CE7
:100600004CEA50207F32C2BFD2F1FF0340EAC25011
:10061000704740F400004FF00003013A37E792F0D2
:10062000000F00F0004C02BF400010F4000F013A30
:10063000F9D040EA0C0093F0000F01F0004C02BF2B
:10064000490011F4000F013BF9D041EA0C0195E794
:100650000CEAD15392EA0C0F08D142027FF47DAF2D
:1006600093EA0C0F7FF470AF084676E793EA0C0F1D
:1006700004D14B023FF44CAF08466EE730F0004C1B
:1006800018BF31F0004CCAD130F000427FF45CAFAB
:1006900031F000437FF43CAF5FE700BF4FF0FF3C19
:1006A00006E000BF4FF0010C02E000BF4FF0010C6C
:1006B0004DF804CD4FEA40024FEA41037FEA226C35
:1006C00018BF7FEA236C11D001B052EA530C18BF57
:1006D00090EA010F58BFB2EB030088BFC81738BFBC
:1006E0006FEAE17018BF40F0010070477FEA226CAA
:1006F00002D15FEA402C05D17FEA236CE4D15FEAA6
:10070000412CE1D05DF8040B704700BF84460846D9
:100710006146FFE70FB5FFF7C9FF002848BF10F19A
:10072000000F0FBD4DF808EDFFF7F4FF0CBF0120DF
:1007300000205DF808FB00BF4DF808EDFFF7EAFF69
:1007400034BF012000205DF808FB00BF4DF808ED24
:10075000FFF7E0FF94BF012000205DF808FB00BF19
:100760004DF808EDFFF7D2FF94BF012000205DF89F
:1007700008FB00BF4DF808EDFFF7C8FF34BF0120AC
:1007800000205DF808FB00BF4FEA4002B2F1FE4FC7
:100790000FD34FF09E03B3EB12620DD94FEA002343
:1007A00043F0004310F0004F23FA02F018BF40421C
:1007B00070474FF00000704712F1610F01D1420203
:1007C00005D110F0004008BF6FF0004070474FF0B7
:1007D000000070477BB972B90029BEBF00204FF0FE
:1007E000004106E008BF00281CBF6FF000414FF039
:1007F000FF3000F0B5B9ADF1080C6DE904CE002969
:1008000009DB002B1ADB00F035F8DDF804E0DDE948
:10081000022304B07047404261EB4101002B1BDB17
:1008200000F028F8DDF804E0DDE9022304B04042DE
:1008300061EB4101524263EB43037047524263EB69
:10084000430300F017F8DDF804E0DDE9022304B00B
:10085000404261EB41017047524263EB430300F0B9
:1008600009F8DDF804E0DDE9022304B0524263EB4D
:10087000430370472DE9F04F8C460C460546099E10
:10088000002B4FD18A4217466BD9B2FA82FEBEF1D5
:10089000000F0BD0CEF1200520FA05F501FA0EF37A
:1008A00045EA030C02FA0EF700FA0EF5390CBCFB10
:1008B000F1F0BAB201FB10C300FB02F84FEA154C8D
:1008C0004CEA0344A04509D9E41900F1FF3380F054
:1008D0002881A04540F2258102383C44C8EB04043D
:1008E000B4FBF1F301FB134C03FB02F2ACB244EA9C
:1008F0000C418A4209D9C91903F1FF3480F00F81F4
:100900008A4240F20C81023B39448A1A43EA004091
:100910000021002E63D022FA0EF2002386E80C009C
:10092000BDE8F08F8B4207D9002E56D0002186E813
:1009300011000846BDE8F08FB3FA83F1002940F0BA
:100940009380A34202D3824200F2FE80851A64EBB8
:1009500003039C460120002E41D086E82010BDE80C
:10096000F08F12B90127B7FBF2F7B7FA87FEBEF195
:10097000000F36D1E41B4FEA17481FFA87F901210F
:10098000B4FBF8F308FB134409FB03F24FEA154CE0
:100990004CEA0444A24207D9E41903F1FF3002D221
:1009A000A24200F2D3800346A41AB4FBF8F008FB7D
:1009B000104809FB00F9ACB244EA0842914507D956
:1009C000D21900F1FF3402D2914500F2BA802046DC
:1009D000C9EB020240EA03409BE731463046BDE8DE
:1009E000F08F07FA0EF7CEF1200C24FA0CF34FEA41
:1009F0001748B3FBF8FA1FFA87F908FB1A3520FAF3
:100A00000CFC04FA0EF40AFB09FB4CEA040C4FEA56
:100A10001C4242EA05439B4500FA0EF50AD9DB1950
:100A20000AF1FF3280F08B809B4540F28880AAF16A
:100A3000020A3B44CBEB0303B3FBF8F008FB103393
:100A400000FB09F41FFA8CFC4CEA03439C4207D9D3
:100A5000DB1900F1FF326ED29C426CD902383B4464
:100A60001C1B40EA0A418BE7C1F1200E8B4022FAA1
:100A70000EFC4CEA030C24FA0EF74FEA1C49B7FBB4
:100A8000F9FA1FFA8CF309FB1A7720FA0EF88C405A
:100A90000AFB03F548EA04044FEA144848EA07470A
:100AA000BD4202FA01F200FA01FB09D917EB0C076B
:100AB0000AF1FF3041D2BD423FD9AAF1020A674490
:100AC0007F1BB7FBF9F509FB157705FB03F3A4B210
:100AD00044EA0747BB4208D917EB0C0705F1FF3082
:100AE00027D2BB4225D9023D674445EA0A40A0FB14
:100AF0000289FF1A4F4545464C4614D329D066B3A8
:100B0000BBEB050367EB040707FA0EFECB40CF40B3
:100B10004EEA030386E888000021BDE8F08F2346F3
:100B2000F3E61846DAE6B8EB020569EB0C04013887
:100B3000E5E70546D9E7104692E78246C0E79246C8
:100B400078E702383A4443E7084604E7023B3C446E
:100B50002AE7C345E7D33C46D1E73146BDE8F08FED
:100B6000704700BF1E4B70B55A6A94B042F0805275
:100B70005A625B6A1B4803F080530193019B036830
:100B8000022123F4C05343F40063036001261025BF
:100B900000244FF400224FF4000307A8079110919E
:100BA0000A960B9511941292139300F0C9FFA0B905
:100BB0000C4A536813F01003FBD10F2403220121C8
:100BC00002A80493059306930294039201F0C4FBD8
:100BD00008B100F085F814B070BD00F081F8E7E7C7
:100BE00000380240007000402DE9F04F83B000F063
:100BF000C7F82A4CFFF7B6FF002001F0EDFF0121F6
:100C0000002002F025F82146002001F0B5FE012861
:100C10003FD0234D2068A84601F0A2FF2646A146FA
:100C2000A246002703E02B78DBB9A37933BB2379F5
:100C3000002BF8D001A93068377101F0B9FF834665
:100C40000028F0D19DF804301B07ECD501F0ECFF33
:100C5000642000F0B9F8584601F0F0FF2B78002B23
:100C6000E3D00121206801F08BFF0028DDD10123B2
:100C700088F800007371A379002BD8D0D9F8000050
:100C800001F08AFF0028D2D18AF805008AF8060010
:100C9000CDE7002001F0C8FFFEE700BF30020020D2
:100CA00000000020B0F5005F08B505D0102802D183
:100CB000094B01221A7108BD002002F007F8002834
:100CC000F9D1054B5A7912B101229A7108BD034B33
:100CD00001221A7008BD00BF300200200000002071
:100CE000FEE700BF704700BFFEE700BF704700BFD0
:100CF00000F05CB8102000F0E5B900BF4FF40050E0
:100D000000F0E0B9002103E00B4B5B584350043185
:100D10000A480B4B42189A42F6D30A4A02E00023D3
:100D200042F8043B084B9A42F9D301F051FC06F01B
:100D30001DF9FFF759FF7047687000080000002098
:100D40001402002014020020E0020020FEE7000050
:100D5000704700BF10B50446074B08481B68A0FB4E
:100D60000330800900F094F8214600224FF0FF3054
:100D700000F04AF8002010BD04000020D34D62109E
:100D800008B5094B03201A6842F004021A601A6879
:100D900042F002021A6000F025F80F20FFF7DAFF98
:100DA000FFF7D6FF002008BD003C0240024A13684E
:100DB00001331360704700BFD4020020014B186854
:100DC000704700BFD402002010B582B00190FFF739
:100DD000F5FF0446FFF7F2FF019B001B9842F9D391
:100DE00002B010BD4FF6FF0206490002CB6800F4C6
:100DF000E0601A4042F0BF6343F400330343CB602A
:100E0000704700BF00ED00E0194B30B4DB68C3F35E
:100E10000223C3F10705042D03F1040428BF0425B0
:100E2000062C18D9033B01249C40013C224001249C
:100E3000AC40013C214001FA03F3002842EA0302DE
:100E40000CDB120100F16040D2B200F5614080F885
:100E5000002330BC704700221346E8E7054B00F042
:100E60000F001201D2B203441A7630BC704700BFA3
:100E700000ED00E0FCEC00E000F01F010123034A5C
:100E800040098B4042F82030704700BF00E100E08D
:100E90000138B0F1807F0DD230B4074B074CF025FC
:100EA0005860002284F823500721104630BC9A6015
:100EB000196070470120704710E000E000ED00E08D
:100EC000D1F800C0BCF1000F00F0E0802DE9F04F38
:100ED000884683B0DFF8D491002579E0D0F800E0AF
:100EE00001F0030A0EEA030E0AFA07FA013E4AEA83
:100EF0000E0E012EC0F800E040F29C80C668D8F8C3
:100F000008203340BA401343CF00C3605CD5604B28
:100F10005F4E1B6A25F0030243F001033362336A1C
:100F200002F1804203F00103019302F5803205F0E3
:100F30000303019E9B0097680F269E4027EA060642
:100F4000544FB84200F08C8007F58067B84200F03B
:100F50008980514FB84200F08980504FB84200F06C
:100F600089804F4FB84200F089804E4FB84200F060
:100F700089804D4FB8420CBF0627072707FA03F3B5
:100F800033439360E243D9F80030CE034CBF234390
:100F90001340C9F80030D9F804308F034CBF234305
:100FA0001340C9F80430D9F80830CE024CBF2343AF
:100FB0001340C9F80830D9F80C30890254BF02EA4E
:100FC00003041C43C9F80C4001353CFA05F344D036
:100FD0000122AA4012EA0C04F6D0D8F804106F00DF
:100FE00021F010060323BB40022E6FEA03037FF4B7
:100FF00075AF4FEAD50A00EB8A0A05F0070EDAF85A
:1010000020B04FEA8E0E0F2606FA0EF62BEA060BDC
:10101000D8F8106006FA0EF646EA0B06CAF8206009
:10102000066801F0030A06EA030E5646BE4046EA89
:101030000E060660866806EA030ED8F80C60BE400D
:1010400046EA0E0686604668C1F3001E26EA0206DE
:101050007246AA403243426050E703B0BDE8F08FC9
:1010600000238DE7012707FA03F389E7022707FA30
:1010700003F385E7032707FA03F381E7042707FA59
:1010800003F37DE7052707FA03F379E7704700BF0D
:10109000003802400000024000080240000C0240FC
:1010A00000100240001402400018024000040140F9
:1010B0000369194214BF01200020704702B90904D6
:1010C00081617047044A5169014200D1704708B5F7
:1010D0005061FFF7E7FD08BD00040140F8B5044684
:1010E0000D46164623685869C04310F0020026D00A
:1010F0005A69510511D51A6800216FF4806742F4CE
:101100000072042620251A6001205F61266484F89D
:101110003C10216384F83D50F8BD6A1CE3D045B90A
:1011200000232022236384F83C3084F83D200320F0
:10113000F8BDFFF743FE801B8542D3D2F0E7F8BD30
:101140002DE9F041884616461F460546006882B0E4
:10115000046844F480740460089C621C41D14369B3
:10116000DB07FCD508F0FE010161631C14D0436964
:101170009B0714D443695A053FD4002C00F0938098
:10118000FFF71CFE099BC01A8442C0F08C802868BF
:10119000EBE743695A0530D443699907F9D5002331
:1011A00001934369019383690193019B621C5CD1A4
:1011B00043691B0648D443695905F9D500236FF4E8
:1011C0008064042120224461296485F83C302B632B
:1011D00085F83D202B6C042B2FD0032002B0BDE8F6
:1011E000F0814369D907BDD4E4B1FFF7E7FD099B5E
:1011F000C01A844216D32868AFE7036800226FF450
:10120000806643F4007304242021036046612C644B
:1012100085F83C202A6385F83D102B6C042BDCD12B
:101220000120DBE7002320222B6385F83C3085F882
:101230003D20032085F83E30D0E72A68012013685E
:1012400043F400731360C9E7012F0AD0330A036126
:10125000671C19D14369190603D443695A05ADD4F3
:10126000F8E7F6B206610020B8E743691A06EBD446
:1012700043695905A2D4F4B1FFF7A0FD099BC01A38
:10128000844218D3286891E743691B06E9D443696F
:101290005B0593D47CB1FFF791FD099BC01A844292
:1012A00009D32868D4E7002320222B6385F83C303B
:1012B00085F83D20B1E72B6C002243F0200320216C
:1012C0002B6485F83C202A6385F83D1082E700BF37
:1012D0002DE9F043984604460068894601681746A0
:1012E00041F480610160026883B042F480720A9E1A
:1012F0000B9D0260711C42D14369DA07FCD55FFA8D
:1013000089F909F0FE030361721C13D043699A073F
:1013100013D4436959053DD4002E00F0A880FFF78F
:101320004DFD401B8642C0F0A2802068ECE7436977
:1013300059052FD443699B07F9D5002301934369CD
:10134000019383690193019B711C63D143691A0660
:1013500047D443695B05F9D500236FF48065042108
:1013600020224561216484F83C30236384F83D20C9
:10137000236C042B2ED0032003B0BDE8F083436917
:10138000DB07BCD4DEB1FFF719FD401B864216D344
:101390002068AFE7036800226FF4806643F40073AF
:1013A0000425202103604661256484F83C202263E3
:1013B00084F83D10236C042BDDD10120DCE70023F1
:1013C0002022236384F83C3084F83D20032084F8F5
:1013D0003E30D1E722680120136843F400731360A4
:1013E000CAE7B8F1010F0AD03B0A0361731C2FD181
:1013F0004369190603D443695A05ADD4F8E7FFB22F
:101400000761711C15D143691A0638D443695B051D
:10141000A2D4F8E743691906E3D443695B059BD47A
:10142000002E4CD0FFF7CAFC401B864247D32068F1
:101430008AE743691F0622D443695F058CD4002ED6
:101440003DD0FFF7BBFC401B864238D32068D8E76D
:1014500043691B06D3D443695A053FF57DAF76B384
:10146000FFF7ACFC401B864229D32068BEE700236F
:101470002022236384F83C3084F83D209AE70368F7
:1014800043F480730360711C0DD14369DA07FCD506
:1014900049F0010303612A4631462046FFF71EFE4C
:1014A000002887D168E74369DB07F1D4002E86D096
:1014B000FFF784FC401B864281D32068E3E7236C5E
:1014C000002243F020032021236484F83C2022637F
:1014D00084F83D104CE700BF704700BF002800F0C3
:1014E0009080F8B590F83D30044603F0FF02002BE1
:1014F00074D001F055F8444B98426DD923682422EA
:1015000084F83D201A68414922F00102A1FB0051F4
:101510001A605A68890C22F03F020A435A603C4E16
:1015200062681D6AB24225F03F0539D85200B0FB0F
:10153000F2F2013129431962D969C2F30B0521F492
:101540004F41032D21F0FF0198BF04220A43DA61C5
:101550001968E669226A21F0C00132430A431A6021
:1015600099682769E66821F403423E4322F0FF02AE
:1015700032439A60D9686669A26921F0FF0132435B
:101580000A43DA601A680025202142F001021A603D
:101590002846256484F83D10256384F83E50F8BD44
:1015A0004FF4967606FB01F11A4FA668A7FB01716E
:1015B0008909013129431962D96921F44F4121F088
:1015C000FF0186B902EB4202B0FBF2F0C0F30B025E
:1015D000AAB140F40042B9E70120F8BD80F83C20F0
:1015E000FFF77AFF85E702EB820202EB8202B0FB93
:1015F000F2F0C0F30B0212B140F44042A6E7012220
:10160000A4E70120704700BF7F841E0083DE1B43D8
:10161000A0860100D34D6210704700BFB0B110B575
:1016200004460268242380F83D30136823F0010348
:101630001360FFF7F1FF0023236484F83C3084F843
:101640003D301846236384F83E3010BD01207047BA
:101650002DE9F047044682B099460F469046BDF802
:101660002C60FFF7ABFB94F83D30202B04D0022612
:10167000304602B0BDE8F0870A9B03B126B90126C7
:10168000304602B0BDE8F087054605E0FFF796FB5F
:10169000401B192800F2898022689369DB4313F00C
:1016A000020AF3D094F83C30012BE0D013680121FA
:1016B000D80784F83C1002D413680B4313601368F6
:1016C0005A4923F4006313604FF0000A212240239B
:1016D00084F83D2084F83E30C4F840A066850A9E18
:1016E000E162608D66620C9E019500964B462085F6
:1016F000424639462046FFF723FD064600286FD1B3
:101700002368228D4AB30C9A013259D15A691206C4
:101710002DD45A695705F9D500226FF4806504204D
:1017200020215D61206484F83C20226384F83D1010
:10173000236C042B73D003269AE75A69520755D4B9
:101740005A695705E8D40C9B002B5CD0FFF736FB99
:101750000C9B401B834256D323680C9A0132ECD178
:101760005A69500742D45A695105D5D4F8E7606ADE
:10177000278D421C626201787A1E1961618D92B2D6
:10178000013989B26185596922854907BAD5002A8C
:10179000E3D0821C62624178BA1E1961618D92B2F7
:1017A000013989B222856185ACE72023C4F830A0D5
:1017B00084F83CA084F83D30022684F83EA057E728
:1017C0005A691006D3D45A695105A5D40C9BD3B1DC
:1017D000FFF7F4FA0C9B401B834214D3236892E773
:1017E000236C84F83CA0042BA5D148E71A6800219B
:1017F000202042F400721A6084F83D0084F83C1006
:1018000084F83E1034E7236C002243F020032021AB
:10181000236484F83C20226384F83D1088E7226822
:101820000126136843F40073136021E70000FFFFF3
:101830002DE9F047044686B099460F469046BDF81C
:101840003C60FFF7BBFA94F83D30202B04D0022710
:10185000384606B0BDE8F0870E9B03B126B90127D4
:10186000384606B0BDE8F087054604E0FFF7A6FA63
:10187000401B192839D822689369DB4313F0020A08
:10188000F4D094F83C30012BE1D013680121D80743
:1018900084F83C1002D413680B43136013689D490D
:1018A00023F4006313604FF0000A2222402384F8DF
:1018B0003D2084F83E30C4F840A06685E162394698
:1018C0000E9F608D6762109F019500974B462085A3
:1018D00042462046FFF7FCFC074688B1236C84F89B
:1018E0003CA0042BBBD00327B2E72023C4F830A0D0
:1018F00084F83CA084F83D30022784F83EA0A7E796
:10190000238D2268012B00F0F680022B00F0048169
:1019100005905169059192690592059A002B00F096
:10192000E280032B65D8012B00F0C280022E00F06C
:101930009D80109B2268013338D153695807FCD52C
:101940001368616A23F48063136013694A1C62623E
:101950000B70638D228D013B9BB2013A6385109B16
:1019600022850133226837D153695B07FCD51368A0
:10197000616A43F40073136013694A1C62620B705E
:10198000638D2268013B9BB26385616A238D126976
:10199000013B481C238560620A70238D628D013BE8
:1019A000013A9BB292B223856285B7E75369590722
:1019B000C6D4109B2BB1FFF701FA109B401B83424A
:1019C000B7D200232022236384F83C3084F83D20E2
:1019D000032784F83E303BE753695807C7D4109B70
:1019E000002BEED0FFF7EAF9109B401B8342B8D2E0
:1019F000E7E7109B4BB924E05A69D0064CD4FFF7B7
:101A0000DDF9109B401B834222D323685A6952069A
:101A1000F2D5626A1B69511C61621370628D216884
:101A2000013A92B2238D62854A69013B9BB252070B
:101A300023857FF573AF636A0A69591C61621A7066
:101A4000ABE723685A695106E3D45A69D10623D417
:101A5000236C202213430021236484F83C1084F873
:101A60003D20236C202B7FF4FAAE3CE7109B013322
:101A7000226803D153695907FCD578E753695B079E
:101A80003FF575AF109B002B9BD0FFF797F9109B8C
:101A9000401B8342EBD294E700226FF0100020211C
:101AA0005861226484F83C20226384F83D10D8E712
:101AB000109B4BB912E05A69D206EDD4FFF77EF9BC
:101AC000109B401B8342C3D323685A695106F2D549
:101AD000626A1B69511C616213705EE723685A6970
:101AE0005006B2D5F4E7202284F83D2084F83C303B
:101AF00084F83E30ACE6116821F4806111600390F7
:101B000051690391916903910399116841F400713E
:101B1000116003E70000FFFF116821F4806111608C
:101B2000116841F400611160049051690491926957
:101B30000492049AF2E600BF90F83D00704700BF9F
:101B40002DE9F043036885B0DE0704463BD5BD4967
:101B50008A6802F00C02082A00F0B6818A6802F056
:101B60000C020C2A00F0AC816368012B00F0B982F2
:101B7000002B00F00D82052BB24B1A6800F0B983E0
:101B800022F480321A601A6822F480221A60FFF769
:101B900015F94FF400380746AA4E012505E0FFF776
:101BA0000DF9C01B642800F26A8298FAA8F3326823
:101BB00098FAA8F3B3FA83F303F01F0305FA03F3CB
:101BC0001342ECD02368980745D59E498A6802F0F5
:101BD0000C02042A00F05B828A6802F00C020C2AD4
:101BE00000F05182E2680125002A00F0878195FA11
:101BF000A5F3B3FA83F303F1845303F58E139B002B
:101C00001D60FFF7DBF84FF0020807468D4E05E038
:101C1000FFF7D4F8C01B022800F2318298FAA8F32B
:101C20008849326898FAA8F3B3FA83F303F01F03E4
:101C300005FA03F31342EBD04A684FF4F85393FAD2
:101C4000A3F3B3FA83F3206922F4F85200FA03F302
:101C500013434B602368DA0600F1AD801D0728D5D9
:101C60006269002A00F07081012292FAA2F1B1FAB1
:101C700081F1754B16460B449B001A60FFF79EF8E6
:101C80004FF0020807466F4D05E0FFF797F8C01BBD
:101C9000022800F2F48198FAA8F36A6B98FAA8F384
:101CA000B3FA83F303F01F0306FA03F31342ECD0F5
:101CB0002368580748D5634B5A6AD10000F10E8259
:101CC0005A6A4FF0010842F080525A625B6A03F090
:101CD00080530193019B5D4B1A68D20540F1BE8190
:101CE000A368012B00F0A482002B00F02582052BB5
:101CF000544B5A6B00F0948222F480725A635A6BF0
:101D000022F480625A63FFF759F84FF400790746CE
:101D10004C4E012507E0FFF751F841F28833C01B14
:101D2000984200F2AC8199FAA9F3726B99FAA9F37F
:101D3000B3FA83F303F01F0305FA03F31342EAD067
:101D4000B8F1000F40F06682636A83B33D4DAA6824
:101D500002F00C020C2A00F0CD80022B4FF08073B1
:101D600000F06C8293FAA3F3B3FA83F303F1845384
:101D700003F58E139B0000221A60FFF71FF84FF047
:101D800000740746012605E0FFF718F8C01B02287B
:101D900000F2758194FAA4F32A6894FAA4F3B3FAD2
:101DA00083F303F01F0306FA03F31342ECD1002080
:101DB00005B0BDE8F083234DAB6813F00C0F47D09E
:101DC000A2694FF48073002A00F0918193FAA3F383
:101DD000B3FA83F303F1845303F58E139B000126BA
:101DE0001E60FEF7EBFF4FF40078074605E0FEF7B4
:101DF000E5FFC01B022800F2428198FAA8F31149BE
:101E00002A6898FAA8F3B3FA83F303F01F0306FADB
:101E100003F31342EBD04A68236A22F4604213436F
:101E20004B604A684FF07F4393FAA3F3B3FA83F30E
:101E3000E06922F07F4200FA03F313434B6023680A
:101E40000CE700BF00380240A0C1911000700040B4
:101E50004FF4007393FAA3F2296893FAA3F3B3FA49
:101E600083F3012203F01F0302FA03F30B4202D0B3
:101E7000A369002B3ED0C54B216A5A6802F4604228
:101E8000914240F28D819A6812F0F00F40F0A480E8
:101E90005A6AD70040F14782A3F5E4331A6802F486
:101EA000C052B2F5C05F40F09780B1F5404F40F0AE
:101EB0009380B74A0120136843F0040313608CE059
:101EC0008A68D5037FF550AE4FF4003292FAA2F142
:101ED000AE49086892FAA2F2B2FA82F2012102F047
:101EE0001F0201FA02F202423FF46DAE6268002A5C
:101EF0007FF469AE012005B0BDE8F08395FAA5F343
:101F0000B3FA83F303F1845303F58E139B001A6035
:101F1000FEF754FF4FF0020807469C4E05E0FEF71F
:101F20004DFFC01B022800F2AA8098FAA8F332687D
:101F300098FAA8F3B3FA83F303F01F0305FA03F347
:101F40001342ECD1236886E6012595FAA5F1B1FA92
:101F500081F1904B4FF002080B449B001A60FEF792
:101F60002DFF8A4E074605E0FEF728FFC01B02281A
:101F700000F2858098FAA8F3726B98FAA8F3B3FA86
:101F800083F303F01F0305FA03F31342ECD18FE64A
:101F90007E4B4FF400381A681E4622F480321A60D5
:101FA0001A68012522F480221A60FEF707FF07460F
:101FB00004E0FEF703FFC01B642860D898FAA8F37A
:101FC000326898FAA8F3B3FA83F303F01F0305FA13
:101FD00003F31342EDD1F5E500206D4A136823F0B9
:101FE000010303431360136803F00103984281D196
:101FF00066484FF07F43426822F4604211434160DB
:10200000426893FAA3F3B3FA83F3E16922F07F42C3
:1020100001FA03F313434360216A4FF4604393FAD8
:10202000A3F35A4AB3FA83F39268F02090FAA0F02F
:10203000B0FA80F002F0F002574DC24021FA03F3EB
:102040000133A95C4FF4004202FA03F3534ACB4038
:102050000F201360FEF77EFE2368FFE51A681D4619
:1020600042F480721A60FEF7A9FE06462B68DB0573
:102070003FF536AEFEF7A2FE801B6428F6D903209A
:1020800005B0BDE8F0838A68D1033FF5ABAD02220D
:1020900092FAA2F13D49086892FAA2F2B2FA82F2EB
:1020A000012102F01F0201FA02F2024203D0E268AB
:1020B0008A427FF41FAF354D4FF4F852696892FAA7
:1020C000A2F2B2FA82F2206921F4F85100FA02F287
:1020D0000A436A60DA067FF5C1AD6CE64FF000088E
:1020E000F9E52A4A136843F4803313604FE593FA05
:1020F000A3F3B3FA83F303F1845303F58E139B0028
:102100001A60FEF75BFE4FF400780746012604E0F4
:10211000FEF754FEC01B0228B1D898FAA8F32A682B
:1021200098FAA8F3B3FA83F303F01F0306FA03F354
:102130001342EDD1236891E5144B4FF400795A6BAB
:102140001E4622F480725A635A6B012522F4806283
:102150005A63FEF733FE074606E0FEF72FFE41F214
:102160008833C01B98428AD899FAA9F3726B99FAFE
:10217000A9F3B3FA83F303F01F0305FA03F3134241
:10218000EBD1B8F1000F3FF4DFAD43E0003802407F
:10219000003C0240A0C19110DC6F00080400002048
:1021A00058684FF07F4220F46040084358605868F8
:1021B00092FAA2F2B2FA82F2E56920F07F4005FAC3
:1021C00002F202435A609A6812F0F00F14D15A6A70
:1021D000D60040F196805D4B1A6802F4C052B2F509
:1021E000C05F09D1B1F5404F06D1594A01201368AB
:1021F00043F00403136000E00020554A136823F005
:10220000010303431360136803F0010398427FF452
:1022100071AE02E74F4A536A23F08053536293E54D
:1022200042F480625A635A6B42F480725A636AE5E0
:10223000484A536B43F48073536364E593FAA3F302
:10224000B3FA83F303F1845303F58E139B0000224A
:102250001A60FEF7B3FD4FF000780746012605E04F
:10226000FEF7ACFDC01B02283FF609AF98FAA8F3B1
:1022700038492A6898FAA8F3B3FA83F303F01F03E6
:1022800006FA03F313424FF00100E9D1A66AE56AAA
:10229000226B8B6846EA0504224323F47D03134333
:1022A0008B604FF0807393FAA3F3B3FA83F303F1D7
:1022B000845303F58E139B0018600C460546FEF709
:1022C0007DFD4FF00076074605E0FEF777FDC01B69
:1022D00002283FF6D4AE96FAA6F3226896FAA6F341
:1022E000B3FA83F303F01F0305FA03F31342ECD0B0
:1022F0005DE542F480221A601A6842F480321A6066
:1023000045E45A6A114842F080525A625A6A02F011
:1023100080520392039A0268586A02F4C05220F075
:10232000805058625BE75A6A084842F080525A620D
:102330005A6A02F080520292029A0268586A02F4C3
:10234000C05220F080505862ABE500BF00700040E2
:10235000003C0240003802408A4A2DE9F0411368EF
:1023600003F001038B4215D20129136807D023F033
:1023700001031943116001201368BDE8F08143F0A7
:1023800004031360136843F0010313601368DE074E
:1023900040F18D8003689F0706D57B4D8268AC684D
:1023A00024F0F0042243AA60DD0706460C4637D528
:1023B0004368022B00F0CE80032B00F0C580012B78
:1023C00000F0CF804FF4007292FAA2F16E490868D3
:1023D00092FAA2F2B2FA82F2012102F01F0201FA8D
:1023E00002F2024263D0684D41F28838AA6822F0B6
:1023F00003021343AB60FEF7E1FC73680746022B50
:102400005DD0032B66D0012B06D16EE0FEF7D6FC23
:10241000C01B404500F29B80AB6813F00C0FF5D158
:10242000584A136803F001039C4239D333685807B4
:1024300006D55548F268816821F4E0610A4382605C
:10244000190758D450498B6803F00C02082A00F091
:1024500086800C2A58D0042A7FD04B684FF4604203
:1024600092FAA2F2B2FA82F203F46043D3405A1C09
:102470004FF400439340444AF021926891FAA1F14D
:10248000B1FA81F1414802F0F002CA40815C404A51
:10249000CB400F201360FEF75DFC0020BDE8F0810B
:1024A000136823F0010313601368DC07BED5012015
:1024B000BDE8F081FEF782FCC01B404547D8AB6801
:1024C00003F00C03082BF5D1AAE7FEF777FCC01B3D
:1024D00040453CD8AB6803F00C030C2BF5D19FE7CB
:1024E000FEF76CFCC01B404531D8AB6803F00C0311
:1024F000042BF5D194E7244A3169936823F460539F
:1025000043EAC10393609DE74FF4701292FAA2F27E
:10251000B2FA82F203F470101E4C20FA02F2A05CB0
:102520004FF4400292FAA2F2B2FA82F2896803F4FE
:102530004003D340CA034CBF174A184A013302FB79
:1025400000F0B0FBF3F396E74FF000723CE7032096
:10255000BDE8F0814FF4003236E7104B8BE70E4BAD
:1025600089E7022292FAA2F10749096892FAA2F2D7
:10257000B2FA82F202F01F0203FA02F20A427FF478
:1025800032AF94E7003C024000380240DC6F0008A4
:1025900004000020D06F000800127A000024F4002C
:1025A000084B4FF4E0629B6892FAA2F2B2FA82F210
:1025B0000548064903F4E063D340C35C0868D8408B
:1025C000704700BF00380240EC6F00080400002094
:1025D0000F4B10B419680F4A41F480711960996863
:1025E0000D480A409A601A68002422F0885222F0AE
:1025F00001121A601A684FF0006122F480221A60FA
:102600009A6822F47D029A60DC60816010BC704799
:10261000003802400CC0FF8800ED00E0F0B52C4C03
:1026200089B02046FFF788FA38B12948FFF784FAC5
:10263000203818BF012009B0F0BD0546254E264BB5
:10264000264A2360F3694FF4804143F00203F361AB
:10265000F3694FF4407003F0020301934FF0330E1F
:10266000019B6260042302222161039003A91227C7
:102670001B48C4F80CE006920793A56005950497E3
:10268000FEF71EFC736A2A4643F400137362736AF2
:10269000294603F400130293029BB3691F2043F4FD
:1026A0000013B361B36923F40013B361FEF7ACFB0D
:1026B0001F20FEF7E1FB2A4629462020FEF7A4FB57
:1026C0002020FEF7D9FB2046FEF708FFADE700BF4C
:1026D000380200200038024000540040801A0600F2
:1026E00000040240F0B52C4C89B02046FFF724FAD4
:1026F00038B12948FFF720FA203818BF012009B067
:10270000F0BD0546254E264B264A2360F3694FF45B
:10271000804143F00203F361F3694FF4407003F02A
:10272000020301934FF0330E019B626004230222E7
:102730002161039003A912271B48C4F80CE00692FC
:102740000793A56005950497FEF7BAFB736A2A46BE
:1027500043F400137362736A294603F4001302936F
:10276000029BB3691F2043F40013B361B36923F4E0
:102770000013B361FEF748FB1F20FEF77DFB2A46DE
:1027800029462020FEF740FB2020FEF775FB20465F
:10279000FEF7A4FEADE700BF38020020003802407B
:1027A00000540040801A0600000402402DE9F04168
:1027B000204D214FEB698CB043F00203EB61EB69D4
:1027C0001E4E03F0020300244FF002080093384627
:1027D000202302A90293009A0396CDF81480049452
:1027E000FEF76EFB224621461720FEF70DFB172051
:1027F000FEF742FBEB69384643EA0803EB61EB69FD
:10280000102203EA0803019307A9019B0792089687
:10281000CDF828800994FEF753FB224621460A2072
:10282000FEF7F2FA0A20FEF727FB20460CB0BDE8BF
:10283000F08100BF00380240000402400000111087
:102840002DE9F0470546007884B040280F469046B1
:102850001E463BD038D9B12822D18BB300244FF487
:10286000805A4FF0010901E0B44229D008EB04037B
:102870003A19A978D2B20093CDF808A0CDF8049007
:1028800001231548FEF7E4FE01340028ECD012487D
:10289000FEF7C4FEFFF7C2FE012004B0BDE8F087DA
:1028A000BC2813D04FF48053A9783A46029301967E
:1028B000CDF8008001230848FEF7CAFE0028E6D1C3
:1028C000002004B0BDE8F0873328EBD1012E88BF8B
:1028D00047F08007E6E700BF380200202DE9F04707
:1028E0000546007884B040280F4690461E463BD0EF
:1028F00038D9B12822D18BB300244FF4805A4FF03D
:10290000010901E0B44229D008EB04033A19A9787F
:10291000D2B20093CDF808A0CDF804900123154859
:10292000FEF786FF01340028ECD01248FEF776FE51
:10293000FFF774FE012004B0BDE8F087BC2813D077
:102940004FF48053A9783A4602930196CDF800805F
:1029500001230848FEF76CFF0028E6D1002004B0F0
:10296000BDE8F0873328EBD1012E88BF47F0800700
:10297000E6E700BF38020020F8B500250F460D60DD
:102980000646714C002800F0948001282FD1637E08
:10299000012B00F08C80FFF7A5FE012800F0878056
:1029A00023466A4ADFF8B0C143F8402F4FF0330E98
:1029B000322104F1300204F1140065752676657643
:1029C000A576E6762363C4F820C084F814E0A175E8
:1029D00065626563E2613860236A1B68002B00F062
:1029E0009C809847012800F090800020F8BD637912
:1029F000012B2CD0FFF776FE012828D02346544A1D
:102A0000DFF858E143F8382F524EA3626A2004F1F0
:102A10002803D6210122657025716571A571C4F85E
:102A20000CE02070A170E271A360E56226613C6059
:102A3000E3681B68002B7FD020469847012860D1AF
:102A40003B681D605D609D60DD601D613D60637E73
:102A50003D4D012B2BD0FFF745FE012827D02B46FB
:102A60003A493D4A43F8401F332000262A62287520
:102A70002B633221012305F1300205F114002B767E
:102A8000EB766E756E76AE76A9756E626E63EA61F0
:102A900038602B6A1B68002B3FD098470128A4D1CF
:102AA0003B681E605E609E60DE601E613E600120CD
:102AB000F8BD6379012BFAD0FFF714FE0128F6D098
:102AC0002346234ADFF894E043F8382F214DA362D0
:102AD0006A2004F12803D6210122667026716671EE
:102AE000A671C4F80CE02070A170E271A360E662E8
:102AF00025613C60E3681B68BBB12046984701280C
:102B0000CED0FFF753FE0020F8BD3B681D605D602E
:102B10009D60DD601D613D60C9E700236361436026
:102B20008360C36003613B60C1E723606360A360AF
:102B3000E36023613B60BAE723606360A360E36006
:102B400023613B6083E700BF8C020020D802002095
:102B5000DC0200204001002014000020B40000200E
:102B600060B108B5C3689B6833B19847A0F1010014
:102B7000B0FA80F0400908BD012008BD012070476F
:102B800020B1026912B103786A2B01D0012070478D
:102B9000936B002BFAD0184720B1026912B1037869
:102BA0006A2B01D001207047D36B002BFAD0184755
:102BB00078B102696AB110B411B103786A2B02D0FE
:102BC000012010BC7047D2F89430002BF8D010BC14
:102BD00018470120704700BFF0B5044687B048B9D8
:102BE0000F4BDA6942F00102DA61DB6903F001039D
:102BF0000093009B0B4D0223202655F82400012250
:102C0000002701A90292049301960397FEF758F951
:102C10003A46314655F82400FEF750FA07B0F0BDA9
:102C20000038024008000020034B012253F8200026
:102C30002021FEF743BA00BF08000020034B00220A
:102C400053F820002021FEF739BA00BF0800002009
:102C500010B50B4686B048B9194AD16941F0040154
:102C6000D161D26902F004020092009A4FF400513F
:102C7000002401220191039404921BB1012B0BD07B
:102C800006B010BD0F4A01A902EB80004068029314
:102C9000FEF716F906B010BD0A4B0B4A03EB800095
:102CA00001A940680292FEF70BF922460F21282065
:102CB000FEF7AAF82820FEF7DFF806B010BD00BF27
:102CC00000380240080000200000211008B5044B25
:102CD0004FF4005103EB80004068FEF7E9F908BDAE
:102CE0000800002008B5FFF7ABFDB0FA80F04009FE
:102CF00008BD00BF08B5FFF7F1FDB0FA80F040094C
:102D000008BD00BF08B50A4601230F21FFF7E6FD05
:102D1000B0FA80F0400908BD30B583B00C460DF123
:102D20000702012323210546FFF7D8FD10B100203B
:102D300003B030BD9DF807300DF1070203F07F03AB
:102D40001C432846012323218DF80740FFF778FD17
:102D5000B0FA80F0400903B030BD00BF30B583B099
:102D60000C460DF10702012323210546FFF7B6FDAE
:102D700010B1002003B030BD9DF807300DF10702FF
:102D800023F030031C432846012323218DF80740FC
:102D9000FFF756FDB0FA80F0400903B030BD00BF28
:102DA00010B50A460C4601232321FFF797FD08B111
:102DB000002010BD2378012003F03003237010BDE4
:102DC00008B50A4606232821FFF788FDB0FA80F0EF
:102DD000400908BD2DE9F04D84B00D4601230DF1E9
:102DE000060223210646FFF779FD28B99DF8063033
:102DF00003F008038DF8063001230DF105022021B0
:102E00003046FFF76BFD00287CD09DF805000828B0
:102E100000F08280002840F085809DF80630002B6D
:102E200040F0858001244FF0060801230DF10702D0
:102E300023213046FFF752FD00287FD09DF8070080
:102E4000202800F08480302800F08780A0F110074F
:102E5000B7FA87F77F0902AA304606232821FFF731
:102E60003DFDBDF90800DFF8F8E040FA08F107EB96
:102E700084000EEBC00256685EF8304001FB06F29B
:102E8000CB1704FB0323A1FB040110F5FA701944CE
:102E900041F100014FF47A720023FDF79BFCBDF96C
:102EA0000A30286043FA08F000FB06F34FEAE07BA3
:102EB00004FB0B33A0FB040110F5FA70194441F137
:102EC00000014FF47A720023FDF784FCBDF90C3049
:102ED000686043FA08F000FB06F6C317A0FB040184
:102EE00004FB036410F5FA70214441F100014FF432
:102EF0007A720023FDF76EFC0123A860184604B027
:102F0000BDE8F08D9DF8050000F00800C0B208286B
:102F10008DF805007FF47EAF9DF8063013B980462A
:102F2000022482E70023184604B0BDE8F08D082B88
:102F30000FD00346184604B0BDE8F08D9DF8070099
:102F400000F0300020288DF807007FF47CAF0227C6
:102F500081E704464FF0040867E703277BE700BFDB
:102F6000F86F000830B583B00C460DF1070201235D
:102F700020210546FFF7B2FC10B1002003B030BDA0
:102F80009DF807300DF1070203F00F031C4328469C
:102F9000012320218DF80740FFF752FCB0FA80F0A2
:102FA000400903B030BD00BF10B50A460C460123EE
:102FB0002021FFF793FC08B1002010BD23780120E9
:102FC00023F00F03237010BD30B583B00C460DF114
:102FD0000702012320210546FFF780FC10B10020E5
:102FE00003B030BD9DF807300DF1070223F0010357
:102FF0001C432846012320218DF80740FFF720FCC1
:10300000B0FA80F0400903B030BD00BF10B50A46E9
:103010000C4601232021FFF761FC08B1002010BD00
:10302000237801200340237010BD00BF30B583B06A
:103030000C460DF10702012320210546FFF74EFC47
:1030400010B1002003B030BD9DF807300DF107022C
:1030500023F002031C432846012320218DF807405A
:10306000FFF7EEFBB0FA80F0400903B030BD00BFBF
:1030700010B50A460C4601232021FFF72FFC08B1AA
:10308000002010BD2378012003F00203237010BD3F
:1030900030B583B00C460DF107020123202105460F
:1030A000FFF71CFC10B1002003B030BD9DF80730C5
:1030B0000DF1070223F004031C43284601232021BD
:1030C0008DF80740FFF7BCFBB0FA80F0400903B071
:1030D00030BD00BF10B50A460C4601232021FFF782
:1030E000FDFB08B1002010BD2378012003F004038C
:1030F000237010BD10B50A460C4601232021FFF7AE
:10310000EDFB08B1002010BD2378012003F0080377
:10311000237010BD10B50A460C4601232321FFF78A
:10312000DDFB08B1002010BD2378012003F0080367
:10313000237010BD10B50A460C4601232721FFF766
:10314000CDFB08B1002010BD23780120034023707F
:1031500010BD00BF30B583B00C460DF1070201234E
:103160002E210546FFF7BAFB10B1002003B030BD99
:103170009DF807300DF1070203F03F031C4328467A
:1031800001232E218DF80740FFF75AFBB0FA80F09B
:10319000400903B030BD00BF10B582B00C460DF140
:1031A0000701FFF7C7FF40B19DF8070040B10128B4
:1031B00003D12070002002B010BD012002B010BD6C
:1031C000207002B010BD00BF00B583B002AB03F8A1
:1031D000012D1A460123FFF785FDB0FA80F0400962
:1031E00003B05DF804FB00BF08B50123FFF782FDC3
:1031F000B0FA80F0400908BD30B583B00D460DF13E
:1032000005010446FFF702FF10B9012003B030BDED
:103210000DF106012046FFF72BFF0028F5D02046D0
:103220000DF10701FFF756FF0028EED09DF80510BD
:103230009DF806209DF80730A1F10101A2F10202DC
:10324000A3F10403B1FA81F1B2FA82F2B3FA83F383
:10325000490952095B0929706A70AB700020D5E7F3
:1032600038B50C4605464FF080412046FDF76EFA12
:1032700038B94FF081412046FDF768FA48B1102176
:1032800000E000212846FFF769FDB0FA80F0400910
:1032900038BD4FF082412046FDF758FA002814BF90
:1032A00020213021EEE700BF022908B50BD0042908
:1032B00002D011B1012008BD2021FFF74FFDB0FA67
:1032C00080F0400908BD1021FFF748FDB0FA80F0FA
:1032D000400908BD10B582B00C460DF10701FFF79B
:1032E0005FFD70B19DF80700102813D018D9202871
:1032F0000AD030281AD14FF083430020236002B057
:1033000010BD012002B010BD4FF0824300202360A9
:1033100002B010BD4FF081430020236002B010BD09
:1033200020B94FF08043236002B010BD024B012052
:10333000236002B010BD00BF000080BF10B582B096
:103340000C460DF10701FFF72FFEC0B19DF80700F5
:1033500030282AD00AD9502823D013D960281CD06D
:10336000702808D1164B0020236009E010280FD0E8
:10337000202821D0E8B1134B0120236000E0012078
:1033800002B010BD4028F6D10F4B00202360F7E7B4
:103390004FF07E5300202360F2E70C4B00202360A7
:1033A000EEE70B4B00202360EAE70A4B0020236086
:1033B000E6E700232360E3E7074B00202360DFE715
:1033C0000000C843000080BF00004842000048439E
:1033D0000000C8420000C84100002041F0B583B0A1
:1033E0000F460DF105010446FFF784FE10B90120D8
:1033F00003B0F0BD0DF106012046FFF78BFE00285B
:10340000F5D09DF80550C5B99DF806607EB3082E2D
:10341000EDD120460DF10701FFF7C2FC0028E6D0F0
:103420009DF80700102850D039D9202845D03028E1
:1034300031D12E4B00203B60DAE7082DD7D19DF823
:103440000650002DD3D120460DF10701FFF7A8FC4F
:103450000028CCD09DF80700102843D039D9202867
:103460003CD0302817D1224B00203B60C0E72046DB
:103470000DF10701FFF794FC0028B8D09DF8070074
:10348000102816D010D920281BD0302803D1194B72
:1034900030463B60ACE7184B01203B60A8E70028B2
:1034A000F9D1164B3B60A3E70028F4D1144B3B60E5
:1034B0009EE7144B30463B609AE7114B28463B6031
:1034C00096E7114B30463B6092E7104B28463B6035
:1034D0008EE70028DFD10C4B3B6089E70C4B284678
:1034E0003B6085E70B4B28463B6081E71F853B41EE
:1034F0007B943B439A993B42000080BF48E17A3F6E
:103500009A997940713DFA407B147A419A99F93F32
:103510007B147A427B14FA4170B584B00C460DF1ED
:1035200007010646FFF7F6FD10B9012004B070BD93
:103530000DF106013046FFF7DDFD0028F5D09DF8BE
:103540000630082B1AD0002BEFD19DF80730DBB9DD
:103550000625304602A9FFF733FC0028E5D0BDF967
:103560000810BDF90A20BDF90C3029412A412B4130
:10357000002021806280A38004B070BD9DF80720E8
:10358000002AD2D11D46E4E7082BCED10425E0E77E
:1035900010B584B00C4601A9FFF71CFC30B101A99D
:1035A00000200EC984E80E0004B010BD012004B054
:1035B00010BD00BF08B5FFF7A5FBB0FA80F04009C9
:1035C00008BD00BF10B582B002A9002301F8013D7B
:1035D0000446FFF797FB10B9012002B010BD237815
:1035E0009DF80700181A18BF012002B010BD00BFD7
:1035F00038B50C4609780546A1F10101B1FA81F10F
:103600004909FFF7E1FCA0B163782846012B0CBF04
:1036100002210021FFF70AFD58B1A3782846012BAB
:103620000CBF04210021FFF733FDB0FA80F0400900
:1036300038BD012038BD00BF38B583790546012B60
:103640000C4632D083684FF07E5120461D68FDF74E
:103650007DF808BB31492046FDF778F818B12F4BAB
:103660006B60002038BD2E492046FDF76FF8C0B9C9
:103670002C492046FDF76AF8002839D12A4920460E
:10368000FDF764F800283DD120462849FDF75EF893
:1036900000283DD1264BE3E74FF07E536B600020BE
:1036A00038BD1F4B00206B6038BD4FF07E51204667
:1036B000FDF74CF850BB19492046FDF747F8C8B94B
:1036C00017492046FDF742F8F0B916492046FDF7A4
:1036D0003DF8F8B914492046FDF738F8E0B9134928
:1036E0002046FDF733F8002814BF6021702102E066
:1036F0000C4BB5E720212846FFF734FCB0FA80F0E8
:10370000400938BD084BABE73021F4E71021F2E760
:10371000064BA5E74021EEE75021ECE700002041F1
:103720000000C841000048420000C8420000484371
:103730000000C84308B58379012B1DD083681B683E
:10374000042925D8DFE801F0070C10140300154AFE
:103750005A60002008BD4FF07E525A60002008BD1C
:10376000114A00205A6008BD104A00205A6008BD66
:103770000F4A00205A6008BD042909D8DFE801F08B
:10378000030A0C100E001021FFF7ECFB0028E0D11B
:10379000012008BD2021F7E73021F5E75021F3E7AC
:1037A0004021F1E70000C842000020410000C8416C
:1037B0000000484238B58379012B26D0836804463F
:1037C0001B684FF07E515D682846FCF7BFFF00BBC9
:1037D00017492846FCF7BAFF80B916492846FCF776
:1037E000B5FFC0B914492846FCF7B0FFA8B9134982
:1037F0002846FCF7ABFF90B1502100E02021204685
:10380000FFF7B0FB18B10123A371002038BD0120E0
:1038100038BD1021F3E73021F1E74021EFE70849F7
:103820002846FCF793FF002814BF60217021E6E7CB
:10383000000020410000C841000048420000C8428A
:103840000000484383790BB91846704730B5836848
:1038500083B00DF1070104461D68FFF7A5FBF0B129
:103860009DF80730302B32D012D9502B2CD01FD9D5
:10387000602B1AD0702B10D1164B6B6000212046A4
:10388000FFF770FB58B100231846A37103B030BD99
:10389000102B12D0202B05D09BB10F4B6B60012059
:1038A00003B030BD0D4B6B60E8E70D4B6B60E5E797
:1038B000402BF2D10B4B6B60E0E74FF07E536B6017
:1038C000DCE700236B60D9E7074B6B60D6E7074B5B
:1038D0006B60D3E70000C843000080BF00002041B8
:1038E00000004843000048420000C8420000C841B0
:1038F000F0B5826883B0166802AD0023376805F81A
:10390000013D29460446FFF7FDF910B9012003B037
:10391000F0BD22789DF807309A42F7D1A3793BB9E0
:1039200000231846002272603B70637103B0F0BD43
:10393000A368294620461D68FFF736FB0028E5D01E
:103940009DF80730302B29D011D9502B23D016D910
:10395000602B1DD0702B0FD1154B6B6000212046C2
:10396000FFF700FB0028D1D00023A371D8E7102B6C
:103970000AD0202B18D0A3B10E4B6B60C6E7402BAA
:10398000FAD10D4B6B60E9E74FF07E536B60E5E7D2
:103990000A4B6B60E2E70A4B6B60DFE7094B6B6039
:1039A000DCE700236B60D9E7074B6B60D6E700BF0D
:1039B0000000C843000080BF0000484200004843A8
:1039C0000000C8420000C84100002041F0B58368F3
:1039D00083B01E6802A90024376801F8014D05462E
:1039E000FFF790F920B12A789DF807309A4202D06B
:1039F000012003B0F0BD80212846FFF78DF9002893
:103A0000F6D021462846FFF7A5FB0028F0D0124B40
:103A1000214673602846FFF7A5FA0028E8D0214622
:103A20002846FFF79BF90028E2D001212846FFF73E
:103A3000CBFA0028DCD002212846FFF7F7FA00284D
:103A4000D6D004212846FFF723FB0028D0D001233D
:103A50003B7020466B71CCE70000C84208B5FEF70A
:103A60003DFFB0FA80F0400908BD00BF08B5FEF781
:103A7000E7FEB0FA80F0400908BD00BF08B50A466D
:103A800001230F21FEF72AFFB0FA80F0400908BD9C
:103A900030B583B00C460DF1070201231221054613
:103AA000FEF71CFF10B1002003B030BD9DF80730B9
:103AB0000DF1070223F040031C4328460123122185
:103AC0008DF80740FEF7BCFEB0FA80F0400903B065
:103AD00030BD00BF30B583B00C460DF107020123A5
:103AE00010210546FEF7FAFE10B1002003B030BDEC
:103AF0009DF807300DF1070223F00C031C43284604
:103B0000012310218DF80740FEF79AFEB0FA80F0ED
:103B1000400903B030BD00BF10B50A460C46012372
:103B20001021FEF7DBFE08B1002010BD2378012034
:103B300003F00C03237010BD2DE9F04180460F46C1
:103B400003260024A51CEDB204F128013A19C9B2DC
:103B500001234046FEF7C2FE0134E4B248B9A54253
:103B6000F2D1731E13F0FF062C46EBD10120BDE805
:103B7000F0810020BDE8F08130B583B00C460DF136
:103B80000702012310210546FEF7A8FE10B1002010
:103B900003B030BD9DF807300DF1070203F00F03AD
:103BA0001C432846012310218DF80740FEF748FEEC
:103BB000B0FA80F0400903B030BD00BF10B50A462E
:103BC0000C4601231021FEF789FE08B1002010BD2C
:103BD0002378012023F00F03237010BD30B583B08C
:103BE0000C460DF10702012311210546FEF776FE72
:103BF00010B1002003B030BD9DF807300DF1070271
:103C000023F00C031C432846012311218DF80740A3
:103C1000FEF716FEB0FA80F0400903B030BD00BFD9
:103C200010B50A460C4601231121FEF757FE08B1D4
:103C3000002010BD2378012003F00C03237010BD79
:103C40002DE9F04180460F4603260024A51CEDB265
:103C500004F122013A19C9B201234046FEF73EFEA3
:103C60000134E4B248B9A542F2D1731E13F0FF0645
:103C70002C46EBD10120BDE8F0810020BDE8F081A9
:103C800030B583B00C460DF1070201231121054622
:103C9000FEF724FE10B1002003B030BD9DF80730C0
:103CA0000DF1070203F00F031C43284601231121E5
:103CB0008DF80740FEF7C4FDB0FA80F0400903B06C
:103CC00030BD00BF10B50A460C4601231121FEF796
:103CD00005FE08B1002010BD2378012023F00F035A
:103CE000237010BD30B583B00C460DF107020123DF
:103CF00011210546FEF7F2FD10B1002003B030BDE2
:103D00009DF807300DF1070223F002031C432846FB
:103D1000012311218DF80740FEF792FDB0FA80F0E3
:103D2000400903B030BD00BF10B50A460C46012360
:103D30001121FEF7D3FD08B1002010BD237801202A
:103D400003F00203237010BD30B583B00C460DF1B3
:103D50000702012306210546FEF7C0FD48B90123ED
:103D60000DF10702062128468DF80740FEF768FD91
:103D700010B1002003B030BD01230DF1070207216F
:103D80002846FEF7ABFD0028F3D19DF80730C4F3B9
:103D9000022423F007031C430DF1070228460123E8
:103DA00007218DF80740FEF74BFDB0FA80F040097F
:103DB000E0E700BF30B583B00C460DF107020123E8
:103DC00008210546FEF78AFD10B1002003B030BD82
:103DD0009DF807300DF1070223F007031C43284626
:103DE000012308218DF80740FEF72AFDB0FA80F084
:103DF000400903B030BD00BF30B583B00C460DF1B3
:103E00000702012308210546FEF768FD10B10020D6
:103E100003B030BD9DF807300DF1070223F03803E1
:103E20001C432846012308218DF80740FEF708FDB2
:103E3000B0FA80F0400903B030BD00BF30B583B0A8
:103E40000C460DF10702012309210546FEF746FD48
:103E500010B1002003B030BD9DF807300DF107020E
:103E600003F07F031C432846012309218DF80740F6
:103E7000FEF7E6FCB0FA80F0400903B030BD00BFA9
:103E800030B583B00C460DF1070201230A21054627
:103E9000FEF724FD10B1002003B030BD9DF80730BF
:103EA0000DF1070223F007031C43284601230A21D2
:103EB0008DF80740FEF7C4FCB0FA80F0400903B06B
:103EC00030BD00BF30B583B00C460DF107020123B1
:103ED0000A210546FEF702FD10B1002003B030BDF7
:103EE0009DF807300DF1070223F078031C432846A4
:103EF00001230A218DF80740FEF7A2FCB0FA80F0FA
:103F0000400903B030BD00BF30B583B00C460DF1A1
:103F1000070201230D210546FEF7E0FC10B1002049
:103F200003B030BD9DF807300DF1070223F02003E8
:103F30001C43284601230D218DF80740FEF780FC25
:103F4000B0FA80F0400903B030BD00BF30B583B097
:103F50000C460DF1070201230D210546FEF7BEFCBC
:103F600010B1002003B030BD9DF807300DF10702FD
:103F700003F07F031C43284601230D218DF80740E1
:103F8000FEF75EFCB0FA80F0400903B030BD00BF20
:103F900030B583B00C460DF107020123122105460E
:103FA000FEF79CFC10B1002003B030BD9DF8073037
:103FB0000DF1070223F004031C43284601231221BC
:103FC0008DF80740FEF73CFCB0FA80F0400903B0E2
:103FD00030BD00BF30B583B00C460DF107020123A0
:103FE00014210546FEF77AFC10B1002003B030BD65
:103FF0009DF807300DF1070223F003031C43284608
:10400000012314218DF80740FEF71AFCB0FA80F066
:10401000400903B030BD00BF30B583B00C460DF190
:104020000702012314210546FEF758FC10B10020B9
:1040300003B030BD9DF807300DF1070223F00C03EB
:104040001C432846012314218DF80740FEF7F8FB96
:10405000B0FA80F0400903B030BD00BF30B583B086
:104060000C460DF10702012319210546FEF736FC27
:1040700010B1002003B030BD9DF807300DF10702EC
:1040800023F002031C432846012319218DF8074021
:10409000FEF7D6FBB0FA80F0400903B030BD00BF98
:1040A00030B583B00C460DF10702012319210546F6
:1040B000FEF714FC10B1002003B030BD9DF80730AE
:1040C0000DF1070223F008031C43284601231921A0
:1040D0008DF80740FEF7B4FBB0FA80F0400903B05A
:1040E00030BD00BF30B583B00C460DF1070201238F
:1040F00019210546FEF7F2FB10B1002003B030BDD8
:104100009DF807300DF1070223F010031C432846E9
:10411000012319218DF80740FEF792FBB0FA80F0D9
:10412000400903B030BD00BF30B583B00C460DF17F
:104130000702012319210546FEF7D0FB10B100202C
:1041400003B030BD9DF807300DF1070223F00403E2
:104150001C432846012319218DF80740FEF770FB08
:10416000B0FA80F0400903B030BD00BF10B50A4678
:104170000C4601231B21FEF7B1FB08B1002010BD46
:104180002378012003F00803237010BD10B50A4600
:104190000C4601231B21FEF7A1FB08B1002010BD36
:1041A0002378012003F02003237010BD10B50A46C8
:1041B0000C4601231C21FEF791FB08B1002010BD25
:1041C0002378012003F01003237010BD10B50A46B8
:1041D0000C4601231C21FEF781FB08B1002010BD15
:1041E0002378012003F02003237010BD10B50A4688
:1041F0000C4601231D21FEF771FB08B1002010BD04
:10420000237801200340237010BD00BF10B50A467B
:104210000C4601231D21FEF761FB08B1002010BDF3
:104220002378012003F00203237010BD10B50A4665
:104230000C4601231D21FEF751FB08B1002010BDE3
:104240002378012003F00403237010BD10B50A4643
:104250000C4601231D21FEF741FB08B1002010BDD3
:104260002378012003F00803237010BD10B50A461F
:104270000C4601231D21FEF731FB08B1002010BDC3
:104280002378012003F01003237010BD10B50A46F7
:104290000C4601231D21FEF721FB08B1002010BDB3
:1042A0002378012003F02003237010BD10B50A46C7
:1042B0000C4601231D21FEF711FB08B1002010BDA3
:1042C0002378012003F04003237010BD10B50A4687
:1042D0000C4601231E21FEF701FB08B1002010BD92
:1042E000237801200340237010BD00BF10B50A469B
:1042F0000C4601231E21FEF7F1FA08B1002010BD83
:104300002378012003F00203237010BD30B583B081
:104310000D4601230DF107023A210446FEF7DEFAAD
:1043200038B9204601230DF106023B21FEF7D6FAEB
:1043300010B1002003B030BD9DF806309DF8072075
:1043400003F00F0342EA032301202B8003B030BDAA
:1043500010B50A460C4601233B21FEF7BFFA08B10F
:10436000002010BD2378012003F01003237010BD3E
:1043700010B50A460C4601233B21FEF7AFFA08B1FF
:10438000002010BD2378012003F02003237010BD0E
:1043900010B50A460C4601233B21FEF79FFA08B1EF
:1043A000002010BD2378012003F04003237010BDCE
:1043B00030B583B00D4601230DF107023C210446C0
:1043C000FEF78CFA38B9204601230DF106023D2193
:1043D000FEF784FA10B1002003B030BD9DF806301E
:1043E0009DF8072003F0030342EA032301202B80FA
:1043F00003B030BD10B50A460C4601235321FEF729
:104400006DFA08B1002010BD2378012003F01003DD
:10441000237010BD10B50A460C4601235321FEF748
:104420005DFA08B1002010BD2378012003F02003BD
:10443000237010BD30B583B00C460DF10702012387
:1044400058210546FEF74AFA10B1002003B030BDEE
:104450009DF807300DF1070223F001031C432846A5
:10446000012358218DF80740FEF7EAF9B0FA80F0F1
:10447000400903B030BD00BF30B583B00C460DF12C
:104480000702012358210546FEF728FA10B1002043
:1044900003B030BD9DF807300DF1070223F0020391
:1044A0001C432846012358218DF80740FEF7C8F920
:1044B000B0FA80F0400903B030BD00BF30B583B022
:1044C0000C460DF10702012358210546FEF706FAB6
:1044D00010B1002003B030BD9DF807300DF1070288
:1044E00023F004031C432846012358218DF807407C
:1044F000FEF7A6F9B0FA80F0400903B030BD00BF66
:1045000030B583B00C460DF1070201235821054652
:10451000FEF7E4F910B1002003B030BD9DF807307C
:104520000DF1070223F008031C43284601235821FC
:104530008DF80740FEF784F9B0FA80F0400903B027
:1045400030BD00BF30B583B00C460DF1070201232A
:1045500058210546FEF7C2F910B1002003B030BD66
:104560009DF807300DF1070203F07F031C43284636
:10457000012358218DF80740FEF762F9B0FA80F068
:10458000400903B030BD00BF30B583B00C460DF11B
:104590000702012359210546FEF7A0F910B10020BA
:1045A00003B030BD9DF8073004F01F0423F01F0353
:1045B0001C430DF107022846012359218DF80740BD
:1045C000FEF73EF9B0FA80F0400903B030BD00BFFD
:1045D00030B583B00C460DF1070201235921054681
:1045E000FEF77CF910B1002003B030BD9DF8073014
:1045F0000DF1070223F060031C43284601235921D3
:104600008DF80740FEF71CF9B0FA80F0400903B0BE
:1046100030BD00BF30B583B00C460DF10702012359
:104620005A210546FEF75AF910B1002003B030BDFB
:104630009DF8073004F0030423F003031C430DF13D
:104640000702284601235A218DF80740FEF7F8F8A3
:10465000B0FA80F0400903B030BD00BF30B583B080
:104660000C460DF1070201235A210546FEF736F9E3
:1046700010B1002003B030BD9DF80720A40004F065
:104680000C0322F00C041C430DF107022846012301
:104690005A218DF80740FEF7D3F8B0FA80F04009B0
:1046A00003B030BD30B583B00C460DF107020123D5
:1046B0005A210546FEF712F910B1002003B030BDB3
:1046C0009DF807300DF1070203F00F0343EA0414CD
:1046D000284601235A218DF80740FEF7B1F8B0FAB9
:1046E00080F0400903B030BD30B583B00C460DF109
:1046F000070201235B210546FEF7F0F810B1002008
:1047000003B030BD9DF8073004F03F0423F03F03B1
:104710001C430DF10702284601235B218DF8074059
:10472000FEF78EF8B0FA80F0400903B030BD00BF4C
:1047300030B583B00C460DF1070201235B2105461D
:10474000FEF7CCF810B1002003B030BD9DF8073063
:104750000DF1070203F07F031C43284601235B2170
:104760008DF80740FEF76CF8B0FA80F0400903B00E
:1047700030BD00BF30B583B00C460DF107020123F8
:104780005C210546FEF7AAF810B1002003B030BD49
:104790009DF8073004F00F0423F00F031C430DF1C4
:1047A0000702284601235C218DF80740FEF748F8F0
:1047B000B0FA80F0400903B030BD00BF30B583B01F
:1047C0000C460DF1070201235C210546FEF786F831
:1047D00010B1002003B030BD9DF807300DF1070285
:1047E00023F010031C43284601235C218DF8074069
:1047F000FEF726F8B0FA80F0400903B030BD00BFE4
:1048000030B583B00C460DF1070201235C2105464B
:10481000FEF764F810B1002003B030BD9DF807200A
:10482000640104F0600322F060041C430DF10702F0
:10483000284601235C218DF80740FEF701F8B0FA05
:1048400080F0400903B030BD30B583B00C460DF1A7
:10485000070201235D210546FEF740F810B1002054
:1048600003B030BD9DF807300DF1070223F00703B8
:104870001C43284601235D218DF80740FDF7E0FF2A
:10488000B0FA80F0400903B030BD00BF70B582B00F
:104890000E460DF1070201235D210546FEF71EF8C5
:1048A00078B99DF80740012304F0070444EAC604E0
:1048B0000DF107025D2128468DF80740FDF7C0FF86
:1048C00010B1002002B070BD01230DF107025C2180
:1048D0002846FEF703F80028F3D19DF80730760943
:1048E00003F07F0343EAC6160DF1070228460123B1
:1048F0005C218DF80760FDF7A3FFB0FA80F0400956
:10490000E0E700BF30B583B00C460DF1070201238C
:104910005E210546FDF7E2FF10B1002003B030BD77
:104920009DF807300DF1070223F002031C432846CF
:1049300001235E218DF80740FDF782FFB0FA80F079
:10494000400903B030BD00BF30B583B00C460DF157
:10495000070201235E210546FDF7C0FF10B10020CC
:1049600003B030BD9DF807300DF1070223F00403BA
:104970001C43284601235E218DF80740FDF760FFA8
:10498000B0FA80F0400903B030BD00BF30B583B04D
:104990000C460DF1070201235E210546FDF79EFF3F
:1049A00010B1002003B030BD9DF807300DF10702B3
:1049B00023F008031C43284601235E218DF807409D
:1049C000FDF73EFFB0FA80F0400903B030BD00BFF4
:1049D00030B583B00C460DF1070201235E21054678
:1049E000FDF77CFF10B1002003B030BD9DF807300B
:1049F0000DF1070223F010031C43284601235E211A
:104A00008DF80740FDF71CFFB0FA80F0400903B0B5
:104A100030BD00BF30B583B00C460DF10702012355
:104A20005E210546FDF75AFF10B1002003B030BDEE
:104A30009DF807300DF1070223F020031C432846A0
:104A400001235E218DF80740FDF7FAFEB0FA80F0F1
:104A5000400903B030BD00BF30B583B00C460DF146
:104A6000070201235E210546FDF738FF10B1002043
:104A700003B030BD9DF807300DF1070223F040036D
:104A80001C43284601235E218DF80740FDF7D8FE20
:104A9000B0FA80F0400903B030BD00BF30B583B03C
:104AA0000C460DF1070201235F210546FDF716FFB5
:104AB00010B1002003B030BD9DF807300DF10702A2
:104AC00023F002031C43284601235F218DF8074091
:104AD000FDF7B6FEB0FA80F0400903B030BD00BF6C
:104AE00030B583B00C460DF1070201235F21054666
:104AF000FDF7F4FE10B1002003B030BD9DF8073083
:104B00000DF1070223F004031C43284601235F2113
:104B10008DF80740FDF794FEB0FA80F0400903B02D
:104B200030BD00BF30B583B00C460DF10702012344
:104B30005F210546FDF7D2FE10B1002003B030BD65
:104B40009DF807300DF1070223F008031C432846A7
:104B500001235F218DF80740FDF772FEB0FA80F067
:104B6000400903B030BD00BF30B583B00C460DF135
:104B7000070201235F210546FDF7B0FE10B10020BA
:104B800003B030BD9DF807300DF1070223F010038C
:104B90001C43284601235F218DF80740FDF750FE96
:104BA000B0FA80F0400903B030BD00BF30B583B02B
:104BB0000C460DF1070201235F210546FDF78EFE2D
:104BC00010B1002003B030BD9DF807300DF1070291
:104BD00023F020031C43284601235F218DF8074062
:104BE000FDF72EFEB0FA80F0400903B030BD00BFE3
:104BF00030B583B00C460DF1070201235F21054655
:104C0000FDF76CFE10B1002003B030BD9DF80730F9
:104C10000DF1070223F040031C43284601235F21C6
:104C20008DF80740FDF70CFEB0FA80F0400903B0A4
:104C300030BD00BF38B50A460C4601233E2105466B
:104C4000FDF74CFE48B9621C284601233F21FDF7C1
:104C500045FEB0FA80F0400938BD002038BD00BFE5
:104C600038B50A460C4601234B210546FDF736FEB2
:104C700048B9621C284601234C21FDF72FFEB0FAEB
:104C800080F0400938BD002038BD00BF70B5012359
:104C900082B00C460DF1070219460546FDF71EFECF
:104CA00060B99DF80760012366F07F0619460DF193
:104CB000070228468DF80760FDF7C2FD0DF10602D8
:104CC00001230F212846FDF709FE9DF8063004F068
:104CD0001F0423F01F030DF106021C430F210123C3
:104CE00028468DF80640FDF7ABFD012319460DF16E
:104CF00007022846FDF7F2FD60B99DF80740012341
:104D000004F07F040DF10702284619468DF807408C
:104D1000FDF796FD012002B070BD00BF08B5FFF79A
:104D200013F8B0FA80F0400908BD00BF10B582B09A
:104D30000C460DF10701FEF7EFFE60B19DF807305C
:104D40000C2B1FD8DFE803F00F1E1E1E141E1E1EA4
:104D5000191E1E1E0A00012002B010BD0C4B0020BF
:104D6000236002B010BD0B4B0020236002B010BDC9
:104D7000094B0020236002B010BD084B00202360C7
:104D800002B010BD064B0120236002B010BD00BF71
:104D900023DB793E23DB793D23DBF93E23DBF93D41
:104DA000000080BF10B582B00C460DF10701FEF780
:104DB000B3FE60B19DF807300C2B23D8DFE803F079
:104DC00010222222162222221C2222220A00012044
:104DD00002B010BD4FF082430020236002B010BD2E
:104DE0004FF080430020236002B010BD4FF083439A
:104DF0000020236002B010BD4FF0814300202360EB
:104E000002B010BD024B0120236002B010BD00BFF4
:104E1000000080BF08B5FFF779FAB0FA80F04009CA
:104E200008BD00BF08B5FFF705FFB0FA80F04009E4
:104E300008BD00BF08B5FFF7BBFAB0FA80F0400923
:104E400008BD00BF10B582B00C460DF10701FFF799
:104E50009FFA48B19DF8070048B1402804D10123CA
:104E60000020237002B010BD012002B010BD2070E0
:104E700002B010BD10B582B00C460DF10701FFF76E
:104E800067FA48B19DF8070048B1102804D1012302
:104E90000020237002B010BD012002B010BD2070B0
:104EA00002B010BD10B582B00C460DF10701FFF73E
:104EB0005FFA48B19DF8070048B1202804D10123CA
:104EC0000020237002B010BD012002B010BD207080
:104ED00002B010BD38B50C46054623492046FBF705
:104EE00035FC30B921492046FBF730FC48B1102190
:104EF00000E008212846FEF7E5FFB0FA80F04009FF
:104F000038BD1B492046FBF721FC08BB1949204648
:104F1000FBF71CFCF0B918492046FBF717FCD8B981
:104F200016492046FBF712FCC0B915492046FBF78D
:104F30000DFCA8B913492046FBF708FC90B91249AB
:104F40002046FBF703FC002814BF48215021D1E77D
:104F50001821CFE72021CDE72821CBE73021C9E771
:104F60003821C7E74021C5E7000020410000C841C3
:104F7000000048420000C842000048430000C84307
:104F8000000048440000C84400404E4530B50123AD
:104F900083B000240C600D460DEB03021B218DF83D
:104FA00001408DF802408DF803408DF804408DF8E3
:104FB00005408DF806408DF807400446FEF74EFD8B
:104FC000002800F0998001230DF102021C212046E7
:104FD000FEF744FD002800F08F8001230DF103024D
:104FE0001D212046FEF73AFD002800F085800123B0
:104FF00001AA53212046FEF731FD00287CD0012371
:105000000DF105025E212046FEF728FD002873D031
:1050100001230DF106025F212046FEF71FFD002847
:105020006AD0204601230DF107020D21FEF716FD7F
:10503000002861D09DF80530DC0603D49DF80620D9
:10504000D00607D59DF80120910603D52A7842F0B5
:1050500001022A709A0603D49DF80620940607D50B
:105060009DF80120100703D52A7842F008022A7023
:10507000590603D49DF80620520607D59DF8022054
:10508000940603D52A7842F002022A70180703D446
:105090009DF80620110707D59DF80220D20603D5FA
:1050A0002A7842F004022A705C0703D49DF8062097
:1050B000500707D59DF80320510603D52A7842F002
:1050C00040022A709DF90720002A18DB9B0706D4AE
:1050D0009DF8063003F0020303F0FF006BB19DF86A
:1050E000043003F0200303F0FF0033B12B780020DD
:1050F00043F020032B7000E0012003B030BD9DF889
:105100000420D206E2D52A7842F010022A70DDE7A8
:1051100008B50123FEF7A2FCB0FA80F0400908BDF3
:1051200010B582B00C460DF10701FFF7AFF848B19A
:105130009DF8070048B1202804D1012300202370E6
:1051400002B010BD012002B010BD207002B010BD31
:1051500010B582B00C460DF10701FFF787F848B192
:105160009DF8070048B1102804D1012300202370C6
:1051700002B010BD012002B010BD207002B010BD01
:1051800010B582B00C460DF10701FFF75FF848B18A
:105190009DF8070048B1082804D10123002023709E
:1051A00002B010BD012002B010BD207002B010BDD1
:1051B00010B582B00C460DF10701FFF737F848B182
:1051C0009DF8070048B1042804D101230020237072
:1051D00002B010BD012002B010BD207002B010BDA1
:1051E00010B582B00C460DF10701FFF70FF848B17A
:1051F0009DF8070048B1022804D101230020237044
:1052000002B010BD012002B010BD207002B010BD70
:1052100010B582B00C460DF10701FEF7E7FF40B173
:105220009DF8070040B1012803D12070002002B092
:1052300010BD012002B010BD207002B010BD00BF33
:1052400010B582B00C460DF10701FFF72FF848B1F9
:105250009DF8070048B1402804D1012300202370A5
:1052600002B010BD012002B010BD207002B010BD10
:1052700038B50C4605464FF080412046FBF766FAEC
:1052800038B94FF081412046FBF760FA48B1082158
:1052900000E000212846FEF71DFCB0FA80F040092E
:1052A00038BD4FF082412046FBF750FA002814BF6A
:1052B0000C210421EEE700BF022908B50BD0042918
:1052C00002D011B1012008BD0C21FEF703FCB0FA99
:1052D00080F0400908BD0821FEF7FCFBB0FA80F021
:1052E000400908BD08B5FFF7DDF9B0FA80F04009C4
:1052F00008BD00BF08B5FFF7B1F9B0FA80F040096A
:1053000008BD00BF08B5FFF785F9B0FA80F0400985
:1053100008BD00BF08B5FFF737F9B0FA80F04009C3
:1053200008BD00BF10B582B00C460DF10701FEF7B5
:105330003DFF48B19DF8070048B1102804D1012372
:105340000020237002B010BD012002B010BD2070FB
:1053500002B010BD10B582B00C460DF10701FEF78A
:1053600035FF48B19DF8070048B1202804D101233A
:105370000020237002B010BD012002B010BD2070CB
:1053800002B010BD08B5FFF7AFF9B0FA80F04009E0
:1053900008BD00BF10B582B00C460DF10701FEF745
:1053A000E5FE48B19DF8070048B1082804D1012363
:1053B0000020237002B010BD012002B010BD20708B
:1053C00002B010BD10B582B00C460DF10701FFF719
:1053D00021F848B19DF8070048B1202804D10123E5
:1053E0000020237002B010BD012002B010BD20705B
:1053F00002B010BD08B5FFF749FCB0FA80F04009D3
:1054000008BD00BF08B50021FEF728FEB0FA80F005
:10541000400908BD08B50221FEF720FEB0FA80F071
:10542000400908BD08B5FFF71BFCB0FA80F0400941
:1054300008BD00BF10B582B00C460DF10701FEF7A4
:10544000D9FF48B19DF8070048B1102804D10123C5
:105450000020237002B010BD012002B010BD2070EA
:1054600002B010BD08B5FFF7EFF9B0FA80F04009BF
:1054700008BD00BF10B582B00C460DF10701FEF764
:1054800085FE48B19DF8070048B1202804D10123CA
:105490000020237002B010BD012002B010BD2070AA
:1054A00002B010BD30B583B00D460DF107010446C2
:1054B000FEF73AFC10B9012003B030BD20460DF1D3
:1054C0000601FEF7ADFB0028F5D09DF80730022B52
:1054D0000CD09DF806300C2B1CD8DFE803F0171B0E
:1054E0001B1B131B1B1B0F1B1B1B0B000B4B002041
:1054F0002B60E1E70A4B00202B60DDE7094B002021
:105500002B60D9E7084B00202B60D5E7074B002024
:105510002B60D1E7064B01202B60CDE70000FA425B
:105520000000FA4400007A440000FA43000075438A
:10553000000080BF10B582B00C460DF10701FEF7E8
:10554000C5FE40B19DF8070040B1012803D120708D
:10555000002002B010BD012002B010BD207002B0CA
:1055600010BD00BF00B583B002AB03F8012D1A4691
:105570000123FEF77BFAB0FA80F0400903B05DF832
:1055800004FB00BF10B582B00C460DF10701FEF719
:1055900015FBD0B19DF80700502837D00AD8202835
:1055A00025D015D9302835D0402828D11F4B0020D0
:1055B00023600BE0802831D011D990281BD0A0287F
:1055C0001DD11B4B0020236000E0012002B010BD64
:1055D000C8B1102813D1174B00202360F6E76028CC
:1055E00020D070280BD1144B00202360EEE7134B22
:1055F00000202360EAE7124B00202360E6E7114B0E
:1056000001202360E2E700232360DFE70E4B002048
:105610002360DBE70D4B00202360D7E70C4B002015
:105620002360D3E70B4B00202360CFE70000D0427C
:105630000020D04500005041004050440000D041BF
:1056400000205045000080BF000050430000504241
:105650000080CF440000D04308B5FEF70FFAB0FA3F
:1056600080F0400908BD00BF10B582B00C460DF1B6
:105670000701FEF73BFE48B19DF8070048B102283C
:1056800004D101230020237002B010BD012002B01C
:1056900010BD207002B010BD022908B50BD004293E
:1056A00002D011B1012008BD0C21FEF797FAB0FA23
:1056B00080F0400908BD0421FEF790FAB0FA80F0AE
:1056C000400908BD10B582B00C460DF10701FEF788
:1056D000F9FAD0B19DF80700502837D00AD8202811
:1056E00025D015D9302835D0402828D11F4B00208F
:1056F00023600BE0802831D011D990281BD0A0283E
:105700001DD11B4B0020236000E0012002B010BD22
:10571000C8B1102813D1174B00202360F6E760288A
:1057200020D070280BD1144B00202360EEE7134BE0
:1057300000202360EAE7124B00202360E6E7114BCC
:1057400001202360E2E700232360DFE70E4B002007
:105750002360DBE70D4B00202360D7E70C4B0020D4
:105760002360D3E70B4B00202360CFE70000D0423B
:105770000020D04500005041004050440000D0417E
:1057800000205045000080BF000050430000504200
:105790000080CF440000D043032901D90120704785
:1057A00008B5FEF717FCB0FA80F0400908BD00BF4D
:1057B000012901D90120704708B5FEF73BFEB0FA78
:1057C00080F0400908BD00BF08B519B1802901D09B
:1057D000012008BDFEF732FBB0FA80F0400908BD99
:1057E00008B519B1202901D0012008BDFEF78CFBB6
:1057F000B0FA80F0400908BD062908D808B5012391
:1058000003FA01F212F05B0F03D1184608BD012024
:105810007047FEF735FBB0FA80F0400908BD00BFC5
:10582000072901D90120704708B5FEF7C3FAB0FA7D
:1058300080F0400908BD00BF10B500210446FFF705
:1058400083F808B9012010BD00212046FFF748F970
:105850000028F7D000212046FEF774FE0028F1D082
:1058600020460021FEF7B4FEB0FA80F0400910BDDA
:1058700008B58379012B18D083681B68042920D8C8
:10588000DFE801F003030B0F0700124A5A60002003
:1058900008BD114A00205A6008BD104A00205A6015
:1058A00008BD0F4A00205A6008BD042909D8DFE866
:1058B00001F003030C0A0E001021FEF75DF9002829
:1058C000E5D1012008BD3021F7E72021F5E740218F
:1058D000F3E700BF000050410000D0420000D0417B
:1058E0000000504210B500210446FFF74FF808B9F8
:1058F000012010BD00212046FFF714F90028F7D041
:1059000000212046FEF71EFE0028F1D0002120468F
:10591000FEF73AFE0028EBD000212046FEF77AFE83
:105920000028E5D000212046FEF798FE0028DFD0B1
:1059300000212046FEF7B6FE0028D9D000212046DF
:10594000FEF7F6FE0028D3D000212046FEF794FD96
:105950000028CDD000212046FEF7B0FD0028C7D09A
:1059600020460021FEF7CCFDB0FA80F0400910BDC2
:1059700010B500210446FFF76FF808B9012010BDEB
:1059800000212046FFF734F90028F7D000212046F7
:10599000FEF7D8FD0028F1D000212046FEF7F4FDE7
:1059A0000028EBD000212046FEF734FE0028E5D089
:1059B00000212046FEF752FE0028DFD000212046BD
:1059C000FEF75AFD0028D9D000212046FEF776FDCB
:1059D0000028D3D020460021FEF792FDB0FA80F0D7
:1059E000400910BD10B500210446FFF713F808B9AF
:1059F000012010BD00212046FFF7D8F80028F7D07D
:105A000000212046FEF79EFD0028F1D0002120460F
:105A1000FEF7F6FE0028EBD020460021FEF764FEDC
:105A2000B0FA80F0400910BD10B500210446FEF721
:105A300069FF08B9012010BD00212046FFF72EF8AC
:105A40000028F7D000212046FEF72AFB0028F1D0DD
:105A500020460021FEF768FBB0FA80F0400910BD37
:105A600010B500210446FEF771FA08B9012010BDF7
:105A700000212046FEF736FB0028F7D00021204603
:105A8000FEF752FB0028F1D020460021FFF7FEF878
:105A9000B0FA80F0400910BD10B500210446FEF7B1
:105AA00097FF08B9012010BD00212046FFF75CF8E0
:105AB0000028F7D000212046FEF744FD0028F1D051
:105AC00000212046FEF7E2FE0028EBD02046002110
:105AD000FEF7BAFEB0FA80F0400910BD0C2909D8D3
