:020000040000FA
:10600000E82A0020556100006F6100007161000006
:106010000000000000000000000000000000000080
:10602000000000000000000000000000736100009C
:1060300000000000000000007561000077610000B2
:106040007961000081660000796100002967000025
:106050007961000000000000ED630000796100003C
:1060600079610000796100007961000079610000C8
:1060700079610000796100007961000079610000B8
:10608000796100000167000079610000796100001A
:106090005D670000796100007961000079610000AE
:1060A000796100007961000000000000000000003C
:1060B00000000000000000000000000000000000E0
:1060C0000348854600F054F900480047A9750000D0
:1060D000E82A0020401E00BF00BF00BF00BF00BF75
:1060E00000BF00BF00BF00BF00BF00BF00BFF1D1B5
:1060F00070470000401E00BF00BF00BF00BF00BFD0
:1061000000BF00BF00BF00BF00BF00BF00BFF1D194
:1061100070470000401E00BF00BF00BF00BF00BFAF
:1061200000BF00BF00BF00BF00BF00BF00BFF1D174
:1061300070470000401E00BF00BF00BF00BF00BF8F
:1061400000BF00BF00BF00BF00BF00BF00BFF1D154
:10615000704700000321094802680A4302600848AA
:1061600002680A4302600748804707480047FEE785
:10617000FEE7FEE7FEE7FEE7FEE70000240500403D
:106180005405004065670000C160000030B50B4653
:10619000014600202022012409E00D46D5409D4201
:1061A00005D31D469540491B254695404019154687
:1061B000521E002DF1DC30BD03460B439B0703D07C
:1061C00009E008C9121F08C0042AFAD203E00B78BC
:1061D0000370401C491C521EF9D27047D2B201E034
:1061E0000270401C491EFBD270470022F6E710B532
:1061F00013460A4604461946FFF7F0FF204610BD35
:106200000321001D401E037812021A43491EF9D5CE
:106210001046704770B502464A40D50F40004A000C
:10622000ED0740085208002814D0002A12D0C40DEF
:10623000D30D41020120C0055202490A520AE41A54
:10624000091812187D34914201D3641C00E0490002
:10625000002C01DA002070BD0023914201D3891A7D
:106260000343400849000028F7D100290AD0914291
:1062700002D10121C90705E0914201D2012101E0CB
:106280000121C943E005C018401900F02FF870BD86
:10629000C217C10F504010B54018CA0796230021FD
:1062A00000F02CF810BDC20F410040020123400A4B
:1062B000DB05D207090EC0187F2901DA00207047DC
:1062C000962903DC9623591AC84001E09639884084
:1062D000002AF4D0404270470122D207002800DB98
:1062E000101A002900DB511A81427047002904DA94
:1062F000401C490001D140084000704770B40024A0
:10630000050C05D11024000402D1002921D011244C
:10631000050E01D100020834050F01D10001241D32
:10632000850F01D18000A41C002801DB4000641C03
:10633000002908D020252E1B0D46F540A14000D095
:1063400001212943084301061B1B000ADB1D02D55E
:10635000002070BC7047DB05181880180029F8DA97
:10636000401C4900F5D170BC400840007047000057
:10637000064C0125064E05E0E36807CC2B430C3C98
:1063800098471034B442F7D3FFF79EFEE0A1000017
:1063900000A2000070B58C180578401C6B075B0FDD
:1063A00001D10378401C2A1106D10278401C03E079
:1063B00006780E70401C491C5B1EF9D12B0705D4D2
:1063C0000023521E0DD40B70491CFAE70378401CC1
:1063D000CB1A921C03E01D780D70491C5B1C521EE9
:1063E000F9D5A142D8D3002070BD0000F0B585B02A
:1063F0002648056900202649C86300263FE014208E
:1064000070432449096844180120B04022490968B2
:106410000840002831D0E068C04368402168084047
:1064200007463946204602F0C9FA18480069684014
:106430000390039800280ED003980543E068C043FA
:1064400068402168084000902046009902F0B6FAA2
:106450000098074300BFA068A843384001906068D7
:10646000284038400290019902980843002803D040
:10647000226901990298904700BF701CC6B2074874
:1064800000788642BBDB05B0F0BD0000000500507F
:10649000406100402805002020050020250500203F
:1064A000C206D20E01219140014A116070470000DE
:1064B00080E200E0C206D20E01219140014A116043
:1064C0007047000080E200E0C206D20E0121914038
:1064D000014A11607047000080E100E0C206D20E60
:1064E00001219140014A11607047000000E100E085
:1064F000C206D20E01219140014A1160704700008E
:1065000000E100E0C206D20E01219140014A116073
:106510007047000000E200E010B5002819DA1A4ABE
:1065200003071B0F083B9B089B00D2588307DC0E18
:10653000FF23A3409A438B071B0E8407E40EA3405E
:106540001A43114B0407240F083CA408A4001A5155
:1065500018E00E4A03231B02D21883089B00D2586E
:106560008307DC0EFF23A3409A438B071B0E84078F
:10657000E40EA3401A43054B032424021B1984088C
:10658000A4001A5110BD00001CED00E000E100E085
:1065900010B5002819DA1A4A03071B0F083B9B089D
:1065A0009B00D2588307DC0EFF23A3409A438B073E
:1065B0001B0E8407E40EA3401A43114B0407240F5B
:1065C000083CA408A4001A5118E00E4A03231B0239
:1065D000D21883089B00D2588307DC0EFF23A34008
:1065E0009A438B071B0E8407E40EA3401A43054B06
:1065F000032424021B198408A4001A5110BD0000B2
:106600001CED00E000E100E010B5002819DA1A4A9C
:1066100003071B0F083B9B089B00D2588307DC0E27
:10662000FF23A3409A438B071B0E8407E40EA3406D
:106630001A43114B0407240F083CA408A4001A5164
:1066400018E00E4A03231B02D21883089B00D2587D
:106650008307DC0EFF23A3409A438B071B0E84079E
:10666000E40EA3401A43054B032424021B1984089B
:10667000A4001A5110BD00001CED00E000E100E094
:1066800010B51B480068002808D01A484068C007A9
:10669000C00F002802D00020154908601448C068C7
:1066A00000280FD01348406808210840002809D06E
:1066B00000200F49C86010480068002802D00E482A
:1066C000006880470A48006900280FD009484068E0
:1066D00010210840002809D000200549086107481A
:1066E0000068002802D005480068804710BD0000FF
:1066F0000011004000130040F4000020F0000020D2
:1067000010B50020074908600021064841608160FB
:10671000C1600020034940390860486003F0CCF8AC
:1067200010BD00004011014010B50A4880680128E2
:106730000FD10948406804210840002809D00020F2
:106740000449886002F0B8FA0446204602F090FC42
:1067500000BF10BD003100400033004010B502F012
:106760005BFF10BD10B500F0D5FD002805D007482F
:1067700007494860C8130749886100F0AFFD002849
:1067800002D001200449886010BD0000DFFF07C06F
:1067900000050040006C00400006004010B5024AB1
:1067A000024900F022F810BD616F0000580500207A
:1067B00030B47446641E2578641CAB4204D3635D18
:1067C0005B00E31830BC18471D46F8E702E008C834
:1067D000121F08C1002AFAD170477047002001E05B
:1067E00001C1121F002AFBD17047F8B516460F46AB
:1067F0000446002503E03946B047641C6D1C207830
:106800000028F8D12846F8BD00BFBFF34F8F0448D9
:106810000449C860BFF34F8F00BF00BFFEE7000010
:106820000400FA0500ED00E010B5044601F0D2FEC8
:106830002060002010BD000070B503460C461948CA
:106840000068002801D1082070BD002A01D107206E
:10685000FAE7002B01D10720F6E700211CE02420F5
:106860004843104D2D68285C002814D101252420B0
:1068700048430C4E3668355424204843094D2D6852
:106880004019447024204843064D2D684019826108
:1068900019600020D8E7491C034800788142DEDBFC
:1068A0000420D1E7300500202C050020FFB581B081
:1068B0000E4617461C4620468107890F002901D144
:1068C000012100E00021002902D1072005B0F0BD20
:1068D000002C01D10720F9E701F0ACFE26490A9807
:1068E0000860264806702648046000250CE0002158
:1068F00024206843224A1268115424206843204A05
:106900001268801801756D1CB542F0DB24207043BD
:10691000041903201B4908701B4804601834002523
:106920000CE0E900184A12688818002101704170D3
:1069300087704460182179430C196D1C032DF0DB1E
:106940000020C04311490860002011490870114916
:1069500008701420FFF7AEFD03211420FFF754FE4A
:106960001420FFF7C5FD019801F03AFE01F032FE58
:10697000094908600020A9E7500500202C050020E7
:106980003005002034050020380500203C0500209B
:106990004C0500204D05002040050020FEB50446B2
:1069A0000D46164616480068002801D10820FEBD95
:1069B00014480078844201D2052D01D20720F6E761
:1069C000242060430E490968085C012801D0082092
:1069D000EDE7242060430A490968401840780128FF
:1069E00001D1284600E00020074603F035FB3B4676
:1069F0002A4621460096019002F014FFD7E70000D6
:106A0000300500202C05002070B504460D480068B4
:106A1000002801D1082070BD0B480078844201D3C2
:106A20000720F8E72420604306490968085C01282C
:106A300001D00820EFE703F00FFB0546214602F0E6
:106A40001BFFE8E7300500202C05002001460D481B
:106A5000084000090B4AD2430A4012011043014684
:106A6000094808408008084AD2430A40920010436F
:106A70000146064808404008044AD2430A405200F2
:106A800010437047F0F0F0F0CCCCCCCCAAAAAAAA64
:106A90000146002901D1042070470022FF201D304B
:106AA0004254FF2015304250001D4250FF2021303B
:106AB0004250001D42500020EEE700B50346002B77
:106AC00001D1012000BD184600F014F8002801D1C2
:106AD0000120F7E70020F5E700B50346002B00D1C1
:106AE00000BD184600F006F80A2801D10120F7E79A
:106AF0000020F5E70146FF2021304258001D405894
:106B0000101A704770B504460D46002C01D10420C0
:106B100070BD2046FFF7D1FF002819D1FF201530A6
:106B200000591922504301192846FFF745FBFF2160
:106B30001531085900F0EEFEFF2115310851FF20F4
:106B400025300059401CFF21253108510020DFE786
:106B50000420DDE710B50446002C01D1042010BD4F
:106B60002046FFF7AAFF002810D1FF211531085950
:106B700000F0D0FEFF2115310851FF2025300059CB
:106B8000401CFF21253108510020E8E70420E6E7FA
:106B90000FB410B50446002C04D1042010BC08BC6E
:106BA00004B018472046FFF797FF002804D00FA035
:106BB000FFF7F4FD0420F1E7FF21193109591922EB
:106BC0005143081903A9FFF7F7FAFF2119310859B2
:106BD00000F0A0FEFF2119310851FF20213000599B
:106BE000401CFF21213108510020D7E771756575E0
:106BF000652066756C6C206E6F2073706163650034
:106C000030B587B004461C221A496846FFF7D4FA0B
:106C100019480078002811D01848006800901748DB
:106C2000406801901548806802901448C06803903D
:106C300012480069049000200F490870104800783D
:106C4000002807D00F4801900F48006802900020EC
:106C50000B49087000F08EF905460198002801D014
:106C6000009800901C2269462046FFF7A5FA07B05D
:106C700030BD000078A100006C000020DC06002080
:106C800067000020EB0300006800002070B5054697
:106C90000024012000F0E0F8002813D001260A4863
:106CA000047804E0641C002000F0D6F8064606488C
:106CB0000078002803D0AC4201DA002EF2D102F0B5
:106CC000B1FF00BF204670BD4D000020FEB51E483C
:106CD0000068401C002834D01B4800682421484329
:106CE0001A4909684018456801F074FC0190184879
:106CF00004682146019802F069FCC61C154800781A
:106D0000002801D101F078FCAE4201D2284600E013
:106D1000304604192402240A20460F49086000BFA7
:106D200001F058FC00900199009802F04FFCC71C3C
:106D30002046019902F04AFC874201D902F00AFE7E
:106D400001E001F077FCFEBD3C050020300500208D
:106D500040050020540500204015014070B5034651
:106D60000C46002A01D10D4D00E01588284600216F
:106D700010E0051206023543A8B25D5C68400506C6
:106D80002D0F684005034540A8B205062D0D6D0086
:106D90006840491CA142ECD370BD0000FFFF000019
:106DA00030B503460C46DB4309E02078641C5840AC
:106DB0000006800D054D28581D0A68400346104600
:106DC000521E0028F1D1D84330BD00000801002038
:106DD00010B502460B46FF2000210BE0545C6040DA
:106DE0000406A40E604084014440E0B2C400444064
:106DF000E0B2491C9942F1D310BD000010B514480F
:106E00004068C105C90D002920D00A46103A50B289
:106E100000280DDA0E4B1C330407240F083CA4088D
:106E2000A4001B598407E40EE3401B069B0F0BE0F4
:106E3000084B032424021B198408A4001B5984074F
:106E4000E40EE3401B069B0FD8B210BD0420FCE704
:106E500000ED00E000E100E030B58BB0054604A88D
:106E6000FFF7CEFE0848039008A807C86B4607C383
:106E700004A80FC802F020FA0446002C01D10BB080
:106E800030BD0120FBE700008D9100000146144851
:106E90000078144A127890421DD011480078401CA6
:106EA0000F4A107010460078022801D1002010709F
:106EB0000B48007880000C4A105808600B4A08689C
:106EC00012688018094A1060104600680002000A23
:106ED0001060012070470020086000BFFAE7000042
:106EE0004C0500204D0500204405002040050020F1
:106EF00070470000F0B50346002426E0164E3668C1
:106F000024277E43154F3F68F01946689E4203D9F7
:106F10004668F61A46601DE046689B1B46683419B1
:106F20000026466006750C4E35680B4F066A3E60BB
:106F30000669002E08D00E193602360A86600669E8
:106F4000C66016680662156000BF03480068401CF2
:106F50000028D3D100BFF0BD3C0500203005002043
:106F600038B504466846047069460320ABBE204627
:106F700038BD000001480068704700008C00002008
:106F80000248006841004018704700008C00002053
:106F900002460023002A00D170470B480078C01831
:106FA000C3B2012108E08A4200D109E00648405CF2
:106FB000C018C3B2481CC1B2044800688142F2D371
:106FC00000BF1846E8E700000C050020380000204C
:106FD0000248006841004018704700008C00002003
:106FE00000B5B1B0394802F029FD38480078C00733
:106FF000C00F00280BD000BF00BF0120344908702B
:1070000034480068401C3349086002F0BFFA2F483A
:10701000006802210840002812D000BF00BF0220F3
:107020002B4908702C480068401C2B4908602B48ED
:107030000068002802D029480068804702F0A6FABC
:107040002248006804210840002839D000BF00BF52
:1070500001202349087023480068401C214908602A
:107060001B480078012802D002280CD105E01E48F8
:107070000068401C1C49086006E01C480068401C71
:107080001A49086000E000BF00BF684602F03AFD00
:1070900068460078082812D368460078882805D109
:1070A000012101A8124A1268904708E0684600785A
:1070B000482804D1002101A80D4A1268904700BF5A
:1070C0000C4802F0CDFC31B000BD0000C000002033
:1070D000BC000020A8000020AC0000209800002088
:1070E00090000020B0000020B4000020B800002074
:1070F00094000020C400002008B56846FFF794FB08
:107100000098002803D100F051F800F029F8009809
:10711000400908BDF8B500BF00200E4B0522032131
:107120000090FFF7C3FB044600BF2546002D06D0A4
:1071300000BF002211462846FFF766FB00BF00BFD4
:1071400000BF054A01210548FFF776FB0646304699
:10715000F8BD0000801C0020F16E00001405002026
:1071600070B5054D0022294604480068FFF716FC5B
:107170000446204670BD0000FFFF7F00140500207C
:1071800001200849886100200749486001208107E3
:10719000886000BF044840680028FBD000200249F6
:1071A00048607047000500400001004010B50248EB
:1071B0000068FFF729FC10BD1405002000B587B05A
:1071C0001C2209496846FEF7F7FF0A2001900B20B0
:1071D0000490092002900820039000206946087658
:1071E00001F0BEFD07B000BDC0A1000000B591B028
:1071F0001DA003C810910F901DA103C90E910D9001
:1072000066210C912C221C4901A8FEF7D5FF1B48D2
:107210000178684681730021417301218185FF2136
:107220002D314185012108A8417202216846017172
:1072300001210173042141741148029001A802F058
:1072400021FC002802D001A802F0D6FB0FA90020E3
:1072500002F0A0FC0DA9012002F09CFC0CA9022068
:1072600002F098FC11B000BD123456789A0000006C
:10727000BCDEF0122300000094A10000A00000205A
:10728000E16F00000020114908614861886100BF7A
:1072900007E0C42141430E4A891882000B4B9950E4
:1072A000401C0428F5DB00200A4908614861886118
:1072B00000BF07E0C4214143074A89188200054BFB
:1072C0009950401C0428F5DB704700003C17002053
:1072D0002C140020681A0020581700200C48008C3D
:1072E000C0B2012812D10A48808C0007000F002884
:1072F0000CD10748806AF0210840402806D1044894
:10730000C06A0840002801D1012070470020FCE736
:10731000C00F00F01948008CC0B201282CD11748CA
:10732000808C0007000F002826D11448806AF021C5
:107330000840002806D11148C06A0840002801D141
:10734000012070470D48806AF0210840102806D1BE
:107350000A48C06A0840002801D10120F1E7074827
:10736000806AF0210840302806D10448C06A0840ED
:10737000002801D10120E4E70020E2E7C00F00F07F
:1073800010B5002001F0A4FC04460648007800284F
:1073900005D1022C03D101200249087010BD002044
:1073A000FCE700000001002001461C2901DC01204F
:1073B00070470020FCE70000FEB52B4800680190F4
:1073C0002A480078009040E00098C00028490968E9
:1073D0004418257835E01820684361680F18681C48
:1073E000C5B2A078A84200D100253878022802D082
:1073F000032823D10EE02421786848431D490968F9
:107400004618307D002804D0786802F0A5F90020E5
:10741000307514E00CE01449096824225143154AE0
:1074200012688818002101750F4A016A116000BFB7
:107430000D480068401C0028EDD100E000BF00BFEF
:1074400000BF6078A842C6D100BF0098411EC9B2F3
:1074500000910028B8D1044801680198814201D008
:107460000120FEBD0020FCE73C0500203405002083
:107470003805002030050020FEB507464348006867
:10748000029043480078019071E00198C0004149A2
:107490000968451863E0781C002807D03E46242080
:1074A00070433D4909684418276A29E02978182360
:1074B00059436A6850182978491C29702978AA7894
:1074C000914201D100212970466824217143324A3A
:1074D00012688C180178012902D1217D002900D081
:1074E0003DE08168A160C168E16001692161416995
:1074F000E1612A490978002901D00021A16000BF7B
:107500002749A0680968401A0002000A25498842F4
:1075100008D22349A068096802F058F8E1684018C9
:10752000606011E01E48A168006802F04FF800900A
:10753000E1680098814204D9E1680098081A606007
:1075400001E00020606000BF0020A060E06001203A
:107550002075801E2062304602F090F800BF781C33
:10756000002898D128786978884294D100BF019882
:10757000411EC9B20191002887D1044801680298D0
:10758000814201D00120FEBD0020FCE73C05002027
:107590003405002038050020300500205505002066
:1075A00040050020FFFF7F00A6B0002700202290AA
:1075B00019205D49086000205C49086001208107AE
:1075C000086000BF594800680028FBD05848FEF703
:1075D00081FD02F0D3FBFFF7F1FD5648FFF758FAA3
:1075E000554800F0CFFE002204215448FFF7B6FBB7
:1075F0005349088000F0B6FEFFF7C2FDFFF78AFD91
:10760000FFF7AEFD01A800F0CDF8802201A94D489A
:10761000FEF7D2FD86E04C480078FF280AD103E04F
:1076200023A925A800F04AFE434800F0C7FE002821
:10763000F6D05BE00024E443FF20259051E023A92D
:1076400025A800F03BFE0446601C002849D03F48B6
:10765000006884420ED13C480078FF280AD0002000
:107660002190FFF749FD384909784A0089184718E1
:10767000F81C229034480078002803D13348006871
:1076800084420BD030480078002818D03048006879
:10769000844214D120A8007D012810D0FFF72CFDD2
:1076A000054623982E1A052E09D200F0B9FC0120B8
:1076B00000F040F901F044F90120219000272198C1
:1076C00000280ED1FFF718FD0546BD4209D32298C8
:1076D000854206D800F0A4FC01F032F90027012011
:1076E0002190154800F06AFE0028A8D0FFF704FD9D
:1076F0000546184800682E1A17480068864211D3BC
:10770000154801683046FEF741FDC1B22491134A85
:107710002499126851430846FFF7B8FAFFF7ECFCCA
:107720000C49086077E70000840000200001004059
:10773000A0860100F40600201C0800206000002044
:10774000640000205C0600200400002008000020E7
:107750003C000020440000205000002008050020CC
:10776000F8B504460D4616461F4609480460094808
:10777000056009480760094806600020084908704C
:10778000FFF734FD02F04EFA00BF00BFF8BD000065
:107790009400002098000020A00000209C00002001
:1077A000BC000020F0B5B5B0074601205249087072
:1077B000802115A8FEF719FD50480068401C4F496C
:1077C00008600020C0430D90002132A801720025FE
:1077D0004B480078002866D0002461E00EA9494893
:1077E000FFF790F9002859D1002C05D10EA80130DF
:1077F000FEF706FD0D900D9E0EA80130FEF700FD70
:10780000851B002D01DBFF2D00DD4BE00EA801F0F4
:1078100015F9082212A901316846FEF7CDFC1422A1
:107820000FA9013102A8FEF7C7FC07A802A90EC9DB
:1078300000F088FB1721614315AA8818172207A9B1
:10784000FEF7BAFC1720604315AA8018457008A8F7
:10785000017E17206043801881700EA80130FEF76A
:10786000CFFC064600211720604315AA11541721AA
:10787000614388181721FFF7ABFAC1B217206043A4
:1078800015AA115420480068401C1F49086032A8FE
:10789000007A401CC1B232A8017200E002E0641C10
:1078A000052C9BDB00BF0D983290002204210DA80F
:1078B000FFF754FA32A988801448018832A8C180A1
:1078C00013480078002803D0012132A8417202E059
:1078D000002132A84172002132A84181002280217A
:1078E00015A8FFF73BFA32A94881802215A938462E
:1078F000FEF762FC35B0F0BD5A00002024000020E5
:1079000066000020F4060020200000206E00002009
:107910004000002010B504460B21601CFEF736FC29
:10792000084610BD10B504461521601CFEF72EFC5C
:10793000084610BD01B505E00098401E00900348C0
:10794000FEF7E8FB00980028F6D108BDE703000029
:1079500010B58A0005231B07072424021B19840085
:107960001A5110BD03210522120707231B02D2184A
:107970008300D1507047000001218140014A91608D
:10798000704700000005005070B500240025012557
:10799000002C78D0FF201C30624908606248C06823
:1079A00062490968884206D16148407840106149BF
:1079B000097888422CD060480078072817D15F48A2
:1079C0008069002813D05D484069401C5B494861CC
:1079D000042801D30020486158488069401E574957
:1079E000886157480068012108435549086001250E
:1079F0004F48407840104F4908705248407A00285C
:107A000001D1401E01E04848C0684849086004E0D0
:107A10004D480068401C4C4908604A4800780228DC
:107A200032D14648806900281ED044484069800011
:107A30004249085845490860096808784449096876
:107A40008847424800680078424908703F4800680B
:107A500002783E480168091D3E48801CFEF7ACFBD9
:107A600007203549087009E000203949096888472E
:107A700000203849087006202F4908702C484078AB
:107A8000344948700DE016E02E480078012808D1EE
:107A9000274800782F4908700020487006202649A2
:107AA0000870214880682C49C8622A4848602B48E1
:107AB0002B49086020E0FF2014301A490860214952
:107AC000C87A234909688847194823494860002033
:107AD0002449086101202449086100BF2148006948
:107AE0000028FBD000201F490861FF2018300D49F5
:107AF000086001201C494860002D11D00A4989689E
:107B0000C8B200F0C3FD0E480068042108430C49C8
:107B1000086016480068002802D0144800688047B2
:107B200070BD00000012004000140040E000002082
:107B3000461B0020DC000020EC0000203C17002049
:107B4000CC00002000140020FC000020E8000020F1
:107B5000F8000020841A002000150040717B00000E
:107B6000F00000200011004000100040C80000207C
:107B700010B5FF2018300A4908600A49C87A0A4936
:107B80000968884709480A4948600A480A4908605C
:107B90000A480078062802D105200849087010BD5F
:107BA0000012004000140020F8000020461B0020B6
:107BB0000015004089790000F0000020EC00002052
:107BC00010B5FF201430184908601848006818499B
:107BD00008601848C08C823817491522920189180C
:107BE000486001201449C860002014490860002141
:107BF000124841607020124948608020886000204F
:107C00001049C8600B480078012803D100200E49B4
:107C1000096888470D480E4948600E480E490860BB
:107C200004200E49087010BD00120040E40000203E
:107C300040A500400014002000A0004040A10040EA
:107C400000F5014000110040F8000020461B002014
:107C500000150040B57C0000F0000020EC00002082
:107C600010B510480068012108430E49086001F072
:107C700077FE0D48806900280AD101200B49087061
:107C80000B48006800280CD009480068804708E0CD
:107C900007480068002802D005480068804701F0C6
:107CA0007FFB10BDCC0000203C170020EC00002022
:107CB000C800002010B57020494988604948C06854
:107CC000002848D048480068002844D0012047498F
:107CD0004860802042498860454800680121084387
:107CE000434908604348008D43490968401A401CD5
:107CF0004249086001F034FE4148007800280CDD5C
:107D00004049C96AC8B200F0C1FC002805D0384813
:107D1000006804210843364908603B488069002810
:107D200004D034482030807A01280AD10120374914
:107D3000087037480068002850D0354800688047F0
:107D40004CE033480068002802D031480068804782
:107D500001F026FB42E028490868411E264A1160CE
:107D600000281BD101202149486080201C498860DF
:107D70002048008D401C214908601D4800680221F0
:107D800008431B490860012020490870204800680A
:107D9000002823D01E48006880471FE0FF201C30C9
:107DA0001C4908601C49096808781C49096888470B
:107DB0001B48144948601B481B49086003201349AD
:107DC000087001200949086080200549486017486B
:107DD0004068002802D001201549086010BD00004D
:107DE00000F50140001100400014004000A00040D8
:107DF000CC00002000140020D4000020D800002077
:107E0000461B0020001500403C170020EC0000201D
:107E1000C800002000120040E8000020F800002008
:107E2000841A0020C17B0000F000002040A1004027
:107E30000010004010B50C480068002813D00A4913
:107E40008968C8B200F022FC00280CD007480068FE
:107E5000042108430549086005480068002802D04D
:107E600003480068804710BD00140040CC0000208B
:107E7000C800002010B528480068012108432649A1
:107E8000086001F06DFD2548807A012803D0244860
:107E90008069002818D10020224908610120224968
:107EA000086100BF1F4800690028FBD000201D4961
:107EB000086101201D4908701D48006800282AD06B
:107EC0001B480068804726E0154840698000144937
:107ED00008581849086009680878174909688847E8
:107EE00014480068027813480168091D1348FEF71A
:107EF00063F91048006840781149C8620120FEF714
:107F0000CFFA0120FEF7EAFA0020064988604860AF
:107F100001200549886010BDCC00002020140020FD
:107F20003C1700200011004000100040EC00002031
:107F3000C8000020E8000020F8000020841A00207B
:107F4000001500400FB410B586B0044618216846ED
:107F5000FEF74BF96846818CC170090A0171C18C2A
:107F60004171090A8171018DC171090A0172418D46
:107F70004172090A8172818DC172090A0173C18D32
:107F80004173090A8173018EC173090A0174418E1C
:107F90004174090A8174818EC174090A0175C18E08
:107FA0004175090A8175172269462046FEF704F9D2
:107FB00006B010BC08BC04B01847000013481449B0
:107FC0005122120189180862124911488018416231
:107FD0000E48001D0E49891888620E49091D0C487B
:107FE0008018C1620C480A49891808630749F039AA
:107FF0000748801841630848001D054989188863AF
:10800000064903488018C163704700000011004012
:1080100000F0014000A0004040A1004000100040DE
:1080200010B5A0B000201F4908701F4800881F49E4
:108030000988884207D01E480078002803D01A48D3
:108040000088002816D1194800881A4908801A4863
:1080500004686846FFF7A6FB802269461748FEF7CA
:10806000ABF815480078001B0E4908700020144931
:10807000087010E00C4800880E490988884205D134
:1080800010480068401C0F49086004E00E48006872
:10809000401C0D4908600A480078401C08490870D7
:1080A00020B010BD760000205400002056000020B3
:1080B0005A00002058000020200000205C0600200C
:1080C00034000020180000201C000020F8B50446F1
:1080D0006B480078002811D16A49206809688842F5
:1080E00007D0694920680968884202D020680028C2
:1080F00001D1012000E0002061490870614800685A
:10810000401C002807D060480068002803D15D4863
:1081100000685D4908605A48007800287ED05B49B5
:10812000606888420FD10120594908705949A068F8
:108130000860A0895849088056480068002802D184
:108140005648FEF7A5FC002506E0A8002058A90027
:10815000534A5050681CC5B2062DF6DB50484068A3
:10816000022805D04E484068FB218900884206D18C
:108170004B49098988B200F0C7FC4949C8604848A2
:108180004068032809D1002005E000218200454B0A
:108190009950411CC8B21028F7DB414840680628B6
:1081A00002D10120404908703D484068072805D1A8
:1081B00000203D4908703948FEF76AFC384840689D
:1081C0003249491E88421ED1206900281BD03448FC
:1081D00000F0ACFC35480078002803D00121344879
:1081E000417202E000213248417200213048418151
:1081F000002280217438FEF7B1FD2E490880084620
:1082000001882B484181264840682049091D884241
:1082100020D1206900281DD0214800E02FE000F087
:1082200085FC22480078002803D0012120484172B3
:1082300002E000211E48417200211D4841810022B8
:1082400080217438FEF78AFD1A49088008460188A3
:1082500017484181124840681D280FD1A0680028A6
:108260000CD0A6683146C820FDF790FF0746394676
:108270007D20C000FDF78AFF0F49086000BFF8BDF0
:108280006C000020000000200C000020EB03000028
:1082900067000020680000206E000020F406002027
:1082A000DC0600205C050020660000204000002065
:1082B000D00600205600002050000020F0B5A7B0E6
:1082C00005460E4600202690401E019002A9224835
:1082D00000F09CF8002802D0019827B0F0BD039868
:1082E00030606846007A012806D10498019023A8DE
:1082F000407A28700198F0E76846007A002811D18A
:10830000049801900F9F00210F91402206A90020A0
:10831000C043FEF745FD0446BC4201D1012000E008
:10832000002026902698002801D10198D5E76846BC
:10833000007A00280DD109480078FF2806D00748A8
:108340000078810006A8405A0549088010A8FFF768
:10835000BDFE0198C1E700001C08002004000020B9
:108360005400002070B5FEF70BFE0446FEF730FE09
:10837000054623462A4600210148FFF7F1F970BD62
:10838000658700000146002901D1042070470020C4
:108390002F2292018A1810761722D2018A181065AE
:1083A0001722D2018A1850651722D2018A18D06587
:1083B0001722D2018A18106600BFE7E700B503460E
:1083C000002B01D1012000BD184600F014F8002850
:1083D00001D10120F7E70020F5E700B50346002BA7
:1083E00000D100BD184600F006F8142801D1012084
:1083F000F7E70020F5E701461720C0010818C06D17
:108400001722D2018A18126E801A704770B504467E
:108410000D46002C01D1042070BD2046FFF7CEFF91
:1084200000281ED11720C0012018006D9022504353
:1084300001192846FDF7C0FE1721C9016118086D12
:10844000FFF770FA1721C901611808651720C001EC
:108450002018006E401C1721C90161180866002011
:10846000DAE70420D8E710B50446002C01D1042037
:1084700010BD2046FFF7A2FF002814D11721C90123
:108480006118086DFFF74EFA1721C90161180865D8
:108490001720C0012018006E401C1721C901611867
:1084A00008660020E4E70420E2E700000FB410B5FE
:1084B0000446002C04D1042010BC08BC04B01847AA
:1084C0002046FFF78AFF002804D012A0FEF766F9C5
:1084D0000420F1E71721C9016118496D9022514329
:1084E000081903A9FDF768FE1721C9016118486D35
:1084F000FFF718FA1721C901611848651720C00154
:108500002018C06D401C1721C9016118C8650020E2
:10851000D2E7000071756575652066756C6C206E1C
:108520006F207370616365000FB410B50446002CB2
:1085300004D1042010BC08BC04B018472046FFF743
:108540004CFF002804D01EA0FEF728F90420F1E714
:1085500001211720C0012018406D90225043215462
:108560001720C00120180599406D50430019816003
:1085700024A8417A1720C0012018406D50430019EB
:10858000843041721720C00120180499406D504377
:10859000001941601721C9016118486DFFF7C2F940
:1085A0001721C901611848651720C0012018C06D46
:1085B000401C1721C9016118C8650020BAE70000F6
:1085C00071756575652066756C6C206E6F207370B3
:1085D0006163650001484068704700000015014074
:1085E00010B504460348846003211120FEF70CF8FF
:1085F00010BD00000015014010B5012000040A491B
:1086000048600949403948601120FDF753FF1120A7
:10861000FDF76EFF0120054908602F20FDF78AFD58
:1086200001200349087010BD4013014000100140B3
:108630005405002010B51120012181400E4A11601F
:1086400000BF012000040D4988600C494039886052
:1086500001200B4948602F20FDF76CFD01200849DF
:1086600088600020074908602F20FDF763FD002087
:108670000549087010BD000080E100E04013014092
:1086800000100140400500205405002010B50446AC
:108690003048806904285AD22F48007802280ED129
:1086A0002E480078C02801DD002010BD2B4800783E
:1086B000284909698900274A5158087007E0264867
:1086C000C07A244909698900224A51580870224811
:1086D000007800280ED11F49096989001D4B59589F
:1086E0000A781946096989005958081D1B49FDF780
:1086F00063FD0EE0174909698900164B59580A783D
:108700001946096989005958081D1449891CFDF743
:1087100053FD1048006980000E4908584470104805
:10872000806840B2096989000A4A51588870104629
:108730000069401C11460861042801D3002008612B
:1087400004488069401C034988610120ADE700208E
:10875000ABE70000681A002000140020461B002030
:1087600040150040F0B5C5B004460D46FEF7C4FC08
:108770000746002D29D1266827480068864201D087
:1087800045B0F0BD4822214623A8FDF715FD002085
:1087900020A90871FEF7B0FC22902048FFF71DFECB
:1087A000002807D01D48FFF75EFE1D480068401CEA
:1087B0001B490860842224A96846FDF7FDFC174880
:1087C00021A90EC9FFF772FE24E0012D22D18520D8
:1087D000015D42A84172012020A908712068239000
:1087E000FEF78AFC22900D48FFF7F7FD002807D01E
:1087F0000A48FFF738FE0A480068401C084908602C
:10880000842224A96846FDF7D7FC044821A90EC993
:10881000FFF78AFE00BFB3E7080000201C08002015
:1088200070000020014600BFCA06D20E0120904011
:10883000024A106000BF00207047000080E200E0A4
:10884000014600BFCA06D20E01209040024A1060C5
:1088500000BF00207047000080E100E0014600BF3B
:10886000CA06D20E01209040024A106000BF0020CC
:108870007047000000E100E070B504460D4629464F
:108880002046FDF785FE002070BD0000014672B64F
:1088900007480078002801D0012000E0002008707F
:1088A00003480078401C024A107000207047000006
:1088B0001C050020014606480078401E044A10703E
:1088C000002902D10020107062B60020704700001D
:1088D0001C0500200FB410B5B2B0002168464171EC
:1088E000882101710121C171882234A902A8FDF7F4
:1088F00063FC00BF00BF01F0FFF9002805D0002095
:1089000032B010BC08BC04B018470B480068401CCB
:108910000949086001A801F01FFA002801D10120CF
:1089200000E000200446002004490870002C01D01B
:1089300000BF00BF2046E3E7A4000020BC000020E9
:1089400030B5C1B018480068401C002807D0164850
:1089500000681F90144800681449086001E041B0A5
:1089600030BD8022124921A8FDF726FC782223A9D8
:108970006846FDF721FC1FA80FC8FFF7ABFF0546AF
:10898000002409E00A20FDF7A5FB641C0948844285
:1089900002DDFFF7E7FC03E0074800780028F1D08C
:1089A00000BF00BFDBE70000000000200C0000203B
:1089B0005C060020A0860100BC000020F0B5024645
:1089C0000C46002037E001238340194623460B4024
:1089D000002B2FD0D5680D40002D05D101235B045D
:1089E000D5680D43D56004E003231B04D5688D438F
:1089F000D56005252D0707263602AD198600AD592D
:108A000003263604B5430526360707273F02F61925
:108A10008700F55105252D0707263602AD1986007A
:108A2000AD591D430526360707273F02F619870073
:108A3000F55100BF401C2028C5D3F0BDF8B5044651
:108A4000651D697B2A7B0906091411430846FDF759
:108A50001FFC07462549FDF7DDFB0646FDF723FC15
:108A600000B2234908800020085EFDF711FC06468D
:108A70002049FDF731FC2AD16878297800060014D6
:108A80000843002809DD207880001B490858401C55
:108A900021788900184A505004E00020217889008C
:108AA000154A5050207880001349085A4004400C61
:108AB0002871000A68711148007864214843104900
:108AC000097A401800B2A871000AE8710DE008495F
:108AD0000020085EFDF7DCFB06460A49FDF7FCFBBB
:108AE00003D10720A8710020E871F8BD000084427E
:108AF000740000200000DE425C05002034000020ED
:108B0000D00600200000E04210B504461C2C01DD18
:108B1000002010BD04480068A04203D00248046051
:108B2000FFF720FC0120F4E78C00002010B504467C
:108B3000234920690860A0680968884214D2A168A6
:108B40008900204AE06850506069002803D0207DE9
:108B50001D4AA16850541D49E0680968884209D13E
:108B6000207A1B49087005E00020C043A1688900F5
:108B7000144A50501249086806E000218200114B47
:108B80009950114A1154401C0828F6DB01F036FABE
:108B90000B48006801280ED909480068401E0C499E
:108BA0000978884203D101200A49087006E00020B4
:108BB0000849087002E001200649087010BD000055
:108BC000380000209C0500200C050020000000203B
:108BD0000400002040000020FFB581B00446154687
:108BE0001E460A9F00BF002D01D0012000E000209A
:108BF00000900098002806D100BF002211461046C0
:108C0000FDF702FE00BF00BF00BF002E01D0012013
:108C100000E0002000900098002806D100BF00224C
:108C200011461046FDF7F0FD00BF00BF00BF002F4A
:108C300001D0012000E0002000900098002806D11B
:108C400000BF002211461046FDF7DEFD00BF00BF49
:108C50002C60002C01D0029800E000203080002021
:108C6000388005B0F0BD70B504460D4600BF002C3D
:108C700001D0012000E000200646002E06D100BFF2
:108C8000002211461046FDF7BFFD00BF00BF00BF28
:108C9000002D01D0012000E000200646002E06D164
:108CA00000BF002211461046FDF7AEFD00BF00BF19
:108CB00000202060288070BD0146012904DA2820A8
:108CC0004843024A801870470020FCE7C01E00207D
:108CD00070B505462846FFF7EFFF044600BF002C9D
:108CE00001D0012000E000200646002E06D100BF82
:108CF000002211461046FDF787FD00BF00BF24206B
:108D0000005D70BDFFB581B005460E46144600BF3C
:108D1000002C01D0012000E000200746002F06D1E2
:108D200000BF002211461046FDF76EFD00BF00BFD8
:108D3000256026710020A060A081E0812061A082D2
:108D4000E082608320832077206200212420015567
:108D5000252001556846017C2620015505B0F0BD4F
:108D6000F8B506460C46002C01D10E20F8BD304661
:108D7000FFF7A2FF054600BF002D01D0012000E053
:108D800000200746002F06D100BF002211461046E2
:108D9000FDF73AFD00BF00BF002E0CD1E07E002899
:108DA00001D0012000E0002003462A4603213F486D
:108DB000FFF7A8FF00E000BF00BF2069FEF7DCFD61
:108DC0002069FEF7CFFD2069FEF7D6FD6068FEF74B
:108DD000C9FDE068FEF7C6FD0021A068FEF7B8FDFA
:108DE000207C28776068296805221202891888602B
:108DF000E06829688918C860A0682968891808612E
:108E00002068296889184862A07E4000617E890038
:108E10000843217E0843296889184865002128688D
:108E2000FF300130816000BF04202856FFF7FAFCB4
:108E30000746002F06D000BF002211463846FDF736
:108E4000E3FC00BF00BF00BF217D04202856FFF7D0
:108E500013FD0746002F06D000BF002211463846FA
:108E6000FDF7D2FC00BF00BF002028620420296863
:108E7000032212028918486000BF2856FFF7EEFC53
:108E80000746002F06D000BF002211463846FDF7E6
:108E9000BBFC00BF00BF012029680522120289180F
:108EA000086002212420415500205FE70030004087
:108EB00070B5044600BF002C01D0012000E0002066
:108EC0000546002D06D100BF002211461046FDF7D1
:108ED0009BFC00BF00BFA068002807D0E089A189E3
:108EE000884203DAA068E189405C00E00020216844
:108EF000052212028918C861E089401CE081E089DE
:108F0000218B884213DAA068002807D0E089A18964
:108F1000884203DAA068E189405C00E00020216813
:108F2000052212028918C861E089401CE08170BDE9
:108F3000FFB583B015460398FFF7BEFE044600BF99
:108F4000002C01D0012000E000200746002F06D1B0
:108F500000BF002211461046FDF756FC00BF00BFBF
:108F600000200290002601902620005D00280ED0EF
:108F700000BF01A8FFF78AFC0746002F06D000BFFC
:108F8000002211463846FDF73FFC00BF0FE000BF4E
:108F900004202056FFF754FC0746002F06D000BFE0
:108FA000002211463846FDF72FFC00BF00BF2420E9
:108FB000005D022830D10C98A84201DD0C9800E039
:108FC00028460646002E24DD0121242001550020DC
:108FD0006083002125200155268320460E30831E04
:108FE000821F294600900498FFF7F6FD20461630B0
:108FF000831E821F00900C990698FFF7EDFD207FDD
:1090000001218140194AD16000BF2046FFF750FF7F
:1090100004E00720029001E0112002902620005D6C
:1090200000280FD000BF68460079FFF743FC0746D1
:10903000002F06D000BF002211463846FDF7E4FBA2
:1090400000BF0FE000BF04202056FFF707FC0746D3
:10905000002F06D000BF002211463846FDF7D4FB92
:1090600000BF00BF029807B0F0BD0000000500502F
:1090700070B5044600BF002C01D0012000E00020A4
:109080000646002E06D100BF002211461046FDF70D
:10909000BBFB00BF00BF608B401C60832520005DD0
:1090A000002807D1012125200155628B002120468F
:1090B00000F046F820680521090240188069C5B211
:1090C0002069002808D0E08AA18A884204DAE08A70
:1090D000411CE18221690D54E089218B884213DA19
:1090E000A068002807D0E089A189884203DAA06837
:1090F000E189405C00E00020216805221202891805
:10910000C861E089401CE081608B218B884216DBBE
:10911000207FFEF731FCE68921460C31081FFFF75E
:10912000A2FD21461431081FFFF79DFD02212420D6
:10913000015532460121204600F002F800BF70BD03
:10914000F8B504460D46164600BF002C01D001209C
:1091500000E000200746002F06D100BF0022114684
:109160001046FDF751FB00BF00BF206A002809D060
:10917000054800680090684605704680216A00989E
:10918000884700BFF8BD0000DCA100000FB430B577
:109190008BB010A8458B00214183002228210EA806
:1091A000FDF7DCFD0446A5420FD0002038490870C9
:1091B0003848FCF78FFF38480068401C3649086083
:1091C0000BB030BC08BC04B0184734480068401CE1
:1091D0003249086032490E98086032490F98086099
:1091E00031480078002802D000202F49087010A9CB
:1091F000888BFEF7D9F8002803D010A9888BFFF7D9
:1092000083FC10A80130FCF7FBFF401C002802D1B2
:109210001F490870D4E701201D4908702348FDF755
:109220005BFC002807D02148FDF794FC204800682B
:10923000401C1F4908601C2210A904A8FCF7BCFFB1
:109240001C480078FF2808D01A480078FDF7A0FED7
:109250006946097C4018694608740D2207A96846CA
:10926000FCF7AAFF114804A90EC9FDF791FC0028DC
:109270000CD00E48FDF76EFC0D2207A96846FCF7DE
:109280009BFF0A4804A90EC9FDF782FC00BF97E7BF
:109290004D000020A08601007C00002080000020FE
:1092A000000000200800002089000020F4060020B3
:1092B00078000020040000200FB4F0B587B0139EA2
:1092C00031480078002804D107B0F0BC08BC04B0D5
:1092D0001847002010A9088100221C210CA8FDF7C6
:1092E0003DFD10A908811C220CA92848FCF764FF49
:1092F0002227002004E0811F3A18244B9954401C77
:109300000628F8DB2820224B024620490090002046
:10931000FFF70EFE0446002C0ED0112C0AD11D487A
:109320000068401C1B49086008460068032801DBF0
:10933000FDF744FF0020C7E70020134908701549D6
:10934000086000250AE00520FCF7D4FE6D1D1248D8
:10935000854203DDFDF732FF0020B5E7FEF710F888
:109360000028F0D028220A490C48FCF725FF002EDF
:1093700008D01822094910316846FCF71DFF07483C
:109380000FC8B04701209FE700010020301C0020DB
:10939000581C00200401002088130000081C002035
:1093A00010B5012068490860684840698000674935
:1093B00008586749086067480078401C8007800F9C
:1093C0006449086064480078002804D001281ED051
:1093D00002281BD145E05E49096808785F490968A1
:1093E00088475B480068027859480168091D5C4855
:1093F000FCF7E2FE01205B49086008205A494860FA
:109400005A485B49086002205A4908707BE050497D
:10941000096808785149096888474E480078CC2186
:1094200008434F4908700020487049480068027896
:1094300047480168091D4A48801CFCF7BDFEFF2013
:109440001C30484908601120474948604248008D57
:109450004949086049484649086003204549087061
:1094600051E03B480068C078002804D03A482030DA
:109470004079002801D1012000E000200446344852
:10948000006800783649087031480068C0780028C4
:1094900006D1314820304079002801D0012000E079
:1094A00000202C490978490008432D494870284874
:1094B0000068027826480168091D2948801CFCF7CD
:1094C0007BFE002C11D0FF201C30264908601120A3
:1094D000254948602048008D2749086027482449CD
:1094E00008600320234908700CE0FF2014301D4958
:1094F000086010201C4948601C481D490860022073
:109500001C49087000BF00BF1148006840781C4922
:10951000C8620F48006841780120884018490863F4
:109520000D48807A88600E4848600120FCF7B8FF3B
:109530000120FCF7D3FF00201249086188604860D1
:1095400001201149086010BDD80000203C17002000
:10955000E8000020D000002000140020F8000020C7
:10956000841A00200012004000130040617C0000BB
:10957000F0000020EC000020D4000020C17B00009F
:1095800000150040001100400010004010B500BF61
:1095900000BF00F017FA00F045FB002803D100BF20
:1095A00000BF012010BD0020FCE70000042004499A
:1095B0000861002088600348034908607047000084
:1095C00000A500400202000000A200400246501A1E
:1095D0000002000A7047000070B504460D4800689C
:1095E000002812D00B4AE169A0691268904705462D
:1095F00000BF2E46002E06D000BF00221146304686
:10960000FDF702F900BF00BF02E0A169E0698847E9
:1096100070BD000050050020FEB50020C043019041
:1096200010480468104807686846FDF72FFC054697
:10963000FDF7C2FE0646002D05D001AA214600987E
:10964000FDF758FC01260198FDF716FF002800D011
:109650000126002E02D03846FDF738FB00200349D2
:109660000870FEBD400500203C0500205505002087
:1096700010B51420FCF746FF10BD0000F0B50246FF
:1096800024205043324B1B68C11832480068401CEC
:10969000002802D12F48026059E02E484B6800682C
:1096A000242460432A4C246800194068834217D858
:1096B0002848006824235843254B1B68C01840687D
:1096C0004B68C31A2348006824246043204C246854
:1096D000001943601F48006808621E48026036E0B7
:1096E0004B681C4D2C6828680DE024254543184E16
:1096F0003668AD196D685B1B044624254543144E3E
:109700003668AD19286A451C002D07D0242545432D
:109710000F4E3668AD196D689D42E6D3451C002D8D
:109720000CD0242545430A4E3668AD196D68EE1AF3
:1097300024254543064F3F68ED196E604B60086273
:1097400024256543024E3668AD192A6200BFF0BD7C
:10975000300500203C05002070B502462C4C2168E5
:10976000084609E0904200D109E001462424444320
:10977000284D2D686419206A441C002CF2D100BFCA
:10978000441C002C00D170BD814217D1204C2468AC
:1097900024256C431F4D2D686419246A1C4D2C60D0
:1097A0002C462468641C002C08D101241A4DAC609E
:1097B00000241A4D2C600124194D2C70242444439C
:1097C000144D2D686419636824244443114D2D6899
:1097D0006419256A24244C430E4E3668A419256268
:1097E00024244C430B4D2D686419206A441C002C22
:1097F0000CD024244443074D2D6864196468E5188F
:1098000024244443034E3668A419656000BFBAE7B8
:109810003C050020300500200010014040050020DC
:1098200055050020FFB581B005460E461746E900F4
:10983000104A12688818694600F01FFC0446002C84
:1098400002D1042005B0F0BD012020706660FEF753
:10985000C1FEA060E760049820610A986061E90099
:10986000044A12688818009900F01DFCFFF700FFF9
:109870000020E7E738050020F8B504460E46E10071
:109880000C4A12688818694600F0F7FB0546002D5F
:1098900001D10420F8BD022028706E60E100054A65
:1098A00012688818009900F0FEFBFFF7E1FE002027
:1098B000F0E7000038050020F8B520480068401C9B
:1098C00000283AD00027FEF785FE04461C480168B0
:1098D0002046FFF77BFE06461848056811E0242065
:1098E00068431849096844186068B04200D90BE021
:1098F0006068361A6068C719256A2046FFF76CFE53
:1099000000BF681C0028EAD100BF0F4800780F494B
:109910000978884209D10D480078401CC0B20B4933
:109920000870022801D100200870084800788000E3
:1099300007490F50FFF79CFE00BFF8BD3C05002013
:1099400040050020300500204C0500204D0500207A
:109950004405002010B51120FCF7D4FD10BD000017
:1099600010B50D488069002814D00120FCF7ACFD2B
:1099700009488069401E0849886108464069401CC2
:10998000486108464069042801D30020486101204D
:10999000FCF7A4FD10BD00003C170020074800782C
:1099A000012802D0FF2004307047F020044988606D
:1099B00000200249087000BFF6E70000EC0000201C
:1099C00000F5014010B50A480078012802D0FF20B8
:1099D000043010BD0120FCF777FD002005498861A7
:1099E000486108610120FCF779FD0020F1E70000E3
:1099F000EC0000203C17002010B504460E4800780B
:109A00000300FCF7D5FE0810110506070B0C0D121C
:109A100000BF00BF01200849087006E000BF00BF7A
:109A200000F06AF901E000BF00BF00BFFFF7B6FF1A
:109A3000204600F027F810BDEC00002010B50446C9
:109A40000120FCF741FD0548006820600020034923
:109A500008600120FCF742FD002010BDCC00002072
:109A6000014606480078002802D1FF2002307047E6
:109A70000348006808600020F9E70000EC000020BF
:109A8000D800002010B5044617480078002802D0FE
:109A9000FF20033010BD1549606808602C22214664
:109AA0001348FCF789FB002012490860124908603E
:109AB000FF20124908700020C0431149086000F0DF
:109AC0009DF9FDF7DFFBFFF771FDFEF777FA084818
:109AD0002030C07A8107890F0120FCF71DFD01208D
:109AE000014908700020D5E7EC000020C8000020E4
:109AF00000140020CC000020D0000020DC0000205A
:109B0000E000002010B504461F480078002802D16C
:109B1000FF20023010BD1D488069002801D11C487B
:109B2000F8E70120FCF7D0FC18484069800017498D
:109B3000085800782070084640698000085840782E
:109B4000607008464069800008588078A0702278CC
:109B50000846406980000B461858011D201DFCF77F
:109B60002BFB0A484069401C08494861042801D37E
:109B70000020486105488069401E04498861012031
:109B8000FCF7ACFC0020C5E7EC000020681A0020C0
:109B90000303000070B505460C46204800780128F4
:109BA00002D0FF20043070BD2B00FCF701FE080539
:109BB0000C13171B1F24292E1948027B2146133032
:109BC000FCF7FAFA24E01648027B21461830FCF72D
:109BD000F3FA1DE020781249487719E020781049FF
:109BE000887715E020780E49C87711E021780C4875
:109BF000203001700CE0217809482030417007E0E6
:109C0000217807482030817002E001204002CAE735
:109C100000BF00F0F3F80020C5E70000EC000020D2
:109C20000014002010B52A480078012802D0FF2037
:109C3000043010BD0020C04326498860002026491A
:109C4000086126482649086026480078002804D084
:109C500001280CD0022820D114E0212022490860DC
:109C600008201C49486005201949087015E0FF20AC
:109C700018301D4908601020164948600520144915
:109C800008700AE0FF2018301749086010201149B9
:109C9000486005200E49087000BF00BF1148203001
:109CA000C078124908630F48807A8860104848607D
:109CB0000120FCF7F5FB0120FCF710FC0020064911
:109CC00008618860486001200A4948600020B0E7C8
:109CD000EC000020001300400011004089790000D2
:109CE000F000002000140020001200400015004089
:109CF000461B00200010004011480078052803D0C2
:109D00000F480078072817D100200E490860401E30
:109D10000D49886000200D4908600D490861012047
:109D20000C49086100BF0A4800690028FBD00120E7
:109D30000349087000207047FF200530FBE7000052
:109D4000EC0000200012004000130040F000002052
:109D5000001100400010004010B50446054840794D
:109D6000002801D1044810BD0121204600F09EF9D1
:109D7000F9E70000201400200102000030B588B08F
:109D80001D4B5C689A681968DB6805940793069216
:109D90000491194C103423686268A168E468039444
:109DA000009301920291002108460EE0830004AC6A
:109DB000E158032293000524240707252D02641986
:109DC0008D00635100BF411C08460428EED30021DA
:109DD00008460DE082006B469958032205231B07B5
:109DE000072424021B198C001A5100BF411C08468D
:109DF0000428EFD308B030BD48A1000010B5534887
:109E0000007800280BD0012805D0022814D1504832
:109E10005049086010E050484E4908600CE04F4837
:109E20004C49086049484078002801D14C4800E07E
:109E30004C484D49086000BF00BF4448407B4B4937
:109E4000C8604248007A08614048007A002808D07B
:109E5000012802D002280CD107E0302044490860D4
:109E600007E040204249086003E0FA2040490860CA
:109E700000BF00BF3548407A3C4948633348407AC8
:109E8000022804D13B48C8633B48886309E02F4857
:109E9000407A012805D1FF203449C863FF200830EB
:109EA00088632A49C87A2B49096888472749897FE6
:109EB0000906264A527F12041143244A127E1202D6
:109EC0001143224AD27C11430846FCF7BFFD2749C3
:109ED00048621E492031897809061C4A203252788E
:109EE00012041143194A2032127812021143174A00
:109EF000D27F11430846FCF7A9FD1C49886213492B
:109F0000097D0906114A527D120411430F4A927DC0
:109F1000120211430D4AD27D11430846FCF796FD0B
:109F20001249C8610949497E0906084A927E12040D
:109F30001143064AD27E12021143044A127F114392
:109F40000846FCF783FD0949086210BD0014002093
:109F5000A99F0000F80000207D9F0000D59F000011
:109F6000757E0000357E0000F400002000150040E2
:109F7000E4000020FFFF0000211001000749084A0B
:109F800051610849097B491E090401221206114347
:109F9000020211430143024A91617047000101002E
:109FA000001500400014002001460748074A506190
:109FB0000748007B401E0004012212061043C030F7
:109FC000024A90617047000008000300001500403D
:109FD000001400200021074A51610749097B491EEE
:109FE0000904012212061143020211430143014AEE
:109FF0009161704700150040001400201249096863
:10A00000124A1268914208D111490968491E890013
:10A010000D4A51580F4A1160704701200EE081002F
:10A02000094A5158094A1268914205D1411E8900D6
:10A03000054A5158074A1160411CC8B204490968D1
:10A040008842ECD300BFE7E79C0500200000002019
:10A05000380000203C00002010B5FCF7CFFE01289E
:10A0600002D0032804D101E0002403E0012401E030
:10A07000022400BF00BF204610BD70B502460B464B
:10A080005078411C9078884200D100211078884295
:10A0900001D1002070BD19605078182670435568B2
:10A0A0002C182046F6E741707047000070B5044652
:10A0B0000D4621480078002802D1FF20023070BDF3
:10A0C0001E488069042801D31D48F8E70120FCF7E9
:10A0D000FBF9002D06D01B484079002802D0012052
:10A0E000E07001E00020E070144909698900134A1A
:10A0F0005058C4222146FCF75FF810480069401C04
:10A100000E49086108460069042801D3002008614F
:10A110000A488069401C094988610120FCF7DEF982
:10A120000848807A002805D103480078012801D129
:10A13000FFF736F90020C2E7EC0000203C170020B2
:10A140000103000020140020110000001200000094
:10A1500013000000140000001500000016000000AD
:10A16000170000001800000011000000120000009D
:10A1700013000000140000000000000000000000B8
:10A18000FFFFFFFF000000000000000000000000D3
:10A190000000000002000000000000000102023D7B
:10A1A00005000000000000E7E7E7E7E7C2C2C2C21F
:10A1B000C2C3C4C5C6C7C83F0100FA0003000001FE
:10A1C00000000010FFFFFFFFFFFFFFFFFFFFFFFF8B
:10A1D000FFFFFFFF0300000001000000020000007D
:10A1E00000A20000000000205C0500009463000055
:10A1F00038A600005C0500208C250000DC6700000C
:10A20000320132FF052C70D2C011021706F2141A67
:10A21000FF01A90801191989298CC15A670401385D
:10A220002971091E78A97410C2963007772C610E27
:10A23000EEBA51099919C46D078FF46A7035A56398
:10A24000E9A395649E3288DB0EA4B8DC791EE9D5BB
:10A25000E088D9D2972B4CB609BD7CB17E072DB8CA
:10A26000E7911DBF906410B71DF220B06A4871B924
:10A27000F3DE41BE847DD4DA1AEBE4DD6D51B5D452
:10A28000F4C785D38356986C13C0A86B647AF962BF
:10A29000FDECC9658A4F5C0114D96C0663633D0F00
:10A2A000FAF50D088DC8206E3B5E10694CE44160E4
:10A2B000D5727167A2D1E4033C47D4044BFD850DF0
:10A2C000D26BB50AA5FAA8B5356C98B242D6C9BB0F
:10A2D000DB40F9BCACE36CD832755CDF45CF0DD602
:10A2E000DC593DD1ABAC30D9263A1061DE518051FA
:10A2F000D7C81661D0BFB5F4B42123C4B35699951D
:10A30000BACF0FA5BDB89EB802280888055FB2D99C
:10A310000CC624E90BB1877C6F2F114C6858AB1D1C
:10A3200061C13D2D66B69041DC760671DB01BC2033
:10A33000D2982A10D5EF8985B1711FB5B606A5E46C
:10A34000BF9F33D4B8E8A2C9077834F910270F8E1D
:10A35000A8099618980EE1BB0D6A7F2D3D6D0897F0
:10A360006C6491015C63E6F4516B6B62616C1CD8A8
:10A370003065854E103C62F2ED95066C7BA5011BA5
:10A38000C1F4088257C40FF5C6D9B06550E9B712B9
:10A39000EAB8BE8B7C88B9FCDF1DDD62492DDA1579
:10A3A000F37CD38C654CD4FB5861B24DCE51B53A99
:10A3B0007410B1BCA3E230BBD441A5DF4AD795D815
:10A3C0003D6DC4D1A4FBF4D6D36AE96943FCD96ED0
:10A3D00034468867ADD0B860DA732D0444E51D03B8
:10A3E000335F4C0AAAC97C0DDD3C710550AA4102BD
:10A3F0002710100BBE86200CC925B56857B3856F92
:10A400002009D466B99FE461CE0EF9DE5E98C9D901
:10A41000292298D0B0B4A8D7C7173DB359810DB43D
:10A420002E3B5CBDB7AD6CBAC02083B8EDB6B3BFF0
:10A430009A0CE2B6039AD2B1743947D5EAAF77D213
:10A440009D1526DB048316DC73120B63E3843B64E7
:10A45000943E6A6D0DA85A6A7A0BCF0EE49DFF09EF
:10A460009327AE10E40AB19E077D44930FF0D2A368
:10A47000088768F2011EFEC206695D5762F7CB6766
:10A48000658071366C19E7066B6E761BD4FEE02B87
:10A49000D3895A7ADA10CC4ADD676FDFB9F9F9EF60
:10A4A000BE8E43BEB717D58EB060E8A3D6D67E93D6
:10A4B000D1A1C4C2D83852F2DF4FF167BBD1675780
:10A4C000BCA6DD06B53F4B36B248DA2B0DD84C1B87
:10A4D0000AAFF64A0336607A0441C3EF60DF55DF06
:10A4E00067A8EF8E6E3179BE69468CB361CB1A8353
:10A4F00066BCA0D26F2536E2685295770CCC034734
:10A500000BBBB91602222F260555BE3BBAC5280B38
:10A51000BDB2925AB42B046AB35CA7FFD7C231CF45
:10A52000D0B58B9ED92C1DAEDE5BB0C2649B26F2EB
:10A5300063EC9CA36A750A936D02A906099C3F36D9
:10A540000EEB85670772135730E305824ABF9514F7
:10A550007AB8E2AE2BB17B381BB60C9B8ED2920D33
:10A56000BED5E5B7EFDC7C21DFDB0BD4D2D386424E
:10A57000E2D4F1F8B3DD686E83DA1FCD16BE815BDD
:10A5800026B9F6E177B06F7747B718E65A088870B2
:10A590006A0FFFCA3B06665C0B0111FF9E658F695F
:10A5A000AE62F8D3FF6B6145CF6C1678E20AA0EE7D
:10A5B000D20DD75483044EC2B30339612667A7F77F
:10A5C0001660D04D476949DB776E3E4A6AD1AEDCF2
:10A5D0005AD6D9660BDF40F03BD83753AEBCA9C57D
:10A5E0009EBBDE7FCFB247E9FFB5301CF2BDBD8A0E
:10A5F000C2BACA3093B353A6A3B4240536D0BA93D3
:10A6000006D7CD2957DE54BF67D9232E7A66B3B853
:10A610004A61C4021B685D942B6F2A37BE0BB4A13C
:10A620008E0CC31BDF055A8DEF022D107701040439
:08A63000050101034124F400BF
:04000005000060C1D6
:00000001FF
