:020000040800F2
:1000000000800120A10700084D07000851070008E3
:10001000F1070008F1070008F107000800000000E0
:10002000000000000000000000000000F1070008D0
:100030005507000800000000F107000859070008F4
:10004000F1070008F1070008F1070008F1070008B0
:10005000F1070008F1070008F1070008F1070008A0
:10006000F1070008F10700085D070008F107000824
:10007000F1070008F1070008F1070008F107000880
:10008000F1070008F1070008F10700080000000070
:10009000000000000000000000000000F107000860
:1000A000F1070008F1070008F1070008F107000850
:1000B000F1070008F1070008F1070008F107000840
:1000C000F1070008F1070008F1070008F107000830
:1000D000F1070008F1070008F10700080000000020
:1000E00065070008F1070008F1070008000000009C
:1000F000000000000000000000000000F107000800
:1001000000000000F1070008F1070008F1070008EF
:1001100000000000000000000000000000000000DF
:10012000F1070008F1070008F1070008F1070008CF
:10013000F1070008000000000000000000000000BF
:10014000000000000000000000000000F1070008AF
:10015000F1070008F1070008F1070008F10700089F
:10016000F1070008F107000800000000000000008F
:10017000000000000000000000000000000000007F
:1001800000000000F107000800000000000000006F
:10019000F10700080000000000000000000000005F
:1001A000044B05481B1A062B02D9044B03B1184710
:1001B000704700BFC7020020C402002000000000FA
:1001C00005490648091A891001EBD171491002D07E
:1001D000034B03B118477047C4020020C40200203B
:1001E0000000000010B5064C237843B9FFF7D8FF94
:1001F000044B13B10448AFF300800123237010BDFA
:10020000C402002000000000A484000808B5084BC8
:100210001BB108490848AFF300800848036813B9C8
:10022000BDE80840CCE7064B002BF9D09847F7E72C
:1002300000000000C8020020A4840008C4020020BE
:1002400000000000034613F8012B002AFBD1181A06
:1002500001387047000000000000000000000000AE
:1002600001F0FF01102A2BDB10F0070F08D010F867
:10027000013B013A8B422DD010F0070F42B3F6D16B
:10028000F0B441EA012141EA014122F007047FF084
:1002900000070023F0E80256083C85EA010586EADB
:1002A000010685FA47F5A3FA87F586FA47F6A5FA17
:1002B00087F68EB9EED1F0BC01F0FF0102F0070223
:1002C00032B110F8013B013A83EA010313B1F8D1CE
:1002D0000020704701387047002D06BF35460338AF
:1002E000073815F0010F07D1013015F4807F02BFE8
:1002F000013015F4C03F0130F0BC0138704700BF39
:10030000F0B589B0254B2648264C002500951A6B80
:1003100042F001021A631A6B02F001020092009A85
:1003200001951A6B42F001021A631A6B02F0010286
:100330000192019A02951A6C42F400321A641B6C05
:10034000059503F400330422029303A90223072630
:10035000039204930693029F079600F00DFB082377
:1003600003A90F480393079600F006FB0E49A5600A
:100370004FF4E1320C232046E5602561A56184E855
:100380000600636102F014F800B1FEE7074AE0637B
:100390004FF48073A262A38509B0F0BD003802401B
:1003A00000000240B404002000440040F404002097
:1003B000F0B595B000241D4B0194196C1C4A41F016
:1003C000805119641B6C03F080530193019B0294CC
:1003D000136823F4404343F40043136013680F94FD
:1003E00003F440430225029304211023072201272E
:1003F0004FF4A87608A8DDF808E00C93109312914A
:10040000139208950E950B97119601F0A9F80F22FB
:100410004FF48053294603A804950594079403924A
:10042000069301F09DFA15B0F0BD00BF0038024000
:100430000070004070B5364C8AB005A900222046F5
:1004400001F03CFD002204A9204601F011FE314AD2
:10045000314B16681B68069D2384751B1B0C642298
:1004600004F1200184F8223002FB05F541F28833C3
:1004700002222A4801F0CCFF01369DF816109DF8A3
:10048000152095FBF6F5EDB29DF814300191009220
:100490004FF48071224A029504F1200007F0E6FB38
:1004A00004F12000FFF7CEFE41F2883382B204F15E
:1004B00020011A4801F0ACFF05A9D4F8200102F090
:1004C000FDFA04F59271D4F8200102F00BFB01282B
:1004D00014D0B4F82431134A04F120004FF4807191
:1004E00007F0C4FB1048FFF7ADFE41F2883382B23B
:1004F0000D490A4801F08CFF0AB070BD04F12000DC
:100500009DF81430094A4FF4807107F0AFFBE9E71A
:10051000E0020020F4060020D4840008B404002087
:10052000D88400083C85000800030020FC840008F3
:100530002DE9F0418EB000F075F9FFF739FF00208A
:1005400002F01CFB0121002002F054FB0125FFF703
:10055000D7FE00230C2202A8029208930793049569
:1005600000F0FEFF454C464B464AF0B11D607F212E
:10057000F923A160E3601360404E434B23604022A7
:1005800000233046626023616361A36101F082FB56
:1005900000B1FEE70EA93D4B41F8343D0122304643
:1005A00001F0C2FC034638B1FEE718607F21FF234B
:1005B000A160E3601360DFE7012202A930460293E5
:1005C0000593069301F0BEFB074600B1FEE706F572
:1005D0009071012002F07CF901284BD0D6F820015F
:1005E00002F05CFAD6F8200102F070FA00F03CF953
:1005F000054609E094F827313BBB00F035F940F699
:10060000B733401B98422FD894F82631002BF1D0F5
:1006100002A9D6F8200186F8267102F099FA8046E0
:100620000028E7D19DF80830DB06E3D5FFF702FF8D
:10063000404602F0CBFA642000F01CF9404602F07C
:10064000CFFA94F82731002BD7D0D6F8200102F04A
:100650005DFA0028D1D186F8270100F005F940F6AF
:10066000B733401B9842CFD9FFF7E4FE00F0FCF807
:100670000546C9E7384602F0A9FAFEE7E002002085
:1006800008040020F40600200028004001010100B9
:10069000B0F5005F08B506D0102803D1074B012242
:1006A00083F8262108BD002002F0E4FA0028F9D1E1
:1006B000024B012283F8272108BD00BFE002002081
:1006C000FEE700BF00B51F4B1B6893B00C210BBBAE
:1006D000012206A80C930B930691089200F040FFAC
:1006E00060BB02224FF4807301A80192049301F0D1
:1006F0001DFA08B1FFF7E4FF134B01221A600F2126
:100700000022022000F0DAF8022000F00FF913B006
:100710005DF804FB0023012206A806910C930893C0
:100720000B9200F01DFF18B902224FF40073DBE7B3
:10073000FFF7C6FF02224FF40073D5E7FFF7C0FFB3
:10074000CFE700BF080400203C0E4742704700BFBF
:10075000FEE700BF704700BF00F07EB8102000F039
:10076000FBB900BF4FF4005000F0F6B90A4A08B5D3
:10077000136873B118446946884202D8106018465D
:1007800008BD07F047FA0C2303604FF0FF3318460B
:1007900008BD024B1360EDE70C04002008070020A1
:1007A000DFF834D0002103E00C4B5B584350043198
:1007B0000B480C4B42189A42F6D30B4A02E0002336
:1007C00042F8043B094B9A42F9D301F0B1FE07F01D
:1007D00027FAFFF7ADFE70470080012090850008E2
:1007E00000000020C4020020C402002008070020EE
:1007F000FEE70000704700BF084B094A1B6810B5B0
:10080000A2FB03230446980900F09CF8214600222D
:100810004FF0FF3000F052F8002010BD0000002023
:10082000D34D621008B50B4B1A6842F400721A607F
:100830001A6842F480621A601A6842F480721A6080
:10084000032000F029F80F20FFF7D6FFFFF7D2FFB3
:10085000002008BD003C0240024A136801331360C7
:10086000704700BFF8060020014B1868704700BFB2
:10087000F806002030B583B00190FFF7F5FF019C2A
:10088000631C054618BF0134FFF7EEFF401BA04272
:10089000FAD303B030BD00BF074AD1684FF6FF035B
:1008A0000B40000243F0BF6300F4E06043F4003308
:1008B0000343D360704700BF00ED00E0194BDB68D5
:1008C000C3F3022330B4C3F10705042D03F104047C
:1008D00028BF0425062C18D9033B01249C40013C69
:1008E00022400124AC40013C214001FA03F30028DE
:1008F00042EA03020CDB00F1604000F561401201A6
:10090000D2B280F8002330BC704700221346E8E7DB
:10091000054B00F00F0012010344D2B21A7630BC2E
:10092000704700BF00ED00E0FCEC00E000F01F01AC
:1009300001234009024A8B4042F82030704700BF33
:1009400000E100E00138B0F1807F0ED2084B10B416
:10095000084C5860F02084F823000022072110463C
:100960009A6019605DF8044B70470120704700BF22
:1009700010E000E000ED00E02DE9F04FD1F800C0FC
:10098000DFF8B881DFF8B8E183B000254FF0010946
:1009900003E00135102D00F0838009FA05F232EAF8
:1009A0000C03F6D14C6824F01006022E7BD04FEADF
:1009B000450A0323076803FA0AF3DB4304F0030B39
:1009C0001F400BFA0AFB013E4BEA0707012E0760A6
:1009D00040F28C80C7688E683B4006FA0AF63343C3
:1009E000C360E300D5D500230193D8F8443043F425
:1009F0008043C8F84430D8F8443025F0030606F1A7
:100A0000804603F4804306F59C36019305F003030A
:100A1000019FD6F808A09B000F279F402AEA070BEA
:100A2000424FB84272D007F58067B84270D0404F4D
:100A3000B84270D03F4FB84272D03F4FB8420CBF5F
:100A40004FF0040A4FF0070A0AFA03F343EA0B03D4
:100A5000B360DEF80030D643E7034CBF13433340A6
:100A6000CEF80030DEF80430A7034CBF1343334008
:100A7000CEF80430DEF80830E7024CBF13433340B1
:100A8000CEF80830DEF80C30A40205F1010554BFA1
:100A900006EA03021A43102DCEF80C207FF47DAF36
:100AA00003B0BDE8F08F4FEAD50A00EB8A0A05F0E3
:100AB0000703DAF820700E699B004FF00F0B0BFA5A
:100AC00003FB27EA0B0706FA03F33B43CAF820307F
:100AD0004FEA450A0323066803FA0AF3DB4304F0EE
:100AE00003071E4007FA0AF73E4306608668CF6890
:100AF0001E4007FA0AF7374387604668C4F30017B9
:100B000026EA0206AF403E43466063E700239DE7C6
:100B100009FA03F39AE74FF0020A0AFA03F395E79A
:100B20004FF0030A0AFA03F390E700BF0000024007
:100B300000080240000C0240001002400038024051
:100B4000003C01400369194214BF01200020704796
:100B500002B9090481617047044A5169014200D118
:100B6000704708B55061FFF793FD08BD003C014098
:100B7000F8B504460D46164623685869C04310F080
:100B8000020026D05A69510511D51A6800216FF468
:100B9000806742F40072042620251A6001205F61FC
:100BA000266484F83C10216384F83D50F8BD6A1C2B
:100BB000E3D045B900232022236384F83C3084F835
:100BC0003D200320F8BDFFF74FFE801B8542D3D2A6
:100BD000F0E7F8BD2DE9F0410546006882B00668EF
:100BE000089C884646F480711F4616460160621CC8
:100BF00041D14369DB07FCD508F0FE010161631CAC
:100C000014D043699B0714D443695A053FD4002C80
:100C100000F09380FFF728FE099BC01A8442C0F0C1
:100C20008C802868EBE743695A0530D443699907FB
:100C3000F9D5002301934369019383690193019BD3
:100C4000621C5CD143691B0648D443695905F9D538
:100C500000236FF48064042120224461296485F814
:100C60003C302B6385F83D202B6C042B2FD00320C8
:100C700002B0BDE8F0814369D907BDD4E4B1FFF704
:100C8000F3FD099BC01A844216D32868AFE70368B6
:100C900000226FF4806643F4007304242021036073
:100CA00046612C6485F83C202A6385F83D102B6C46
:100CB000042BDCD10120DBE7002320222B6385F805
:100CC0003C3085F83D20032085F83E30D0E72A6887
:100CD000136843F4007313600120C9E7012F0AD0A1
:100CE000330A0361671C19D14369190603D44369A8
:100CF0005A05ADD4F8E7F6B206610020B8E74369BB
:100D00001A06EBD443695905A2D4F4B1FFF7ACFD40
:100D1000099BC01A844218D3286891E743691B06CF
:100D2000E9D443695B0593D47CB1FFF79DFD099B32
:100D3000C01A844209D32868D4E7002320222B63F9
:100D400085F83C3085F83D20B1E72B6C002243F05C
:100D5000200320212B6485F83C202A6385F83D1070
:100D600082E700BF2DE9F043044600688946016828
:100D700041F48061016083B001680A9E0B9D41F4DB
:100D80008071174698460160711C42D14369DA07A9
:100D9000FCD55FFA89F909F0FE030361721C13D0D8
:100DA00043699A0713D4436959053DD4002E00F0D6
:100DB000A880FFF759FD401B8642C0F0A280206842
:100DC000ECE7436959052FD443699B07F9D5002304
:100DD00001934369019383690193019B711C63D162
:100DE00043691A0647D443695B05F9D500236FF4BC
:100DF0008065042120224561216484F83C3023630E
:100E000084F83D20236C042B2ED0032003B0BDE8D2
:100E1000F0834369DB07BCD4DEB1FFF725FD401B3F
:100E2000864216D32068AFE7036800226FF480661D
:100E300043F400730425202103604661256484F88F
:100E40003C20226384F83D10236C042BDDD101206B
:100E5000DCE700232022236384F83C3084F83D2023
:100E6000032084F83E30D1E72268136843F400730E
:100E700013600120CAE7B8F1010F0AD03B0A0361F1
:100E8000731C2FD14369190603D443695A05ADD4A5
:100E9000F8E7FFB20761711C15D143691A0638D40F
:100EA00043695B05A2D4F8E743691906E3D44369B3
:100EB0005B059BD4002E4CD0FFF7D6FC401B86422E
:100EC00047D320688AE743691F0622D443695F0538
:100ED0008CD4002E3DD0FFF7C7FC401B864238D390
:100EE0002068D8E743691B06D3D443695A053FF508
:100EF0007DAF76B3FFF7B8FC401B864229D320684C
:100F0000BEE700232022236384F83C3084F83D2090
:100F10009AE7036843F480730360711C0DD1436941
:100F2000DA07FCD549F0010303612A463146204621
:100F3000FFF71EFE002887D168E74369DB07F1D47D
:100F4000002E86D0FFF790FC401B864281D320689C
:100F5000E3E7236C002243F020032021236484F87C
:100F60003C20226384F83D104CE700BF704700BF6F
:100F700000286CD0F8B590F83D30044603F0FF022D
:100F8000002B4FD02268334D242384F83D30136862
:100F900023F00103136000F099FD2F4A6168236874
:100FA000A2FB0062920CA9425A6026D84900B0FB0D
:100FB000F1F0C0F30B01013203291A6298BF04203B
:100FC000256AD4F81CE02769E1686669A269D861DE
:100FD00039434EEA0500324318609960DA601968B7
:100FE000002241F00101202519601046226484F896
:100FF0003D50226384F83E20F8BD4FF49675174F9C
:10100000A66805FB02F2A7FB0252920901321A629E
:101010006EB901EB4101B0FBF1F0C0F30B029AB9DC
:101020000120CDE780F83C20FFF7A0FFAAE701EB05
:10103000810101EB8101B0FBF1F0C0F30B02002A4A
:10104000EED040F44040BBE740F40040B8E7012058
:10105000704700BFA086010083DE1B43D34D6210A2
:10106000704700BFB0B10268242310B580F83D304E
:10107000136823F0010304461360FFF7F1FF002318
:10108000236484F83C3084F83D301846236384F8A8
:101090003E3010BD012070472DE9F047044682B074
:1010A00098460E461746BDF82C90FFF7DDFB94F8E6
:1010B0003D30202B04D00226304602B0BDE8F08738
:1010C000054605E0FFF7D0FB401B192800F28B8096
:1010D00022689369DB4313F0020AF3D094F83C30A2
:1010E000012BE8D013680121D80784F83C1002D402
:1010F00013680B43136013685B4923F400631360A8
:101100004FF0000A2122402384F83D2084F83E302D
:10111000C4F840A0A4F82A90E162608D0A9B636243
:1011200031460C9E00960195434620853A4620465E
:10113000FFF750FD0646002870D12368228D002A53
:1011400029D00C9A013259D15A6912062DD45A6904
:101150005705F9D500226FF48065042020215D61D8
:10116000206484F83C20226384F83D10236C042B17
:1011700074D00326A0E75A69520756D45A69570516
:10118000E8D40C9B002B5DD0FFF76EFB0C9B401B43
:10119000834257D323680C9A0132ECD15A69500725
:1011A00043D45A695105D5D4F8E7606A278D421CAB
:1011B000626202781A61618D013989B2618559696B
:1011C0007A1E92B249072285B9D5002AE3D0821C43
:1011D000626242781A61618DBA1E013992B289B297
:1011E00022856185ABE72023C4F830A084F83CA0B9
:1011F00084F83D30022684F83EA05DE75A69100667
:10120000D3D45A695105A5D40C9BDBB1FFF72CFB55
:101210000C9B401B834215D3236892E7236C84F810
:101220003CA0042BA5D1012646E71A680021202006
:1012300042F400721A6084F83D0084F83C1084F88F
:101240003E1039E7236C002243F020032021236461
:1012500084F83C20226384F83D1087E722681368F5
:1012600043F400731360DEE70000FFFF2DE9F04F49
:10127000044687B099460F469046BDF844A0129E9A
:10128000FFF7F2FA94F83D30202B04D002273846BD
:1012900007B0BDE8F08F054604E0FFF7E5FA401B14
:1012A00019283AD822689369DB4313F0020BF4D073
:1012B00094F83C30012BE9D013680121DB0784F856
:1012C0003C1002D413680B4313601368994923F44C
:1012D000006313604FF0000B2222402384F83D206E
:1012E00084F83E30C4F840B0A4F82AA0E162608DD2
:1012F000109B63623946019500964B462085424615
:101300002046FFF72FFD074690B1236C84F83CB0D0
:10131000042B00F0E0800327B9E72023C4F830B0A5
:1013200084F83CB084F83D30022784F83EB0AEE744
:10133000228D236892B902905A6902929A690292A8
:10134000029A1A6842F400721A600023202284F87C
:101350003D2084F83C3084F83E3098E7012A00F0C4
:10136000DA80022A00F0E8800590596905919969B0
:1013700005910599032A76D8012A00F0AE80022A49
:1013800046D0701C50D15A695107FCD51A68616A61
:1013900022F480621A601B694A1C62620B70638DC2
:1013A000228D013B9BB2013A63852285701C226825
:1013B00045D153695907FCD51368616A43F400733A
:1013C000136013694A1C62620B70638D218D606A21
:1013D0002268013B9BB2638512694B1E411C238529
:1013E00061620270228D638D013A013B92B29BB221
:1013F00022856385002AA8D02368BBE75A69520773
:101400000BD42EB3FFF730FA401B864220D323685B
:10141000701CF3D15A695107FCD51A68616A42F40D
:1014200000721A601B69CDE75A695207AED47EB1CB
:10143000FFF71AFA401B86420AD32368A1E75369D3
:101440005B07B9D426B1FFF70FFA401B8642ADD235
:1014500000232022236384F83C3084F83D200327B6
:1014600084F83E3013E74EB922E05A69D20642D4DE
:10147000FFF7FAF9401B864220D323685A695106C8
:10148000F3D5626A1B69511C61621370618D236818
:10149000228D013989B261855969013A92B24907B1
:1014A0002285A7D5626A1B69511C6162137099E796
:1014B0005A695006E5D45A69D0061CD4236C202200
:1014C00013430021236484F83C1084F83D20236CEE
:1014D000202B3FF420AF0127D9E636B917E0FFF7FC
:1014E000C3F9401B8642E9D323685A695006D9D410
:1014F0005A69D106F3D500226FF0100020215861FF
:10150000226484F83C20226384F83D10DFE75A69A6
:101510005206D0D5C6E7196821F48061196003909E
:1015200059690391996903910399196841F400710C
:1015300019601FE70000FFFF196821F4806119603E
:10154000196841F40061196004905969049199691E
:10155000049104990EE700BF90F83D00704700BF6A
:10156000F0B50368DD0783B004462FD5A5498A6826
:1015700002F00C02042A00F0F6808A6802F00C02E5
:10158000082A00F0EC806368B3F5803F00F02F81FB
:10159000B3F5A02F00F003819A4D2A6822F480321F
:1015A0002A602A6822F480222A60002B40F0008101
:1015B000FFF75AF9064605E0FFF756F9801B642845
:1015C00000F2AC802B689B03F6D423689F072FD5CD
:1015D0008C4A916811F00C0F00F0A780916801F01F
:1015E0000C01082900F09D80E368002B00F0EE80DC
:1015F000854B844D01221A60FFF736F9064605E057
:10160000FFF732F9801B022800F288802B687D4AA0
:101610009807F5D51168F82393FAA3F32069B3FA74
:1016200083F321F0F80100FA03F30B4313602368FE
:101630001A0720D4590734D4A269CAB1714B9968EA
:1016400001F00C01082977D0022A704A4FF00001FE
:10165000116000F0D2801C46FFF706F9054604E051
:10166000FFF702F9401B022858D823689B01F7D4E2
:10167000002003B0F0BD6369002B60D0644B614D66
:1016800001221A60FFF7F0F8064604E0FFF7ECF8D5
:10169000801B022842D86B6F9F07F7D52368590734
:1016A000CAD5584B5B4D002201921A6C42F0805211
:1016B0001A641B6C03F080530193019B2B6843F465
:1016C00080732B60FFF7D0F8064604E0FFF7CCF8F4
:1016D000801B022822D82B68DA05F7D5A368012BD6
:1016E00000F0F680052B00F0DA80464D2A6F22F0DC
:1016F00001022A672A6F22F004022A67002B40F0B9
:10170000D780FFF7B1F841F2883607462B6F98076C
:1017100092D5FFF7A9F8C01BB042F7D9032003B058
:10172000F0BD526856023FF55FAF364A1268950722
:1017300023D5E268012A20D0012003B0F0BD344A4D
:10174000304D1360FFF790F8064604E0FFF78CF881
:10175000801B0228E2D86B6F9807F7D49EE74A688F
:1017600050027FF510AF274A126891037FF52EAF24
:101770006268002A7FF42AAFDEE7224DF82229684A
:1017800092FAA2F22069B2FA82F221F0F80100FA8C
:1017900002F20A432A601A077FF54CAF6BE7194B38
:1017A0001A6842F480221A601A6842F480321A6081
:1017B000FFF75AF8134D064604E0FFF755F8801B73
:1017C0006428ABD82B689A03F7D5FEE60E4A0D4D78
:1017D0001360FFF749F8064604E0FFF745F8801B61
:1017E00002289BD82B689907F7D4236820E7054A7D
:1017F000136843F480331360DAE71D46FFF734F8CB
:1018000006460FE0003802400000474260004742B1
:10181000800E474200700040FFF726F8801B022828
:101820003FF67CAF2B682D4A9901F5D447F6C07678
:1018300096FAA6F64FF44033B6FA86F793FAA3F376
:101840004FF07065B3FA83F395FAA5F5A16A666A5D
:10185000D4F81CC0D4F820E0E06A4908BE40013941
:101860004CEA0E07B5FA85F401FA03F347EA0605D8
:1018700000FA04F12B431A480B4301215360016025
:101880001446FEF7F1FF054605E0FEF7EDFF401BAD
:1018900002283FF643AF23689A01F6D5E8E60F4BDE
:1018A0001A6F42F004021A671A6F42F001021A67B7
:1018B000FEF7DAFF094D074641F288362B6F9B078A
:1018C0003FF5BAAEFEF7D0FFC01BB042F6D925E710
:1018D000024A136F43F001031367E9E7003802403F
:1018E000600047421B4A936803F00C03042B2ED080
:1018F000082B2AD15368516803F03F0311F4800F7D
:1019000047F6C070516890FAA0F047F6C07202EA3C
:101910000102B0FA80F022FA00F014BF0E4A0F4A1A
:10192000B2FBF3F30B4A03FB00F352684FF4403071
:1019300090FAA0F002F44032B0FA80F022FA00F0FF
:1019400001304000B3FBF0F0704704487047024894
:10195000704700BF0038024000127A000024F400F3
:10196000564A136803F00F038B422DE9F04109D268
:10197000CBB21370136803F00F03994202D0012019
:10198000BDE8F08103689A0706D54D4D8268AC68C2
:1019900024F0F0042243AA60DF0706460C4626D551
:1019A0004368012B00F084809A1E012A444A126881
:1019B00078D99107E3D5424DAA6822F00302134378
:1019C000AB60FEF751FF7368012B074641F2883880
:1019D0004CD0022B55D0032B05D15DE0FEF744FF20
:1019E000C01B404561D8AB6813F00C0FF6D1334AE9
:1019F000136803F00F039C4206D2E3B2137013681E
:101A000003F00F039C42BAD133685A0706D52C481D
:101A1000F268816821F4E0510A4382601B0707D510
:101A2000274A3169936823F4604343EAC103936012
:101A3000FFF758FF224B0146F0229B6892FAA2F270
:101A4000B2FA82F203F0F003D3401E481E4AC35C90
:101A50000F2021FA03F31360FEF7CEFE0020BDE84D
:101A6000F081FEF701FFC01B40451ED8AB6803F0B4
:101A70000C03042BF5D1BAE7FEF7F6FEC01B404578
:101A800013D8AB6803F00C03082BF5D1AFE7FEF7D2
:101A9000EBFEC01B404508D8AB6803F00C030C2BD1
:101AA000F5D1A4E7900186D469E70320BDE8F08171
:101AB000034A126895033FF57EAF60E7003C0240A1
:101AC00000380240BC84000800000020084B4FF49E
:101AD000E0529B6892FAA2F2B2FA82F203F4E05367
:101AE000D3400449044ACB5C1068D840704700BF1B
:101AF00000380240CC84000800000020084B4FF45E
:101B000060429B6892FAA2F2B2FA82F203F4604356
:101B1000D3400449044ACB5C1068D840704700BFEA
:101B200000380240CC84000800000020F0B50368B3
:101B300013F0050F83B005460BD1286883073FD407
:101B400010F0080003D04E4B2A7C1A60002003B02E
:101B5000F0BD4C4B4C4C00221A60FEF785FE064649
:101B600004E0FEF781FE801B022826D82368464A3F
:101B70001F01F6D447F6C07191FAA1F14FF0E04091
:101B8000B1FA81F190FAA0F06C68AB683D4EB0FA02
:101B900080F004FA01F183400B430121C2F8843044
:101BA00031601446FEF760FE064623681801C4D46F
:101BB000FEF75AFE801B0228F7D9032003B0F0BDC0
:101BC000314B324C002201921A6C42F080521A645E
:101BD0001B6C03F080530193019B236843F48073D3
:101BE0002360FEF741FE064604E0FEF73DFE801B43
:101BF0000228E2D82368D905F7D523490B6F13F4DF
:101C00004072EB6803F4407010D082420ED00B6F2C
:101C10001F4A23F4407301240020146010600B67F6
:101C20000B6FDA071DD4EB6803F44070B0F5407F0A
:101C30000CD015498A6822F4F8128A6012490A6F9A
:101C4000C3F30B0313430B67286879E70E488168D9
:101C500023F0704221F4F81122F440720A438260AA
:101C6000ECE70C46FEF700FE41F288360746236F8C
:101C70009B07D8D4FEF7F8FDC01BB042F7D99CE70C
:101C8000E0114742680047420038024000700040BF
:101C9000400E4742002852D0F8B5437F044603F077
:101CA000FF02002B47D02368CA215322022060770D
:101CB00059625A62DA68510626D59A6825696069C0
:101CC0006668E168A76822F4E00222F040029A60A8
:101CD0009A6832432A4302439A6019611969A269DA
:101CE00041EA07411961D96821F08001D960196C76
:101CF00021F480211964196CFF250A4301211A641B
:101D000000205D626177F8BD4FF0FF32DA60FEF7C8
:101D1000ABFD05462368DA685206CED4FEF7A4FD73
:101D2000401BB0F57A7FF5D92268FF210423516268
:101D300001206377F8BD0277FEF7C4FCB3E701200A
:101D4000704700BF2DE9F843037F012B00F082802C
:101D500001240223047743770468002A3CD0A76853
:101D60004E780B7817F0400516BFCF78CD703D0444
:101D70004FEA06268F7808BF046846EA03433B43D0
:101D800043EA0507CA22532362626362E3685A0684
:101D90008846064661D507F07F3323F0FE43236073
:101DA000A168D8F80C30D8F8102021F48021A16067
:101DB000A1680B431343A360E36823F08003E3604F
:101DC000A3689B0664D50023FF21012261621846A7
:101DD00072773377BDE8F883A6680B7816F0400673
:101DE00015BFCE78CE7036040468092B63D9002263
:101DF0000A3BDBB2092B02F10102F9D84FEA021EBD
:101E00005FFA8EFE4A7843EA0E03092A4FEA034E30
:101E10004FF0000507D90A3AD2B2092A05F10105A7
:101E2000F9D82D01EDB28B782A43092B4FEA022510
:101E30004FF0000707D90A3BDBB2092B07F1010776
:101E4000F9D83F01FFB24EEA06022A433B4342EA79
:101E5000030797E70220BDE8F8834FF0FF33E36004
:101E6000FEF702FD81463468E36813F0400592D125
:101E7000FEF7FAFCC9EB0000B0F57A7FF3D93268BF
:101E8000FF2104235162012035777377BDE8F88381
:101E9000E36823F0A003E360FEF7E6FC074634683E
:101EA000E36813F020058ED1FEF7DEFCC01BB0F511
:101EB0007A7FF4D9E3E74FF0000EA3E70368F0B5AB
:101EC0009D6A1C691B684D6003F07F3323F0FE435D
:101ED000180CC3F30627C4F30E04DBB200F0400E67
:101EE00000F03F068C6081F803E00E704F708B703D
:101EF000BAB93D091C09360906EB860605EB8505CE
:101F000004EB840400F00F0007F00F0703F00F0349
:101F100000EB460007EB450503EB440408704D70E9
:101F20008C700020F0BD00BFF8B5037F012B61D09D
:101F3000012402230477437732B34A78CB788D7833
:101F40000C78110241EA03422A4342EA443403680E
:101F5000CA21532259625A62DA68510607464BD5A4
:101F600024F07F4424F0C0045C60DA6822F0800230
:101F7000DA609A6892065ED50022FF20012158623D
:101F8000104679773A77F8BD4B78DC064DD4CA789D
:101F9000092A4FF0000407D90A3AD2B2092A04F1FB
:101FA0000104F9D82401E4B22243092B4FEA02428A
:101FB0005BD900240A3BDBB2092B04F10104F9D8F8
:101FC0002501EDB28C782B43092C4FEA03254FF005
:101FD000000607D90A3CE4B2092C06F10106F9D83B
:101FE0003601F6B20B7842EA433242EA0503344343
:101FF0001C43ACE70220F8BD4FF0FF32DA60FEF779
:1020000033FC06463B68DA6812F04005A8D1FEF7BB
:102010002BFC801BB0F57A7FF4D93A68FF210423AA
:10202000516201203D777B77F8BD23F010030A331E
:10203000DBB24B70ABE7DA6822F0A002DA60FEF7A1
:1020400013FC05463B68DA6812F0200494D1FEF7D1
:102050000BFC401BB0F57A7FF4D93A68FF210423CA
:10206000516201203C777B77F8BD0025AAE700BFCD
:1020700003685B6823F07F4323F0C003F0B4C3F32D
:102080000725DEB2C3F3423705F01F001B0C0F70AB
:102090004870CB708E70BAB9000934091A098700EC
:1020A00004EB840405F00F0506F00F06384402EB3C
:1020B000820203F00F0306EB440405EB400003EB40
:1020C00042038C704870CB700020F0BC704700BF9A
:1020D0002DE9F047066837690546C068EC69D5F810
:1020E00008E02A69696927F4405738433061F3688A
:1020F000A8694EEA020223F416430A4323F00C03B4
:1021000022431343F360736923F440730343B4F52C
:10211000004F7361A34B5DD09E4200F0F68003F543
:1021200080639E4200F0F180FFF7D0FC6F68DFF81B
:10213000788200EB800000EB8000BF00B0FBF7F777
:10214000FFF7C4FC6C6800EB800000EB8000A4008B
:10215000B0FBF4F4FFF7BAFCA8FB07376B6800EBA1
:1021600080009B0000EB8000B0FBF3F0A8FB003088
:1021700040094FF0640A0AFB1044FFF7A7FC6968A6
:1021800000EB80008A0000EB8000B0FBF2F9FFF763
:102190009DFC24016A68323400EB80009200A8FBA9
:1021A000043400EB8000B0FBF2F0A8FB00307F09A4
:1021B000640940093F0104F0F0040AFB1092120187
:1021C0003232A8FB0223C3F343131C442744B760F5
:1021D000BDE8F0879E4259D003F580639E4255D0FA
:1021E000FFF774FC6F68DFF8C08100EB800000EB44
:1021F00080007F00B0FBF7F7FFF768FC6C6800EB2E
:10220000800000EB80006400B0FBF4F4FFF75EFC9C
:102210006A6800EB8000A8FB073700EB80005300E2
:10222000B0FBF3F3A8FB03235B094FF0640A0AFB3E
:102230001344E400FFF74AFC3234A8FB04346B6813
:102240007F09240900EB800000EB80005A003F0169
:1022500004F4F874B0FBF2F9FFF738FC696800EB9E
:10226000800000EB80004900B0FBF1F1A8FB0131D8
:1022700049090AFB1192D2003232A8FB0223C3F3B0
:1022800042133B441C44B460BDE8F087FFF736FCC2
:102290006F68DFF8148100EB800000EB80007F00A6
:1022A000B0FBF7F7FFF72AFC6C6800EB800000EB4F
:1022B00080006400B0FBF4F4FFF720FC6A6800EBD8
:1022C0008000A8FB073700EB80005300B0FBF3F35E
:1022D000A8FB03235B094FF0640A0AFB1344E400E4
:1022E000FFF70CFC3234A8FB04346B687F09240927
:1022F00000EB80005A003F0104F4F87400EB80000A
:10230000B0FBF2F9FFF7FAFBA8E7FFF7F7FB6F68FE
:10231000DFF8948000EB800000EB8000BF00B0FB92
:10232000F7F7FFF7EBFB6C6800EB800000EB800039
:10233000A400B0FBF4F4FFF7E1FB6A6800EB800057
:10234000A8FB073700EB80009300B0FBF3F3A8FB7A
:1023500003235B094FF0640A0AFB13442401FFF7CF
:10236000CDFB3234A8FB04346B6800EB80009A008C
:1023700000EB8000B0FBF2F9FFF7C0FB696800EBEF
:10238000800000EB80008900B0FBF1F1A8FB013177
:102390007F09640949093F0104F0F0040AFB119226
:1023A0000DE700BF001001401F85EB51704700BFD3
:1023B00060B338B590F83930044603F0FF0203B338
:1023C0002268242384F83930D36823F40053D3607F
:1023D0002046FFF77DFE23681A6922F490421A61B5
:1023E0005A6922F02A025A61DA680025202142F453
:1023F0000052DA602846E56384F8391084F83A1010
:1024000038BD80F83820FFF7D1FFD9E701207047A9
:10241000F0B50E4690F83910202983B002D0022082
:1024200003B0F0BD002E2ED0002A2CD01F4690F80D
:102430003830012B0446F2D0002001212123E06333
:1024400084F8381084F839300192FEF70DFA019AB9
:10245000A28405462068E284E38C9BB2002B3BD02B
:10246000E28CA368013A92B2B3F5805FE28418D09F
:102470007A1C3FD1026802F08002002AFAD0337839
:1024800043600136E8E70120CAE7036803F08003F0
:1024900073B9002F3AD0FEF7E7F9401B8742206856
:1024A00034D3791CF1D1026802F08002002AFAD0FC
:1024B00033882269C3F308034360002AE1D102365E
:1024C000CAE7036803F040036BB9FFB1FEF7CCF92C
:1024D000401B8742206819D37B1CF2D1036803F0AC
:1024E0004003002BFAD02023002084F8393084F8F0
:1024F000380095E7036803F08003002BBFD12FB1AC
:10250000FEF7B2F9401B87422068B1D2C36823F4BA
:10251000D073C3604369202223F00103002143618B
:1025200084F83920032084F8381084F83A2077E7BB
:102530001049114BD1F8882042F4700210B4C1F850
:1025400088201A680D4C002042F001021A60986041
:102550001A6822F0847222F480321A605C601A6871
:102560004FF0006422F480221A60D8608C605DF81D
:10257000044B704700ED00E00038024010300024AA
:10258000F0B52C4D89B02846FEF7E6FF38B1294852
:10259000FEF7E2FF203818BF012009B0F0BD264E3B
:1025A0000190264B2B60336B254A044643F002030F
:1025B000AC603363336B6A6003F002030193332230
:1025C0004FF480434FF44071EA602B6102220423F0
:1025D00003911C48DDF804E0069203A91227079333
:1025E00005940497FEF7C8F90294336C43F4001382
:1025F0003364336C03F400130293029B336A43F495
:1026000000133362336A23F40013336222462146F7
:102610001F20FEF753F91F20FEF788F922462146B6
:102620002020FEF74BF92020FEF780F92846FEF720
:102630009FFCACE714040020003802400054004026
:10264000801A060000040240F0B52C4D89B02846DF
:10265000FEF782FF38B12948FEF77EFF203818BF09
:10266000012009B0F0BD264E0190264B2B60336B44
:10267000254A044643F00203AC603363336B6A605F
:1026800003F00203019333224FF480434FF440716F
:10269000EA602B610222042303911C48DDF804E068
:1026A000069203A91227079305940497FEF764F98D
:1026B0000294336C43F400133364336C03F400135B
:1026C0000293029B336A43F400133362336A23F4A8
:1026D00000133362224621461F20FEF7EFF81F2029
:1026E000FEF724F9224621462020FEF7E7F82020B5
:1026F000FEF71CF92846FEF73BFCACE7140400206B
:102700000038024000540040801A060000040240D5
:1027100000207047F0B58DB000241D4D00942B6B48
:102720001C4E1D4843F001032B632B6B049403F0F4
:1027300001030227009302A910230293009A039633
:102740000597FEF719F9224621460A20FEF7B6F84A
:102750000A20FEF7EBF801942B6B10483B432B63E8
:102760002B6B08963B40019307A901230793019A1D
:102770000A970994FEF700F9224621460620FEF743
:102780009DF80620FEF7D2F820460DB0F0BD00BF40
:102790000038024000001110000002400004024016
:1027A0002DE9F0470F460178B12984B005469046DF
:1027B0001E461BD012D83D2913D04FF48053A97860
:1027C0001C4802930196CDF800803A460123FEF79B
:1027D00063FC30BB002004B0BDE8F087BC390129A0
:1027E000EBD8012E88BF47F08007E6E7002BF1D039
:1027F00000244FF4805A4FF0010901E0B442E9D0BF
:1028000008EB04033A19A9780A480093CDF808A008
:10281000CDF80490D2B20123FEF73EFC013400282B
:10282000ECD00448FEF71EFCFFF7AAFE012004B01E
:10283000BDE8F087140400202DE9F0470F46017829
:10284000B12984B0054690461E461BD012D83D29BA
:1028500013D04FF48053A9781C4802930196CDF809
:1028600000803A460123FEF701FD30BB002004B092
:10287000BDE8F087BC390129EBD8012E88BF47F0AD
:102880008007E6E7002BF1D000244FF4805A4FF088
:10289000010901E0B442E9D008EB04033A19A97830
:1028A0000A480093CDF808A0CDF80490D2B20123D5
:1028B000FEF7DCFC01340028ECD00448FEF7D2FB24
:1028C000FFF75EFE012004B0BDE8F087140400208D
:1028D000F8B500260F460E6005466B4C002800F048
:1028E0008C800128637E2AD1012B00F08480FFF7C1
:1028F000ABFE01287FD06923D4202375A07504F195
:10290000380304F1300E6149614A667504F1140020
:1029100025766676A676E576216223636663C4F83B
:102920001CE062623860236A1B68002B00F09E8006
:102930009847012858D0FFF7EDFE0020F8BD012B85
:102940002AD0FFF781FE012826D06921D422012355
:102950002175A27504F1300E4C4D4D49237604F1DA
:10296000380204F11400E37666756676A676256271
:102970006663C4F81CE0616222633860236A1B68E6
:10298000002B7AD098470128D5D13B681E605E6045
:102990009E60DE601E613E6063793B4D012B2AD054
:1029A000FFF752FE012826D06821D62201230026F7
:1029B0002970AA70EB7105F1280005F13C03354937
:1029C000354A6E702E716E71AE71E960AB622E6128
:1029D000EE62A8602A643D60EB681B68002B3DD066
:1029E0002846984701282DD13B681E605E609E6096
:1029F000DE601E613E600120F8BD6379012BFAD0D4
:102A0000FFF722FE0128F6D06822D6232270A37099
:102A1000012604F13C0304F128001E491E4A65709A
:102A200025716571A571E671E160A3622561E562BA
:102A3000A06022643C60E3681B687BB12046984735
:102A4000B04203D0FFF764FE0020F8BD3B681D6074
:102A50005D609D60DD601D613D60CCE7002323600B
:102A60006360A360E36023613B60C4E7636143602C
:102A70008360C36003613B60BDE763614360836063
:102A8000C36003613B6087E7680400200001002009
:102A90008C01002060000020FC06002060B108B519
:102AA000C3689B6833B19847A0F10100B0FA80F089
:102AB000400908BD012008BD0120704720B119B1AF
:102AC00003790B70002070470120704720B1026924
:102AD00012B10378692B01D0012070471369002BD4
:102AE000FAD0184780B1026972B110B411B10378FD
:102AF000692B03D001205DF8044B7047D369002B8C
:102B0000F8D05DF8044B184701207047E8B138B59C
:102B1000056915B10278692A01D0012038BD2A6AF9
:102B2000002AFAD0696A0029F7D0044690470128A4
:102B3000F3D00A20FDF79EFE6B6A20469847A0F16D
:102B40000100B0FA80F0400938BD0120704700BF95
:102B500088B102697AB110B411B10378692B03D03E
:102B600001205DF8044B7047D2F89430002BF7D069
:102B70005DF8044B18470120704700BFF0B587B0DF
:102B80000024104B00941A6B0F4D42F001021A639F
:102B90001B6B039403F001030646009355F82000D5
:102BA000009B20270223012201A90292049301978E
:102BB000FDF7E2FE2246394655F82600FDF7C8FF2C
:102BC00007B0F0BD0038024004000020034B012292
:102BD00053F820002021FDF7BBBF00BF04000020F8
:102BE000034B002253F820002021FDF7B1BF00BFA6
:102BF0000400002030B587B01B4B002500951C6BEE
:102C000044F004041C631B6B03F004030093009B5B
:102C100019B1012911D007B030BD144B029103EB5B
:102C200080004FF4005301934068022301A90393ED
:102C30000493FDF7A1FE07B030BD0C4B0C4A029285
:102C400003EB800001A94FF4005340680193039502
:102C5000FDF792FE2A460F212820FDF72FFE28209F
:102C6000FDF764FE07B030BD0038024004000020CC
:102C70000000211008B5044B03EB80004FF4005115
:102C80004068FDF75FFF08BD0400002008B5FFF7AE
:102C900087FDB0FA80F0400908BD00BF08B5FFF716
:102CA000CBFDB0FA80F0400908BD00BF08B50A4668
:102CB00001230F21FFF7C0FDB0FA80F0400908BDE5
:102CC00030B583B00C460DF10702012310210546F3
:102CD000FFF7B2FD10B1002003B030BD9DF8073002
:102CE00023F018031C430DF107022846012310218D
:102CF0008DF80740FFF754FDB0FA80F0400903B0AB
:102D000030BD00BF10B50A460C4601231021FFF765
:102D100093FD08B1002010BD237803F01803237041
:102D2000012010BD30B583B00C460DF10702012320
:102D300010210546FFF780FD10B1002003B030BD23
:102D40009DF8073003F01F031C430DF107022846CE
:102D5000012310218DF80740FFF722FDB0FA80F023
:102D6000400903B030BD00BF10B50A460C46012330
:102D70001021FFF761FD08B1002010BD237823F07A
:102D80001F032370012010BD30B583B00C460DF138
:102D90000702012320210546FFF74EFD10B1002058
:102DA00003B030BD9DF8073023F018031C430DF12C
:102DB00007022846012320218DF80740FFF7F0FC89
:102DC000B0FA80F0400903B030BD00BF10B50A462C
:102DD0000C4601232021FFF72FFD08B1002010BD74
:102DE000237803F018032370012010BD30B583B0A1
:102DF0000C460DF10702012320210546FFF71CFDBB
:102E000010B1002003B030BD9DF8073003F01F0360
:102E10001C430DF107022846012320218DF80740AD
:102E2000FFF7BEFCB0FA80F0400903B030BD00BF30
:102E300010B50A460C4601232021FFF7FDFC08B11E
:102E4000002010BD237823F01F032370012010BD44
:102E500030B583B00C460DF107020123222105464F
:102E6000FFF7EAFC10B1002003B030BD9DF8073039
:102E700023F040031C430DF10702284601232221C1
:102E80008DF80740FFF78CFCB0FA80F0400903B0E2
:102E900030BD00BF2DE9F04180460F4603260024D7
:102EA000A51CEDB204F118013A19C9B2012340463C
:102EB000FFF7C2FC0134E4B248B9A542F2D1731E57
:102EC00013F0FF062C46EBD10120BDE8F081002075
:102ED000BDE8F0812DE9F04180460F46032600242D
:102EE000A51CEDB204F128013A19C9B201234046EC
:102EF000FFF7A2FC0134E4B248B9A542F2D1731E37
:102F000013F0FF062C46EBD10120BDE8F081002034
:102F1000BDE8F08110B50A460C4601232721FFF7D2
:102F20008BFC08B1002010BD237803F0010323704F
:102F3000012010BD10B50A460C4601232721FFF7DA
:102F40007BFC08B1002010BD237803F0020323703E
:102F5000012010BD30B583B00C460DF107020123EE
:102F60001E210546FFF768FC10B1002003B030BDFC
:102F70009DF8073023F008031C430DF10702284693
:102F800001231E218DF80740FFF70AFCB0FA80F0FC
:102F9000400903B030BD00BF10B50A460C460123FE
:102FA0001E21FFF749FC08B1002010BD237803F073
:102FB00008032370012010BD30B583B00C460DF11D
:102FC000070201231E210546FFF736FC10B1002041
:102FD00003B030BD9DF8073023F010031C430DF102
:102FE0000702284601231E218DF80740FFF7D8FB72
:102FF000B0FA80F0400903B030BD00BF10B50A46FA
:103000000C4601231E21FFF717FC08B1002010BD5C
:10301000237803F010032370012010BD30B583B076
:103020000C460DF1070201231E210546FFF704FCA3
:1030300010B1002003B030BD9DF8073023F020030D
:103040001C430DF10702284601231E218DF807407D
:10305000FFF7A6FBB0FA80F0400903B030BD00BF17
:1030600010B50A460C4601231E21FFF7E5FB08B107
:10307000002010BD237803F020032370012010BD31
:1030800030B583B00C460DF1070201231F21054620
:10309000FFF7D2FB10B1002003B030BD9DF8073020
:1030A00023F008031C430DF10702284601231F21CA
:1030B0008DF80740FFF774FBB0FA80F0400903B0C9
:1030C00030BD00BF10B50A460C4601231F21FFF793
:1030D000B3FB08B1002010BD237803F00803237070
:1030E000012010BD30B583B00C460DF1070201235D
:1030F0001F210546FFF7A0FB10B1002003B030BD33
:103100009DF8073023F010031C430DF107022846F9
:1031100001231F218DF80740FFF742FBB0FA80F032
:10312000400903B030BD00BF10B50A460C4601236C
:103130001F21FFF781FB08B1002010BD237803F0A9
:1031400010032370012010BD30B583B00C460DF183
:10315000070201231F210546FFF76EFB10B1002077
:1031600003B030BD9DF8073023F020031C430DF160
:103170000702284601231F218DF80740FFF710FBA7
:10318000B0FA80F0400903B030BD00BF10B50A4668
:103190000C4601231F21FFF74FFB08B1002010BD93
:1031A000237803F020032370012010BD30B583B0D5
:1031B0000C460DF10702012322210546FFF73CFBD7
:1031C00010B1002003B030BD9DF8073023F0040398
:1031D0001C430DF107022846012322218DF80740E8
:1031E000FFF7DEFAB0FA80F0400903B030BD00BF4F
:1031F00010B582B00C460DF10701FFF78BFE40B110
:103200009DF8070040B1012803D12070002002B0D2
:1032100010BD012002B010BD207002B010BD00BF73
:1032200010B582B002AC012304F8012D2246FFF74D
:103230002DFDB0FA80F0400902B010BD08B50123A1
:10324000FFF72CFDB0FA80F0400908BD30B583B01F
:103250000D460DF105010446FFF734FF10B90120BA
:1032600003B030BD0DF106012046FFF75DFF0028D9
:10327000F5D020460DF10701FFF788FF0028EED0BA
:103280009DF805109DF806209DF80730A1F1080172
:10329000A2F11002A3F12003B1FA81F1B2FA82F295
:1032A000B3FA83F3490952095B0929706A70AB705C
:1032B0000020D5E7F0EE007AB4EEE70AF1EE10FA5E
:1032C00008B50DD9F1EE007AB4EEE70AF1EE10FA86
:1032D0000DD81021FFF758FDB0FA80F0400908BD65
:1032E0000021FFF751FDB0FA80F0400908BDF2EE71
:1032F000007AB4EEE70AF1EE10FA94BF1821082123
:10330000FFF742FDB0FA80F0400908BD022908B578
:103310000BD0042902D011B1012008BD1821FFF7FC
:1033200033FDB0FA80F0400908BD1021FFF72CFDF5
:10333000B0FA80F0400908BD10B582B00C460DF11E
:103340000701FFF743FD90B19DF80730182B29D8EE
:10335000DFE803F016282828282828281C282828F1
:103360002828282822282828282828281000012052
:1033700002B010BD4FF082430020236002B010BDA8
:103380004FF080430020236002B010BD4FF0834314
:103390000020236002B010BD4FF081430020236065
:1033A00002B010BD024B2360012002B010BD00BF6F
:1033B000000080BF10B582B00C460DF10701FFF789
:1033C00005FD90B19DF80730182B25D8DFE803F0F4
:1033D00015242424242424241A24242424242424C6
:1033E0001F242424242424241000012002B010BD12
:1033F0000C4B2360002002B010BD0B4B236000205B
:1034000002B010BD094B2360002002B010BD084B74
:103410002360002002B010BD064B2360012002B0E3
:1034200010BD00BF23DB793E23DB793D5A643B3F6F
:1034300023DBF93D000080BF08B5FFF737FCB0FA89
:1034400080F0400908BD00BF10B582B00C460DF1F8
:103450000701FFF76FFD48B19DF8070048B102284A
:1034600004D101230020237002B010BD012002B05E
:1034700010BD207002B010BD30B583B00D460DF107
:1034800005010446FFF788FD10B9012003B030BDE7
:103490000DF106012046FFF7B1FD0028F5D02046CA
:1034A0000DF10701FFF7DCFD0028EED09DF80510B7
:1034B0009DF806209DF80730A1F10801A2F1100245
:1034C000A3F12003B1FA81F1B2FA82F2B3FA83F3E5
:1034D000490952095B0929706A70AB700020D5E771
:1034E000DFED0E7AB4EEE70AF1EE10FA08B50ED968
:1034F000DFED0B7AB4EEE70AF1EE10FA94BF082183
:103500001821FFF7DDFBB0FA80F0400908BD00216B
:10351000FFF7D6FBB0FA80F0400908BD0000754304
:103520000000FA43022908B50BD0042902D011B1DA
:10353000012008BD1821FFF7C3FBB0FA80F0400955
:1035400008BD0821FFF7BCFBB0FA80F0400908BDB8
:1035500010B582B00C460DF10701FFF7D3FB58B14F
:103560009DF8070008280AD0182811D060B10B4B2D
:103570002360012002B010BD012002B010BD084B35
:103580002360002002B010BD064B236002B010BDC6
:10359000054B2360002002B010BD00BF000080BFBB
:1035A0000000FA43000075430000FA4410B582B0F1
:1035B0000C460DF10701FFF7A5FB58B19DF8070078
:1035C00008280AD0182811D060B10B4B23600120C5
:1035D00002B010BD012002B010BD084B23600020D6
:1035E00002B010BD064B236002B010BD054B236036
:1035F000002002B010BD00BF000080BF00008C4161
:1036000000000C4100008C4210B582B00C460DF158
:103610000701FFF7A9FBB8B19DF8070060281ED08D
:1036200009D9A02813D0C02825D080281FD0144B3A
:103630002360012009E020280DD0402813D0002865
:10364000F5D10023236000E0012002B010BD0D4B36
:1036500023600020F9E70C4B23600020F5E70B4BBB
:1036600023600020F1E70A4B23600020EDE7094BBF
:1036700023600020E9E7084B23600020E5E700BF56
:10368000000080BF0000EE43000070410000EE42E9
:103690000000704200006E4300006E4438B50B78A5
:1036A000012B0C460CBF082100210546FFF7E8FC62
:1036B000A0B16378012B0CBF102100212846FFF731
:1036C00011FD58B1A378012B28460CBF2021002101
:1036D000FFF73AFDB0FA80F0400938BD012038BD4F
:1036E00008B58379012B2CD0F2EE047A8368B4EE0E
:1036F000E70AF1EE10FA1B681FD9DFED2B7AB4EE62
:10370000E70AF1EE10FA18D9DFED287AB4EEE70AED
:10371000F1EE10FA11D9DFED267AB4EEE70AF1EEF8
:1037200010FA0AD9DFED237A9FED237AB4EEE70A87
:10373000F1EE10FA88BFF0EE477AC3ED007A002070
:1037400008BDF2EE047AB4EEE70AF1EE10FA1ED9E3
:10375000DFED157AB4EEE70AF1EE10FA1ED9DFEDCF
:10376000137AB4EEE70AF1EE10FA19D9DFED107A08
:10377000B4EEE70AF1EE10FA14D9DFED0E7AB4EEEA
:10378000E70AF1EE10FA94BFA021C02100E0202149
:10379000FFF72CFBB0FA80F0400908BD4021F7E7A5
:1037A0006021F5E78021F3E7000048420000EE4287
:1037B00000006E430000EE4300006E4408B58379BC
:1037C000012B14D083681B6804291CD8DFE801F0A2
:1037D000070703030B000F4A1A60002008BD0E4ABA
:1037E0001A60002008BD0D4A1A60002008BD042997
:1037F00009D8DFE801F00A0A03030C004021FFF7B3
:10380000F5FA0028E9D1012008BD2021F7E7602161
:10381000F5E700BF00004842000020410000EE42F2
:1038200038B50B78012B0C460CBF0821002105464A
:10383000FFF790FBA0B16378012B0CBF1021002192
:103840002846FFF7B9FB58B1A378012B28460CBFD7
:1038500020210021FFF7E2FBB0FA80F0400938BDDB
:10386000012038BD08B5FFF721FAB0FA80F0400911
:1038700008BD00BF08B50123FFF710FAB0FA80F0C9
:10388000400908BD10B582B002AC012304F8012D37
:103890002246FFF7FBF9B0FA80F0400902B010BDF4
:1038A0008379012B2BD083681B68D3ED007AB2EEAD
:1038B000047AF4EEC77AF1EE10FA10B508D8202198
:1038C0000446FFF793FAE0B10123A371002010BD75
:1038D0009FED147AF4EEC77AF1EE10FA13D99FED4A
:1038E000127AF4EEC77AF1EE10FA0ED99FED0F7A44
:1038F000F4EEC77AF1EE10FA09D88021E0E7002053
:103900007047012010BD4021DAE76021D8E79FED24
:10391000087AF4EEC77AF1EE10FA94BFA021C02124
:10392000CEE700BF000048420000EE4200006E43B8
:103930000000EE43F0B583B000240D466946ADF8B3
:1039400004400094FFF7A6FAB8B19DF805009DF871
:1039500001709DF800109DF803609DF802209DF80D
:10396000043001EB072103EB002302EB0622204683
:1039700029806A80AB8003B0F0BD012003B0F0BDA8
:10398000F0B583B000240D466946ADF804400094BC
:10399000FFF7A0FAB8B19DF805009DF801709DF8F9
:1039A00000109DF803609DF802209DF8043001EBA3
:1039B000072103EB002302EB0622204629806A80C0
:1039C000AB8003B0F0BD012003B0F0BDF0B583B013
:1039D00000230D466946ADF8043000930646FFF714
:1039E00059FA002846D09DF805709DF801C09DF851
:1039F00000409DF803E09DF802209DF8043004EBA0
:103A00000C2403EB0723304602EB0E226946A7B2D3
:103A100096B29CB2FFF776F960B39DF80030082BA0
:103A20002ED0182B29D02BBB9FED176A3BB206EE88
:103A3000903A33B207EE103A23B207EE903AF8EE1E
:103A4000E66AB8EEC77AF8EEE77A66EE866A27EE9F
:103A5000067A67EE867AFDEEE66ABDEEC77AFDEE7F
:103A6000E77A0020C5ED006A85ED017AC5ED027A9E
:103A700003B0F0BD012003B0F0BD9FED046AD5E7AF
:103A80009FED036AD2E700BF00000C4100008C42AA
:103A900000008C4110B582B002A9002301F8013D5D
:103AA0000446FFF703F910B9012002B010BD2378D6
:103AB0009DF80700181A18BF012002B010BD00BF02
:103AC00010B582B002A9002301F8013D0446FFF7BA
:103AD000EDF810B9012002B010BD23789DF8070061
:103AE000181A18BF012002B010BD00BF83681B6800
:103AF0005B681A78012A19D010B582B00C460DF116
:103B00000701FFF795F970B19DF8070060281ED0F6
:103B100010D9A0282BD0C02825D0802813D0164B30
:103B20002360012000E0012002B010BD5B680B6043
:103B300000207047202812D040280CD00028EED159
:103B400000232360F0E70D4B23600020ECE70C4BD3
:103B500023600020E8E70B4B23600020E4E70A4BDA
:103B600023600020E0E7094B23600020DCE7084BDE
:103B700023600020D8E700BF000080BF00006E4334
:103B80000000EE42000048420000204100006E4468
:103B90000000EE43F0B583B000230D466946ADF852
:103BA000043000930646FFF795F960B39DF8057061
:103BB0009DF801C09DF800409DF803E09DF80220AB
:103BC0009DF8043004EB0C2403EB0723304602EB92
:103BD0000E226946A7B296B29CB2FFF7F7F890B1F1
:103BE0009DF80030182B0ED8DFE803F03C0D0D0DCA
:103BF0000D0D0D0D390D0D0D0D0D0D0D360D0D0DA0
:103C00000D0D0D0D1000012003B0F0BD9FED176AE2
:103C10003BB206EE903A33B207EE103A23B207EE0B
:103C2000903AF8EEE66AB8EEC77AF8EEE77A66EE12
:103C3000866A27EE067A67EE867AFDEEE66ABDEEC4
:103C4000C77AFDEEE77A0020C5ED006A85ED017ABE
:103C5000C5ED027A03B0F0BD9FED056AD8E79FED90
:103C6000056AD5E79FED046AD2E700BF23DB793E02
:103C700023DBF93D5A643B3F23DB793DF0B583B04C
:103C800002AD82680023166805F8013D2946044606
:103C9000FFF70CF820B122789DF807309A4202D045
:103CA000012003B0F0BDA37913B3A3681F687B683C
:103CB0001A78012A12D029462046FFF7B9F80028C1
:103CC000EED09DF80730602B2BD018D8202B22D0B7
:103CD000402B23D0CBB900233B6001E05B683B6005
:103CE00000212046FFF782F80028D9D00023A371D5
:103CF0000023002218463260637103B0F0BDA02B90
:103D000006D0C02B13D0802B0ED00A4B3B60C7E7E8
:103D1000094B3B60E4E7094B3B60E1E7084B3B6044
:103D2000DEE7084B3B60DBE7074B3B60D8E7074B20
:103D30003B60D5E7000080BF0000EE43000020415B
:103D4000000048420000EE4200006E4300006E4456
:103D500083798BB3836830B51D686B681A78012A44
:103D600083B0044611D00DF10701FFF761F800B3ED
:103D70009DF80730602B30D013D8202B2AD0402B51
:103D80001FD0A3B900232B6001E05B682B600021EA
:103D90002046FFF72BF860B100231846A37103B04B
:103DA00030BDA02B10D0C02B08D0802B0FD00C4BD7
:103DB0002B60012003B030BD18467047094B2B60C3
:103DC000E5E7094B2B60E2E7084B2B60DFE7084B88
:103DD0002B60DCE7074B2B60D9E7074B2B60D6E75E
:103DE000000080BF00006E44000048420000EE4327
:103DF00000006E43000020410000EE4283790BB9C1
:103E00001846704730B5836883B00DF1070104464A
:103E10001D68FEF7A9FF60B19DF80730602B32D016
:103E20000AD9A02B26D0C02B1ED0802B25D0174B13
:103E30002B60012003B030BD202B21D0402B16D0A9
:103E4000002BF4D100232B6000212046FEF76AFFEF
:103E50000028EED06A68002313706A6800211846B3
:103E60005160A37103B030BD094B2B60ECE7094BE7
:103E70002B60E9E7084B2B60E6E7084B2B60E3E794
:103E8000074B2B60E0E7074B2B60DDE7000080BFAE
:103E900000006E44000070420000EE4300006E43DC
:103EA000000070410000EE4230B583B002A900244A
:103EB00001F8014D0546FEF7F9FE20B12A789DF87C
:103EC00007309A4202D0012003B030BD04212846B9
:103ED000FFF76CF90028F6D0AB68154A1B68402143
:103EE0001A602846FEF7B4FF0028ECD02146284689
:103EF000FEF77CFF0028E6D021462846FEF744FF67
:103F00000028E0D008212846FFF7BAF80028DAD0C8
:103F100010212846FFF7E6F80028D4D020212846B3
:103F2000FFF712F90028CED0012320466B71CBE7B2
:103F30000000EE4230B583B002A9002401F8014D23
:103F40000546FEF7B3FE20B12A789DF807309A4265
:103F500002D0012003B030BD04212846FFF726F926
:103F60000028F6D0AA68164B1268506813604021EA
:103F700043602846FEF76CFF0028EAD02146284619
:103F8000FEF7D0FE0028E4D018212846FEF798FE60
:103F90000028DED008212846FEF7DCFF0028D8D014
:103FA00010212846FFF708F80028D2D02021284603
:103FB000FFF734F80028CCD0012320466B71C9E705
:103FC0000000EE4270B582B002AD82680023166830
:103FD00005F8013D29460446FEF768FE10B90120A8
:103FE00002B070BD22789DF807309A42F7D1A379CC
:103FF00033B90023002218463260637102B070BDED
:10400000A368294620461D68FEF7AEFE0028E6D0CC
:104010009DF80730602B27D014D8202B1ED0402BC2
:104020001FD0ABB900232B6000212046FEF77AFE9B
:104030000028D4D06A68002313706A680021516098
:10404000A371D6E7A02B06D0C02B13D0802B0ED0A7
:104050000A4B2B60C3E70A4B2B60E5E7094B2B604B
:10406000E2E7094B2B60DFE7084B2B60DCE7084BEE
:104070002B60D9E7074B2B60D6E700BF000080BF5D
:104080000000EE4300007041000070420000EE426C
:1040900000006E4300006E448379012B2BD08368AF
:1040A00070B51D68D5ED007AB2EE0E7AF4EEC77ADF
:1040B000F1EE10FA82B007D820210446FEF732FE56
:1040C000D8B9012002B070BD9FED2E7AF4EEC77A08
:1040D000F1EE10FA2CD99FED2C7AF4EEC77AF1EEBE
:1040E00010FA27D99FED297AF4EEC77AF1EE10FA8B
:1040F0002BD88021E1E7002070470DF10701204611
:104100006E68FEF731FE0028DBD09DF80730602B8B
:104110002ED011D8202B25D0402B26D093B90023A8
:1041200073606A68012300201370A37102B070BD30
:104130004021C2E76021C0E7A02B10D0C02B1DD0CA
:10414000802B18D0124B7360BBE79FED127AF4EE10
:10415000C77AF1EE10FA94BFA021C021ADE70E4B53
:104160007360DEE70D4B7360DBE70D4B7360D8E7E0
:104170000C4B7360D5E70C4B7360D2E70B4B73604D
:10418000CFE700BF000070420000EE4200006E4327
:10419000000080BF0000EE430000EE4300007041CD
:1041A000000070420000EE4200006E4300006E44CA
:1041B0008379012B43D0F2EE0E7A8368B4EEE70ADE
:1041C000F1EE10FA1B6806D8C3ED007A5B68C3ED08
:1041D000017A00207047DFED5C7AB4EEE70AF1EE79
:1041E00010FA40D8B0EE677AF2EE0E7AB4EEE70A33
:1041F000F1EE10FA83ED007A5B68E8D9DFED527AD0
:10420000B4EEE70AF1EE10FAE1D9DFED507AB4EE40
:10421000E70AF1EE10FADAD9DFED4D7AB4EEE70AEB
:10422000F1EE10FAD3D9DFED4B7A9FED4B7AB4EE75
:10423000E70AF1EE10FA88BFF0EE477AC7E730B52B
:10424000F2EE0E7A8368B4EEE70AF1EE10FA83B06C
:104250001D6822D820210446FEF764FD00283BD1CA
:10426000012003B030BDDFED397AB4EEE70AF1EE9C
:1042700010FAB7D9DFED367AB4EEE70AF1EE10FAAC
:10428000B0D9DFED347A9FED347AB4EEE70AF1EE7F
:1042900010FA98BFB0EE677AA6E7DFED2B7AB4EE9E
:1042A000E70AF1EE10FA2DD9DFED287AB4EEE70A2D
:1042B000F1EE10FA28D9DFED267AB4EEE70AF1EE36
:1042C00010FA2CD9DFED237AB4EEE70AF1EE10FAFA
:1042D00094BFA021C021BEE720460DF107016C6804
:1042E000FEF742FD0028BBD09DF80730602B18D0A8
:1042F0000CD8202B24D0402B1FD06BB90023636037
:104300000020AEE74021A6E76021A4E7A02B11D052
:10431000C02B0CD0802B07D0104B6360A0E780210E
:1043200099E70F4B6360EBE70E4B6360E8E70E4BDA
:104330006360E5E70D4B6360E2E70D4B6360DFE729
:104340000C4B6360DCE700BF000070420000EE42EF
:1043500000006E430000EE4300006E44000080BF8A
:104360000000EE4200006E4300006E440000EE4389
:10437000000070420000704130B58379012B83B09A
:1043800014D083681B68042931D8DFE801F00A0AD9
:10439000030333005968294A1A604A60002003B0B9
:1043A00030BD5968264A1A604A60F7E704291ED8CA
:1043B000DFE801F027270303250040218368044636
:1043C0001D68FEF7AFFC90B120460DF107016C6847
:1043D000FEF7CAFC58B19DF80730602B13D015D8F2
:1043E000202B1CD0402B26D013B3164B636001202A
:1043F00003B030BD5968144A1A604A60CEE76021A4
:10440000DCE72021DAE7104B6360C7E7A02B0CD074
:10441000C02B07D0802BE8D10C4B6360BEE7084B64
:104420006360BBE70A4B6360B8E70A4B6360B5E7BC
:1044300000236360B2E7014B6360AFE700007042A6
:1044400000007041000080BF0000EE4200006E439B
:1044500000006E440000EE4308B5FEF7A1F9B0FA83
:1044600080F0400908BD00BF08B5FEF7E5F9B0FAD5
:1044700080F0400908BD00BF08B50A4601230F219E
:10448000FEF7DAF9B0FA80F0400908BD30B583B024
:104490000C460DF10702012312210546FEF7CCF967
:1044A00010B1002003B030BD9DF8073023F0400369
:1044B0001C430DF107022846012312218DF8074005
:1044C000FEF76EF9B0FA80F0400903B030BD00BFCE
:1044D00030B583B00C460DF10702012310210546CB
:1044E000FEF7AAF910B1002003B030BD9DF80730E7
:1044F00023F00C031C430DF1070228460123102171
:104500008DF80740FEF74CF9B0FA80F0400903B08F
:1045100030BD00BF10B50A460C4601231021FEF73E
:104520008BF908B1002010BD237803F00C03237031
:10453000012010BD2DE9F04180460F4603260024DE
:10454000A51CEDB204F128013A19C9B20123404675
:10455000FEF772F90134E4B248B9A542F2D1731EF4
:1045600013F0FF062C46EBD10120BDE8F0810020BE
:10457000BDE8F08130B583B00C460DF10702012390
:1045800010210546FEF758F910B1002003B030BDE8
:104590009DF8073003F00F031C430DF10702284676
:1045A000012310218DF80740FEF7FAF8B0FA80F0E9
:1045B000400903B030BD00BF10B50A460C460123C8
:1045C0001021FEF739F908B1002010BD237823F03F
:1045D0000F032370012010BD30B583B00C460DF1E0
:1045E0000702012311210546FEF726F910B100202C
:1045F00003B030BD9DF8073023F00C031C430DF1D0
:1046000007022846012311218DF80740FEF7C8F85C
:10461000B0FA80F0400903B030BD00BF10B50A46C3
:104620000C4601231121FEF707F908B1002010BD47
:10463000237803F00C032370012010BD30B583B044
:104640000C460DF10702012311210546FEF7F4F88F
:1046500010B1002003B030BD9DF8073003F00F0308
:104660001C430DF107022846012311218DF8074054
:10467000FEF796F8B0FA80F0400903B030BD00BFF5
:1046800010B50A460C4601231121FEF7D5F808B1F2
:10469000002010BD237823F00F032370012010BDEC
:1046A0002DE9F04180460F4603260024A51CEDB2FB
:1046B00004F122013A19C9B201234046FEF7BCF8C1
:1046C0000134E4B248B9A542F2D1731E13F0FF06DB
:1046D0002C46EBD10120BDE8F0810020BDE8F0813F
:1046E00030B583B00C460DF10702012311210546B8
:1046F000FEF7A2F810B1002003B030BD9DF80730DE
:1047000023F002031C430DF1070228460123112167
:104710008DF80740FEF744F8B0FA80F0400903B086
:1047200030BD00BF10B50A460C4601231121FEF72B
:1047300083F808B1002010BD237803F00203237032
:10474000012010BD30B583B00C460DF107020123E6
:1047500006210546FEF770F848B901230DF107025E
:10476000062128468DF80740FEF71AF810B1002000
:1047700003B030BD01230DF1070207212846FEF7E3
:104780005BF80028F3D19DF80730C4F3032423F02D
:104790000F031C430DF107022846012307218DF862
:1047A0000740FDF7FDFFB0FA80F04009E0E700BFE9
:1047B00030B583B00C460DF10702012308210546F0
:1047C000FEF73AF810B1002003B030BD9DF8073075
:1047D00023F007031C430DF107022846012308219B
:1047E0008DF80740FDF7DCFFB0FA80F0400903B018
:1047F00030BD00BF30B583B00C460DF10702012378
:1048000008210546FEF718F810B1002003B030BDAE
:104810009DF8073023F038031C430DF107022846AA
:10482000012308218DF80740FDF7BAFFB0FA80F0A8
:10483000400903B030BD00BF30B583B00C460DF168
:10484000070201230A210546FDF7F6FF10B10020FB
:1048500003B030BD9DF8073023F007031C430DF172
:104860000702284601230A218DF80740FDF798FF2B
:10487000B0FA80F0400903B030BD00BF30B583B05E
:104880000C460DF1070201230A210546FDF7D4FF6E
:1048900010B1002003B030BD9DF8073023F078033D
:1048A0001C430DF10702284601230A218DF8074019
:1048B000FDF776FFB0FA80F0400903B030BD00BFCD
:1048C00030B583B00C460DF1070201230D210546DA
:1048D000FDF7B2FF10B1002003B030BD9DF80730E6
:1048E00023F020031C430DF10702284601230D216C
:1048F0008DF80740FDF754FFB0FA80F0400903B08F
:1049000030BD00BF30B583B00C460DF10702012366
:104910000D210546FDF790FF10B1002003B030BD1A
:104920009DF8073003F07F031C430DF10702284672
:1049300001230D218DF80740FDF732FFB0FA80F01A
:10494000400903B030BD00BF30B583B00C460DF157
:104950000702012312210546FDF76EFF10B100206A
:1049600003B030BD9DF8073023F004031C430DF164
:1049700007022846012312218DF80740FDF710FF9A
:10498000B0FA80F0400903B030BD00BF30B583B04D
:104990000C460DF10702012313210546FDF74CFFDC
:1049A00010B1002003B030BD9DF8073023F00103A3
:1049B0001C430DF107022846012313218DF80740FF
:1049C000FDF7EEFEB0FA80F0400903B030BD00BF45
:1049D00030B583B00C460DF10702012314210546C2
:1049E000FDF72AFF10B1002003B030BD9DF807305D
:1049F00023F003031C430DF1070228460123142171
:104A00008DF80740FDF7CCFEB0FA80F0400903B006
:104A100030BD00BF30B583B00C460DF10702012355
:104A200014210546FDF708FF10B1002003B030BD8A
:104A30009DF8073023F00C031C430DF107022846B4
:104A4000012314218DF80740FDF7AAFEB0FA80F08B
:104A5000400903B030BD00BF30B583B00C460DF146
:104A60000702012318210546FDF7E6FE10B10020DC
:104A700003B030BD9DF8073023F008031C430DF14F
:104A800007022846012318218DF80740FDF788FE0C
:104A9000B0FA80F0400903B030BD00BF10B50A463F
:104AA0000C4601231821FDF7C7FE08B1002010BDF8
:104AB000237803F008032370012010BD30B583B0C4
:104AC0000C460DF10702012318210546FDF7B4FE3F
:104AD00010B1002003B030BD9DF8073023F0100363
:104AE0001C430DF107022846012318218DF80740C9
:104AF000FDF756FEB0FA80F0400903B030BD00BFAC
:104B000010B50A460C4601231821FDF795FE08B1A1
:104B1000002010BD237803F010032370012010BD86
:104B200030B583B00C460DF107020123182105466C
:104B3000FDF782FE10B1002003B030BD9DF80730B4
:104B400023F020031C430DF10702284601231821FE
:104B50008DF80740FDF724FEB0FA80F0400903B05D
:104B600030BD00BF10B50A460C4601231821FDF7E1
:104B700063FE08B1002010BD237803F020032370EA
:104B8000012010BD30B583B00C460DF107020123A2
:104B900019210546FDF750FE10B1002003B030BDCD
:104BA0009DF8073023F002031C430DF1070228464D
:104BB000012319218DF80740FDF7F2FDB0FA80F0CE
:104BC000400903B030BD00BF30B583B00C460DF1D5
:104BD0000702012319210546FDF72EFE10B1002022
:104BE00003B030BD9DF8073023F008031C430DF1DE
:104BF00007022846012319218DF80740FDF7D0FD53
:104C0000B0FA80F0400903B030BD00BF10B50A46CD
:104C10000C4601231921FDF70FFE08B1002010BD3D
:104C2000237803F008032370012010BD30B583B052
:104C30000C460DF10702012319210546FDF7FCFD85
:104C400010B1002003B030BD9DF8073023F01003F1
:104C50001C430DF107022846012319218DF8074056
:104C6000FDF79EFDB0FA80F0400903B030BD00BFF3
:104C700010B50A460C4601231921FDF7DDFD08B1E8
:104C8000002010BD237803F010032370012010BD15
:104C900030B583B00C460DF10702012319210546FA
:104CA000FDF7CAFD10B1002003B030BD9DF80730FC
:104CB00023F020031C430DF107022846012319218C
:104CC0008DF80740FDF76CFDB0FA80F0400903B0A5
:104CD00030BD00BF10B50A460C4601231921FDF76F
:104CE000ABFD08B1002010BD237803F02003237032
:104CF000012010BD30B583B00C460DF10702012331
:104D000019210546FDF798FD10B1002003B030BD14
:104D10009DF8073023F004031C430DF107022846D9
:104D2000012319218DF80740FDF73AFDB0FA80F014
:104D3000400903B030BD00BF10B50A460C46012340
:104D40001B21FDF779FD08B1002010BD237803F089
:104D500008032370012010BD10B50A460C4601233C
:104D60001B21FDF769FD08B1002010BD237803F079
:104D700020032370012010BD10B50A460C46012304
:104D80001C21FDF759FD08B1002010BD237803F068
:104D900010032370012010BD10B50A460C460123F4
:104DA0001C21FDF749FD08B1002010BD237803F058
:104DB00020032370012010BD10B50A460C460123C4
:104DC0001D21FDF739FD08B1002010BD237803F047
:104DD00001032370012010BD10B50A460C460123C3
:104DE0001D21FDF729FD08B1002010BD237803F037
:104DF00002032370012010BD10B50A460C460123A2
:104E00001D21FDF719FD08B1002010BD237803F026
:104E100004032370012010BD10B50A460C4601237F
:104E20001D21FDF709FD08B1002010BD237803F016
:104E300008032370012010BD10B50A460C4601235B
:104E40001D21FDF7F9FC08B1002010BD237803F007
:104E500010032370012010BD10B50A460C46012333
:104E60001D21FDF7E9FC08B1002010BD237803F0F7
:104E700020032370012010BD10B50A460C46012303
:104E80001D21FDF7D9FC08B1002010BD237803F0E7
:104E900040032370012010BD10B50A460C460123C3
:104EA0001E21FDF7C9FC08B1002010BD237803F0D6
:104EB00001032370012010BD10B50A460C460123E2
:104EC0001E21FDF7B9FC08B1002010BD237803F0C6
:104ED00002032370012010BD30B583B00D460123BD
:104EE0000DF107023A210446FDF7A6FC38B9204629
:104EF00001230DF106023B21FDF79EFC10B10020BD
:104F000003B030BD9DF806309DF8072003F00F0375
:104F100042EA032301202B8003B030BD10B50A46BE
:104F20000C4601233B21FDF787FC08B1002010BD92
:104F3000237803F010032370012010BD10B50A463A
:104F40000C4601233B21FDF777FC08B1002010BD82
:104F5000237803F020032370012010BD10B50A460A
:104F60000C4601233B21FDF767FC08B1002010BD72
:104F7000237803F040032370012010BD30B583B0C7
:104F80000D4601230DF107023C210446FDF754FCB8
:104F900038B9204601230DF106023D21FDF74CFCF6
:104FA00010B1002003B030BD9DF806309DF80720F9
:104FB00003F0030342EA032301202B8003B030BD3A
:104FC00010B50A460C4601235321FDF735FC08B104
:104FD000002010BD237803F010032370012010BDC2
:104FE00010B50A460C4601235321FDF725FC08B1F4
:104FF000002010BD237803F020032370012010BD92
:1050000030B583B00C460DF1070201235821054647
:10501000FDF712FC10B1002003B030BD9DF8073041
:1050200023F001031C430DF10702284601235821F8
:105030008DF80740FDF7B4FBB0FA80F0400903B0EB
:1050400030BD00BF30B583B00C460DF1070201231F
:1050500058210546FDF7F0FB10B1002003B030BD2C
:105060009DF8073023F002031C430DF10702284688
:10507000012358218DF80740FDF792FBB0FA80F02C
:10508000400903B030BD00BF30B583B00C460DF110
:105090000702012358210546FDF7CEFB10B1002081
:1050A00003B030BD9DF8073023F004031C430DF11D
:1050B00007022846012358218DF80740FDF770FBB1
:1050C000B0FA80F0400903B030BD00BF30B583B006
:1050D0000C460DF10702012358210546FDF7ACFBF4
:1050E00010B1002003B030BD9DF8073023F0080355
:1050F0001C430DF107022846012358218DF8074073
:10510000FDF74EFBB0FA80F0400903B030BD00BFA0
:1051100030B583B00C460DF1070201235821054636
:10512000FDF78AFB10B1002003B030BD9DF80730B9
:1051300023F020031C430DF10702284601235821C8
:105140008DF80740FDF72CFBB0FA80F0400903B062
:1051500030BD00BF30B583B00C460DF1070201230E
:1051600058210546FDF768FB10B1002003B030BDA3
:105170009DF8073023F040031C430DF10702284639
:10518000012358218DF80740FDF70AFBB0FA80F0A3
:10519000400903B030BD00BF30B583B00C460DF1FF
:1051A0000702012359210546FDF746FB10B10020F7
:1051B00003B030BD9DF8073004F01F0423F01F0337
:1051C0001C430DF107022846012359218DF80740A1
:1051D000FDF7E6FAB0FA80F0400903B030BD00BF39
:1051E00030B583B00C460DF1070201235921054665
:1051F000FDF722FB10B1002003B030BD9DF8073051
:1052000023F060031C430DF10702284601235921B6
:105210008DF80740FDF7C4FAB0FA80F0400903B0FA
:1052200030BD00BF30B583B00C460DF1070201233D
:105230005A210546FDF700FB10B1002003B030BD38
:105240009DF8073004F0030423F003031C430DF121
:105250000702284601235A218DF80740FDF7A0FADE
:10526000B0FA80F0400903B030BD00BF30B583B064
:105270000C460DF1070201235A210546FDF7DCFA21
:1052800010B1002003B030BD9DF80720A40004F049
:105290000C0322F00C041C430DF1070228460123E5
:1052A0005A218DF80740FDF77BFAB0FA80F04009EB
:1052B00003B030BD30B583B00C460DF107020123B9
:1052C0005A210546FDF7B8FA10B1002003B030BDF1
:1052D0009DF8073003F00F0343EA04140DF10702B1
:1052E000284601235A218DF80740FDF759FAB0FAF4
:1052F00080F0400903B030BD30B583B00C460DF1ED
:10530000070201235B210546FDF796FA10B1002044
:1053100003B030BD9DF8073004F03F0423F03F0395
:105320001C430DF10702284601235B218DF807403D
:10533000FDF736FAB0FA80F0400903B030BD00BF87
:1053400030B583B00C460DF1070201235B21054601
:10535000FDF772FA10B1002003B030BD9DF80730A0
:1053600003F07F031C430DF10702284601235B2154
:105370008DF80740FDF714FAB0FA80F0400903B049
:1053800030BD00BF30B583B00C460DF107020123DC
:105390005C210546FDF750FA10B1002003B030BD86
:1053A0009DF8073004F00F0423F00F031C430DF1A8
:1053B0000702284601235C218DF80740FDF7F0F92C
:1053C000B0FA80F0400903B030BD00BF30B583B003
:1053D0000C460DF1070201235C210546FDF72CFA6E
:1053E00010B1002003B030BD9DF8073023F010034A
:1053F0001C430DF10702284601235C218DF807406C
:10540000FDF7CEF9B0FA80F0400903B030BD00BF1F
:1054100030B583B00C460DF1070201235C2105462F
:10542000FDF70AFA10B1002003B030BD9DF8072047
:10543000640104F0600322F060041C430DF10702D4
:10544000284601235C218DF80740FDF7A9F9B0FA41
:1054500080F0400903B030BD30B583B00C460DF18B
:10546000070201235D210546FDF7E6F910B1002092
:1054700003B030BD9DF8073023F007031C430DF146
:105480000702284601235D218DF80740FDF788F9C2
:10549000B0FA80F0400903B030BD00BF70B582B0F3
:1054A0000E460DF1070201235D210546FDF7C4F903
:1054B00078B99DF8074004F0070444EAC6040123C4
:1054C0000DF107025D2128468DF80740FDF768F9C8
:1054D00010B1002002B070BD01230DF107025C2164
:1054E0002846FDF7A9F90028F3D19DF80730760981
:1054F00003F07F0343EAC6160DF107022846012395
:105500005C218DF80760FDF74BF9B0FA80F0400997
:10551000E0E700BF30B583B00C460DF10702012370
:105520005E210546FDF788F910B1002003B030BDBB
:105530009DF8073023F002031C430DF107022846B3
:1055400001235E218DF80740FDF72AF9B0FA80F0BB
:10555000400903B030BD00BF30B583B00C460DF13B
:10556000070201235E210546FDF766F910B1002010
:1055700003B030BD9DF8073023F004031C430DF148
:105580000702284601235E218DF80740FDF708F940
:10559000B0FA80F0400903B030BD00BF30B583B031
:1055A0000C460DF1070201235E210546FDF744F983
:1055B00010B1002003B030BD9DF8073023F0080380
:1055C0001C430DF10702284601235E218DF8074098
:1055D000FDF7E6F8B0FA80F0400903B030BD00BF37
:1055E00030B583B00C460DF1070201235E2105465C
:1055F000FDF722F910B1002003B030BD9DF807304F
:1056000023F010031C430DF10702284601235E21FD
:105610008DF80740FDF7C4F8B0FA80F0400903B0F8
:1056200030BD00BF30B583B00C460DF10702012339
:105630005E210546FDF700F910B1002003B030BD32
:105640009DF8073023F020031C430DF10702284684
:1056500001235E218DF80740FDF7A2F8B0FA80F033
:10566000400903B030BD00BF30B583B00C460DF12A
:10567000070201235E210546FDF7DEF810B1002088
:1056800003B030BD9DF8073023F040031C430DF1FB
:105690000702284601235E218DF80740FDF780F8B8
:1056A000B0FA80F0400903B030BD00BF30B583B020
:1056B0000C460DF1070201235F210546FDF7BCF8FA
:1056C00010B1002003B030BD9DF8073023F0020375
:1056D0001C430DF10702284601235F218DF8074086
:1056E000FDF75EF8B0FA80F0400903B030BD00BFAE
:1056F00030B583B00C460DF1070201235F2105464A
:10570000FDF79AF810B1002003B030BD9DF80730C6
:1057100023F004031C430DF10702284601235F21F7
:105720008DF80740FDF73CF8B0FA80F0400903B06F
:1057300030BD00BF30B583B00C460DF10702012328
:105740005F210546FDF778F810B1002003B030BDA9
:105750009DF8073023F008031C430DF1070228468B
:1057600001235F218DF80740FDF71AF8B0FA80F0A9
:10577000400903B030BD00BF30B583B00C460DF119
:10578000070201235F210546FDF756F810B10020FE
:1057900003B030BD9DF8073023F010031C430DF11A
:1057A0000702284601235F218DF80740FCF7F8FF28
:1057B000B0FA80F0400903B030BD00BF30B583B00F
:1057C0000C460DF1070201235F210546FDF734F871
:1057D00010B1002003B030BD9DF8073023F0200346
:1057E0001C430DF10702284601235F218DF8074075
:1057F000FCF7D6FFB0FA80F0400903B030BD00BF1F
:1058000030B583B00C460DF1070201235F21054638
:10581000FDF712F810B1002003B030BD9DF807303D
:1058200023F040031C430DF10702284601235F21AA
:105830008DF80740FCF7B4FFB0FA80F0400903B0E0
:1058400030BD00BF38B50A460C4601233E2105464F
:10585000FCF7F2FF48B9621C284601233F21FCF700
:10586000EBFFB0FA80F0400938BD002038BD00BF22
:1058700038B50A460C4601234B210546FCF7DCFFF0
:1058800048B9621C284601234C21FCF7D5FFB0FA29
:1058900080F0400938BD002038BD00BF70B501233D
:1058A00082B00C460DF1070219460546FCF7C4FF0D
:1058B00060B99DF80760012366F07F0619460DF177
:1058C000070228468DF80760FCF76AFF0DF1060213
:1058D00001230F212846FCF7AFFF9DF8063004F0A6
:1058E0001F0423F01F030DF106021C430F210123A7
:1058F00028468DF80640FCF753FF012319460DF1A9
:1059000007022846FCF798FF60B99DF8074001237D
:1059100004F07F040DF10702284619468DF8074070
:10592000FCF73EFF012002B070BD00BF08B5FEF7D6
:1059300009FFB0FA80F0400908BD00BF10B582B081
:105940000C460DF10701FEF7E5FD60B19DF807304B
:105950000C2B1FD8DFE803F00F1E1E1E141E1E1E88
:10596000191E1E1E0A00012002B010BD0C4B236040
:10597000002002B010BD0B4B2360002002B010BD10
:10598000094B2360002002B010BD084B23600020AB
:1059900002B010BD064B2360012002B010BD00BF55
:1059A00023DB793E23DB793D23DBF93E23DBF93D25
:1059B000000080BF10B582B00C460DF10701FEF764
:1059C000A9FD60B19DF807300C2B23D8DFE803F068
:1059D00010222222162222221C2222220A00012028
:1059E00002B010BD4FF082430020236002B010BD12
:1059F0004FF080430020236002B010BD4FF083437E
:105A00000020236002B010BD4FF0814300202360CE
:105A100002B010BD024B2360012002B010BD00BFD8
:105A2000000080BF08B5FFF757FAB0FA80F04009D0
:105A300008BD00BF08B5FFF705FFB0FA80F04009C8
:105A400008BD00BF08B5FFF799FAB0FA80F0400929
:105A500008BD00BF10B582B00C460DF10701FFF77D
:105A60007DFA48B19DF8070048B1402804D10123D0
:105A70000020237002B010BD012002B010BD2070C4
:105A800002B010BD10B582B00C460DF10701FFF752
:105A900045FA48B19DF8070048B1102804D1012308
:105AA0000020237002B010BD012002B010BD207094
:105AB00002B010BD10B582B00C460DF10701FFF722
:105AC0003DFA48B19DF8070048B1202804D10123D0
:105AD0000020237002B010BD012002B010BD207064
