:020000040000FA
:10600000A00D0020D5600000EF600000F1600000EE
:106010000000000000000000000000000000000080
:10602000000000000000000000000000F36000001D
:106030000000000000000000F5600000F7600000B4
:10604000F9600000F9600000DD630000F960000005
:10605000A96200000000000055610000F960000026
:1060600071630000F9600000F9600000F960000051
:10607000F9600000F9600000F9600000F9600000BC
:10608000F9600000F9600000F9600000F9600000AC
:10609000F9600000F9600000F9600000F96000009C
:1060A000F9600000F960000000000000000000003E
:1060B00000000000000000000000000000000000E0
:1060C0000348854600F034F800480047D1670000D7
:1060D000A00D00200321094802680A430260084815
:1060E00002680A4302600748804707480047FEE706
:1060F000FEE7FEE7FEE7FEE7FEE7000024050040BE
:106100005405004039630000C160000003460B43A2
:106110009B0703D009E008C9121F08C0042AFAD25D
:1061200003E00B780370401C491C521EF9D27047E3
:10613000064C0125064E05E0E36807CC2B430C3CDA
:1061400098471034B442F7D3FFF7BEFF0C7200003B
:106150002C720000F0B585B0304805690020304948
:10616000C863002654E0142070432E49096844187F
:106170000120B0402C4909680840002846D0002082
:1061800002900190E068C043684021680840039095
:106190002046039900F0AAFD204800696840216864
:1061A000084004900498002818D004986840009093
:1061B000E068C043009948402168084007463946D6
:1061C000204600F093FDA068009988433840019074
:1061D0006068009908403840029000BFA068A8435A
:1061E0000399084001990843019060682840039989
:1061F0000840029908430290019902980843002838
:1062000003D0226901990298904700BF701CC6B262
:10621000064800788642A6DB05B0F0BD00050050B8
:1062200040610040540000204C000020510000203C
:1062300010B5002819DA1A4A03071B0F083B9B0800
:106240009B00D2588307DC0EFF23A3409A438B07A1
:106250001B0E8407E40EA3401A43114B0407240FBE
:10626000083CA408A4001A5118E00E4A03231B029C
:10627000D21883089B00D2588307DC0EFF23A3406B
:106280009A438B071B0E8407E40EA3401A43054B69
:10629000032424021B198408A4001A5110BD000015
:1062A0001CED00E000E100E010B51B48806A00280A
:1062B0001FD000201849886218480078012816D19C
:1062C0001748006817494860174800681549403961
:1062D000486316480068886315480068114988605B
:1062E000012014498862022000F088FD00E000BF10
:1062F00000BF0948406800280CD0002006494860CB
:1063000006480078022803D1032000F077FD00E062
:1063100000BF00BF10BD000000410040440000204D
:10632000340000204045004038000020400000209C
:106330003C0000200040004010B500F013FA002897
:1063400005D0074807494860C8130749886100F02D
:10635000EDF9002802D001200449886010BD00003A
:10636000DFFF07C000050040006C00400006004051
:1063700010B513480078002808D012480278124857
:1063800001781248007800F055FC05E00D480178CE
:106390000D48007800F012FC0A480078401C0949BA
:1063A0000870084600780A490978884203DD0948E0
:1063B00000780449087000200749086010BD0000FB
:1063C0000500002004000020000000200100002043
:1063D0000300002002000020408100401CB523483B
:1063E0008068002822D000202049886020488069E9
:1063F000C1B2204800F0E3F80446002C08D0012088
:1064000069460870019468461B49096888470CE092
:10641000184800F01FF9012807D1002069460870CC
:10642000684615490968884700BF00BF0F48C06922
:10643000002805D000200D49C861032000F032FA81
:106440000A48406A00280FD00020084948620848DE
:106450008038046804600220694608700194684628
:1064600005490968884700BF1CBD000000210040A5
:10647000002500407C0500202400002030B4744634
:10648000641E2578641CAB4204D3635D5B00E31893
:1064900030BC18471D46F8E702E008C8121F08C1C3
:1064A000002AFAD170477047002001E001C1121F95
:1064B000002AFBD17047000010B5054800F0CAF86B
:1064C000002802D000F006F801E000F02DF810BD21
:1064D0008C05002008B50F480078022802D0012062
:1064E0000D49886069460D4800F054F8002802D034
:1064F00000F01AF808BD80200949886068460078D5
:106500000849C86102200349087080200449486096
:1065100000BFEFE728000020002000408C0500208D
:1065200000230040002500401CB501200549C8603B
:1065300005490870032069460870684603490968E0
:1065400088471CBD002000402800002024000020B7
:1065500000200549087001200449C86048600020F7
:106560000349086070470000280000200020004018
:106570000025004000BFBFF34F8F04480449C860A6
:10658000BFF34F8F00BF00BFFEE700000400FA0515
:1065900000ED00E070B504460D46204600F05FF8BF
:1065A00000280AD0A068A18808402168085C2870EB
:1065B000A068401CA060002070BD0520FCE770B5FD
:1065C00004460D46204600F04AF8A188884209D8C2
:1065D000E068A188084021680D54E068401CE06034
:1065E000002070BD0420FCE770B503460C46002A6D
:1065F00001D10D4D00E015882846002110E005125C
:1066000006023543A8B25D5C684005062D0F684060
:1066100005034540A8B205062D0D6D006840491CD4
:10662000A142ECD370BD0000FFFF0000012007492C
:10663000086000200649086001208107086000BF4B
:10664000034800680028FBD07047000000D00040DD
:106650000001004001468A68C868801A70470146F8
:106660008A68C868801A704710B500F02FFB0F4980
:10667000486200F01DFB0D49C861082048610C48C4
:10668000886100204863FE200A490870002406E063
:1066900000F01CFBC1B2074A601C1154C4B2FE2CAE
:1066A000F6DB04480149486010BD000000150040B9
:1066B000FF00040358000020054A1178022901D187
:1066C000002004E0002901D1012000E002207047F1
:1066D000060000200720144A1178F0291AD008DC9F
:1066E00000290FD004290BD0D82918D0EC2915D1B6
:1066F00012E0F4290CD0F82908D0FC290ED103E0CF
:1067000000200EE001200CE002200AE0032008E057
:10671000042006E0052004E0062002E000BF072078
:1067200000BF00BF70470000070000200C48008C2D
:10673000C0B2012812D10A48808C0007000F00283F
:106740000CD10748806AF0210840402806D104484F
:10675000C06A0840002801D1012070470020FCE7F2
:10676000C00F00F01948008CC0B201282CD1174886
:10677000808C0007000F002826D11448806AF02181
:106780000840002806D11148C06A0840002801D1FD
:10679000012070470D48806AF0210840102806D17A
:1067A0000A48C06A0840002801D10120F1E70748E3
:1067B000806AF0210840302806D10448C06A0840A9
:1067C000002801D10120E4E70020E2E7C00F00F03B
:1067D000FFF72CFF00F0A8FB082001218140044AAC
:1067E000116000BF62B602E020BF40BF20BFFBE7E0
:1067F00000E100E010B508480078012802D0022826
:1068000007D102E0FFF7A4FE04E00320024908706C
:1068100000E000BF00BF10BD2800002010B51048E8
:106820000078002802D0032816D111E004200D4979
:10683000086001200C4908600C48FFF70BFF002896
:1068400002D0FFF747FE02E001200549087004E08E
:1068500002200349087000E000BF00BF10BD000027
:106860002800002000250040002000408C0500206A
:1068700010B509480078012807D0022804D0032861
:1068800006D1FFF765FE04E000BFFFF715FE00E04C
:1068900000BF00BF10BD00002800002010B5FFF7AA
:1068A00057FE10BD10B504462300FFF7E7FD0504B1
:1068B000070D0A101300FFF79DFF0CE0FFF7AEFF76
:1068C00009E0FFF7D5FF06E000F008F803E0FFF766
:1068D000E5FF00E000BF00BF10BD000010B5034899
:1068E0000078012801D1FFF7F5FD10BD2800002038
:1068F00073B56846C4880021C18000220821FFF7D3
:1069000073FE0546A54201D101207CBD0020FCE7B5
:1069100010B510480078802108430E490870FFF731
:10692000CBFE0C498871FFF7D5FE0A49C8710A48A9
:10693000007808720948007848720948007888721F
:106940000020888000220C210248FFF74DFE0149FB
:10695000888010BD58010020080000200900002098
:106960000A00002008B5714800786D283AD007DC8D
:1069700061380300FFF782FD05111A232730540008
:10698000722841D004DC6F2833D0702848D134E01D
:1069900074283DD0782843D13EE06448807864492B
:1069A000087064480078644908703AE05F48C0782D
:1069B000624908705F4800785F49087031E0012043
:1069C0005D4908702DE0594800795D4908705948C3
:1069D00000785949087024E000F022F90020554958
:1069E00008701EE000F0C2F9524800785249087061
:1069F00017E002205049087013E000F0CDF94D482F
:106A000000784D4908700CE005204B49087008E0FB
:106A100003204949087004E004204749087000E059
:106A200000BF00BF444800780300FFF727FD067B46
:106A3000041D364E657A43480078002804D000F0E3
:106A4000EFF800203F490870394802783E48017845
:106A50003E48007800F0EEF8374800783549087075
:106A60000020354908705EE036480078002804D0E0
:106A700000F0D6F80020334908702D4802783248DB
:106A800001783248007800F07FF82B4800782949D7
:106A9000087000202849087045E0294800780090D7
:106AA000264803782248027827480178274800784A
:106AB00000F0DCF80120234908701F4800781D49C8
:106AC000087000201C4908702DE01E48007800283E
:106AD00004D000F0A5F800201A4908701448017885
:106AE0001948007800F06AF81348007811490870D6
:106AF00000201149087016E0114803780F48027809
:106B00000B4801781048007800F06CF801200D491E
:106B10000870094800780749087000200649087085
:106B200001E000BF00BF00BF08BD00000E00002054
:106B3000080000200D0000200C00002009000020AB
:106B40000A0000200B0000200600002007000020A3
:106B500000200949086009490861094908600120C5
:106B60000849086100BF054800690028FBD00020E3
:106B70000249086170470000001200400011004007
:106B8000401500400010004070B506460C46154602
:106B9000FFF7DEFFFFF768FD07200549086005489D
:106BA000C6600461856001200349086070BD000073
:106BB00000120040001500400010004070B505466E
:106BC0000C46FFF7C5FF01200349086003488460B5
:106BD00001200349486070BD0012004000150040CC
:106BE00000100040F8B505460C4616461F460748FB
:106BF00005700748047007480470074806700020B5
:106C000006490870384600F0DFFAF8BD00000020A1
:106C100002000020040000200300002005000020E6
:106C200010B5012002494860FFF792FF10BD000037
:106C30000080004070B506460C461546FFF788FFF9
:106C40000120074908600748C66004618560032089
:106C500004494031086001200349086070BD00000C
:106C6000001200400015004000100040F8B5054635
:106C70000E4614461F460848057008480670084826
:106C8000047008480470084807700120074908701C
:106C9000069800F099FAF8BD0100002000000020DD
:106CA0000200002004000020030000200500002056
:106CB00070B50024002505E0240200F007F8044325
:106CC000681CC5B2042DF7DB204670BD00200549C5
:106CD000086000BF034800680028FBD002488068B5
:106CE0007047000000D1004000D50040F0B50246DA
:106CF0000C46002037E001238340194623460B4011
:106D0000002B2FD0D5680D40002D05D101235B0449
:106D1000D5680D43D56004E003231B04D5688D437B
:106D2000D56005252D0707263602AD198600AD5919
:106D300003263604B5430526360707273F02F61912
:106D40008700F55105252D0707263602AD19860067
:106D5000AD591D430526360707273F02F619870060
:106D6000F55100BF401C2028C5D3F0BD0849487824
:106D7000002803D10221074A117008E0012803D13D
:106D80000021044A117002E00121024A117070478B
:106D90000E0000200600002000B5164948790300C7
:106DA000FFF76CFB0805090D1115191D222104219F
:106DB000114A11701CE000210F4A117018E0FC21EB
:106DC0000D4A117014E0F8210B4A117010E0F42103
:106DD000094A11700CE0F021074A117008E0EC211B
:106DE000054A117004E000BFD821034A117000BFAA
:106DF00000BF00BD0E0000200700002010B50446B3
:106E00000248047000F086F910BD00004400002024
:106E1000FFB581B005460E461746002D01D0002E65
:106E200002D10E2005B0F0BD10480078002806D031
:106E3000012814D0022804D0032812D100E000BF9A
:106E400000BF0B4805600B4806600B4807600B4904
:106E50000498086000240120FFF7D0FF03E0082415
:106E600001E0032400BF00BF2046DBE74400002010
:106E700034000020380000203C00002040000020AA
:106E800037B582B06846007A012835D108221B49FF
:106E90001B48FFF73BF9082219496846FFF736F906
:106EA00001990098FFF724FD002805D01448C088F8
:106EB00014490880FFF756FD1148C0881149088021
:106EC00011494880FFF724FD0C220F490F48FFF7B6
:106ED0001DF90C231A4609490C48FFF799FF04468F
:106EE00000BF2546002D06D000BF002211462846CF
:106EF000FFF740FB00BF00BF05B030BD70010020B0
:106F00000E0000201600002058010020640100201F
:106F10000146044801600068002801D00020704745
:106F20000E20FCE74800002030B585B02248FFF76E
:106F3000EFFF044600BF2546002D06D000BF00220B
:106F400011462846FFF716FB00BF00BF082000903F
:106F5000092001900A2002900B200390002168462E
:106F6000017401214174FF218174C17400F02AF879
:106F7000044600BF2546002D06D000BF0022114662
:106F80002846FFF7F7FA00BF00BF08230C220B4981
:106F90000B48FFF73DFF044600BF2546002D06D0F5
:106FA00000BF002211462846FFF7E4FA00BF00BFE9
:106FB000002005B030BD0000816E00000E000020F2
:106FC0005801002070B50446002C01D10E2070BD80
:106FD00046480068000205210907072212028918A5
:106FE0002268920088504248006880000521090705
:106FF000072212028918E2689200885000200521B9
:10700000090707221202891862689200885000213D
:1070100005200007072212028018A2689200815002
:107020003449E0684861A068886060680861206849
:10703000C860002088632F49403188600025002601
:10704000207C002806D0012806D0022806D003287C
:1070500008D105E0002507E0022505E0042503E04E
:10706000062501E0072600BF00BF002E01D03046F4
:10707000ADE7607C00280BD1012028431D49403139
:107080004861A07CC861E07C1A49C03108600AE010
:10709000184840304561A07C16494031C861E07C09
:1070A0001449C031086000201349486088620420F8
:1070B0001249086000201249087003210420FFF7DC
:1070C000B7F80420012181400E4A116000BF0E482C
:1070D0000E4948600420012181400D4A116000BF23
:1070E000022004490860304671E7000030000020AB
:1070F0002C000020004500400041004000420040BC
:107100004400002080E200E0020400000043004050
:1071100000E100E03EB528480078012804D00228AC
:1071200006D0032845D121E001202449486241E0EE
:107130000020694608700190029000BF2048006856
:10714000002801D0012000E000200446002C06D1D8
:1071500000BF002211461046FFF70CFA00BF00BF27
:10716000174B684607C81B68984723E0012069460B
:1071700008701448C06B019012484030C0680290FB
:1071800000BF0F480068002801D0012000E0002067
:107190000446002C06D100BF002211461046FFF71E
:1071A000E9F900BF00BF064B684607C81B6898474F
:1071B00000E000BF00BF3EBD440000200040004092
:1071C000480000200045004001210C4A51600C4A53
:1071D000116000210B4A516002219160042111616C
:1071E0008903094A51607D21C9004143054A403263
:1071F00011600121014A11607047000000800040C9
:107200000082004000850040008300402C72000096
:107210000000002058000000986400008472000004
:1072200058000020480D0000A86400000000000085
:107230000000010000500A000000000000000000F3
:107240000000FF000024F400010000000000000026
:10725000000000000000000000000000000000002E
:10726000000000000000000000000000000000001E
:10727000000000000000000000000000000000000E
:04728000000000000A
:04000005000060C1D6
:00000001FF
