:020000040800F2
:100000000040012095310008F5300008F930000863
:10001000DD310008DD310008DD310008000000009E
:10002000000000000000000000000000DD310008BA
:10003000FD30000800000000DD310008013100083B
:10004000DD310008DD310008DD310008DD31000858
:10005000DD310008DD310008DD310008DD31000848
:10006000DD310008DD310008DD310008DD31000838
:10007000DD310008DD310008DD310008DD31000828
:10008000DD310008DD310008DD310008DD31000818
:10009000DD310008DD310008DD310008DD31000808
:1000A000DD310008DD310008DD310008DD310008F8
:1000B000DD310008DD310008DD310008DD310008E8
:1000C000DD310008DD310008DD310008DD310008D8
:1000D000DD310008DD310008DD310008DD310008C8
:1000E00005310008DD310008DD310008DD31000890
:1000F000DD31000800000000DD310008DD310008BE
:10010000DD310008DD310008DD310008DD31000897
:10011000DD310008DD310008DD310008000000009D
:10012000DD310008000000000000000000000000B9
:1001300000000000000000005FF808F1044B0548D3
:100140001B1A062B02D9044B03B11847704700BF96
:100150007F0500207C0500200000000005490648BE
:10016000091A891001EBD171491002D0034B03B178
:10017000184770477C0500207C0500200000000027
:1001800010B5064C237843B9FFF7D8FF044B13B1E1
:100190000448AFF300800123237010BD7C050020CC
:1001A0000000000068DE000808B5084B1BB10849D4
:1001B0000848AFF300800848036813B9BDE8084059
:1001C000CCE7064B002BF9D09847F7E7000000007A
:1001D0008005002068DE00087C050020000000008B
:1001E000034613F8012B002AFBD1181A0138704777
:1001F00081F0004102E000BF83F0004330B54FEAD8
:1002000041044FEA430594EA050F08BF90EA020F44
:100210001FBF54EA000C55EA020C7FEA645C7FEAD7
:10022000655C00F0E2804FEA5454D4EB5555B8BFFA
:100230006D420CDD2C4480EA020281EA030382EA6B
:10024000000083EA010180EA020281EA0303362DFD
:1002500088BF30BD11F0004F4FEA01314FF4801CD0
:100260004CEA113102D0404261EB410113F0004FE2
:100270004FEA03334CEA133302D0524263EB430399
:1002800094EA050F00F0A780A4F10104D5F1200E37
:100290000DDB02FA0EFC22FA05F2801841F1000192
:1002A00003FA0EF2801843FA05F359410EE0A5F166
:1002B00020050EF1200E012A03FA0EFC28BF4CF097
:1002C000020C43FA05F3C01851EBE37101F000454D
:1002D00007D54FF0000EDCF1000C7EEB00006EEB5A
:1002E0000101B1F5801F1BD3B1F5001F0CD34908E4
:1002F0005FEA30004FEA3C0C04F101044FEA44523B
:1003000012F5800F80F09A80BCF1004F08BF5FEAC1
:10031000500C50F1000041EB045141EA050130BDA1
:100320005FEA4C0C404141EB010111F4801FA4F144
:100330000104E9D191F0000F04BF01460020B1FA99
:1003400081F308BF2033A3F10B03B3F120020CDAD1
:100350000C3208DD02F1140CC2F10C0201FA0CF0AF
:1003600021FA02F10CE002F11402D8BFC2F1200C14
:1003700001FA02F120FA0CFCDCBF41EA0C019040CA
:10038000E41AA2BF01EB0451294330BD6FEA040413
:100390001F3C1CDA0C340EDC04F11404C4F12002FE
:1003A00020FA04F001FA02F340EA030021FA04F310
:1003B00045EA030130BDC4F10C04C4F1200220FA67
:1003C00002F001FA04F340EA0300294630BD21FAA5
:1003D00004F0294630BD94F0000F83F4801306BF6B
:1003E00081F480110134013D4EE77FEA645C18BF5F
:1003F0007FEA655C29D094EA050F08BF90EA020FF6
:1004000005D054EA000C04BF1946104630BD91EAED
:10041000030F1EBF0021002030BD5FEA545C05D1F0
:100420004000494128BF41F0004130BD14F580042F
:100430003CBF01F5801130BD01F0004545F0FE41A3
:1004400041F470014FF0000030BD7FEA645C1ABFD8
:10045000194610467FEA655C1CBF0B46024650EA0F
:10046000013406BF52EA033591EA030F41F400213B
:1004700030BD00BF90F0000F04BF0021704730B5C1
:100480004FF4806404F132044FF000054FF0000196
:1004900050E700BF90F0000F04BF0021704730B557
:1004A0004FF4806404F1320410F0004548BF40422C
:1004B0004FF000013EE700BF42004FEAE2014FEA81
:1004C00031014FEA02701FBF12F07F4393F07F4F5C
:1004D00081F06051704792F0000F14BF93F07F4F8E
:1004E000704730B54FF4607401F0004521F00041D1
:1004F00020E700BF50EA010208BF704730B54FF057
:1005000000050AE050EA010208BF704730B511F05B
:10051000004502D5404261EB41014FF4806404F193
:1005200032045FEA915C3FF4DCAE4FF003025FEA15
:10053000DC0C18BF03325FEADC0C18BF033202EB9D
:10054000DC02C2F1200300FA03FC20FA02F001FAF7
:1005500003FE40EA0E0021FA02F11444C1E600BF96
:1005600070B54FF0FF0C4CF4E06C1CEA11541DBF49
:100570001CEA135594EA0C0F95EA0C0F00F0DEF814
:100580002C4481EA030621EA4C5123EA4C5350EAF9
:10059000013518BF52EA033541F4801143F480134A
:1005A00038D0A0FB02CE4FF00005E1FB02E506F0DB
:1005B0000042E0FB03E54FF00006E1FB03569CF030
:1005C000000F18BF4EF0010EA4F1FF04B6F5007F36
:1005D00064F5407404D25FEA4E0E6D4146EB0606A8
:1005E00042EAC62141EA55514FEAC52040EA5E5031
:1005F0004FEACE2EB4F1FD0C88BFBCF5E06F1ED8DB
:10060000BEF1004F08BF5FEA500E50F1000041EB11
:10061000045170BD06F0004646EA010140EA0200BE
:1006200081EA0301B4EB5C04C2BFD4EB0C0541EAE0
:10063000045170BD41F480114FF0000E013C00F3F5
:10064000AB8014F1360FDEBF002001F0004170BD19
:10065000C4F10004203C35DA0C341BDC04F1140432
:10066000C4F1200500FA05F320FA04F001FA05F2BE
:1006700040EA020001F0004221F0004110EBD3708B
:1006800021FA04F642EB06015EEA430E08BF20EAB7
:10069000D37070BDC4F10C04C4F1200500FA04F35A
:1006A00020FA05F001FA04F240EA020001F00041EC
:1006B00010EBD37041F100015EEA430E08BF20EA5F
:1006C000D37070BDC4F1200500FA05F24EEA020EA7
:1006D00020FA04F301FA05F243EA020321FA04F0D6
:1006E00001F0004121FA04F220EA020000EBD3708D
:1006F0005EEA430E08BF20EAD37070BD94F0000F8D
:100700000FD101F00046400041EB010111F4801FC0
:1007100008BF013CF7D041EA060195F0000F18BF71
:10072000704703F00046520043EB030313F4801FAD
:1007300008BF013DF7D043EA0603704794EA0C0F67
:100740000CEA135518BF95EA0C0F0CD050EA41067D
:1007500018BF52EA4306D1D181EA030101F00041FA
:100760004FF0000070BD50EA410606BF1046194622
:1007700052EA430619D094EA0C0F02D150EA01362E
:1007800013D195EA0C0F05D152EA03361CBF10466F
:1007900019460AD181EA030101F0004141F0FE410E
:1007A00041F470014FF0000070BD41F0FE4141F492
:1007B000780170BD70B54FF0FF0C4CF4E06C1CEA92
:1007C00011541DBF1CEA135594EA0C0F95EA0C0F47
:1007D00000F0A7F8A4EB050481EA030E52EA033502
:1007E0004FEA013100F088804FEA03334FF0805523
:1007F00045EA131343EA12634FEA022245EA111550
:1008000045EA10654FEA00260EF000419D4208BF00
:10081000964244F1FD0404F5407402D25B084FEAAD
:100820003202B61A65EB03055B084FEA32024FF459
:1008300080104FF4002CB6EB020E75EB030E22BFB6
:10084000B61A754640EA0C005B084FEA3202B6EB76
:10085000020E75EB030E22BFB61A754640EA5C0025
:100860005B084FEA3202B6EB020E75EB030E22BFB5
:10087000B61A754640EA9C005B084FEA3202B6EBB6
:10088000020E75EB030E22BFB61A754640EADC0075
:1008900055EA060E18D04FEA051545EA16754FEAD7
:1008A00006164FEAC30343EA52734FEAC2025FEAF5
:1008B0001C1CC0D111F4801F0BD141EA00014FF084
:1008C00000004FF0004CB6E711F4801F04BF014355
:1008D0000020B4F1FD0C88BFBCF5E06F3FF6AFAE71
:1008E000B5EB030C04BFB6EB020C5FEA500C50F101
:1008F000000041EB045170BD0EF0004E4EEA113184
:1009000014EB5C04C2BFD4EB0C0541EA045170BD8A
:1009100041F480114FF0000E013C90E645EA060ECE
:100920008DE60CEA135594EA0C0F08BF95EA0C0FFC
:100930003FF43BAF94EA0C0F0AD150EA01347FF444
:1009400034AF95EA0C0F7FF425AF104619462CE71B
:1009500095EA0C0F06D152EA03353FF4FDAE10467E
:10096000194622E750EA410618BF52EA43067FF4CF
:10097000C5AE50EA41047FF40DAF52EA43057FF45F
:10098000EBAE12E74FEA410212F5001215D211D573
:100990006FF47873B3EB625212D94FEAC12343F07C
:1009A000004343EA505311F0004F23FA02F018BFFE
:1009B000404270474FF00000704750EA013005D1C7
:1009C00011F0004008BF6FF0004070474FF000008A
:1009D000704700BF80F0004002E000BF81F000419E
:1009E00042001FBF5FEA410392EA030F7FEA226CD5
:1009F0007FEA236C6AD04FEA1262D2EB1363C1BF65
:100A0000D218414048404140B8BF5B42192B88BFD3
:100A1000704710F0004F40F4000020F07F4018BFF6
:100A2000404211F0004F41F4000121F07F4118BF16
:100A3000494292EA030F3FD0A2F1010241FA03FCBE
:100A400010EB0C00C3F1200301FA03F100F00043A6
:100A500002D5494260EB4000B0F5000F13D3B0F16E
:100A6000807F06D340084FEA310102F10102FE2ADD
:100A700051D2B1F1004F40EBC25008BF20F001004D
:100A800040EA03007047490040EB000010F4000FFB
:100A9000A2F10102EDD1B0FA80FCACF1080CB2EB8E
:100AA0000C0200FA0CF0AABF00EBC25052421843ED
:100AB000BCBFD0401843704792F0000F81F4000192
:100AC00006BF80F400000132013BB5E74FEA410365
:100AD0007FEA226C18BF7FEA236C21D092EA030FD1
:100AE00004D092F0000F08BF0846704790EA010F4B
:100AF0001CBF0020704712F07F4F04D1400028BF78
:100B000040F00040704712F100723CBF00F5000059
:100B1000704700F0004343F0FE4040F4000070478F
:100B20007FEA226216BF08467FEA2363014642023B
:100B300006BF5FEA412390EA010F40F4800070474E
:100B40004FF0000304E000BF10F0004348BF4042F4
:100B50005FEA000C08BF704743F0964301464FF030
:100B600000001CE050EA010208BF70474FF000038C
:100B70000AE000BF50EA010208BF704711F00043CD
:100B800002D5404261EB41015FEA010C02BF84469D
:100B90000146002043F0B64308BFA3F18053A3F5FC
:100BA0000003BCFA8CF2083AA3EBC25310DB01FA43
:100BB00002FC634400FA02FCC2F12002BCF1004FC7
:100BC00020FA02F243EB020008BF20F00100704758
:100BD00002F1200201FA02FCC2F1200250EA4C00AC
:100BE00021FA02F243EB020008BF20EADC707047F2
:100BF0004FF0FF0C1CEAD0521EBF1CEAD15392EA00
:100C00000C0F93EA0C0F6FD01A4480EA010C4002DB
:100C100018BF5FEA41211ED04FF0006343EA501035
:100C200043EA5111A0FB01310CF00040B1F5000F77
:100C30003EBF490041EAD3715B0040EA010062F126
:100C40007F02FD2A1DD8B3F1004F40EBC25008BF10
:100C500020F00100704790F0000F0CF0004C08BF2E
:100C600049024CEA502040EA51207F3AC2BFD2F1FB
:100C7000FF0340EAC250704740F400004FF0000309
:100C8000013A5DDC12F1190FDCBF00F00040704743
:100C9000C2F10002410021FA02F1C2F1200200FA81
:100CA00002FC5FEA310040F1000053EA4C0308BF48
:100CB00020EADC70704792F0000F00F0004C02BF99
:100CC000400010F4000F013AF9D040EA0C0093F014
:100CD000000F01F0004C02BF490011F4000F013B6E
:100CE000F9D041EA0C018FE70CEAD15392EA0C0FDC
:100CF00018BF93EA0C0F0AD030F0004C18BF31F047
:100D0000004CD8D180EA010000F00040704790F01C
:100D1000000F17BF90F0004F084691F0000F91F0C0
:100D2000004F14D092EA0C0F01D142020FD193EA86
:100D30000C0F03D14B0218BF084608D180EA01000E
:100D400000F0004040F0FE4040F40000704740F0EA
:100D5000FE4040F4400070474FF0FF0C1CEAD052B8
:100D60001EBF1CEAD15392EA0C0F93EA0C0F69D014
:100D7000A2EB030280EA010C49024FEA402037D07F
:100D80004FF0805343EA111143EA10130CF0004076
:100D90008B4238BF5B0042F17D024FF4000C8B4266
:100DA00024BF5B1A40EA0C00B3EB510F24BFA3EB46
:100DB000510340EA5C00B3EB910F24BFA3EB910316
:100DC00040EA9C00B3EBD10F24BFA3EBD10340EA70
:100DD000DC001B0118BF5FEA1C1CE0D1FD2A3FF6B6
:100DE00050AF8B4240EBC25008BF20F0010070476B
:100DF0000CF0004C4CEA50207F32C2BFD2F1FF030E
:100E000040EAC250704740F400004FF00003013A3E
:100E100037E792F0000F00F0004C02BF400010F4E2
:100E2000000F013AF9D040EA0C0093F0000F01F0F6
:100E3000004C02BF490011F4000F013BF9D041EA18
:100E40000C0195E70CEAD15392EA0C0F08D142024B
:100E50007FF47DAF93EA0C0F7FF470AF084676E71E
:100E600093EA0C0F04D14B023FF44CAF08466EE7F7
:100E700030F0004C18BF31F0004CCAD130F00042C5
:100E80007FF45CAF31F000437FF43CAF5FE700BF1D
:100E90004FF0FF3C06E000BF4FF0010C02E000BF46
:100EA0004FF0010C4DF804CD4FEA40024FEA4103E8
:100EB0007FEA226C18BF7FEA236C11D001B052EA9E
:100EC000530C18BF90EA010F58BFB2EB030088BF64
:100ED000C81738BF6FEAE17018BF40F001007047D3
:100EE0007FEA226C02D15FEA402C05D17FEA236CB5
:100EF000E4D15FEA412CE1D05DF8040B704700BFFC
:100F0000844608466146FFE70FB5FFF7C9FF002892
:100F100048BF10F1000F0FBD4DF808EDFFF7F4FFCB
:100F20000CBF012000205DF808FB00BF4DF808ED64
:100F3000FFF7EAFF34BF012000205DF808FB00BF87
:100F40004DF808EDFFF7E0FF94BF012000205DF8A9
:100F500008FB00BF4DF808EDFFF7D2FF94BF01205A
:100F600000205DF808FB00BF4DF808EDFFF7C8FF53
:100F700034BF012000205DF808FB00BF4FEA4002AB
:100F8000B2F1FE4F0FD34FF09E03B3EB12620DD9B7
:100F90004FEA002343F0004310F0004F23FA02F021
:100FA00018BF404270474FF00000704712F1610FC8
:100FB00001D1420205D110F0004008BF6FF000409F
:100FC00070474FF00000704742000ED2B2F1FE4F62
:100FD0000BD34FF09E03B3EB126209D44FEA002308
:100FE00043F0004323FA02F070474FF000007047CF
:100FF00012F1610F01D1420202D14FF0FF30704770
:101000004FF00000704700BF7BB972B90029BEBF26
:1010100000204FF0004106E008BF00281CBF6FF021
:1010200000414FF0FF3000F0B5B9ADF1080C6DE9AB
:1010300004CE002909DB002B1ADB00F035F8DDF8BF
:1010400004E0DDE9022304B07047404261EB410156
:10105000002B1BDB00F028F8DDF804E0DDE90223BB
:1010600004B0404261EB4101524263EB43037047DD
:10107000524263EB430300F017F8DDF804E0DDE9CA
:10108000022304B0404261EB41017047524263EBDE
:10109000430300F009F8DDF804E0DDE9022304B0C1
:1010A000524263EB430370472DE9F04F8C460C46E8
:1010B0000546099E002B4FD18A4217466BD9B2FADA
:1010C00082FEBEF1000F0BD0CEF1200520FA05F50F
:1010D00001FA0EF345EA030C02FA0EF700FA0EF5D8
:1010E000390CBCFBF1F0BAB201FB10C300FB02F8F3
:1010F0004FEA154C4CEA0344A04509D9E41900F124
:10110000FF3380F02881A04540F2258102383C441D
:10111000C8EB0404B4FBF1F301FB134C03FB02F234
:10112000ACB244EA0C418A4209D9C91903F1FF342F
:1011300080F00F818A4240F20C81023B39448A1AC6
:1011400043EA00400021002E63D022FA0EF2002371
:1011500086E80C00BDE8F08F8B4207D9002E56D0F0
:10116000002186E811000846BDE8F08FB3FA83F14C
:10117000002940F09380A34202D3824200F2FE8015
:10118000851A64EB03039C460120002E41D086E8BB
:101190002010BDE8F08F12B90127B7FBF2F7B7FABC
:1011A00087FEBEF1000F36D1E41B4FEA17481FFA45
:1011B00087F90121B4FBF8F308FB134409FB03F2A0
:1011C0004FEA154C4CEA0444A24207D9E41903F152
:1011D000FF3002D2A24200F2D3800346A41AB4FB2D
:1011E000F8F008FB104809FB00F9ACB244EA0842E9
:1011F000914507D9D21900F1FF3402D2914500F28E
:10120000BA802046C9EB020240EA03409BE7314620
:101210003046BDE8F08F07FA0EF7CEF1200C24FA25
:101220000CF34FEA1748B3FBF8FA1FFA87F908FBEB
:101230001A3520FA0CFC04FA0EF40AFB09FB4CEAFE
:10124000040C4FEA1C4242EA05439B4500FA0EF5A6
:101250000AD9DB190AF1FF3280F08B809B4540F2FE
:101260008880AAF1020A3B44CBEB0303B3FBF8F0FE
:1012700008FB103300FB09F41FFA8CFC4CEA034313
:101280009C4207D9DB1900F1FF326ED29C426CD927
:1012900002383B441C1B40EA0A418BE7C1F1200E97
:1012A0008B4022FA0EFC4CEA030C24FA0EF74FEAAC
:1012B0001C49B7FBF9FA1FFA8CF309FB1A7720FADD
:1012C0000EF88C400AFB03F548EA04044FEA144880
:1012D00048EA0747BD4202FA01F200FA01FB09D9C8
:1012E00017EB0C070AF1FF3041D2BD423FD9AAF1FA
:1012F000020A67447F1BB7FBF9F509FB157705FB6D
:1013000003F3A4B244EA0747BB4208D917EB0C0722
:1013100005F1FF3027D2BB4225D9023D674445EA9B
:101320000A40A0FB0289FF1A4F4545464C4614D39C
:1013300029D066B3BBEB050367EB040707FA0EFE83
:10134000CB40CF404EEA030386E888000021BDE889
:10135000F08F2346F3E61846DAE6B8EB020569EBB0
:101360000C040138E5E70546D9E7104692E78246C6
:10137000C0E7924678E702383A4443E7084604E774
:10138000023B3C442AE7C345E7D33C46D1E731461C
:10139000BDE8F08F704700BF837941793222803BEE
:1013A000017142718371704710B4054B32211C7872
:1013B00008220323047141718271036010BC7047DD
:1013C00000000020F8B50368012B02D90279322A07
:1013D00001D00020F8BD82790446013A4F2AF8D89E
:1013E00001A151F822F000BF37150008551500087B
:1013F000D3130008CD150008D3130008D313000839
:10140000D3130008F71500082F160008D31300089F
:10141000D313000855160008D31300087F160008E0
:10142000D3130008D3130008D3130008D313000804
:10143000D3130008D3130008D3130008D3130008F4
:10144000D3130008D3130008D3130008D3130008E4
:10145000D3130008D3130008D3130008D3130008D4
:10146000D3130008D3130008D3130008D3130008C4
:10147000D3130008D3130008D3130008D3130008B4
:10148000D3130008D3130008D3130008D3130008A4
:10149000D3130008D3130008D3130008D313000894
:1014A000D3130008D3130008D3130008D313000884
:1014B000D3130008D3130008D3130008D313000874
:1014C000D3130008D3130008D3130008D313000864
:1014D000D3130008D3130008D3130008D313000854
:1014E000D3130008D3130008D3130008D313000844
:1014F000D3130008D3130008D3130008D313000834
:10150000D3130008D3130008D3130008D313000823
:10151000D3130008D3130008D3130008D313000813
:10152000D313000829150008042B7FF652AF01F0F1
:1015300023FC0120F8BD032B7FF44BAF407932210F
:1015400081222071236020466171A27100F030F980
:101550000120F8BD032B7FF43CAF4579534BE21DCE
:1015600003F1080003F11001257104F10F05914208
:1015700088BF85424FF032074FF082066771A6712F
:1015800000F28980510740F08680D3E90201C2E968
:101590000001D3E90401C5E9000104F11702D3E910
:1015A0000601C2E9000104F11F02D3E90801C2E902
:1015B000000104F12702D3E90A01C2E900012B234B
:1015C0002046236000F0F4F80120F8BD022B3FF420
:1015D00000AF417984233222017142718371042268
:1015E0006521073001F02EFD07232046236000F01F
:1015F000DFF80120F8BD022B3FF4EBAE04210730E9
:1016000001F014FDA3792A4962792A4F274E086018
:10161000803B0125032132203D70607132702046ED
:10162000A3712271216000F0C3F82846F8BD022B97
:101630003FF4CFAE46791E491E4A32258920002349
:10164000A0712671204665710B60137000F0B0F830
:101650000120F8BD022B3FF4BCAE407903233221B8
:101660008C2220716171A2712360627A217AE07903
:1016700000F044FE204600F09BF80120F8BD032B4B
:101680007FF4A7AE407932218E2220716171A27160
:1016900023600120F8BD084BA21D03F1280013F8B8
:1016A000011F834202F8011FF9D188E700000020E2
:1016B000B405002050070020070000202DE9F04F5E
:1016C000814683B0374800F04DF918B1002003B0CF
:1016D000BDE8F08F334800F09DF9334BC0F5007042
:1016E0009C8883B2A34236BFC4F5007BC4EB030BD6
:1016F0009B4401931FFA8BF30093002BE6D04FF02D
:10170000000A5546D046DFF8A4B0564605E001363B
:10171000009B1FFA86F843453CD9621C1BF8043035
:1017200094B2B4F5007F28BF0024F02BEFD11E4BFC
:101730009C880EB3002701E047451DD204F1010A41
:1017400009EB0502CAF3080A1BF8040004321BF86F
:101750000A1001F085FBC0B283B21F440135234457
:10176000BFB2C3F30804ADB20028E5D10E4BA3F815
:1017700004A003B0BDE8F08F01340B4BC4F30804A0
:10178000C9F8005048469C8001F0DEFB0028BED01E
:1017900001209CE7B3F5807F98D9034BBDF8042066
:1017A0009A8093E75407002098070020240800201F
:1017B00070B50546074C01F065FB2946204601F04F
:1017C00021FB2146BDE8704082B241F288330248D5
:1017D00003F08EBE240A0020A007002010B5054C9F
:1017E000204600F01BF9204601F0B2FD024B5C637D
:1017F000636210BD54070020A00700202D4B70B578
:10180000DA698AB042F00102DA61DA69042002F092
:1018100001020192019ADA69002542F00102DA61BF
:10182000DA69072402F001020292029A5A6A05A9B3
:1018300042F400325A625A6A022602F400320392DB
:10184000039ADA6942F08072DA61DB69059003F08D
:10185000807304931848049B09940696089607958C
:1018600001F006FE082305A913480994059301F029
:10187000FFFD124B124C1968124A0C23204661607E
:10188000A560E5602561A5612260636103F002FE49
:1018900000B1FEE706460C4DFFF7A0FF4FF40073C2
:1018A00029461A462046E663A562A38503F0ECFEAE
:1018B0000AB070BD00380240000002403400002031
:1018C000A0070020004400402408002030B5002379
:1018D00095B01946342207A8029303930493059305
:1018E000069301250BF002FA102402234FF4002185
:1018F0004FF4000207A8079310930A950B941291D6
:10190000139202F0F3FB28BB1449154B0A46586AA0
:1019100040F0805058625B6A03F080530193019B52
:101920000B6823F4C05343F400630B60536813F057
:101930001003FBD10F24032202A801210493059375
:1019400006930294039202F0DDFF08B100F0F0FC70
:1019500015B030BD00F0ECFCD6E700BF00700040D1
:10196000003802400368264A934218D9254902F5F7
:1019700060728B4212682ED014318B422FD01431FA
:101980008B422ED014318B4234D01F4883420CBF7F
:101990004FF400234FF0006303EA020070471B4A34
:1019A0001B499342086813D01432934215D0143265
:1019B00093421CD0143293421FD01432934213D05E
:1019C000143293420CBF4FF400034FF0006300E069
:1019D0000823184070470823DEE78023F9E78023B7
:1019E000DAE74FF40063D7E74FF40023F1E74FF451
:1019F0000063EEE74FF40043CEE74FF40043E8E71F
:101A0000806002400864024058640240086002405E
:101A10000060024003685868704700BF30B4084D4A
:101A20000023802420214FF480520560C46081612E
:101A3000C261436083600361436130BC704700BF93
:101A40006C6002402DE9F043CDB001F0E1FBFFF7FF
:101A50003DFF002004F086FF002004F0ABFF0020D3
:101A6000012104F0B9FF0124FFF7C8FE00230C2276
:101A70000BA80B92149310930D9402F037FB00B354
:101A80002D4B2E482E4F4FF498727F2104609960A1
:101A9000DA603A602B4C0022402127481C605960D4
:101AA0001A615A619A6103F04DF900B1FEE7264BC5
:101AB00006A901222048069303F054FA034650B1C8
:101AC000FEE71D4B1D4C1E4FFF227F2120609960B9
:101AD000DA603A60DEE741F2080401220BA91648F9
:101AE0000E930F930B9403F085F900B1FEE71749AD
:101AF0004FF0FF3004F03AF815494FF0FF3004F092
:101B0000BDF9124C13494FF0FF3004F0C1FB1249EC
:101B10004FF0FF3004F0C4FA04F110014FF0FF3031
:101B200004F0B0FD04F114014FF0FF30254604F03D
:101B3000A7FC0A4E5DE000BF480D0020DC05002038
:101B4000740D00200028004002021814980500209F
:101B50009C050020A0050020A405002050070020BF
:101B6000237EC3B19DF81A009DF819109DF8183016
:101B700002920190B84A0091B8484FF480710BF07E
:101B8000D5F8B648FEF72CFB41F2883382B2B34950
:101B9000B34803F0ADFCE369DA0700F19380E36931
:101BA0005B0700F1F380E369980700F16781E3695F
:101BB000D90600F1C981E3699A0600F11482E3694C
:101BC0005B0600F15F8233782BB9237E03F0FF00C0
:101BD000002B00F0C082002004F0F6FE337823B121
:101BE00094F82430002B40F0B982237E002B40F083
:101BF000CA820BA8FFF762FD20B19DF83030322B6E
:101C000000F0C682E369226A9A422BD0EA69EB6946
:101C10002A62DA07686940F19B8204F0AFFCE3694D
:101C2000E8685B0740F18A8204F0AEFAE36928694C
:101C3000990740F18A8204F011FEE3692868DA0608
:101C400040F16B8204F086F8E36968689B0640F116
:101C50006B8204F091F9E369A868590600F16B8280
:101C600004F09AFB33781BB9237E03F0FF029BB18B
:101C7000002206A97B4803F041FA002205A9794811
:101C800003F002FA3868079A6421821A01FB02F312
:101C9000421C93FBF2F2D2B23378002B3FF460AFD8
:101CA0009DF818308DF836208DF833309DF81A30B5
:101CB0009DF819208DF83530E3698DF83420DA0766
:101CC0007FF56DAF002305A968698DF814308DF894
:101CD000183004F073FC00287FF461AF9DF81430D5
:101CE000012B7FF45CAF06A9686904F0BBFC9DF88A
:101CF0001830002B3FF453AF95F8242095F8253089
:101D0000DFF8708143F0080301324146686985F8C5
:101D1000253085F8242004F061FC3378002B40F056
:101D200077822B7E002B3FF43AAFD8F80080002159
:101D30004046FFF70FF908B908F100484046FFF7A1
:101D40001DF98146FEF7FCFE01464046FEF746FEC1
:101D5000FEF7B2FB0022444BFEF702FCFEF712FE38
:101D60004B46424A4FF4807100903C480AF0DEFF37
:101D70003A48FEF735FA41F2883382B2374938489B
:101D800003F0B6FBE3695B077FF50DAF002305A900
:101D9000E8688DF814308DF8183004F015FA002832
:101DA0007FF401AF9DF81430012B7FF4FCAE06A93F
:101DB000E86804F05DFA9DF81830002B3FF4F3AEAC
:101DC00095F8242095F82530DFF8AC8043F0100317
:101DD00001324146E86885F8253085F8242004F072
:101DE00003FA3378002B40F0F3812B7E002B3FF475
:101DF000DAAED8F8008000214046FFF7ABF808B90A
:101E000008F100484046FFF7B9F88146FEF798FE12
:101E100001464046FEF7E2FDFEF74EFB0022124B64
:101E2000FEF79EFBFEF7AEFD4B46114A4FF4807164
:101E300000900A480AF07AFF0848FEF7D1F941F20B
:101E4000883382B20549064803F052FBE3699807DC
:101E50007FF5ADAE12E000BF08DF00083C0C0020AB
:101E6000A0070020480D00200000594024DF000892
:101E700038DF0008280C0020380C0020002305A9BA
:101E800028698DF814308DF8183004F007FD00280B
:101E90007FF48DAE9DF81430012B7FF488AE06A937
:101EA000286904F04FFD9DF81830002B3FF47FAEF9
:101EB00095F8242095F82530DFF87C8343F0200343
:101EC00001324146286985F8253085F8242004F040
:101ED000F5FC3378002B40F096812B7E002B3FF4ED
:101EE00066AED8F8008000214046FFF733F800289E
:101EF00000F0C0814046FFF741F88146FEF720FE22
:101F000001464046FEF76AFDFEF7D6FAC34B0022B3
:101F1000FEF726FBFEF736FD2B23C14A4FF48071F6
:101F20000190CDF80090BF480AF000FFBD48FEF7D1
:101F300057F941F2883382B2BA49BB4803F0D8FA64
:101F4000E369D9067FF537AE002305A928688DF827
:101F500014308DF8183003F01DFF00287FF42BAEED
:101F60009DF81430012B7FF426AE06A9286803F0F3
:101F700075FF9DF81830002B3FF41DAE95F8242016
:101F800095F82530DFF8B48243F001030132414671
:101F9000286885F8253085F8242003F00BFF337876
:101FA000002B40F0FF802B7E002B3FF404AED8F8CE
:101FB0000810D8F80420D8F800309A48019100920F
:101FC0004FF48071994A0AF0B1FE9648FEF708F97D
:101FD00041F2883382B29349934803F089FAE36966
:101FE0009A067FF5ECAD002305A968688DF81430DA
:101FF0008DF8183003F0E0FF00287FF4E0AD9DF885
:102000001430012B7FF4DBAD06A9686804F038F8C2
:102010009DF81830002B3FF4D2AD95F8242095F8A8
:102020002530DFF81C8243F0020301324146686824
:1020300085F8253085F8242003F0CEFF3378002B77
:1020400040F002812B7E002B3FF4B9ADD8F8081088
:10205000D8F80420D8F800307248019100924FF46B
:102060008071734A0AF062FE6E48FEF7B9F841F2D9
:10207000883382B26B496C4803F03AFAE3695B0635
:102080007FF5A1AD002305A9A8688DF814308DF85F
:10209000183004F091F900287FF495AD9DF81430C4
:1020A000012B7FF490AD06A9A86804F0D9F99DF83A
:1020B0001830002B3FF487AD95F8242095F8253093
:1020C000DFF8808143F0040301324146A86885F8B7
:1020D000253085F8242004F07FF93378002B7CD15B
:1020E0002B7E002B3FF46FADD8F80810D8F80420F1
:1020F000D8F800304B48019100924FF480714D4A5E
:102100000AF014FE4748FEF76BF841F2883382B2BA
:102110004449454803F0ECF955E503F02BFEE3692B
:1021200068689B063FF595AD03F036FFE369A86844
:1021300059067FF595AD04F01FF993E504F034F8E6
:10214000E369286999073FF576AD04F097FB74E5DC
:1021500004F024FA63E504F02DFC3FE50BA8FFF73B
:1021600023F995F8252038230BA80B938DF86720C9
:10217000FFF71EFB002385F8243085F82530237EE9
:10218000002B3FF436AD4FF4FA7001F065F830E5FE
:102190000BA8FFF717F93378002B3FF433AD00237A
:1021A00023762FE5D8F800100DF14300042200F04B
:1021B00049FFD8F804100DF14700042200F042FF57
:1021C000D8F8081004220DF14B0000F03BFFF2E4B8
:1021D000D8F80000CDF83F00E5E4D8F800100DF184
:1021E0005B00042200F02EFFD8F804100DF15F0010
:1021F000042200F027FFD8F8081004220DF1630034
:1022000000F020FFDFE4D8F80000CDF83B00CEE47A
:10221000D8F80000CDF83700C1E400BF00005940F5
:1022200048DF00083C0C0020A00700205CDF00080D
:1022300080DF0008A4DF0008240C00203C0D0020F3
:102240002C0C0020680D0020D8F800100DF14F0074
:10225000042200F0F7FED8F804100DF15300042218
:1022600000F0F0FED8F8081004220DF1570000F03D
:10227000E9FEA4E408F100484046FEF77FFE8146EF
:10228000FEF75EFC01464046FEF7A8FBFEF714F998
:10229000034B0022FEF764F9FEF774FB2D233CE6A6
:1022A00000005940B0F5005F00D0704710B5114CE8
:1022B000A36A0BB9E36AABB100F0C8FFE062E36A5E
:1022C000A16A0C4A5B1AB3F5967F0AD9D36A936266
:1022D000094B1B7853B9237EB3FA83F35B0923764A
:1022E00010BD10BD00F0B2FFA062F1E7002323761D
:1022F00010BD00BF980500205007002000B5002346
:1023000087B08DF804008DF805108DF8062001A91E
:102310001A4606488DF8073002930493059302F09D
:1023200069FD00B1FEE707B05DF804FB480D002031
:10233000FEE700BFF0B5037A83B0013B0546052BED
:102340000FD8DFE803F03454708C03116E4B0DF19D
:102350000701186803F040FF9DF80740002C00F0CB
:102360009D80002003B0F0BD684B0DF10701186897
:1023700004F02CF99DF80740002CF2D12846FFF715
:102380000BF8634F05F1080604E017F8013F01342C
:1023900006F8013F5F48FDF723FF8442F5D305347B
:1023A00028462C60FFF704FA012003B0F0BD5A4B19
:1023B0000DF10701186803F0F5FC9DF80740002CAB
:1023C00000F09080012CCCD12846FEF7E5FF534F5A
:1023D00005F10806002404E017F8013F013406F86F
:1023E000013F4F48FDF7FCFE8442F5D3D7E74D4B44
:1023F0000DF10701186803F0E7FD9DF80740002C78
:10240000AFD12846FEF7C8FF474F05F1080604E0A4
:1024100017F8013F013406F8013F4448FDF7E0FE9C
:102420008442F5D3BBE7424B0DF10701186803F076
:10243000CBFF9DF80740002C93D12846FEF7ACFF58
:10244000364F05F1080604E017F8013F013406F89D
:10245000013F3348FDF7C4FE8442F5D39FE7354B77
:102460000DF10701186804F021FA9DF807403CB30C
:10247000012C7FF476AF2846FEF78EFF244F05F13E
:102480000806002404E017F8013F013406F8013F74
:102490002048FDF7A5FE8442F5D380E72846FEF7E5
:1024A0007BFF254F05F1080604E017F8013F0134D2
:1024B00006F8013F2148FDF793FE8442F5D36EE70D
:1024C0002846FEF769FF1C4F05F1080604E017F8DF
:1024D000013F013406F8013F1848FDF781FE8442B0
:1024E000F5D35CE72846FEF757FF0F4F05F10806C6
:1024F00004E017F8013F013406F8013F0B48FDF7EF
:102500006FFE8442F5D34AE7A4050020AC05002005
:102510005300002054000020980500203F000020B8
:10252000400000209C0500203700002038000020DB
:10253000A0050020A80500204B0000204C00002032
:1025400010B5037A82B0013B0446052B41D8DFE881
:1025500003F01820283038031F4B0DF107021868CC
:10256000617A04F05DF82046FEF716FF9DF807201B
:1025700007232046A2722360FFF71AF9012002B058
:1025800010BD164B0DF107021868617A03F044FC88
:10259000E9E7134B0DF107021868617A03F04EFD6D
:1025A000E1E7104B0DF107021868617A03F036FF7E
:1025B000D9E70D4B0DF107021868617A04F0A0F914
:1025C000D1E70A4B0DF107021868617A03F02EFE7D
:1025D000C9E70020D3E700BFAC0500209805002024
:1025E0009C050020A0050020A8050020A4050020CF
:1025F00010B5037A0446013B052B37D8DFE803F01A
:10260000131A21282F031A4B827A617A186804F072
:1026100019F82046FEF7C0FE072320462360FFF787
:10262000C7F8012010BD134B827A617A186803F055
:1026300005FCEEE7104B827A617A186803F010FD12
:10264000E7E70E4B827A617A186803F0F9FEE0E75B
:102650000B4B827A617A186804F064F9D9E7094B68
:10266000827A617A186803F0F3FDD2E7002010BD8A
:10267000AC050020980500209C050020A005002046
:10268000A8050020A40500202DE9F041037A82B0BE
:10269000013B0446052B0FD8DFE803F044719AC4D0
:1026A0000312A34B0DF10701186803F095FD9DF887
:1026B0000760002E00F0E280002002B0BDE8F0814B
:1026C0009C4B0DF10701186803F080FF9DF807602F
:1026D000002EF1D1984D2046FEF75EFEE9680422F7
:1026E00004F1090000F098FCEB68002B00F01D815C
:1026F00005F10C0804F10D073846042258F8041FB0
:1027000000F08AFCEB6801369E4207F10407F3D320
:10271000B600093620462660FFF74AF8012002B0CD
:10272000BDE8F081854B0DF10701186803F03AFB15
:102730009DF80760002E00F0DB80012EBCD1804D9B
:102740002046FEF729FEA96B042204F1090000F0DF
:1027500063FCAB6B002B00F0E88005F1380804F156
:102760000D0700263846042258F8041F00F054FCD8
:10277000AB6B01369E4207F10407F3D3C8E7714BF8
:102780000DF10701186803F01FFC9DF80760002E8B
:1027900092D16B4D2046FEF7FFFDE96C042204F157
:1027A000090000F039FCEB6C002B00F0BE8005F155
:1027B0004C0804F10D073846042258F8041F00F0B5
:1027C0002BFCEB6C01369E4207F10407F3D39FE725
:1027D0005D4B0DF10701186803F0F6FD9DF80760E9
:1027E000002E7FF469AF564D2046FEF7D5FD296EC9
:1027F000042204F1090000F00FFC2B6E002B00F006
:10280000948005F1600804F10D073846042258F859
:10281000041F00F001FC2B6E01369E4207F10407F5
:10282000F3D375E7494B0DF10701186804F03EF842
:102830009DF80760002E3FD0012E7FF43DAF3E4D46
:102840002046FEF7A9FD6968042204F1090000F0A2
:10285000E3FB6B68002B68D005F1040804F10D0759
:1028600000263846042258F8041F00F0D5FB6B6898
:1028700001369E4207F10407F3D349E72E4D204667
:10288000FEF78AFDA968042204F1090000F0C4FBE8
:10289000AB68002B49D005F1080804F10D07384654
:1028A000042258F8041F00F0B7FBAB6801369E42C3
:1028B00007F10407F3D32BE71F4D2046FEF76CFD0D
:1028C0002968042204F1090000F0A6FB2B6863B319
:1028D000A84604F10D073846042258F8041F00F0FA
:1028E0009BFB2B6801369E4207F10407F3D30FE7E9
:1028F000134D2046FEF750FD696A042204F10900D9
:1029000000F08AFB6B6A83B105F1240804F10D071E
:102910003846042258F8041F00F07EFB6B6A01362B
:102920009E4207F10407F3D3F2E60926F2E600BF60
:10293000A4050020AC050020CC050020980500204F
:10294000380000209C050020A0050020A8050020DC
:102950002DE9F041037A8AB0013B0546052B12D8D8
:10296000DFE813F053008C00C200F80006001500E9
:10297000D34B0DF10701186803F02EFC9DF807609A
:10298000002E00F0208100200AB0BDE8F081CD4B80
:102990000DF10701186803F019FE9DF80760002E7D
:1029A000F1D1C94C2846FEF7F7FCD4F82801FEF710
:1029B000E5FA0422014605F1090000F02DFBD4F8E8
:1029C00028010021FEF7D0FA002800F0768104F5F6
:1029D000947805F10D0758F8043F013609930998DA
:1029E00047F8040B3046FEF7AFF8D4F82811FEF78D
:1029F0009DFA0028EFD1B600093628462E60FEF772
:102A0000D7FE01200AB0BDE8F081B04B0DF10701FF
:102A1000186803F0C7F99DF80760002E00F02781C1
:102A2000012EB0D1A84C2846FEF7B6FCD4F894008D
:102A3000FEF7A4FA0422014605F1090000F0ECFAC1
:102A4000D4F894000021FEF78FFA002800F03581B9
:102A500004F1940805F10D07002658F8043F0136EB
:102A60000393039847F8040B3046FEF76DF8D4F84B
:102A70009410FEF75BFA0028EFD1BCE7944B0DF100
:102A80000701186803F0A0FA9DF80760002E7FF494
:102A90007AAF8D4C2846FEF77FFCD4F8B400FEF7E1
:102AA0006DFA0422014605F1090000F0B5FAD4F8E8
:102AB000B4000021FEF758FA002800F0FE8004F16F
:102AC000B40805F10D0758F8043F01360493049843
:102AD00047F8040B3046FEF737F8D4F8B410FEF789
:102AE00025FA0028EFD186E77A4B0DF10701186827
:102AF00003F06AFC9DF80760002E7FF444AF724C2F
:102B00002846FEF749FCD4F8E000FEF737FA042225
:102B1000014605F1090000F07FFAD4F8E000002139
:102B2000FEF722FA002800F0C88004F1E00805F161
:102B30000D0758F8043F01360593059847F8040B34
:102B40003046FEF701F8D4F8E010FEF7EFF9002860
:102B5000EFD150E7604B0DF10701186803F0A6FEB6
:102B60009DF80760002E58D0012E7FF40CAF564C14
:102B70002846FEF711FCD4F80001FEF7FFF9042205
:102B8000014605F1090000F047FAD4F800010021E0
:102B9000FEF7EAF9002800F0908004F5807805F14E
:102BA0000D07002658F8043F01360793079847F8A9
:102BB000040B3046FDF7C8FFD4F80011FEF7B6F954
:102BC0000028EFD117E7404C2846FEF7E5FBD4F884
:102BD0001801FEF7D3F90422014605F1090000F0BF
:102BE0001BFAD4F818010021FEF7BEF9002864D0C2
:102BF00004F58C7805F10D0758F8043F0136089369
:102C0000089847F8040B3046FDF79EFFD4F81811DA
:102C1000FEF78CF90028EFD1EDE62B4C2846FEF7A5
:102C2000BBFBD4F8F000FEF7A9F90422014605F138
:102C3000090000F0F1F9D4F8F0000021FEF794F952
:102C400000283AD004F1F00805F10D0758F8043FC8
:102C500001360693069847F8040B3046FDF774FFDB
:102C6000D4F8F010FEF762F90028EFD1C3E6164C55
:102C70002846FEF791FBA06EFEF780F9042201467C
:102C800005F1090000F0C8F9A06E0021FEF76CF90B
:102C900098B104F1680805F10D0758F8043F0136B2
:102CA0000293029847F8040B3046FDF74DFFA16EE2
:102CB000FEF73CF90028F0D19DE609269DE600BF0D
:102CC000A4050020AC050020380000209805002055
:102CD0009C050020A0050020A805002010B5037A5F
:102CE0000446D0F8090082B0013B0190052B34D88E
:102CF000DFE803F00B1B21272D03194B01991868FE
:102D000003F07EFC002002B010BD164B019918683C
:102D100003F062F82046FEF73FFB092320462360BC
:102D2000FEF746FD012002B010BD0F4B0199186857
:102D300003F064F9EEE70D4B0199186803F05EFBB0
:102D4000E8E70B4B0199186803F0CAFDE2E7094B6D
:102D50000199186803F05AFADCE70020D3E700BFB6
:102D6000AC050020980500209C050020A00500204F
:102D7000A8050020A4050020C379013B062B3BD801
:102D8000DFE803F006080A0C0E1D0400FFF7A6BFDB
:102D9000FFF7D0BAFFF7D4BBFFF72ABCFFF774BC2C
:102DA00010B504460421093000F040F9237A013BB4
:102DB000042B1FD8DFE803F016050C0C0C00FFF7FE
:102DC000C7BDFDF7BDFE0D4B0146186803F026F99F
:102DD0002046FEF7E1FA092320462360FEF7E8FCCF
:102DE000012010BDFDF7ACFE054B0146186803F04D
:102DF00003F8EDE7002010BD002070479C0500207F
:102E0000980500200A68F0B507463AB3002210463C
:102E1000CD1C4FF0F10C4FF0F20E09E0F12B1AD15E
:102E20002370637002260B680130834232440ED94E
:102E300015F8013FBC18F02BF0D107F802C084F858
:102E400001E00B680130022683423244F0D8501C66
:102E5000F023BB54F0BD01262370E4E70120F7E71F
:102E6000F12802D0107001207047F12903D0F22917
:102E700004D000207047117002207047F0231370B7
:102E8000022070470268002A58D0F0B5161FB60815
:102E9000531E0136042B4FEA86044CD900273D46C9
:102EA00000F1040E5EF8043B01376FEA030C03F0F7
:102EB0007F31C1F180310CF080334B4003F07F3122
:102EC0006B4005F07F3503F080330D44BE4285EA48
:102ED0000305E7D82146C5F307232B44C5F3074470
:102EE0001C4404EB15639142DBB21FD044182579D2
:102EF0004C1C5B1B9442DBB218D2044425798C1C19
:102F00005B1BA242DBB211D904442579CC1C5B1BAC
:102F1000A242DBB20AD90444247904311B1B8A4241
:102F2000DBB203D9014409795B1ADBB2511C0244BC
:102F300013710160F0BD00210B46D7E71346012154
:102F4000024413710160704701682DE9F0410029C6
:102F50005ED00C1FA4084F1E0134062F4FEA8402D6
:102F600053D90026354600F1040C5CF8043B05F00B
:102F70007F3803F07F3E01366B4003F0803308EB6F
:102F80000E05A64285EA0305EFD3C5F30723EC1827
:102F9000C5F30743234403EB15639142DBB22DD005
:102FA00084182579541C2B448C42DBB226D204446D
:102FB0002579941C2B44A142DBB21FD90444257906
:102FC000D41C2B44A142DBB218D904442579141D2A
:102FD0002B44A142DBB211D904442579541D2B4462
:102FE000A142DBB20AD90444247906322344914237
:102FF000DBB203D9024412791344DBB2B3FA83F390
:103000005B0907601846BDE8F08100221346C7E758
:1030100001234FF0FF37F4E732B1024400F8011BFF
:1030200090424FEA1121F9D1704700BF013943188E
:10303000425C29B113F8011D984201EB0222F9D13B
:103040001046704732B1024400F8011B90424FEA2B
:103050002121F9D1704700BF00B5244B91B01B6806
:103060000C2153BB01220DEB01000C93089303913B
:10307000059201F03BF8A8BB01224FF4803368466B
:103080008DE80C0001F092FD08B1FFF751F94FF403
:10309000800292FAA2F2B2FA82F2154B0121134495
:1030A0009B00196000220F21022000F0F5F8022099
:1030B00000F02AF911B05DF804FB002301220DEBAA
:1030C000010003910C930593089201F00FF818B9D1
:1030D00001224FF40033D2E7FFF72AF901224FF41F
:1030E0000033CCE7FFF724F9C6E700BFDC0500207A
:1030F000A0C19110704700BFFEE700BF704700BF3E
:1031000000F09CB84FF4005000F0B2BA70B5161E33
:1031100007DD0C468D19AFF3008004F8010BA542C2
:10312000F9D1304670BD00BF70B5161E07DD0C46E4
:103130008D1914F8010BAFF30080A542F9D1304688
:1031400070BD00BF0A4A08B50346106860B1694601
:1031500003448B4201D8136008BD09F09BFD0C238A
:1031600003604FF0FF3008BD024908461160EEE7EA
:10317000E0050020980D00204FF0FF30704700BFA1
:103180004FF400534B600020704700BF0120704790
:1031900000207047002103E00B4B5B584350043183
:1031A0000A480B4B42189A42F6D30A4A02E000231F
:1031B00042F8043B084B9A42F9D302F0D9FA09F0DD
:1031C0006FFDFEF73FFC7047F8E0000800000020AC
:1031D0007C0500207C050020940D0020FEE7000007
:1031E000704700BF10B50446074B08481B68A0FB9A
:1031F0000330800900F094F8214600224FF0FF30A0
:1032000000F04AF8002010BD78010020D34D621074
:1032100008B5094B03201A6842F004021A601A68C4
:1032200042F002021A6000F025F80F20FFF7DAFFE3
:10323000FFF7D6FF002008BD003C0240024A136899
:1032400001331360704700BF780D0020014B1868F0
:10325000704700BF780D002010B582B00190FFF7D5
:10326000F5FF0446FFF7F2FF019B001B9842F9D3DC
:1032700002B010BD4FF6FF0206490002CB6800F411
:10328000E0601A4042F0BF6343F400330343CB6075
:10329000704700BF00ED00E0194B30B4DB68C3F3AA
:1032A0000223C3F10705042D03F1040428BF0425FC
:1032B000062C18D9033B01249C40013C22400124E8
:1032C000AC40013C214001FA03F3002842EA03022A
:1032D0000CDB120100F16040D2B200F5614080F8D1
:1032E000002330BC704700221346E8E7054B00F08E
:1032F0000F001201D2B203441A7630BC704700BFEF
:1033000000ED00E0FCEC00E000F01F010123034AA7
:1033100040098B4042F82030704700BF00E100E0D8
:103320000138B0F1807F0DD230B4074B074CF02547
:103330005860002284F823500721104630BC9A6060
:10334000196070470120704710E000E000ED00E0D8
:1033500000283DD0F0B41F4A0568034695422ED997
:103360001D4A1E492A44A1FB02121D48120992005F
:1033700099685C68DF680C430226196983F821604C
:103380003C435F699E690C4329683C43DF693443D1
:1033900021F47F513C4321F030010C4301260021F0
:1033A000D8631A6408462C609963996283F8216097
:1033B000D9621963596383F82010F0BC7047094A39
:1033C00006492A44A1FB0212120992000648CFE7DF
:1033D0000120704707640240F89BFDBFCDCCCCCCE8
:1033E00000640240F89FFDBF00600240F0B490F816
:1033F0002040012C0DD090F821400125E4B2AC42D0
:1034000080F8205008D0002380F820300220F0BC43
:1034100070470220F0BC704705680227002680F83C
:1034200021708663076C2E68BC4026F00106C76BCE
:103430002E6046687C606B60C36A102E0BBFAA606A
:10344000A960E960EA604BB12B6843F00E032B6082
:103450002B68002043F001032B60D8E72B6823F092
:1034600004032B602B6843F00A032B60F0E700BFD6
:10347000D1F800C0BCF1000F00F0E0802DE9F04F62
:10348000884683B0DFF8D491002579E0D0F800E0D9
:1034900001F0030A0EEA030E0AFA07FA013E4AEAAD
:1034A0000E0E012EC0F800E040F29C80C668D8F8ED
:1034B00008203340BA401343CF00C3605CD5604B53
:1034C0005F4E1B6A25F0030243F001033362336A47
:1034D00002F1804203F00103019302F5803205F00E
:1034E0000303019E9B0097680F269E4027EA06066D
:1034F000544FB84200F08C8007F58067B84200F066
:103500008980514FB84200F08980504FB84200F096
:1035100089804F4FB84200F089804E4FB84200F08A
:1035200089804D4FB8420CBF0627072707FA03F3DF
:1035300033439360E243D9F80030CE034CBF2343BA
:103540001340C9F80030D9F804308F034CBF23432F
:103550001340C9F80430D9F80830CE024CBF2343D9
:103560001340C9F80830D9F80C30890254BF02EA78
:1035700003041C43C9F80C4001353CFA05F344D060
:103580000122AA4012EA0C04F6D0D8F804106F0009
:1035900021F010060323BB40022E6FEA03037FF4E1
:1035A00075AF4FEAD50A00EB8A0A05F0070EDAF884
:1035B00020B04FEA8E0E0F2606FA0EF62BEA060B07
:1035C000D8F8106006FA0EF646EA0B06CAF8206034
:1035D000066801F0030A06EA030E5646BE4046EAB4
:1035E0000E060660866806EA030ED8F80C60BE4038
:1035F00046EA0E0686604668C1F3001E26EA020609
:103600007246AA403243426050E703B0BDE8F08FF3
:1036100000238DE7012707FA03F389E7022707FA5A
:1036200003F385E7032707FA03F381E7042707FA83
:1036300003F37DE7052707FA03F379E7704700BF37
:10364000003802400000024000080240000C024026
:103650000010024000140240001802400004014023
:1036600002B909048161704743695940416170475B
:10367000044A5169014200D1704708B55061FEF714
:1036800011FE08BD00040140F8B504460D4616467B
:1036900023685869C04310F0020026D05A695105CA
:1036A00011D51A6800216FF4806742F40072042675
:1036B00020251A6001205F61266484F83C10216394
:1036C00084F83D50F8BD6A1CE3D045B900232022A0
:1036D000236384F83C3084F83D200320F8BDFFF7D5
:1036E000B5FD801B8542D3D2F0E7F8BD2DE9F0414E
:1036F000884616461F460546006882B0046844F4B2
:1037000080740460089C621C41D14369DB07FCD5CE
:1037100008F0FE010161631C14D043699B0714D4B7
:1037200043695A053FD4002C00F09380FFF78EFDCB
:10373000099BC01A8442C0F08C802868EBE743697B
:103740005A0530D443699907F9D500230193436999
:10375000019383690193019B621C5CD143691B0641
:1037600048D443695905F9D500236FF480640421D6
:1037700020224461296485F83C302B6385F83D2084
:103780002B6C042B2FD0032002B0BDE8F0814369DD
:10379000D907BDD4E4B1FFF759FD099BC01A844293
:1037A00016D32868AFE7036800226FF4806643F4FD
:1037B000007304242021036046612C6485F83C20BA
:1037C0002A6385F83D102B6C042BDCD10120DBE74C
:1037D000002320222B6385F83C3085F83D20032010
:1037E00085F83E30D0E72A680120136843F400735F
:1037F0001360C9E7012F0AD0330A0361671C19D18E
:103800004369190603D443695A05ADD4F8E7F6B203
:1038100006610020B8E743691A06EBD443695905ED
:10382000A2D4F4B1FFF712FD099BC01A844218D349
:10383000286891E743691B06E9D443695B0593D483
:103840007CB1FFF703FD099BC01A844209D32868A5
:10385000D4E7002320222B6385F83C3085F83D20F7
:10386000B1E72B6C002243F0200320212B6485F864
:103870003C202A6385F83D1082E700BF2DE9F04324
:1038800098460446006889460168174641F48061FD
:103890000160026883B042F480720A9E0B9D026050
:1038A000711C42D14369DA07FCD55FFA89F909F046
:1038B000FE030361721C13D043699A0713D4436952
:1038C00059053DD4002E00F0A880FFF7BFFC401B37
:1038D0008642C0F0A2802068ECE7436959052FD4E6
:1038E00043699B07F9D500230193436901938369D9
:1038F0000193019B711C63D143691A0647D4436944
:103900005B05F9D500236FF4806504212022456111
:10391000216484F83C30236384F83D20236C042B1D
:103920002ED0032003B0BDE8F0834369DB07BCD48D
:10393000DEB1FFF78BFC401B864216D32068AFE751
:10394000036800226FF4806643F40073042520218D
:1039500003604661256484F83C20226384F83D10AE
:10396000236C042BDDD10120DCE70023202223631C
:1039700084F83C3084F83D20032084F83E30D1E7C1
:1039800022680120136843F400731360CAE7B8F19A
:10399000010F0AD03B0A0361731C2FD1436919063A
:1039A00003D443695A05ADD4F8E7FFB20761711C2F
:1039B00015D143691A0638D443695B05A2D4F8E7E8
:1039C00043691906E3D443695B059BD4002E4CD0B0
:1039D000FFF73CFC401B864247D320688AE74369D7
:1039E0001F0622D443695F058CD4002E3DD0FFF71B
:1039F0002DFC401B864238D32068D8E743691B065C
:103A0000D3D443695A053FF57DAF76B3FFF71EFC6B
:103A1000401B864229D32068BEE70023202223636F
:103A200084F83C3084F83D209AE7036843F48073BF
:103A30000360711C0DD14369DA07FCD549F001031D
:103A400003612A4631462046FFF71EFE002887D133
:103A500068E74369DB07F1D4002E86D0FFF7F6FB59
:103A6000401B864281D32068E3E7236C002243F0A9
:103A700020032021236484F83C20226384F83D1035
:103A80004CE700BF704700BF002800F09080F8B5F9
:103A900090F83D30044603F0FF02002B74D001F093
:103AA00055F8444B98426DD92368242284F83D2070
:103AB0001A68414922F00102A1FB00511A605A68BC
:103AC000890C22F03F020A435A603C4E62681D6A2C
:103AD000B24225F03F0539D85200B0FBF2F2013175
:103AE00029431962D969C2F30B0521F44F41032D13
:103AF00021F0FF0198BF04220A43DA611968E669E0
:103B0000226A21F0C00132430A431A60996827698A
:103B1000E66821F403423E4322F0FF0232439A60FA
:103B2000D9686669A26921F0FF0132430A43DA606D
:103B30001A680025202142F001021A6028462564F7
:103B400084F83D10256384F83E50F8BD4FF4967616
:103B500006FB01F11A4FA668A7FB01718909013123
:103B600029431962D96921F44F4121F0FF0186B937
:103B700002EB4202B0FBF2F0C0F30B02AAB140F438
:103B80000042B9E70120F8BD80F83C20FFF77AFF3A
:103B900085E702EB820202EB8202B0FBF2F0C0F397
:103BA0000B0212B140F44042A6E70122A4E7012033
:103BB000704700BF7F841E0083DE1B43A086010088
:103BC000D34D6210704700BFB0B110B50446026813
:103BD000242380F83D30136823F001031360FFF7BE
:103BE000F1FF0023236484F83C3084F83D3018460C
:103BF000236384F83E3010BD012070472DE9F04763
:103C0000044682B099460F469046BDF82C60FFF7F7
:103C10001DFB94F83D30202B04D00226304602B024
:103C2000BDE8F0870A9B03B126B90126304602B0F1
:103C3000BDE8F087054605E0FFF708FB401B1928A3
:103C400000F2898022689369DB4313F0020AF3D003
:103C500094F83C30012BE0D013680121D80784F898
:103C60003C1002D413680B43136013685A4923F4C1
:103C7000006313604FF0000A2122402384F83D20A6
:103C800084F83E30C4F840A066850A9EE162608DEB
:103C900066620C9E019500964B4620854246394649
:103CA0002046FFF723FD064600286FD12368228DAA
:103CB0004AB30C9A013259D15A6912062DD45A6965
:103CC0005705F9D500226FF48065042020215D613D
:103CD000206484F83C20226384F83D10236C042B7C
:103CE00073D003269AE75A69520755D45A69570583
:103CF000E8D40C9B002B5CD0FFF7A8FA0C9B401B70
:103D0000834256D323680C9A0132ECD15A6950078A
:103D100042D45A695105D5D4F8E7606A278D421C10
:103D2000626201787A1E1961618D92B2013989B29D
:103D30006185596922854907BAD5002AE3D0821CDA
:103D400062624178BA1E1961618D92B2013989B2FD
:103D500022856185ACE72023C4F830A084F83CA01C
:103D600084F83D30022684F83EA057E75A691006D1
:103D7000D3D45A695105A5D40C9BD3B1FFF766FA89
:103D80000C9B401B834214D3236892E7236C84F876
:103D90003CA0042BA5D148E71A680021202042F45A
:103DA00000721A6084F83D0084F83C1084F83E10DC
:103DB00034E7236C002243F020032021236484F89D
:103DC0003C20226384F83D1088E7226801261368AE
:103DD00043F40073136021E70000FFFF2DE9F04773
:103DE000044686B099460F469046BDF83C60FFF702
:103DF0002DFA94F83D30202B04D00227384606B027
:103E0000BDE8F0870E9B03B126B90127384606B0FE
:103E1000BDE8F087054604E0FFF718FA401B1928B3
:103E200039D822689369DB4313F0020AF4D094F87E
:103E30003C30012BE1D013680121D80784F83C10F5
:103E400002D413680B43136013689D4923F4006385
:103E500013604FF0000A2222402384F83D2084F8AA
:103E60003E30C4F840A06685E16239460E9F608D01
:103E70006762109F019500974B4620854246204679
:103E8000FFF7FCFC074688B1236C84F83CA0042BA8
:103E9000BBD00327B2E72023C4F830A084F83CA0AD
:103EA00084F83D30022784F83EA0A7E7238D2268DE
:103EB000012B00F0F680022B00F00481059051697F
:103EC000059192690592059A002B00F0E280032B80
:103ED00065D8012B00F0C280022E00F09D80109B5F
:103EE0002268013338D153695807FCD51368616AD9
:103EF00023F48063136013694A1C62620B70638D44
:103F0000228D013B9BB2013A6385109B22850133D0
:103F1000226837D153695B07FCD51368616A43F4A3
:103F20000073136013694A1C62620B70638D226810
:103F3000013B9BB26385616A238D1269013B481C7A
:103F4000238560620A70238D628D013B013A9BB22A
:103F500092B223856285B7E753695907C6D4109B8F
:103F60002BB1FFF773F9109B401B8342B7D200239C
:103F70002022236384F83C3084F83D20032784F812
:103F80003E303BE753695807C7D4109B002BEED057
:103F9000FFF75CF9109B401B8342B8D2E7E7109B08
:103FA0004BB924E05A69D0064CD4FFF74FF9109B67
:103FB000401B834222D323685A695206F2D5626AB3
:103FC0001B69511C61621370628D2168013A92B2C3
:103FD000238D62854A69013B9BB2520723857FF599
:103FE00073AF636A0A69591C61621A70ABE7236890
:103FF0005A695106E3D45A69D10623D4236C20228E
:1040000013430021236484F83C1084F83D20236C82
:10401000202B7FF4FAAE3CE7109B0133226803D1DA
:1040200053695907FCD578E753695B073FF575AFCE
:10403000109B002B9BD0FFF709F9109B401B83427C
:10404000EBD294E700226FF0100020215861226427
:1040500084F83C20226384F83D10D8E7109B4BB9CC
:1040600012E05A69D206EDD4FFF7F0F8109B401B1E
:104070008342C3D323685A695106F2D5626A1B6929
:10408000511C616213705EE723685A695006B2D50D
:10409000F4E7202284F83D2084F83C3084F83E3058
:1040A000ACE6116821F480611160039051690391BD
:1040B000916903910399116841F40071116003E75C
:1040C0000000FFFF116821F480611160116841F464
:1040D0000061116004905169049192690492049AFC
:1040E000F2E600BF90F83D00704700BF2DE9F043B5
:1040F000036885B0DE0704463BD5BD498A6802F0F7
:104100000C02082A00F0B6818A6802F00C020C2A20
:1041100000F0AC816368012B00F0B982002B00F045
:104120000D82052BB24B1A6800F0B98322F480325D
:104130001A601A6822F480221A60FFF787F84FF499
:1041400000380746AA4E012505E0FFF77FF8C01B9F
:10415000642800F26A8298FAA8F3326898FAA8F301
:10416000B3FA83F303F01F0305FA03F31342ECD011
:104170002368980745D59E498A6802F00C02042AF4
:1041800000F05B828A6802F00C020C2A00F0518277
:10419000E2680125002A00F0878195FAA5F3B3FAB9
:1041A00083F303F1845303F58E139B001D60FFF727
:1041B0004DF84FF0020807468D4E05E0FFF746F830
:1041C000C01B022800F2318298FAA8F388493268AD
:1041D00098FAA8F3B3FA83F303F01F0305FA03F385
:1041E0001342EBD04A684FF4F85393FAA3F3B3FAAF
:1041F00083F3206922F4F85200FA03F313434B606F
:104200002368DA0600F1AD801D0728D56269002A0F
:1042100000F07081012292FAA2F1B1FA81F1754B9E
:1042200016460B449B001A60FFF710F84FF0020887
:1042300007466F4D05E0FFF709F8C01B022800F2A2
:10424000F48198FAA8F36A6B98FAA8F3B3FA83F3A7
:1042500003F01F0306FA03F31342ECD02368580758
:1042600048D5634B5A6AD10000F10E825A6A4FF06A
:10427000010842F080525A625B6A03F08053019356
:10428000019B5D4B1A68D20540F1BE81A368012BEA
:1042900000F0A482002B00F02582052B544B5A6BB2
:1042A00000F0948222F480725A635A6B22F4806286
:1042B0005A63FEF7CBFF4FF4007907464C4E0125B9
:1042C00007E0FEF7C3FF41F28833C01B984200F2BB
:1042D000AC8199FAA9F3726B99FAA9F3B3FA83F353
:1042E00003F01F0305FA03F31342EAD0B8F1000FFD
:1042F00040F06682636A83B33D4DAA6802F00C0207
:104300000C2A00F0CD80022B4FF0807300F06C82FD
:1043100093FAA3F3B3FA83F303F1845303F58E13F3
:104320009B0000221A60FEF791FF4FF000740746D1
:10433000012605E0FEF78AFFC01B022800F2758106
:1043400094FAA4F32A6894FAA4F3B3FA83F303F07B
:104350001F0306FA03F31342ECD1002005B0BDE8B9
:10436000F083234DAB6813F00C0F47D0A2694FF4D4
:104370008073002A00F0918193FAA3F3B3FA83F3D8
:1043800003F1845303F58E139B0001261E60FEF794
:104390005DFF4FF40078074605E0FEF757FFC01BAE
:1043A000022800F2428198FAA8F311492A6898FA83
:1043B000A8F3B3FA83F303F01F0306FA03F31342DF
:1043C000EBD04A68236A22F4604213434B604A6888
:1043D0004FF07F4393FAA3F3B3FA83F3E06922F03B
:1043E0007F4200FA03F313434B6023680CE700BFDE
:1043F00000380240A0C19110007000404FF40073DB
:1044000093FAA3F2296893FAA3F3B3FA83F3012290
:1044100003F01F0302FA03F30B4202D0A369002B3F
:104420003ED0C54B216A5A6802F46042914240F284
:104430008D819A6812F0F00F40F0A4805A6AD7007C
:1044400040F14782A3F5E4331A6802F4C052B2F592
:10445000C05F40F09780B1F5404F40F09380B74A7D
:104460000120136843F0040313608CE08A68D503CD
:104470007FF550AE4FF4003292FAA2F1AE490868CF
:1044800092FAA2F2B2FA82F2012102F01F0201FABC
:1044900002F202423FF46DAE6268002A7FF469AE18
:1044A000012005B0BDE8F08395FAA5F3B3FA83F3D4
:1044B00003F1845303F58E139B001A60FEF7C6FECA
:1044C0004FF0020807469C4E05E0FEF7BFFEC01BFA
:1044D000022800F2AA8098FAA8F3326898FAA8F3A2
:1044E000B3FA83F303F01F0305FA03F31342ECD18D
:1044F000236886E6012595FAA5F1B1FA81F1904B82
:104500004FF002080B449B001A60FEF79FFE8A4E94
:10451000074605E0FEF79AFEC01B022800F28580E0
:1045200098FAA8F3726B98FAA8F3B3FA83F303F03E
:104530001F0305FA03F31342ECD18FE67E4B4FF4D1
:1045400000381A681E4622F480321A601A68012563
:1045500022F480221A60FEF779FE074604E0FEF797
:1045600075FEC01B642860D898FAA8F3326898FAE0
:10457000A8F3B3FA83F303F01F0305FA03F313421E
:10458000EDD1F5E500206D4A136823F001030343E4
:104590001360136803F00103984281D166484FF01D
:1045A0007F43426822F4604211434160426893FABB
:1045B000A3F3B3FA83F3E16922F07F4201FA03F334
:1045C00013434360216A4FF4604393FAA3F35A4ABA
:1045D000B3FA83F39268F02090FAA0F0B0FA80F07A
:1045E00002F0F002574DC24021FA03F30133A95CF7
:1045F0004FF4004202FA03F3534ACB400F201360FA
:10460000FEF7F0FD2368FFE51A681D4642F480724C
:104610001A60FEF71BFE06462B68DB053FF536AE3B
:10462000FEF714FE801B6428F6D9032005B0BDE810
:10463000F0838A68D1033FF5ABAD022292FAA2F172
:104640003D49086892FAA2F2B2FA82F2012102F020
:104650001F0201FA02F2024203D0E2688A427FF4AA
:104660001FAF354D4FF4F852696892FAA2F2B2FAD0
:1046700082F2206921F4F85100FA02F20A436A60DA
:10468000DA067FF5C1AD6CE64FF00008F9E52A4A7D
:10469000136843F4803313604FE593FAA3F3B3FA3E
:1046A00083F303F1845303F58E139B001A60FEF726
:1046B000CDFD4FF400780746012604E0FEF7C6FD65
:1046C000C01B0228B1D898FAA8F32A6898FAA8F370
:1046D000B3FA83F303F01F0306FA03F31342EDD199
:1046E000236891E5144B4FF400795A6B1E4622F46F
:1046F00080725A635A6B012522F480625A63FEF776
:10470000A5FD074606E0FEF7A1FD41F28833C01B78
:1047100098428AD899FAA9F3726B99FAA9F3B3FA75
:1047200083F303F01F0305FA03F31342EBD1B8F14F
:10473000000F3FF4DFAD43E000380240003C024090
:10474000A0C191108CDE00087801002058684FF05D
:104750007F4220F4604008435860586892FAA2F201
:10476000B2FA82F2E56920F07F4005FA02F20243D4
:104770005A609A6812F0F00F14D15A6AD60040F1CC
:1047800096805D4B1A6802F4C052B2F5C05F09D141
:10479000B1F5404F06D1594A0120136843F0040394
:1047A000136000E00020554A136823F0010303431F
:1047B0001360136803F0010398427FF471AE02E7BF
:1047C0004F4A536A23F08053536293E542F4806268
:1047D0005A635A6B42F480725A636AE5484A536BD3
:1047E00043F48073536364E593FAA3F3B3FA83F35A
:1047F00003F1845303F58E139B0000221A60FEF729
:1048000025FD4FF000780746012605E0FEF71EFD66
:10481000C01B02283FF609AF98FAA8F338492A6866
:1048200098FAA8F3B3FA83F303F01F0306FA03F32D
:1048300013424FF00100E9D1A66AE56A226B8B684A
:1048400046EA0504224323F47D0313438B604FF0B3
:10485000807393FAA3F3B3FA83F303F1845303F55C
:104860008E139B0018600C460546FEF7EFFC4FF0D8
:104870000076074605E0FEF7E9FCC01B02283FF67C
:10488000D4AE96FAA6F3226896FAA6F3B3FA83F3A7
:1048900003F01F0305FA03F31342ECD05DE542F485
:1048A00080221A601A6842F480321A6045E45A6A1B
:1048B000114842F080525A625A6A02F080520392C2
:1048C000039A0268586A02F4C05220F0805058627D
:1048D0005BE75A6A084842F080525A625A6A02F00C
:1048E00080520292029A0268586A02F4C05220F082
:1048F00080505862ABE500BF00700040003C0240B1
:10490000003802408A4A2DE9F041136803F00103A0
:104910008B4215D20129136807D023F001031943F4
:10492000116001201368BDE8F08143F004031360B7
:10493000136843F0010313601368DE0740F18D80B4
:1049400003689F0706D57B4D8268AC6824F0F004AD
:104950002243AA60DD0706460C4637D54368022B82
:1049600000F0CE80032B00F0C580012B00F0CF803B
:104970004FF4007292FAA2F16E49086892FAA2F21C
:10498000B2FA82F2012102F01F0201FA02F202429F
:1049900063D0684D41F28838AA6822F003021343BD
:1049A000AB60FEF753FC73680746022B5DD0032B08
:1049B00066D0012B06D16EE0FEF748FCC01B4045D7
:1049C00000F29B80AB6813F00C0FF5D1584A1368C6
:1049D00003F001039C4239D33368580706D5554884
:1049E000F268816821F4E0610A438260190758D4B3
:1049F00050498B6803F00C02082A00F086800C2ACC
:104A000058D0042A7FD04B684FF4604292FAA2F249
:104A1000B2FA82F203F46043D3405A1C4FF40043CD
:104A20009340444AF021926891FAA1F1B1FA81F1E0
:104A3000414802F0F002CA40815C404ACB400F205E
:104A40001360FEF7CFFB0020BDE8F081136823F070
:104A5000010313601368DC07BED50120BDE8F081B7
:104A6000FEF7F4FBC01B404547D8AB6803F00C03CE
:104A7000082BF5D1AAE7FEF7E9FBC01B40453CD85F
:104A8000AB6803F00C030C2BF5D19FE7FEF7DEFBC0
:104A9000C01B404531D8AB6803F00C03042BF5D1A3
:104AA00094E7244A3169936823F4605343EAC103CD
:104AB00093609DE74FF4701292FAA2F2B2FA82F27A
:104AC00003F470101E4C20FA02F2A05C4FF4400276
:104AD00092FAA2F2B2FA82F2896803F44003D34058
:104AE000CA034CBF174A184A013302FB00F0B0FB5F
:104AF000F3F396E74FF000723CE70320BDE8F08146
:104B00004FF4003236E7104B8BE70E4B89E7022259
:104B100092FAA2F10749096892FAA2F2B2FA82F275
:104B200002F01F0203FA02F20A427FF432AF94E766
:104B3000003C0240003802408CDE00087801002072
:104B400080DE000800127A000024F400084B4FF4C5
:104B5000E0629B6892FAA2F2B2FA82F20548064934
:104B600003F4E063D340C35C0868D840704700BFDB
:104B7000003802409CDE000878010020084B4FF40A
:104B800060529B6892FAA2F2B2FA82F20548064994
:104B900003F46053D340C35C0868D840704700BF3B
:104BA000003802409CDE00087801002003689B0763
:104BB0004DD02DE9F043604B83B05A6AD10023D524
:104BC0005E4B00251A680446D2052CD55A4A616806
:104BD000136801F0C04003F0C043834200F08280BC
:104BE00001F44032B2F5403F534B32D05B6B13F4CB
:104BF000403335D150494B6B1A434A63002D69D17C
:104C0000002003B0BDE8F0835A6A012542F08052CB
:104C10005A625B6A044603F080530193019B474B41
:104C20001A68D205D2D41A681E4642F480721A60FD
:104C3000FEF70CFB07463368DB05C7D4FEF706FB1F
:104C4000C01B6428F7D9032003B0BDE8F08300201F
:104C500070471E68B70352D45B6B13F4403330D0F7
:104C6000934202D02068C60707D4A06800F4403001
:104C7000984221D0236898071ED52F4E4FF4000389
:104C8000706B20F4403E93FAA3F1B1FA81F12C4A03
:104C900001270A449200176093FAA3F3B3FA83F34F
:104CA000274A00211A449200C3051160C6F834E077
:104CB00027D4616801F44032B2F5403F9AD101F047
:104CC000C0401D494FF440320B6823F0C0431843E5
:104CD00008608FE74B6A002023F080534B6203B0DB
:104CE000BDE8F083A66806F0C046B3427FF478AF13
:104CF000536B01F4403213F44033B1D1DCE70120AF
:104D00007FE7FEF7A3FA80464FF4007999FAA9F3FA
:104D1000726B99FAA9F3B3FA83F303F01F0307FA4E
:104D200003F31342C5D1FEF791FA41F28833C8EB81
:104D300000009842EAD986E700380240007000403F
:104D4000A0C19110002852D0437F70B503F0FF023C
:104D50000446002B47D02368CA21532202206077E3
:104D600059625A62DA68510626D59A68606822F458
:104D7000E00222F040029A609A6821691043626959
:104D80000143E0680A439A6018611969A068A26942
:104D900041EA00411961D968FF2621F08001D960FC
:104DA000196C012521F480211964196C00200A4333
:104DB0001A645E62657770BD4FF0FF32DA60FEF70D
:104DC00045FA05462368DA685206CED4FEF73EFA65
:104DD000401BB0F57A7FF5D92268FF210423516288
:104DE0000120637770BD0277FEF736F9B3E7012043
:104DF000704700BF2DE9F843037F012B00F0868048
:104E000001240223047743770468002A40D0A7686E
:104E10004E7817F0400518BFCF780B7818BF3D04C7
:104E20004FEA06268F7808BFCD7046EA034343EA6F
:104E3000070308BF046843EA05075323CA226262D6
:104E40006362E36888465B06064662D507F07F33F7
:104E500023F0FE432360A268D8F80C3022F48022AD
:104E6000A260A168D8F810200B431343A360E36845
:104E7000304623F08003E36000F06AF9002863D134
:104E80003268FF210123516230777377BDE8F883E0
:104E9000A6680B7816F0400615BFCE78CE703604A3
:104EA0000468092B5AD900220A3BDBB2092B02F114
:104EB0000102F9D84FEA021E5FFA8EFE4A7843EAF1
:104EC0000E03092A4FEA034E4FF0000507D90A3AAC
:104ED000D2B2092A05F10105F9D82D01EDB28B787E
:104EE0002A43092B4FEA02254FF0000707D90A3B56
:104EF000DBB2092B07F10107F9D83F01FFB24EEAF7
:104F000006022A433B4342EA030796E70220BDE834
:104F1000F8834FF0FF33E360FEF798F98146346879
:104F2000E36813F0400591D1FEF790F9C9EB00005A
:104F3000B0F57A7FF3D93268FF2104235162012052
:104F400035777377BDE8F8833168FF2004220023AA
:104F50004862012072773377BDE8F8834FF0000E86
:104F6000ACE700BFF8B5037F012B61D00124022319
:104F7000047743773AB34D78CA782D028E7845EAA4
:104F800002420C78324342EA443402685323CA2175
:104F900051625362D36807465B064BD524F07F44C9
:104FA00024F0C0045460D368384623F08003D360F3
:104FB00000F0CEF800285CD13A68FF21012351624D
:104FC00038777B77F8BD4B78DA064CD4CA78002462
:104FD000092A07D90A3AD2B2092A04F10104F9D8F8
:104FE0002401E4B22243092B4FEA02424AD90024A9
:104FF0000A3BDBB2092B04F10104F9D82501EDB21B
:105000008C782B43092C4FEA03254FF0000607D973
:105010000A3CE4B2092C06F10106F9D83601F6B2D1
:105020000B78344342EA433242EA05031C43ACE7BF
:105030000220F8BD4FF0FF33D360FEF707F90646B4
:105040003A68D36813F04005A8D1FEF7FFF8801B3B
:10505000B0F57A7FF4D93A68FF2104235162012028
:105060003D777B77F8BD23F010030A33DBB24B703A
:10507000ACE73968FF2004220023486201207A77D8
:105080003B77F8BD0025BBE70368F0B45B6823F00D
:105090007F4323F0C003C3F30725DEB2C3F34237D7
:1050A00005F01F001B0C0F708E70CB704870BAB9E2
:1050B000000934091A09870004EB840405F00F0580
:1050C00006F00F06384402EB820203F00F0306EBF2
:1050D000440405EB400003EB42038C704870CB7036
:1050E0000020F0BC704700BF030903EB830300F00E
:1050F0000F0000EB4300C0B2704700BFF8B5036873
:105100009E6A1D691C68B6B204F07F3323F0FE432B
:10511000180C00F04007C5F30E0504F07F04C3F33C
:10512000062300F03F004E608D608C704B70CF7096
:1051300008705AB90C46FFF7D7FF20706078FFF768
:10514000D3FF6070A078FFF7CFFFA0700020F8BDFC
:1051500038B503689A68920601D5002038BDDA6830
:10516000044622F0A002DA60FEF770F805462368D4
:10517000DB689B06F1D4FEF769F8401BB0F57A7F37
:10518000F5D9032038BD00BF2DE9F04782460668F7
:10519000C0683469DAF8085024F440542043306180
:1051A000DAF81010F368DAF81420DAF81C00294352
:1051B00023F416430A43024323F00C031343F36022
:1051C0007269DAF8183022F440721343B0F5004FD8
:1051D0007361AD4B5CD09E4200F0B780FFF7B6FC28
:1051E000DAF8045000EB800000EB8000AD00B0FB6B
:1051F000F5F5FFF7ABFCA54F00EB8000A7FB0535ED
:10520000DAF8043000EB80009C00B0FBF4F4FFF708
:105210009DFCDAF8043000EB80009B0000EB80007E
:10522000B0FBF3F0A7FB00304FF06408400908FB27
:105230001044FFF78BFCDAF8041000EB80008A00C2
:1052400000EB8000B0FBF2F9FFF780FCDAF80420F5
:1052500000EB8000920000EB8000B0FBF2F0A7FBB7
:10526000003024013234A7FB0434400908FB1092BB
:105270006D0964092D0104F0F00412013232A7FB1C
:105280000223C3F343131C442544B560BDE8F087F3
:105290009E4200F0AA80FFF759FCDAF8045000EBB8
:1052A000800000EB80006D00B0FBF5F5FFF74EFCD1
:1052B000764F00EB8000A7FB0535DAF8043000EBF1
:1052C00080005C00B0FBF4F4FFF740FCDAF8042047
:1052D00000EB8000530000EB8000B0FBF3F3A7FB72
:1052E00003234FF064085B0908FB1344FFF72EFC0F
:1052F000E4003234A7FB0434DAF8043000EB800019
:105300005A0000EB8000B0FBF2F9FFF71FFCDAF85F
:10531000042000EB8000520000EB8000B0FBF2F0B4
:10532000A7FB00326D0924092D0104F4F874520919
:1053300008FB1292D2003232A7FB0223C3F34213BE
:105340002B441C44B460BDE8F087FFF717FCDAF883
:10535000045000EB800000EB8000AD00B0FBF5F5E1
:10536000FFF70CFC494F00EB8000A7FB0535DAF88E
:10537000043000EB80009C00B0FBF4F4FFF7FEFB70
:10538000DAF8042000EB8000930000EB8000B0FB13
:10539000F3F3A7FB03234FF064085B0908FB1344F6
:1053A000FFF7ECFB24013234A7FB0434DAF80430B5
:1053B00000EB80009A0000EB8000B0FBF2F9FFF7F1
:1053C000DDFBDAF8042000EB8000920000EB8000A7
:1053D000B0FBF2F0A7FB00326D09640952092D0100
:1053E00004F0F00408FB129247E7FFF7C7FBDAF876
:1053F000045000EB800000EB80006D00B0FBF5F581
:10540000FFF7BCFB214F00EB8000A7FB0535DAF866
:10541000043000EB80005C00B0FBF4F4FFF7AEFB5F
:10542000DAF8042000EB8000530000EB8000B0FBB2
:10543000F3F3A7FB03234FF064085B0908FB134455
:10544000FFF79CFBE4003234A7FB0434DAF80430A5
:1054500000EB80005A0000EB8000B0FBF2F9FFF790
:105460008DFBDAF8043000EB800000EB80005B007D
:10547000B0FBF3F3A7FB03236D0924092D0104F40A
:10548000F8745A0954E700BF003801401F85EB51FA
:10549000704700BF50B338B590F83930044603F078
:1054A000FF02F3B12268022384F83930D368204622
:1054B00023F40053D360FFF767FE236800211A69C5
:1054C000012522F490421A615A69084622F02A0204
:1054D0005A61DA6842F40052DA60E16384F83950C4
:1054E00038BD80F83820FFF7D3FFDBE70120704795
:1054F0002DE9F041054690F839000E46C1B2012968
:105500001F4604D0222902D00220BDE8F081002EDF
:1055100000F08D80002A00F08A8095F83830012B49
:10552000F2D010460023EB6395F839300121222B8D
:105530000CBF3223122385F8381085F83930AA843D
:10554000AB680138B3F5805FE8844DD0FDF77EFE8F
:1055500080467A1C2C6821D1226802F08002002A41
:10556000FAD0337801366360E88C0028E8D1FDF783
:105570006DFE04467B1C2A685CD1136803F040036F
:10558000002BFAD095F83930322B78D0012385F8EA
:105590003930002085F83800BDE8F081236803F039
:1055A0008003002BDDD137B1FDF750FEC8EB0000C2
:1055B0008742CED22C68E368012123F08003E360A8
:1055C000E368002223F02003E360E368032023F470
:1055D0008073E360636923F00103636185F8391028
:1055E00085F83820BDE8F081FDF730FE8046791C53
:1055F0002C680CD1226802F08002002AFAD033888D
:105600002A69C3F3080363607AB90236ACE72368FA
:1056100003F08003002BF2D1002FCCD0FDF716FE53
:10562000C8EB00008742E2D2C4E701369CE70120C4
:10563000BDE8F081136803F04003002BA2D12FB125
:10564000FDF704FE001B874294D22A68D368012428
:1056500023F08003D360D368002123F02003D360BC
:10566000D368032023F48073D360536923F00103CC
:10567000536185F8394085F83810BDE8F081222360
:1056800085F8393085E700BFF8B590F83940E4B2C5
:10569000012C03D0122C01D00220F8BD59B352B313
:1056A00090F83830012BF7D0012480F838400446B8
:1056B0000023C36390F839308162122B0CBF322370
:1056C0002223828580F839300C4F406B13460C4EF4
:1056D0000A460C4D21688762C66205630431FDF7F6
:1056E00085FE216800224B69104643F040034B6160
:1056F00084F83820F8BD0120F8BD00BF0D57000820
:105700004157000851570008704700BF08B50368AB
:10571000406A1B6813F020030DD10268C3855369EA
:1057200023F04003536190F83930322B0CBF122321
:10573000012380F83930FFF7E7FF08BD704700BF4D
:1057400008B5406AFFF7FAFF08BD00BF704700BF09
:10575000406A08B5012380F83930C36B002243F05A
:105760001003C363C285C284FFF7F0FF08BD00BF0A
:105770000F4B10B419680F4A41F480711960996891
:105780000D480A409A601A68002422F0885222F0DC
:1057900001121A601A684FF0006122F480221A6028
:1057A0009A6822F47D029A60DC60816010BC7047C8
:1057B000003802400CC0FF8800ED00E0F0B52C4C32
:1057C00089B02046FEF78EFC38B12948FEF78AFCE6
:1057D000203818BF012009B0F0BD0546254E264BE4
:1057E000264A2360F3694FF4804143F00203F361DA
:1057F000F3694FF4407003F0020301934FF0330E4E
:10580000019B6260042302222161039003A91227F5
:105810001B48C4F80CE006920793A5600595049711
:10582000FDF726FE736A2A4643F400137362736A17
:10583000294603F400130293029BB3691F2043F42B
:105840000013B361B36923F40013B361FDF724FDC2
:105850001F20FDF759FD2A4629462020FDF71CFD93
:105860002020FDF751FD2046FEF70EF9ADE700BF01
:10587000E80500200038024000540040801A06006D
:1058800000040240F0B52C4C89B02046FEF72AFCFB
:1058900038B12948FEF726FC203818BF012009B08E
:1058A000F0BD0546254E264B264A2360F3694FF48A
:1058B000804143F00203F361F3694FF4407003F059
:1058C000020301934FF0330E019B62600423022216
:1058D0002161039003A912271B48C4F80CE006922B
:1058E0000793A56005950497FDF7C2FD736A2A46E4
:1058F00043F400137362736A294603F4001302939E
:10590000029BB3691F2043F40013B361B36923F40E
:105910000013B361FDF7C0FC1F20FDF7F5FC2A461C
:1059200029462020FDF7B8FC2020FDF7EDFC20469D
:10593000FEF7AAF8ADE700BFE805002000380240F6
:1059400000540040801A0600000402402DE9F04196
:10595000204D214FEB698CB043F00203EB61EB6902
:105960001E4E03F0020300244FF002080093384655
:10597000202302A90293009A0396CDF81480049480
:10598000FDF776FD224621461720FDF785FC1720FE
:10599000FDF7BAFCEB69384643EA0803EB61EB69B3
:1059A000102203EA0803019307A9019B07920896B6
:1059B000CDF828800994FDF75BFD224621460A2098
:1059C000FDF76AFC0A20FDF79FFC20460CB0BDE8FD
:1059D000F08100BF003802400004024000001110B6
:1059E000114B70B5DA6986B042F00202DA61DB6908
:1059F000022213400D4E0024009301A94FF480654C
:105A00000B48009B0492029601950394FDF730FD2C
:105A1000224621462820FDF73FFC2820FDF774FC94
:105A2000204606B070BD00BF0038024000001110D3
:105A3000000402402DE9F0470546007884B0402874
:105A40000F4690461E463BD038D9B12822D18BB3A1
:105A500000244FF4805A4FF0010901E0B44229D0EC
:105A600008EB04033A19A978D2B20093CDF808A044
:105A7000CDF8049001231548FEF7C0F80134002842
:105A8000ECD01248FEF7A0F8FFF798FE012004B012
:105A9000BDE8F087BC2813D04FF48053A9783A466C
:105AA00002930196CDF8008001230848FEF7A6F87E
:105AB0000028E6D1002004B0BDE8F0873328EBD100
:105AC000012E88BF47F08007E6E700BFE805002009
:105AD0002DE9F0470546007884B040280F469046EF
