:020000040800F2
:1000000000800120A11F0008F91E0008FD1E000845
:10001000F11F0008F11F0008F11F00080000000098
:10002000000000000000000000000000F11F0008B8
:10003000F11F000800000000F11F0008011F000868
:10004000F11F0008F11F0008F11F0008F11F000850
:10005000F11F0008F11F0008F11F0008F11F000840
:10006000F11F0008F11F0008F11F0008F11F000830
:10007000F11F0008F11F0008F11F0008F11F000820
:10008000F11F0008F11F0008F11F0008F11F000810
:10009000F11F0008F11F0008F11F0008F11F000800
:1000A000F11F0008F11F0008F11F0008F11F0008F0
:1000B000F11F0008051F0008F11F0008F11F0008CC
:1000C000F11F0008F11F0008F11F0008F11F0008D0
:1000D000F11F0008F11F0008F11F0008F11F0008C0
:1000E000111F0008F11F0008F11F0008F11F000890
:1000F000F11F0008F11F0008F11F0008F11F0008A0
:10010000F11F0008F11F0008F11F0008F11F00088F
:10011000F11F0008F11F0008F11F0008F11F00087F
:10012000F11F0008F11F0008F11F0008F11F00086F
:10013000F11F0008F11F0008F11F0008F11F00085F
:10014000F11F0008F11F0008F11F0008F11F00084F
:10015000F11F0008F11F0008F11F0008F11F00083F
:10016000F11F0008F11F0008F11F0008F11F00082F
:10017000F11F0008F11F0008F11F00080000000037
:10018000F11F0008F11F000800000000000000003F
:10019000044B05481B1A062B02D9044B03B1184720
:1001A000704700BFFB040020F8040020000000009E
:1001B00005490648091A891001EBD171491002D08E
:1001C000034B03B118477047F8040020F8040020DF
:1001D0000000000010B5064C237843B9FFF7D8FFA4
:1001E000044B13B10448AFF300800123237010BD0A
:1001F000F80400200000000040F8000808B5084B93
:100200001BB108490848AFF300800848036813B9D8
:10021000BDE80840CCE7064B002BF9D09847F7E73C
:1002200000000000FC04002040F80008F804002052
:1002300000000000000000000000000000000000BE
:1002400001F0FF01102A2BDB10F0070F08D010F887
:10025000013B013A8B422DD010F0070F42B3F6D18B
:10026000F0B441EA012141EA014122F007047FF0A4
:1002700000070023F0E80256083C85EA010586EAFB
:10028000010685FA47F5A3FA87F586FA47F6A5FA37
:1002900087F68EB9EED1F0BC01F0FF0102F0070243
:1002A00032B110F8013B013A83EA010313B1F8D1EE
:1002B0000020704701387047002D06BF35460338CF
:1002C000073815F0010F07D1013015F4807F02BF08
:1002D000013015F4C03F0130F0BC0138704700BF59
:1002E00081F0004102E000BF83F0004330B54FEAE7
:1002F00041044FEA430594EA050F08BF90EA020F54
:100300001FBF54EA000C55EA020C7FEA645C7FEAE6
:10031000655C00F0E2804FEA5454D4EB5555B8BF09
:100320006D420CDD2C4480EA020281EA030382EA7A
:10033000000083EA010180EA020281EA0303362D0C
:1003400088BF30BD11F0004F4FEA01314FF4801CDF
:100350004CEA113102D0404261EB410113F0004FF1
:100360004FEA03334CEA133302D0524263EB4303A8
:1003700094EA050F00F0A780A4F10104D5F1200E46
:100380000DDB02FA0EFC22FA05F2801841F10001A1
:1003900003FA0EF2801843FA05F359410EE0A5F175
:1003A00020050EF1200E012A03FA0EFC28BF4CF0A6
:1003B000020C43FA05F3C01851EBE37101F000455C
:1003C00007D54FF0000EDCF1000C7EEB00006EEB69
:1003D0000101B1F5801F1BD3B1F5001F0CD34908F3
:1003E0005FEA30004FEA3C0C04F101044FEA44524A
:1003F00012F5800F80F09A80BCF1004F08BF5FEAD1
:10040000500C50F1000041EB045141EA050130BDB0
:100410005FEA4C0C404141EB010111F4801FA4F153
:100420000104E9D191F0000F04BF01460020B1FAA8
:1004300081F308BF2033A3F10B03B3F120020CDAE0
:100440000C3208DD02F1140CC2F10C0201FA0CF0BE
:1004500021FA02F10CE002F11402D8BFC2F1200C23
:1004600001FA02F120FA0CFCDCBF41EA0C019040D9
:10047000E41AA2BF01EB0451294330BD6FEA040422
:100480001F3C1CDA0C340EDC04F11404C4F120020D
:1004900020FA04F001FA02F340EA030021FA04F31F
:1004A00045EA030130BDC4F10C04C4F1200220FA76
:1004B00002F001FA04F340EA0300294630BD21FAB4
:1004C00004F0294630BD94F0000F83F4801306BF7A
:1004D00081F480110134013D4EE77FEA645C18BF6E
:1004E0007FEA655C29D094EA050F08BF90EA020F05
:1004F00005D054EA000C04BF1946104630BD91EAFD
:10050000030F1EBF0021002030BD5FEA545C05D1FF
:100510004000494128BF41F0004130BD14F580043E
:100520003CBF01F5801130BD01F0004545F0FE41B2
:1005300041F470014FF0000030BD7FEA645C1ABFE7
:10054000194610467FEA655C1CBF0B46024650EA1E
:10055000013406BF52EA033591EA030F41F400214A
:1005600030BD00BF90F0000F04BF0021704730B5D0
:100570004FF4806404F132044FF000054FF00001A5
:1005800050E700BF90F0000F04BF0021704730B566
:100590004FF4806404F1320410F0004548BF40423B
:1005A0004FF000013EE700BF42004FEAE2014FEA90
:1005B00031014FEA02701FBF12F07F4393F07F4F6B
:1005C00081F06051704792F0000F14BF93F07F4F9D
:1005D000704730B54FF4607401F0004521F00041E0
:1005E00020E700BF50EA010208BF704730B54FF066
:1005F00000050AE050EA010208BF704730B511F06B
:10060000004502D5404261EB41014FF4806404F1A2
:1006100032045FEA915C3FF4DCAE4FF003025FEA24
:10062000DC0C18BF03325FEADC0C18BF033202EBAC
:10063000DC02C2F1200300FA03FC20FA02F001FA06
:1006400003FE40EA0E0021FA02F11444C1E600BFA5
:1006500070B54FF0FF0C4CF4E06C1CEA11541DBF58
:100660001CEA135594EA0C0F95EA0C0F00F0DEF823
:100670002C4481EA030621EA4C5123EA4C5350EA08
:10068000013518BF52EA033541F4801143F4801359
:1006900038D0A0FB02CE4FF00005E1FB02E506F0EA
:1006A0000042E0FB03E54FF00006E1FB03569CF03F
:1006B000000F18BF4EF0010EA4F1FF04B6F5007F45
:1006C00064F5407404D25FEA4E0E6D4146EB0606B7
:1006D00042EAC62141EA55514FEAC52040EA5E5040
:1006E0004FEACE2EB4F1FD0C88BFBCF5E06F1ED8EA
:1006F000BEF1004F08BF5FEA500E50F1000041EB21
:10070000045170BD06F0004646EA010140EA0200CD
:1007100081EA0301B4EB5C04C2BFD4EB0C0541EAEF
:10072000045170BD41F480114FF0000E013C00F304
:10073000AB8014F1360FDEBF002001F0004170BD28
:10074000C4F10004203C35DA0C341BDC04F1140441
:10075000C4F1200500FA05F320FA04F001FA05F2CD
:1007600040EA020001F0004221F0004110EBD3709A
:1007700021FA04F642EB06015EEA430E08BF20EAC6
:10078000D37070BDC4F10C04C4F1200500FA04F369
:1007900020FA05F001FA04F240EA020001F00041FB
:1007A00010EBD37041F100015EEA430E08BF20EA6E
:1007B000D37070BDC4F1200500FA05F24EEA020EB6
:1007C00020FA04F301FA05F243EA020321FA04F0E5
:1007D00001F0004121FA04F220EA020000EBD3709C
:1007E0005EEA430E08BF20EAD37070BD94F0000F9C
:1007F0000FD101F00046400041EB010111F4801FD0
:1008000008BF013CF7D041EA060195F0000F18BF80
:10081000704703F00046520043EB030313F4801FBC
:1008200008BF013DF7D043EA0603704794EA0C0F76
:100830000CEA135518BF95EA0C0F0CD050EA41068C
:1008400018BF52EA4306D1D181EA030101F0004109
:100850004FF0000070BD50EA410606BF1046194631
:1008600052EA430619D094EA0C0F02D150EA01363D
:1008700013D195EA0C0F05D152EA03361CBF10467E
:1008800019460AD181EA030101F0004141F0FE411D
:1008900041F470014FF0000070BD41F0FE4141F4A1
:1008A000780170BD70B54FF0FF0C4CF4E06C1CEAA1
:1008B00011541DBF1CEA135594EA0C0F95EA0C0F56
:1008C00000F0A7F8A4EB050481EA030E52EA033511
:1008D0004FEA013100F088804FEA03334FF0805532
:1008E00045EA131343EA12634FEA022245EA11155F
:1008F00045EA10654FEA00260EF000419D4208BF10
:10090000964244F1FD0404F5407402D25B084FEABC
:100910003202B61A65EB03055B084FEA32024FF468
:1009200080104FF4002CB6EB020E75EB030E22BFC5
:10093000B61A754640EA0C005B084FEA3202B6EB85
:10094000020E75EB030E22BFB61A754640EA5C0034
:100950005B084FEA3202B6EB020E75EB030E22BFC4
:10096000B61A754640EA9C005B084FEA3202B6EBC5
:10097000020E75EB030E22BFB61A754640EADC0084
:1009800055EA060E18D04FEA051545EA16754FEAE6
:1009900006164FEAC30343EA52734FEAC2025FEA04
:1009A0001C1CC0D111F4801F0BD141EA00014FF093
:1009B00000004FF0004CB6E711F4801F04BF014364
:1009C0000020B4F1FD0C88BFBCF5E06F3FF6AFAE80
:1009D000B5EB030C04BFB6EB020C5FEA500C50F110
:1009E000000041EB045170BD0EF0004E4EEA113193
:1009F00014EB5C04C2BFD4EB0C0541EA045170BD9A
:100A000041F480114FF0000E013C90E645EA060EDD
:100A10008DE60CEA135594EA0C0F08BF95EA0C0F0B
:100A20003FF43BAF94EA0C0F0AD150EA01347FF453
:100A300034AF95EA0C0F7FF425AF104619462CE72A
:100A400095EA0C0F06D152EA03353FF4FDAE10468D
:100A5000194622E750EA410618BF52EA43067FF4DE
:100A6000C5AE50EA41047FF40DAF52EA43057FF46E
:100A7000EBAE12E74FEA4102B2F1E04324BFB3F517
:100A8000001CDCF1FE5C0DD901F0004C4FEAC00205
:100A90004CEA5070B2F1004F40EB830008BF20F0E9
:100AA0000100704711F0804F21D113F13872BCBFA3
:100AB00001F00040704741F480114FEA5252C2F1F8
:100AC0001802C2F1200C10FA0CF320FA02F018BF41
:100AD00040F001004FEAC1234FEAD32303FA0CFC94
:100AE00040EA0C0023FA02F34FEA4303CCE77FEA23
:100AF000625307D150EA01331EBF4FF0FE4040F46D
:100B00004000704701F0004040F0FE4040F400001B
:100B1000704700BF53B94AB9002908BF00281CBF5D
:100B20004FF0FF314FF0FF3000F07EB9ADF1080C0F
:100B30006DE904CE00F006F8DDF804E0DDE90223FB
:100B400004B070472DE9F0478C460E460446089DD8
:100B5000002B50D18A4217466CD9B2FA82FEBEF100
:100B6000000F0BD0CEF1200420FA04F401FA0EF6A7
:100B700044EA060C02FA0EF700FA0EF44FEA17499F
:100B8000220CBCFBF9F01FFA87F809FB10C642EAF9
:100B9000064600FB08F3B34209D9F61900F1FF320B
:100BA00080F02281B34240F21F8102383E44F61A9F
:100BB000A2B2B6FBF9F309FB136642EA064403FB53
:100BC00008F8A04509D9E41903F1FF3280F00A8141
:100BD000A04540F20781023B3C44C8EB040443EAD1
:100BE00000400021002D62D024FA0EF400232C6076
:100BF0006B60BDE8F0878B4207D9002D55D00021EE
:100C000085E841000846BDE8F087B3FA83F1002982
:100C100040F09080B34202D3824200F2F880841AFE
:100C200066EB03060120B446002D40D085E8101085
:100C3000BDE8F08712B90127B7FBF2F7B7FA87FED4
:100C4000BEF1000F35D1F31B4FEA17481FFA87FC9E
:100C50000121B3FBF8F0220C08FB103642EA0646ED
:100C60000CFB00F3B34207D9F61900F1FF3202D2B0
:100C7000B34200F2CE801046F61AA2B2B6FBF8F3E9
:100C800008FB136642EA06440CFB03FCA44507D9A3
:100C9000E41903F1FF3202D2A44500F2B5801346F5
:100CA000CCEB040443EA00409CE729462846BDE813
:100CB000F087CEF1200106FA0EF307FA0EF720FABC
:100CC00001F94FEA1748CE4049EA0309B6FBF8FAA2
:100CD0004FEA194408FB1A661FFA87FC44EA0643E8
:100CE0000AFB0CF29A4200FA0EF40AD9DB190AF157
:100CF000FF3180F087809A4240F28480AAF1020A94
:100D00003B449B1A1FFA89F9B3FBF8F108FB113336
:100D100049EA034301FB0CF69E4207D9DB1901F1B6
:100D2000FF326BD29E4269D902393B449B1B41EA98
:100D30000A418EE7C1F1200E22FA0EF48B402343C4
:100D400020FA0EF706FA01F44FEA134C26FA0EF6D3
:100D50003C43B6FBFCF9270C0CFB19661FFA83F821
:100D600047EA064609FB08F7B74202FA01F200FA21
:100D700001FA08D9F61809F1FF3041D2B7423FD93C
:100D8000A9F102091E44F61BA0B2B6FBFCF40CFB51
:100D9000146640EA064704FB08F8B84507D9FF186F
:100DA00004F1FF3028D2B84526D9023C1F4444EA5A
:100DB0000940C8EB0707A0FB02894F4544464E4651
:100DC00014D329D065B3BAEB040367EB060707FA1F
:100DD0000EFECB40CF404EEA030385E88800002199
:100DE000BDE8F0871346F8E61046E0E6B8EB0204EB
:100DF00069EB03060138E5E70446D8E7114695E7B5
:100E00008146C0E78A467CE7023B3C4448E7084607
:100E10000AE702383E442FE7C245E7D33E46D1E712
:100E20002946BDE8F08700BF704700BF044B1B7820
:100E300003713221082203234171827103607047DC
:100E4000000000200268012A6BD9F0B50679322E25
:100E500083B002D0002003B0F0BD84790C2C05468D
:100E600000F04C8126D9622C00F034815BD80E2C26
:100E700000F0CC80602CEDD1022AEBD04379BD4A42
:100E80002B71E023AB7110686E710DF1070105F055
:100E9000CFF89DF80730012B75D0002B00F03E8174
:100EA000022B56D104220321E81D00F0A5FF0723E1
:100EB0002B604EE0022C00F0C48040F2B280082C7F
:100EC00069D0092CC6D1022AC4D0AA4BAA4C1868F2
:100ED00005F096F8A94B186805F0CAFAA84B1868EF
:100EE00004F036FEA74B186804F02EFCA64B1868D9
:100EF00004F058FDA54B186804F0CEFE0023A44A68
:100F0000A44823601946137003F008FAAB796A7994
:100F10002A71803B2846AB716E7100F03DFA0120CA
:100F200099E700207047762C18D07A2C92D1022AAB
:100F300090D04379954A2B71FA23AB7110686E718A
:100F40000DF1070104F0C0FE9DF80730002B00F002
:100F5000E580284600F020FA01207CE7022A3FF4D1
:100F600079AF4379884A2B71F623AB7110686E71A3
:100F70000DF1070104F02EFD9DF80730002B00F065
:100F8000CD80012BE5D104220221E81D00F034FFC1
:100F900007232B60DDE7022A3FF45CAF0421073012
:100FA00000F01EFF744C20602368DF0700F1C8804A
:100FB00023689E0700F1CE802368580700F1C580A2
:100FC0002368D90600F1B78023689A0600F1AE8045
:100FD00023685B0603D56D4B186804F04DFE6C4B1F
:100FE0006C48012400211C7003F068F9AB796A4950
:100FF0006A790A70803B322003216871AB71284600
:101000002A71296000F0C8F9204624E7032A7FF4FA
:1010100021AF417902608E230171467183710120F5
:1010200019E7012C7FF416AF032A7FF413AF41793F
:101030000260812301714671837100F0ADF9204691
:1010400009E7032A7FF406AF534B4279027103F19B
:10105000100103F10800EA1D05F10F0482279142F7
:1010600088BF84426E71AF7179D8510777D1D3E9C7
:101070000201C2E90001D3E90401C4E90001D3E996
:10108000060105F11702C2E90001D3E9080105F1E3
:101090001F02C2E9000193F8282085F8272093F861
:1010A000292085F8282093F82A2085F8292093F80C
:1010B0002B2085F82A2093F82C2085F82B2093F8F4
:1010C0002D3085F82C30292328462B6000F064F958
:1010D0000120C0E6022A3FF4BDAE43790371E2234A
:1010E0008371467104220121073000F085FE072339
:1010F00028462B6000F050F90120ACE6022A3FF4AC
:10110000A9AE437903718C22032346718271036077
:10111000427A017AC07900F029FD1AE70422012100
:10112000E81D00F069FE07232B6012E7164B1868D4
:1011300004F028FC4CE7134B186804F0F5FA43E779
:101140000C4B186804F04CFF32E70D4B186804F0A4
:10115000EFFC35E7094B186805F07AF92CE70F4BDF
:10116000AA1D03F1260013F8011F02F8011F834294
:10117000F9D1A8E72805002054050020200500200B
:101180002405002014050020180500201C0500205F
:10119000840E0020440E00200000002007000020E4
:1011A0000CF0FEBF0DF048B80DF05EB80DF074B84D
:1011B0000DF024BB0DF032BB10B50C460DF044FB16
:1011C000206010BD30B587B0054603A80C460DF071
:1011D00009FBDDED037ADFED256A2B686968F5EE22
:1011E000C07AF1EE10FAACBFB6EE007ABEEE007A2D
:1011F000A7EEA67ADFED1D6AFDEEC77ACDED017A86
:10120000DDED047ABDF80420F5EEC07AF1EE10FAB7
:10121000ACBFB6EE007ABEEE007AA7EEA67A12B2A6
:101220009A1ADFED126A2260FDEEC77AAA68CDED48
:10123000017ADDED057ABDF80430F5EEC07AF1EE05
:1012400010FAACBFB6EE007ABEEE007AA7EEA67A30
:101250001BB2CB1A6360FDEEC77ACDED017ABDF803
:1012600004301BB2D31AA36007B030BD00007A442B
:10127000B5EEC00AF1EE10FA9FED097AACBFF6EEBA
:10128000007AFEEE007AE0EE077A82B0FDEEE77AB1
:10129000CDED017ABDF8040000B202B0704700BF86
:1012A00000007A442DE9F04F814683B0374800F0C2
:1012B0002BF918B1002003B0BDE8F08F334800F0DF
:1012C00081F9334BC0F500709C8883B2A34236BFCE
:1012D000C4F5007BC4EB030B9B4401931FFA8BF313
:1012E0000093002BE6D04FF0000ADFF8A8B0554677
:1012F000D046564605E00136009B1FFA86F8434566
:101300003CD9621C1BF8043094B2B4F5007F28BFAE
:101310000024F02BEFD11E4B9C880EB3002701E078
:1013200047451DD204F1010ACAF3080A09EB050278
:101330001BF804001BF80A10043200F073FCC0B262
:1013400083B21F4401352344BFB2C3F30804ADB2D6
:101350000028E5D10E4BA3F804A003B0BDE8F08F40
:1013600001340B4BC9F80050C4F3080448469C8074
:1013700000F0D0FC0028BED001209CE7B3F5807FB0
:1013800098D9034BBDF804209A8093E730080020D9
:10139000780800204009002070B5084C054600F090
:1013A00053FC2946204600F00DFC214682B241F252
:1013B00088330348BDE8704003F036BB400B002083
:1013C00080080020334BF0B5DA6C334C42F0010258
:1013D000DA64DA6C8BB002F001020192019ADA6CE5
:1013E00042F00102DA64DA6C02F001020292029A1F
:1013F0009A6D42F400329A659A6D02F400320392BB
:10140000039A9A6C42F001029A649B6C03F0010308
:1014100000250422049305A9022307264FF09040DB
:10142000059206930893049F0795099600F03AFFEA
:1014300008234FF0904005A90593099600F032FF6C
:10144000164B174A1B68636020460C23A560E560B5
:101450002561A5612260636103F068FC10B100F0B2
:101460009FFBFEE70F4D104E0746284600F0AEF8F2
:10147000284600F061FE4FF4007331461A462046BC
:10148000E566AC6267676665A4F8583003F058FB00
:101490000BB0F0BD0010024080080020300000209A
:1014A000004400403008002040090020F0B597B00B
:1014B000102001230222602700262825072404216A
:1014C000059005A80B93109311930D970C960F920E
:1014D000159212951394149101F084FC80B90023A5
:1014E0000F2403220421684600940192029303937F
:1014F000049301F079FF08B100F052FB17B0F0BD82
:1015000000F04EFBEBE700BF0368294A934219D96C
:10151000284902F560728B4212682FD014318B4239
:1015200032D014318B4231D014318B4237D0143148
:101530008B423AD0204883420CBF4FF400034FF057
:1015400000631CE01D4A1E499342086813D0143200
:10155000934217D0143293421ED01432934221D0BA
:101560001432934215D0143293420CBF4FF400034F
:101570004FF0006300E0082318407047082303EA97
:10158000020070478023F7E78023F8E74FF40063F9
:10159000F5E74FF40023EFE74FF40063ECE74FF477
:1015A0000043ECE74FF40043E6E74FF40023E6E79F
:1015B00080000240080402406C040240080002401F
:1015C0000000024003685868704700BF30B4094B00
:1015D00003608025002320244FF44051022205613E
:1015E000C461016242608360C3604361836130BC57
:1015F000704700BF6C0002402DE9F04F2DED028BCB
:10160000AFB000F00FFDFFF751FF002004F05AFFCC
:101610000121002004F07CFF954B964C9A6CDFF87A
:1016200088A242F480529A649B6C03F48053214652
:1016300002934FF0FF30029B03F090FF9FED8E0A64
:10164000206804F0ABF8211D4FF0FF3004F0B6F82D
:101650009FED890A606804F0D7F90221606804F000
:10166000E3F904F108014FF0FF3004F09BFA04F1B4
:101670000C014FF0FF3004F0F5FC04F110014FF0C5
:10168000FF3004F0E1F904F114014FF0FF3004F0F1
:1016900035FB9FED790AFFF783FD01A914A8FFF739
:1016A0008BFD0EA8FFF77EFD744A754B0E920EA8B7
:1016B0000F93FFF779FD002304A804930593069385
:1016C000FFF776FD9FED6C0AFFF774FD0125FFF72C
:1016D00079FE00230C221DA8279322931D921F95AB
:1016E00001F080FB674BF8B11D607F22F923CAF837
:1016F000003063622262644BA3614022002363488E
:10170000E261A3622363636302F078FA00B1FEE74B
:101710000DF1B8095E4B49F8903D012249465B48FE
:1017200002F0DAFB40B1FEE718607F22FF23CAF81F
:10173000003063622262DEE741F2080320902190CC
:1017400001221DA951481D9302F0CCFA064600B1B2
:10175000FEE7504D5049A86049F63F4227232846EE
:1017600085E806002E61EB6002F092FC4FF4805396
:10177000494628460A9302F0ADFF284602F01AFDBA
:10178000284607A90796099603F01EF93246022358
:1017900028461DA91D961F9621961E9302F002FE53
:1017A000284602F0F9FC3D4D3D4F324E9FED3D8AFB
:1017B000A8463A48FFF776FD18B198F80430322B66
:1017C00051D03B78002BF4D094F83C30002BF0D073
:1017D0004FF0000B5A461DA92C4886F83CB002F089
:1017E00045FB5A464946294802F022FCDAF8001027
:1017F0001E9B9DF87420306CEA71CB1A642202FBA8
:1018000003F39DF875E09DF8762085F808E0400622
:1018100001F101016A7293FBF1F3AB7246D4236CC0
:10182000DA0668D4236C580700F18C80236C9A0781
:1018300000F1A680236CD80700F1C080236C9A06C3
:1018400000F1DA801548FFF7F1FA532313482B60B3
:10185000FFF7A2FD1148FFF725FD0028B1D098F849
:101860000430322BADD10D48FFF7ECFAA9E700BFE9
:101870000010024014050020000048426F12033C93
:101880009A99193E70050020002800402C05002080
:1018900001032116440E002000040040400D0020EA
:1018A000840E002000007A44880E0020336C8DF8EE
:1018B00028B05906B3D54946B06804F0FDF90028B0
:1018C000ADD19DF82830012BA9D11DA9B06804F035
:1018D00003FA04221D99904800F08EFA04221E9902
:1018E0008E4800F089FA04221F998D4800F084FA8E
:1018F000236CDA0696D5336C0022DB068DF8742053
:1019000090D51DA9306803F02FFF00288AD19DF8DB
:101910007430012B86D18349306803F02DFF0422F7
:10192000716C814800F068FA0422B16C7F4800F0C5
:1019300063FA7F48F16C042200F05EFA236C5807CA
:101940007FF574AF336C002259078DF828207FF59E
:101950006DAF4946306904F00BF900287FF466AF9B
:101960009DF82830012B7FF461AF1DA9306904F088
:1019700007F9704B1D981860236C9A077FF55AAFD2
:10198000336C00229B078DF828207FF553AF494622
:10199000F06804F07DFD00287FF44CAF9DF82830FE
:1019A000012B7FF447AF1DA9F06804F079FD624B6D
:1019B0001D981860236CD8077FF540AF336C002268
:1019C000D9078DF828207FF539AF4946706904F0B2
:1019D00027FB00287FF432AF9DF82830012B7FF4DD
:1019E0002DAF1DA9706904F02BFB544B1D98186096
:1019F000236C9A067FF526AF336C00229B068DF888
:101A000074206AD4D4ED117AB8EEE75AD4ED127A84
:101A1000F8EEE75AD4ED137AB8EEE76AD4ED147A0B
:101A2000F8EEE76AD4ED157AB8EEE77AD4ED167AD7
:101A3000F8EEE77AC5EE084A002303AA07A91DA815
:101A4000039385EE885AC6EE085A86EE886AC7EE7A
:101A5000086A87EE887ACDED1D4A8DED1E5ACDEDD0
:101A60001F5A8DED206ACDED216A8DED227AFFF7A8
:101A70009DFB49463248FFF7A5FB9DED070AFFF79E
:101A8000F7FB042201462F4800F0B6F99DED080A45
:101A9000FFF7EEFB042201462B4800F0ADF99DED67
:101AA000090AFFF7E5FB04220146284800F0A4F9E3
:101AB0000A992748042200F09FF90B99254804222F
:101AC00000F09AF90C992448042200F095F90422B8
:101AD0000399224800F090F9B4E61DA9706803F05C
:101AE00071FF00288ED19DF87430012B8AD11449E2
:101AF000706803F077FF316D1948042200F07CF91B
:101B0000716D1848042200F077F90422B16D16486F
:101B100000F072F976E700BF6F0D0020730D002012
:101B2000770D002058050020570D00205B0D002088
:101B30005F0D0020530D00204F0D00204B0D0020A5
:101B4000640500207B0D00207F0D0020830D002008
:101B5000870D00208B0D00208F0D0020930D00209D
:101B6000630D0020670D00206B0D002000B587B0CD
:101B700000238DF804008DF805108DF8062001A9CA
:101B80001A4606488DF8073002930493059302F035
:101B9000A9F800B1FEE707B05DF804FB2C050020B2
:101BA000FEE700BF704700BF0268044B9A4200D0B6
:101BB0007047034B012283F83C207047000400402B
:101BC000140500200A68F0B5074642B3002210460B
:101BD000CD1C4FF0F10C4FF0F20E09E0F12B1BD1B0
:101BE0002370637002260B680130834232440FD9A0
:101BF00015F8013FF02B07EB0204EFD107F802C004
:101C000084F801E00B680130022683423244EFD8A9
:101C1000501CF023BB54F0BD01262370E3E70120E4
:101C2000F7E700BFF12802D0107001207047F129BA
:101C300003D0F22904D000207047117002207047B1
:101C4000F0231370022070470268002A5CD0F0B5C0
:101C5000141FA408531E0134042B4FEA840550D9E5
:101C600000273E4600F1040E5EF8043B03F07F318E
:101C70006FEA030CC1F180310CF080334B4003F06C
:101C80007F310137734006F07F3603F080330E4416
:101C9000BC4286EA0306E7D8C6F307233344C6F3FB
:101CA00007441C4404EB166395422946DBB223D05B
:101CB00045184C1C2D799442A3EB0503DBB21BD2D3
:101CC00005198C1C2D79A242A3EB0503DBB213D9B5
:101CD0000519CC1C2D79A242A3EB0503DBB20BD96D
:101CE0000444043124798A42A3EB0403DBB203D910
:101CF000014409795B1ADBB2511C02441371016083
:101D0000F0BD00210B46D3E71346024401211371B5
:101D1000016070470168F0B500295CD00D1FAD0867
:101D20004F1E0135062F4FEA850251D90026334652
:101D300000F1040C5CF8044B013604F07F3E5C407B
:101D400003F07F3304F080347344AE4283EA04032B
:101D5000F0D3C3F307241D19C3F307442C4404EB49
:101D600013639142DBB22DD08518541C2D798C421F
:101D70002B44DBB226D20519941C2D79A1422B44A9
:101D8000DBB21FD90519D41C2D79A1422B44DBB23B
:101D900018D90519141D2D79A1422B44DBB211D994
:101DA0000519541D2D79A1422B44DBB20AD90444F4
:101DB0000632247991422344DBB203D902441279DA
:101DC0001344DBB2B3FA83F35B0907601846F0BD36
:101DD00000221346C8E701234FF0FF37F5E700BFA5
:101DE00001394318425C29B113F8011D984201EBF7
:101DF0000222F9D11046704732B1024400F8011BAB
:101E000090424FEA2121F9D1704700BF284B00B51D
:101E10009A6D42F080529A659B6DB5B003F0805385
:101E20000093009B00F050FF224B1B680C2133BB3A
:101E3000012201A80B9306930191039200F0D2FFB7
:101E400098BB4FF400324FF4807312A81292339370
:101E500001F0BCFC08B1FFF7A3FE154AD2F89030A0
:101E600043F40043C2F890300F210022292000F0F3
:101E700005F9292000F03AF935B05DF804FB00239C
:101E8000012201A801910B930393069200F0AAFF8F
:101E900020B94FF400324FF40073D6E7FFF780FE0D
:101EA0004FF400324FF40073CFE7FFF779FEC8E735
:101EB000001002407005002002680E4B9A4200D0CC
:101EC000704703F5033300B59A6D42F002029A653C
:101ED0009B6D83B003F00203019300220F211D20AC
:101EE000019B00F0CBF81D2000F000F903B05DF875
:101EF00004FB00BF00040040704700BFFEE700BFC6
:101F000000F09CB8014802F0B5BC00BF440E0020B0
:101F10004FF4005000F0E0BA70B5161E07DD0C4615
:101F20008D19AFF3008004F8010BA542F9D13046BA
:101F300070BD00BF70B5161E07DD0C468D1914F874
:101F4000010BAFF30080A542F9D1304670BD00BF50
:101F50000A4A08B5136873B118446946884202D822
:101F60001060184608BD0CF05DFD0C2303604FF0B7
:101F7000FF33184608BD024B1360EDE774050020DF
:101F8000C80E00204FF0FF30704700BF4FF40053E1
:101F90004B600020704700BF012070470020704751
:101FA000DFF834D0002103E00C4B5B584350043180
:101FB0000B480C4B42189A42F6D30B4A02E000231E
:101FC00042F8043B094B9A42F9D303F0DBF80CF0DA
:101FD0002FFDFFF711FBFEE70080012098FA0008B3
:101FE00000000020F8040020F8040020C80E0020A3
:101FF000FEE70000704700BF084B094A1B6810B598
:10200000A2FB03230446980900F07CF82146002235
:102010004FF0FF3000F032F8002010BD34000020F7
:10202000D34D621008B5032000F016F80F20FFF71B
:10203000E3FFFFF7DFFF002008BD00BF024A13687F
:1020400001331360704700BF8C0E0020014B1868ED
:10205000704700BF8C0E0020074AD1684FF6FF037F
:102060000B40000243F0BF6300F4E06043F4003330
:102070000343D360704700BF00ED00E0194BDB68FD
:10208000C3F3022330B4C3F10705042D03F10404A4
:1020900028BF0425062C18D9033B01249C40013C91
:1020A00022400124AC40013C214001FA03F3002806
:1020B00042EA03020CDB00F1604000F561401201CE
:1020C000D2B280F8002330BC704700221346E8E704
:1020D000054B00F00F0012010344D2B21A7630BC57
:1020E000704700BF00ED00E0FCEC00E000F01F01D5
:1020F00001234009024A8B4042F82030704700BF5C
:1021000000E100E00138B0F1807F0ED2084B10B43E
:10211000084C5860F02084F8230000220721104664
:102120009A6019605DF8044B70470120704700BF4A
:1021300010E000E000ED00E0002851D0F0B5324A98
:1021400004689442034641D9304A3149DFF8D0E06F
:102150002244A1FB0212120992009F68DD681E69E9
:102160005869C3F840E002213D4383F82510354308
:102170009969DE695A6405430D4320682E431D6A40
:1021800020F4FF41354321F070012943B7F5804F1A
:1021900021600FD01F498E4524D01F490F200C68A5
:1021A000904024EA000008605C68086804FA02F2C3
:1021B00002430A6000200122D863D8621863586382
:1021C000986383F8240083F82520F0BD134A104952
:1021D000DFF840E02244A1FB021212099200BCE7A2
:1021E00001207047D1F8A8400F20904024EA000059
:1021F000C1F8A8005C68D1F8A80004FA02F2024312
:10220000C1F8A820D6E700BF07040240F8FBFDBFD5
:10221000CDCCCCCC00000240A8040240F8FFFDBFAA
:1022200000040240F0B590F82440012C0CD090F846
:1022300025400125E4B2AC4280F8245006D00023AA
:1022400080F824300220F0BD0220F0BD056802278E
:10225000002680F82570C6632E68076C26F0010EF4
:10226000466CC5F800E0B44086687C606B60036B28
:10227000102E0BBFAA60A960E960EA604BB12B6821
:1022800043F00E032B602B6843F001032B6000200A
:10229000F0BD2B6823F004032B602B6843F00A0386
:1022A0002B60F0E78C460968002900F003812DE9D6
:1022B000F04FDFF820E283B0002588E04FEA4508C0
:1022C0000323D0F8009003FA08F3DB4304F0030A79
:1022D00009EA03090AFA08FB013F4BEA0909012F41
:1022E000C0F8009040F2A780BAF1030F00F0BB8065
:1022F000C768DCF808203B4002FA08F21343C360C9
:10230000E30060D56C4B6C4A1B6E43F0010313660F
:10231000136E25F0030202F1804203F0010302F57F
:102320008032019305F00303019FD2F8089098468C
:102330000F279B009F40B0F1904F29EA070900F05A
:102340009F805E4FB84200F09D805D4FB84200F024
:102350009D805C4FB84200F09E805B4FB84200F019
:102360009F805A4FB84200F0A080594FB8420CBF2E
:102370004FF006084FF0070808FA03F343EA090391
:102380009360DEF80030F243E7034CBF3343134061
:10239000CEF80030DEF80430A7034CBF33431340BF
:1023A000CEF80430DEF80830E7024CBF3343134068
:1023B000CEF80830DEF80C30A40254BF02EA03065F
:1023C0001E43CEF80C60013531FA05F355D00123D8
:1023D00003FA05F212EA0106F5D0DCF8044024F015
:1023E0001007022F7FF46AAF4FEAD50A00EB8A0A82
:1023F00005F00709DAF82030DCF810704FEA890997
:102400004FF00F0808FA09F823EA080807FA09F359
:1024100043EA0803CAF820304FEA45080323076857
:1024200003FA08F3DB4304F0030A1F400AFA08F931
:1024300049EA07070760876807EA0309DCF80C70B8
:1024400007FA08F747EA090787604768C4F30019E5
:1024500027EA020709FA05F949EA0707BAF1030F63
:1024600047607FF445AFC76AC4F3C00927EA020298
:102470004F46AF403A43C2623AE703B0BDE8F08F3F
:1024800000237BE7012707FA03F377E74FF0020801
:1024900008FA03F372E74FF0030808FA03F36DE755
:1024A0004FF0040808FA03F368E74FF0050808FA4C
:1024B00003F363E7704700BF0010024000040048C8
:1024C00000080048000C00480010004800140048B4
:1024D0000018004800040140044A5169014200D13B
:1024E000704708B55061FFF75DFB08BD000401406F
:1024F00070B504460D4616466B1C226828D19369B8
:10250000980728D49369D906F9D593699D06FCD517
:1025100010212023D161D3619369980744BF002320
:1025200093629369D90703D4936943F001039361DC
:1025300051681F4B04250B40202000215360656427
:1025400084F8401084F8410084F84210012070BDE6
:1025500093699B0701D5002070BD9369D90619D4F2
:1025600025B1FFF773FD801B8542C5D2636C202126
:1025700000220B43636484F8402084F84110032058
:1025800084F8422070BD4DB1FFF760FD801B85428D
:1025900004D3226893699B06F5D5B9E7002320226E
:1025A00084F8412084F8403084F84230012070BD26
:1025B00000E800FE70B5044616460D4629B93BE01A
:1025C000FFF744FD801B85423DD32268936998063E
:1025D00046D49369D906F3D5681C22D1936999062C
:1025E000FCD510212023D161D3619369980744BFA2
:1025F000002393629369D90703D4936943F00103DD
:10260000936151681D4B04250B402020002153602D
:10261000656484F8401084F8410084F84210012079
:1026200070BD93699B06DCD4E5B1FFF70FFD801BFD
:10263000854217D32268CFE7026893699B061BD4B3
:102640009369DB06C8D4636C202100220B436364CA
:1026500084F8402084F84110032084F8422070BDA3
:10266000002070BD0023202284F8412084F84030EF
:1026700084F84230012070BD084670BD00E800FEBD
:102680002DE9F041D0F800E0294CDEF80470069EF8
:102690003C40C1F3090144F400541F462143DBB21E
:1026A00041EA03419046CEF80410079A31460546A8
:1026B000FFF71EFF60B9012F044610D02B684FEAC8
:1026C00018229A623146079A2846FFF711FF30B167
:1026D0006B6C042B1FD003242046BDE8F0812968D1
:1026E0005FFA88F38B62731C07D18B6903F0400398
:1026F000002BFAD02046BDE8F0818B6903F040033F
:10270000002BE9D15EB1FFF7A1FC079BC01A8642FE
:1027100005D32968E7E701242046BDE8F0810023BE
:10272000202285F8412085F8403085F84230D2E7F4
:10273000009800FC2DE9F84307682B4CD7F804E01B
:10274000089E0EEA040444F08074C1F3090144F4C5
:1027500000540C43D9B244EA014491467C60099A82
:10276000314605469846FFF7C3FE68B9B8F1010F38
:10277000044610D02B684FEA19229A623146099A12
:102780002846FFF7B5FE30B16B6C042B1FD0032435
:102790002046BDE8F88329685FFA89F38B62731CD1
:1027A00007D18B6903F08003002BFAD02046BDE8E7
:1027B000F8838B6903F08003002BE9D15EB1FFF74A
:1027C00045FC099BC01A864205D32968E7E7012426
:1027D0002046BDE8F8830023202285F8412085F8B3
:1027E000403085F84230D2E7009800FC704700BFC7
:1027F000002850D0F8B590F84130044603F0FF02AD
:10280000002B3FD02368E068242284F84120196817
:10281000626821F0010122F0706219601A619A6801
:10282000012822F400429A60A26830D042F40442A7
:1028300002289A6004BF4FF400625A6058686169C8
:10284000256A2269A769E66940F0007040F40040FB
:102850005860D8680A4342EA072246EA050120F494
:102860000040D860DA6019601968002241F0010167
:10287000202519601046626484F84150226384F870
:102880004220F8BD80F84020FFF7B0FFBAE742F4DD
:1028900000429A60D2E70120704700BF704700BF36
:1028A000B0B10268242310B580F84130136823F0DA
:1028B000010304461360FFF7F1FF0023636484F80B
:1028C000403084F841301846236384F8423010BD0C
:1028D000012070472DE9F04790F8414082B0202C4C
:1028E000BDF82C5003D0022002B0BDE8F0870A9C4E
:1028F000002C40D0002D3ED090F84040012CF2D06A
:102900001F46012380F84030164688460446FFF7EC
:102910009DFB814605E0FFF799FBC9EB00001928F4
:102920002BD82368986900F400400028F3D10A9B53
:102930006362212040214FF0000A0C9B0093CDF8E8
:1029400004903B4684F84100324684F84210C4F8B3
:1029500034A0C4F844A0414665852046FFF7EAFE4E
:10296000A0B1636C84F840A0042B04D00320BBE723
:10297000636C042BFAD10120B6E70023202284F8EF
:10298000412084F8403084F84230EFE7638D9BB2F9
:10299000FF2B67D92268474B51680B4043F0FF7308
:1029A000C8F3090843F4803348EA0303FF21218573
:1029B0005360FF2503E0638D9BB2002B64D04A4631
:1029C0000C992046FFF794FD0028D1D1626A216856
:1029D000238D501C606212788A62628D013B013A3D
:1029E00092B29BB262852385002BE4D1638D9BB2AA
:1029F000002BE0D00C9B013314D18B6903F08003D2
:102A0000002BFAD0638D9BB2FF2B1CD94A68294B4F
:102A10002585134043F0FF7343F4803348EA0303F2
:102A20004B60C8E78B6903F08003002BEAD10C9B55
:102A3000002BA2D0FFF70AFB0C9BC9EB00008342DE
:102A40009BD32168D7E7628D1A4B486892B2034046
:102A500043F00073D0B243EA004348EA03032285FF
:102A60004B60A8E72168628D124B486892B2034020
:102A700043F00073D0B2C8F3090843EA004348EAC0
:102A8000030322854B6094E74A460C992046FFF7E2
:102A900091FD00287FF46CAF2368074A2021D9619B
:102AA0005D682A405A6084F8411084F8400084F838
:102AB000420019E7009800FC00E800FE2DE9F0470D
:102AC00090F8414082B0202CBDF82C5003D0022059
:102AD00002B0BDE8F0870A9C002C48D0002D46D0FB
:102AE00090F84040012CF2D09946012380F8403004
:102AF00017460E460446FFF7A9FA804605E0FFF7A1
:102B0000A5FAC8EB0000192841D82368986900F499
:102B100000400028F3D10A9B6362222040214FF03D
:102B2000000A0C9B0093CDF804804B4684F84100CA
:102B30003A4684F84210C4F834A0C4F844A03146A0
:102B400065852046FFF79CFD58B3636C84F840A070
:102B5000042B0CD00320BBE742460C992046FFF71C
:102B600029FD002800F09980636C042BF2D101202C
:102B7000AEE7936903F08003002B5FD10C9B33B168
:102B8000FFF764FA0C9BC8EB000083424ED200238F
:102B9000202284F8412084F8403084F84230032019
:102BA00096E7638D22689BB2FF2B64D95168424B34
:102BB0000B4043F0FF73C6F3090643F492333343EB
:102BC000FF21218553600C9BFF2501331CD19369A4
:102BD00003F00403002BFAD0636A526A591C616245
:102BE0001A70238D628D013B013A9BB292B223850C
:102BF000628513B9638D9BB2BBB9638D9BB2002B09
:102C0000AAD022680C9BE0E7936903F00403002B31
:102C1000E2D10C9B002BBAD0FFF718FA0C9BC8EB43
:102C200000008342B3D32268CFE70C9B22680133B4
:102C30009FD1936903F08003002BFAD0638D9BB280
:102C4000FF2B0AD951681C4B25850B4043F0FF73BD
:102C500043F4803333435360CFE7618D164B5068A4
:102C600089B2034043F00073C8B243EA00433343E0
:102C700021855360C1E7618D0F4B5068034089B2D5
:102C800043F00073C8B243F41053C6F3090643EA95
:102C9000004333432185536095E72368074A202189
:102CA000D9615D682A405A6084F8411084F8400078
:102CB00084F842000CE700BF009800FC00E800FE2A
:102CC00090F84100704700BF024A136843F48073D4
:102CD0001360704700700040024B186800F4C06039
:102CE000704700BF007000403A4B9A6812F00C0F1A
:102CF00030B439D09A6802F00C020C2A2FD0354A31
:102D0000936803F00C03042B55D0936803F00C0375
:102D1000082B5CD02F4CA16801F00C0100200C297D
:102D200005463DD1E168E26801F00301C2F30212F9
:102D3000022902F1010341D0032933D0B5FBF3F39B
:102D4000E268C2F3062203FB02F3224AD068C0F312
:102D500041600130400030BCB3FBF0F07047DB68ED
:102D600003F00303012BCAD11A4B1B491A6812073F
:102D700054BFD3F894301B68164A54BFC3F30323DF
:102D8000C3F30313926851F8235012F00C0F0CBFD9
:102D9000284600200F4CA16801F00C010C29C1D07D
:102DA00030BC7047E0680D4AB2FBF3F2C0F3062076
:102DB00002FB00F3C9E70A480025EBE7E068084991
:102DC000B1FBF3F2C0F3062002FB00F3BDE70348BA
:102DD0000025DFE7001002406CF8000800127A00BE
:102DE0000024F4002DE9F0410368DC0684B00546B8
:102DF0005DD5AB4B9A6812F00C0F40F044811B6814
:102E0000980703D5AB69002B00F0CA81A44B2C6A4C
:102E10001A68A34E110756BFD3F894301B681B09DC
:102E200003F0F003A34280F08B81B36DDA0040F130
:102E30003E82FFF751FFB0F5007F00F08382802CC7
:102E400000F2628200F0CA82A4F17004B4FA84F441
:102E50006409944A136823F007032343136013683B
:102E600003F007039C4240F09B818D4B1A6842F0AF
:102E700008021A6019682A6A21F0F0010A431A60F0
:102E80005A68E96922F47F4242EA01225A60FFF758
:102E90002BFF834B84499B68844AC3F30313CB5CA9
:102EA00020FA03F30F201360FFF7A6F82B68D90769
:102EB0002FD57B498A6802F00C02082A00F08C8129
:102EC0008A6802F00C020C2A00F080816B68B3F56E
:102ED000803F00F08B81B3F5A02F00F00882704C8A
:102EE000226822F480322260226822F4802222604A
:102EF000002B40F08081FFF7A9F8064605E0FFF7B8
:102F0000A5F8801B642800F2AA8123689F03F6D4E9
:102F10002B689E072BD562498A6802F00C02042AAE
:102F200000F07D818A6802F00C020C2A00F07181A9
:102F3000EB685B4C002B00F03781236843F480730F
:102F40002360FFF783F8064605E0FFF77FF8801B54
:102F5000022800F284812368514A5805F5D5536848
:102F6000296923F0F85343EA016353602B681A0779
:102F700019D56B694A4C002B00F0CD80D4F8943001
:102F800043F00103C4F89430FFF760F8064605E00B
:102F9000FFF75CF8801B022800F26181D4F89430BE
:102FA0009B07F5D52B685E073ED53D4B9A6DD40047
:102FB00000F159819A6D42F080529A659B6D03F041
:102FC00080530193019B0126394C2368D80540F1B9
:102FD0003681AB68012B00F0A681052B00F04581FE
:102FE0002F4CD4F8902022F00102C4F89020D4F89D
:102FF000902022F00402C4F89020002B40F042817F
:10300000FFF724F841F28837804606E0FFF71EF804
:10301000C8EB0000B84200F22281D4F890309B0740
:10302000F4D4002E40F07981AA6A42B31C4B99680F
:1030300001F00C010C2900F0B380022A1A6822F07A
:1030400080721A6000F085811A68110103D41A6831
:10305000920040F15D81124CE36823F0887323F401
:103060008033E360FEF7F2FF054605E0FEF7EEFF72
:10307000401B022800F2F38023689B01F6D4002055
:1030800004B0BDE8F0818269002A30D01A6842F0AD
:1030900001021A601C46FEF7D9FF064610E000BF89
:1030A00000100240002002409CF80008340000207C
:1030B00000700040FEF7CAFF801B022800F2CF809C
:1030C0002368A64A9F07F5D5136843F008031360E9
:1030D00011682B6A21F0F0010B4313605368E96912
:1030E00023F47F4343EA012353602B68DFE61A6829
:1030F00022F001021A601C46FEF7A8FF064605E012
:10310000FEF7A4FF801B022800F2A980236898071D
:10311000F6D42B68CBE6D4F8943023F00103C4F83E
:103120009430FEF793FF064605E0FEF78FFF801B05
:10313000022800F29480D4F894309F07F5D431E748
:10314000336843F008033360336823F0F00323430C
:1031500033607368EA6923F47F4343EA02237360B0
:10316000B36DDB0040F1B380FFF7B6FDB0F5007F33
:1031700000F0E180802C00F2C98000F03181A4F1E0
:103180007004B4FA84F46409754A136823F00703E1
:1031900023431360136803F007039C423FF477AEA8
:1031A000012004B0BDE8F081236823F4807323601C
:1031B000FEF74CFF064604E0FEF748FF801B02289E
:1031C0004DD823685905F7D42B68D0E6CA6802F0B9
:1031D0000302032A7FF47AAE604A126892037FF5F5
:1031E00098AE6A68002A7FF494AED9E75B4A136808
:1031F00043F480331360FEF729FF584C064604E081
:10320000FEF724FF801B642829D823689B03F7D589
:103210007EE6CA6802F00302022A7FF489AE4F4AB2
:103220001268540502D5EA68002AB9D04B492869CA
:103230004A6822F0F85242EA00624A6097E6236840
:1032400043F480732360FEF701FF07462368D90526
:103250003FF5BFAEFEF7FAFEC01B0228F6D90320E9
:1032600004B0BDE8F0810026AEE63C4BD3F89020D8
:1032700042F00402C3F89020D3F8902042F00102FB
:10328000C3F89020FEF7E2FE344C804641F28837C6
:1032900005E0FEF7DBFEC8EB0000B842DFD8D4F84B
:1032A00090309A07F5D5002E3FF4BEAE35E0B36DF1
:1032B00043F08053B365B36D03F080530293029BD8
:1032C000FFF70AFDB36D23F08053B365B3E5B36D2B
:1032D00043F08053B365B36D03F080530393039BB6
:1032E000FFF7FAFCB36D23F08053B3653EE703F1BB
:1032F0008043A3F53C331A6842F480221A601A68AE
:1033000042F480321A6076E70324A2E503243BE707
:10331000DA6822F00302DA609DE6104A936D23F02A
:103320008053936580E60D4AD2F8903043F0010354
:10333000C2F89030A6E7802C4CD9A12C34BF0124D0
:10334000022421E7802C47D9A12C34BF0124022478
:103350007FE51C46FEF77AFE064609E000100240B3
:1033600000200240FEF772FE801B02283FF677AF76
:1033700023681C4A9F01F5D405F12C03C8CBAC6B24
:10338000E86B296C43EA0723751E43EA05132409F9
:10339000400843EA44430138490843EA40530139AD
:1033A00043EA4163D360136843F080731360D368CA
:1033B00043F08073D3601446FEF748FE054605E0EF
:1033C000FEF744FE401B02283FF649AF23689801F0
:1033D000F6D554E60024D7E600243AE5022438E581
:1033E0000224D1E600100240564A136803F0070396
:1033F0008B422DE9F0410CD2136823F007030B43F5
:103400001360136803F00703994202D00120BDE85E
:10341000F08103680C46D90705463DD4990706D5C7
:103420004948AA68816821F0F0010A438260454951
:103430000A6802F00702944209D20A6822F00702E1
:1034400022430A600A6802F007029442DED15A075A
:1034500006D53D48EA68816821F4E0610A4382604C
:103460001B0707D5384A2969936823F4605343EA58
:10347000C1039360FFF738FC334B34499B68344AEF
:10348000C3F30313CB5C20FA03F30F201360FEF7A2
:10349000B3FD0020BDE8F08143682B4A032B12687E
:1034A00049D0022B41D0002B48D19607AED5264EED
:1034B000B26822F003021343B360FEF7C7FD6B68E6
:1034C000032B074641F2883813D0022B27D0DBB9F3
:1034D00004E0FEF7BBFDC01B404529D8B36813F0DC
:1034E0000C0FF6D12B6899E7FEF7B0FDC01B4045E5
:1034F0001ED8B36803F00C030C2BF5D1F2E7FEF7EE
:10350000A5FDC01B404513D8B36803F00C03042B82
:10351000F5D1E7E7FEF79AFDC01B404508D8B36830
:1035200003F00C03082BF5D1DCE79703BFD46DE75C
:103530000320BDE8F0819201B9D467E750057FF51B
:1035400065AFB4E700200240001002409CF800087C
:1035500034000020044B054A9B680549C3F302234D
:103560000868D35CD840704700100240ACF80008EF
:1035700034000020044B054A9B680549C3F3C2236D
:103580000868D35CD840704700100240ACF80008CF
:1035900034000020494AF8B5D3689B0707D0D368A8
:1035A000046803F00303A3420DD00120F8BD0368B3
:1035B000022B12D0032B5AD0012BF6D11268970799
:1035C0000ED41846F8BD002BEFD0D3684268C3F381
:1035D000021301339342E8D10CE012685605E4D59A
:1035E000364D4268EC6824F073042343013A43EA01
:1035F0000213EB60314C236823F0806323600F4695
:103600000546FEF723FD064604E0FEF71FFD801B7E
:1036100002282AD82368294A1901F6D4002F2DD16F
:103620001169AC68E86821F41F3323F4407343EA5E
:103630000423000943EA40431361204C236843F00C
:1036400080632360FEF702FD064604E0FEF7FEFC01
:10365000801B022809D82368184A1B01F6D5AB69DC
:1036600011690B4313610020F8BD0320F8BD1468F5
:10367000A503B5D41268540397D5B1E7012F11699A
:103680000DD06869AC6821F0C06323F4FE434008A4
:1036900043EA0423013843EA40631361CDE7286914
:1036A000AC6821F4C00323F4FE43410843EA042339
:1036B000013943EA41531361BFE700BF00100240E4
:1036C000414AF8B5D3689B0707D0D368046803F074
:1036D0000303A3420DD00120F8BD0368022B12D0D2
:1036E000032B5AD0012BF6D1126897070ED4184637
:1036F000F8BD002BEFD0D3684268C3F30213013347
:103700009342E8D10CE012685605E4D52E4D42688C
:10371000EC6824F073042343013A43EA0213EB609C
:10372000294C236823F0805323600F460546FEF79B
:103730008DFC064604E0FEF789FC801B02282AD88F
:103740002368214A9900F6D4002F2DD15169AC6825
:10375000E86821F41F3323F4407343EA042300098B
:1037600043EA40435361184C236843F0805323607D
:10377000FEF76CFC064604E0FEF768FC801B02289E
:1037800009D82368104A9B00F6D56B6951690B4331
:1037900053610020F8BD0320F8BD1468A503B5D41B
:1037A0001268540397D5B1E751692869AC6821F0D4
:1037B000C06323F4FE43400843EA0423013843EA8C
:1037C00040635361CFE700BF001002402DE9F04392
:1037D000036813F4006683B0044617D0416EB1F558
:1037E000800F00F0B88140F2CF81B1F5000F00F0FA
:1037F0009981B1F5400F40F0D681C348D0F88820B8
:1038000022F440021143C0F888100026D80440F189
:103810000081A16EB1F1807F00F0958140F2BA8104
:10382000B1F1007F00F08481B1F1407F40F0F08081
:103830003746002F40F08581B348A26ED0F888103B
:1038400021F040710A439903C0F8882000F1E58017
:10385000DA0708D5AC48A26BD0F8881021F0030134
:103860000A43C0F888209F0708D5A748E26BD0F824
:10387000881021F00C010A43C0F888205D0708D5A4
:10388000A148226CD0F8881021F030010A43C0F81A
:103890008820180708D59C48626CD0F8881021F061
:1038A000C0010A43C0F88820D90608D59648A26C02
:1038B000D0F8881021F440710A43C0F888209A0695
:1038C00008D59148E26CD0F8881021F440610A4391
:1038D000C0F888209F0508D58B48E26DD0F8881085
:1038E00021F440210A43C0F888205D0508D58648A8
:1038F000226ED0F8881021F440110A43C0F88820C5
:10390000580608D58048226DD0F8881021F440511F
:103910000A43C0F88820190608D57B48626DD0F8A4
:10392000881021F440410A43C0F88820DA0508D500
:103930007548A26DD0F8881021F440310A43C0F8D0
:1039400088209F0410D57048E16ED0F8882022F0BE
:1039500040620A43B1F1006FC0F8882000F0D880BF
:10396000B1F1806F00F026811D0310D56648216FEC
:10397000D0F8882022F040620A43B1F1006FC0F80D
:10398000882000F0CA80B1F1806F00F023815803D5
:1039900010D55D48616FD0F8882022F040620A435C
:1039A000B1F1006FC0F8882000F0A880B1F1806FFD
:1039B00000F00881590410D55348A16FD0F8882031
:1039C00022F040520A43B1F1805FC0F8882000F035
:1039D000CA80B1F1005F00F0CE801A0408D54A48D1
:1039E000E26FD0F8881021F080410A43C0F88820A7
:1039F000DB0309D54449D4F88020D1F8883023F07E
:103A000000431343C1F88830304603B0BDE8F0836B
:103A10000126374699037FF51BAF3B4B9A6DD200C9
:103A200056D54FF00008394D2B6843F480732B6056
:103A3000FEF70CFB814605E0FEF708FBC9EB000032
:103A4000022851D82B68DB05F6D5002F40F0D28034
:103A50002D4AD2F8903013F440732AD0D4F8841051
:103A60008B4200F0BF80D2F89030D2F8900040F442
:103A70008030C2F89000D2F8900023F4407320F414
:103A80008030C2F89000C2F89030D80740F18D80A5
:103A9000FEF7DCFA1C4D814641F2883705E0FEF75F
:103AA000D5FAC9EB0000B8421ED8D5F89030990776
:103AB000F5D5D4F884301449D1F8902022F440721E
:103AC0001343C1F89030B8F1000F11D12368BFE65D
:103AD0009A6D42F080529A659B6D03F0805301937A
:103AE000019B4FF001089EE70326B8F1000FEDD0CF
:103AF000054A936D23F080539365E7E7C26842F46B
:103B00008012C26056E700BF001002400070004003
:103B1000C26842F48012C26026E7C26842F4801292
:103B2000C26034E73448C26842F48032C26064E65E
:103B30003149CA68374642F48032CA60002F3FF4E8
:103B40007BAE3E4666E7002104F12000FFF7B8FD9A
:103B5000236807466DE600212030FFF7B1FD0646D9
:103B60002EB3236852E60221201DFFF713FD48B152
:103B70000646236831E7022104F12000FFF7A0FD8B
:103B80000028F5D1236828E769B90430FFF702FD62
:103B90000646E5E700297FF43BAF201DFFF7FAFC5E
:103BA0002368074645E6012630E60B4683E7616E4B
:103BB000236822E60121201DFFF7ECFCA0B1064698
:103BC0002368D1E60121201DFFF7E4FC70B1064611
:103BD0002368EFE60121201DFFF7DCFC40B106461B
:103BE0002368D4E60B4650E72368BDE62368E1E688
:103BF0002368CCE63E4666E70010024000286ED0FF
:103C0000F8B590F82130044603F0FF02002B4FD0A6
:103C1000236853220220CA2184F8210059625A6283
:103C2000DA6855062CD59A6861682569A069A66886
:103C3000E76822F4E00222F040029A609A68114399
:103C40002943014399601F611A6942EA06421A61D9
:103C5000DA6822F08002DA609A6892062DD5D86C74
:103C60006169E26920F00300D864D86C02430A431A
:103C7000FF250121DA6400205D6284F82110F8BD7F
:103C80004FF0FF32DA60FEF7E1F905462368DA68A3
:103C90005006C8D4FEF7DAF9401BB0F57A7FF5D9A3
:103CA0002268FF2104235162012084F82130F8BDED
:103CB00080F82020FEF7AAF8AAE7DA6822F0A0022E
:103CC000DA60FEF7C3F905462368DA689106C6D4C0
:103CD000FEF7BCF9401BB0F57A7FF5D9E0E701208B
:103CE000704700BF2DE9F84390F82030012B00F019
:103CF00086800124022380F8204080F82130046867
:103D0000002A3ED0A7684E780B7817F0400516BF02
:103D1000CF78CD703D044FEA06268F7808BF04683F
:103D200046EA03433B4343EA0507CA225323626240
:103D30006362E3685A068846064663D507F07F3318
:103D400023F0FE432360A168D8F80C30D8F8102087
:103D500021F48021A160A1680B431343A360E368B1
:103D600023F08003E360A3689B0668D50023FF214E
:103D700001226162184686F8212086F82030BDE8CD
:103D8000F883A6680B7816F0400615BFCE78CE7083
:103D900036040468092B65D900220A3BDBB2092BE3
:103DA00002F10102F9D84FEA021E5FFA8EFE4A784C
:103DB00043EA0E03092A4FEA034E4FF0000507D9E4
:103DC0000A3AD2B2092A05F10105F9D82D01EDB25E
:103DD0008B782A43092B4FEA02254FF0000707D9B9
:103DE0000A3BDBB2092B07F10107F9D83F01FFB20B
:103DF0004EEA06022A433B4342EA030795E70220C4
:103E0000BDE8F8834FF0FF33E360FEF71FF981460A
:103E10003468E36813F0400590D1FEF717F9C9EB59
:103E20000000B0F57A7FF3D93268FF210423516294
:103E3000012086F8205086F82130BDE8F883E36839
:103E400023F0A003E360FEF701F907463468E36856
:103E500013F020058AD1FEF7F9F8C01BB0F57A7F80
:103E6000F4D9E1E74FF0000EA1E700BF0368F0B519
:103E70009D6A1C691B684D6003F07F3323F0FE438D
:103E8000180CC3F30627C4F30E04DBB200F0400E97
:103E900000F03F068C6081F803E00E704F708B706D
:103EA000BAB93D091C09360906EB860605EB8505FE
:103EB00004EB840400F00F0007F00F0703F00F037A
:103EC00000EB460007EB450503EB440408704D701A
:103ED0008C700020F0BD00BFF8B590F82030012BA9
:103EE00065D00124022380F8204080F8213042B3BD
:103EF0004A78CB788D780C78110241EA03422A4344
:103F000042EA44340368CA21532259625A62DA6889
:103F1000510607464DD524F07F4424F0C0045C6070
:103F2000DA6822F08002DA609A68920662D500228E
:103F3000FF2001215862104687F8211087F82020C1
:103F4000F8BD4B78DC064FD4CA78092A4FF000043C
:103F500007D90A3AD2B2092A04F10104F9D8240196
:103F6000E4B22243092B4FEA02425FD900240A3B04
:103F7000DBB2092B04F10104F9D82501EDB28C78EC
:103F80002B43092C4FEA03254FF0000607D90A3CC2
:103F9000E4B2092C06F10106F9D83601F6B20B7825
:103FA00042EA433242EA050334431C43AAE70220B3
:103FB000F8BD4FF0FF32DA60FEF748F806463B687E
:103FC000DA6812F04005A6D1FEF740F8801BB0F584
:103FD0007A7FF4D93A68FF2104235162012087F8DF
:103FE000205087F82130F8BD23F010030A33DBB2EC
:103FF0004B70A9E7DA6822F0A002DA60FEF726F833
:1040000005463B68DA6812F0200490D1FEF71EF8EE
:10401000401BB0F57A7FF4D93A68FF21042351623E
:10402000012087F8204087F82130F8BD0025A6E759
:1040300003685B6823F07F4323F0C003F0B4C3F34D
:104040000725DEB2C3F3423705F01F001B0C0F70CB
:104050004870CB708E70BAB9000934091A0987000C
:1040600004EB840405F00F0506F00F06384402EB5C
:10407000820203F00F0306EB440405EB400003EB60
:1040800042038C704870CB700020F0BC704700BFBA
:10409000002878D0F8B590F83D30044603F0FF02D0
:1040A000002B57D023683949022284F83D208B42E7
:1040B0001A6854D0B3F1804F2AD0A1F594318B42C5
:1040C00026D001F580618B4222D001F580618B42C0
:1040D0001ED001F594318B421AD001F540618B421C
:1040E0001AD001F580618B4216D001F580618B42B8
:1040F00012D0A169E568606822F08002114319605E
:10410000DD62986201225A61002084F83D20F8BDEA
:10411000A16822F070020A432169A0691C4DE7687A
:10412000666822F44072114321F080010143AB42E2
:104130001960DF629E620AD0164A934207D002F5E8
:104140008062934203D002F580629342DAD16269C1
:104150001A63D7E780F83C20FDF7AEFEA2E7A0681F
:104160002169A56922F07002104320F440700143D8
:1041700021F0800129431960E268DA6262689A627C
:1041800062691A63BEE70120704700BF002C01403E
:1041900000340140004001400368DA6842F0010247
:1041A000DA601A6842F001021A600020704700BF0E
:1041B000704700BF002878D0F8B590F83D3004462D
:1041C00003F0FF02002B57D023683949022284F8FC
:1041D0003D208B421A6854D0B3F1804F2AD0A1F50C
:1041E00094318B4226D001F580618B4222D001F5BB
:1041F00080618B421ED001F594318B421AD001F5BB
:1042000040618B421AD001F580618B4216D001F5D6
:1042100080618B4212D0A169E568606822F080025B
:1042200011431960DD62986201225A61002084F80E
:104230003D20F8BDA16822F070020A432169A069FF
:104240001C4DE768666822F44072114321F080013A
:104250000143AB421960DF629E620AD0164A934264
:1042600007D002F58062934203D002F58062934248
:10427000DAD162691A63D7E780F83C20FFF798FF2C
:10428000A2E7A0682169A56922F07002104320F41A
:104290004070014321F0800129431960E268DA622D
:1042A00062689A6262691A63BEE70120704700BFC4
:1042B000002C01400034014000400140036801220D
:1042C000186A02FA01F120EA010010B418621A6AB1
:1042D000104C1143A342196216D00F4A934213D0D7
:1042E00002F5406293420FD002F5806293420BD0F8
:1042F00002F58062934207D01A685DF8044B42F0E1
:10430000010200201A6070475A6C42F400425A645D
:10431000F2E700BF002C0140003401400368012097
:104320001A6A00FA01F110B422EA01021B4C1A6267
:104330001A6A1A62A34220D0194A93421DD002F58C
:104340004062934219D002F58062934215D002F583
:104350008062934211D0196A41F211120A4042B9A7
:10436000196A40F244420A401AB91A6822F001025E
:104370001A6000205DF8044B7047196A41F211126F
:104380000A40002AE7D1196A40F244420A40002A52
:10439000E1D15A6C22F400425A64DCE7002C01405F
:1043A0000034014090F83C30012B5AD0F0B5022384
:1043B000012480F83C4080F83D30142A49D8DFE8D9
:1043C00012F08600480048004800B8004800480045
:1043D0004800EB004800480048001500480048002D
:1043E00048001801480048004800520003688F68E0
:1043F0001D6A0E68DFF8D8E225F480551D621D6A3B
:10440000D3F804C0DC6924F0807222F4E64225F47B
:104410000054734544EA073442EA062200F023813F
:10442000AA4DAB4200F01F8105F54065AB4200F09C
:104430001A8105F58065AB4200F0158105F58065B0
:10444000AB4200F010814968C3F804C0DA61196416
:104450001C620023012280F83D2080F83C30184681
:10446000F0BD0220704703688F681D6A0E68DFF890
:1044700060E225F480151D621D6AD3F804C05C6DEE
:1044800024F0807222F4E04225F40014734544EADB
:10449000075442EA062200F0DA808C4DAB4200F06D
:1044A000D68005F54065AB4200F0D18005F580650A
:1044B000AB4200F0CC8005F58065AB4200F0C780D0
:1044C0004968C3F804C05A65D9651C62C1E703682E
:1044D000D1F808E01D6A0E687D4F25F001051D62C8
:1044E0001A6A5D689C6924F4803422F0020224F088
:1044F0007304BB4242EA0E0244EA060400F0D9808B
:10450000724EB34200F0D58006F54066B34200F02B
:10451000D08006F58066B34200F0CB8006F5806659
:10452000B34200F0C68049685D609C6159631A62BD
:104530008FE70368D1F808C01D6AD1F800E0644F26
:1045400025F010051D621D6A5E689C6924F080726A
:1045500022F4E64225F02004BB4244EA0C1442EA6D
:104560000E2200F09680594DAB4200F0928005F586
:104570004065AB4200F0948005F58065AB4200F0E9
:104580008F8005F58065AB4200F08A8049685E60E7
:104590009A6199631C625CE703688F681D6A0E6804
:1045A000DFF82CE125F480751D621C6A5D68DA690C
:1045B00022F4803224F4007422F07302734544EA3A
:1045C000072442EA060254D0404EB34251D006F5C9
:1045D0004066B34254D006F58066B34250D006F52B
:1045E0008066B3424CD049685D60DA61D9631C6271
:1045F0002FE703688E681C6A0D68354F24F48034F9
:104600001C621A6AD3F804E05C6D24F4803422F44E
:10461000003224F07004BB4242EA064244EA050438
:104620001BD02A4DAB4218D005F54065AB4214D0E3
:1046300005F58065AB4210D005F58065AB420CD026
:104640004968C3F804E05C6599651A6201E74D6941
:104650002CF4802C4CEA852C32E74D692EF4803EF8
:104660004EEA052EECE74D692CF4804C4CEA851C93
:10467000E9E6CE6824F4006444EA062424F4806465
:104680004E698F6925F4405545EA061545EA071538
:10469000A9E7CD6824F0800444EA051424F040041E
:1046A0004F698D6926F4406646EA870646EA850624
:1046B0006CE7CE684F6922F0080232438E6925F418
:1046C00040753E4322F0040235432CE7003401409C
:1046D000002C014090F83C30012B40D002220368AE
:1046E00070B480F83D209D680C685D4A402C02EA59
:1046F00005024FF0010580F83C509A6079D018D936
:10470000702C62D02DD9B4F5805F57D0B4F5005F1E
:104710001CD19C688A684D68CE682A4324F47F4186
:104720000A4342EA06229A609A6842F480429A60FA
:104730000CE0102C32D038D9202C72D0302C05D17E
:104740009A6822F0700242F037029A600023012238
:1047500080F83D2080F83C3070BC1846704702203D
:104760007047502C64D0602CF0D11C6A4D68CE6824
:1047700024F010041C6299691A6A21F4704122F035
:10478000A00242EA051241EA063199611A629A686A
:1047900022F0700242F067029A60D7E79A6822F02E
:1047A000700242F017029A60D0E7002CCED19A68CE
:1047B00022F0700242F007029A60C7E79A6822F47A
:1047C000803222F007029A60C0E79C688A684D68D0
:1047D000CE682A4324F47F410A4342EA06229A60C3
:1047E0009A6822F4803222F0770242F077029A60CF
:1047F000ACE71A6A1C6A4E68CD6824F001041C629A
:10480000996922F00A0221F0F001324341EA0511D0
:1048100099611A629A6822F0700242F047029A6027
:1048200094E79A6822F0700242F027029A608DE7BE
:104830001A6A1C6A4E68CD6824F001041C629969EA
:1048400022F00A0221F0F001324341EA0511996198
:104850001A629A6822F0700242F057029A6075E775
:104860008800FEFF704700BF704700BF704700BF61
:10487000704700BF03681A69910710B5044602D556
:10488000DA68920762D41A69500702D5DA685107CC
:1048900049D41A69120702D5DA68100731D41A69A7
:1048A000D20602D5DA68D00618D41A69D10702D523
:1048B000DA68D2076BD41A69100602D5DA681106D5
:1048C0006DD41A69520602D5DA68500657D41A69AF
:1048D000910602D5DA68920649D410BD6FF0100235
:1048E0001A61DB69082213F4407F2277204661D1E8
:1048F000FFF7B8FF2046FFF7B9FF002223682277B1
:10490000D3E76FF008021A61DB6904229907227766
:10491000204655D1FFF7A6FF2046FFF7A7FF00224C
:1049200023682277BBE76FF004021A619B690222B9
:1049300013F4407F227720463FD1FFF793FF2046B4
:10494000FFF794FF002223682277A2E76FF00202AC
:104950001A619B6901229B07027728D1FFF782FF2A
:104960002046FFF783FF0022236822778BE76FF052
:10497000200220461A61BDE8104000F04FB86FF0E9
:1049800040021A612046FFF773FF23689FE76FF02C
:1049900001021A612046FDF707F923688BE76FF0E3
:1049A00080021A61204600F03BF8236889E7FFF790
:1049B0005BFFD8E7FFF758FF9FE7FFF755FFC1E719
:1049C000FFF752FFABE700BF90F83C30012B1BD044
:1049D000036870B4104CA342024658689E6815D014
:1049E00004F50064A34211D00D688C6820F07000BB
:1049F00026F0800128432143002458602046996016
:104A000082F83C4070BC7047022070474C6820F42C
:104A100070002043E8E700BF002C0140704700BF52
:104A2000704700BF704700BFF0B50E4690F8711098
:104A3000202983B002D0022003B0F0BD002E45D063
:104A4000002A43D01D4690F87030012B0446F2D066
:104A5000212300200121606784F8701084F87130F0
:104A60000192FDF7F3FA019AA4F85220B4F85230FB
:104A7000A4F850209BB20746002B5ED020686A1C29
:104A800026D1C26902F08002002AFAD0A368B3F5E9
:104A9000805F3BD0337803850136B4F85230013B58
:104AA0009BB2A4F85230B4F852309BB2002BE6D13E
:104AB0006B1C34D1C36903F04003002BFAD02023D0
:104AC000002084F8713084F87000B5E70120B3E766
:104AD000C36903F08003002BD8D12DB1FDF7B6FADE
:104AE000C01B85422068CAD2036823F4D0730360D8
:104AF0008368202223F001030021836084F8712061
:104B0000032084F8701084F8722095E72369002B45
:104B1000C0D136F8023BC3F308030385BDE7C36980
:104B200003F04003002BCAD1002DDDD0FDF78EFA33
:104B3000C01B85422068BBD2D6E72068B8E700BF1B
:104B4000F8B590F87240202C01D00220F8BD002961
:104B500030D0002A2ED090F87030012BF5D00446CA
:104B60000127C06E144E84F870700025134622276A
:104B70000A4621686265A4F85830656784F8727047
:104B80000E4FC6620E4E8563076346632431FDF700
:104B900049FB236884F870501A6842F480721A60E6
:104BA0009A6842F001029A609A6842F040022846F0
:104BB0009A60F8BD0120F8BDC94B0008054C0008FB
:104BC000154C0008704700BF08B50368806A1B6871
:104BD00013F0200311D10268A0F85A30136823F4AF
:104BE00080731360936823F001039360936820211E
:104BF00023F04003936080F87210FFF7E3FF08BDD5
:104C0000704700BF08B5806AFFF7FAFF08BD00BF14
:104C1000704700BF806A90F87130212B10B51ED00C
:104C200090F87230222B06D0436F43F01003436795
:104C3000FFF7EEFF10BD03689A685206F4D5002115
:104C4000A0F85A101A6822F490721A609A68202408
:104C500022F001029A60016680F87240E4E703687E
:104C60009A681106DCD50022A0F852201A6820218B
:104C700022F0C0021A6080F87110D1E7436ADA07A7
:104C800010B406D50468826A616821F400310A43D1
:104C900062609C0706D50468C26A616821F48031AD
:104CA0000A436260590706D50468026B616821F403
:104CB00080210A4362601A0706D50468426B616866
:104CC00021F400410A436260DC0606D50468826B69
:104CD000A16821F480510A43A260990606D50468B0
:104CE000C26BA16821F400510A43A2605A0609D59B
:104CF0000168046C4A6822F480122243B4F5801FD4
:104D00004A600BD01B0606D50168826C4B6823F401
:104D1000002313434B605DF8044B70474C68426CB2
:104D200024F4C00422434A60ECE700BF002800F0EE
:104D30003D81F8B590F87130044603F0FF02002B76
:104D40003CD02368A76821696069E569242284F85A
:104D500071201E68BD4A26F001061E601E68394398
:104D60000143324029430A431A605868E168B84A4F
:104D7000A66920F4405001439342596000F0B58089
:104D80009968226AB34821F4306132430A4383426E
:104D90009A6000F0E780B04A934200F0E281AF4AA7
:104DA000934210D0AE4A934200F00281AD4A934242
:104DB00023D00023236663660120F8BD80F87020AD
:104DC000FFF730FEBDE7A84BD3F8883003F030037F
:104DD000102B00F0FD801BD9202B00F08481302B9C
:104DE000E7D1B5F5004F00F025816268530803F55F
:104DF0000043B3FBF2F39BB218E09B4BD3F888302F
:104E000003F44073B3F5807F00F0E28000F2078185
:104E1000002BCED1B5F5004F00F01481FEF79AFBC0
:104E2000636800EB5300B0FBF3F39BB2A3F11001F6
:104E30004FF6EF729142BCD82268D360626A0023B9
:104E400023666366002A4CD123685A6822F4904294
:104E50005A609A6822F02A029A601A68002142F089
:104E600001021A606167FDF7F1F823681A681107FB
:104E700005460BD41A68520726D42023002084F854
:104E8000713084F8700084F87230F8BDDA6902F489
:104E90000012002AEED1FDF7D9F8401BB0F1007FD7
:104EA0002368F3D31A6822F4D0721A609A6820211A
:104EB00022F0010200259A60032084F8711084F822
:104EC000705084F87210F8BDDB6903F48003002B86
:104ED000D3D1FDF7BBF8401BB0F1007F2368F3D3BB
:104EE000E0E72046FFF7CAFEAEE79A685E4922F483
:104EF000306232439A60D1F8885005F44065B5F5C8
:104F0000806F00F0278140F21C81B5F5006F00F042
:104F10008E80B5F5406F7FF44CAF08254FF400400C
:104F2000626802EB420383423FF643AFB0EB023FBD
:104F30003FF63FAF082D3FF63CAF01A353F825F0F5
:104F4000CD500008B34D0008B7500008B34D00081D
:104F500099500008B34D0008B34D0008B34D000848
:104F600075500008404B414AD3F8883003F00303E2
:104F7000D35CB5F5004F40F0C380082B3FF619AF66
:104F800001A252F823F000BF45500008EF4F00087F
:104F9000D3500008B34D0008D74F0008B34D0008A8
:104FA000B34D0008B34D000835500008012070478C
:104FB0002D4BD3F8883003F0C003402B08D07FF688
:104FC00027AF802B00F08F80C02B3FF40AAFF0E6B4
:104FD000B5F5004F02D1FDF787FE0AE0FDF784FE2C
:104FE000636800EB5300B0FBF3F39BB21EE7FEF7E0
:104FF000C1FA6268530803EB4000B0FBF2F39BB2C6
:10500000A3F110014FF6EF7291423FF6D2AEC3F317
:105010004201226823F00F030B43D3600EE7B3F580
:10502000007F60D0B3F5407F3FF4DBAEC1E60225E0
:105030000F4875E76268530803F58033B3FBF2F35A
:105040009BB2DDE7FEF786FAD3E700BFF369FFEF17
:10505000008000400038014000440040004800400B
:10506000004C0040005000400010024058F800087A
:105070000024F4005008002110F5000041F1000167
:105080000023FBF747FD3B4BA0F540729A423FF6E9
:1050900090AE2368D860D1E6FDF726FE62684FF433
:1050A000807356080027E3FB00673046394600232B
:1050B000FBF730FDE7E730485308C0184FF0000118
:1050C00041F100010023FBF725FDDCE7FEF742FA82
:1050D000E4E761684A0802F1F47303F59043B3FB17
:1050E000F1F39BB28CE7B5F5004FF2D061684A0846
:1050F00002F5740303F51053B3FBF1F39BB295E68D
:10510000082B3FF656AE01A252F823F01D4E0008C0
:1051100031510008ED500008B34D0008DD4F000884
:10512000B34D0008B34D0008B34D0008EB4D000827
:10513000FEF720FA636800EB5300B0FBF3F39BB279
:1051400074E6002D7FF435AEFEF704FA00287FF4F4
:10515000E7AE73E6FDF7C8FD042500287FF4E0AE56
:105160006CE6064B064AD3F8883003F00C03134470
:105170001B79FEE6FFFC0F00000024F40010024043
:1051800058F800081149124BD1F8882042F47002F7
:1051900010B4C1F888201A68002042F001021A6099
:1051A00098601A6822F0A85222F410224FF480541A
:1051B0001A60DC601A684FF0006422F480221A60E2
:1051C00098618C605DF8044B704700BF00ED00E013
:1051D00000100240F0B52A4C89B02046FDF770FD62
:1051E00038B12748FDF76CFD203818BF012009B001
:1051F000F0BD244D244B2360EB6C244A626043F0E5
:105200000203EB64EB6C03F00203019333220123EE
:105210004FF440710646A260E3600222042303912A
:105220001B48DDF804E0069203A9122707930596B0
:105230000497FDF737F8AB6D43F40013AB65AB6D26
:1052400003F400130293029BAB6B43F40013AB63B4
:10525000AB6B23F40013AB63324631461F20FCF7DF
:105260000DFF1F20FCF742FF324631462020FCF79D
:1052700005FF2020FCF73AFF2046FDF7B9FAB0E71A
:105280007C05002000100240005400403A14D11068
:1052900000040048F0B52A4C89B02046FDF710FD07
:1052A00038B12748FDF70CFD203818BF012009B0A0
:1052B000F0BD244D244B2360EB6C244A626043F024
:1052C0000203EB64EB6C03F002030193332201232E
:1052D0004FF440710646A260E3600222042303916A
:1052E0001B48DDF804E0069203A9122707930596F0
:1052F0000497FCF7D7FFAB6D43F40013AB65AB6DC0
:1053000003F400130293029BAB6B43F40013AB63F3
:10531000AB6B23F40013AB63324631461F20FCF71E
:10532000ADFE1F20FCF7E2FE324631462020FCF79E
:10533000A5FE2020FCF7DAFE2046FDF759FAB0E77B
:105340007C05002000100240005400403A14D110A7
:105350000004004800207047F0B51D4D1D4EEB6C59
:1053600043F00103EB64EB6C8DB003F00103002408
:105370000227009302A910234FF090400293009A55
:10538000039605970494FCF78DFF224621460A20D8
:10539000FCF774FE0A20FCF7A9FEEB6C0E483B43B9
:1053A000EB64EB6C08963B40019307A9012307933C
:1053B000019A0A970994FCF775FF224621460620B8
:1053C000FCF75CFE0620FCF791FE20460DB0F0BD18
:1053D000001002400000111000040048114B124957
:1053E000DA6C30B542F00102DA64DB6C87B003F0AE
:1053F00001030024009302910223102201A94FF01F
:10540000904004930192009D0394FCF74BFF2246C9
:1054100021460A20FCF732FE0A20FCF767FE2046F0
:1054200007B030BD00100240000011102DE9F04718
:105430000F460178B12984B0054690461E461BD020
:1054400012D83D2913D04FF48053A9781C480293F9
:105450000196CDF800803A460123FDF73BFA30BBB8
:10546000002004B0BDE8F087BC390129EBD8012E3B
:1054700088BF47F08007E6E7002BF1D000244FF407
:10548000805A4FF0010901E0B442E9D008EB04036F
:105490003A19A9780A480093CDF808A0CDF80490ED
:1054A000D2B20123FDF716FA01340028ECD00448EB
:1054B000FDF7F6F9FFF78EFE012004B0BDE8F08796
:1054C0007C0500202DE9F0470F460178B12984B012
:1054D000054690461E461BD012D83D2913D04FF4E6
:1054E0008053A9781C4802930196CDF800803A4673
:1054F0000123FDF7E3FA30BB002004B0BDE8F087DC
:10550000BC390129EBD8012E88BF47F08007E6E7B8
:10551000002BF1D000244FF4805A4FF0010901E034
:10552000B442E9D008EB04033A19A9780A48009379
:10553000CDF808A0CDF80490D2B20123FDF7BEFA51
:1055400001340028ECD00448FDF7AAF9FFF742FE29
:10555000012004B0BDE8F0877C050020F8B50026E6
:105560000F460E6005466B4C002800F08C80012829
:10557000637E2AD1012B00F08480FFF78BFE012887
:105580007FD06923D4202375A07504F1380304F17A
:10559000300E6149614A667504F11400257666761D
:1055A000A676E576216223636663C4F81CE0626236
:1055B0003860236A1B68002B00F09E809847012802
:1055C00058D0FFF7C9FE0020F8BD012B2AD0FFF705
:1055D00061FE012826D06921D42201232175A275FC
:1055E00004F1300E4C4D4D49237604F1380204F19C
:1055F0001400E37666756676A67625626663C4F85F
:105600001CE0616222633860236A1B68002B7AD039
:1056100098470128D5D13B681E605E609E60DE60C1
:105620001E613E6063793B4D012B2AD0FFF732FEAD
:10563000012826D06821D622012300262970AA70CD
:10564000EB7105F1280005F13C033549354A6E70D0
:105650002E716E71AE71E960AB622E61EE62A86070
:105660002A643D60EB681B68002B3DD028469847B4
:1056700001282DD13B681E605E609E60DE601E6169
:105680003E600120F8BD6379012BFAD0FFF702FEDE
:105690000128F6D06822D6232270A370012604F1D7
:1056A0003C0304F128001E491E4A6570257165718E
:1056B000A571E671E160A3622561E562A0602264E4
:1056C0003C60E3681B687BB120469847B04203D03A
:1056D000FFF740FE0020F8BD3B681D605D609D60E7
:1056E000DD601D613D60CCE7002323606360A36043
:1056F000E36023613B60C4E7636143608360C36030
:1057000003613B60BDE7636143608360C360036125
:105710003B6087E7C80500202C030020B803002069
:105720008C020020A40E002060B108B5C3689B68FD
:1057300033B19847A0F10100B0FA80F0400908BDEC
:10574000012008BD0120704760B108B5C368DB685F
:1057500033B19847A0F10100B0FA80F0400908BDCC
:10576000012008BD0120704720B119B143790B70A9
:10577000002070470120704768B108B5C26841B188
:10578000936933B19847A0F10100B0FA80F0400965
:1057900008BD012008BD0120704700BF60B108B5F9
:1057A000C368DB6A33B19847A0F10100B0FA80F01A
:1057B000400908BD012008BD01207047F8B500264A
:1057C0000F460E6005466A4C002800F08C800128C8
:1057D000637E2AD1012B00F08480FFF75BFD012856
:1057E0007FD06923D4202375A07504F1380304F118
:1057F000300E6049604A667504F1140025766676BD
:10580000A676E576216223636663C4F81CE06262D3
:105810003860236A1B68002B00F09C8098470128A1
:1058200058D0FFF799FD0020F8BD012B2AD0FFF7D3
:1058300031FD012826D06921D42201232175A275CA
:1058400004F1300E4B4D4C49237604F1380204F13B
:105850001400E37666756676A67625626663C4F8FC
:105860001CE0616222633860236A1B68002B78D0D9
:1058700098470128D5D13B681E605E609E60DE605F
:105880001E613E6063793A4D012B2AD0FFF702FD7D
:10589000012826D06821D622012300262970AA706B
:1058A000EB7105F1280005F13C033449344A6E7070
:1058B0002E716E71AE71E960AB622E61EE62A8600E
:1058C0002A643D60EB681B68002B3BD02846984754
:1058D00001282DD13B681E605E609E60DE601E6107
:1058E0003E600120F8BD6379012BFAD0FFF7D2FCAE
:1058F0000128F6D06822D6232270A370012604F175
:105900003C0304F128001D491D4A6570257165712D
:10591000A571E671E160A3622561E562A060226481
:105920003C60E3681B686BB120469847B04201D0E9
:105930000020F8BD3B681D605D609D60DD601D61FD
:105940003D60CEE7002323606360A360E3602361D2
:105950003B60C6E7636143608360C36003613B6093
:10596000BFE7636143608360C36003613B6089E7B5
:105970000C060020DC0200207C0300203C020020FA
:10598000A40E002060B108B5C3689B6833B1984786
:10599000A0F10100B0FA80F0400908BD012008BD67
:1059A0000120704760B108B5C368DB6833B1984720
:1059B000A0F10100B0FA80F0400908BD012008BD47
:1059C0000120704720B119B143790B700020704756
:1059D0000120704720B119B103790B700020704786
:1059E0000120704768B108B5C26841B1936933B10D
:1059F0009847A0F10100B0FA80F0400908BD0120ED
:105A000008BD0120704700BF60B108B5C368DB6AFC
:105A100033B19847A0F10100B0FA80F0400908BD09
:105A2000012008BD0120704760B108B5C3685B6BF9
:105A300033B19847A0F10100B0FA80F0400908BDE9
:105A4000012008BD01207047F8B50026354C0E60D6
:105A50000F46637900282FD0012B2BD0FFF71AFCBB
:105A6000012827D02346304A43F81C2FBC25636108
:105A7000BE202E4B6670012104F11402267166715E
:105A8000A6712570A070E171E3602661A661A26035
:105A90003C60E3681B68002B3BD0204698470128F8
:105AA00001D00020F8BD3B681E605E609E60DE6035
:105AB0001E613E600120F8BD012BFBD00546FFF7BB
:105AC000E9FB0128F6D02346174A43F81C2FBC26D1
:105AD0006361BE20154B6570012104F1140225712C
