:020000040800F2
:1000000000200020ED0E0008950E0008990E000853
:1000100000000000000000000000000000000000E0
:100020000000000000000000000000003D0F00087C
:1000300000000000000000003D0F00089D0E0008B9
:100040003D0F00083D0F00083D0F00083D0F000860
:100050003D0F00083D0F00083D0F0008A50E0008E9
:100060003D0F00083D0F00083D0F00083D0F000840
:100070003D0F00083D0F0008000000003D0F000884
:10008000000000003D0F000800000000000000001C
:100090003D0F0008000000003D0F00083D0F000864
:1000A0003D0F00083D0F00083D0F00083D0F000800
:1000B0003D0F00083D0F00083D0F00083D0F0008F0
:1000C000054B0648033310B51B1A062B03D9044B06
:1000D000002B00D0984710BD2802002028020020E5
:1000E000000000000648074910B5091A8910CB0F17
:1000F0005918491003D0044B002B00D0984710BD6D
:1001000028020020280200200000000010B5074C43
:100110002378002B09D1FFF7D3FF054B002B02D02A
:10012000044800E000BF0123237010BD2802002016
:1001300000000000C87C0008094B10B5002B03D05C
:100140000849094800E000BF08480368002B02D1B5
:10015000FFF7C8FF10BD064B002BF9D09847F7E713
:10016000000000002C020020C87C000828020020AB
:10017000000000000023C25C0133002AFBD1581E9E
:1001800070470000002243088B4274D303098B425E
:100190005FD3030A8B4244D3030B8B4228D3030C57
:1001A0008B420DD3FF22090212BA030C8B4202D3F9
:1001B0001212090265D0030B8B4219D300E0090A21
:1001C000C30B8B4201D3CB03C01A5241830B8B422A
:1001D00001D38B03C01A5241430B8B4201D34B0313
:1001E000C01A5241030B8B4201D30B03C01A524178
:1001F000C30A8B4201D3CB02C01A5241830A8B42FD
:1002000001D38B02C01A5241430A8B4201D34B02E5
:10021000C01A5241030A8B4201D30B02C01A524149
:10022000CDD2C3098B4201D3CB01C01A52418309FD
:100230008B4201D38B01C01A524143098B4201D337
:100240004B01C01A524103098B4201D30B01C01A62
:100250005241C3088B4201D3CB00C01A52418308DC
:100260008B4201D38B00C01A524143088B4201D309
:100270004B00C01A5241411A00D201465241104669
:100280007047FFE701B5002000F006F802BDC04648
:100290000029F7D076E770477047C0468446081CAF
:1002A0006146FFE71FB500F07FF9002801D4002167
:1002B000C8421FBD10B500F00BF94042013010BD1F
:1002C00010B500F071F9002801DB002010BD0120FD
:1002D00010BDC04610B500F067F9002801DD002010
:1002E00010BD012010BDC04610B500F019F900285E
:1002F00001DC002010BD012010BDC04610B500F08B
:100300000FF9002801DA002010BD012010BDC04601
:10031000002B11D1002A0FD1002900D1002802D0D2
:100320000021C943081C07B4024802A140180290EA
:1003300003BDC04665FFFFFF03B4684601B50298E0
:1003400000F006F8019B9E4602B00CBC7047C04608
:10035000F0B54D46564644465F46F0B4924683B0EB
:1003600004000D0099468B422FD82CD049465046A8
:1003700000F0FAFA29000600200000F0F5FA331A1E
:100380009846203B9B4600D574E053465A4693401E
:100390001F005346424693401E00AF4229D826D044
:1003A0005B46A41BBD41002B00DA79E0002200234C
:1003B0000092019301235A46934001930123424640
:1003C0009340009319E08242D0D90022002300928A
:1003D00001930C9B002B01D01C605D60009801997B
:1003E00003B03CBC90469946A246AB46F0BDA34242
:1003F000D6D900220023009201934346002BE8D077
:10040000FB0772081A4346467B080EE0AB4201D157
:10041000A2420CD8A41A9D41012024196D4100214B
:10042000013E24184D41002E06D0AB42EED9013ECC
:1004300024196D41002EF8D15B46009801990019EE
:100440006941002B22DB2B005A46D3402A00444648
:10045000E2401C005B461500002B2CDB26009E4072
:10046000330026004746BE403200801A9941009072
:100470000191AEE7424620239B1A5246DA4041469C
:1004800013004A468A4017001F4382E74246202352
:100490009B1A2A0046469A402300F3401343D5E7AF
:1004A0004246202300219B1A002200910192012242
:1004B000DA40019282E74246202326009B1ADE4062
:1004C0002F00B446974066463B003343C9E7C04619
:1004D000430270B542004C005D0AC30F4802120E81
:1004E000460A240EC90FFF2A0FD0FF2C11D001207D
:1004F000A24200D070BDB542FCD18B420DD0002A83
:10050000F8D12800431E9841F4E70120002DF1D1D5
:10051000EBE70120002EEDD1E9E70020EAE7C04635
:100520004302F0B542005D0AC30F4802440A480086
:10053000120E000EC90FFF2A1FD0FF2822D0002A5A
:1005400009D16E426E4100280FD1002C0DD1002040
:10055000002D09D005E0002801D1002C01D08B42EC
:1005600013D0584201231843F0BD002EF7D0484263
:100570004141012049420843F6E7002DDDD0022029
:100580004042F1E7002CDAD0F9E78242E9DC04DBF3
:10059000A542E6D80020A542E6D2584243410120B8
:1005A0005B421843E0E7C0464302F0B542004C000E
:1005B0005E0AC30F4802120E450A240EC90FFF2A15
:1005C00017D0FF2C19D0002A0BD170427041002C9B
:1005D00017D0002807D04842414101204942084332
:1005E000F0BD002C13D08B4214D058420123184385
:1005F000F6E70220002EF3D1E3E70220002DEFD131
:10060000E1E7002DE5D10020002EE9D0EDE7002D37
:10061000E9D1EAE7A242E8DC04DBAE42E5D80020FB
:10062000AE42DDD25842434101205B421843D7E736
:10063000F0B557464E4645464300E0B4460288466C
:10064000760A1F0EC40F002F47D0FF2F25D000239E
:1006500080259A469946F600ED042E437F3F434697
:1006600042465D02D20F5B006D0A1B0E904640D0E1
:10067000FF2B39D080220020ED00D20415437F3BB0
:10068000FB1842465746591C62408C4607430F2FC1
:100690005CD86F49BF00C9598F46002E45D1082349
:1006A0009A46063B9946DAE7424602282DD00328AF
:1006B00000D1C3E0012800D0A2E0002500260240BE
:1006C000D4B27602ED05760A2E43E40726433000C5
:1006D0001CBC90469946A246F0BD002E1AD10423B8
:1006E0009A46033B9946BAE72A00511E8A41901C5C
:1006F000C6E70120002DC3D0280000F017F9431FE2
:1007000076309D4043420020BAE70124FF25144083
:100710000026D6E7300000F009F9431F9E40002371
:10072000763047429A46994699E70C239A46093B08
:10073000994694E780260024F603FF25C1E735009B
:100740004846B2E7350022004846AEE72904090CC6
:100750000800370C3604360C2C0C79437043674381
:100760007443060C64183619B14203D9802149023A
:10077000884647440004000C310409188D01681EA6
:100780008541890E2943350CED19AD010D43290131
:1007900004D5012369081D4063460D4319007F31CC
:1007A000002925DD680704D00F202840042800D048
:1007B0000435280103D5274980330D401900FE294F
:1007C000A3DC0124AD016E0A1440CDB279E780208C
:1007D000C003064207D0054205D128434602760AE7
:1007E0004446FF256DE706437602760AFF2568E753
:1007F0000124611A1B2905DD14400025002660E74D
:100800006346CBE72E002023CE40591A8D406B1E45
:100810009D412E43730704D00F233340042B00D097
:100820000436730104D5012401251440002648E74D
:100830000124B601760A1440002542E780260124EF
:10084000F6032E437602760A1440FF2539E7C046A8
:10085000FC7F0008FFFFFFF74302590A4300C20F65
:100860001B0E00207E2B0EDD9D2B0DDC8020000456
:100870000143952B0BDC9620C31AD9400B0058423C
:10088000002A00D118007047034BD018FBE7963BB5
:1008900099400B00F3E7C046FFFFFF7F70B50028CB
:1008A00030D0C317C5185D40C40F280000F03EF8D3
:1008B0009E231B1A962B0DDC9622D21A95406A02B3
:1008C000520AD8B25202C005520AE4070243224338
:1008D000100070BD992B19DC9922D21A9540124A4A
:1008E0002A40690704D00F210D40042D00D00432A6
:1008F000510103D50C4B1A409F231B1A9201520A37
:10090000D8B2DFE7002400200022DBE705222E001A
:10091000121AB921D6402A00C91A8A40551EAA4186
:1009200035001543DBE7C046FFFFFFFB1C21012319
:100930001B04984201D3000C10391B0A984201D3C2
:10094000000A08391B09984201D30009043902A2A0
:10095000105C40187047C046040302020101010107
:10096000000000000000000010B5002903D1FFF7CF
:10097000DDFF203002E0081CFFF7D8FF10BDC046A5
:100980000122234B30B5D96A89B01143D962D96AA3
:10099000A020114001910199D96A00251143D96223
:1009A000D96A04240A4080210292029A9A6B890231
:1009B0000A439A63022303A9C00503940493069390
:1009C0000794059500F05CFBA0200823C00503A94F
:1009D0000393079400F054FB0E4C0F4B2000236050
:1009E000E1235B0263600C23A560E5602561A561DE
:1009F000636102F063F8002800D0FEE7074B802215
:100A0000636558235200E252E06609B030BDC0462B
:100A100000100240CC030020004400403C040020B1
:100A2000802270B5174C5205A36B94B01343164A3D
:100A3000A3631168154B00260B40802109010B436D
:100A400013600223069310938023DB02129380230A
:100A500010220125DB0306A809950A92139311962B
:100A600001F006F80F230121019301A80C3B02932A
:100A700003960496059601F027FB636B1D4365639F
:100A800014B070BD0010024000700040FFE7FFFF8F
:100A9000802110B50E4C03000E4A4900200006F0DC
:100AA000F1FC2000FFF766FB0B4B82B221000B48E4
:100AB00001F05EFD002003F001FA642000F078FAF6
:100AC000002003F007FA642000F072FAF2E7C04653
:100AD000440200203C80000888130000CC03002062
:100AE000F0B55F4656464D4644460023F0B48DB0FF
:100AF00004AA5375D38200F039FAFFF791FF002062
:100B000003F0B6F90121002003F0F0F9FFF738FFF8
:100B1000BB4F0020390003F045F8012841D0386868
:100B200003F0B6F801283CD00021386803F0C0F883
:100B3000012836D00821386803F020F9012830D088
:100B4000B049386803F0C4F801282AD02021386859
:100B500003F052F9012824D05B21386803F060F9D2
:100B600001281ED08021386803F06EF9012818D0C2
:100B7000A54D3422A549280006F072FCA44B33226F
:100B80009A462900A34B504601F0F2FC00239946F7
:100B9000A14E3378DBB2042B03D8A04A9B00D35874
:100BA0009F469F48FFF774FF04AA152394466344A9
:100BB0001900386803F0A0F80128F2D004AB5B7D7F
:100BC000012BE6D1002003F079F900239846424634
:100BD00004AB0AA938681A8303F0BAF80128E0D0F8
:100BE00004AB188B0321FFF7CDFA802183B204AA4E
:100BF000138349008B4A280006F044FC2800FFF7C5
:100C0000B9FA290082B2834B504601F0B1FC2A00A8
:100C1000854B13CB13C213CB13C213CB13C219686A
:100C2000504611609B88290093807A4B292201F05D
:100C30009FFC04AB1B8B434563D004AB9C461A243A
:100C40004B46C346644407930023238000230B9341
:100C5000033398460023994606930593210038688C
:100C600003F060F801289CD00BA9386803F09AF8CB
:100C7000012896D02388012B00D1BDE0002B00D1A4
:100C8000B7E0022B8DD10B9B994601235B429C461A
:100C9000E0444346002BE1D101335B4498465B4678
:100CA000092B15DC4B4680210293069B5F4A01937A
:100CB000059B490000932800434606F0E3FB28000B
:100CC000FFF758FA534B82B22900504601F050FC0E
:100CD00004AB1B8BC3469845B6DB079A91460A2B9B
:100CE0000FD980210A23524A4900280006F0CAFB86
:100CF0002800FFF73FFA474B82B22900504601F027
:100D000037FC002003F0E6F835E004AA16239446E9
:100D100063441900386803F01BF8012861D004AB64
:100D2000DC8AA14507D02E2301222B802900394BD4
:100D3000504601F01DFC3B79A146002B00D128E76D
:100D40000323337000233B7123E734223949280001
:100D500006F086FB29002F4B3322504601F008FC99
:100D6000FA20800000F024F90621386803F030F8FA
:100D7000012800D115E7022333700AE70021386803
:100D800003F026F8012800D10BE72C002A4B07CBF3
:100D900007C407CB07C407CB07C429001D4B232278
:100DA000504601F0E5FB2A00A046244B13CB13C2AA
:100DB00013CB13C213CB13C241461A6850460A60C4
:100DC0009A888A809B792A228B71124B290001F024
:100DD000CFFB002304AA3B71D382337000239946D2
:100DE000D7E601200DB03CBC90469946A246AB46E2
:100DF000F0BD0B9B059348E70B9B069345E7C04668
:100E0000440300200040CE454402002094810008A5
:100E1000CC0300208813000000000020E07C0008C4
:100E2000087D00088C800008D4800008008100083C
:100E3000208100085880000844810008688100086B
:100E4000802310B59B01984205D0202817D101229C
:100E50000C4B1A7110BD002003F084F80028F9D162
:100E6000094A1378DBB2042B09D808499B00CB58F8
:100E70009F4601231370EDE704231370EAE704484B
:100E8000FFF706FE4403002000000020F47C000869
:100E9000107D00087047C046FEE7C04610B500F060
:100EA00079F810BD10B5202000F0DAF9802080011B
:100EB00000F0D6F910BDC0460A4A10B51368002BE1
:100EC0000CD069461818884202D81060180010BD6E
:100ED00006F09AFA0C2303600D3BF7E7024B136010
:100EE000EFE7C0464C030020480600200D48854629
:100EF000002103E00C4B5B58435004310B480C4B72
:100F000042189A42F6D30B4A02E0002313600432DF
:100F1000094B9A42F9D302F081FC06F07BFAFFF705
:100F2000DFFDFEE700200020108200080000002006
:100F3000280200202802002048060020FEE70000CA
:100F40007047C046FA21084B10B5890004001868A4
:100F5000FFF718F900F078F8012000222100404244
:100F600000F034F8002010BD040000204022084B9F
:100F700010B5196803200A431A60022219680A434F
:100F80001A60FFF7DFFFFFF7DBFF002010BDC04650
:100F900000200240024A1368013313607047C046C4
:100FA0003C060020014B18687047C0463C060020F4
:100FB00010B582B00190FFF7F5FF0400FFF7F2FFD4
:100FC000019B001B9842F9D302B010BD70B50028F8
:100FD00014DB032483082040FC342600134AC02578
:100FE0009446C00089018640214081409B006344B3
:100FF000AD005A59B2431143595170BD03240F2318
:10100000C0B203402040FC342500094AC000944689
:101010008901854021408140083B9B089B00634437
:10102000DA69AA431143D961E7E7C04600E100E06D
:1010300000ED00E01F2318401E3B8340014A13606F
:101040007047C04600E100E00A4A431E0120934277
:101050000ED8C020084A094953600B6A00061B02DB
:101060001B0A03430B6200230020936007331360C5
:101070007047C046FFFFFF0010E000E000ED00E019
:10108000F0B544465F4656464D46F0B4884609687A
:1010900083B000240023002900D1AEE00122934652
:1010A000624A8A46944667E0013E012E00D884E0F9
:1010B0000326A640F643056835402F00032515405A
:1010C000A5403D430560C5682E404546AD68A54036
:1010D0002E4380256D05C6602A4248D05449032717
:1010E0004D6B59460D4352491F404D6351499D0870
:1010F0008946B9000F27AD004D448F408946A02195
:10110000AE68C905BE43884200D17DE04A4FB8426F
:1011100000D17BE0494FB84200D17BE0484FB84254
:1011200000D17BE0474FB84200D17BE0062749461B
:101130008F4061463E43AE600D680099CE43D103B7
:1011400058D4354061460D604D6891034FD4354009
:1011500061464D608D68D10246D4354061468D6050
:10116000CD6892023DD4290031406246D16052469A
:1011700001330234DA4040D05D4651469D4029405B
:101180000091F4D04246526810271600BE43022E4A
:101190008AD1DE08B60081190191096A093F8946A2
:1011A0000F211F40BF00B9404E468E43414609699A
:1011B000B9400F00019937430F6203264146A6400C
:1011C000C968F643A140876837400F435946876096
:1011D0004768AF433D0017090F409F403D434560BE
:1011E00069E700992943C0E700990D43B6E70099E4
:1011F0000D43ADE700990D43A4E703B03CBC904616
:101200009946A246AB46F0BD002792E75F464946A5
:101210008F408EE7022749468F408AE703274946D9
:101220008F4086E7052749468F4082E7000401404A
:10123000001002400000014000040050000800506F
:10124000000C0050001C005000690840411E8841FD
:10125000C0B27047002A01D1816270478161FCE70A
:10126000044B10B55A69104202D05861FFF7E8FDEF
:1012700010BDC04600040140F0B5102347460400ED
:1012800080B40D0016000227984622686B1C2DD1F1
:1012900002211020936919422BD193691842F9D089
:1012A000202193691942FCD01023D3611033D361FC
:1012B00093699B0701D500239362012391690B4237
:1012C00002D191690B43936151681E4B0B405360EF
:1012D0000423636420224123E254002301202232AC
:1012E000A354023AA35404BC9046F0BD93691F4234
:1012F00001D00020F7E741469369194213D1002D30
:1013000004D0FFF74FFE801B8542BED22022636CC3
:101310000320134363644123E25400232232A35485
:10132000023AA354DFE7202707E0002DD2D0FFF7D1
:1013300039FE801B8542CDD3226893691F42F4D0C9
:10134000B2E7C04600E800FEF0B54746040080B4AE
:101350000D001600002945D010232027984604E0F0
:10136000FFF720FE801B854243D3226893691F420A
:101370004CD1414693691942F2D020276B1C25D1EC
:10138000202193691942FCD01023D3611033D3611B
:1013900093699B0701D500239362012391690B4256
:1013A00002D191690B4393615168194B0B40536013
:1013B0000423636420224123E254002301202232CB
:1013C000A354023AA35404BC9046F0BD93691F4253
:1013D000DAD1002DEED0FFF7E5FD801B8542E9D381
:1013E0002268CBE7026893699B060FD49369DB06FA
:1013F000C3D42022636C0320134363644123E2546B
:1014000000232232A354023AA354DCE70020DAE797
:1014100000E800FEF8B51E00040015000268254B28
:101420005068890503402448890D03431943F3B2EA
:101430001B04194351602000079A0699FFF71CFF0F
:10144000071E17D1012E09D023682A0A9A6206992D
:10145000079A2000FFF710FF00280BD12168EDB29A
:101460008D624025069B01330BD140228B691A42C5
:10147000FCD004E0636C0127042B00D00327380064
:10148000F8BD8B691D42FAD1069B002B08D0FFF7EF
:1014900089FD079BC01A069B834201D32168E2E7BE
:1014A00020224123E25400232232A354023AA354BF
:1014B000E4E7C046009800FC00200080F8B51E005C
:1014C000040015000268254B506889050340244834
:1014D000890D03431943F3B21B04194351602000E3
:1014E000079A0699FFF7C8FE071E17D1012E09D0EB
:1014F00023682A0A9A620699079A2000FFF7BCFE21
:1015000000280BD12168EDB28D628025069B013346
:101510000BD180228B691A42FCD004E0636C012756
:10152000042B00D003273800F8BD8B691D42FAD187
:10153000069B002B08D0FFF735FD079BC01A069BC2
:10154000834201D32168E2E720224123E2540023B1
:101550002232A354023AA354E4E7C046009800FCA8
:10156000002000817047C04610B5041E4ED04123B4
:10157000C35CDBB2002B3ED0242241230121E25484
:1015800023681A688A431A606168214A0A401A610E
:101590009968204A0A40E1689A60012930D0842283
:1015A000A068120202439A60022920D05A681A49A0
:1015B00000200A435A60D968164A0A40DA60216955
:1015C00062691143A26912020A43DA60216AE26980
:1015D0000A431A60012219680A431A602021002375
:1015E00041226364A15401322363A35410BD8022BD
:1015F00012015A60DAE740228354FFF7B3FFBBE7DA
:101600008022A16812020A439A60CFE70120EDE729
:10161000FFFFFFF0FF7FFFFF008000027047C04622
:1016200070B5041E13D041252423012102684355BF
:1016300013688B431360FFF7F1FF00234222002061
:10164000636463552363A354023AA35470BD01201D
:10165000FCE7C046F0B54D4644465F465646F0B4FA
:1016600083B099460CAB20CB04001E884123C35C99
:101670000F0090460220202B06D003B03CBC9046C1
:101680009946A246AB46F0BD002D3DD0002E3BD082
:101690004023E25C012AF0D00122E254FFF782FCF1
:1016A00080231B0282469B4605E0FFF77BFC5346E6
:1016B000C01A19282AD85A4623689B6913405B45EB
:1016C000F3D021224123E25401331F32E25400239C
:1016D00063649B466363534601930E9B656200936C
:1016E00066854B46424639002000FFF7E7FE00289A
:1016F00016D0636C042B04D040235A460320E254D6
:10170000BBE75A463C33E2540120B6E7202241238E
:10171000E25400232232A354023AA3540320ACE73C
:10172000638DFF2B63D9FF23226823855168434BC8
:10173000BF050B404249BF0D0B433B435360FF23A2
:101740001B04802598463D4E02E0638D002B60D03F
:1017500052460E992000FFF78FFD002842D1636AA0
:101760002268591C61621B789362638D013B9BB2B6
:101770006385238D013B9BB22385002BE5D1638DCF
:10178000002BE2D00E9B01330ED193691D42FCD099
:10179000638DFF2B17D9FF232385536828493340D6
:1017A0000B433B435360D0E793691D42F0D10E9B3E
:1017B000002BABD0FFF7F6FB5346C01A0E9B8342BB
:1017C000A4D32268DFE74046638D51689BB223852E
:1017D0001B041840802331409B040B4303433B43CD
:1017E0005360B2E7636C042B8ED0032045E720687A
:1017F000618D124A436889B21A40802321859B0477
:10180000C9B2BF0509041343BF0D0B433B434360FB
:1018100095E752460E992000FFF796FD0028E1D18A
:1018200020212368074AD9615D682A405A60412314
:10183000E1540133E054023BE0541EE7009C00FCFD
:101840000000FF0100E800FEF0B54D4644465F464B
:101850005646F0B483B099460CAB20CB04001E88EA
:101860004123C35C0F0090460220202B06D003B01A
:101870003CBC90469946A246AB46F0BD002D3DD0FB
:10188000002E3BD04023E25C012AF0D00122E2543A
:10189000FFF788FB80231B0282469B4605E0FFF78B
:1018A00081FB5346C01A192837D85A4623689B69CA
:1018B00013405B45F3D022224123E25401331E3210
:1018C000E254002363649B466363534601930E9B7B
:1018D0006562009366854B46424639002000FFF75B
:1018E00099FD002823D0636C042B04D040235A4672
:1018F0000320E254BBE75A463C33E2540120B6E7EA
:1019000093691E425BD10E9B002B06D0FFF74AFB6A
:101910005346C01A0E9B83424BD220224123E254ED
:1019200000232232A354023AA35403209FE7638D7D
:10193000FF2B61D9FF23226823855168444BBF05E3
:101940000B404449BF0D0B433B435360FF23042529
:1019500080261B0498460E9B01331AD193691D42C1
:10196000FCD0636A526A591C61621A70238D628DC1
:10197000013B013A9BB292B223856285002B02D1D2
:10198000638D002B14D1638D002B46D022680E9BF3
:10199000E2E793691D42E4D10E9B002BBDD0FFF717
:1019A00001FB5346C01A0E9B8342B6D32268D3E78D
:1019B0000E9B22680133A3D193691E42FCD0638D34
:1019C000FF2B09D9FF2351682385234B0B40234963
:1019D0000B433B435360D6E74146608D536880B26A
:1019E0002085000408401C49194080239B040B43B8
:1019F00003433B435360C6E72268608D1449536834
:101A000080B21940164B2085C0B2BF0500040B43BD
:101A1000BF0D03433B43536098E752460E992000A5
:101A2000FFF792FC002805D0636C042B00D165E71A
:101A300003201CE7202123680A4AD9615D682A40F7
:101A40005A604123E1540133E054023BE0540EE775
:101A5000009800FC0024FF81009C00FC0000FF01B6
:101A60000024008200E800FE4123C05CC0B2704741
:101A7000F0B54F464646C0B4036883B00400DA07A9
:101A800036D50C20C849CA680240082A00D13EE178
:101A9000CA6802400C2A00D135E1802361685B02EC
:101AA000994200D111E2A022D202914200D19DE1DF
:101AB000BD4DBE4A286802402A602A68134001933F
:101AC000019B2A68BA4B13402B60002900D096E195
:101AD000FFF768FA80260700B60205E0FFF762FA12
:101AE000C01B642800D9D6E12B683342F6D12368A5
:101AF0009A072CD50C20AC49CA680240042A00D1B0
:101B0000CFE1CA6802400C2A00D1C6E1E368A64DC5
:101B1000002B00D12BE109212A6804278A431343B3
:101B20002B60FFF73FFA060005E0FFF73BFA801B4A
:101B3000022800D9AFE12B689B4A1F42F5D02169EA
:101B4000536808029B490B40034353602368DA063D
:101B500000D582E01A0717D56369934D002B00D199
:101B600019E101232A6D022613432B65FFF71AFAA8
:101B7000070005E0FFF716FAC01B022800D98AE12A
:101B80002B6D1E42F6D023685A0741D580220020D3
:101B9000854B5205996B8046114204D1996B0A43DB
:101BA0009A63012398468027834E7F0033683B4227
:101BB00000D161E18022A3685200934200D10FE27C
:101BC000002B00D19AE1A021C9008B4200D1FDE198
:101BD000754B7A4A196D0A401A65196D784A0A40A0
:101BE0001A65FFF7DFF9802681466F4FB600754D05
:101BF00006E0FFF7D7F94B46C01AA84200D94AE1E0
:101C00003B6D3342F5D04346012B00D1D7E1236829
:101C10009B0600D58AE0A36A002B1CD00C21624DE4
:101C2000EA680A400C2A7BD02A68022B00D1DCE14A
:101C3000654B2C0013402B60FFF7B4F9802506009C
:101C4000AD0405E0FFF7AEF9801B022800D922E1C0
:101C500023682B42F6D1002063E00C22524DEB6842
:101C60001A4227D0E369002B00D133E180222B6890
:101C7000520013432B60FFF795F980260700B6004A
:101C800005E0FFF78FF9C01B022800D903E12B689C
:101C9000454A3342F5D051684C4B0B40616A0B43C7
:101CA00053605368216A1B0209061B0A0B435360E9
:101CB00023684FE72B689B0502D5E369002B2FD0E3
:101CC000E021394B626A5868090201408A4200D813
:101CD00045E1F020D968084200D0A1E08021986B4E
:101CE0004905084200D1B4E1334B1968C0235B01B8
:101CF0001940C0235B01994200D091E0344BD018C9
:101D0000464246418DE0CA68D20300D4C5E6264A61
:101D10001268920300D4EBE66268002A00D0E7E67E
:101D2000012003B00CBC90469946F0BDA3691E4D3E
:101D3000002B00D1FCE001238021AA6889011A430D
:101D4000AA606A6B02261343224A6B63136A0B4331
:101D50001362FFF727F9070005E0FFF723F9C01B1F
:101D6000022800D997E0AB681E42F6D053E7012263
:101D70002B68042693432B60FFF714F9070005E056
:101D8000FFF710F9C01B022800D984E02B681E421F
:101D9000F6D12368DBE601222B6D022693432B65E7
:101DA000FFF700F907001CE000100240FFFFFEFFF4
:101DB000FFFFFBFFFFE0FFFF00700040FFFEFFFFA3
:101DC000FFFBFFFF88130000FFFFFFFEFF1FFFFF69
:101DD0000040FFFF00000140FFF7E4F8C01B0228AD
:101DE00059D82B6D1E42F7D12368CDE68020A64A34
:101DF000C00211680143116011680B431360FFF7C3
:101E0000D1F880250700A04EAD0204E0FFF7CAF824
:101E1000C01B64283FD833682B42F7D0236867E69D
:101E20000026012599490B68AB4333430B600B68CF
:101E30002B409E4200D073E79349954B486803407E
:101E400013434B604B68206A1B0200061B0A0343C6
:101E50004B608D4B520BD968802301321B0293409B
:101E60000A068C49120F8A5C0320D3408A4A136009
:101E7000FFF768F823686DE633683B433360FFF78C
:101E800091F8050033683B4200D093E6FFF78AF8EB
:101E9000401B6428F6D9032043E7CA68D20300D563
:101EA00034E6794A1268520703D5E268012A00D065
:101EB00036E72169744D08026A6878490A4002438E
:101EC0006A60DA0600D445E6C7E66F4A13680B433A
:101ED000136094E72A68724B802613402B60FFF74B
:101EE00061F8B600070004E0FFF75CF8C01B0228A9
:101EF000D1D82B683342F7D123682BE6624E684B6A
:101F0000326D802713403365326D664BBF0013403E
:101F10003365FFF747F8644D814605E0FFF742F867
:101F20004B46C01AA842B6D8336D3B42F6D16AE69A
:101F30000122AB68022693435C4AAB60116A5C4B9A
:101F40000B401362FFF72EF8070004E0FFF72AF8B2
:101F5000C01B02289FD8AB681E42F7D15BE65868C9
:101F60004B490140114359605968206A0902000633
:101F7000090A0143F0205960D968084212D1802132
:101F8000986B4905084271D04A4B1968C0235B0120
:101F90001940C0235B01994204D1474BD0184642F7
:101FA000464100E00026012538490B68AB43334326
:101FB0000B600B682B409E4200D0B1E649E7324AE5
:101FC0003E4B916B0B409363236821E680202E4BA0
:101FD000C000196D01431965196D0A431A6500E6C1
:101FE00029490A6D13430B65FBE5354B80271340E8
:101FF0002B60FEF7D7FFBF04804606E0FEF7D2FF56
:102000004346C01A022800D945E72B681E4E3B42C2
:10201000F4D1226BE16AF3681143626B80241143AF
:10202000284AA404134080220B43F360336852040F
:1020300013433360FEF7B6FF050005E0FEF7B2FF7D
:10204000401B022800D926E733682342F6D000203F
:1020500067E6986B0143996316490868C0214901F6
:102060009D6B014015482840986342E6986B0143F8
:10207000996310490868C02149019D6B01400F48D0
:102080002840986385E7C0460010024000200240C7
:10209000FF1FFFFFB07E000804000020FFE0FFFFED
:1020A000FFFEFFFFFFFBFFFF881300000000014061
:1020B000FFDFFFFF007000400040FFFFFFFFFFEF6A
:1020C000FFFFFFFEFFFF02FFF8B546464F460C003C
:1020D0000121764AC0B4136806000B40A3420CD21B
:1020E00013688B4323431360136819408C4204D058
:1020F00001200CBC90469946F8BD33689A0706D576
:10210000F0206B49CA688243B0680243CA60DB07AB
:102110002BD5674A73681268022B7DD0032B76D0CB
:10212000012B00D192E09205E2D50321604DEA68CF
:102130008A431343EB60FEF735FF73680700022BF9
:1021400074D0032B00D18CE0012B00D199E00C233B
:102150009846584B994604E0FEF724FFC01B4845BB
:1021600058D84246EB681A42F6D101214F4A13680B
:102170000B409C4205D213688B43136013681942CD
:10218000B6D133685A0706D549494B4AC868024058
:10219000F0680243CA601B071ED40C23444AD1686E
:1021A0000B40082B3BD00C2B1FD0042B39D08020A8
:1021B000536800021B045B0F013398403C4B3F4ABD
:1021C000DB681B061B0FD35CD8403D4B1860032017
:1021D000FEF7B8FE00208CE735483169C368394AFC
:1021E000C90013400B43C360D7E78B0236481B0F6F
:1021F000C45C0902D368890F0131DB032CD4136856
:10220000DB064ED531486043FDF7BCFFD6E79201AF
:102210008BD46DE703206CE7920386D468E72C48E3
:10222000CCE71368DB0615D52848C7E70A3398467C
:10223000204B994604E0FEF7B5FEC01B4845E9D89F
:102240004246EB681340082BF5D18EE7520700D5C4
:102250006BE74DE71F48B1E71D486043FDF792FF6C
:10226000ACE709339846134B994604E0FEF79AFE13
:10227000C01B4845CED84246EB6813400C2BF5D125
:1022800073E70B3398460B4B994604E0FEF78AFE42
:10229000C01B4845BED84246EB681340042BF5D11D
:1022A00063E70C486043FDF76DFF87E700200240BD
:1022B0000010024088130000FFF8FFFFB07E000806
:1022C00004000020FFC7FFFFA47E000800093D00B6
:1022D00000127A000024F4000C231B4A10B5D168C8
:1022E0000B40082B22D00C2B0ED0042B07D08020C3
:1022F000536800021B045B0F0133984010BD136844
:10230000DB0615D51148F9E78B0211481B0FC45C99
:102310000902D368890F0131DB030BD41368DB0694
:102320000DD50A486043FDF72DFFE7E70948E5E7CB
:102330000948E3E707486043FDF724FFDEE7064866
:102340006043FDF71FFFD9E70010024000093D0080
:10235000A47E000800127A000024F400044B054A11
:10236000DB685B055B0FD35C034A1068D84070479D
:1023700000100240C07E000804000020044B054A03
:10238000DB689B045B0FD35C034A1068D84070473E
:1023900000100240C07E00080400002010B508288C
:1023A00000D195E026D9202847D000D87AE04028EF
:1023B0003FD18021634AC904D36C0B4000D09FE019
:1023C000136800209B011CD5D3685F48D1689B022D
:1023D0001B0FC35C0902D068890F0131C00300D50F
:1023E000A6E01268D20600D5A4E058485843FDF78D
:1023F000C9FE06E002285ED0042803D0012840D0A0
:10240000002010BDC0224F491201CB6C13404FD0A9
:1024100080242401A34200D181E08020C0008342B7
:1024200065D000209342ECD1086D8005C00FC00339
:10243000E7E780231B019842E2D1C0218024414A72
:102440008902106D136D64020B40A34226D08024D4
:10245000A402A3425ED000208B42D2D11368234253
:10246000CFD01368C02280219203134089038B428E
:1024700066D0934262D08022520393425CD03448AB
:10248000BFE703212F4AD36C0B404ED0022B31D033
:10249000012B2CD00020032BB3D1106D8005C00F71
:1024A000C003AEE71028ABD1264B9B6B5B02A7D5D0
:1024B000FFF754FFA5E70C21224AD36C0B40F7D05D
:1024C000082B17D0042B12D000200C2B99D1E4E755
:1024D000C0231C4A9B01D16C0B40E9D080218901AB
:1024E0008B4207D080225201934200D088E7FFF749
:1024F000F3FE86E713685B0700D481E7134880E7A3
:1025000000208B4200D07CE793689B0700D478E7DB
:10251000104876E7830700D472E70F4871E70B682D
:10252000184200D16CE709486BE7FFF727FF68E71F
:102530000A485BE7064859E7094862E7094860E747
:1025400009485EE700100240A47E00080024F40061
:1025500000093D00006CDC028890000000127A0047
:1025600080841E0020A1070040420F007047C04633
:10257000F0B557464E464546E0B41E006923C35C9D
:1025800005000F0014000220202B04D01CBC904634
:102590009946A246F0BD002963D00138002AF5D043
:1025A0008023AA685B019A4255D06823EA5C022026
:1025B000012AEBD00122EA5400232032EB66693372
:1025C000EA54FEF7EFFC5023EC520233EC529846EB
:1025D00080235B018246802499462A684346EB5A51
:1025E000002B40D043464146EB5A013B9BB26B5215
:1025F000731C09D1D3691C42FCD0AB684B4521D078
:102600003B7801379362E9E7D3691C42F5D1002E8C
:1026100006D0FEF7C7FC53462A68C01A8642E7D2A6
:1026200011681F4B03200B400121136093688B43FB
:10263000936020236922AB540132AB54002248330B
:10264000EA54A3E72B69002BDAD13B880237DB057C
:10265000DB0D9362C2E72B69002BA6D10142A4D007
:1026600094E7012092E74024731C0BD14021D369E9
:102670001942FCD020226923EA540022013BEA548B
:10268000002083E7D3691C42F4D1002EC8D0FEF7A6
:1026900089FC53462A68C01A8642E5D2C0E7C04684
:1026A0005FFEFFFF02698168F8B511434269056862
:1026B0001143C2692B681143974A040013400B432E
:1026C0002B606A68954B81691340C26813436B6045
:1026D000934B9D421DD0026AAB681143914A13404F
:1026E0000B43AB60904B9D4200D173E08F4B9D42FA
:1026F0004AD00220FFF752FE2668894B9E4205D041
:102700008023E2691B029A4200D16BE00125280078
:10271000F8BDAA68834B13401943A960C0218022E9
:10272000834B0901DB6CD2000B40934200D1B5E032
:1027300000D899E080221201934200D182E08B42BE
:10274000D7D10220FFF72AFE2668AE4235D180207D
:1027500000026268012553009B188342D7D81303F7
:102760008342D4D30021070E0602500800238019AB
:102770007941FDF7CDFD6F4BC2186F4B9A42C6D819
:1027800023680025D860C2E70C22694BDB6C13403C
:102790006A4AD55C0220FFF701FE2668604B9E4224
:1027A0000CD1022D54D059D9042D00D08BE0FFF765
:1027B00093FD00250028CCD1A9E708258023E269F4
:1027C0001B029A4200D095E0082D0BD85C4BAD005F
:1027D0005B599F460322564BDB6C1340574AD31874
:1027E0001D7CD7E700230125F36090E78023616813
:1027F0005B0248089C466044FDF7C4FC0F220307B7
:102800005B0F9043184383B20025F3607FE7FFF727
:10281000B5FD636840005B08C0186168FDF7B2FC55
:102820002668EBE7616840004B08C018E4E7404BBE
:1028300061681B684808DB0641D5424BDAE7FFF7C1
:102840004BFDE6E70220FFF7A9FD2668AE4240D126
:10285000374B1B68DB0634D53B487AE7002D00D0A8
:1028600054E7FFF77BFDA4E7002B00D041E70220EF
:10287000FFF794FD2668AE42F3D08023E2691B0285
:102880009A42CFD0FFF76AFD61684B081818FDF730
:1028900079FC0004000CF060002538E70220FFF707
:1028A0007DFD2668AE4282D08023E2691B029A42F7
:1028B000C5D0FFF711FD61684B081818E7E7234BF7
:1028C00098E7234845E780200002082D00D140E723
:1028D0001CE78023E2691B029A42A8D0144B61686E
:1028E0001B684808DB0603D5174B9C466044CEE7BF
:1028F000174BFAE7082D00D908E7164BAD005B59D6
:102900009F46FFF73BFD61684B081818BFE780231F
:1029100061681B024808E8E7F369FFEFFFCFFFFF9C
:1029200000480040FFF4FFFF003801400044004031
:102930000010024000FDFFFFFFFC0F00907E00082A
:10294000287D000800127A0000093D000048E801D7
:102950000024F4004C7D0008436A30B5DA0706D540
:102960000168284A4C682240846A22434A609A07D8
:1029700006D50168244A4C682240C46A22434A6052
:102980005A0706D50168214A4C682240046B22434D
:102990004A601A0706D501681D4A4C682240446BFC
:1029A00022434A60DA0606D501681A4A8C6822403A
:1029B000846B22438A609A0606D50168164A8C68A1
:1029C0002240C46B22438A605A060AD50168134A22
:1029D0004D68046C2A4022434A608022520394428C
:1029E00009D01B0606D501680D4B4A681340826C5E
:1029F00013434B6030BD4C680A4A2240446C22436A
:102A00004A60EEE7FFFFFDFFFFFFFEFFFFFFFBFF5A
:102A1000FF7FFFFFFFEFFFFFFFDFFFFFFFFFEFFF86
:102A2000FFFFF7FFFFFF9FFFF8B500230400C36619
:102A3000FEF7B8FA236806001A6812070CD41A6861
:102A4000520728D420236922A3540132A354002220
:102A500000204833E254F8BD8025164FAD03DA69F3
:102A60002A40AA42EBD0FEF79DFA2368801BB842A9
:102A7000F5D91968104A03200A4001211A609A68A2
:102A80008A439A6020236922A3540132A35400226E
:102A90004833E254DFE78025064FED03DB692B4026
:102AA000AB42CFD0FEF77EFA2368801BB842F5D93F
:102AB000DFE7C046FFFFFF015FFEFFFFF8B5041E22
:102AC00040D06923C35CDBB2002B42D024226923AF
:102AD0002568E2542B68233A93432B60636A002BEA
:102AE00032D12269A1682B68114362691143E269FE
:102AF0001143AF4A13400B432B606A68AD4BA16989
:102B00001340E26813436B60AB4B9D4226D0226AB0
:102B1000AB681143A94A13400B43AB60A84B9D42DD
:102B200000D17FE0A74B9D4252D00220FFF736FC38
:102B30002368A14A934205D08022E16912029142A2
:102B400000D185E00120F8BD2000FFF705FF2568D2
:102B5000C7E768228354FFF709FDB7E7AA68974BD8
:102B600013401943A960C0218022974B0901DB6CF7
:102B7000D2000B40934200D1CCE000D8BEE08022CE
:102B80001201934200D192E08B42CED10220FFF796
:102B900005FC27683E1EAE424CD1802000026268D0
:102BA00053009B188342CDD813038342CAD300211C
:102BB000070E06025008002380197941FDF7A8FB93
:102BC000824BC218824B9A42BCD82668F06019E04A
:102BD0000C227D4BDB6C13407E4AD55C0220FFF754
:102BE000DDFB2768744B3E1E9E4224D1022D7BD014
:102BF00000D8ADE0042D00D0AFE0FFF76DFB00285A
:102C0000CDD126687268744B200013402A2273606D
:102C1000B3689343B3600123326813433360FFF713
:102C200003FF90E70322684BDB6C1340694AD3181B
:102C30001D7CD3E708258023E2691B029A4200D05D
:102C40009CE0082D00D996E0644BAD005B599F468F
:102C50000022DA6076E76368580880235B029C46AE
:102C600060446168FDF78EFA0F2203075B0F904303
:102C7000184383B2F360C5E7FFF780FB6368400049
:102C80005B08C0186168FDF77DFA2668ECE76368A9
:102C900040005B08C018E4E7FFF71EFBEEE74A4B75
:102CA0001B68DB0650D5636858084D4BD7E70220F8
:102CB000FFF774FB27683E1EAE4215D08023E26901
:102CC0001B029A42EBD0404B1B68DB0612D56368AF
:102CD0005808444B9C4661686044FDF753FA000471
:102CE000000CF8603E008DE7374B1B68DB0632D5E1
:102CF0003C4854E7636858083B4BEBE7002B00D097
:102D000013E70220FFF74AFB2668AE422BD1FFF7FC
:102D100025FB74E70220FFF741FB2668AE4200D195
:102D20006BE78023E2691B029A42B5D0FFF7D4FA21
:102D3000636861685B081818FDF724FA27680004C7
:102D4000000CF0603E005DE763685808274B86E79B
:102D5000002DDCD0F6E6244821E780200002082D73
:102D600000D11CE7EEE68023E2691B029A428ED076
:102D7000FFF7F4FADCE70023FB60E3E6082D00D957
:102D8000E0E61B4BAD005B599F46FFF7F7FA63681F
:102D900061685B081818FDF7F5F90004000CF8608D
:102DA00027683E002EE76368580880231B0291E7DE
:102DB000F369FFEFFFCFFFFF00480040FFF4FFFF84
:102DC00000380140004400400010024000FDFFFFB9
:102DD000FFFC0F00907E0008FFB7FFFF707D00082A
:102DE00000127A0000093D000024F4000048E801C8
:102DF000947D0008F8B5041E40D06923C35CDBB2A3
:102E0000002B42D0242269232568E2542B68233A00
:102E100093432B60636A002B32D12269A1682B682F
:102E2000114362691143E2691143B24A13400B43F3
:102E30002B606A68B04BA1691340E26813436B6072
:102E4000AE4B9D4226D0226AAB681143AC4A134078
:102E50000B43AB60AB4B9D4200D184E0AA4B9D423B
:102E600052D00220FFF79AFA2368A44A934205D071
:102E70008022E1691202914200D18AE00120F8BD6E
:102E80002000FFF769FD2568C7E768228354FFF734
:102E90006DFBB7E7AA689A4B13401943A960C0219C
:102EA00080229A4B0901DB6CD2000B40934200D187
:102EB000D1E000D8C3E080221201934200D197E014
:102EC0008B42CED10220FFF769FA27683E1EAE4240
:102ED00051D180200002626853009B188342CDD8F4
:102EE00013038342CAD30021070E060250080023B1
:102EF00080197941FDF70CFA854BC218854B9A422F
:102F0000BCD82668F0601AE00C22804BDB6C1340C2
:102F1000814AD55C0220FFF741FA2768774B3E1EB5
:102F20009E4229D1022D00D17FE000D8B1E0042DCE
:102F300000D0B3E0FFF7D0F90028CCD12668726842
:102F4000764B2000134022227360B3689343B36032
:102F50000823B2681343B36001233268134333601C
:102F6000FFF762FD8BE70322684BDB6C13406A4A74
:102F7000D3181D7CCEE708258023E2691B029A4204
:102F800000D09CE0082D00D996E0654BAD005B5960
:102F90009F460022DA6071E76368580880235B026D
:102FA0009C4660446168FDF7EDF80F2203075B0F54
:102FB0009043184383B2F360C1E7FFF7DFF963681A
:102FC00040005B08C0186168FDF7DCF82668ECE794
:102FD000636840005B08C018E4E7FFF77DF9EEE79F
:102FE0004A4B1B68DB0650D5636858084D4BD7E742
:102FF0000220FFF7D3F927683E1EAE4215D080238A
:10300000E2691B029A42EBD0404B1B68DB0612D5EB
:1030100063685808444B9C4661686044FDF7B2F809
:103020000004000CF8603E0089E7384B1B68DB06A3
:1030300032D53D484FE7636858083C4BEBE7002B1F
:1030400000D00EE70220FFF7A9F92668AE422BD187
:10305000FFF784F970E70220FFF7A0F92668AE4277
:1030600000D167E78023E2691B029A42B5D0FFF7DF
:1030700033F9636861685B081818FDF783F82768FF
:103080000004000CF0603E0059E763685808284BC4
:1030900086E7002DDCD0F1E624481CE78020000202
:1030A000082D00D117E7E9E68023E2691B029A4266
:1030B0008ED0FFF753F9DCE70023FB60DEE6082D36
:1030C00000D9DBE61B4BAD005B599F46FFF756F975
:1030D000636861685B081818FDF754F80004000C79
:1030E000F86027683E002AE76368580880231B02BF
:1030F00091E7C046F369FFEFFFCFFFFF00480040B4
:10310000FFF4FFFF0038014000440040001002407F
:1031100000FDFFFFFFFC0F00907E0008FFB7FFFFE0
:10312000B87D000800127A0000093D000024F40078
:103130000048E801DC7D0008F0B54746040080B493
:103140008846002849D08023C2691B029A4244D095
:103150008368002B41D16933C35CDBB2002B45D0BF
:10316000242269232568E2542B68233A93432B6079
:10317000636A002B35D12269A1682B68114362690B
:103180001143E2691143B74A13400B432B606A684D
:10319000B54BA1691340E26813436B60B34B9D428A
:1031A00029D0226AAB681143B14A13400B43AB608C
:1031B000B04B9D4200D1D6E0AF4B9D4200D16DE0B7
:1031C0000220FFF7EBF82368A84A934205D080223B
:1031D000E1691202914200D1B2E0012004BC9046A4
:1031E000F0BD2000FFF7B8FB2568C4E768228354D0
:1031F000FFF7BCF9B4E7AA689D4B13401943A960D7
:10320000C02180229D4B0901DB6CD2000B40934210
:1032100000D1D7E06BD980221201934200D1B0E0F7
:103220008B42CDD10220FFF7B9F827683E1EAE428F
:103230004FD180200002626853009B188342CCD893
:1032400013038342C9D30021070E0602500800234E
:1032500080197941FDF75CF8894BC218894B9A4275
:10326000BBD82668F0607268874B200013402A2282
:103270007360B36893438022B3607368D2011343D1
:1032800020227360736893434246134373600123A3
:10329000326813433360FFF7C7FB9FE70C22774B7D
:1032A000DB6C1340794AD55C0220FFF777F827687A
:1032B0006E4B3E1E9E420DD1022D5CD000D89FE089
:1032C000042D00D0A2E0FFF707F80028B3D126684C
:1032D000C9E708258023E2691B029A4200D0A6E0D4
:1032E000082D00D9A0E06A4BAD005B599F46002B2A
:1032F00000D065E70220FFF751F82668AE4200D003
:103300008AE0FFF72BF8E0E76368580880235B0248
:103310009C4660446168FCF735FF0F2203075B0F92
:103320009043184383B2F3609DE7FFF727F8636883
:1033300040005B08C0186168FCF724FF2668ECE7D2
:103340000022DA6049E7636840005B08C018E1E7E3
:10335000FEF7C2FFEBE7494B1B68DB064CD5636801
:1033600058084C4BD4E70322444BDB6C1340474ACC
:10337000D3181D7C98E7414B1B68DB0644D54648B3
:1033800059E70220FFF70AF827683E1EAE42F2D046
:103390008023E2691B029A42DDD0384B1B68DB06B2
:1033A0000CD5636858083C4B9C4661686044FCF748
:1033B000E9FE0004000CF8603E0054E7636858081A
:1033C000364BF1E70220FEF7E9FF2668AE4200D156
:1033D00079E78023E2691B029A42B9D0FEF77CFFAD
:1033E000636861685B081818FCF7CCFE2768000466
:1033F000000CF0603E0036E763685808284B87E70A
:10340000002D00D17DE7E8E6244814E78020000283
:10341000082D00D10FE7E0E68023E2691B029A4203
:1034200091D0FEF79BFFDBE70023FB60D5E6082D7C
:1034300000D9D2E61B4BAD005B599F46FEF79EFFBD
:10344000636861685B081818FCF79CFE0004000CB8
:10345000F86027683E0006E76368580880231B026F
:10346000A2E7C046F369FFEFFFCFFFFF004800402F
:10347000FFF4FFFF0038014000440040001002400C
:1034800000FDFFFFFFFC0F00FFF7FFFF907E00082D
:10349000007E000800127A0000093D000024F400BC
:1034A0000048E801247E0008F8B54F46464604006F
:1034B000C0B489469046002840D06923C35CDBB283
:1034C000002B45D0242269232568E2542B68233A37
:1034D00093432B60636A002B35D12269A1682B6866
:1034E000114362691143E2691143BA4A13400B4325
:1034F0002B606A68B84BA1691340E26813436B60A4
:10350000B64B9D4229D0226AAB681143B44A13409E
:103510000B43AB60B34B9D4200D18DE0B24B9D425B
:1035200055D00220FEF73AFF2368AC4A934205D0FB
:103530008022E1691202914200D193E001200CBC8B
:1035400090469946F8BD2000FFF706FA2568C4E7C3
:1035500068228354FFF70AF8B4E7AA68A04B134027
:103560001943A960C0218022A04B0901DB6CD20065
:103570000B40934200D1DFE000D8D1E0802212015D
:10358000934200D19DE08B42CBD10220FEF706FF93
:1035900027683E1EAE4257D1802000026268530069
:1035A0009B188342CAD813038342C7D30021070E56
:1035B00006025008002380197941FCF7A9FE8C4BC4
:1035C000C2188C4B9A42B9D82668F0601AE00C22D7
:1035D000864BDB6C1340884AD55C0220FEF7DEFE8A
:1035E00027687E4B3E1E9E422FD1022D00D185E0E2
:1035F00000D8BFE0042D00D0C1E0FEF76DFE00282A
:10360000CCD1266872687D4B13402A227360B36860
:103610009343B36080231B01984575D03268784B83
:1036200020001340424613433360012332681343A2
:103630003360FFF7F9F982E703226C4BDB6C134030
:103640006D4AD3181D7CC8E708258023E2691B0258
:103650009A4200D0A4E0082D00D99EE0694BAD004D
:103660005B599F460022DA6068E763685808802348
:103670005B029C4660446168FCF784FD0F220307EF
:103680005B0F9043184383B2F360BBE7FEF776FE0F
:10369000636840005B08C0186168FCF773FD26682A
:1036A000ECE7636840005B08C018E4E7FEF714FE2F
:1036B000EEE74E4B1B68DB0658D563685808524B43
:1036C000D7E70220FEF76AFE27683E1EAE4215D0FD
:1036D0008023E2691B029A42EBD0444B1B68DB0655
:1036E0001AD563685808494B9C4661686044FCF7EA
:1036F00049FD0004000CF8603E0083E73B4B1B686B
:10370000DB063AD5414849E74A46736812061B0270
:103710001B0A1343736081E7636858083C4BE3E777
:10372000002B00D0FDE60220FEF738FE2668AE42F0
:103730002BD1FEF713FE62E70220FEF72FFE26686C
:10374000AE4200D159E78023E2691B029A42ADD014
:10375000FEF7C2FD636861685B081818FCF712FD8C
:1037600027680004000CF0603E004BE763685808CF
:10377000284B7EE7002DDCD0E0E625480EE78020D0
:103780000002082D00D109E7D8E68023E2691B0278
:103790009A4286D0FEF7E2FDDCE70023FB60CDE62F
:1037A000082D00D9CAE61C4BAD005B599F46FEF7B9
:1037B000E5FD636861685B081818FCF7E3FC00042A
:1037C000000CF86027683E001CE7636858088023F7
:1037D0001B0289E7F369FFEFFFCFFFFF00480040BE
:1037E000FFF4FFFF00380140004400400010024099
:1037F00000FDFFFFFFFC0F00907E0008FFB7FFFFFA
:10380000FFF7FFFF487E000800127A0000093D0024
:103810000024F4000048E8016C7E00088021104B71
:1038200049001A680A431A60D9680E4A0A40DA60E9
:1038300019680D4A0A4001211A609A688A439A6001
:1038400019680A4A0A401A60D968094A0A40DA60C7
:1038500000221A618022074B12059A607047C04609
:10386000001002400C40FF88F6FFF6FEFFFFFBFF52
:10387000FFFF02FF00ED00E030B5234C87B02000D1
:10388000FEF7F2F8002808D02000FEF7EDF8203807
:10389000431E9841C0B207B030BD1C4B1C4D636045
:1038A0003323A360323BE3601A4BEA6A23600223AE
:1038B0001A43EA62EA6A01A91A400092009AC022F9
:1038C0009200019212220493039002331248029252
:1038D0000593FDF7D5FB8021AA6B89030A43AA63F0
:1038E000AB6A17200B43AB62AA6A0C4B0021134052
:1038F000AB620022FDF76AFB1720FDF79BFB20005F
:10390000FDF732FEC0E7C046540300202E11B1007F
:10391000001002400054004000040050FFFFDFFF91
:1039200030B5234C87B02000FEF79EF8002808D061
:103930002000FEF799F82038431E9841C0B207B026
:1039400030BD1C4B1C4D63603323A360323BE360EE
:103950001A4BEA6A236002231A43EA62EA6A01A95F
:103960001A400092009AC0229200019212220493FF
:1039700003900233124802920593FDF781FB8021E8
:10398000AA6B89030A43AA63AB6A17200B43AB6295
:10399000AA6A0C4B00211340AB620022FDF716FB14
:1039A0001720FDF747FB2000FDF7DEFDC0E7C0460E
:1039B000540300202E11B1000010024000540040BA
:1039C00000040050FFFFDFFFF0B5474602241E4D04
:1039D00080B4EB6A8CB02343EB62EB6A0027234090
:1039E0000093009B2023194E0293194B02A930002B
:1039F0009846039305940497FDF742FB00220021AB
:103A00000720FDF7E3FA0720FDF714FBEB6A07A98F
:103A10002343EB62EB6A300023400193019B1023A8
:103A2000079343460A9408930997FDF729FB002260
:103A300000210720FDF7CAFA0720FDF7FBFA002056
:103A40000CB004BC9046F0BD0010024000040050D1
:103A500000001110F0B557464E464546E0B4070049
:103A6000007884B0402842D03FD9B1282AD1002B19
:103A700039D0984680235B019A4601231500904473
:103A80000C001D4E994604E001340135E4B2454571
:103A900029D05346B97802934B46A2B201930095C0
:103AA00001233000FDF7D6FD0028EDD03000FDF7F2
:103AB000B7FDFFF7E1FE012004B01CBC904699461B
:103AC000A246F0BDBC2812D080200B4E8CB2400123
:103AD000B978029001930092012322003000FDF793
:103AE000B9FD0028E2D10020E6E73328ECD1012B14
:103AF000EAD980200143E7E754030020F0B5574698
:103B00004E464546E0B40700007884B0402842D0D5
:103B10003FD9B1282AD1002B39D0984680235B01A8
:103B20009A460123150090440C001D4E994604E06E
:103B300001340135E4B2454529D05346B9780293A2
:103B40004B46A2B20193009501233000FDF77CFEA5
:103B50000028EDD03000FDF763FDFFF78DFE01205A
:103B600004B01CBC90469946A246F0BDBC2812D0B9
:103B700080200B4E8CB24001B978029001930092E4
:103B8000012322003000FDF75FFE0028E2D1002073
:103B9000E6E73328ECD1012BEAD980200143E7E79F
:103BA00054030020F8B50026354C0E6005000F00C8
:103BB0006379002831D0012B2DD0FFF7B1FE012809
:103BC00029D06A2323706C33A370D53BE3712300A3
:103BD0002C4A1433E2602C4AA36022612B4A08333A
:103BE000667026716671A6716361E261A6613C60D0
:103BF000E3681B68002B07D020009847012838D0C5
:103C0000FFF7E2FE002007E014220021200003F06D
:103C100030FC00233B600120F8BD012BFBD0FFF7F7
:103C20007FFE0128F7D06A2323706C33A370D53B45
:103C3000E3712300134A1433E260134AA360226144
:103C4000124A0833657025716571A5716361E2617F
:103C5000A5613C60E3681B68002BD5D02000984725
:103C60000128CDD114220021386803F002FC3D6008
:103C7000D1E714220021386803F0FBFB3E60CAE75D
:103C8000A003002014000020B40000204006002003
:103C900010B5002809D0C3689B68002B05D0984751
:103CA000013843425841C0B210BD0120FCE7C04674
:103CB00010B5002809D0C3689B6A002B05D098472F
:103CC000013843425841C0B210BD0120FCE7C04654
:103CD00010B5031E0DD00269002A0AD00478012015
:103CE0006A2C00D010BD1268002AFBD01800904743
:103CF000F8E70120F6E7C04610B5031E0FD00269B1
:103D0000002A0CD000290AD0047801206A2C00D0A7
:103D100010BD5268002AFBD018009047F8E7012038
:103D2000F6E7C04610B5031E0FD00269002A0CD07A
:103D300000290AD0047801206A2C00D010BD126935
:103D4000002AFBD018009047F8E70120F6E7C046AC
:103D500010B5031E0FD00269002A0CD000290AD02A
:103D6000047801206A2C00D010BD9269002AFBD093
:103D700018009047F8E70120F6E7C04610B5031E8B
:103D80000DD00269002A0AD0047801206A2C00D0E4
:103D900010BDD269002AFBD018009047F8E7012037
:103DA000F6E7C04610B5031E0FD00269002A0CD0FA
:103DB00000290AD0047801206A2C00D010BD126AB4
:103DC000002AFBD018009047F8E70120F6E7C0462C
:103DD00010B5031E0DD00269002A0AD00478012014
:103DE0006A2C00D010BD526A002AFBD01800904700
:103DF000F8E70120F6E7C04610B5031E0DD00269B2
:103E0000002A0AD0047801206A2C00D010BD926AE2
:103E1000002AFBD018009047F8E70120F6E7C046DB
:103E200010B5031E0DD00269002A0AD004780120C3
:103E30006A2C00D010BDD26A002AFBD0180090472F
:103E4000F8E70120F6E7C04610B5031E0DD0026961
:103E5000002A0AD0047801206A2C00D010BD126B11
:103E6000002AFBD018009047F8E70120F6E7C0468B
:103E700030B587B0002808D101240E4AD16A214309
:103E8000D162D36A23400093009B202301931F3B00
:103E900002930023084D8400039301A90333605962
:103EA0000493FDF7EDF8605900222021FDF7D2F9C7
:103EB00007B030BD001002400800002010B5044BD0
:103EC0008000C05801222021FDF7C4F910BDC04672
:103ED0000800002010B5044B8000C05800222021AB
:103EE000FDF7B8F910BDC0460800002030B587B016
:103EF000002808D10425184AD46A2C43D462D36A16
:103F00002B400093009B80239B010193002303938C
:103F100001330493002903D001290AD007B030BD32
:103F20000E4B800018180291406801A9FDF7A8F80F
:103F3000F4E70B4B80000293084B01A91818406866
:103F4000FDF79EF800220F210720FDF73FF807201C
:103F5000FDF770F8E2E7C0460010024008000020BC
:103F600000002110802110B5034B80001818406814
:103F70008901FDF769F910BD0800002010B5FFF7B1
:103F8000BDFD43425841C0B210BDC04610B5FFF759
:103F900061FD43425841C0B210BDC04610B50A0091
:103FA00001230F21FFF7AAFD43425841C0B210BDC3
:103FB00070B582B06B46DC1D0E0001232200122179
:103FC0000500FFF79BFD002802D0002002B070BD65
:103FD0004023217822009943314321703F3B122135
:103FE0002800FFF737FD43425841C0B2EEE7C04614
:103FF00070B582B06B46DC1D0E000123220010213B
:104000000500FFF77BFD002802D0002002B070BD44
:104010000C23217822009943314321700B3B10215E
:104020002800FFF717FD43425841C0B2EEE7C046F3
:1040300010B50A000C0001231021FFF75FFD0028D6
:1040400001D0002010BD0C222378012013402370E2
:10405000F8E7C046F0B54746032680B480460F0017
:104060000024A51CEDB2210028313A19C9B2012360
:104070004046FFF743FD00280CD10134E4B2A542CD
:10408000F1D1013EF6B22C00002EEAD1012004BC91
:104090009046F0BD0020FAE770B582B06B46DC1D9B
:1040A0000E000123220010210500FFF727FD002844
:1040B00002D0002002B070BD0F21237822001940E9
:1040C00031432170012310212800FFF7C3FC434234
:1040D0005841C0B2EEE7C04610B50A000C000123FB
:1040E0001021FFF70BFD002801D0002010BD0F228A
:1040F0002378012093432370F8E7C04670B582B05F
:104100006B46DC1D0E000123220011210500FFF784
:10411000F5FC002802D0002002B070BD0C232178ED
:1041200022009943314321700B3B11212800FFF7F6
:1041300091FC43425841C0B2EEE7C04610B50A00B8
:104140000C0001231121FFF7D9FC002801D0002029
:1041500010BD0C222378012013402370F8E7C046DD
:10416000F0B54746032680B480460F000024A51C06
:10417000EDB2210022313A19C9B201234046FFF7BE
:10418000BDFC00280CD10134E4B2A542F1D1013EBE
:10419000F6B22C00002EEAD1012004BC9046F0BDFE
:1041A0000020FAE770B582B06B46DC1D0E000123DB
:1041B000220011210500FFF7A1FC002802D00020F9
:1041C00002B070BD0F2123782200194031432170C5
:1041D000012311212800FFF73DFC43425841C0B2A2
:1041E000EEE7C04610B50A000C0001231121FFF7CD
:1041F00085FC002801D0002010BD0F22237801206B
:1042000093432370F8E7C04670B582B06B46DC1D5F
:104210000E000123220011210500FFF76FFC00288A
:1042200002D0002002B070BD022321782200994301
:1042300031432170013B11212800FFF70BFC434261
:104240005841C0B2EEE7C04610B50A000C00012389
:104250001121FFF753FC002801D0002010BD0222DD
:104260002378012013402370F8E7C04630B583B0AF
:104270006A460D000123073206210400FFF73EFCC9
:1042800000280AD16B466A46DD71073201230621F8
:104290002000FFF7DFFB002802D0002003B030BD74
:1042A0006A460123073207212000FFF727FC002878
:1042B000F3D16A462B0A0725D2790721AA431D406C
:1042C00015436B466A46DD71073201232000FFF774
:1042D000C1FB43425841C0B2E0E7C04670B582B06E
:1042E0006B46DC1D0E000123220008210500FFF7AC
:1042F00005FC002802D0002002B070BD0723217801
:104300002200994331432170063B08212800FFF722
:10431000A1FB43425841C0B2EEE7C04670B582B03F
:104320006B46DC1D0E000123220008210500FFF76B
:10433000E5FB002802D0002002B070BD38232178B0
:104340002200994331432170373B08212800FFF7B1
:1043500081FB43425841C0B2EEE7C04670B582B01F
:104360006B46DC1D0E000123220009210500FFF72A
:10437000C5FB002802D0002002B070BD7F21237849
:104380002200194031432170012309212800FFF741
:1043900061FB43425841C0B2EEE7C04670B582B0FF
:1043A0006B46DC1D0E00012322000A210500FFF7E9
:1043B000A5FB002802D0002002B070BD07232178A1
:1043C0002200994331432170063B0A212800FFF760
:1043D00041FB43425841C0B2EEE7C04670B582B0DF
:1043E0006B46DC1D0E00012322000A210500FFF7A9
:1043F00085FB002802D0002002B070BD7823217810
:104400002200994331432170773B0A212800FFF7AE
:1044100021FB43425841C0B2EEE7C04670B582B0BE
:104420006B46DC1D0E00012322000D210500FFF765
:1044300065FB002802D0002002B070BD2023217847
:1044400022009943314321701F3B0D212800FFF7C3
:1044500001FB43425841C0B2EEE7C04670B582B09E
:104460006B46DC1D0E00012322000D210500FFF725
:1044700045FB002802D0002002B070BD7F212378C8
:10448000220019403143217001230D212800FFF73C
:10449000E1FA43425841C0B2EEE7C04670B582B07F
:1044A0006B46DC1D0E000123220012210500FFF7E0
:1044B00025FB002802D0002002B070BD0423217823
:1044C0002200994331432170033B12212800FFF75A
:1044D000C1FA43425841C0B2EEE7C04670B582B05F
:1044E0006B46DC1D0E000123220014210500FFF79E
:1044F00005FB002802D0002002B070BD0323217804
:104500002200994331432170023B14212800FFF718
:10451000A1FA43425841C0B2EEE7C04670B582B03E
:104520006B46DC1D0E000123220014210500FFF75D
:10453000E5FA002802D0002002B070BD0C232178DB
:1045400022009943314321700B3B14212800FFF7CF
:1045500081FA43425841C0B2EEE7C04670B582B01E
:104560006B46DC1D0E000123220019210500FFF718
:10457000C5FA002802D0002002B070BD02232178C5
:104580002200994331432170013B19212800FFF794
:1045900061FA43425841C0B2EEE7C04670B582B0FE
:1045A0006B46DC1D0E000123220019210500FFF7D8
:1045B000A5FA002802D0002002B070BD082321789F
:1045C0002200994331432170073B19212800FFF74E
:1045D00041FA43425841C0B2EEE7C04670B582B0DE
:1045E0006B46DC1D0E000123220019210500FFF798
:1045F00085FA002802D0002002B070BD1023217877
:1046000022009943314321700F3B19212800FFF705
:1046100021FA43425841C0B2EEE7C04670B582B0BD
:104620006B46DC1D0E000123220019210500FFF757
:1046300065FA002802D0002002B070BD0423217862
:104640002200994331432170033B19212800FFF7D1
:1046500001FA43425841C0B2EEE7C04610B50A0025
:104660000C0001231B21FFF749FA002801D000208C
:1046700010BD08222378012013402370F8E7C046BC
:1046800010B50A000C0001231B21FFF737FA0028A0
:1046900001D0002010BD2022237801201340237078
:1046A000F8E7C04610B50A000C0001231C21FFF7F3
:1046B00025FA002801D0002010BD10222378012007
:1046C00013402370F8E7C04610B50A000C00012320
:1046D0001C21FFF713FA002801D0002010BD202272
:1046E0002378012013402370F8E7C04610B50A0074
:1046F0000C0001231D21FFF701FA002801D0002042
:1047000010BD01222378012013402370F8E7C04632
:1047100010B50A000C0001231D21FFF7EFF9002856
:1047200001D0002010BD0222237801201340237005
:10473000F8E7C04610B50A000C0001231D21FFF761
:10474000DDF9002801D0002010BD042223780120CB
:1047500013402370F8E7C04610B50A000C0001238F
:104760001D21FFF7CBF9002801D0002010BD082241
:104770002378012013402370F8E7C04610B50A00E3
:104780000C0001231D21FFF7B9F9002801D00020FA
:1047900010BD10222378012013402370F8E7C04693
:1047A00010B50A000C0001231D21FFF7A7F900280E
:1047B00001D0002010BD2022237801201340237057
:1047C000F8E7C04610B50A000C0001231D21FFF7D1
:1047D00095F9002801D0002010BD40222378012047
:1047E00013402370F8E7C04610B50A000C000123FF
:1047F0001E21FFF783F9002801D0002010BD0122FF
:104800002378012013402370F8E7C04610B50A0052
:104810000C0001231E21FFF771F9002801D00020B0
:1048200010BD02222378012013402370F8E7C04610
:1048300030B583B06A460D00012307323A210400E7
:10484000FFF75CF9002808D16A46012306323B21B4
:104850002000FFF753F9002802D0002003B030BD3C
:104860006B460F229B79013013406A46D2791B02B6
:1048700013432B80F2E7C04610B50A000C00012359
:104880003B21FFF73BF9002801D0002010BD10228A
:104890002378012013402370F8E7C04610B50A00C2
:1048A0000C0001233B21FFF729F9002801D000204B
:1048B00010BD20222378012013402370F8E7C04662
:1048C00010B50A000C0001233B21FFF717F900285F
:1048D00001D0002010BD4022237801201340237016
:1048E000F8E7C04630B583B06A460D0001230732B1
:1048F0003C210400FFF702F9002808D16A46012391
:1049000006323D212000FFF7F9F8002802D00020F0
:1049100003B030BD6B4603229B79013013406A46D9
:10492000D2791B0213432B80F2E7C04610B50A0070
:104930000C0001235321FFF7E1F8002801D00020EB
:1049400010BD10222378012013402370F8E7C046E1
:1049500010B50A000C0001235321FFF7CFF80028FF
:1049600001D0002010BD20222378012013402370A5
:10497000F8E7C04670B582B06B46DC1D0E0001231F
:10498000220058210500FFF7B9F8002802D00020C6
:1049900002B070BD01232178220099433143217078
:1049A00028005821FFF756F843425841C0B2EFE7BC
:1049B00070B582B06B46DC1D0E0001232200582129
:1049C0000500FFF79BF8002802D0002002B070BD60
:1049D000022321782200994331432170013B582161
:1049E0002800FFF737F843425841C0B2EEE7C0460F
:1049F00070B582B06B46DC1D0E00012322005821E9
:104A00000500FFF77BF8002802D0002002B070BD3F
:104A1000042321782200994331432170033B58211C
:104A20002800FFF717F843425841C0B2EEE7C046EE
:104A300070B582B06B46DC1D0E00012322005821A8
:104A40000500FFF75BF8002802D0002002B070BD1F
:104A5000082321782200994331432170073B5821D4
:104A60002800FEF7F7FF43425841C0B2EEE7C046C8
:104A700070B582B06B46DC1D0E0001232200582168
:104A80000500FFF73BF8002802D0002002B070BDFF
:104A90007F212378220019403143217001235821BE
:104AA0002800FEF7D7FF43425841C0B2EEE7C046A8
:104AB00070B582B06B46DC1D0D0001232200592128
:104AC0000600FFF71BF8002802D0002002B070BDDE
:104AD0001F222378154093431D43220001235921AF
:104AE00030002570FEF7B6FF43425841C0B2EDE7F3
:104AF00070B582B06B46DC1D0E00012322005921E7
:104B00000500FEF7FBFF002802D0002002B070BDB8
:104B10006023217822009943314321705F3B592162
:104B20002800FEF797FF43425841C0B2EEE7C04667
:104B300070B582B06B46DC1D0D00012322005A21A6
:104B40000600FEF7DBFF002802D0002002B070BD97
:104B500003222378154093431D43220001235A2149
:104B600030002570FEF776FF43425841C0B2EDE7B2
:104B700070B582B06B46DC1D0E00012322005A2165
:104B80000500FEF7BBFF002802D0002002B070BD78
:104B90000C232278B6009A4333401343237022003B
:104BA00001235A212800FEF755FF43425841C0B265
:104BB000ECE7C04670B582B06B46DC1D0D000123EA
:104BC00022005A210600FEF799FF002802D000209B
:104BD00002B070BD0F2223782D0113401D43220027
:104BE00001235A2130002570FEF734FF434258411B
:104BF000C0B2EDE770B582B06B46DC1D0D0001233D
:104C000022005B210600FEF779FF002802D0002079
:104C100002B070BD3F222378154093431D4322000C
:104C200001235B2130002570FEF714FF43425841F9
:104C3000C0B2EDE770B582B06B46DC1D0E000123FB
:104C400022005B210500FEF759FF002802D000205A
:104C500002B070BD7F2123782200194031432170BA
:104C600001235B212800FEF7F5FE43425841C0B204
:104C7000EEE7C04670B582B06B46DC1D0D00012327
:104C800022005C210600FEF739FF002802D0002038
:104C900002B070BD0F222378154093431D432200BC
:104CA00001235C2130002570FEF7D4FE43425841B9
:104CB000C0B2EDE770B582B06B46DC1D0E0001237B
:104CC00022005C210500FEF719FF002802D0002019
:104CD00002B070BD10232178220099433143217026
:104CE0000F3B5C212800FEF7B5FE43425841C0B29D
:104CF000EEE7C04670B582B06B46DC1D0E000123A6
:104D000022005C210500FEF7F9FE002802D00020F9
:104D100002B070BD6023227876019A43334013437A
:104D20002370220001235C212800FEF793FE4342FA
:104D30005841C0B2ECE7C04670B582B06B46DC1D8E
:104D40000E00012322005D210500FEF7D7FE00289A
:104D500002D0002002B070BD0723217822009943C1
:104D600031432170063B5D212800FEF773FE43426C
:104D70005841C0B2EEE7C04630B583B06A460D0078
:104D8000012307325D210400FEF7B8FE00280FD191
:104D90006B460722DB795D211340EA0013436A4624
:104DA0002000D37101230732FEF754FE002802D001
:104DB000002003B030BD6A46012307325C21200089
:104DC000FEF79CFE0028F3D16B467F22DB796D094C
:104DD0001340ED011D436A466B460732DD715C21CD
:104DE00001232000FEF736FE43425841C0B2E0E7FF
:104DF00070B582B06B46DC1D0E00012322005E21DF
:104E00000500FEF77BFE002802D0002002B070BD36
:104E1000022321782200994331432170013B5E2116
:104E20002800FEF717FE43425841C0B2EEE7C046E5
:104E300070B582B06B46DC1D0E00012322005E219E
:104E40000500FEF75BFE002802D0002002B070BD16
:104E5000042321782200994331432170033B5E21D2
:104E60002800FEF7F7FD43425841C0B2EEE7C046C6
:104E700070B582B06B46DC1D0E00012322005E215E
:104E80000500FEF73BFE002802D0002002B070BDF6
:104E9000082321782200994331432170073B5E218A
:104EA0002800FEF7D7FD43425841C0B2EEE7C046A6
:104EB00070B582B06B46DC1D0E00012322005E211E
:104EC0000500FEF71BFE002802D0002002B070BDD6
:104ED0001023217822009943314321700F3B5E213A
:104EE0002800FEF7B7FD43425841C0B2EEE7C04686
:104EF00070B582B06B46DC1D0E00012322005E21DE
:104F00000500FEF7FBFD002802D0002002B070BDB6
:104F10002023217822009943314321701F3B5E21D9
:104F20002800FEF797FD43425841C0B2EEE7C04665
:104F300070B582B06B46DC1D0E00012322005E219D
:104F40000500FEF7DBFD002802D0002002B070BD96
:104F50004023217822009943314321703F3B5E2159
:104F60002800FEF777FD43425841C0B2EEE7C04645
:104F700070B582B06B46DC1D0E00012322005F215C
:104F80000500FEF7BBFD002802D0002002B070BD76
:104F9000022321782200994331432170013B5F2194
:104FA0002800FEF757FD43425841C0B2EEE7C04625
:104FB00070B582B06B46DC1D0E00012322005F211C
:104FC0000500FEF79BFD002802D0002002B070BD56
:104FD000042321782200994331432170033B5F2150
:104FE0002800FEF737FD43425841C0B2EEE7C04605
:104FF00070B582B06B46DC1D0E00012322005F21DC
:105000000500FEF77BFD002802D0002002B070BD35
:10501000082321782200994331432170073B5F2107
:105020002800FEF717FD43425841C0B2EEE7C046E4
:1050300070B582B06B46DC1D0E00012322005F219B
:105040000500FEF75BFD002802D0002002B070BD15
:105050001023217822009943314321700F3B5F21B7
:105060002800FEF7F7FC43425841C0B2EEE7C046C5
:1050700070B582B06B46DC1D0E00012322005F215B
:105080000500FEF73BFD002802D0002002B070BDF5
:105090002023217822009943314321701F3B5F2157
:1050A0002800FEF7D7FC43425841C0B2EEE7C046A5
:1050B00070B582B06B46DC1D0E00012322005F211B
:1050C0000500FEF71BFD002802D0002002B070BDD5
:1050D0004023217822009943314321703F3B5F21D7
:1050E0002800FEF7B7FC43425841C0B2EEE7C04685
:1050F00070B50A000C0001233E210500FEF7FEFCFE
:10510000002809D10123621C3F212800FEF7F6FC8C
:1051100043425841C0B270BD0020FCE770B50A00A0
:105120000C0001234B210500FEF7E8FC002809D103
:105130000123621C4C212800FEF7E0FC4342584149
:10514000C0B270BD0020FCE7F0B583B06B46DC1D3B
:105150000F000123220001210600FEF7CFFC0028EA
:105160000AD1802322785B4213432370220001235B
:1051700001213000FEF76EFC6B469D1D2A000123C5
:105180000F213000FEF7BAFC1F212B782A008B4339
:1051900039401943297001230F213000FEF75AFCD2
:1051A0000123220001213000FEF7A8FC002809D1CC
:1051B0007F22237801211340237022000123300035
:1051C000FEF748FC012003B0F0BDC04610B5FFF764
:1051D0004DF843425841C0B210BDC04610B582B030
:1051E0006B460C00D91DFEF723FF012300280BD0CE
:1051F0006B46DB79042B0ED011D9082B07D00C2B72
:1052000013D10C4B23600023180002B010BD0A4BD1
:1052100023600023F8E7094B23600023F4E7002B09
:1052200003D1074B23600023EEE7064B23600123E5
:10523000EAE7C04623DB793E23DBF93D23DBF93E79
:1052400023DB793D000080BF10B582B06B460C00B7
:10525000D91DFEF7EDFE012300280CD06B46DB794B
:10526000042B10D014D9082B08D00C2B17D1822373
:10527000DB0523600023180002B010BD8123DB058D
:1052800023600023F7E78323DB0523600023F2E795
:10529000002B04D18023DB0523600023EBE7024BC6
:1052A00023600123E7E7C046000080BF10B5FFF789
:1052B000BFFA43425841C0B210BDC04610B5FFF717
:1052C00017FF43425841C0B210BDC04610B5FFF7AA
:1052D00009FB43425841C0B210BDC04610B582B070
:1052E0006B460C00D91DFFF7EBFA0123002807D00D
:1052F0006A46D279002A06D0402A01D123700023C1
:10530000180002B010BD22700023F9E710B582B07A
:105310006B460C00D91DFFF7AFFA0123002807D018
:105320006A46D279002A06D0102A01D123700023C0
:10533000180002B010BD22700023F9E710B582B04A
:105340006B460C00D91DFFF7A9FA0123002807D0EE
:105350006A46D279002A06D0202A01D12370002380
:10536000180002B010BD22700023F9E770B50C1CC4
:1053700005002449201CFAF7ADFF0821002806D1BA
:105380002149201CFAF7A6FF1021002806D028008A
:10539000FFF724F843425841C0B270BD1B49201C9E
:1053A000FAF798FF18210028F1D11949201CFAF7C3
:1053B00091FF20210028EAD11649201CFAF78AFF24
:1053C00028210028E3D11449201CFAF783FF30215B
:1053D0000028DCD11149201CFAF77CFF3821002875
:1053E000D5D10F49201CFAF775FF40210028CED1F6
:1053F0000C49201CFAF76EFF48210028C7D108315C
:10540000C5E7C046000020410000C84100004842F6
:105410000000C842000048430000C8430000484460
:105420000000C84400404E4530B583B000236A46B2
:105430000D0053709370D370137153719371D371C6
:10544000040004220021280002F013F86A46012318
:1054500001321B212000FEF791FD002800D199E0C8
:105460006A46012302321C212000FEF787FD002836
:1054700000D18FE06A46012303321D212000FEF790
:105480007DFD002800D185E0012301AA53212000E1
:10549000FEF774FD00287DD06A46012305325E21A7
:1054A0002000FEF76BFD002874D06A460123063207
:1054B0005F212000FEF762FD00286BD06A460123C1
:1054C00007320D212000FEF759FD002862D06B46FF
:1054D00010225B791A4203D1694689790A4207D0C2
:1054E0006A465278920603D5012229780A432A7027
:1054F00020221A4203D1694689790A4207D06A46B6
:105500005278120703D5082229780A432A704022CC
:105510001A4203D1694689790A4207D06A469278CD
:10552000920603D5022229780A432A7008221A42D9
:1055300003D1694689790A4207D06A469278D20631
:1055400003D5042229780A432A7004221A4203D17F
:10555000694689790A4207D06A46D278520603D54D
:10556000402229780A432A706A46D2797F2A14D8C1
:1055700002221A4204D16B469B7900201A420AD0BB
:105580006B461B7900209B0605D520232A78134300
:105590002B7000E0012003B030BD6A461279D206BC
:1055A000E6D5102229780A432A70E1E710B50123D5
:1055B000FEF7E4FC43425841C0B210BD10B582B0C2
:1055C0006B460C00D91DFFF7EBF80123002807D02C
:1055D0006A46D279002A06D0202A01D123700023FE
:1055E000180002B010BD22700023F9E710B582B098
:1055F0006B460C00D91DFFF7C1F80123002807D026
:105600006A46D279002A06D0102A01D123700023DD
:10561000180002B010BD22700023F9E710B582B067
:105620006B460C00D91DFFF797F80123002807D01F
:105630006A46D279002A06D0082A01D123700023B5
:10564000180002B010BD22700023F9E710B582B037
:105650006B460C00D91DFFF76DF80123002807D019
:105660006A46D279002A06D0042A01D12370002389
:10567000180002B010BD22700023F9E710B582B007
:105680006B460C00D91DFFF743F80123002807D013
:105690006A46D279002A06D0022A01D1237000235B
:1056A000180002B010BD22700023F9E710B582B0D7
:1056B0006B460C00D91DFFF719F80123002807D00D
:1056C0006A46D279002A06D0012A01D1237000232C
:1056D000180002B010BD22700023F9E710B582B0A7
:1056E0006B460C00D91DFFF76DF80123002807D089
:1056F0006A46D279002A06D0402A01D123700023BD
:10570000180002B010BD22700023F9E770B50C1C20
:1057100080210500C905201CFAF7DCFD00210028C6
:1057200007D18121201CC905FAF7D4FD08210028E2
:1057300006D02800FEF75CFC43425841C0B270BD61
:105740008221201CC905FAF7C5FD0C210028F0D1E3
:105750000839EEE710B502290ED004290AD0002935
:1057600001D0012010BD0021FEF742FC4342584108
:10577000C0B2F7E70C21F7E70821F5E710B5FFF70E
:1057800019FA43425841C0B210BDC04610B5FFF7E8
:10579000EFF943425841C0B210BDC04610B5FFF703
:1057A000C7F943425841C0B210BDC04610B5FFF71B
:1057B0007FF943425841C0B210BDC04610B582B017
:1057C0006B460C00D91DFEF76DFF0123002807D0A2
:1057D0006A46D279002A06D0102A01D1237000230C
:1057E000180002B010BD22700023F9E710B582B096
:1057F0006B460C00D91DFEF767FF0123002807D078
:105800006A46D279002A06D0202A01D123700023CB
:10581000180002B010BD22700023F9E710B5FFF7A1
:10582000E9F943425841C0B210BDC04610B582B03C
:105830006B460C00D91DFEF711FF0123002807D08D
:105840006A46D279002A06D0082A01D123700023A3
:10585000180002B010BD22700023F9E710B582B025
:105860006B460C00D91DFFF773F80123002807D001
:105870006A46D279002A06D0202A01D1237000235B
:10588000180002B010BD22700023F9E710B5FFF731
:105890005BFC43425841C0B210BDC04610B5002168
:1058A000FEF75CFE43425841C0B210BD10B5022164
:1058B000FEF754FE43425841C0B210BD10B5FFF789
:1058C0002DFC43425841C0B210BDC04610B582B055
:1058D0006B460C00D91DFFF729F80123002807D0DB
:1058E0006A46D279002A06D0102A01D123700023FB
:1058F000180002B010BD22700023F9E710B5FFF7C1
:105900001BFA43425841C0B210BDC04610B582B028
:105910006B460C00D91DFEF7B3FE0123002807D00B
:105920006A46D279002A06D0202A01D123700023AA
:10593000180002B010BD22700023F9E730B583B023
:105940006B460D00D91D0400FEF77EFC002802D135
:10595000012003B030BD6B462000991DFEF7EEFB21
:105960000028F5D06B46DB79022B12D06B469B7971
:10597000042B15D007D9082B16D00C2B0DD10C4BAE
:1059800000202B60E5E7002B07D10A4B00202B609D
:10599000DFE7094B00202B60DBE7084B2B60D7E7E4
:1059A000074B00202B60D4E7064B00202B60D0E78C
:1059B0000000FA44000075430000FA42000080BF76
:1059C0000000FA4300007A4410B582B06B460C0028
:1059D000D91DFEF709FF0123002807D06A46D279B6
:1059E000002A06D0012A01D123700023180002B03A
:1059F00010BD22700023F9E700B583B013006A469A
:105A0000073213700123FEF7C1FA43425841C0B276
:105A100003B000BD10B582B06B460C00D91DFEF777
:105A20005BFB012300280ED06B46DB79502B38D06E
:105A30000CD8202B25D014D9302B36D0402B28D190
:105A4000204B23600023180002B010BD802B30D003
:105A50000FD9902B19D0A02B1BD11B4B23600023F7
:105A6000F1E7002B19D0102B13D1184B2360002322
:105A7000E9E7602B21D0702B0BD1154B236000235D
:105A8000E1E7144B23600023DDE7134B2360002381
:105A9000D9E7124B23600123D5E7002323600023BD
:105AA000D1E70F4B23600023CDE70E4B236000238B
:105AB000C9E70D4B23600023C5E70C4B236000238F
:105AC000C1E7C0460000D0420020D0450000504150
:105AD000004050440000D04100205045000080BFED
