:020000040800F2
:1000000000800120A50800085108000855080008D4
:10001000F5080008F5080008F508000800000000D1
:10002000000000000000000000000000F5080008CB
:100030005908000800000000F50800085D080008E5
:10004000F5080008F5080008F5080008F50800089C
:10005000F5080008F5080008F5080008F50800088C
:10006000F5080008F5080008F5080008F50800087C
:10007000F5080008F5080008F5080008F50800086C
:10008000F5080008F5080008F50800080000000061
:1000900000000000000000000000000061080008EF
:1000A000F5080008F5080008F5080008F50800083C
:1000B000F5080008F5080008F5080008F50800082C
:1000C000F5080008F5080008F5080008F50800081C
:1000D000F5080008F5080008F50800080000000011
:1000E00069080008F5080008F5080008000000008D
:1000F000000000000000000000000000F5080008FB
:1001000000000000F5080008F5080008F5080008E0
:1001100000000000000000000000000000000000DF
:10012000F5080008F5080008F5080008F5080008BB
:10013000F5080008000000000000000000000000BA
:10014000000000000000000000000000F5080008AA
:10015000F5080008F5080008F5080008F50800088B
:10016000F5080008F5080008000000000000000085
:10017000000000000000000000000000000000007F
:1001800000000000F508000800000000000000006A
:10019000F50800080000000000000000000000005A
:1001A000044B05481B1A062B02D9044B03B1184710
:1001B000704700BF2B020020280200200000000032
:1001C00005490648091A891001EBD171491002D07E
:1001D000034B03B118477047280200202802002073
:1001E0000000000010B5064C237843B9FFF7D8FF94
:1001F000044B13B10448AFF300800123237010BDFA
:100200002802002000000000DC65000808B5084B4B
:100210001BB108490848AFF300800848036813B9C8
:10022000BDE80840CCE7064B002BF9D09847F7E72C
:10023000000000002C020020DC65000828020020DD
:1002400000000000034613F8012B002AFBD1181A06
:1002500001387047000000000000000000000000AE
:1002600001F0FF01102A2BDB10F0070F08D010F867
:10027000013B013A8B422DD010F0070F42B3F6D16B
:10028000F0B441EA012141EA014122F007047FF084
:1002900000070023F0E80256083C85EA010586EADB
:1002A000010685FA47F5A3FA87F586FA47F6A5FA17
:1002B00087F68EB9EED1F0BC01F0FF0102F0070223
:1002C00032B110F8013B013A83EA010313B1F8D1CE
:1002D0000020704701387047002D06BF35460338AF
:1002E000073815F0010F07D1013015F4807F02BFE8
:1002F000013015F4C03F0130F0BC0138704700BF39
:10030000F0B589B0254B2648264C002500951A6B80
:1003100042F001021A631A6B02F001020092009A85
:1003200001951A6B42F001021A631A6B02F0010286
:100330000192019A02951A6C42F400321A641B6C05
:10034000059503F400330422029303A90223072630
:10035000039204930693029F079600F08FFB0823F5
:1003600003A90F480393079600F088FB0E49A56088
:100370004FF4E1320C232046E5602561A56184E855
:100380000600636101F0C4FD00B1FEE7074AE063C7
:100390004FF48073A262A38509B0F0BD003802401B
:1003A00000000240D4030020004400401404002058
:1003B000F0B595B000241D4B0194196C1C4A41F016
:1003C000805119641B6C03F080530193019B0294CC
:1003D000136823F4404343F40043136013680F94FD
:1003E00003F440430225029304211023072201272E
:1003F0004FF4A87608A8DDF808E00C93109312914A
:10040000139208950E950B97119601F02BF90F2278
:100410004FF48053294603A804950594079403924A
:10042000069301F01FFB15B0F0BD00BF003802407D
:100430000070004008B50F4A03464FF480710E4823
:1004400005F0B0FC0C48FFF7FDFE41F2883382B2A4
:1004500009490A4801F08CFD002002F04FF96420A0
:1004600000F08AFA002002F053F9642000F084FAC8
:10047000F2E700BF2C66000844020020D4030020ED
:100480002DE9F04F8BB04FF000088DF81D80ADF8CE
:100490001E80C84C00F048FAFFF78AFF404602F081
:1004A00005F94046012102F03DF9FFF729FF4046DA
:1004B00004F5807101F0C4FF012855D0D4F8000183
:1004C00002F03CF801284FD04146D4F8000102F078
:1004D00045F8012848D00821D4F8000102F096F828
:1004E000012841D09FEDB40AD4F8000102F046F88B
:1004F000012839D02021D4F8000102F0B3F80128F6
:1005000032D05B21D4F8000102F0B8F801282BD0DA
:100510008021D4F8000102F0BDF8012824D0A74FB3
:10052000A74D0FCF26460FC60FCF0FC60FCF0FC652
:100530003B683360A34841F288333322214601F0FF
:1005400017FDC346A2462B78042B0DD801A252F802
:1005500023F000BF470500087307000831070008B3
:10056000D90500086F0500089748FFF763FFD4F826
:100570000001002102F06AF80128F5D0934E8D4C5D
:10058000934F0FCE0FC40FCE0FC42146336841F8EE
:100590002039232241F288338A4801F0E9FC0FCF49
:1005A000203C26460FC60FCF0FC697E8070003C6AC
:1005B00026F8022B170C4FF0000B214641F288332E
:1005C0002A228048377001F0D3FC8AF804B1ADF8D4
:1005D0001EB085F800B0B6E70DF11D01D4F800019A
:1005E00001F0D8FF0128BFD09DF81D30012BAAD102
:1005F000002002F083F80AA94FF0000821F8088DC6
:10060000DAF8000101F0EEFF0128ADD0BDF820308E
:10061000704A6848704F4FF480710326B3FBF6F6BA
:100620003346ADF8206005F0BDFB6248614EFFF730
:1006300009FE41F2883382B25E49624801F098FCBB
:100640000FCF0FC60FCF0FC697E8070003C631467E
:1006500041F2883321F828295A48292201F088FCE0
:10066000BDF82030002B5FD0C146CDF814B0A046B5
:100670000AAE002446F8044DADF82240A346049487
:1006800003270DF12201D8F8000101F097FF01289E
:100690003FF46AAF3146DAF8000101F0C3FF0128E8
:1006A0003FF462AFBDF82230012B00F0A580C0F00E
:1006B000A080022B7FF458AF099C013FE1D1B9F132
:1006C000090F09F1010915DC049B444A00934FF41A
:1006D00080714B460294CDF804B0364805F062FBB9
:1006E0003448FFF7AFFD41F2883382B231493548D3
:1006F00001F03EFCBDF820309945B9DB0A2BDDF84E
:1007000014B0444610D90A23354A2A484FF4807160
:1007100005F048FB2748FFF795FD41F2883382B288
:100720002449284801F024FC002001F0F1FF3EE0BC
:100730000DF11E01D4F8000101F054FF012853D03F
:10074000BDF81E60B34509D02E2741F2883301223F
:1007500018491C48AAF8007001F00AFC94F804310A
:10076000002B44D0032200232A70B3468AF80431B8
:10077000E9E61C4F0F4C0FCF26460FC60FCF0FC612
:100780000FCF0FC63B683360214641F288333322D6
:100790000C4801F0EDFB4FF47A7000F0EDF8062103
:1007A000DAF8000101F052FF01283FF4DDAE022328
:1007B0002B70C8E6440200200040CE458467000844
:1007C00000000020D4030020F4650008346700080E
:1007D000586700087C660008C4660008F0660008D8
:1007E00010670008486600080BB0BDE8F08FB346FC
:1007F000A9E6099B049360E7DDF824B05DE700BF3C
:10080000B0F5005F08B506D0202818D10D4B0122A5
:1008100083F8042108BD002001F0C4FF40B90A4A52
:100820001378042B0BD8DFE803F00703040303005D
:1008300008BD0423137008BD0123137008BD0348CD
:10084000FFF7F8FD4402002000000020FC650008CE
:10085000704700BFFEE700BF704700BF00F07EB8E2
:10086000202000F0FBB900BF4FF4005000F0F6B9B3
:100870000A4A08B5136873B118446946884202D819
:100880001060184608BD05F061FA0C2303604FF0B4
:10089000FF33184608BD024B1360EDE74C03002000
:1008A00020060020DFF834D0002103E00C4B5B5819
:1008B000435004310B480C4B42189A42F6D30B4A72
:1008C00002E0002342F8043B094B9A42F9D301F0BD
:1008D000DFFB05F041FAFFF7D3FD704700800120F0
:1008E000F8670008000000202802002028020020ED
:1008F00020060020FEE70000704700BF084B094AB1
:100900001B6810B5A2FB03230446980900F09CF86D
:10091000214600224FF0FF3000F052F8002010BDB9
:1009200004000020D34D621008B50B4B1A6842F446
:1009300000721A601A6842F480621A601A6842F4FF
:1009400080721A60032000F029F80F20FFF7D6FF0D
:10095000FFF7D2FF002008BD003C0240024A1368A6
:1009600001331360704700BF14060020014B186864
:10097000704700BF1406002030B583B00190FFF728
:10098000F5FF019C631C054618BF0134FFF7EEFF1D
:10099000401BA042FAD303B030BD00BF074AD16864
:1009A0004FF6FF030B40000243F0BF6300F4E0602A
:1009B00043F400330343D360704700BF00ED00E011
:1009C000194BDB68C3F3022330B4C3F10705042DD0
:1009D00003F1040428BF0425062C18D9033B012485
:1009E0009C40013C22400124AC40013C214001FAE2
:1009F00003F3002842EA03020CDB00F1604000F53B
:100A000061401201D2B280F8002330BC704700224E
:100A10001346E8E7054B00F00F0012010344D2B281
:100A20001A7630BC704700BF00ED00E0FCEC00E03F
:100A300000F01F0101234009024A8B4042F8203098
:100A4000704700BF00E100E00138B0F1807F0ED2B6
:100A5000084B10B4084C5860F02084F823000022A2
:100A6000072110469A6019605DF8044B7047012019
:100A7000704700BF10E000E000ED00E02DE9F04F0E
:100A8000D1F800C0DFF8B881DFF8B8E183B0002505
:100A90004FF0010903E00135102D00F0838009FAC1
:100AA00005F232EA0C03F6D14C6824F01006022E4F
:100AB0007BD04FEA450A0323076803FA0AF3DB43B6
:100AC00004F0030B1F400BFA0AFB013E4BEA070739
:100AD000012E076040F28C80C7688E683B4006FAA2
:100AE0000AF63343C360E300D5D500230193D8F859
:100AF000443043F48043C8F84430D8F8443025F0FB
:100B0000030606F1804603F4804306F59C36019304
:100B100005F00303019FD6F808A09B000F279F4014
:100B20002AEA070B424FB84272D007F58067B842F5
:100B300070D0404FB84270D03F4FB84272D03F4F54
:100B4000B8420CBF4FF0040A4FF0070A0AFA03F349
:100B500043EA0B03B360DEF80030D643E7034CBF33
:100B600013433340CEF80030DEF80430A7034CBF07
:100B700013433340CEF80430DEF80830E7024CBFB0
:100B800013433340CEF80830DEF80C30A40205F1F0
:100B9000010554BF06EA03021A43102DCEF80C20BB
:100BA0007FF47DAF03B0BDE8F08F4FEAD50A00EBCC
:100BB0008A0A05F00703DAF820700E699B004FF0EF
:100BC0000F0B0BFA03FB27EA0B0706FA03F33B4371
:100BD000CAF820304FEA450A0323066803FA0AF3ED
:100BE000DB4304F003071E4007FA0AF73E430660A2
:100BF0008668CF681E4007FA0AF737438760466861
:100C0000C4F3001726EA0206AF403E43466063E79E
:100C100000239DE709FA03F39AE74FF0020A0AFA64
:100C200003F395E74FF0030A0AFA03F390E700BFD6
:100C30000000024000080240000C02400010024088
:100C400000380240003C01400369194214BF0120F2
:100C50000020704702B9090481617047044A516954
:100C6000014200D1704708B55061FFF7C9FD08BDCA
:100C7000003C0140F8B504460D4616462368586905
:100C8000C04310F0020026D05A69510511D51A68E8
:100C900000216FF4806742F40072042620251A6058
:100CA00001205F61266484F83C10216384F83D5084
:100CB000F8BD6A1CE3D045B900232022236384F8E1
:100CC0003C3084F83D200320F8BDFFF74FFE801B29
:100CD0008542D3D2F0E7F8BD2DE9F0410546006822
:100CE00082B00668089C884646F480711F46164606
:100CF0000160621C41D14369DB07FCD508F0FE01AD
:100D00000161631C14D043699B0714D443695A05DD
:100D10003FD4002C00F09380FFF728FE099BC01AF7
:100D20008442C0F08C802868EBE743695A0530D4D0
:100D300043699907F9D500230193436901938369B6
:100D40000193019B621C5CD143691B0648D4436933
:100D50005905F9D500236FF48064042120224461F1
:100D6000296485F83C302B6385F83D202B6C042BDF
:100D70002FD0032002B0BDE8F0814369D907BDD46C
:100D8000E4B1FFF7F3FD099BC01A844216D328682B
:100D9000AFE7036800226FF4806643F40073042415
:100DA0002021036046612C6485F83C202A6385F885
:100DB0003D102B6C042BDCD10120DBE7002320222B
:100DC0002B6385F83C3085F83D20032085F83E30C4
:100DD000D0E72A68136843F4007313600120C9E761
:100DE000012F0AD0330A0361671C19D14369190620
:100DF00003D443695A05ADD4F8E7F6B20661002082
:100E0000B8E743691A06EBD443695905A2D4F4B193
:100E1000FFF7ACFD099BC01A844218D3286891E7FC
:100E200043691B06E9D443695B0593D47CB1FFF7A2
:100E30009DFD099BC01A844209D32868D4E700238A
:100E400020222B6385F83C3085F83D20B1E72B6CE0
:100E5000002243F0200320212B6485F83C202A63E4
:100E600085F83D1082E700BF2DE9F0430446006895
:100E70008946016841F48061016083B001680A9E7F
:100E80000B9D41F48071174698460160711C42D158
:100E90004369DA07FCD55FFA89F909F0FE030361BB
:100EA000721C13D043699A0713D4436959053DD482
:100EB000002E00F0A880FFF759FD401B8642C0F0CD
:100EC000A2802068ECE7436959052FD443699B074A
:100ED000F9D5002301934369019383690193019B31
:100EE000711C63D143691A0647D443695B05F9D580
:100EF00000236FF48065042120224561216484F879
:100F00003C30236384F83D20236C042B2ED0032037
:100F100003B0BDE8F0834369DB07BCD4DEB1FFF763
:100F200025FD401B864216D32068AFE703680022E8
:100F30006FF4806643F4007304252021036046614A
:100F4000256484F83C20226384F83D10236C042B34
:100F5000DDD10120DCE700232022236384F83C302C
:100F600084F83D20032084F83E30D1E722681368DE
:100F700043F4007313600120CAE7B8F1010F0AD0EF
:100F80003B0A0361731C2FD14369190603D44369DB
:100F90005A05ADD4F8E7FFB20761711C15D143695A
:100FA0001A0638D443695B05A2D4F8E743691906E9
:100FB000E3D443695B059BD4002E4CD0FFF7D6FCED
:100FC000401B864247D320688AE743691F0622D424
:100FD00043695F058CD4002E3DD0FFF7C7FC401B52
:100FE000864238D32068D8E743691B06D3D44369C7
:100FF0005A053FF57DAF76B3FFF7B8FC401B86423C
:1010000029D32068BEE700232022236384F83C30E4
:1010100084F83D209AE7036843F480730360711CF1
:101020000DD14369DA07FCD549F0010303612A4673
:1010300031462046FFF71EFE002887D168E7436946
:10104000DB07F1D4002E86D0FFF790FC401B8642D0
:1010500081D32068E3E7236C002243F020032021A2
:10106000236484F83C20226384F83D104CE700BFE1
:10107000704700BF00286CD0F8B590F83D300446AA
:1010800003F0FF02002B4FD02268334D242384F855
:101090003D30136823F00103136000F099FD2F4ADF
:1010A00061682368A2FB0062920CA9425A6026D8AC
:1010B0004900B0FBF1F0C0F30B01013203291A62C1
:1010C00098BF0420256AD4F81CE02769E1686669A6
:1010D000A269D86139434EEA05003243186099602D
:1010E000DA601968002241F00101202519601046DC
:1010F000226484F83D50226384F83E20F8BD4FF40A
:101100009675174FA66805FB02F2A7FB02529209DB
:1011100001321A626EB901EB4101B0FBF1F0C0F38C
:101120000B029AB90120CDE780F83C20FFF7A0FF21
:10113000AAE701EB810101EB8101B0FBF1F0C0F303
:101140000B02002AEED040F44040BBE740F40040E0
:10115000B8E70120704700BFA086010083DE1B4373
:10116000D34D6210704700BFB0B10268242310B5A0
:1011700080F83D30136823F0010304461360FFF745
:10118000F1FF0023236484F83C3084F83D30184696
:10119000236384F83E3010BD012070472DE9F047ED
:1011A000044682B098460E461746BDF82C90FFF7CD
:1011B000DDFB94F83D30202B04D00226304602B0EF
:1011C000BDE8F087054605E0FFF7D0FB401B192876
:1011D00000F28B8022689369DB4313F0020AF3D09C
:1011E00094F83C30012BE8D013680121D80784F82B
:1011F0003C1002D413680B43136013685B4923F45B
:10120000006313604FF0000A2122402384F83D2040
:1012100084F83E30C4F840A0A4F82A90E162608DC2
:101220000A9B636231460C9E0096019543462085D9
:101230003A462046FFF750FD0646002870D1236845
:10124000228D002A29D00C9A013259D15A691206EE
:101250002DD45A695705F9D500226FF48065042012
:1012600020215D61206484F83C20226384F83D10D5
:10127000236C042B74D00326A0E75A69520756D476
:101280005A695705E8D40C9B002B5DD0FFF76EFB25
:101290000C9B401B834257D323680C9A0132ECD13C
:1012A0005A69500743D45A695105D5D4F8E7606AA2
:1012B000278D421C626202781A61618D013989B200
:1012C000618559697A1E92B249072285B9D5002AEB
:1012D000E3D0821C626242781A61618DBA1E0139C4
:1012E00092B289B222856185ABE72023C4F830A091
:1012F00084F83CA084F83D30022684F83EA05DE7E7
:101300005A691006D3D45A695105A5D40C9BDBB198
:10131000FFF72CFB0C9B401B834215D3236892E7FD
:10132000236C84F83CA0042BA5D1012646E71A685B
:101330000021202042F400721A6084F83D0084F8F5
:101340003C1084F83E1039E7236C002243F0200360
:101350002021236484F83C20226384F83D1087E731
:101360002268136843F400731360DEE70000FFFF98
:101370002DE9F04F044687B099460F469046BDF8D8
:1013800044A0129EFFF7F2FA94F83D30202B04D0CF
:101390000227384607B0BDE8F08F054604E0FFF7A6
:1013A000E5FA401B19283AD822689369DB4313F009
:1013B000020BF4D094F83C30012BE9D013680121E2
:1013C000DB0784F83C1002D413680B4313601368E6
:1013D000994923F4006313604FF0000B222240234D
:1013E00084F83D2084F83E30C4F840B0A4F82AA028
:1013F000E162608D109B63623946019500964B4611
:10140000208542462046FFF72FFD074690B1236C0A
:1014100084F83CB0042B00F0E0800327B9E72023D8
:10142000C4F830B084F83CB084F83D30022784F82A
:101430003EB0AEE7228D236892B902905A690292BB
:101440009A690292029A1A6842F400721A600023A2
:10145000202284F83D2084F83C3084F83E3098E720
:10146000012A00F0DA80022A00F0E880059059692C
:101470000591996905910599032A76D8012A00F00A
:10148000AE80022A46D0701C50D15A695107FCD553
:101490001A68616A22F480621A601B694A1C6262DF
:1014A0000B70638D228D013B9BB2013A63852285CF
:1014B000701C226845D153695907FCD51368616ACD
:1014C00043F40073136013694A1C62620B70638DEE
:1014D000218D606A2268013B9BB2638512694B1EB5
:1014E000411C238561620270228D638D013A013BAC
:1014F00092B29BB222856385002AA8D02368BBE7FD
:101500005A6952070BD42EB3FFF730FA401B8642BC
:1015100020D32368701CF3D15A695107FCD51A688F
:10152000616A42F400721A601B69CDE75A6952077A
:10153000AED47EB1FFF71AFA401B86420AD3236865
:10154000A1E753695B07B9D426B1FFF70FFA401B37
:101550008642ADD200232022236384F83C3084F8F5
:101560003D20032784F83E3013E74EB922E05A6944
:10157000D20642D4FFF7FAF9401B864220D32368F3
:101580005A695106F3D5626A1B69511C6162137076
:10159000618D2368228D013989B261855969013ACB
:1015A00092B249072285A7D5626A1B69511C616204
:1015B000137099E75A695006E5D45A69D0061CD4CD
:1015C000236C202213430021236484F83C1084F808
:1015D0003D20236C202B3FF420AF0127D9E636B9FC
:1015E00017E0FFF7C3F9401B8642E9D323685A6925
:1015F0005006D9D45A69D106F3D500226FF01000F5
:1016000020215861226484F83C20226384F83D1034
:10161000DFE75A695206D0D5C6E7196821F4806120
:1016200019600390596903919969039103991968A5
:1016300041F4007119601FE70000FFFF196821F4F1
:1016400080611960196841F400611960049059695A
:1016500004919969049104990EE700BF90F83D0048
:10166000704700BFF0B50368DD0783B004462FD58F
:10167000A5498A6802F00C02042A00F0F6808A6804
:1016800002F00C02082A00F0EC806368B3F5803F9A
:1016900000F02F81B3F5A02F00F003819A4D2A6846
:1016A00022F480322A602A6822F480222A60002BE9
:1016B00040F00081FFF75AF9064605E0FFF756F9BA
:1016C000801B642800F2AC802B689B03F6D423684F
:1016D0009F072FD58C4A916811F00C0F00F0A7805E
:1016E000916801F00C01082900F09D80E368002B4F
:1016F00000F0EE80854B844D01221A60FFF736F929
:10170000064605E0FFF732F9801B022800F28880C8
:101710002B687D4A9807F5D51168F82393FAA3F34F
:101720002069B3FA83F321F0F80100FA03F30B43C5
:10173000136023681A0720D4590734D4A269CAB1A8
:10174000714B996801F00C01082977D0022A704A80
:101750004FF00001116000F0D2801C46FFF706F93F
:10176000054604E0FFF702F9401B022858D8236819
:101770009B01F7D4002003B0F0BD6369002B60D05B
:10178000644B614D01221A60FFF7F0F8064604E051
:10179000FFF7ECF8801B022842D86B6F9F07F7D544
:1017A00023685907CAD5584B5B4D002201921A6C29
:1017B00042F080521A641B6C03F080530193019B2A
:1017C0002B6843F480732B60FFF7D0F8064604E0E3
:1017D000FFF7CCF8801B022822D82B68DA05F7D552
:1017E000A368012B00F0F680052B00F0DA80464D4F
:1017F0002A6F22F001022A672A6F22F004022A6768
:10180000002B40F0D780FFF7B1F841F28836074649
:101810002B6F980792D5FFF7A9F8C01BB042F7D9F4
:10182000032003B0F0BD526856023FF55FAF364A61
:101830001268950723D5E268012A20D0012003B061
:10184000F0BD344A304D1360FFF790F8064604E0CF
:10185000FFF78CF8801B0228E2D86B6F9807F7D44B
:101860009EE74A6850027FF510AF274A126891033D
:101870007FF52EAF6268002A7FF42AAFDEE7224DA3
:10188000F822296892FAA2F22069B2FA82F221F0D3
:10189000F80100FA02F20A432A601A077FF54CAFFA
:1018A0006BE7194B1A6842F480221A601A6842F4F6
:1018B00080321A60FFF75AF8134D064604E0FFF72E
:1018C00055F8801B6428ABD82B689A03F7D5FEE641
:1018D0000E4A0D4D1360FFF749F8064604E0FFF786
:1018E00045F8801B02289BD82B689907F7D42368FA
:1018F00020E7054A136843F480331360DAE71D4696
:10190000FFF734F806460FE0003802400000474277
:1019100060004742800E474200700040FFF726F803
:10192000801B02283FF67CAF2B682D4A9901F5D425
:1019300047F6C07696FAA6F64FF44033B6FA86F725
:1019400093FAA3F34FF07065B3FA83F395FAA5F514
:10195000A16A666AD4F81CC0D4F820E0E06A49089D
:10196000BE4001394CEA0E07B5FA85F401FA03F3DB
:1019700047EA060500FA04F12B431A480B430121FC
:10198000536001601446FEF7F1FF054605E0FEF7DF
:10199000EDFF401B02283FF643AF23689A01F6D5BE
:1019A000E8E60F4B1A6F42F004021A671A6F42F012
:1019B00001021A67FEF7DAFF094D074641F2883641
:1019C0002B6F9B073FF5BAAEFEF7D0FFC01BB042AE
:1019D000F6D925E7024A136F43F001031367E9E7DD
:1019E00000380240600047421B4A936803F00C0332
:1019F000042B2ED0082B2AD15368516803F03F03E3
:101A000011F4800F47F6C070516890FAA0F047F6C5
:101A1000C07202EA0102B0FA80F022FA00F014BFAC
:101A20000E4A0F4AB2FBF3F30B4A03FB00F3526872
:101A30004FF4403090FAA0F002F44032B0FA80F057
:101A400022FA00F001304000B3FBF0F07047044888
:101A500070470248704700BF0038024000127A0009
:101A60000024F400564A136803F00F038B422DE95B
:101A7000F04109D2CBB21370136803F00F039942FF
:101A800002D00120BDE8F08103689A0706D54D4DCC
:101A90008268AC6824F0F0042243AA60DF0706469F
:101AA0000C4626D54368012B00F084809A1E012A3B
:101AB000444A126878D99107E3D5424DAA6822F0CA
:101AC00003021343AB60FEF751FF7368012B074617
:101AD00041F288384CD0022B55D0032B05D15DE064
:101AE000FEF744FFC01B404561D8AB6813F00C0FF4
:101AF000F6D1334A136803F00F039C4206D2E3B2D7
:101B00001370136803F00F039C42BAD133685A076D
:101B100006D52C48F268816821F4E0510A438260BE
:101B20001B0707D5274A3169936823F4604343EACA
:101B3000C1039360FFF758FF224B0146F0229B68D8
:101B400092FAA2F2B2FA82F203F0F003D3401E48F6
:101B50001E4AC35C0F2021FA03F31360FEF7CEFE8A
:101B60000020BDE8F081FEF701FFC01B40451ED8F4
:101B7000AB6803F00C03042BF5D1BAE7FEF7F6FED1
:101B8000C01B404513D8AB6803F00C03082BF5D1FC
:101B9000AFE7FEF7EBFEC01B404508D8AB6803F08B
:101BA0000C030C2BF5D1A4E7900186D469E7032040
:101BB000BDE8F081034A126895033FF57EAF60E708
:101BC000003C024000380240146600080400002077
:101BD000084B4FF4E0529B6892FAA2F2B2FA82F2FA
:101BE00003F4E053D3400449044ACB5C1068D84066
:101BF000704700BF0038024024660008040000203F
:101C0000084B4FF460429B6892FAA2F2B2FA82F259
:101C100003F46043D3400449044ACB5C1068D840C5
:101C2000704700BF0038024024660008040000200E
:101C30002DE9F047066837690546C068EC69D5F8B4
:101C400008E02A69696927F4405738433061F3682E
:101C5000A8694EEA020223F416430A4323F00C0358
:101C600022431343F360736923F440730343B4F5D1
:101C7000004F7361A34B5DD09E4200F0F68003F5E8
:101C800080639E4200F0F180FFF7A2FF6F68DFF8EB
:101C9000788200EB800000EB8000BF00B0FBF7F71C
:101CA000FFF796FF6C6800EB800000EB8000A4005B
:101CB000B0FBF4F4FFF78CFFA8FB07376B6800EB71
:101CC00080009B0000EB8000B0FBF3F0A8FB00302D
:101CD00040094FF0640A0AFB1044FFF779FF696876
:101CE00000EB80008A0000EB8000B0FBF2F9FFF708
:101CF0006FFF24016A68323400EB80009200A8FB79
:101D0000043400EB8000B0FBF2F0A8FB00307F0948
:101D1000640940093F0104F0F0040AFB109212012B
:101D20003232A8FB0223C3F343131C442744B76099
:101D3000BDE8F0879E4259D003F580639E4255D09E
:101D4000FFF746FF6F68DFF8C08100EB800000EB13
:101D500080007F00B0FBF7F7FFF73AFF6C6800EBFD
:101D6000800000EB80006400B0FBF4F4FFF730FF6C
:101D70006A6800EB8000A8FB073700EB8000530087
:101D8000B0FBF3F3A8FB03235B094FF0640A0AFBE3
:101D90001344E400FFF71CFF3234A8FB04346B68E3
:101DA0007F09240900EB800000EB80005A003F010E
:101DB00004F4F874B0FBF2F9FFF70AFF696800EB6E
:101DC000800000EB80004900B0FBF1F1A8FB01317D
:101DD00049090AFB1192D2003232A8FB0223C3F355
:101DE00042133B441C44B460BDE8F087FFF708FF92
:101DF0006F68DFF8148100EB800000EB80007F004B
:101E0000B0FBF7F7FFF7FCFE6C6800EB800000EB1F
:101E100080006400B0FBF4F4FFF7F2FE6A6800EBA8
:101E20008000A8FB073700EB80005300B0FBF3F302
:101E3000A8FB03235B094FF0640A0AFB1344E40088
:101E4000FFF7DEFE3234A8FB04346B687F092409F7
:101E500000EB80005A003F0104F4F87400EB8000AE
:101E6000B0FBF2F9FFF7CCFEA8E7FFF7C9FE6F68F9
:101E7000DFF8948000EB800000EB8000BF00B0FB37
:101E8000F7F7FFF7BDFE6C6800EB800000EB800009
:101E9000A400B0FBF4F4FFF7B3FE6A6800EB800027
:101EA000A8FB073700EB80009300B0FBF3F3A8FB1F
:101EB00003235B094FF0640A0AFB13442401FFF774
:101EC0009FFE3234A8FB04346B6800EB80009A005C
:101ED00000EB8000B0FBF2F9FFF792FE696800EBBF
:101EE000800000EB80008900B0FBF1F1A8FB01311C
:101EF0007F09640949093F0104F0F0040AFB1192CB
:101F00000DE700BF001001401F85EB51704700BF77
:101F100060B338B590F83930044603F0FF0203B3DC
:101F20002268242384F83930D36823F40053D36023
:101F30002046FFF77DFE23681A6922F490421A6159
:101F40005A6922F02A025A61DA680025202142F4F7
:101F50000052DA602846E56384F8391084F83A10B4
:101F600038BD80F83820FFF7D1FFD9E7012070474E
:101F7000F0B50E4690F83910202983B002D0022027
:101F800003B0F0BD002E2ED0002A2CD01F4690F8B2
:101F90003830012B0446F2D0002001212123E063D8
:101FA00084F8381084F839300192FEF7DFFC019A8A
:101FB000A28405462068E284E38C9BB2002B3BD0D0
:101FC000E28CA368013A92B2B3F5805FE28418D044
:101FD0007A1C3FD1026802F08002002AFAD03378DE
:101FE00043600136E8E70120CAE7036803F0800395
:101FF00073B9002F3AD0FEF7B9FC401B8742206826
:1020000034D3791CF1D1026802F08002002AFAD0A0
:1020100033882269C3F308034360002AE1D1023602
:10202000CAE7036803F040036BB9FFB1FEF79EFCFB
:10203000401B8742206819D37B1CF2D1036803F050
:102040004003002BFAD02023002084F8393084F894
:10205000380095E7036803F08003002BBFD12FB150
:10206000FEF784FC401B87422068B1D2C36823F48A
:10207000D073C3604369202223F001030021436130
:1020800084F83920032084F8381084F83A2077E760
:102090001049114BD1F8882042F4700210B4C1F8F5
:1020A00088201A680D4C002042F001021A609860E6
:1020B0001A6822F0847222F480321A605C601A6816
:1020C0004FF0006422F480221A60D8608C605DF8C2
:1020D000044B704700ED00E000380240103000244F
:1020E000F0B52C4D89B02846FFF7B8FA38B1294829
:1020F000FFF7B4FA203818BF012009B0F0BD264E12
:102100000190264B2B60336B254A044643F00203B3
:10211000AC603363336B6A6003F0020301933322D4
:102120004FF480434FF44071EA602B610222042394
:1021300003911C48DDF804E0069203A912270793D7
:1021400005940497FEF79AFC0294336C43F4001351
:102150003364336C03F400130293029B336A43F439
:1021600000133362336A23F400133362224621469C
:102170001F20FEF725FC1F20FEF75AFC22462146B1
:102180002020FEF71DFC2020FEF752FC2846FEF71B
:1021900071FFACE7540300200038024000540040B7
:1021A000801A060000040240F0B52C4D89B0284684
:1021B000FFF754FA38B12948FFF750FA203818BF12
:1021C000012009B0F0BD264E0190264B2B60336BE9
:1021D000254A044643F00203AC603363336B6A6004
:1021E00003F00203019333224FF480434FF4407114
:1021F000EA602B610222042303911C48DDF804E00D
:10220000069203A91227079305940497FEF736FC5C
:102210000294336C43F400133364336C03F40013FF
:102220000293029B336A43F400133362336A23F44C
:1022300000133362224621461F20FEF7C1FB1F20F8
:10224000FEF7F6FB224621462020FEF7B9FB2020B0
:10225000FEF7EEFB2846FEF70DFFACE75403002027
:102260000038024000540040801A0600000402407A
:102270002DE9F0418CB00024204D00942B6B204EB2
:10228000204F43F002032B632B6B049403F00203F3
:102290004FF0020800933046202302A90293009ACF
:1022A0000397CDF81480FEF7E9FB2246214617205C
:1022B000FEF786FB1720FEF7BBFB01942B6B43EA6E
:1022C00008032B632B6B089703EA0803019330463E
:1022D000102307A90793019ACDF828800994FEF7E7
:1022E000CDFB224621460A20FEF76AFB0A20FEF7B4
:1022F0009FFB20460CB0BDE8F08100BF00380240D3
:1023000000040240000011102DE9F0470F4601784B
:10231000402984B0054690461E463BD038D9B129A5
:1023200022D18BB300244FF4805A4FF0010901E011
:10233000B44229D008EB04033A19A978184800934D
:10234000CDF808A0CDF80490D2B20123FEF726FF05
:1023500001340028ECD01248FEF706FFFFF7C0FE5C
:10236000012004B0BDE8F087BC2913D04FF480539E
:10237000A9780B4802930196CDF800803A460123D4
:10238000FEF70CFF0028E6D1002004B0BDE8F0877E
:102390003329EBD1012E88BF47F08007E6E700BF65
:1023A000540300202DE9F0470F460178402984B0FE
:1023B000054690461E463BD038D9B12922D18BB371
:1023C00000244FF4805A4FF0010901E0B44229D0B3
:1023D00008EB04033A19A97818480093CDF808A02F
:1023E000CDF80490D2B20123FEF7C2FF01340028D9
:1023F000ECD01248FEF7B8FEFFF772FE012004B0E1
:10240000BDE8F087BC2913D04FF48053A9780B485E
:1024100002930196CDF800803A460123FEF7A8FF0B
:102420000028E6D1002004B0BDE8F0873329EBD1C5
:10243000012E88BF47F08007E6E700BF5403002065
:10244000F8B50026394C0E600F466379002833D06A
:10245000012B2FD0FFF7A8FE01282BD02346344AAA
:1024600043F81C2F4FF06A0E6361D625314B324A78
:102470006670012004F1140126716671A67184F85A
:1024800000E0A570E071E2602361A661A1603C609C
:10249000E3681B683BB12046984701283DD0FFF711
:1024A000E7FE0020F8BD002323606360A360E360C3
:1024B00023613B600120F8BD012BFBD00546FFF7EF
:1024C00073FE0128F6D02346194A43F81C2F4FF01B
:1024D0006A0E6361D626174B174A6570012004F116
:1024E000140125716571A57184F800E0A670E07192
:1024F000E2602361A561A1603C60E3681B68002B7A
:10250000D1D0204698470128C9D13B681D605D6045
:102510009D60DD601D613D60CCE73B681E605E60D4
:102520009E60DE601E613E60C4E700BFA80300201D
:1025300018060020B40000201400002060B108B587
:10254000C3689B6833B19847A0F10100B0FA80F0EE
:10255000400908BD012008BD0120704760B108B5E1
:10256000C3689B6A33B19847A0F10100B0FA80F0CC
:10257000400908BD012008BD0120704720B1026953
:1025800012B103786A2B01D0012070471368002B29
:10259000FAD0184780B1026972B110B411B1037852
:1025A0006A2B03D001205DF8044B70475368002B61
:1025B000F8D05DF8044B18470120704780B10269DC
:1025C00072B110B411B103786A2B03D001205DF809
:1025D000044B70471369002BF8D05DF8044B184783
:1025E0000120704780B1026972B110B411B1037853
:1025F0006A2B03D001205DF8044B70479369002BD0
:10260000F8D05DF8044B18470120704720B10269EB
:1026100012B103786A2B01D001207047D369002BD7
:10262000FAD0184780B1026972B110B411B10378C1
:102630006A2B03D001205DF8044B7047136A002B0E
:10264000F8D05DF8044B18470120704720B10269AB
:1026500012B103786A2B01D001207047536A002B16
:10266000FAD0184720B1026912B103786A2B01D061
:1026700001207047936A002BFAD0184720B10269F5
:1026800012B103786A2B01D001207047D36A002B66
:10269000FAD0184720B1026912B103786A2B01D031
:1026A00001207047136B002BFAD01847F0B587B0A4
:1026B0000024104B00941A6B0F4D42F001021A6374
:1026C0001B6B039403F001030646009355F82000AA
:1026D000009B20270223012201A902920493019763
:1026E000FEF7CCF92246394655F82600FEF7B2FA35
:1026F00007B0F0BD0038024008000020034B012263
:1027000053F820002021FEF7A5BA00BF08000020E2
:10271000034B002253F820002021FEF79BBA00BF94
:102720000800002030B587B01B4B002500951C6BBE
:1027300044F004041C631B6B03F004030093009B30
:1027400019B1012911D007B030BD144B029103EB30
:1027500080004FF4005301934068022301A90393C2
:102760000493FEF78BF907B030BD0C4B0C4A029274
:1027700003EB800001A94FF40053406801930395D7
:10278000FEF77CF92A460F212820FEF719F92820A8
:10279000FEF74EF907B030BD0038024008000020B7
:1027A0000000211008B5044B03EB80004FF40051EA
:1027B0004068FEF749FA08BD0800002008B5FFF799
:1027C000F1FDB0FA80F0400908BD00BF08B5FFF781
:1027D0009BFDB0FA80F0400908BD00BF08B50A466D
:1027E00001230F21FFF7DEFDB0FA80F0400908BD9C
:1027F00030B583B00C460DF10702012312210546C6
:10280000FFF7D0FD10B1002003B030BD9DF80730B8
:1028100023F040031C430DF1070228460123122137
:102820008DF80740FFF770FDB0FA80F0400903B063
:1028300030BD00BF30B583B00C460DF10702012357
:1028400010210546FFF7AEFD10B1002003B030BDEA
:102850009DF8073023F00C031C430DF107022846B6
:10286000012310218DF80740FFF74EFDB0FA80F0EC
:10287000400903B030BD00BF10B50A460C46012325
:102880001021FFF78FFD08B1002010BD237803F061
:102890000C032370012010BD2DE9F04180460F4646
:1028A00003260024A51CEDB204F128013A19C9B28F
:1028B00001234046FFF776FD0134E4B248B9A54252
:1028C000F2D1731E13F0FF062C46EBD10120BDE8B8
:1028D000F0810020BDE8F08130B583B00C460DF1E9
:1028E0000702012310210546FFF75CFD10B100200F
:1028F00003B030BD9DF8073003F00F031C430DF10A
:1029000007022846012310218DF80740FFF7FCFC41
:10291000B0FA80F0400903B030BD00BF10B50A46E0
:102920000C4601231021FFF73DFD08B1002010BD2A
:10293000237823F00F032370012010BD30B583B03E
:102940000C460DF10702012311210546FFF72AFD70
:1029500010B1002003B030BD9DF8073023F00C0308
:102960001C430DF107022846012311218DF8074071
:10297000FFF7CAFCB0FA80F0400903B030BD00BFD9
:1029800010B50A460C4601231121FFF70BFD08B1D3
:10299000002010BD237803F00C032370012010BD2C
:1029A0002DE9F04180460F4603260024A51CEDB218
:1029B00004F122013A19C9B201234046FFF7F2FCA3
:1029C0000134E4B248B9A542F2D1731E13F0FF06F8
:1029D0002C46EBD10120BDE8F0810020BDE8F0815C
:1029E00030B583B00C460DF10702012311210546D5
:1029F000FFF7D8FC10B1002003B030BD9DF80730C0
:102A000003F00F031C430DF1070228460123112197
:102A10008DF80740FFF778FCB0FA80F0400903B06A
:102A200030BD00BF10B50A460C4601231121FFF747
:102A3000B9FC08B1002010BD237823F00F032370E8
:102A4000012010BD30B583B00C460DF10702012303
:102A500011210546FFF7A6FC10B1002003B030BDE0
:102A60009DF8073023F002031C430DF107022846AE
:102A7000012311218DF80740FFF746FCB0FA80F0E2
:102A8000400903B030BD00BF10B50A460C46012313
:102A90001121FFF787FC08B1002010BD237803F057
:102AA00002032370012010BD30B583B00C460DF138
:102AB0000702012306210546FFF774FC48B90123EC
:102AC0000DF10702062128468DF80740FFF71CFC90
:102AD00010B1002003B030BD01230DF10702072122
:102AE0002846FFF75FFC0028F3D19DF80730C4F3B8
:102AF000022423F007031C430DF10702284601239B
:102B000007218DF80740FFF7FFFBB0FA80F040097E
:102B1000E0E700BF30B583B00C460DF1070201239A
:102B200008210546FFF73EFC10B1002003B030BD80
:102B30009DF8073023F007031C430DF107022846D8
:102B4000012308218DF80740FFF7DEFBB0FA80F083
:102B5000400903B030BD00BF30B583B00C460DF165
:102B60000702012308210546FFF71CFC10B10020D5
:102B700003B030BD9DF8073023F038031C430DF13E
:102B800007022846012308218DF80740FFF7BCFB08
:102B9000B0FA80F0400903B030BD00BF30B583B05B
:102BA0000C460DF10702012309210546FFF7FAFB48
:102BB00010B1002003B030BD9DF8073003F07F0353
:102BC0001C430DF107022846012309218DF8074017
:102BD000FFF79AFBB0FA80F0400903B030BD00BFA8
:102BE00030B583B00C460DF1070201230A210546DA
:102BF000FFF7D8FB10B1002003B030BD9DF80730BF
:102C000023F007031C430DF10702284601230A2184
:102C10008DF80740FFF778FBB0FA80F0400903B069
:102C200030BD00BF30B583B00C460DF10702012363
:102C30000A210546FFF7B6FB10B1002003B030BDF6
:102C40009DF8073023F078031C430DF10702284656
:102C500001230A218DF80740FFF756FBB0FA80F0F8
:102C6000400903B030BD00BF30B583B00C460DF154
:102C7000070201230D210546FFF794FB10B1002048
:102C800003B030BD9DF8073023F020031C430DF145
:102C90000702284601230D218DF80740FFF734FB7A
:102CA000B0FA80F0400903B030BD00BF30B583B04A
:102CB0000C460DF1070201230D210546FFF772FBBB
:102CC00010B1002003B030BD9DF8073003F07F0342
:102CD0001C430DF10702284601230D218DF8074002
:102CE000FFF712FBB0FA80F0400903B030BD00BF1F
:102CF00030B583B00C460DF10702012312210546C1
:102D0000FFF750FB10B1002003B030BD9DF8073035
:102D100023F004031C430DF107022846012312216E
:102D20008DF80740FFF7F0FAB0FA80F0400903B0E1
:102D300030BD00BF30B583B00C460DF10702012352
:102D400014210546FFF72EFB10B1002003B030BD63
:102D50009DF8073023F003031C430DF107022846BA
:102D6000012314218DF80740FFF7CEFAB0FA80F066
:102D7000400903B030BD00BF30B583B00C460DF143
:102D80000702012314210546FFF70CFB10B10020B8
:102D900003B030BD9DF8073023F00C031C430DF148
:102DA00007022846012314218DF80740FFF7ACFAEB
:102DB000B0FA80F0400903B030BD00BF30B583B039
:102DC0000C460DF10702012319210546FFF7EAFA27
:102DD00010B1002003B030BD9DF8073023F002038E
:102DE0001C430DF107022846012319218DF80740E5
:102DF000FFF78AFAB0FA80F0400903B030BD00BF97
:102E000030B583B00C460DF10702012319210546A8
:102E1000FFF7C8FA10B1002003B030BD9DF80730AD
:102E200023F008031C430DF1070228460123192152
:102E30008DF80740FFF768FAB0FA80F0400903B058
:102E400030BD00BF30B583B00C460DF10702012341
:102E500019210546FFF7A6FA10B1002003B030BDD6
:102E60009DF8073023F010031C430DF1070228469C
:102E7000012319218DF80740FFF746FAB0FA80F0D8
:102E8000400903B030BD00BF30B583B00C460DF132
:102E90000702012319210546FFF784FA10B100202B
:102EA00003B030BD9DF8073023F004031C430DF13F
:102EB00007022846012319218DF80740FFF724FA5D
:102EC000B0FA80F0400903B030BD00BF10B50A462B
:102ED0000C4601231B21FFF765FA08B1002010BD45
:102EE000237803F008032370012010BD10B50A46B3
:102EF0000C4601231B21FFF755FA08B1002010BD35
:102F0000237803F020032370012010BD10B50A467A
:102F10000C4601231C21FFF745FA08B1002010BD23
:102F2000237803F010032370012010BD10B50A466A
:102F30000C4601231C21FFF735FA08B1002010BD13
:102F4000237803F020032370012010BD10B50A463A
:102F50000C4601231D21FFF725FA08B1002010BD02
:102F6000237803F001032370012010BD10B50A4639
:102F70000C4601231D21FFF715FA08B1002010BDF2
:102F8000237803F002032370012010BD10B50A4618
:102F90000C4601231D21FFF705FA08B1002010BDE2
:102FA000237803F004032370012010BD10B50A46F6
:102FB0000C4601231D21FFF7F5F908B1002010BDD3
:102FC000237803F008032370012010BD10B50A46D2
:102FD0000C4601231D21FFF7E5F908B1002010BDC3
:102FE000237803F010032370012010BD10B50A46AA
:102FF0000C4601231D21FFF7D5F908B1002010BDB3
:10300000237803F020032370012010BD10B50A4679
:103010000C4601231D21FFF7C5F908B1002010BDA2
:10302000237803F040032370012010BD10B50A4639
:103030000C4601231E21FFF7B5F908B1002010BD91
:10304000237803F001032370012010BD10B50A4658
:103050000C4601231E21FFF7A5F908B1002010BD81
:10306000237803F002032370012010BD30B583B034
:103070000D4601230DF107023A210446FFF792F9AC
:1030800038B9204601230DF106023B21FFF78AF9EA
:1030900010B1002003B030BD9DF806309DF8072028
:1030A00003F00F0342EA032301202B8003B030BD5D
:1030B00010B50A460C4601233B21FFF773F908B10E
:1030C000002010BD237803F010032370012010BDF1
:1030D00010B50A460C4601233B21FFF763F908B1FE
:1030E000002010BD237803F020032370012010BDC1
:1030F00010B50A460C4601233B21FFF753F908B1EE
:10310000002010BD237803F040032370012010BD80
:1031100030B583B00D4601230DF107023C21044672
:10312000FFF740F938B9204601230DF106023D2191
:10313000FFF738F910B1002003B030BD9DF806301C
:103140009DF8072003F0030342EA032301202B80AC
:1031500003B030BD10B50A460C4601235321FFF7DA
:1031600021F908B1002010BD237803F0100323706B
:10317000012010BD10B50A460C4601235321FFF76C
:1031800011F908B1002010BD237803F0200323704B
:10319000012010BD30B583B00C460DF107020123AC
:1031A00058210546FFF7FEF810B1002003B030BDEE
:1031B0009DF8073023F001031C430DF10702284658
:1031C000012358218DF80740FFF79EF8B0FA80F0F0
:1031D000400903B030BD00BF30B583B00C460DF1DF
:1031E0000702012358210546FFF7DCF810B1002043
:1031F00003B030BD9DF8073023F002031C430DF1EE
:1032000007022846012358218DF80740FFF77CF874
:10321000B0FA80F0400903B030BD00BF30B583B0D4
:103220000C460DF10702012358210546FFF7BAF8B5
:1032300010B1002003B030BD9DF8073023F0040327
:103240001C430DF107022846012358218DF8074041
:10325000FFF75AF8B0FA80F0400903B030BD00BF64
:1032600030B583B00C460DF1070201235821054605
:10327000FFF798F810B1002003B030BD9DF807307B
:1032800023F008031C430DF10702284601235821AF
:103290008DF80740FFF738F8B0FA80F0400903B026
:1032A00030BD00BF30B583B00C460DF107020123DD
:1032B00058210546FFF776F810B1002003B030BD65
:1032C0009DF8073003F07F031C430DF107022846E9
:1032D000012358218DF80740FFF716F8B0FA80F067
:1032E000400903B030BD00BF30B583B00C460DF1CE
:1032F0000702012359210546FFF754F810B10020B9
:1033000003B030BD9DF8073004F01F0423F01F0305
:103310001C430DF107022846012359218DF807406F
:10332000FEF7F2FFB0FA80F0400903B030BD00BFF5
:1033300030B583B00C460DF1070201235921054633
:10334000FFF730F810B1002003B030BD9DF8073012
:1033500023F060031C430DF1070228460123592185
:103360008DF80740FEF7D0FFB0FA80F0400903B0B7
:1033700030BD00BF30B583B00C460DF1070201230C
:103380005A210546FFF70EF810B1002003B030BDFA
:103390009DF8073004F0030423F003031C430DF1F0
:1033A0000702284601235A218DF80740FEF7ACFF9B
:1033B000B0FA80F0400903B030BD00BF30B583B033
:1033C0000C460DF1070201235A210546FEF7EAFFDC
:1033D00010B1002003B030BD9DF80720A40004F018
:1033E0000C0322F00C041C430DF1070228460123B4
:1033F0005A218DF80740FEF787FFB0FA80F04009A8
:1034000003B030BD30B583B00C460DF10702012387
:103410005A210546FEF7C6FF10B1002003B030BDAB
:103420009DF8073003F00F0343EA04140DF107027F
:10343000284601235A218DF80740FEF765FFB0FAB0
:1034400080F0400903B030BD30B583B00C460DF1BB
:10345000070201235B210546FEF7A4FF10B10020FF
:1034600003B030BD9DF8073004F03F0423F03F0364
:103470001C430DF10702284601235B218DF807400C
:10348000FEF742FFB0FA80F0400903B030BD00BF44
:1034900030B583B00C460DF1070201235B210546D0
:1034A000FEF780FF10B1002003B030BD9DF807305B
:1034B00003F07F031C430DF10702284601235B2123
:1034C0008DF80740FEF720FFB0FA80F0400903B006
:1034D00030BD00BF30B583B00C460DF107020123AB
:1034E0005C210546FEF75EFF10B1002003B030BD41
:1034F0009DF8073004F00F0423F00F031C430DF177
:103500000702284601235C218DF80740FEF7FCFEE8
:10351000B0FA80F0400903B030BD00BF30B583B0D1
:103520000C460DF1070201235C210546FEF73AFF28
:1035300010B1002003B030BD9DF8073023F0100318
:103540001C430DF10702284601235C218DF807403A
:10355000FEF7DAFEB0FA80F0400903B030BD00BFDC
:1035600030B583B00C460DF1070201235C210546FE
:10357000FEF718FF10B1002003B030BD9DF8072002
:10358000640104F0600322F060041C430DF10702A3
:10359000284601235C218DF80740FEF7B5FEB0FAFE
:1035A00080F0400903B030BD30B583B00C460DF15A
:1035B000070201235D210546FEF7F4FE10B100204D
:1035C00003B030BD9DF8073023F007031C430DF115
:1035D0000702284601235D218DF80740FEF794FE7F
:1035E000B0FA80F0400903B030BD00BF70B582B0C2
:1035F0000E460DF1070201235D210546FEF7D2FEBE
:1036000078B99DF8074004F0070444EAC604012392
:103610000DF107025D2128468DF80740FEF774FE84
:1036200010B1002002B070BD01230DF107025C2132
:103630002846FEF7B7FE0028F3D19DF8073076093B
:1036400003F07F0343EAC6160DF107022846012363
:103650005C218DF80760FEF757FEB0FA80F0400954
:10366000E0E700BF30B583B00C460DF1070201233F
:103670005E210546FEF796FE10B1002003B030BD76
:103680009DF8073023F002031C430DF10702284682
:1036900001235E218DF80740FEF736FEB0FA80F078
:1036A000400903B030BD00BF30B583B00C460DF10A
:1036B000070201235E210546FEF774FE10B10020CB
:1036C00003B030BD9DF8073023F004031C430DF117
:1036D0000702284601235E218DF80740FEF714FEFD
:1036E000B0FA80F0400903B030BD00BF30B583B000
:1036F0000C460DF1070201235E210546FEF752FE3E
:1037000010B1002003B030BD9DF8073023F008034E
:103710001C430DF10702284601235E218DF8074066
:10372000FEF7F2FDB0FA80F0400903B030BD00BFF3
:1037300030B583B00C460DF1070201235E2105462A
:10374000FEF730FE10B1002003B030BD9DF8073009
:1037500023F010031C430DF10702284601235E21CC
:103760008DF80740FEF7D0FDB0FA80F0400903B0B5
:1037700030BD00BF30B583B00C460DF10702012308
:103780005E210546FEF70EFE10B1002003B030BDED
:103790009DF8073023F020031C430DF10702284653
:1037A00001235E218DF80740FEF7AEFDB0FA80F0F0
:1037B000400903B030BD00BF30B583B00C460DF1F9
:1037C000070201235E210546FEF7ECFD10B1002043
:1037D00003B030BD9DF8073023F040031C430DF1CA
:1037E0000702284601235E218DF80740FEF78CFD75
:1037F000B0FA80F0400903B030BD00BF30B583B0EF
:103800000C460DF1070201235F210546FEF7CAFDB4
:1038100010B1002003B030BD9DF8073023F0020343
:103820001C430DF10702284601235F218DF8074054
:10383000FEF76AFDB0FA80F0400903B030BD00BF6A
:1038400030B583B00C460DF1070201235F21054618
:10385000FEF7A8FD10B1002003B030BD9DF8073081
:1038600023F004031C430DF10702284601235F21C6
:103870008DF80740FEF748FDB0FA80F0400903B02C
:1038800030BD00BF30B583B00C460DF107020123F7
:103890005F210546FEF786FD10B1002003B030BD64
:1038A0009DF8073023F008031C430DF1070228465A
:1038B00001235F218DF80740FEF726FDB0FA80F066
:1038C000400903B030BD00BF30B583B00C460DF1E8
:1038D000070201235F210546FEF764FD10B10020B9
:1038E00003B030BD9DF8073023F010031C430DF1E9
:1038F0000702284601235F218DF80740FEF704FDEB
:10390000B0FA80F0400903B030BD00BF30B583B0DD
:103910000C460DF1070201235F210546FEF742FD2B
:1039200010B1002003B030BD9DF8073023F0200314
:103930001C430DF10702284601235F218DF8074043
:10394000FEF7E2FCB0FA80F0400903B030BD00BFE2
:1039500030B583B00C460DF1070201235F21054607
:10396000FEF720FD10B1002003B030BD9DF80730F8
:1039700023F040031C430DF10702284601235F2179
:103980008DF80740FEF7C0FCB0FA80F0400903B0A4
:1039900030BD00BF38B50A460C4601233E2105461E
:1039A000FEF700FD48B9621C284601233F21FEF7BF
:1039B000F9FCB0FA80F0400938BD002038BD00BFE6
:1039C00038B50A460C4601234B210546FEF7EAFCB2
:1039D00048B9621C284601234C21FEF7E3FCB0FAEB
:1039E00080F0400938BD002038BD00BF70B501230C
:1039F00082B00C460DF1070219460546FEF7D2FCCF
:103A000060B99DF80760012366F07F0619460DF145
:103A1000070228468DF80760FEF776FC0DF10602D6
:103A200001230F212846FEF7BDFC9DF8063004F067
:103A30001F0423F01F030DF106021C430F21012375
:103A400028468DF80640FEF75FFC012319460DF16C
:103A500007022846FEF7A6FC60B99DF8074001233F
:103A600004F07F040DF10702284619468DF807403F
:103A7000FEF74AFC012002B070BD00BF08B5FFF799
:103A800013F8B0FA80F0400908BD00BF10B582B04D
:103A90000C460DF10701FEF7EFFE60B19DF807300F
:103AA0000C2B1FD8DFE803F00F1E1E1E141E1E1E57
:103AB000191E1E1E0A00012002B010BD0C4B23600F
:103AC000002002B010BD0B4B2360002002B010BDDF
:103AD000094B2360002002B010BD084B236000207A
:103AE00002B010BD064B2360012002B010BD00BF24
:103AF00023DB793E23DB793D23DBF93E23DBF93DF4
:103B0000000080BF10B582B00C460DF10701FEF732
:103B1000B3FE60B19DF807300C2B23D8DFE803F02B
:103B200010222222162222221C2222220A000120F6
:103B300002B010BD4FF082430020236002B010BDE0
:103B40004FF080430020236002B010BD4FF083434C
:103B50000020236002B010BD4FF08143002023609D
:103B600002B010BD024B2360012002B010BD00BFA7
:103B7000000080BF08B5FFF779FAB0FA80F040097D
:103B800008BD00BF08B5FFF705FFB0FA80F0400997
:103B900008BD00BF08B5FFF7BBFAB0FA80F04009D6
:103BA00008BD00BF10B582B00C460DF10701FFF74C
:103BB0009FFA48B19DF8070048B1402804D101237D
:103BC0000020237002B010BD012002B010BD207093
:103BD00002B010BD10B582B00C460DF10701FFF721
:103BE00067FA48B19DF8070048B1102804D10123B5
:103BF0000020237002B010BD012002B010BD207063
:103C000002B010BD10B582B00C460DF10701FFF7F0
:103C10005FFA48B19DF8070048B1202804D101237C
:103C20000020237002B010BD012002B010BD207032
:103C300002B010BDF2EE047AB4EEE70AF1EE10FA2B
:103C400008B50DD9F3EE097AB4EEE70AF1EE10FAF1
:103C50000DD81021FEF7E6FFB0FA80F0400908BD4C
:103C60000821FEF7DFFFB0FA80F0400908BDDFED64
:103C7000227AB4EEE70AF1EE10FA2CD9DFED1F7AC2
:103C8000B4EEE70AF1EE10FA2CD9DFED1D7AB4EEAE
:103C9000E70AF1EE10FA27D9DFED1A7AB4EEE70A57
:103CA000F1EE10FA22D9DFED187AB4EEE70AF1EE60
:103CB00010FA1DD9DFED157AB4EEE70AF1EE10FA2D
:103CC00018D9DFED137AB4EEE70AF1EE10FA94BFDB
:103CD00048215021C5E71821FEF7A4FFB0FA80F073
:103CE000400908BD2021BCE72821BAE73021B8E708
:103CF0003821B6E74021B4E7000048420000C8423E
:103D0000000048430000C843000048440000C84485
:103D100000404E4530B5012383B000240C600D46B1
:103D20000DEB03021B218DF801408DF802408DF848
:103D300003408DF804408DF805408DF806408DF85D
:103D400007400446FEF73AFD002800F09980012361
:103D50000DF102021C212046FEF730FD002800F084
:103D60008F8001230DF103021D212046FEF726FD61
:103D7000002800F08580012301AA53212046FEF788
:103D80001DFD00287CD001230DF105025E21204697
:103D9000FEF714FD002873D001230DF106025F2108
:103DA0002046FEF70BFD00286AD0204601230DF1C6
:103DB00007020D21FEF702FD002861D09DF80530B5
:103DC000DC0603D49DF80620D00607D59DF8012017
:103DD000910603D52A7842F001022A709A0603D48C
:103DE0009DF80620940607D59DF80120100703D5FD
:103DF0002A7842F008022A70590603D49DF806205A
:103E0000520607D59DF80220940603D52A7842F081
:103E100002022A70180703D49DF80620110707D55F
:103E20009DF80220D20603D52A7842F004022A70B7
:103E30005C0703D49DF80620500707D59DF80320A2
:103E4000510603D52A7842F040022A709DF90720D6
:103E5000002A18DB9B0706D49DF8063003F0020306
:103E600003F0FF006BB19DF8043003F0200303F072
:103E7000FF0033B12B7843F020032B70002000E0CB
:103E8000012003B030BD9DF80420D206E2D52A7887
:103E900042F010022A70DDE708B50123FEF78EFC20
:103EA000B0FA80F0400908BD10B582B00C460DF1A3
:103EB0000701FFF79BF848B19DF8070048B120289B
:103EC00004D101230020237002B010BD012002B0F4
:103ED00010BD207002B010BD10B582B00C460DF1BF
:103EE0000701FFF773F848B19DF8070048B11028A3
:103EF00004D101230020237002B010BD012002B0C4
:103F000010BD207002B010BD10B582B00C460DF18E
:103F10000701FFF74BF848B19DF8070048B10828A2
:103F200004D101230020237002B010BD012002B093
:103F300010BD207002B010BD10B582B00C460DF15E
:103F40000701FFF723F848B19DF8070048B104289E
:103F500004D101230020237002B010BD012002B063
:103F600010BD207002B010BD10B582B00C460DF12E
:103F70000701FEF7FBFF48B19DF8070048B1022892
:103F800004D101230020237002B010BD012002B033
:103F900010BD207002B010BD10B582B00C460DF1FE
:103FA0000701FEF7D3FF40B19DF8070040B101289B
:103FB00003D12070002002B010BD012002B010BD5E
:103FC000207002B010BD00BF10B582B00C460DF1DC
:103FD0000701FFF71BF848B19DF8070048B14028DA
:103FE00004D101230020237002B010BD012002B0D3
:103FF00010BD207002B010BDF0EE007AB4EEE70AFA
:10400000F1EE10FA08B50DD9F1EE007AB4EEE70A38
:10401000F1EE10FA0DD80821FEF70CFCB0FA80F092
:10402000400908BD0021FEF705FCB0FA80F0400908
:1040300008BDF2EE007AB4EEE70AF1EE10FA94BF92
:104040000C210421FEF7F6FBB0FA80F0400908BD10
:10405000022908B50BD0042902D011B1012008BDF6
:104060000C21FEF7E7FBB0FA80F0400908BD0821FB
:10407000FEF7E0FBB0FA80F0400908BD08B5FFF795
:10408000C1F9B0FA80F0400908BD00BF08B5FFF7DC
:1040900095F9B0FA80F0400908BD00BF08B5FFF7F8
:1040A00069F9B0FA80F0400908BD00BF08B5FFF714
:1040B0001BF9B0FA80F0400908BD00BF10B582B00E
:1040C0000C460DF10701FEF721FF48B19DF80700EE
:1040D00048B1102804D101230020237002B010BD84
:1040E000012002B010BD207002B010BD10B582B02A
:1040F0000C460DF10701FEF719FF48B19DF80700C6
:1041000048B1202804D101230020237002B010BD43
:10411000012002B010BD207002B010BD08B5FFF73D
:1041200093F9B0FA80F0400908BD00BF10B582B025
:104130000C460DF10701FEF7C9FE48B19DF80700D6
:1041400048B1082804D101230020237002B010BD1B
:10415000012002B010BD207002B010BD10B582B0B9
:104160000C460DF10701FFF705F848B19DF807006F
:1041700048B1202804D101230020237002B010BDD3
:10418000012002B010BD207002B010BD08B5FFF7CD
:104190002DFCB0FA80F0400908BD00BF08B5002131
:1041A000FEF70CFEB0FA80F0400908BD08B5022108
:1041B000FEF704FEB0FA80F0400908BD08B5FFF72D
:1041C000FFFBB0FA80F0400908BD00BF10B582B017
:1041D0000C460DF10701FEF7BDFF48B19DF8070041
:1041E00048B1102804D101230020237002B010BD73
:1041F000012002B010BD207002B010BD08B5FFF75D
:10420000D3F9B0FA80F0400908BD00BF10B582B004
:104210000C460DF10701FEF769FE48B19DF8070055
:1042200048B1202804D101230020237002B010BD22
:10423000012002B010BD207002B010BD30B583B0B7
:104240000D460DF107010446FEF71EFC10B90120D2
:1042500003B030BD20460DF10601FEF791FB0028AA
:10426000F5D09DF80730022B0CD09DF806300C2BB2
:104270001CD8DFE803F0171B1B1B131B1B1B0F1B9A
:104280001B1B0B000B4B2B600020E1E70A4B2B6044
:104290000020DDE7094B2B600020D9E7084B2B609D
:1042A0000020D5E7074B2B600020D1E7064B2B60A1
:1042B000CDE700BF0000FA420000FA4400007A4453
:1042C0000000FA4300007543000080BF10B582B0C3
:1042D0000C460DF10701FEF7A9FE40B19DF807005D
:1042E00040B1012803D12070002002B010BD012090
:1042F00002B010BD207002B010BD00BF10B582B07A
:1043000002AC012304F8012D2246FEF75FFAB0FA51
:1043100080F0400902B010BD10B582B00C460DF11E
:104320000701FEF7FBFAD0B19DF80700502837D0FF
:104330000AD8202825D015D9302835D0402828D1B2
:104340001F4B236000200BE0802831D011D990282A
:104350001BD0A0281DD11B4B2360002000E00120B2
:1043600002B010BDC8B1102813D1174B2360002034
:10437000F6E7602820D070280BD1144B2360002072
:10438000EEE7134B23600020EAE7124B2360002086
:10439000E6E7114B23600120E2E700232360DFE71B
:1043A0000E4B23600020DBE70D4B23600020D7E796
:1043B0000C4B23600020D3E70B4B23600020CFE79A
:1043C0000000D0420020D045000050410040504441
:1043D0000000D04100205045000080BF0000504345
:1043E000000050420080CF440000D04308B5FEF7E3
:1043F000F5F9B0FA80F0400908BD00BF10B582B0F1
:104400000C460DF10701FEF721FE48B19DF80700AB
:1044100048B1022804D101230020237002B010BD4E
:10442000012002B010BD207002B010BD022908B5F5
:104430000BD0042902D011B1012008BD0C21FEF7D8
:104440007DFAB0FA80F0400908BD0421FEF776FA43
:10445000B0FA80F0400908BD10B582B00C460DF1ED
:104460000701FEF7DFFAD0B19DF80700502837D0DA
:104470000AD8202825D015D9302835D0402828D171
:104480001F4B236000200BE0802831D011D99028E9
:104490001BD0A0281DD11B4B2360002000E0012071
:1044A00002B010BDC8B1102813D1174B23600020F3
:1044B000F6E7602820D070280BD1144B2360002031
:1044C000EEE7134B23600020EAE7124B2360002045
:1044D000E6E7114B23600120E2E700232360DFE7DA
:1044E0000E4B23600020DBE70D4B23600020D7E755
:1044F0000C4B23600020D3E70B4B23600020CFE759
:104500000000D0420020D0450000504100405044FF
:104510000000D04100205045000080BF0000504303
:10452000000050420080CF440000D043032901D94D
:104530000120704708B5FEF7FDFBB0FA80F0400996
:1045400008BD00BF012901D90120704708B5FEF759
:1045500021FEB0FA80F0400908BD00BF08B519B1CE
:10456000802901D0012008BDFEF718FBB0FA80F0C9
:10457000400908BD08B519B1202901D0012008BDA6
:10458000FEF772FBB0FA80F0400908BD062908D892
:1045900008B5012303FA01F212F05B0F03D11846AC
:1045A00008BD01207047FEF71BFBB0FA80F0400900
:1045B00008BD00BF072901D90120704708B5FEF7E3
:1045C000A9FAB0FA80F0400908BD00BF10B500217B
:1045D0000446FFF769F808B9012010BD0021204604
:1045E000FFF72EF90028F7D000212046FEF75AFEEB
:1045F0000028F1D020460021FEF79AFEB0FA80F0A4
:10460000400910BD08B58379012B18D083681B6859
:10461000042920D8DFE801F003030B0F0700124A3A
:104620005A60002008BD114A5A60002008BD104A97
:104630005A60002008BD0F4A5A60002008BD0429B6
:1046400009D8DFE801F003030C0A0E001021FEF781
:1046500043F90028E5D1012008BD3021F7E72021EA
:10466000F5E74021F3E700BF000050410000D042D1
:104670000000D0410000504210B500210446FFF771
:1046800035F808B9012010BD00212046FFF7FAF8DF
:104690000028F7D000212046FEF704FE0028F1D0C4
:1046A00000212046FEF720FE0028EBD00021204606
:1046B000FEF760FE0028E5D000212046FEF77EFED2
:1046C0000028DFD000212046FEF79CFE0028D9D02C
:1046D00000212046FEF7DCFE0028D3D00021204632
:1046E000FEF77AFD0028CDD000212046FEF796FD8A
:1046F0000028C7D020460021FEF7B2FDB0FA80F0B6
:10470000400910BD10B500210446FFF755F808B95F
:10471000012010BD00212046FFF71AF90028F7D02C
:1047200000212046FEF7BEFD0028F1D000212046E2
:10473000FEF7DAFD0028EBD000212046FEF71AFE36
:104740000028E5D000212046FEF738FE0028DFD003
:1047500000212046FEF740FD0028D9D00021204648
:10476000FEF75CFD0028D3D020460021FEF778FD3F
:10477000B0FA80F0400910BD10B500210446FEF7E4
:10478000F9FF08B9012010BD00212046FFF7BEF84F
:104790000028F7D000212046FEF784FD0028F1D044
:1047A00000212046FEF7DCFE0028EBD02046002149
:1047B000FEF74AFEB0FA80F0400910BD10B50021A6
:1047C0000446FEF74FFF08B9012010BD0021204626
:1047D000FFF714F80028F7D000212046FEF710FB61
:1047E0000028F1D020460021FEF74EFBB0FA80F001
:1047F000400910BD10B500210446FEF757FA08B96C
:10480000012010BD00212046FEF71CFB0028F7D038
:1048100000212046FEF738FB0028F1D02046002179
:10482000FFF7E4F8B0FA80F0400910BD10B50021A0
:104830000446FEF77DFF08B9012010BD0021204687
:10484000FFF742F80028F7D000212046FEF72AFDA6
:104850000028F1D000212046FEF7C8FE0028EBD04A
:1048600020460021FEF7A0FEB0FA80F0400910BDFE
:104870000C2909D8012310B503FA01F241F21114F1
:1048800014401CB9184610BD01207047FEF774FA99
:10489000B0FA80F0400910BD30B583B00C460DF180
:1048A00006010546FEF7F0F8B0B19DF80630022B80
:1048B00015D028460DF10701FEF762F860B19DF8AA
:1048C00007300C2B20D8DFE803F0131F1F1F171F22
:1048D0001F1F1B1F1F1F0F00012003B030BD0C4BFB
:1048E0002360002003B030BD0A4B23600020F4E7B2
:1048F000094B23600020F0E7084B23600020ECE721
:10490000074B23600020E8E7064B23600120E4E723
:1049100000008C4000008C4200000C4100008C41E3
:1049200000000C42000080BF08B538291ED8DFE81F
:1049300001F01F1D1D1D1D1D1D1D1F1D1D1D1D1DEC
:104940001D1D1F1D1D1D1D1D1D1D1F1D1D1D1D1D93
:104950001D1D1F1D1D1D1D1D1D1D1F1D1D1D1D1D83
:104960001D1D1F1D1D1D1D1D1D1D1F00012008BD1E
:10497000FEF7F2F8B0FA80F0400908BDDFED1F7ACB
:10498000B4EEE70AF1EE10FA38B525D9DFED1C7A5E
:10499000B4EEE70AF1EE10FA044607D8002500212C
:1049A0002046FEF74FF878B9012038BDDFED157AC3
:1049B000B4EEE70AF1EE10FA15D8002120460425DE
:1049C000FEF740F80028EFD029462046FDF7B6FF55
:1049D000B0FA80F0400938BD0221FEF733F8B0FA92
:1049E00080F0400938BDDFED087AB4EEE70AF1EE59
:1049F00010FA94BF08250C25D1E700BF0000FA4249
:104A0000000075430000FA4300007A4408B583793A
:104A1000012B48D0F2EE0A7A8368B4EEE70AF1EE91
:104A200010FA1B683BD9F3EE0A7AB4EEE70AF1EE0E
:104A300010FA34D9DFED477AB4EEE70AF1EE10FA56
:104A40002DD9DFED457AB4EEE70AF1EE10FA26D95A
:104A5000DFED427AB4EEE70AF1EE10FA1FD9DFED8E
:104A6000407AB4EEE70AF1EE10FA18D9DFED3D7A9C
:104A7000B4EEE70AF1EE10FA11D9DFED3B7AB4EEAD
:104A8000E70AF1EE10FA0AD9DFED387A9FED387AAD
:104A9000B4EEE70AF1EE10FA88BFF0EE477AC3ED04
:104AA000017A002008BDF2EE0A7AB4EEE70AF1EED0
:104AB00010FA06D81021FDF793FFB0FA80F04009F4
:104AC00008BDF3EE0A7AB4EEE70AF1EE10FA33D934
:104AD000DFED207AB4EEE70AF1EE10FA2ED9DFED21
:104AE0001E7AB4EEE70AF1EE10FA29D9DFED1B7A4F
:104AF000B4EEE70AF1EE10FA24D9DFED197AB4EE3C
:104B0000E70AF1EE10FA1FD9DFED167AB4EEE70AE4
:104B1000F1EE10FA1AD9DFED147AB4EEE70AF1EEED
:104B200010FA15D9DFED117AB4EEE70AF1EE10FABA
:104B300094BF9021A021BEE72021BCE73021BAE735
:104B40004021B8E75021B6E76021B4E77021B2E711
:104B50008021B0E7000050420000D04200005043E6
:104B60000000D043004050440080CF440020504516
:104B70000020D04508B58379012B18D083681B68C5
:104B8000042920D8DFE801F003030B0F0700124AC5
:104B90005A60002008BD114A5A60002008BD104A22
:104BA0005A60002008BD0F4A5A60002008BD042941
:104BB00009D8DFE801F003030C0A0E001021FDF70D
:104BC0000FFF0028E5D1012008BD3021F7E72021A3
:104BD000F5E74021F3E700BF000050410000D0425C
:104BE0000000D0410000504208B5FDF7F7FDB0FAD3
:104BF00080F0400908BD00BF08B58379012B48D07B
:104C0000F2EE0A7A8368B4EEE70AF1EE10FA1B6856
:104C10003BD9F3EE0A7AB4EEE70AF1EE10FA34D992
:104C2000DFED477AB4EEE70AF1EE10FA2DD9DFEDA9
:104C3000457AB4EEE70AF1EE10FA26D9DFED427AB2
:104C4000B4EEE70AF1EE10FA1FD9DFED407AB4EEC8
:104C5000E70AF1EE10FA18D9DFED3D7AB4EEE70A73
:104C6000F1EE10FA11D9DFED3B7AB4EEE70AF1EE7E
:104C700010FA0AD9DFED387A9FED387AB4EEE70AF8
:104C8000F1EE10FA88BFF0EE477AC3ED017A00200A
:104C900008BDF2EE0A7AB4EEE70AF1EE10FA06D891
:104CA0001021FDF719FEB0FA80F0400908BDF3EEBF
:104CB0000A7AB4EEE70AF1EE10FA33D9DFED207A82
:104CC000B4EEE70AF1EE10FA2ED9DFED1E7AB4EE5B
:104CD000E70AF1EE10FA29D9DFED1B7AB4EEE70A04
:104CE000F1EE10FA24D9DFED197AB4EEE70AF1EE0D
:104CF00010FA1FD9DFED167AB4EEE70AF1EE10FADA
:104D00001AD9DFED147AB4EEE70AF1EE10FA15D9EC
:104D1000DFED117AB4EEE70AF1EE10FA94BF9021BC
:104D2000A021BEE72021BCE73021BAE74021B8E747
:104D30005021B6E76021B4E77021B2E78021B0E7E7
:104D4000000050420000D042000050430000D04319
:104D5000004050440080CF44002050450020D04502
:104D6000012901D90120704708B5FEF713FAB0FAFE
:104D700080F0400908BD00BF08B50123FDF71EFD06
:104D8000B0FA80F0400908BD10B582B002AC012332
:104D900004F8012D2246FDF719FDB0FA80F0400914
:104DA00002B010BD38B58379012B04460D4639D0C9
:104DB0008368244A1B685A6000212046FDF73AFDAB
:104DC00008B9012038BD06212046FEF70FFC002857
:104DD000F7D000212046FEF7C3FB0028F1D00021C8
:104DE0002046FEF79BFB0028EBD000212046FEF773
:104DF00071FB0028E5D003212046FEF7D5FB0028F3
:104E0000DFD080212046FEF74DFA0028D9D085B1A9
:104E1000012DD6D120461021FEF756FDB0FA80F0C4
:104E2000400938BD6021FDF757FD0028C4D101209D
:104E300038BD20461021FEF77BFCB0FA80F0400917
:104E400038BD00BF0000D04338B58379012B04463C
:104E50000D4621D08368184A1B685A6000212046FD
:104E6000FDF7E8FC08B9012038BD04212046FEF713
:104E70000BF80028F7D008212046FDF7C1FF0028D5
:104E8000F1D085B1012DEED120460221FEF7B6FC0E
:104E9000B0FA80F0400938BD2021FDF71DFD002843
:104EA000DCD1012038BD20460221FEF7DBFBB0FA41
:104EB00080F0400938BD00BF0000D04110B58379B3
:104EC000012B044624D08368154A1B685A600021D0
:104ED0002046FDF7AFFC08B9012010BD1721204680
:104EE000FEF784FD0028F7D004212046FDF7CCFF13
:104EF0000028F1D010212046FDF7A4FF0028EBD0B8
:104F000020468021FDF7D2FEB0FA80F0400910BDA6
:104F10002021FDF7E1FC0028D9D1012010BD00BF00
:104F20000000D041F0B583B000240D466946ADF8CD
:104F300004400094FDF7B0FCB8B19DF805009DF861
:104F400001709DF800109DF803609DF802209DF807
:104F5000043001EB072103EB002302EB062220467D
:104F600029806A80AB8003B0F0BD012003B0F0BDA2
:104F7000F0B583B000240D466946ADF804400094B6
:104F8000FDF70EFDB8B19DF805009DF801709DF884
:104F900000109DF803609DF802209DF8043001EB9D
:104FA000072103EB002302EB0622204629806A80BA
:104FB000AB8003B0F0BD012003B0F0BD8379012BBD
:104FC00050D083681B68D3ED017AB2EE0A7AF4EE12
:104FD000C77AF1EE10FA10B509D810210446FDF792
:104FE0007BFC002840D00123A371002010BDB3EE4C
:104FF0000A7AF4EEC77AF1EE10FA37D99FED227AE9
:10500000F4EEC77AF1EE10FA32D99FED207AF4EE81
:10501000C77AF1EE10FA2DD99FED1D7AF4EEC77A1A
:10502000F1EE10FA28D99FED1B7AF4EEC77AF1EE73
:1050300010FA23D99FED187AF4EEC77AF1EE10FA40
:105040001ED99FED167AF4EEC77AF1EE10FA19D94F
:105050009FED137AF4EEC77AF1EE10FA94BF902127
:10506000A021BBE700207047012010BD2021B5E73B
:105070003021B3E74021B1E75021AFE76021ADE730
:105080007021ABE78021A9E7000050420000D04228
:10509000000050430000D043004050440080CF4403
:1050A000002050458379012B50D083681B68D3EDD5
:1050B000017AB2EE0A7AF4EEC77AF1EE10FA10B580
:1050C00009D810210446FDF78BFC002840D00123AD
:1050D000A371002010BDB3EE0A7AF4EEC77AF1EEA8
:1050E00010FA37D99FED227AF4EEC77AF1EE10FA72
:1050F00032D99FED207AF4EEC77AF1EE10FA2DD96D
:105100009FED1D7AF4EEC77AF1EE10FA28D99FEDE3
:105110001B7AF4EEC77AF1EE10FA23D99FED187AD4
:10512000F4EEC77AF1EE10FA1ED99FED167AF4EE7E
:10513000C77AF1EE10FA19D99FED137AF4EEC77A17
:10514000F1EE10FA94BF9021A021BBE70020704738
:10515000012010BD2021B5E73021B3E74021B1E7A0
:105160005021AFE76021ADE77021ABE78021A9E7CF
:10517000000050420000D042000050430000D043E5
:10518000004050440080CF440020504510B582B00C
:1051900002A9002301F8013D0446FDF71FFB10B9E9
:1051A000012002B010BD23789DF80700181A18BF1F
:1051B000012002B010BD00BF10B582B002A90023CB
:1051C00001F8013D0446FDF709FB10B9012002B0CA
:1051D00010BD23789DF80700181A18BF012002B0EF
:1051E00010BD00BF38B58379012B04460D4621D090
:1051F0008368184A1B685A6000212046FDF71AFB95
:1052000008B9012038BD40212046FEF791F800285A
:10521000F7D080212046FEF745F80028F1D085B16F
:10522000012DEED120460421FEF70AFBB0FA80F0F2
:10523000400938BD6021FDF74FFB0028DCD101207B
:1052400038BD20460421FEF72FFAB0FA80F040095D
:1052500038BD00BF0000D04338B58379012B044628
:105260000D464BD083682D4A1B685A6000212046AA
:10527000FDF7E0FA08B9012038BD08212046FDF706
:10528000EFFF0028F7D004212046FDF7C7FF0028D4
:10529000F1D002212046FDF79FFF0028EBD0082126
:1052A0002046FEF721F80028E5D003212046FEF72E
:1052B00061F80028DFD003212046FEF77FF80028A0
:1052C000D9D008212046FEF79DF80028D3D08021B0
:1052D0002046FEF7DDF80028CDD080212046FDF7DE
:1052E000E1FF0028C7D085B1012DC4D12046082197
:1052F000FEF7C8FAB0FA80F0400938BD6021FDF72A
:10530000EBFA0028B2D1012038BD20460821FEF773
:10531000EDF9B0FA80F0400938BD00BF0000D0437D
:1053200038B58379012B04460D4627D083681B4A84
:105330001B685A6000212046FDF77CFA08B901205D
:1053400038BD00212046FEF70BF90028F7D00221D6
:105350002046FEF779F80028F1D080212046FDF79D
:10536000A1FF0028EBD085B1012DE8D120462021F6
:10537000FEF7CCFAB0FA80F0400938BD6021FDF7A5
:10538000ABFA0028D6D1012038BD20462021FEF7F7
:10539000F1F9B0FA80F0400938BD00BF0000D043F9
:1053A00038B58379012B04460D463FD08368274AE0
:1053B0001B685A6000212046FDF73CFA08B901201D
:1053C00038BD08212046FDF74BFF0028F7D0042107
:1053D0002046FDF723FF0028F1D002212046FDF7EB
:1053E000FBFE0028EBD008212046FDF77DFF0028BA
:1053F000E5D002212046FDF7BDFF0028DFD00121C6
:105400002046FDF7DBFF0028D9D080212046FDF79C
:1054100049FF0028D3D085B1012DD0D120464021AD
:10542000FEF796FAB0FA80F0400938BD6021FDF72A
:1054300053FA0028BED1012038BD20464021FEF796
:10544000BBF9B0FA80F0400938BD00BF0000D0437E
:10545000F0B5836883B01E6802A90024376801F89C
:10546000014D0546FDF7BAF920B12A789DF80730BD
:105470009A4202D0012003B0F0BD04212846FDF776
:1054800037FC0028F6D040212846FDF7B1F9002866
:10549000F0D021462846FDF7A3FB0028EAD0094BAF
:1054A000736021462846FDF79BFA0028E2D00C21C4
:1054B0002846FDF743FA0028DCD001237B70204604
:1054C0006B71D8E70000D042F0B5836883B01E68E6
:1054D00002A90024376801F8014D0546FDF77EF961
:1054E00020B12A789DF807309A4202D0012003B0FB
:1054F000F0BD04212846FDF7FBFB0028F6D0402133
:105500002846FDF775F90028F0D021462846FDF71A
:1055100067FB0028EAD0094B736021462846FDF757
:10552000DBF90028E2D021462846FDF783F9002860
:10553000DCD001233B7020466B71D8E70000D042DD
:1055400070B582B00E4601A90546FEF723FA10B3E6
:105550009DF805409DF804300DF10201284643EA0C
:105560000424FDF791FAB0B19DF80230022B15D05A
:1055700028460DF10301FDF703FA60B19DF80330F1
:105580000C2B08D8DFE803F02307070720070707DD
:105590001D0707071A00012002B070BD9FED0D7AAC
:1055A00023B207EE903AF8EEE77A002067EE877AAA
:1055B000FDEEE77AC6ED007A02B070BD9FED067A87
:1055C000EEE79FED067AEBE79FED057AE8E79FEDC2
:1055D000057AE5E700008C4000008C4200000C4298
:1055E00000008C4100000C412DE9F04184B0002303
:1055F0000C4602A9ADF80C3002930746FDF7D0F92E
:1056000088B39DF808109DF80B609DF80D009DF87B
:1056100009509DF80A209DF80C3001EB052503EB9D
:10562000002302EB06220DF1070138461FFA85F828
:1056300096B29DB2FDF728FAA8B19DF80730022B6B
:1056400015D002A93846FDF79BF960B19DF80830E6
:105650000C2B08D8DFE803F03C07070739070707DA
:10566000360707073300012004B0BDE8F0819FED45
:105670001A6A0FFA88F306EE903A33B207EE103A40
:105680002BB207EE903AF8EEE66AB8EEC77AF8EE7B
:10569000E77A66EE866A27EE067A67EE867AFDEE90
:1056A000E66ABDEEC77AFDEEE77A0020C4ED006A37
:1056B00084ED017AC4ED027A04B0BDE8F0819FED7B
:1056C000076AD6E79FED066AD3E79FED066AD0E743
:1056D0009FED056ACDE700BF00008C4000008C42C2
:1056E00000000C4200008C4100000C4170B582B0FB
:1056F0000E4601A90546FEF74DF9C0B19DF80540DB
:105700009DF8043028460DF1030143EA0424FDF717
:10571000B3F860B19DF803300C2B08D8DFE803F034
:10572000200707071D0707071A0707070A000120B8
:1057300002B070BD9FED0C7A23B207EE903AF8EEFE
:10574000E77A002067EE877AFDEEE77AC6ED007A09
:1057500002B070BD9FED057AEEE79FED057AEBE7AD
:105760009FED047AE8E700BF23DB793E23DBF93DB8
:1057700023DBF93E23DB793DF0B583B000230D46F2
:105780006946ADF8043000930646FDF785F830B35E
:105790009DF805709DF801C09DF800409DF803E05C
:1057A0009DF802209DF8043004EB0C2403EB072342
:1057B000304602EB0E226946A7B296B29CB2FDF7C4
:1057C0005BF860B19DF800300C2B08D8DFE803F0DF
:1057D0003607070733070707300707070A000120C6
:1057E00003B0F0BD9FED176A3BB206EE903A33B2BC
:1057F00007EE103A23B207EE903AF8EEE66AB8EEFA
:10580000C77AF8EEE77A66EE866A27EE067A67EEE2
:10581000867AFDEEE66ABDEEC77AFDEEE77A0020F5
:10582000C5ED006A85ED017AC5ED027A03B0F0BDE1
:105830009FED056AD8E79FED056AD5E79FED046AFD
:10584000D2E700BF23DB793E23DBF93D23DBF93EC2
:1058500023DB793D83790BB91846704730B58368EF
:1058600083B00DF1070104461D68FDF757F880B1BC
:105870009DF80730502B3CD00ED8202B36D026D99F
:10588000302B2DD0402B02D11E4B6B600DE01E4BF8
:105890006B60012003B030BD802B1ED010D8602B70
:1058A00021D0702BF3D1194B6B6000212046FDF7FE
:1058B00013F80028EDD000231846A37103B030BDC3
:1058C000902B19D0A02BE2D1114B6B60EDE7B3B157
:1058D000102BDCD10F4B6B60E7E70F4B6B60E4E7FD
:1058E0000E4B6B60E1E70E4B6B60DEE70D4B6B60C0
:1058F000DBE70D4B6B60D8E70C4B6B60D5E7002303
:105900006B60D2E70000D042000080BF00405044EE
:105910000020D045000050410080CF44000050429C
:105920000000D0430000D04100005043002050450B
:1059300083790BB91846704730B5836883B00DF191
:10594000070104461D68FDF76DF880B19DF807302A
:10595000502B3CD00ED8202B36D026D9302B2DD032
:10596000402B02D11E4B6B600DE01E4B6B60012083
:1059700003B030BD802B1ED010D8602B21D0702BEF
:10598000F3D1194B6B6000212046FDF729F8002860
:10599000EDD000231846A37103B030BD902B19D071
:1059A000A02BE2D1114B6B60EDE7B3B1102BDCD132
:1059B0000F4B6B60E7E70F4B6B60E4E70E4B6B60E0
:1059C000E1E70E4B6B60DEE70D4B6B60DBE70D4BE9
:1059D0006B60D8E70C4B6B60D5E700236B60D2E7B8
:1059E0000000D042000080BF004050440020D0455D
:1059F000000050410080CF44000050420000D043DE
:105A00000000D0410000504300205045F0B58368AD
:105A100083B01E6802AD0023376805F8013D2946B2
:105A20000446FCF7DBFE10B9012003B0F0BD22787C
:105A30009DF807309A42F7D1A3793BB900230022A1
:105A4000184672607B70637103B0F0BDA36829468D
:105A500020461D68FCF7E6FF0028E5D09DF80730DA
:105A6000502B35D010D8202B26D017D86BB3102B45
:105A700028D11D4B6B6000212046FCF7B1FF0028A8
:105A8000D2D00023A371D9E7802B27D00DD9902B3A
:105A900015D0A02B16D1154B6B60ECE7302B1AD02C
:105AA000402B0FD1124B6B60E5E7602B19D0702BA8
:105AB00008D1104B6B60DEE70F4B6B60DBE70F4BE1
:105AC0006B60D8E70E4B6B60AEE700236B60D2E7EC
:105AD0000C4B6B60CFE70C4B6B60CCE70B4B6B60F8
