:020000040800F2
:100000000020002069200008BD1F0008C11F000853
:1000100000000000000000000000000000000000E0
:10002000000000000000000000000000B9200008EF
:100030000000000000000000B9200008C51F0008F3
:10004000B9200008B9200008B9200008B92000082C
:10005000B9200008B9200008B9200008CD1F000809
:10006000B9200008B9200008B9200008B92000080C
:10007000B9200008B920000800000000B9200008DD
:1000800000000000B920000800000000000000008F
:10009000B920000800000000B9200008B9200008BD
:1000A000B9200008B9200008B9200008B9200008CC
:1000B000B9200008B9200008B9200008B9200008BC
:1000C000054B0648033310B51B1A062B03D9044B06
:1000D000002B00D0984710BDC0010020C0010020B7
:1000E000000000000648074910B5091A8910CB0F17
:1000F0005918491003D0044B002B00D0984710BD6D
:10010000C0010020C00100200000000010B5074C15
:100110002378002B09D1FFF7D3FF054B002B02D02A
:10012000044800E000BF0123237010BDC00100207F
:1001300000000000647F0008094B10B5002B03D0BD
:100140000849094800E000BF08480368002B02D1B5
:10015000FFF7C8FF10BD064B002BF9D09847F7E713
:1001600000000000C4010020647F0008C0010020DE
:10017000000000000023C25C0133002AFBD1581E9E
:1001800070470000002243088B4274D303098B425E
:100190005FD3030A8B4244D3030B8B4228D3030C57
:1001A0008B420DD3FF22090212BA030C8B4202D3F9
:1001B0001212090265D0030B8B4219D300E0090A21
:1001C000C30B8B4201D3CB03C01A5241830B8B422A
:1001D00001D38B03C01A5241430B8B4201D34B0313
:1001E000C01A5241030B8B4201D30B03C01A524178
:1001F000C30A8B4201D3CB02C01A5241830A8B42FD
:1002000001D38B02C01A5241430A8B4201D34B02E5
:10021000C01A5241030A8B4201D30B02C01A524149
:10022000CDD2C3098B4201D3CB01C01A52418309FD
:100230008B4201D38B01C01A524143098B4201D337
:100240004B01C01A524103098B4201D30B01C01A62
:100250005241C3088B4201D3CB00C01A52418308DC
:100260008B4201D38B00C01A524143088B4201D309
:100270004B00C01A5241411A00D201465241104669
:100280007047FFE701B5002000F0F0F802BDC0465E
:100290000029F7D076E7704703460B437FD400224E
:1002A00043088B4274D303098B425FD3030A8B420A
:1002B00044D3030B8B4228D3030C8B420DD3FF2274
:1002C000090212BA030C8B4202D31212090265D042
:1002D000030B8B4219D300E0090AC30B8B4201D3F5
:1002E000CB03C01A5241830B8B4201D38B03C01A3C
:1002F0005241430B8B4201D34B03C01A5241030BB3
:100300008B4201D30B03C01A5241C30A8B4201D363
:10031000CB02C01A5241830A8B4201D38B02C01A0E
:100320005241430A8B4201D34B02C01A5241030A85
:100330008B4201D30B02C01A5241CDD2C3098B426A
:1003400001D3CB01C01A524183098B4201D38B01E7
:10035000C01A524143098B4201D34B01C01A52418A
:1003600003098B4201D30B01C01A5241C3088B42CF
:1003700001D3CB00C01A524183088B4201D38B00BA
:10038000C01A524143088B4201D34B00C01A52415C
:10039000411A00D201465241104670475DE0CA0F33
:1003A00000D04942031000D34042534000229C46F3
:1003B00003098B422DD3030A8B4212D3FC228901FD
:1003C00012BA030A8B420CD3890192118B4208D3D3
:1003D000890192118B4204D389013AD0921100E035
:1003E0008909C3098B4201D3CB01C01A5241830949
:1003F0008B4201D38B01C01A524143098B4201D376
:100400004B01C01A524103098B4201D30B01C01AA0
:100410005241C3088B4201D3CB00C01A524183081A
:100420008B4201D38B00C01A5241D9D243088B4270
:1004300001D34B00C01A5241411A00D20146634613
:1004400052415B10104601D34042002B00D5494277
:10045000704763465B1000D3404201B5002000F0B6
:1004600005F802BD0029F8D016E770477047C0466E
:100470008446081C6146FFE71FB500F027FC0028F2
:1004800001D40021C8421FBD10B500F0B3FB4042AB
:10049000013010BD10B500F019FC002801DB002070
:1004A00010BD012010BDC04610B500F00FFC0028A3
:1004B00001DD002010BD012010BDC04610B500F0C8
:1004C000C1FB002801DC002010BD012010BDC0468A
:1004D00010B500F0B7FB002801DA002010BD0120A4
:1004E00010BDC046002B11D1002A0FD1002900D128
:1004F000002802D00021C943081C07B4024802A109
:100500004018029003BDC04665FFFFFF03B4684674
:1005100001B5029800F01EF8019B9E4602B00CBC8B
:100520007047C0469E2110B5C905041CFFF7D0FFD7
:10053000002803D1201C00F0A7FE10BD9E21201C26
:10054000C90500F01BFD00F09FFE80231B069C46A2
:100550006044F2E7F0B54D46564644465F46F0B477
:10056000924683B004000D0099468B422FD82CD0C0
:100570004946504601F052FA29000600200001F0D9
:100580004DFA331A9846203B9B4600D574E05346FB
:100590005A4693401F005346424693401E00AF42C6
:1005A00029D826D05B46A41BBD41002B00DA79E098
:1005B000002200230092019301235A4693400193A5
:1005C000012342469340009319E08242D0D9002291
:1005D0000023009201930C9B002B01D01C605D60F6
:1005E0000098019903B03CBC90469946A246AB46A0
:1005F000F0BDA342D6D900220023009201934346C6
:10060000002BE8D0FB0772081A4346467B080EE031
:10061000AB4201D1A2420CD8A41A9D410120241959
:100620006D410021013E24184D41002E06D0AB4201
:10063000EED9013E24196D41002EF8D15B46009899
:10064000019900196941002B22DB2B005A46D34047
:100650002A004446E2401C005B461500002B2CDBC0
:1006600026009E40330026004746BE403200801AD6
:10067000994100900191AEE7424620239B1A5246D1
:10068000DA40414613004A468A4017001F4382E77A
:10069000424620239B1A2A0046469A402300F340F4
:1006A0001343D5E74246202300219B1A00220091E4
:1006B00001920122DA40019282E74246202326007D
:1006C0009B1ADE402F00B446974066463B003343FA
:1006D000C9E7C046F8B54A02430244004E00C50FC0
:1006E000240E28009B09360EC90F92098D4259D05D
:1006F000A01B002800DC8DE0002E1AD1002A00D0BB
:1007000079E05A0704D00F221A40042A00D004339B
:100710005A0138D50134FF2C00D189E028009B0113
:100720005B0AE4B25B02E4055B0A2343C00718439B
:10073000F8BDFF2CE5D08021C9040A431B2800DD49
:1007400089E016002021C640081A8240511E8A41C5
:1007500032439B1A5A0114D59B019E09300001F0C7
:100760003FF905388640844265DC041B33002020B5
:100770000134E340041BA640721E9641002433431B
:10078000BFE75A07BFD1DF082800FF2C2FD1002F69
:1007900000D187E08022D20313003B435B025B0A57
:1007A000FF24BFE7A11B002949DD002E29D0FF2C23
:1007B000A7D08026F60432431B2900DD8DE0170008
:1007C0002026CF40711A8A40511E8A413A439B1815
:1007D0005A01D6D50134FF2C64D0012276491A4043
:1007E0005B080B4013438CE7031ECAD100207B0239
:1007F0005B0AE4B296E701380028AAD0FF2C9DD10D
:100800007FE7002A00D17CE701390029DFD0FF2CE7
:10081000D2D176E7002820D1601CC0B2012853DD78
:1008200080279E1AFF0437402FD0D61A0D0095E777
:100830002800002376E7614B241A334061E7002942
:100840004DD1611CCEB2012E2FDDFF292AD09B187D
:100850005B080C0055E701227BE7002C1BD1002B25
:100860005BD0C04300280CD0FF2E7ED01B2800DDBB
:1008700092E01D002024C540201A8340581E834169
:100880002B43D31A34000D0064E7002E00D065E737
:1008900000200024ABE7FF2E67D08024E404404210
:1008A0002343E3E7FF2400233CE7002C61D1002B26
:1008B0007ED0002A00D124E79B185A0100D460E7BB
:1008C0003E4A0C0013401CE7002C1ED1002B2FD1F8
:1008D000002A66D013000D0013E7012277E7002CF1
:1008E0001FD1002B5AD0C94300290BD0FF2E50D066
:1008F0001B295FDC1F002024CF40611A8B40591E4A
:100900008B413B439B18340062E7002B1CD1002A2B
:100910004AD013000D00FF24F3E6130034000D004D
:10092000EFE6FF2E35D08024E40449422343DFE77D
:10093000002A00D1E5E68027981AFF04074000D17D
:1009400052E7D31A0D00DCE6FF24002A00D1D8E6D6
:100950008020DB08C003034204D0D208024201D148
:1009600013000D00DB00FF24CBE61300FF240D0075
:10097000C7E6002B0DD0FF24002A00D1C1E680215C
:10098000DB08C9030B42EDD0D2080A42EAD11300BA
:10099000E8E71300FF24B4E6012372E713003400F4
:1009A000AFE60027002022E780270020FF03F1E6C2
:1009B0001300A6E60123A5E7FFFFFF7DFFFFFFFB76
:1009C000F0B5564644465F464D46F0B444024600F4
:1009D000C70F83B08846650A360EBA463DD0FF2E53
:1009E00022D00023EC00802599469B46ED04254348
:1009F0007F3E43465C025800DB0F640A000E9846B7
:100A000036D0FF2830D080230021E400DB041C43D3
:100A10007F38301A0190484642460843724E8000A3
:100A200030587A4013008746002D44D10823994658
:100A3000063B9B46DDE70122FF2000241A406402AA
:100A4000C305640AD2071C431443200003B03CBC16
:100A500090469946A246AB46F0BD002D20D1042316
:100A60009946033B9B46C4E7002C17D1022102E0C4
:100A7000002C0AD10121321A01924A4643460A4308
:100A80005A48920082587B409746200000F0A8FF09
:100A9000431F76309C4040420021BAE70321B8E76B
:100AA000280000F09DFF431F9D4000237630464202
:100AB00099469B469DE70C239946093B9B4698E740
:100AC00080240022E403FF20B9E70024C2468B46BD
:100AD0005A465346022AAED0032A7DD0012A31D18C
:100AE000012200201A400024A9E70122101A1B2825
:100AF00056DD1A4000200024A1E78023DB031D42BD
:100B00004BD18023DB032B435C02640A3A00FF20B5
:100B100095E76D016001854230D2019A0024013AC7
:100B200001921B220127290064006D00002901DBCE
:100B3000A84201D82D1A3C43013A002AF3D16A1E7B
:100B400095412C4301987F300028CEDD620704D008
:100B50000F222240042A00D00434220103D5244A63
:100B6000019814408030FE2800DD64E70122A401D2
:100B7000640AC0B21A4062E72C00A9E72D1A1A22B3
:100B80000124CFE76B02BCD500248023DB031C4388
:100B90006402640A4246FF2051E71C42B3D1F4E7E5
:100BA00021002022C140101A8440621E94410C434F
:100BB000620704D00F222240042A00D004346201CC
:100BC00004D5012201201A40002438E70122A401A3
:100BD000640A1A40002032E78023DB031C436402CE
:100BE000640A5246FF202AE78C810008CC81000865
:100BF000FFFFFFF7430270B542004C005D0AC30FD0
:100C00004802120E460A240EC90FFF2A0FD0FF2CED
:100C100011D00120A24200D070BDB542FCD18B4260
:100C20000DD0002AF8D12800431E9841F4E7012096
:100C3000002DF1D1EBE70120002EEDD1E9E70020F6
:100C4000EAE7C0464302F0B542005D0AC30F48021E
:100C5000440A4800120E000EC90FFF2A1FD0FF28B9
:100C600022D0002A09D16E426E4100280FD1002CFB
:100C70000DD10020002D09D005E0002801D1002C65
:100C800001D08B4213D0584201231843F0BD002EEF
:100C9000F7D048424141012049420843F6E7002D80
:100CA000DDD002204042F1E7002CDAD0F9E78242A1
:100CB000E9DC04DBA542E6D80020A542E6D2584292
:100CC000434101205B421843E0E7C0464302F0B5D0
:100CD00042004C005E0AC30F4802120E450A240E61
:100CE000C90FFF2A17D0FF2C19D0002A0BD1704250
:100CF0007041002C17D0002807D048424141012004
:100D000049420843F0BD002C13D08B4214D0584206
:100D100001231843F6E70220002EF3D1E3E7022077
:100D2000002DEFD1E1E7002DE5D10020002EE9D024
:100D3000EDE7002DE9D1EAE7A242E8DC04DBAE42B0
:100D4000E5D80020AE42DDD25842434101205B424B
:100D50001843D7E7F0B557464E4645464300E0B442
:100D600046028846760A1F0EC40F002F47D0FF2F79
:100D700025D0002380259A469946F600ED042E439F
:100D80007F3F434642465D02D20F5B006D0A1B0E59
:100D9000904640D0FF2B39D080220020ED00D204B5
:100DA00015437F3BFB1842465746591C62408C4610
:100DB00007430F2F5CD86F49BF00C9598F46002EDB
:100DC00045D108239A46063B9946DAE7424602286F
:100DD0002DD0032800D1C3E0012800D0A2E00025D7
:100DE00000260240D4B27602ED05760A2E43E407CF
:100DF000264330001CBC90469946A246F0BD002E0A
:100E00001AD104239A46033B9946BAE72A00511E99
:100E10008A41901CC6E70120002DC3D0280000F0B5
:100E2000DFFD431F76309D4043420020BAE7012496
:100E3000FF2514400026D6E7300000F0D1FD431F07
:100E40009E400023763047429A46994699E70C2304
:100E50009A46093B994694E780260024F603FF252D
:100E6000C1E735004846B2E7350022004846AEE704
:100E70002904090C0800370C3604360C2C0C794375
:100E8000704367437443060C64183619B14203D9A2
:100E900080214902884647440004000C31040918A7
:100EA0008D01681E8541890E2943350CED19AD0170
:100EB0000D43290104D5012369081D4063460D43F4
:100EC00019007F31002925DD680704D00F20284054
:100ED000042800D00435280103D5274980330D406C
:100EE0001900FE29A3DC0124AD016E0A1440CDB225
:100EF00079E78020C003064207D0054205D1284388
:100F00004602760A4446FF256DE706437602760AD6
:100F1000FF2568E70124611A1B2905DD144000251F
:100F2000002660E76346CBE72E002023CE40591A07
:100F30008D406B1E9D412E43730704D00F23334019
:100F4000042B00D00436730104D50124012514407C
:100F5000002648E70124B601760A1440002542E73E
:100F600080260124F6032E437602760A1440FF25DC
:100F700039E7C0460C820008FFFFFFF7F8B54A02C8
:100F80004E0043024400240EC50F9B09360EC90FC4
:100F90009209FF2E00D183E001204140A01BA9420D
:100FA0005CD0002800DC95E0002E1CD1002A00D087
:100FB00081E05A0704D00F221A40042A00D00433DB
:100FC0005A013BD50134FF2C00D191E001209B0157
:100FD0005B0AE4B205405B02E4055B0AED072343CC
:100FE0002B431800F8BDFF2CE3D08021C9040A432D
:100FF0001B2800DD90E016002021C640081A824020
:10100000511E8A4132439B1A5A0115D59B019E09F4
:10101000300000F0E5FC0538864084426CDC041B9F
:10102000330020200134E340041BA640721E964189
:1010300000243343BDE70D005A07BCD1DF0801236C
:101040001D40FF2C33D1002F00D190E08022D2032D
:1010500013003B435B025B0AFF24BCE700284FDD23
:10106000002E2ED0FF2CA4D08025ED042A431B286F
:1010700000DD97E016002025C640281A8240501E49
:10108000824132439B185A01D5D50134FF2C6DD0D3
:1010900001227B481A405B08034013430D0088E798
:1010A000002A00D07AE777E7031EC5D100257B022E
:1010B0005B0AE4B28FE701380028A4D0FF2C97D157
:1010C00077E7002A00D174E701380028DAD0FF2C36
:1010D000CDD16EE7002821D1601CC0B2012858DDB7
:1010E00080279E1AFF0437402FD0D61A0D008FE7B5
:1010F00001231D4000236EE7624B241A334058E75A
:10110000002851D1601CC6B2012E33DDFF282DD03E
:101110009B185B0804004CE7012274E7002C1AD0EE
:10112000FF2E1FD08024E404404223431B2800DD0F
:1011300096E01D002024C540201A8340581E83419C
:101140002B43D31A34000D005EE7002E00D05FE77A
:1011500000250024ABE7002B44D0C0430028F0D08A
:10116000FF2EE3D11300FF240D0022E70D00FF2422
:10117000002330E7002C5DD1002B7DD0002A00D168
:1011800017E79B185A0100D456E73E4A0400134063
:101190000FE7002C1ED1002B2FD1002A65D01300A1
:1011A0000D0006E701226DE7002C1FD1002B59D05E
:1011B000C04300280BD0FF2E4FD01B285EDC1D0043
:1011C0002024C540201A8340581E83412B439B187E
:1011D000340058E7002B1CD1002A49D013000D0021
:1011E000FF24E6E6130034000D00E2E6FF2E34D0C3
:1011F0008024E40440422343DFE7002A00D1D8E6FC
:101200008027981AFF04074000D14DE7D31A0D003C
:10121000CFE6FF24002A00D1CBE68020DB08C00304
:10122000034204D0D208024201D113000D00DB00BA
:10123000FF24BEE6002B10D0FF24002A00D1B8E620
:101240008020DB08C003034203D0D208024200D151
:101250001300DB000D00FF24ABE61300FF24A8E61B
:1012600001236EE713003400A3E6002700251EE7E4
:1012700080270025FF03E9E613009AE60123A6E78D
:10128000FFFFFF7DFFFFFFFB4302590A4300C20F30
:101290001B0E00207E2B0EDD9D2B0DDC802000041C
:1012A0000143952B0BDC9620C31AD9400B00584202
:1012B000002A00D118007047034BD018FBE7963B7B
:1012C00099400B00F3E7C046FFFFFF7F70B5002891
:1012D00030D0C317C5185D40C40F280000F080FB54
:1012E0009E231B1A962B0DDC9622D21A95406A0279
:1012F000520AD8B25202C005520AE40702432243FE
:10130000100070BD992B19DC9922D21A9540124A0F
:101310002A40690704D00F210D40042D00D004326B
:10132000510103D50C4B1A409F231B1A9201520AFC
:10133000D8B2DFE7002400200022DBE705222E00E0
:10134000121AB921D6402A00C91A8A40551EAA414C
:1013500035001543DBE7C046FFFFFFFB70B5041EF9
:1013600028D000F03DFB9E231B1A962B0ADC962208
:10137000D21A94406202520AD8B25202520AC005EE
:10138000104370BD992B18DC9922D21A9440114A4F
:101390002240610704D00F210C40042C00D00432FD
:1013A000510103D50B4B1A409F231B1A9201520A7D
:1013B000D8B2E2E700200022DFE705222500121A5A
:1013C000B921D5402200C91A8A40541EA2412C00DE
:1013D0001443DCE7FFFFFFFBF0B55F4656464D4682
:1013E0004446F0B40D0399464E002B0B87B007001E
:1013F000924680469B46760DCC0F002E69D06D4BF1
:101400009E4235D05B468022DD001204430F134319
:101410002B439B46C3009846674B00279C460023FE
:10142000664401934A4615035000D20F53462D0BD4
:10143000400D914600D176E05E4A90426CD0802209
:101440005B0F120413435C4AED0094461D43534660
:101450000022DB00604449463618701C614002904F
:1014600017430F2F00D9AFE05448BF00C759BF46FC
:101470005B461F4300D088E000239B46984602331A
:1014800008270193CEE74946022A6AD0032A00D1F1
:1014900009E2012A00D0BBE111400022002300250F
:1014A0009046CCB200212D030A0D12052D0B1543D9
:1014B000434A1B0515401D436D00E4076D08254395
:1014C0004046290007B03CBC90469946A246AB4630
:1014D000F0BD034352D05B46002B00D18AE1584651
:1014E00000F07EFA03000B3B1C2B00DD7BE11D228C
:1014F000D31A3A0001005D46DA4008398D401300E6
:101500008F402B439B46B8462E4B00279C4600231A
:1015100060444642019385E752462A432CD1002578
:101520000023022297E752462A4321D0002D00D102
:1015300054E1280000F054FA03000B3B1C2B00DDA3
:1015400046E11D21CB1A51460200D9405346083AC4
:10155000954093400D431B4A94466044404200220C
:1015600079E7012400220C40124B0025904699E7B0
:101570000025002301226EE703226CE700239B462F
:1015800098460133042701934CE703230C2701936A
:1015900048E700238025984600242D03054B81E76A
:1015A0005D464346019A6FE75D4643462100019A36
:1015B0006AE7C046FF07000001FCFFFF4C820008FD
:1015C000FFFF0F80F30300004246120C91461A0CF5
:1015D0009446424617044A461B041B0C5A43604675
:1015E00090464A4642431000039262461C003F0C5C
:1015F0007A437C4342440192220C9246019A52441F
:10160000904506D98246802040028046C24450461A
:101610000390100C049048462404240C1204121960
:1016200005922A0C2D042D0C68432C008246484656
:101630007C4350438146200C8046574357444744DF
:10164000BA4503D9802040028046C144380C3F048B
:10165000B84648442404240C01900498A044404413
:1016600004905846000C814658460404200C8246DB
:10167000070048465F434C46434360466043644628
:10168000834650464443380C8446E4186444A342DD
:1016900003D980235B029C46E34448463F04230C65
:1016A0003F0C2404E419574668436F4384464D4673
:1016B000504655434243380C814662444A445B4499
:1016C000944503D9802040028446654403983F0432
:1016D000834604983F0C8446E344C345804140421E
:1016E0008246100484460198674484466744A344B4
:1016F000BC46A345A4419946D44464428742BF41B5
:10170000D4458041E144A04699459B417F424042F7
:10171000C8440743120CBA18A045A4415F423B00DD
:1017200064422343D71843467D19DB0D6D021D43E8
:101730005B465A02059B1A43531E9A415B46DB0DDA
:101740001A4343465B021343EA0107D501225C08B2
:1017500013402343EA07029E13436D08574AB21809
:10176000002A4BDD580709D00F201840042805D067
:10177000181D98429B415B42ED180300E80104D517
:101780004F4A15408022D200B2184E48824200DDF6
:10179000E7E60124DB08680718436D02530580461D
:1017A0002D0B5B0D0C407DE6802259461203114241
:1017B00008D0154206D115432D0398462D0B4C46F3
:1017C000414B6FE65D4615432D032D0B3E4B69E6FD
:1017D00003005546283B9D400023BCE6504600F0E0
:1017E000FFF82030A8E60300283B9F400023BB46BB
:1017F000984689E600F0F4F8203073E60124A61A32
:10180000382E07DD00220C4000230025904649E6D3
:10181000029EA3E71F2E20DC20222C001800921B22
:10182000F040944093400443581E83411C43F540CC
:10183000630709D00F232340042B05D023001C1D70
:101840009C4292415242AD182B021FD50124002226
:101850000C4001230025904624E61F202C00404226
:10186000821AD440202E1CD04022961BB5402B4318
:10187000581E83410720234318400025002809D023
:101880000F2200251A401C00042AD8D12300680723
:101890006D022D0B0124DB08034398460C40002306
:1018A00000E60025E3E780220124120315432D03FF
:1018B00098462D0B0C40044BF4E5C046FF03000096
:1018C000FFFFFFFEFE070000FF0700000B0330B51F
:1018D000134D1A0B4B005B0DC90F0024AB4211DDF9
:1018E000104CA34210DC8024640322430E4CE41A03
:1018F0001F2C0CDD0D48C31ADA4013005C4200298E
:1019000000D11C00200030BD094BCC18FAE7E040A4
:10191000084CA44663449A4013000343EEE7C046D4
:10192000FE0300001D040000330400001304000047
:10193000FFFFFF7FEDFBFFFF4200120E511C430231
:10194000C9B270B55D0AC40F012915DDE021890017
:101950008C466D071B0B6244002128000D0D2D05E0
:101960002B431C4D52052B40520813435B00E407E8
:101970005B082343190070BD002A15D1002D1FD02C
:10198000280000F02DF80A281DDC0B232A001B1A62
:10199000DA4013000200153295400F4A1B03121A59
:1019A00052051B0B520DD7E7002D06D080221B0BD2
:1019B000120313436D07094ACEE7084A0023CBE719
:1019C00000220023C8E703000B3B9D402B000025AD
:1019D000E3E7C046FFFF0F8089030000FF07000018
:1019E0001C2101231B04984201D3000C10391B0A4F
:1019F000984201D3000A08391B09984201D3000913
:101A0000043902A2105C40187047C0460403020269
:101A100001010101000000000000000010B50029D4
:101A200003D1FFF7DDFF203002E0081CFFF7D8FFED
:101A300010BDC0460122234B30B5D96A89B011438D
:101A4000D962D96AA020114001910199D96A002573
:101A50001143D962D96A04240A4080210292029A71
:101A60009A6B89020A439A63022303A9C00503946F
:101A7000049306930794059500F0C0FBA02008236B
:101A8000C00503A90393079400F0B8FB0E4C0F4B5D
:101A900020002360E1235B0263600C23A560E56006
:101AA0002561A561636102F0C7F8002800D0FEE758
:101AB000074B8022636558235200E252E06609B06A
:101AC00030BDC04600100240A40300200044004086
:101AD00014040020802270B5174C5205A36B94B0FB
:101AE0001343164AA3631168154B00260B4080214F
:101AF00009010B4313600223069310938023DB023A
:101B00001293802310220125DB0306A809950A926F
:101B10001393119601F06AF80F230121019301A894
:101B20000C3B029303960496059601F08BFB636BC6
:101B30001D43656314B070BD00100240007000408A
:101B4000FFE7FFFF802110B50E4C03000E4A49004D
:101B5000200005F03DF92000FEF70CFB0B4B82B294
:101B600021000B4801F0C2FD002003F015FB6420AA
:101B700000F0DCFA002003F01BFB642000F0D6FA32
:101B8000F2E7C046DC0100208C82000888130000C8
:101B9000A4030020F0B545465F465646E0B486B043
:101BA00000F0A2FAFFF796FF002003F0CFFA012120
:101BB000002003F009FBFFF73DFFDA4D002029006C
:101BC00003F090F8012800D196E0291D012003F0D0
:101BD000C7F9012800D18FE0286803F0F9F801283F
:101BE00000D189E0686803F0A1FA012800D183E000
:101BF0000021286803F0FCF801287DD00021286826
:101C000003F072F9012877D00121286803F06CF9FC
:101C1000012871D00221286803F066F901286BD0F1
:101C20000021286803F04CF9012865D005212868B7
:101C300003F06EF901285FD0BB4CBC4B220043CBB4
:101C400043C243CB43C243CB43C2196811601B79E3
:101C500021001371B64B28229846B64B404601F03E
:101C600045FDB54F3B78DBB2022B26D0022B46D97F
:101C7000032B74D0042BF5D10021286803F00CF954
:101C8000012839D02200AD4B43CB43C243CB43C2E2
:101C900043CB43C21968404611601B792100137180
:101CA000A44B282201F022FD0023AB723B702B7263
:101CB0006B723B78DBB2022BD8D12900286808313F
:101CC00003F0D4F8012800D14CE12A7A6B7A9A42C9
:101CD00009D02E236A7223800122964B21004046B0
:101CE00001F004FD2B7AAA7A002A01D003223A706F
:101CF000202BB7D1AB7AB5E79148FFF723FF012B33
:101D0000B0D122008F4B43CB43C243CB43C203CB62
:101D100003C21B78210013704046864B202201F03D
:101D2000E5FC33228849200005F026F82100814B8C
:101D30003222404601F0DAFCFA20800000F0F6F989
:101D40002021286803F0A8F80128D5D001212868AF
:101D500003F0F2F80128CFD002233B7082E729007C
:101D600028680B3103F054F80128C5D0EB7A002B1A
:101D700000D177E7002003F00FFA00236A46D373FF
:101D80000023049305930F236B441900286803F084
:101D90006DF80128B0D080212B7A6C4A49002000D0
:101DA00005F016F82000FEF7E5F9210082B2614B3C
:101DB000404601F09BFCFA20800000F0B7F92200B9
:101DC000634B43CB43C243CB43C219884046118087
:101DD0009B7821009370574B1A2201F087FC6B46C9
:101DE000DB7B002B00D185E000239A4628E0301CE5
:101DF000FFF74AFA8346FFF7B1FA011C301CFFF7E0
:101E0000BDF8FFF799FD534B0022FFF7E5FAFFF706
:101E10005DFD2B235A46802101904900009220004D
:101E20004D4A04F0D5FF2000FEF7A4F9414B82B2E1
:101E30002100404601F05AFC6B46DB7B9A4559DA9B
:101E400005AA04A9286802F0F9FF012800D153E788
:101E5000049E0021301CFEF73BFB002803D18023A9
:101E60001B069C466644301CFFF70EFA01239C4675
:101E70008346E244FFF772FA011C301CFFF77EF83C
:101E8000FFF75AFD0022334BFFF7A6FAFFF71EFDBE
:101E90005B468021314A490001900093200053465F
:101EA00004F096FF2000FEF765F9210082B2214B75
:101EB000404601F01BFC059E0021301CFEF708FB8C
:101EC000002894D180231B069C466644301CFFF7F3
:101ED000DBF98346FFF742FA011C301CFFF74EF88E
:101EE000FFF72AFD1B4B0022FFF776FAFFF7EEFC07
:101EF0002D238FE722001A4B43CB43C243CB43C26F
:101F0000196840461160998891809B7921009371EE
:101F1000084B1E2201F0EAFB002003F049F90423DC
:101F20003B709FE6DC020020DC010020CC8300082F
:101F3000A40300208813000000000020A0830008F4
:101F40007C7F0008A8820008CC820008008300087B
:101F50004083000800005940908300087C830008FB
:101F60005C830008012006B01CBC90469A46A3463C
:101F7000F0BDC046802310B59B01984207D0802356
:101F8000DB0098420FD10122094B9A7210BD00204C
:101F900003F056F90028F9D1064B1A78002AF5D13A
:101FA00001321A70F2E704480830FFF7CBFDC04653
:101FB000DC020020000000207C7F00087047C04643
:101FC000FEE7C04610B500F0A3F810BD802010B5A4
:101FD000800100F003FA8020C00000F0FFF910BD7E
:101FE00070B516000C008D18002A05DD00E000BF5A
:101FF00020700134AC42F9D1300070BD70B51600CC
:102000000C008D18002A05DD2078013400E000BFA7
:10201000AC42F9D1300070BD0A4A10B51368002BEC
:102020000CD069461818884202D81060180010BDFC
:1020300004F076FE0C2303600D3BF7E7024B1360C0
:10204000EFE7C046E80200202806002001204042B9
:102050007047C04680239B0100204B607047C046FC
:1020600001207047002070470D488546002103E09D
:102070000C4B5B58435004310B480C4B42189A42AE
:10208000F6D30B4A02E0002313600432094B9A4254
:10209000F9D302F081FC04F049FEFFF77BFDFEE777
:1020A000002000202885000800000020C00100203A
:1020B000C001002028060020FEE700007047C0464F
:1020C000FA21084B10B5890004001868FEF75AF889
:1020D00000F078F8012000222100404200F034F89E
:1020E000002010BD040000204022084B10B51968E4
:1020F00003200A431A60022219680A431A60FFF794
:10210000DFFFFFF7DBFF002010BDC04600200240CC
:10211000024A1368013313607047C046140600205A
:10212000014B18687047C0461406002010B582B0F5
:102130000190FFF7F5FF0400FFF7F2FF019B001B82
:102140009842F9D302B010BD70B5002814DB032407
:1021500083082040FC342600134AC0259446C00062
:1021600089018640214081409B006344AD005A595B
:10217000B2431143595170BD03240F23C0B2034031
:102180002040FC342500094AC0009446890185405E
:1021900021408140083B9B089B006344DA69AA43C5
:1021A0001143D961E7E7C04600E100E000ED00E03F
:1021B0001F2318401E3B8340014A13607047C046EE
:1021C00000E100E00A4A431E012093420ED8C020DD
:1021D000084A094953600B6A00061B021B0A0343A5
:1021E0000B62002300209360073313607047C046E2
:1021F000FFFFFF0010E000E000ED00E0F0B5444616
:102200005F4656464D46F0B48846096883B00024C0
:102210000023002900D1AEE001229346624A8A469B
:10222000944667E0013E012E00D884E00326A640D4
:10223000F643056835402F0003251540A5403D4372
:102240000560C5682E404546AD68A5402E438025F3
:102250006D05C6602A4248D0544903274D6B594644
:102260000D4352491F404D6351499D088946B900AD
:102270000F27AD004D448F408946A021AE68C905A7
:10228000BE43884200D17DE04A4FB84200D17BE096
:10229000494FB84200D17BE0484FB84200D17BE0C3
:1022A000474FB84200D17BE0062749468F40614640
:1022B0003E43AE600D680099CE43D10358D43540FB
:1022C00061460D604D6891034FD4354061464D60C5
:1022D0008D68D10246D4354061468D60CD6892024A
:1022E0003DD4290031406246D16052460133023468
:1022F000DA4040D05D4651469D4029400091F4D0DF
:102300004246526810271600BE43022E8AD1DE08CC
:10231000B60081190191096A093F89460F211F40C2
:10232000BF00B9404E468E4341460969B9400F008F
:10233000019937430F6203264146A640C968F64318
:10234000A140876837400F43594687604768AF43CD
:102350003D0017090F409F403D43456069E70099E4
:102360002943C0E700990D43B6E700990D43ADE757
:1023700000990D43A4E703B03CBC90469946A246A1
:10238000AB46F0BD002792E75F4649468F408EE797
:10239000022749468F408AE7032749468F4086E750
:1023A000052749468F4082E70004014000100240A3
:1023B000000001400004005000080050000C0050D4
:1023C000001C005000690840411E8841C0B270479F
:1023D000002A01D1816270478161FCE7044B10B58E
:1023E0005A69104202D05861FFF7C4FD10BDC046C3
:1023F00000040140F0B510234746040080B40D00EE
:1024000016000227984622686B1C2DD1022110204D
:10241000936919422BD193691842F9D0202193690D
:102420001942FCD01023D3611033D36193699B0709
:1024300001D500239362012391690B4202D1916976
:102440000B43936151681E4B0B405360042363643C
:1024500020224123E254002301202232A354023AD5
:10246000A35404BC9046F0BD93691F4201D00020E4
:10247000F7E741469369194213D1002D04D0FFF7C5
:102480004FFE801B8542BED22022636C0320134383
:1024900063644123E25400232232A354023AA3543A
:1024A000DFE7202707E0002DD2D0FFF739FE801BA1
:1024B0008542CDD3226893691F42F4D0B2E7C0466B
:1024C00000E800FEF0B54746040080B40D00160099
:1024D000002945D010232027984604E0FFF720FE6E
:1024E000801B854243D3226893691F424CD14146E9
:1024F00093691942F2D020276B1C25D120219369C2
:102500001942FCD01023D3611033D36193699B0728
:1025100001D500239362012391690B4202D1916995
:102520000B4393615168194B0B4053600423636460
:1025300020224123E254002301202232A354023AF4
:10254000A35404BC9046F0BD93691F42DAD1002D1C
:10255000EED0FFF7E5FD801B8542E9D32268CBE78B
:10256000026893699B060FD49369DB06C3D42022CB
:10257000636C0320134363644123E254002322323B
:10258000A354023AA354DCE70020DAE700E800FE97
:10259000F8B51E00040015000268254B5068890537
:1025A00003402448890D03431943F3B21B04194324
:1025B00051602000079A0699FFF71CFF071E17D1EC
:1025C000012E09D023682A0A9A620699079A2000E8
:1025D000FFF710FF00280BD12168EDB28D62402576
:1025E000069B01330BD140228B691A42FCD004E0D8
:1025F000636C0127042B00D003273800F8BD8B69DA
:102600001D42FAD1069B002B08D0FFF789FD079BDE
:10261000C01A069B834201D32168E2E720224123AE
:10262000E25400232232A354023AA354E4E7C04602
:10263000009800FC00200080F8B51E000400150082
:102640000268254B5068890503402448890D0343DF
:102650001943F3B21B04194351602000079A0699ED
:10266000FFF7C8FE071E17D1012E09D023682A0ADA
:102670009A620699079A2000FFF7BCFE00280BD14A
:102680002168EDB28D628025069B01330BD180223B
:102690008B691A42FCD004E0636C0127042B00D044
:1026A00003273800F8BD8B691D42FAD1069B002B29
:1026B00008D0FFF735FD079BC01A069B834201D364
:1026C0002168E2E720224123E25400232232A3546E
:1026D000023AA354E4E7C046009800FC00200081C1
:1026E0007047C04610B5041E4ED04123C35CDBB218
:1026F000002B3ED0242241230121E25423681A6892
:102700008A431A606168214A0A401A619968204A1E
:102710000A40E1689A60012930D08422A068120240
:1027200002439A60022920D05A681A4900200A43BD
:102730005A60D968164A0A40DA6021696269114311
:10274000A26912020A43DA60216AE2690A431A6046
:10275000012219680A431A60202100234122636480
:10276000A15401322363A35410BD802212015A6088
:10277000DAE740228354FFF7B3FFBBE78022A1686A
:1027800012020A439A60CFE70120EDE7FFFFFFF056
:10279000FF7FFFFF008000027047C04670B5041E37
:1027A00013D04125242301210268435513688B432C
:1027B0001360FFF7F1FF002342220020636463559A
:1027C0002363A354023AA35470BD0120FCE7C04622
:1027D000F0B54D4644465F465646F0B483B0994640
:1027E0000CAB20CB04001E884123C35C0F00904635
:1027F0000220202B06D003B03CBC90469946A2464E
:10280000AB46F0BD002D3DD0002E3BD04023E25C16
:10281000012AF0D00122E254FFF782FC80231B0240
:1028200082469B4605E0FFF77BFC5346C01A1928F9
:102830002AD85A4623689B6913405B45F3D021226E
:102840004123E25401331F32E254002363649B4668
:102850006363534601930E9B6562009366854B4606
:10286000424639002000FFF7E7FE002816D0636CCF
:10287000042B04D040235A460320E254BBE75A46B7
:102880003C33E2540120B6E720224123E2540023E6
:102890002232A354023AA3540320ACE7638DFF2BEA
:1028A00063D9FF23226823855168434BBF050B4042
:1028B0004249BF0D0B433B435360FF231B0480255C
:1028C00098463D4E02E0638D002B60D052460E9933
:1028D0002000FFF78FFD002842D1636A2268591C4F
:1028E00061621B789362638D013B9BB26385238D8C
:1028F000013B9BB22385002BE5D1638D002BE2D0F9
:102900000E9B01330ED193691D42FCD0638DFF2BCA
:1029100017D9FF2323855368284933400B433B4392
:102920005360D0E793691D42F0D10E9B002BABD0D2
:10293000FFF7F6FB5346C01A0E9B8342A4D32268CE
:10294000DFE74046638D51689BB223851B04184026
:10295000802331409B040B4303433B435360B2E766
:10296000636C042B8ED0032045E72068618D124AEA
:10297000436889B21A40802321859B04C9B2BF05F0
:1029800009041343BF0D0B433B43436095E7524695
:102990000E992000FFF796FD0028E1D12021236841
:1029A000074AD9615D682A405A604123E1540133E6
:1029B000E054023BE0541EE7009C00FC0000FF01D5
:1029C00000E800FEF0B54D4644465F465646F0B47A
:1029D00083B099460CAB20CB04001E884123C35C16
:1029E0000F0090460220202B06D003B03CBC90463E
:1029F0009946A246AB46F0BD002D3DD0002E3BD0FF
:102A00004023E25C012AF0D00122E254FFF788FB68
:102A100080231B0282469B4605E0FFF781FB53465D
:102A2000C01A192837D85A4623689B6913405B455A
:102A3000F3D022224123E25401331E32E254002318
:102A400063649B466363534601930E9B65620093E8
:102A500066854B46424639002000FFF799FD002865
:102A600023D0636C042B04D040235A460320E25445
:102A7000BBE75A463C33E2540120B6E793691E4255
:102A80005BD10E9B002B06D0FFF74AFB5346C01AC2
:102A90000E9B83424BD220224123E2540023223258
:102AA000A354023AA35403209FE7638DFF2B61D9FF
:102AB000FF23226823855168444BBF050B404449DE
:102AC000BF0D0B433B435360FF23042580261B04AB
:102AD00098460E9B01331AD193691D42FCD0636A5C
:102AE000526A591C61621A70238D628D013B013A52
:102AF0009BB292B223856285002B02D1638D002B9D
:102B000014D1638D002B46D022680E9BE2E79369B7
:102B10001D42E4D10E9B002BBDD0FFF701FB5346B5
:102B2000C01A0E9B8342B6D32268D3E70E9B22685D
:102B30000133A3D193691E42FCD0638DFF2B09D9C9
:102B4000FF2351682385234B0B4023490B433B4311
:102B50005360D6E74146608D536880B220850004FB
:102B600008401C49194080239B040B4303433B430B
:102B70005360C6E72268608D1449536880B21940DB
:102B8000164B2085C0B2BF0500040B43BF0D0343A5
:102B90003B43536098E752460E992000FFF792FCA2
:102BA000002805D0636C042B00D165E703201CE7E7
:102BB000202123680A4AD9615D682A405A6041236E
:102BC000E1540133E054023BE0540EE7009800FC6E
:102BD0000024FF81009C00FC0000FF010024008213
:102BE00000E800FE4123C05CC0B27047F0B54F461C
:102BF0004646C0B4036883B00400DA0736D50C201B
:102C0000C849CA680240082A00D13EE1CA680240A9
:102C10000C2A00D135E1802361685B02994200D122
:102C200011E2A022D202914200D19DE1BD4DBE4AE7
:102C3000286802402A602A6813400193019B2A6891
:102C4000BA4B13402B60002900D096E1FFF768FAD9
:102C500080260700B60205E0FFF762FAC01B642871
:102C600000D9D6E12B683342F6D123689A072CD5D8
:102C70000C20AC49CA680240042A00D1CFE1CA68DE
:102C800002400C2A00D1C6E1E368A64D002B00D11A
:102C90002BE109212A6804278A4313432B60FFF79D
:102CA0003FFA060005E0FFF73BFA801B022800D937
:102CB000AFE12B689B4A1F42F5D021695368080297
:102CC0009B490B40034353602368DA0600D582E03A
:102CD0001A0717D56369934D002B00D119E1012321
:102CE0002A6D022613432B65FFF71AFA070005E049
:102CF000FFF716FAC01B022800D98AE12B6D1E428D
:102D0000F6D023685A0741D580220020854B520512
:102D1000996B8046114204D1996B0A439A6301234F
:102D200098468027834E7F0033683B4200D161E1A3
:102D30008022A3685200934200D10FE2002B00D101
:102D40009AE1A021C9008B4200D1FDE1754B7A4A7E
:102D5000196D0A401A65196D784A0A401A65FFF71D
:102D6000DFF9802681466F4FB600754D06E0FFF70C
:102D7000D7F94B46C01AA84200D94AE13B6D33420D
:102D8000F5D04346012B00D1D7E123689B0600D53F
:102D90008AE0A36A002B1CD00C21624DEA680A402D
:102DA0000C2A7BD02A68022B00D1DCE1654B2C0079
:102DB00013402B60FFF7B4F980250600AD0405E051
:102DC000FFF7AEF9801B022800D922E123682B42CD
:102DD000F6D1002063E00C22524DEB681A4227D056
:102DE000E369002B00D133E180222B6852001343AA
:102DF0002B60FFF795F980260700B60005E0FFF786
:102E00008FF9C01B022800D903E12B68454A3342E1
:102E1000F5D051684C4B0B40616A0B4353605368CB
:102E2000216A1B0209061B0A0B43536023684FE704
:102E30002B689B0502D5E369002B2FD0E021394B8D
:102E4000626A5868090201408A4200D845E1F020D0
:102E5000D968084200D0A1E08021986B490508425A
:102E600000D1B4E1334B1968C0235B011940C02382
:102E70005B01994200D091E0344BD0184642464164
:102E80008DE0CA68D20300D4C5E6264A12689203D0
:102E900000D4EBE66268002A00D0E7E6012003B028
:102EA0000CBC90469946F0BDA3691E4D002B00D185
:102EB000FCE001238021AA6889011A43AA606A6B99
:102EC00002261343224A6B63136A0B431362FFF714
:102ED00027F9070005E0FFF723F9C01B022800D9F6
:102EE00097E0AB681E42F6D053E701222B68042618
:102EF00093432B60FFF714F9070005E0FFF710F983
:102F0000C01B022800D984E02B681E42F6D123683A
:102F1000DBE601222B6D022693432B65FFF700F9B8
:102F200007001CE000100240FFFFFEFFFFFFFBFF59
:102F3000FFE0FFFF00700040FFFEFFFFFFFBFFFF11
:102F400088130000FFFFFFFEFF1FFFFF0040FFFF91
:102F500000000140FFF7E4F8C01B022859D82B6D90
:102F60001E42F7D12368CDE68020A64AC002116830
:102F70000143116011680B431360FFF7D1F88025FE
:102F80000700A04EAD0204E0FFF7CAF8C01B64289A
:102F90003FD833682B42F7D0236867E60026012527
:102FA00099490B68AB4333430B600B682B409E423F
:102FB00000D073E79349954B4868034013434B6037
:102FC0004B68206A1B0200061B0A03434B608D4BB3
:102FD000520BD968802301321B0293400A068C49A8
:102FE000120F8A5C0320D3408A4A1360FFF768F807
:102FF00023686DE633683B433360FFF791F80500C3
:1030000033683B4200D093E6FFF78AF8401B642800
:10301000F6D9032043E7CA68D20300D534E6794ADB
:103020001268520703D5E268012A00D036E7216909
:10303000744D08026A6878490A4002436A60DA06F9
:1030400000D445E6C7E66F4A13680B43136094E764
:103050002A68724B802613402B60FFF761F8B60098
:10306000070004E0FFF75CF8C01B0228D1D82B68EA
:103070003342F7D123682BE6624E684B326D8027CE
:1030800013403365326D664BBF0013403365FFF765
:1030900047F8644D814605E0FFF742F84B46C01AF9
:1030A000A842B6D8336D3B42F6D16AE60122AB683E
:1030B000022693435C4AAB60116A5C4B0B4013627F
:1030C000FFF72EF8070004E0FFF72AF8C01B0228DC
:1030D0009FD8AB681E42F7D15BE658684B49014068
:1030E000114359605968206A09020006090A014320
:1030F000F0205960D968084212D18021986B4905A7
:10310000084271D04A4B1968C0235B011940C023A3
:103110005B01994204D1474BD0184642464100E03A
:103120000026012538490B68AB4333430B600B681D
:103130002B409E4200D0B1E649E7324A3E4B916BAC
:103140000B409363236821E680202E4BC000196D4D
:1031500001431965196D0A431A6500E629490A6D8C
:1031600013430B65FBE5354B802713402B60FEF7BF
:10317000D7FFBF04804606E0FEF7D2FF4346C01AE1
:10318000022800D945E72B681E4E3B42F4D1226B42
:10319000E16AF3681143626B80241143284AA40456
:1031A000134080220B43F3603368520413433360AF
:1031B000FEF7B6FF050005E0FEF7B2FF401B022850
:1031C00000D926E733682342F6D0002067E6986BE3
:1031D0000143996316490868C02149019D6B01406C
:1031E00015482840986342E6986B0143996310495B
:1031F0000868C02149019D6B01400F482840986331
:1032000085E7C0460010024000200240FF1FFFFF7C
:103210002481000804000020FFE0FFFFFFFEFFFF05
:10322000FFFBFFFF8813000000000140FFDFFFFFEE
:10323000007000400040FFFFFFFFFFEFFFFFFFFEB9
:10324000FFFF02FFF8B546464F460C000121764AC3
:10325000C0B4136806000B40A3420CD213688B4322
:1032600023431360136819408C4204D001200CBC26
:1032700090469946F8BD33689A0706D5F0206B4909
:10328000CA688243B0680243CA60DB072BD5674A2D
:1032900073681268022B7DD0032B76D0012B00D1EE
:1032A00092E09205E2D50321604DEA688A43134318
:1032B000EB60FEF735FF73680700022B74D0032B19
:1032C00000D18CE0012B00D199E00C239846584B9B
:1032D000994604E0FEF724FFC01B484558D84246F3
:1032E000EB681A42F6D101214F4A13680B409C4209
:1032F00005D213688B43136013681942B6D1336843
:103300005A0706D549494B4AC8680240F06802434B
:10331000CA601B071ED40C23444AD1680B40082BFB
:103320003BD00C2B1FD0042B39D0802053680002D7
:103330001B045B0F013398403C4B3F4ADB681B0684
:103340001B0FD35CD8403D4B18600320FEF7B8FE3E
:1033500000208CE735483169C368394AC9001340F9
:103360000B43C360D7E78B0236481B0FC45C0902CE
:10337000D368890F0131DB032CD41368DB064ED5EB
:1033800031486043FCF7FEFED6E792018BD46DE72F
:1033900003206CE7920386D468E72C48CCE71368D7
:1033A000DB0615D52848C7E70A339846204B9946CF
:1033B00004E0FEF7B5FEC01B4845E9D84246EB687D
:1033C0001340082BF5D18EE7520700D56BE74DE788
:1033D0001F48B1E71D486043FCF7D4FEACE7093352
:1033E0009846134B994604E0FEF79AFEC01B4845E9
:1033F000CED84246EB6813400C2BF5D173E70B3364
:1034000098460B4B994604E0FEF78AFEC01B4845E0
:10341000BED84246EB681340042BF5D163E70C4855
:103420006043FCF7AFFE87E7002002400010024037
:1034300088130000FFF8FFFF24810008040000202B
:10344000FFC7FFFF1881000800093D0000127A0045
:103450000024F4000C231B4A10B5D1680B40082B44
:1034600022D00C2B0ED0042B07D0802053680002F2
:103470001B045B0F0133984010BD1368DB0615D5A4
:103480001148F9E78B0211481B0FC45C0902D3688D
:10349000890F0131DB030BD41368DB060DD50A4815
:1034A0006043FCF76FFEE7E70948E5E70948E3E713
:1034B00007486043FCF766FEDEE706486043FCF71A
:1034C00061FED9E70010024000093D0018810008A4
:1034D00000127A000024F400044B054ADB685B0507
:1034E0005B0FD35C034A1068D8407047001002405D
:1034F0003481000804000020044B054ADB689B046B
:103500005B0FD35C034A1068D8407047001002403C
:10351000348100080400002010B5082800D195E08F
:1035200026D9202847D000D87AE040283FD18021F2
:10353000634AC904D36C0B4000D09FE0136800209D
:103540009B011CD5D3685F48D1689B021B0FC35CED
:103550000902D068890F0131C00300D5A6E01268C6
:10356000D20600D5A4E058485843FCF70BFE06E00D
:1035700002285ED0042803D0012840D0002010BDCE
:10358000C0224F491201CB6C13404FD0802424013C
:10359000A34200D181E08020C000834265D000209A
:1035A0009342ECD1086D8005C00FC003E7E780238C
:1035B0001B019842E2D1C0218024414A8902106D4A
:1035C000136D64020B40A34226D08024A402A342C0
:1035D0005ED000208B42D2D113682342CFD0136833
:1035E000C02280219203134089038B4266D093420C
:1035F00062D08022520393425CD03448BFE703215B
:103600002F4AD36C0B404ED0022B31D0012B2CD043
:103610000020032BB3D1106D8005C00FC003AEE7AF
:103620001028ABD1264B9B6B5B02A7D5FFF754FF4D
:10363000A5E70C21224AD36C0B40F7D0082B17D0FA
:10364000042B12D000200C2B99D1E4E7C0231C4A94
:103650009B01D16C0B40E9D0802189018B4207D0BE
:1036600080225201934200D088E7FFF7F3FE86E7FD
:1036700013685B0700D481E7134880E700208B4282
:1036800000D07CE793689B0700D478E7104876E782
:10369000830700D472E70F4871E70B68184200D126
:1036A0006CE709486BE7FFF727FF68E70A485BE725
:1036B000064859E7094862E7094860E709485EE7B4
:1036C00000100240188100080024F40000093D00A9
:1036D000006CDC028890000000127A0080841E00DA
:1036E00020A1070040420F007047C046F0B5574682
:1036F0004E464546E0B41E006923C35C05000F003A
:1037000014000220202B04D01CBC90469946A246EF
:10371000F0BD002963D00138002AF5D08023AA68C3
:103720005B019A4255D06823EA5C0220012AEBD063
:103730000122EA5400232032EB666933EA54FEF793
:10374000EFFC5023EC520233EC52984680235B018D
:103750008246802499462A684346EB5A002B40D083
:1037600043464146EB5A013B9BB26B52731C09D155
:10377000D3691C42FCD0AB684B4521D03B78013764
:103780009362E9E7D3691C42F5D1002E06D0FEF71B
:10379000C7FC53462A68C01A8642E7D211681F4BFD
:1037A00003200B400121136093688B439360202317
:1037B0006922AB540132AB5400224833EA54A3E7E8
:1037C0002B69002BDAD13B880237DB05DB0D9362D6
:1037D000C2E72B69002BA6D10142A4D094E70120B7
:1037E00092E74024731C0BD14021D3691942FCD0CD
:1037F00020226923EA540022013BEA54002083E797
:10380000D3691C42F4D1002EC8D0FEF789FC534680
:103810002A68C01A8642E5D2C0E7C0465FFEFFFFB5
:1038200002698168F8B51143426905681143C269AC
:103830002B681143974A040013400B432B606A68BE
:10384000954B81691340C26813436B60934B9D4253
:103850001DD0026AAB681143914A13400B43AB6021
:10386000904B9D4200D173E08F4B9D424AD0022085
:10387000FFF752FE2668894B9E4205D08023E269FD
:103880001B029A4200D16BE001252800F8BDAA680E
:10389000834B13401943A960C0218022834B090147
:1038A000DB6CD2000B40934200D1B5E000D899E028
:1038B00080221201934200D182E08B42D7D10220B4
:1038C000FFF72AFE2668AE4235D1802000026268EA
:1038D000012553009B188342D7D813038342D4D3C6
:1038E0000021070E06025008002380197941FCF7D9
:1038F000F9FD6F4BC2186F4B9A42C6D8236800255A
:10390000D860C2E70C22694BDB6C13406A4AD55C75
:103910000220FFF701FE2668604B9E420CD1022D6B
:1039200054D059D9042D00D08BE0FFF793FD00252A
:103930000028CCD1A9E708258023E2691B029A421E
:1039400000D095E0082D0BD85C4BAD005B599F462D
:103950000322564BDB6C1340574AD3181D7CD7E724
:1039600000230125F36090E7802361685B0248082B
:103970009C466044FCF706FC0F2203075B0F904354
:10398000184383B20025F3607FE7FFF7B5FD636856
:1039900040005B08C0186168FCF7F4FB2668EBE7A1
:1039A000616840004B08C018E4E7404B61681B6841
:1039B0004808DB0641D5424BDAE7FFF74BFDE6E767
:1039C0000220FFF7A9FD2668AE4240D1374B1B68A5
:1039D000DB0634D53B487AE7002D00D054E7FFF7EB
:1039E0007BFDA4E7002B00D041E70220FFF794FD08
:1039F0002668AE42F3D08023E2691B029A42CFD000
:103A0000FFF76AFD61684B081818FCF7BBFB000460
:103A1000000CF060002538E70220FFF77DFD2668E6
:103A2000AE4282D08023E2691B029A42C5D0FFF7E2
:103A300011FD61684B081818E7E7234B98E7234806
:103A400045E780200002082D00D140E71CE78023D5
:103A5000E2691B029A42A8D0144B61681B684808AF
:103A6000DB0603D5174B9C466044CEE7174BFAE7BD
:103A7000082D00D908E7164BAD005B599F46FFF7AC
:103A80003BFD61684B081818BFE7802361681B0283
:103A90004808E8E7F369FFEFFFCFFFFF0048004069
:103AA000FFF4FFFF003801400044004000100240D6
:103AB00000FDFFFFFFFC0F00048100089C7F000851
:103AC00000127A0000093D000048E8010024F400DB
:103AD000C07F0008436A30B5DA0706D50168284A76
:103AE0004C682240846A22434A609A0706D50168DE
:103AF000244A4C682240C46A22434A605A0706D5C9
:103B00000168214A4C682240046B22434A601A072C
:103B100006D501681D4A4C682240446B22434A6026
:103B2000DA0606D501681A4A8C682240846B224363
:103B30008A609A0606D50168164A8C682240C46BD2
:103B400022438A605A060AD50168134A4D68046CFC
:103B50002A4022434A6080225203944209D01B0625
:103B600006D501680D4B4A681340826C13434B60C5
:103B700030BD4C680A4A2240446C22434A60EEE75A
:103B8000FFFFFDFFFFFFFEFFFFFFFBFFFF7FFFFFCC
:103B9000FFEFFFFFFFDFFFFFFFFFEFFFFFFFF7FF7D
:103BA000FFFF9FFFF8B500230400C366FEF7B8FAD5
:103BB000236806001A6812070CD41A68520728D422
:103BC00020236922A3540132A35400220020483349
:103BD000E254F8BD8025164FAD03DA692A40AA42A7
:103BE000EBD0FEF79DFA2368801BB842F5D919681F
:103BF000104A03200A4001211A609A688A439A6099
:103C000020236922A3540132A35400224833E254F2
:103C1000DFE78025064FED03DB692B40AB42CFD0B9
:103C2000FEF77EFA2368801BB842F5D9DFE7C0466D
:103C3000FFFFFF015FFEFFFFF8B5041E40D06923C0
:103C4000C35CDBB2002B42D0242269232568E254F6
:103C50002B68233A93432B60636A002B32D122698D
:103C6000A1682B68114362691143E2691143AF4AAD
:103C700013400B432B606A68AD4BA1691340E268A7
:103C800013436B60AB4B9D4226D0226AAB68114355
:103C9000A94A13400B43AB60A84B9D4200D17FE083
:103CA000A74B9D4252D00220FFF736FC2368A14A61
:103CB000934205D08022E1691202914200D185E051
:103CC0000120F8BD2000FFF705FF2568C7E768223F
:103CD0008354FFF709FDB7E7AA68974B13401943D0
:103CE000A960C0218022974B0901DB6CD2000B40F8
:103CF000934200D1CCE000D8BEE080221201934272
:103D000000D192E08B42CED10220FFF705FC27685C
:103D10003E1EAE424CD180200002626853009B18C8
:103D20008342CDD813038342CAD30021070E060273
:103D30005008002380197941FCF7D4FB824BC2184C
:103D4000824B9A42BCD82668F06019E00C227D4B69
:103D5000DB6C13407E4AD55C0220FFF7DDFB276851
:103D6000744B3E1E9E4224D1022D7BD000D8ADE084
:103D7000042D00D0AFE0FFF76DFB0028CDD1266801
:103D80007268744B200013402A227360B368934317
:103D9000B3600123326813433360FFF703FF90E7FA
:103DA0000322684BDB6C1340694AD3181D7CD3E7B0
:103DB00008258023E2691B029A4200D09CE0082D6E
:103DC00000D996E0644BAD005B599F460022DA6053
:103DD00076E76368580880235B029C46604461680C
:103DE000FCF7D0F90F2203075B0F9043184383B20F
:103DF000F360C5E7FFF780FB636840005B08C0180D
:103E00006168FCF7BFF92668ECE7636840005B086F
:103E1000C018E4E7FFF71EFBEEE74A4B1B68DB0622
:103E200050D5636858084D4BD7E70220FFF774FB65
:103E300027683E1EAE4215D08023E2691B029A42DB
:103E4000EBD0404B1B68DB0612D563685808444B27
:103E50009C4661686044FCF795F90004000CF8602A
:103E60003E008DE7374B1B68DB0632D53C4854E7F4
:103E7000636858083B4BEBE7002B00D013E70220A8
:103E8000FFF74AFB2668AE422BD1FFF725FB74E70C
:103E90000220FFF741FB2668AE4200D16BE780238A
:103EA000E2691B029A42B5D0FFF7D4FA63686168F1
:103EB0005B081818FCF766F927680004000CF0602E
:103EC0003E005DE763685808274B86E7002DDCD08D
:103ED000F6E6244821E780200002082D00D11CE7E7
:103EE000EEE68023E2691B029A428ED0FFF7F4FAD5
:103EF000DCE70023FB60E3E6082D00D9E0E61B4B7E
:103F0000AD005B599F46FFF7F7FA636861685B088D
:103F10001818FCF737F90004000CF86027683E0019
:103F20002EE76368580880231B0291E7F369FFEFCF
:103F3000FFCFFFFF00480040FFF4FFFF00380140C3
:103F4000004400400010024000FDFFFFFFFC0F0096
:103F500004810008FFB7FFFFE47F000800127A0029
:103F600000093D000024F4000048E8010880000832
:103F7000F8B5041E40D06923C35CDBB2002B42D0ED
:103F8000242269232568E2542B68233A93432B604B
:103F9000636A002B32D12269A1682B6811436269E0
:103FA0001143E2691143B24A13400B432B606A6824
:103FB000B04BA1691340E26813436B60AE4B9D4266
:103FC00026D0226AAB681143AC4A13400B43AB6066
:103FD000AB4B9D4200D184E0AA4B9D4252D00220BF
:103FE000FFF79AFA2368A44A934205D08022E16938
:103FF0001202914200D18AE00120F8BD2000FFF7B3
:1040000069FD2568C7E768228354FFF76DFBB7E7B2
:10401000AA689A4B13401943A960C02180229A4B89
:104020000901DB6CD2000B40934200D1D1E000D8F3
:10403000C3E080221201934200D197E08B42CED19F
:104040000220FFF769FA27683E1EAE4251D1802058
:104050000002626853009B188342CDD81303834249
:10406000CAD30021070E06025008002380197941A7
:10407000FCF738FA854BC218854B9A42BCD82668A3
:10408000F0601AE00C22804BDB6C1340814AD55C57
:104090000220FFF741FA2768774B3E1E9E4229D146
:1040A000022D00D17FE000D8B1E0042D00D0B3E0B4
:1040B000FFF7D0F90028CCD126687268764B200033
:1040C000134022227360B3689343B3600823B2683D
:1040D0001343B3600123326813433360FFF762FD7B
:1040E0008BE70322684BDB6C13406A4AD3181D7CB4
:1040F000CEE708258023E2691B029A4200D09CE0AB
:10410000082D00D996E0654BAD005B599F46002213
:10411000DA6071E76368580880235B029C4660445C
:104120006168FCF72FF80F2203075B0F90431843D9
:1041300083B2F360C1E7FFF7DFF9636840005B0813
:10414000C0186168FCF71EF82668ECE76368400059
:104150005B08C018E4E7FFF77DF9EEE74A4B1B6800
:10416000DB0650D5636858084D4BD7E70220FFF7B0
:10417000D3F927683E1EAE4215D08023E2691B02A8
:104180009A42EBD0404B1B68DB0612D56368580897
:10419000444B9C4661686044FBF7F4FF0004000C4C
:1041A000F8603E0089E7384B1B68DB0632D53D4896
:1041B0004FE7636858083C4BEBE7002B00D00EE755
:1041C0000220FFF7A9F92668AE422BD1FFF784F948
:1041D00070E70220FFF7A0F92668AE4200D167E73A
:1041E0008023E2691B029A42B5D0FFF733F9636876
:1041F00061685B081818FBF7C5FF27680004000C0E
:10420000F0603E0059E763685808284B86E7002DA8
:10421000DCD0F1E624481CE780200002082D00D104
:1042200017E7E9E68023E2691B029A428ED0FFF786
:1042300053F9DCE70023FB60DEE6082D00D9DBE65E
:104240001B4BAD005B599F46FFF756F963686168E9
:104250005B081818FBF796FF0004000CF86027684D
:104260003E002AE76368580880231B0291E7C04696
:10427000F369FFEFFFCFFFFF00480040FFF4FFFFAF
:1042800000380140004400400010024000FDFFFFE4
:10429000FFFC0F0004810008FFB7FFFF2C8000081F
:1042A00000127A0000093D000024F4000048E801F3
:1042B00050800008F0B54746040080B488460028C6
:1042C00049D08023C2691B029A4244D08368002BE4
:1042D00041D16933C35CDBB2002B45D02422692372
:1042E0002568E2542B68233A93432B60636A002BC2
:1042F00035D12269A1682B68114362691143E269D3
:104300001143B74A13400B432B606A68B54BA16950
:104310001340E26813436B60B34B9D4229D0226A7D
:10432000AB681143B14A13400B43AB60B04B9D42A5
:1043300000D1D6E0AF4B9D4200D16DE00220FFF7E7
:10434000EBF82368A84A934205D08022E169120263
:10435000914200D1B2E0012004BC9046F0BD2000A3
:10436000FFF7B8FB2568C4E768228354FFF7BCF960
:10437000B4E7AA689D4B13401943A960C02180226D
:104380009D4B0901DB6CD2000B40934200D1D7E07A
:104390006BD980221201934200D1B0E08B42CDD183
:1043A0000220FFF7B9F827683E1EAE424FD18020A9
:1043B0000002626853009B188342CCD813038342E7
:1043C000C9D30021070E0602500800238019794145
:1043D000FCF788F8894BC218894B9A42BBD82668EB
:1043E000F0607268874B200013402A227360B36824
:1043F00093438022B3607368D20113432022736019
:104400007368934342461343736001233268134336
:104410003360FFF7C7FB9FE70C22774BDB6C134041
:10442000794AD55C0220FFF777F827686E4B3E1E6D
:104430009E420DD1022D5CD000D89FE0042D00D00B
:10444000A2E0FFF707F80028B3D12668C9E70825DE
:104450008023E2691B029A4200D0A6E0082D00D911
:10446000A0E06A4BAD005B599F46002B00D065E78A
:104470000220FFF751F82668AE4200D08AE0FFF72D
:104480002BF8E0E76368580880235B029C46604491
:104490006168FBF777FE0F2203075B0F9043184319
:1044A00083B2F3609DE7FFF727F8636840005B087D
:1044B000C0186168FBF766FE2668ECE70022DA6048
:1044C00049E7636840005B08C018E1E7FEF7C2FFF8
:1044D000EBE7494B1B68DB064CD5636858084C4B2F
:1044E000D4E70322444BDB6C1340474AD3181D7CAE
:1044F00098E7414B1B68DB0644D5464859E7022044
:10450000FFF70AF827683E1EAE42F2D08023E26928
:104510001B029A42DDD0384B1B68DB060CD5636862
:1045200058083C4B9C4661686044FBF72BFE000436
:10453000000CF8603E0054E763685808364BF1E71A
:104540000220FEF7E9FF2668AE4200D179E780231A
:10455000E2691B029A42B9D0FEF77CFF636861688A
:104560005B081818FBF70EFE27680004000CF060CB
:104570003E0036E763685808284B87E7002D00D1D6
:104580007DE7E8E6244814E780200002082D00D1EA
:104590000FE7E0E68023E2691B029A4291D0FEF722
:1045A0009BFFDBE70023FB60D5E6082D00D9D2E6B0
:1045B0001B4BAD005B599F46FEF79EFF6368616829
:1045C0005B081818FBF7DEFD0004000CF860276894
:1045D0003E0006E76368580880231B02A2E7C04636
:1045E000F369FFEFFFCFFFFF00480040FFF4FFFF3C
:1045F00000380140004400400010024000FDFFFF71
:10460000FFFC0F00FFF7FFFF048100087480000823
:1046100000127A0000093D000024F4000048E8017F
:1046200098800008F8B54F4646460400C0B4894655
:104630009046002840D06923C35CDBB2002B45D0F4
:10464000242269232568E2542B68233A93432B6084
:10465000636A002B35D12269A1682B681143626916
:104660001143E2691143BA4A13400B432B606A6855
:10467000B84BA1691340E26813436B60B64B9D428F
:1046800029D0226AAB681143B44A13400B43AB6094
:10469000B34B9D4200D18DE0B24B9D4255D00220DC
:1046A000FEF73AFF2368AC4A934205D08022E169C5
:1046B0001202914200D193E001200CBC9046994631
:1046C000F8BD2000FFF706FA2568C4E76822835486
:1046D000FFF70AF8B4E7AA68A04B13401943A96092
:1046E000C0218022A04B0901DB6CD2000B40934219
:1046F00000D1DFE000D8D1E080221201934200D146
:104700009DE08B42CBD10220FEF706FF27683E1EBC
:10471000AE4257D180200002626853009B1883424A
:10472000CAD813038342C7D30021070E06025008DC
:10473000002380197941FBF7D5FE8C4BC2188C4BB6
:104740009A42B9D82668F0601AE00C22864BDB6CDE
:104750001340884AD55C0220FEF7DEFE27687E4BB8
:104760003E1E9E422FD1022D00D185E000D8BFE031
:10477000042D00D0C1E0FEF76DFE0028CCD12668E4
:1047800072687D4B13402A227360B3689343B36011
:1047900080231B01984575D03268784B2000134068
:1047A0004246134333600123326813433360FFF7FB
:1047B000F9F982E703226C4BDB6C13406D4AD31886
:1047C0001D7CC8E708258023E2691B029A4200D0BD
:1047D000A4E0082D00D99EE0694BAD005B599F46CF
:1047E0000022DA6068E76368580880235B029C4611
:1047F00060446168FBF7C6FC0F2203075B0F904320
:10480000184383B2F360BBE7FEF776FE63684000AF
:104810005B08C0186168FBF7B5FC2668ECE76368C5
:1048200040005B08C018E4E7FEF714FEEEE74E4BCD
:104830001B68DB0658D563685808524BD7E702203F
:10484000FEF76AFE27683E1EAE4215D08023E2695D
:104850001B029A42EBD0444B1B68DB061AD56368F7
:104860005808494B9C4661686044FBF78BFC000488
:10487000000CF8603E0083E73B4B1B68DB063AD533
:10488000414849E74A46736812061B021B0A134354
:10489000736081E7636858083C4BE3E7002B00D066
:1048A000FDE60220FEF738FE2668AE422BD1FEF769
:1048B00013FE62E70220FEF72FFE2668AE4200D10B
:1048C00059E78023E2691B029A42ADD0FEF7C2FD90
:1048D000636861685B081818FBF754FC27680004DC
:1048E000000CF0603E004BE763685808284B7EE7F9
:1048F000002DDCD0E0E625480EE780200002082DE0
:1049000000D109E7D8E68023E2691B029A4286D0EB
:10491000FEF7E2FDDCE70023FB60CDE6082D00D9C1
:10492000CAE61C4BAD005B599F46FEF7E5FD636888
:1049300061685B081818FBF725FC0004000CF860A0
:1049400027683E001CE76368580880231B0289E73C
:10495000F369FFEFFFCFFFFF00480040FFF4FFFFC8
:1049600000380140004400400010024000FDFFFFFD
:10497000FFFC0F0004810008FFB7FFFFFFF7FFFFF8
:10498000BC80000800127A0000093D000024F400F9
:104990000048E801E08000088021104B49001A68B7
:1049A0000A431A60D9680E4A0A40DA6019680D4A4B
:1049B0000A4001211A609A688A439A6019680A4A73
:1049C0000A401A60D968094A0A40DA6000221A616E
:1049D0008022074B12059A607047C04600100240C3
:1049E0000C40FF88F6FFF6FEFFFFFBFFFFFF02FF14
:1049F00000ED00E030B5234C87B02000FEF7F2F860
:104A0000002808D02000FEF7EDF82038431E98411A
:104A1000C0B207B030BD1C4B1C4D63603323A36094
:104A2000323BE3601A4BEA6A236002231A43EA62CC
:104A3000EA6A01A91A400092009AC02292000192EB
:104A40001222049303900233124802920593FDF759
:104A5000D5FB8021AA6B89030A43AA63AB6A17209E
:104A60000B43AB62AA6A0C4B00211340AB620022DD
:104A7000FDF76AFB1720FDF79BFB2000FDF732FED8
:104A8000C0E7C046F00200202E11B1000010024025
:104A90000054004000040050FFFFDFFF30B5234CFE
:104AA00087B02000FEF79EF8002808D02000FEF70F
:104AB00099F82038431E9841C0B207B030BD1C4B56
:104AC0001C4D63603323A360323BE3601A4BEA6AF8
:104AD000236002231A43EA62EA6A01A91A4000929B
:104AE000009AC02292000192122204930390023392
:104AF000124802920593FDF781FB8021AA6B89037E
:104B00000A43AA63AB6A17200B43AB62AA6A0C4B39
:104B100000211340AB620022FDF716FB1720FDF7C2
:104B200047FB2000FDF7DEFDC0E7C046F002002095
:104B30002E11B1000010024000540040000400504B
:104B4000FFFFDFFF0223104A00B5D16A87B0194387
:104B5000D162D26A04931A400092009A8022002304
:104B6000D2000192094A01A9094803930292FDF774
:104B700045FB002200210720FDF7E6FA0720FDF79C
:104B800017FB002007B000BD00100240000011100C
:104B900000040050F0B557464E464546E0B40700C5
:104BA000007884B0402842D03FD9B1282AD1002BC8
:104BB00039D0984680235B019A4601231500904422
:104BC0000C001D4E994604E001340135E4B2454520
:104BD00029D05346B97802934B46A2B2019300956F
:104BE00001233000FDF7F4FD0028EDD03000FDF783
:104BF000D5FDFFF7FFFE012004B01CBC904699468E
:104C0000A246F0BDBC2812D080200B4E8CB24001D1
:104C1000B978029001930092012322003000FDF741
:104C2000D7FD0028E2D10020E6E73328ECD1012BA4
:104C3000EAD980200143E7E7F0020020F0B55746AB
:104C40004E464546E0B40700007884B0402842D084
:104C50003FD9B1282AD1002B39D0984680235B0157
:104C60009A460123150090440C001D4E994604E01D
:104C700001340135E4B2454529D05346B978029351
:104C80004B46A2B20193009501233000FDF79AFE36
:104C90000028EDD03000FDF781FDFFF7ABFE0120CD
:104CA00004B01CBC90469946A246F0BDBC2812D068
:104CB00080200B4E8CB24001B97802900193009293
:104CC000012322003000FDF77DFE0028E2D1002004
:104CD000E6E73328ECD1012BEAD980200143E7E74E
:104CE000F0020020F8B50026354C0E6005000F00DC
:104CF0006379002831D0012B2DD0FFF7CFFE01289A
:104D000029D0B12323700933A370B93BE371230089
:104D10002C4A1433E2602C4AA36022612B4A0833E8
:104D2000667026716671A6716361E261A6613C607E
:104D3000E3681B68002B07D020009847012838D073
:104D4000FFF700FF002007E014220021200002F0FE
:104D50001CF800233B600120F8BD012BFBD0FFF7BE
:104D60009DFE0128F7D0B12323700933A370B93B0E
:104D7000E3712300134A1433E260134AA3602261F3
:104D8000124A0833657025716571A5716361E2612E
:104D9000A5613C60E3681B68002BD5D020009847D4
:104DA0000128CDD114220021386801F0EEFF3D60CA
:104DB000D1E714220021386801F0E7FF3E60CAE71E
:104DC0003C03002028010020B80000201C06002021
:104DD00010B5002809D0C3689B68002B05D0984700
:104DE000013843425841C0B210BD0120FCE7C04623
:104DF00010B5002809D0C3681B6A002B05D098475E
:104E0000013843425841C0B210BD0120FCE7C04602
:104E100010B5031E0FD00269002A0CD000290AD059
:104E200004780120B12C00D010BDD268002AFBD03C
:104E300018009047F8E70120F6E7C04670B5031E5A
:104E400011D00469002C0ED000290CD0002A0AD001
:104E500005780120B12D00D070BDE469002CFBD095
:104E60001800A047F8E70120F6E7C04610B5031E7A
:104E70000FD00269002A0CD000290AD00478012042
:104E8000B12C00D010BD9269002AFBD018009047C9
:104E9000F8E70120F6E7C04610B5031E0DD0026901
:104EA000002A0AD004780120B12C00D010BD526A2B
:104EB000002AFBD018009047F8E70120F6E7C0462B
:104EC00010B5031E0DD00269002A0AD00478012013
:104ED000B12C00D010BD526B002AFBD018009047B7
:104EE000F8E70120F6E7C04610B5031E0DD00269B1
:104EF000002A0AD004780120B12C00D010BD926B9A
:104F0000002AFBD018009047F8E70120F6E7C046DA
:104F100010B5031E0DD00269002A0AD004780120C2
:104F2000B12C00D010BDD26A002AFBD018009047E7
:104F3000F8E70120F6E7C04610B5031E0DD0026960
:104F4000002A0AD004780120B12C00D010BD52698B
:104F5000002AFBD018009047F8E70120F6E7C0468A
:104F6000F8B5002605000F000E606A4C002800D13D
:104F70008AE001282CD1637E012B00D182E0FFF76B
:104F80008DFD01287ED0B123200023750933A37540
:104F9000614B30302362614BE0616362604B667548
:104FA000E36303001C380C3325766676A676E57637
:104FB000236366633860236A1B68002B00D191E08D
:104FC0009847012800D186E0FFF7BCFD00205AE099
:104FD0006379012B28D0FFF761FD012824D0BC2381
:104FE00023700233A370BD3BE37123004D4A283385
:104FF000E2604D4AA3601033667026716671A67137
:10500000A3622661A263E6623C60E3681D68002D2E
:1050100000D177E02000A8470128D7D11422002131
:10502000386801F0B2FE3E60637E012B2AD0FFF7A4
:1050300035FD012826D0B123200023750933A3753F
:10504000B93B2376E376344B30302362334B002573
:105050006362334BE061E36303001C380C33657516
:105060006576A576236365633860236A1B68002B29
:1050700038D098470128A7D114220021386801F0C0
:1050800084FE3D600120F8BD6379012BFAD0FFF763
:1050900005FD0128F6D0BC2323700233A370BD3B6D
:1050A000E37123001F4A2833E2601F4AA3601033D4
:1050B000657025716571A571A3622561A263E562C2
:1050C0003C60E3681E68002E15D02000B047012820
:1050D000D2D00020D7E714220021386801F055FE15
:1050E0003E60CFE7200014221430002101F04DFE75
:1050F00000233B60C6E714220021200001F045FE9A
:105100003E60BFE714220021200001F03EFE3D601A
:105110008AE7C0465C030020F40000207C000020E9
:105120001C060020140000201806002010B50028DE
:1051300009D0C3689B68002B05D0984701384342CB
:105140005841C0B210BD0120FCE7C04630B587B061
:10515000002808D101240E4AD16A2143D162D36AC2
:1051600023400093009B202301931F3B02930023C5
:10517000084D8400039301A9033360590493FDF79C
:105180003DF8605900222021FDF722F907B030BD1B
:10519000001002400800002010B5044B8000C058E9
:1051A00001222021FDF714F910BDC046080000209F
:1051B00010B5044B8000C05800222021FDF708F9EB
:1051C00010BDC0460800002030B587B0002808D1C7
:1051D0000425184AD46A2C43D462D36A2B40009326
:1051E000009B80239B0101930023039301330493CD
:1051F000002903D001290AD007B030BD0E4B800032
:1052000018180291406801A9FCF7F8FFF4E70B4B6E
:1052100080000293084B01A918184068FCF7EEFFC4
:1052200000220F210720FCF78FFF0720FCF7C0FFAB
:10523000E2E7C046001002400800002000002110F4
:10524000802110B5034B8000181840688901FDF7D4
:10525000B9F810BD0800002010B514001A00230092
:10526000FFF7ECFC431E9841C0B210BD10B514000E
:105270001A002300FFF78EFC431E9841C0B210BDF8
:1052800010B50A0001230F21FFF7D8FC431E9841F7
:10529000C0B210BDF0B54D4644465F465646F0B428
:1052A00083B00D00022301AA30210400FFF7C6FCE1
:1052B00000280AD16B4601AA1E795F7936210223A4
:1052C0002000FFF7BBFC002807D0012003B03CBC46
:1052D00090469946A246AB46F0BD6B465B7901AA63
:1052E0009B466B461B793A21984620000223FFF724
:1052F000A5FC0028E9D16B465B7901AA9A466B466A
:105300001B792821994620000223FFF797FC0028EB
:10531000DBD15B461C0243461C436B4658791B7924
:105320000002184324B200B2001BFBF7CFFF76083F
:105330007F088046B81BFBF7C9FF011C4046FBF7FE
:1053400009FD5346071C18024B46184300B2001BC8
:10535000FBF7BCFF011C381CFBF732FB041C30B20E
:10536000FBF7B4FF011C201CFBF7B4F90D49FBF758
:10537000F1FC0D49041CFBF7A1F8002804D0FA2029
:10538000800028800020A1E70021201CFBF782F884
:10539000002804D1201CFBF7C5F880B2F1E70020FB
:1053A000EFE7C0460000204100007A44F0B54D46CA
:1053B00044465F465646F0B485B00D00022303AA6A
:1053C00032210400FFF73AFC002808D102AA012389
:1053D000033235212000FFF731FC002807D00120DF
:1053E00005B03CBC90469946A246AB46F0BD02AB28
:1053F000DF781B7903AA984602AB5E793C2104232F
:105400002000FFF71BFC0028E9D102AB5B7903AA5F
:105410009B4602AB1B792A21994602ABDB7920001F
:105420009A4602AB9B7901930223FFF707FC002801
:10543000D5D1C0244246A4003B0223401343DA08DE
:1054400090465A4610024A46104302B2914602AABA
:10545000137950794A460002184300B2801AFBF7CC
:1054600035FF4246BF0127403E4314B2F60883464B
:10547000301BFBF72BFF011C5846FBF76BFC524619
:10548000019B061C100218434B4600B2C01AFBF7E2
:105490001DFF011C301CFBF793FA061C2000FBF7D4
:1054A00015FF011C301CFBF715F90449FBF752FCF2
:1054B000FBF7EAFE2880002092E7C046000020416A
:1054C00030B583B014006A460D000123073227214E
:1054D000FFF7B4FB002802D0012003B030BD6B46BB
:1054E0000121DB7900205A100A400B402A702370FA
:1054F000F3E7C04630B583B06B46DC1D22000123C4
:1055000020210500FFF79AFB002802D0012003B0FC
:1055100030BD80222378524213432370220001239E
:1055200020212800FFF736FB431E9841C0B2EEE76A
:1055300030B583B06B46DC1D22000123202105001D
:10554000FFF77CFB002802D0012003B030BD7F2292
:105550002378202113402370220001232800FFF725
:1055600019FB431E9841C0B2EFE7C04610B582B0A8
:105570006A460C00012307322021FFF75FFB002859
:1055800002D0012002B010BD6B460322DB7900205F
:1055900013402370F6E7C0460A0010B50100024828
:1055A00001F0FCFBFEE7C046F883000830B50500BB
:1055B00083B00C1E012C1DD86A460123073220211E
:1055C000FFF73CFB002813D16B460422DB79A400D3
:1055D00093431C436A466B460732DC71202101234A
:1055E0002800FFF7D7FA431E9841C0B203B030BD80
:1055F0000120FBE701490248FFF7CEFF6B020000E4
:105600002884000830B5050083B00C1E032C1CD87C
:105610006A46012307322021FFF710FB002812D130
:105620006B46D97903236A4699436B462143D97166
:105630000732012320212800FFF7ACFA431E9841CE
:10564000C0B203B030BD0120FBE702490248FFF7BA
:10565000A3FFC046C20200002884000810B582B033
:105660006B460C00DA1D991DFFF72AFF012809D0AF
:105670006B469B79002B01D0012B03D100202370B6
:1056800002B010BD0120FBE710B582B06B460C00E4
:10569000DA1D991DFFF714FF012809D06B46DB794D
:1056A000002B01D0012B03D10020237002B010BDCC
:1056B0000120FBE700B583B06B4607331A70012267
:1056C000FFF7D4FD013843425841C0B203B000BDDA
:1056D000130010B50122FFF7BFFD013843425841C6
:1056E000C0B210BD70B50C1CFE2105008905201C40
:1056F000FAF7DAFE00280FD10849201CFAF7D4FE89
:105700000323411E8841191A2800FFF77BFF013847
:1057100043425841C0B270BD0121F5E70000E040AE
:1057200010B5002909D0042909D80321FFF76AFF21
:10573000013843425841C0B210BD0121F6E70120B3
:10574000FAE7C04610B582B06A4600230C00911DEE
:10575000D380FFF79FFD01280AD06B46D888FBF75E
:10576000FDFD0449FBF72CF92060002002B010BDBC
:105770000120FBE70000204110B5FFF781FD013853
:1057800043425841C0B210BD10B583790400012BCB
:1057900014D083681B681B68DA78002A04D00122C1
:1057A00000209A70A27110BDFFF7A4FE012803D05B
:1057B000A3681B681B68F2E70120F4E70020F2E70A
:1057C00010B583790400012B14D083681B681B6813
:1057D0009A78002A04D001220020DA70A27110BD4C
:1057E000FFF788FE012803D0A3681B681B68F2E757
:1057F0000120F4E70020F2E710B582B06A460023EA
:105800000C00911DD380FFF7D1FD01280BD06B4612
:105810000620185EFBF75AFD0449FBF7D1F820601B
:10582000002002B010BD0120FBE7C046000020416F
:1058300010B5837904000020002B09D0A3681B68F1
:105840001B68DA78002A04D0002200209A70A27126
:1058500010BD2000FFF76CFE012803D0A3681B6871
:105860001B68F1E70120F3E710B5837904000020FD
:10587000002B09D0A3681B681B689A78002A04D003
:1058800000220020DA70A27110BD2000FFF750FE48
:10589000012803D0A3681B681B68F1E70120F3E728
:1058A000836810B51B6882B01B6804001A78002A50
:1058B00005D0012200205A70627102B010BD6B4603
:1058C000D91DDA71FFF7DCFC01281AD06B4622786B
:1058D000DB7901209A42F0D12000FFF729FE012850
:1058E0000FD001212000FFF761FE012809D001211E
:1058F0002000FFF787FE012803D0A3681B681B6800
:10590000D7E70120D9E7C04610B582B06B460C003E
:10591000D91DFFF72BFE012816D06B46DB79012B32
:1059200018D0002B0CD0022B10D0032B04D0012058
:105930000B4B236002B010BD0A4B00202360F9E737
:10594000002300202360F5E70120F3E7064B002049
:105950002360EFE7FE239B0523600020EAE7C046B3
:10596000000080BF000048410000E04010B5FFF794
:1059700087FC013843425841C0B210BD10B5002920
:1059800009D0042909D80321FFF73CFE013843421E
:105990005841C0B210BD0121F6E70120FAE7C04628
:1059A00010B582B06B460C00D91DFFF7DFFD012852
:1059B00016D06B46DB79012B18D0002B0CD0022BB4
:1059C00010D0032B04D001200B4B236002B010BD7C
:1059D0000A4B00202360F9E7002300202360F5E74D
:1059E0000120F3E7064B00202360EFE7FE239B0531
:1059F00023600020EAE7C046000080BF0000484165
:105A00000000E040130010B50122FFF725FC01382B
:105A100043425841C0B210BD10B582B06A4600235F
:105A2000D11D0400D371FFF72BFC012806D06A4674
:105A30002378D079181A431E9841C0B202B010BD25
:105A400010B582B06A460023D11D0400D371FFF760
:105A500017FC012806D06A462378D079181A431E0D
:105A60009841C0B202B010BD70B50C1CFE210500FB
:105A70008905201CFAF718FD00280FD10849201CC1
:105A8000FAF712FD0323411E8841191A2800FFF777
:105A9000B9FD013843425841C0B270BD0121F5E75C
:105AA0000000E04000B583B06B4607331A70012256
:105AB000FFF7DCFB013843425841C0B203B000BDE0
:105AC000836810B51B6804001B685A78002A04D04C
:105AD000002200201A70627110BD8279002AF7D06E
