:020000040800F2
:10000000002000204D0C0008290C00082D0C0008D1
:1000100000000000000000000000000000000000E0
:100020000000000000000000000000009D0C00081F
:1000300000000000000000009D0C0008310C0008CA
:100040009D0C00089D0C00089D0C00089D0C0008EC
:100050009D0C00089D0C00089D0C0008390C000840
:100060009D0C00089D0C00089D0C00089D0C0008CC
:100070009D0C00089D0C0008000000009D0C00086D
:10008000000000009D0C00080000000000000000BF
:100090009D0C0008000000009D0C00089D0C00084D
:1000A0009D0C00089D0C00089D0C00089D0C00088C
:1000B0009D0C00089D0C00089D0C00089D0C00087C
:1000C000054B0648033310B51B1A062B03D9044B06
:1000D000002B00D0984710BD14020020140200200D
:1000E000000000000648074910B5091A8910CB0F17
:1000F0005918491003D0044B002B00D0984710BD6D
:1001000014020020140200200000000010B5074C6B
:100110002378002B09D1FFF7D3FF054B002B02D02A
:10012000044800E000BF0123237010BD140200202A
:1001300000000000CC690008094B10B5002B03D06B
:100140000849094800E000BF08480368002B02D1B5
:10015000FFF7C8FF10BD064B002BF9D09847F7E713
:100160000000000018020020CC69000814020020E2
:1001700000000000002243088B4274D303098B4225
:100180005FD3030A8B4244D3030B8B4228D3030C67
:100190008B420DD3FF22090212BA030C8B4202D309
:1001A0001212090265D0030B8B4219D300E0090A31
:1001B000C30B8B4201D3CB03C01A5241830B8B423A
:1001C00001D38B03C01A5241430B8B4201D34B0323
:1001D000C01A5241030B8B4201D30B03C01A524188
:1001E000C30A8B4201D3CB02C01A5241830A8B420D
:1001F00001D38B02C01A5241430A8B4201D34B02F6
:10020000C01A5241030A8B4201D30B02C01A524159
:10021000CDD2C3098B4201D3CB01C01A524183090D
:100220008B4201D38B01C01A524143098B4201D347
:100230004B01C01A524103098B4201D30B01C01A72
:100240005241C3088B4201D3CB00C01A52418308EC
:100250008B4201D38B00C01A524143088B4201D319
:100260004B00C01A5241411A00D201465241104679
:100270007047FFE701B5002000F006F802BDC04658
:100280000029F7D076E770477047C0468446081CBF
:100290006146FFE71FB500F00BF9002801D40021EB
:1002A000C8421FBD10B500F097F84042013010BDA4
:1002B00010B500F0FDF8002801DB002010BD012082
:1002C00010BDC04610B500F0F3F8002801DD002095
:1002D00010BD012010BDC04610B500F0A5F80028E3
:1002E00001DC002010BD012010BDC04610B500F09B
:1002F0009BF8002801DA002010BD012010BDC04687
:10030000002B15D1002A13D1002906DB01DC0028BF
:1003100006D00020C043410802E0802109060020E9
:1003200007B4024801A14018029003BD5DFFFFFF22
:1003300003B4684601B5029800F032F8019B9E466E
:1003400002B00CBC7047C046F0B54F464646C0B43C
:100350001604360C9946330005042C0C070C150CBA
:1003600063437E436F4365431C0CAD1964199C467F
:10037000A64203D980235B02984647446346250C76
:10038000EF191D044B464A4343432D0C24046419C2
:100390009918C91920000CBC90469946F0BDC0467A
:1003A000F0B583B016001F000090019100F06CFAC8
:1003B00004000D0002000B0030003900FFF7C4FFFD
:1003C000009A019B121A8B41089920000A604B6029
:1003D000290003B0F0BDC046430270B542004C0096
:1003E0005D0AC30F4802120E460A240EC90FFF2AE7
:1003F0000FD0FF2C11D00120A24200D070BDB54219
:10040000FCD18B420DD0002AF8D12800431E984120
:10041000F4E70120002DF1D1EBE70120002EEDD112
:10042000E9E70020EAE7C0464302F0B542005D0A72
:10043000C30F4802440A4800120E000EC90FFF2ADB
:100440001FD0FF2822D0002A09D16E426E41002819
:100450000FD1002C0DD10020002D09D005E000287F
:1004600001D1002C01D08B4213D0584201231843F4
:10047000F0BD002EF7D048424141012049420843D7
:10048000F6E7002DDDD002204042F1E7002CDAD063
:10049000F9E78242E9DC04DBA542E6D80020A54268
:1004A000E6D25842434101205B421843E0E7C04690
:1004B0004302F0B542004C005E0AC30F4802120E20
:1004C000450A240EC90FFF2A17D0FF2C19D0002A85
:1004D0000BD170427041002C17D0002807D0484241
:1004E0004141012049420843F0BD002C13D08B420A
:1004F00014D0584201231843F6E70220002EF3D10E
:10050000E3E70220002DEFD1E1E7002DE5D1002047
:10051000002EE9D0EDE7002DE9D1EAE7A242E8DCC0
:1005200004DBAE42E5D80020AE42DDD25842434162
:1005300001205B421843D7E7F0B557464E46454683
:100540004300E0B446028846760A1F0EC40F002F0F
:1005500047D0FF2F25D0002380259A469946F600E4
:10056000ED042E437F3F434642465D02D20F5B00BF
:100570006D0A1B0E904640D0FF2B39D08022002000
:10058000ED00D20415437F3BFB1842465746591CE9
:1005900062408C4607430F2F5CD86F49BF00C95992
:1005A0008F46002E45D108239A46063B9946DAE746
:1005B000424602282DD0032800D1C3E0012800D0F4
:1005C000A2E0002500260240D4B27602ED05760AAC
:1005D0002E43E407264330001CBC90469946A246B1
:1005E000F0BD002E1AD104239A46033B9946BAE780
:1005F0002A00511E8A41901CC6E70120002DC3D05D
:10060000280000F017F9431F76309D404342002038
:10061000BAE70124FF2514400026D6E7300000F099
:1006200009F9431F9E400023763047429A46994677
:1006300099E70C239A46093B994694E780260024C3
:10064000F603FF25C1E735004846B2E73500220032
:100650004846AEE72904090C0800370C3604360C6E
:100660002C0C7943704367437443060C64183619A5
:10067000B14203D980214902884647440004000C56
:10068000310409188D01681E8541890E2943350CF6
:10069000ED19AD010D43290104D5012369081D4061
:1006A00063460D4319007F31002925DD680704D01A
:1006B0000F202840042800D00435280103D52749FD
:1006C00080330D401900FE29A3DC0124AD016E0A20
:1006D0001440CDB279E78020C003064207D005421E
:1006E00005D128434602760A4446FF256DE70643B6
:1006F0007602760AFF2568E70124611A1B2905DDC9
:1007000014400025002660E76346CBE72E00202337
:10071000CE40591A8D406B1E9D412E43730704D065
:100720000F233340042B00D00436730104D5012479
:1007300001251440002648E70124B601760A14403A
:10074000002542E780260124F6032E437602760A2E
:100750001440FF2539E7C046CC6B0008FFFFFFF7C8
:100760004302590A4300C20F1B0E00207E2B0EDDF0
:100770009D2B0DDC802000040143952B0BDC962083
:10078000C31AD9400B005842002A00D11800704704
:10079000034BD018FBE7963B99400B00F3E7C046AC
:1007A000FFFFFF7F70B5002830D0C317C5185D402C
:1007B000C40F280000F03EF89E231B1A962B0DDC78
:1007C0009622D21A95406A02520AD8B25202C00545
:1007D000520AE40702432243100070BD992B19DC32
:1007E0009922D21A9540124A2A40690704D00F2153
:1007F0000D40042D00D00432510103D50C4B1A409A
:100800009F231B1A9201520AD8B2DFE7002400206E
:100810000022DBE705222E00121AB921D6402A0059
:10082000C91A8A40551EAA4135001543DBE7C04668
:10083000FFFFFFFB1C2101231B04984201D3000C86
:1008400010391B0A984201D3000A08391B09984243
:1008500001D30009043902A2105C40187047C04659
:100860000403020201010101000000000000000079
:1008700010B5002903D1FFF7DDFF203002E0081C8E
:10088000FFF7D8FF10BDC046F0B544465F46564658
:100890004D46F0B41C0083B0002900DA92E00F004E
:1008A000002106008A4610001900002C00DA80E0C2
:1008B00034003D0081468846B94269D866D0414639
:1008C0004846FFF7D5FF834639003000FFF7D0FFD9
:1008D0005B461B1A9C46203B9B4600D586E049465A
:1008E000584681400B004946604681400A00BB42A1
:1008F00000D971E06DD034003D005946A41A9D41E5
:10090000002900DA89E000210020012600900191F1
:1009100059468E400196614601268E4061460096FA
:10092000002960D0D90756080E435F0861460122AE
:1009300000230CE0AF4201D1A6420AD8A41BBD415E
:1009400024196D410139A4185D41002906D0AF4238
:10095000F0D9013924196D410029F8D15B4600987E
:10096000019900196941002B4CDB2E00DE406346E3
:100970002C00DC405B46002B5ADB34009C402300FB
:100980006446A6403200801A994103E0B04296D9ED
:10099000002000215346002B04D003000C0000214E
:1009A0005842A14103B03CBC90469946A246AB4692
:1009B000F0BD5346DB430C009A4613000021584219
:1009C000A14175E7002746428F41012149428A46ED
:1009D00069E7B14200D88EE7002100200090019124
:1009E000614600299ED100980199D3E762464046AE
:1009F0002023494690409B1AD9400300009100995A
:100A00000B4370E7624620239B1A2A009A40260077
:100A100013006246D6401E43A9E7614620260127FF
:100A2000761A00200021F74000900191019772E7AB
:100A300062462023350094409B1ADD4023002B435F
:100A40009EE7C046802270B5174C5205A36B94B048
:100A50001343164AA3631168154B00260B408021EF
:100A600009010B4313600223069310938023DB02DA
:100A70001293802310220125DB0306A809950A9210
:100A80001393119600F0A4FE0F230121019301A8F6
:100A90000C3B029303960496059601F0C5F9636B2F
:100AA0001D43656314B070BD00100240007000402B
:100AB000FFE7FFFFF0B557464E46C0B483B000F0E5
:100AC00005F9FFF7BFFF002001F0D4FD0121002050
:100AD00001F00EFE3E4C0020210001F071FC0128C7
:100AE00072D0206801F050FD04239A46023B394F32
:100AF0000026994609E03D78EDB2012D34D0A37966
:100B0000012B3CD0E379012B4AD02379012BF2D180
:100B100063792671012B4BD0022BECD101A92068FF
:100B200001F092FD0028E6D16B4652461B791A422D
:100B3000E1D001F0C5FD642000F0EAF8002001F0EA
:100B4000CBFD642000F0E4F8002001F0B9FD642042
:100B500000F0DEF8002001F0BFFD642000F0D8F8BE
:100B60003D78EDB2012DCAD10021206801F01CFDB5
:100B70000028C4D13870A3796571012BC2D12068D7
:100B800001F026FD0028BDD10021206801F034FDD0
:100B90000028B7D14B46A0716371E379012BB4D122
:100BA000206801F03DFD0028AFD16071E071ACE735
:100BB00001A9206801F048FD00289CD16B464A46F7
:100BC0001B791A4297D0C0E7002001F079FDFEE7BB
:100BD0003002002000000020802310B59B019842C5
:100BE00006D0202800D0FEE701220D4B1A7110BD5F
:100BF000002001F0B9FD0028F9D1094A5379002BF2
:100C000009D0012B05D0022B00D0FEE7013BD371A8
:100C1000EDE79371EBE70122024B1A70E7E7C0465C
:100C200030020020000000207047C046FEE7C046AA
:100C300010B500F05FF810BD10B5202000F0C0F92D
:100C40008020800100F0BCF910BDC0460D488546EB
:100C5000002103E00C4B5B58435004310B480C4B14
:100C600042189A42F6D30B4A02E000231360043282
:100C7000094B9A42F9D301F0DFF905F079FEFFF74D
:100C800019FFFEE7002000201C6C00080000002077
:100C90001402002014020020D8020020FEE7000009
:100CA0007047C046FA21084B10B589000400186847
:100CB000FFF760FA00F078F801200022210040429E
:100CC00000F034F8002010BD040000204022084B42
:100CD00010B5196803200A431A60022219680A43F2
:100CE0001A60FFF7DFFFFFF7DBFF002010BDC046F3
:100CF00000200240024A1368013313607047C04667
:100D0000CC020020014B18687047C046CC0200207E
:100D100010B582B00190FFF7F5FF0400FFF7F2FF76
:100D2000019B001B9842F9D302B010BD70B500289A
:100D300014DB032483082040FC342600134AC0251A
:100D40009446C00089018640214081409B00634455
:100D5000AD005A59B2431143595170BD03240F23BA
:100D6000C0B203402040FC342500094AC00094462C
:100D70008901854021408140083B9B089B006344DA
:100D8000DA69AA431143D961E7E7C04600E100E010
:100D900000ED00E01F2318401E3B8340014A136012
:100DA0007047C04600E100E00A4A431E012093421A
:100DB0000ED8C020084A094953600B6A00061B027E
:100DC0001B0A03430B620023002093600733136068
:100DD0007047C046FFFFFF0010E000E000ED00E0BC
:100DE000F0B544465F4656464D46F0B4884609681D
:100DF00083B000240023002900D1AEE001229346F5
:100E0000624A8A46944667E0013E012E00D884E09B
:100E10000326A640F643056835402F0003251540FC
:100E2000A5403D430560C5682E404546AD68A540D8
:100E30002E4380256D05C6602A4248D054490327B9
:100E40004D6B59460D4352491F404D6351499D0812
:100E50008946B9000F27AD004D448F408946A02137
:100E6000AE68C905BE43884200D17DE04A4FB84212
:100E700000D17BE0494FB84200D17BE0484FB842F7
:100E800000D17BE0474FB84200D17BE006274946BE
:100E90008F4061463E43AE600D680099CE43D1035A
:100EA00058D4354061460D604D6891034FD43540AC
:100EB00061464D608D68D10246D4354061468D60F3
:100EC000CD6892023DD4290031406246D16052463D
:100ED00001330234DA4040D05D4651469D402940FE
:100EE0000091F4D04246526810271600BE43022EED
:100EF0008AD1DE08B60081190191096A093F894645
:100F00000F211F40BF00B9404E468E43414609693C
:100F1000B9400F00019937430F6203264146A640AE
:100F2000C968F643A140876837400F435946876038
:100F30004768AF433D0017090F409F403D43456060
:100F400069E700992943C0E700990D43B6E7009986
:100F50000D43ADE700990D43A4E703B03CBC9046B8
:100F60009946A246AB46F0BD002792E75F46494648
:100F70008F408EE7022749468F408AE7032749467C
:100F80008F4086E7052749468F4082E700040140ED
:100F90000010024000000140000400500008005012
:100FA000000C0050001C005000690840411E8841A0
:100FB000C0B27047002A01D1816270478161FCE7AD
:100FC000044B10B55A69104202D05861FFF704FE75
:100FD00010BDC04600040140F0B510234746040090
:100FE00080B40D0016000227984622686B1C2DD194
:100FF00002211020936919422BD193691842F9D02C
:10100000202193691942FCD01023D3611033D3619E
:1010100093699B0701D500239362012391690B42D9
:1010200002D191690B43936151681E4B0B40536091
:101030000423636420224123E2540023012022324E
:10104000A354023AA35404BC9046F0BD93691F42D6
:1010500001D00020F7E741469369194213D1002DD2
:1010600004D0FFF74FFE801B8542BED22022636C66
:101070000320134363644123E25400232232A35428
:10108000023AA354DFE7202707E0002DD2D0FFF774
:1010900039FE801B8542CDD3226893691F42F4D06C
:1010A000B2E7C04600E800FEF0B54746040080B451
:1010B0000D001600002945D010232027984604E093
:1010C000FFF720FE801B854243D3226893691F42AD
:1010D0004CD1414693691942F2D020276B1C25D18F
:1010E000202193691942FCD01023D3611033D361BE
:1010F00093699B0701D500239362012391690B42F9
:1011000002D191690B4393615168194B0B405360B5
:101110000423636420224123E2540023012022326D
:10112000A354023AA35404BC9046F0BD93691F42F5
:10113000DAD1002DEED0FFF7E5FD801B8542E9D323
:101140002268CBE7026893699B060FD49369DB069C
:10115000C3D42022636C0320134363644123E2540D
:1011600000232232A354023AA354DCE70020DAE73A
:1011700000E800FEF8B51E00040015000268254BCB
:101180005068890503402448890D03431943F3B28D
:101190001B04194351602000079A0699FFF71CFFB2
:1011A000071E17D1012E09D023682A0A9A620699D0
:1011B000079A2000FFF710FF00280BD12168EDB23D
:1011C0008D624025069B01330BD140228B691A4268
:1011D000FCD004E0636C0127042B00D00327380007
:1011E000F8BD8B691D42FAD1069B002B08D0FFF792
:1011F00089FD079BC01A069B834201D32168E2E761
:1012000020224123E25400232232A354023AA35461
:10121000E4E7C046009800FC00200080F8B51E00FE
:10122000040015000268254B5068890503402448D6
:10123000890D03431943F3B21B0419435160200085
:10124000079A0699FFF7C8FE071E17D1012E09D08D
:1012500023682A0A9A620699079A2000FFF7BCFEC3
:1012600000280BD12168EDB28D628025069B0133E9
:101270000BD180228B691A42FCD004E0636C0127F9
:10128000042B00D003273800F8BD8B691D42FAD12A
:10129000069B002B08D0FFF735FD079BC01A069B65
:1012A000834201D32168E2E720224123E254002354
:1012B0002232A354023AA354E4E7C046009800FC4B
:1012C000002000817047C04610B5041E4ED0412357
:1012D000C35CDBB2002B3ED0242241230121E25427
:1012E00023681A688A431A606168214A0A401A61B1
:1012F0009968204A0A40E1689A60012930D0842226
:10130000A068120202439A60022920D05A681A4942
:1013100000200A435A60D968164A0A40DA602169F7
:1013200062691143A26912020A43DA60216AE26922
:101330000A431A60012219680A431A602021002317
:1013400041226364A15401322363A35410BD80225F
:1013500012015A60DAE740228354FFF7B3FFBBE77C
:101360008022A16812020A439A60CFE70120EDE7CC
:10137000FFFFFFF0FF7FFFFF008000027047C046C5
:1013800070B5041E13D04125242301210268435562
:1013900013688B431360FFF7F1FF00234222002004
:1013A000636463552363A354023AA35470BD0120C0
:1013B000FCE7C046F0B54D4644465F465646F0B49D
:1013C00083B099460CAB20CB04001E884123C35C3C
:1013D0000F0090460220202B06D003B03CBC904664
:1013E0009946A246AB46F0BD002D3DD0002E3BD025
:1013F0004023E25C012AF0D00122E254FFF782FC94
:1014000080231B0282469B4605E0FFF77BFC534688
:10141000C01A19282AD85A4623689B6913405B458D
:10142000F3D021224123E25401331F32E25400233E
:1014300063649B466363534601930E9B656200930E
:1014400066854B46424639002000FFF7E7FE00283C
:1014500016D0636C042B04D040235A460320E25478
:10146000BBE75A463C33E2540120B6E72022412331
:10147000E25400232232A354023AA3540320ACE7DF
:10148000638DFF2B63D9FF23226823855168434B6B
:10149000BF050B404249BF0D0B433B435360FF2345
:1014A0001B04802598463D4E02E0638D002B60D0E2
:1014B00052460E992000FFF78FFD002842D1636A43
:1014C0002268591C61621B789362638D013B9BB259
:1014D0006385238D013B9BB22385002BE5D1638D72
:1014E000002BE2D00E9B01330ED193691D42FCD03C
:1014F000638DFF2B17D9FF23238553682849334079
:101500000B433B435360D0E793691D42F0D10E9BE0
:10151000002BABD0FFF7F6FB5346C01A0E9B83425D
:10152000A4D32268DFE74046638D51689BB22385D0
:101530001B041840802331409B040B4303433B436F
:101540005360B2E7636C042B8ED0032045E720681C
:10155000618D124A436889B21A40802321859B0419
:10156000C9B2BF0509041343BF0D0B433B4343609E
:1015700095E752460E992000FFF796FD0028E1D12D
:1015800020212368074AD9615D682A405A604123B7
:10159000E1540133E054023BE0541EE7009C00FCA0
:1015A0000000FF0100E800FEF0B54D4644465F46EE
:1015B0005646F0B483B099460CAB20CB04001E888D
:1015C0004123C35C0F0090460220202B06D003B0BD
:1015D0003CBC90469946A246AB46F0BD002D3DD09E
:1015E000002E3BD04023E25C012AF0D00122E254DD
:1015F000FFF788FB80231B0282469B4605E0FFF72E
:1016000081FB5346C01A192837D85A4623689B696C
:1016100013405B45F3D022224123E25401331E32B2
:10162000E254002363649B466363534601930E9B1D
:101630006562009366854B46424639002000FFF7FD
:1016400099FD002823D0636C042B04D040235A4614
:101650000320E254BBE75A463C33E2540120B6E78C
:1016600093691E425BD10E9B002B06D0FFF74AFB0D
:101670005346C01A0E9B83424BD220224123E25490
:1016800000232232A354023AA35403209FE7638D20
:10169000FF2B61D9FF23226823855168444BBF0586
:1016A0000B404449BF0D0B433B435360FF230425CC
:1016B00080261B0498460E9B01331AD193691D4264
:1016C000FCD0636A526A591C61621A70238D628D64
:1016D000013B013A9BB292B223856285002B02D175
:1016E000638D002B14D1638D002B46D022680E9B96
:1016F000E2E793691D42E4D10E9B002BBDD0FFF7BA
:1017000001FB5346C01A0E9B8342B6D32268D3E72F
:101710000E9B22680133A3D193691E42FCD0638DD6
:10172000FF2B09D9FF2351682385234B0B40234905
:101730000B433B435360D6E74146608D536880B20C
:101740002085000408401C49194080239B040B435A
:1017500003433B435360C6E72268608D14495368D6
:1017600080B21940164B2085C0B2BF0500040B4360
:10177000BF0D03433B43536098E752460E99200048
:10178000FFF792FC002805D0636C042B00D165E7BD
:1017900003201CE7202123680A4AD9615D682A409A
:1017A0005A604123E1540133E054023BE0540EE718
:1017B000009800FC0024FF81009C00FC0000FF0159
:1017C0000024008200E800FE4123C05CC0B27047E4
:1017D000F0B54F464646C0B4036883B00400DA074C
:1017E00036D50C20C849CA680240082A00D13EE11B
:1017F000CA6802400C2A00D135E1802361685B028F
:10180000994200D111E2A022D202914200D19DE181
:10181000BD4DBE4A286802402A602A6813400193E1
:10182000019B2A68BA4B13402B60002900D096E137
:10183000FFF768FA80260700B60205E0FFF762FAB4
:10184000C01B642800D9D6E12B683342F6D1236847
:101850009A072CD50C20AC49CA680240042A00D152
:10186000CFE1CA6802400C2A00D1C6E1E368A64D68
:10187000002B00D12BE109212A6804278A43134356
:101880002B60FFF73FFA060005E0FFF73BFA801BED
:10189000022800D9AFE12B689B4A1F42F5D021698D
:1018A000536808029B490B40034353602368DA06E0
:1018B00000D582E01A0717D56369934D002B00D13C
:1018C00019E101232A6D022613432B65FFF71AFA4B
:1018D000070005E0FFF716FAC01B022800D98AE1CD
:1018E0002B6D1E42F6D023685A0741D58022002076
:1018F000854B5205996B8046114204D1996B0A437E
:101900009A63012398468027834E7F0033683B42C9
:1019100000D161E18022A3685200934200D10FE21E
:10192000002B00D19AE1A021C9008B4200D1FDE13A
:10193000754B7A4A196D0A401A65196D784A0A4042
:101940001A65FFF7DFF9802681466F4FB600754DA7
:1019500006E0FFF7D7F94B46C01AA84200D94AE182
:101960003B6D3342F5D04346012B00D1D7E12368CC
:101970009B0600D58AE0A36A002B1CD00C21624D87
:10198000EA680A400C2A7BD02A68022B00D1DCE1ED
:10199000654B2C0013402B60FFF7B4F9802506003F
:1019A000AD0405E0FFF7AEF9801B022800D922E163
:1019B00023682B42F6D1002063E00C22524DEB68E5
:1019C0001A4227D0E369002B00D133E180222B6833
:1019D000520013432B60FFF795F980260700B600ED
:1019E00005E0FFF78FF9C01B022800D903E12B683F
:1019F000454A3342F5D051684C4B0B40616A0B436A
:101A000053605368216A1B0209061B0A0B4353608B
:101A100023684FE72B689B0502D5E369002B2FD085
:101A2000E021394B626A5868090201408A4200D8B5
:101A300045E1F020D968084200D0A1E08021986BF0
:101A40004905084200D1B4E1334B1968C0235B015A
:101A50001940C0235B01994200D091E0344BD0186B
:101A6000464246418DE0CA68D20300D4C5E6264A04
:101A70001268920300D4EBE66268002A00D0E7E621
:101A8000012003B00CBC90469946F0BDA3691E4DE1
:101A9000002B00D1FCE001238021AA6889011A43B0
:101AA000AA606A6B02261343224A6B63136A0B43D4
:101AB0001362FFF727F9070005E0FFF723F9C01BC2
:101AC000022800D997E0AB681E42F6D053E7012206
:101AD0002B68042693432B60FFF714F9070005E0F9
:101AE000FFF710F9C01B022800D984E02B681E42C2
:101AF000F6D12368DBE601222B6D022693432B658A
:101B0000FFF700F907001CE000100240FFFFFEFF96
:101B1000FFFFFBFFFFE0FFFF00700040FFFEFFFF45
:101B2000FFFBFFFF88130000FFFFFFFEFF1FFFFF0B
:101B30000040FFFF00000140FFF7E4F8C01B02284F
:101B400059D82B6D1E42F7D12368CDE68020A64AD6
:101B5000C00211680143116011680B431360FFF765
:101B6000D1F880250700A04EAD0204E0FFF7CAF8C7
:101B7000C01B64283FD833682B42F7D0236867E640
:101B80000026012599490B68AB4333430B600B6872
:101B90002B409E4200D073E79349954B4868034021
:101BA00013434B604B68206A1B0200061B0A034369
:101BB0004B608D4B520BD968802301321B0293403E
:101BC0000A068C49120F8A5C0320D3408A4A1360AC
:101BD000FFF768F823686DE633683B433360FFF72F
:101BE00091F8050033683B4200D093E6FFF78AF88E
:101BF000401B6428F6D9032043E7CA68D20300D506
:101C000034E6794A1268520703D5E268012A00D007
:101C100036E72169744D08026A6878490A40024330
:101C20006A60DA0600D445E6C7E66F4A13680B43DC
:101C3000136094E72A68724B802613402B60FFF7ED
:101C400061F8B600070004E0FFF75CF8C01B02284B
:101C5000D1D82B683342F7D123682BE6624E684B0C
:101C6000326D802713403365326D664BBF001340E1
:101C70003365FFF747F8644D814605E0FFF742F80A
:101C80004B46C01AA842B6D8336D3B42F6D16AE63D
:101C90000122AB68022693435C4AAB60116A5C4B3D
:101CA0000B401362FFF72EF8070004E0FFF72AF855
:101CB000C01B02289FD8AB681E42F7D15BE658686C
:101CC0004B490140114359605968206A09020006D6
:101CD000090A0143F0205960D968084212D18021D5
:101CE000986B4905084271D04A4B1968C0235B01C3
:101CF0001940C0235B01994204D1474BD01846429A
:101D0000464100E00026012538490B68AB433343C8
:101D10000B600B682B409E4200D0B1E649E7324A87
:101D20003E4B916B0B409363236821E680202E4B42
:101D3000C000196D01431965196D0A431A6500E663
:101D400029490A6D13430B65FBE5354B802713408A
:101D50002B60FEF7D7FFBF04804606E0FEF7D2FFF8
:101D60004346C01A022800D945E72B681E4E3B4265
:101D7000F4D1226BE16AF3681143626B8024114352
:101D8000284AA404134080220B43F36033685204B2
:101D900013433360FEF7B6FF050005E0FEF7B2FF20
:101DA000401B022800D926E733682342F6D00020E2
:101DB00067E6986B0143996316490868C021490199
:101DC0009D6B014015482840986342E6986B01439B
:101DD000996310490868C02149019D6B01400F4873
:101DE0002840986385E7C04600100240002002406A
:101DF000FF1FFFFFF469000804000020FFE0FFFF61
:101E0000FFFEFFFFFFFBFFFF881300000000014003
:101E1000FFDFFFFF007000400040FFFFFFFFFFEF0C
:101E2000FFFFFFFEFFFF02FFF8B546464F460C00DE
:101E30000121764AC0B4136806000B40A3420CD2BD
:101E400013688B4323431360136819408C4204D0FA
:101E500001200CBC90469946F8BD33689A0706D518
:101E6000F0206B49CA688243B0680243CA60DB074E
:101E70002BD5674A73681268022B7DD0032B76D06E
:101E8000012B00D192E09205E2D50321604DEA6872
:101E90008A431343EB60FEF735FF73680700022B9C
:101EA00074D0032B00D18CE0012B00D199E00C23DE
:101EB0009846584B994604E0FEF724FFC01B48455E
:101EC00058D84246EB681A42F6D101214F4A1368AE
:101ED0000B409C4205D213688B4313601368194270
:101EE000B6D133685A0706D549494B4AC8680240FB
:101EF000F0680243CA601B071ED40C23444AD16811
:101F00000B40082B3BD00C2B1FD0042B39D080204A
:101F1000536800021B045B0F013398403C4B3F4A5F
:101F2000DB681B061B0FD35CD8403D4B18600320B9
:101F3000FEF7B8FE00208CE735483169C368394A9E
:101F4000C90013400B43C360D7E78B0236481B0F11
:101F5000C45C0902D368890F0131DB032CD41368F8
:101F6000DB064ED531486043FEF704F9D6E792010F
:101F70008BD46DE703206CE7920386D468E72C4886
:101F8000CCE71368DB0615D52848C7E70A3398461F
:101F9000204B994604E0FEF7B5FEC01B4845E9D842
:101FA0004246EB681340082BF5D18EE7520700D567
:101FB0006BE74DE71F48B1E71D486043FEF7DAF8CD
:101FC000ACE709339846134B994604E0FEF79AFEB6
:101FD000C01B4845CED84246EB6813400C2BF5D1C8
:101FE00073E70B3398460B4B994604E0FEF78AFEE5
:101FF000C01B4845BED84246EB681340042BF5D1C0
:1020000063E70C486043FEF7B5F887E7002002401D
:102010000010024088130000FFF8FFFFF469000879
:1020200004000020FFC7FFFFE869000800093D0029
:1020300000127A000024F4008021104B49001A6835
:102040000A431A60D9680E4A0A40DA6019680D4AD4
:102050000A4001211A609A688A439A6019680A4AFC
:102060000A401A60D968094A0A40DA6000221A61F7
:102070008022074B12059A607047C046001002404C
:102080000C40FF88F6FFF6FEFFFFFBFFFFFF02FF9D
:1020900000ED00E030B5234C87B02000FFF794FB43
:1020A000002808D02000FFF78FFB2038431E9841FE
:1020B000C0B207B030BD1C4B1C4D63603323A3601E
:1020C000323BE3601A4BEA6A236002231A43EA6256
:1020D000EA6A01A91A400092009AC0229200019275
:1020E0001222049303900233124802920593FEF7E2
:1020F00077FE8021AA6B89030A43AA63AB6A172083
:102100000B43AB62AA6A0C4B00211340AB62002266
:10211000FEF70CFE1720FEF73DFE2000FFF7D4F877
:10212000C0E7C046380200202E11B1000010024066
:102130000054004000040050FFFFDFFF30B5234C87
:1021400087B02000FFF740FB002808D02000FFF7F1
:102150003BFB2038431E9841C0B207B030BD1C4B3A
:102160001C4D63603323A360323BE3601A4BEA6A81
:10217000236002231A43EA62EA6A01A91A40009224
:10218000009AC0229200019212220493039002331B
:10219000124802920593FEF723FE8021AA6B890361
:1021A0000A43AA63AB6A17200B43AB62AA6A0C4BC3
:1021B00000211340AB620022FEF7B8FD1720FEF7A6
:1021C000E9FD2000FFF780F8C0E7C0463802002094
:1021D0002E11B100001002400054004000040050D5
:1021E000FFFFDFFFF0B5474602241E4D80B4EB6AC7
:1021F0008CB02343EB62EB6A002723400093009BE3
:102200002023194E0293194B02A9300098460393DC
:1022100005940497FEF7E4FD002200210720FEF755
:1022200085FD0720FEF7B6FDEB6A07A92343EB62A5
:10223000EB6A300023400193019B10230793434630
:102240000A9408930997FEF7CBFD0022002107208E
:10225000FEF76CFD0720FEF79DFD00200CB004BCCE
:102260009046F0BD00100240000400500000111024
:10227000F0B557464E464546E0B40700007884B0B6
:10228000402842D03FD9B1282AD1002B39D09846D6
:1022900080235B019A460123150090440C001D4EDB
:1022A000994604E001340135E4B2454529D053464E
:1022B000B97802934B46A2B20193009501233000F6
:1022C000FFF778F80028EDD03000FFF759F8FFF756
:1022D000E1FE012004B01CBC90469946A246F0BD28
:1022E000BC2812D080200B4E8CB24001B9780290ED
:1022F00001930092012322003000FFF75BF80028D1
:10230000E2D10020E6E73328ECD1012BEAD9802086
:102310000143E7E738020020F0B557464E464546F0
:10232000E0B40700007884B0402842D03FD9B128FB
:102330002AD1002B39D0984680235B019A4601238D
:10234000150090440C001D4E994604E001340135FF
:10235000E4B2454529D05346B97802934B46A2B220
:102360000193009501233000FFF71EF90028EDD0FE
:102370003000FFF705F8FFF78DFE012004B01CBC0C
:1023800090469946A246F0BDBC2812D080200B4E44
:102390008CB24001B978029001930092012322008F
:1023A0003000FFF701F90028E2D10020E6E73328EA
:1023B000ECD1012BEAD980200143E7E73802002065
:1023C000F8B5002605000F000E60694C002800D10A
:1023D00086E0012828D1637E012B7FD0FFF7AEFE77
:1023E00001287BD0332320002375013BA375614B6B
:1023F00030302362604BE061236403001C381033EB
:10240000667525766676A676E576236366626663EC
:102410003860236A1B68002B00D192E0984701289E
:1024200000D187E000205AE06379012B29D0FFF723
:1024300085FE012825D06A2323706C33A370D53B19
:10244000E37123004D4A2833E2604D4AA3602261C4
:102450004C4A1033667026716671A671A362A2633E
:10246000E6623C60E3681D68002D00D172E0200048
:10247000A84701285AD114220021386804F09EFA96
:102480003E60637E012B29D0FFF758FE012825D03E
:10249000332320002375013BA375313B2376E3767C
:1024A000344B30302362344B002523640300E06159
:1024B00010331C3865756576A576236365626563A0
:1024C0003860236A1B68002B3BD098470128A9D1AC
:1024D00014220021386804F071FA3D600120F8BD33
:1024E0006379012BFAD0FFF729FE0128F6D06A2381
:1024F00023706C33A370D53BE37123001F4A28334C
:10250000E2601F4AA36022611E4A10336570257184
:102510006571A571A362A263E5623C60E3681E6811
:10252000002E1ED02000B0470128D1D0FFF75AFE60
:102530000020D4E714220021386804F03FFA3E60FE
:10254000CCE7200014221430002104F037FA0023D5
:102550003B60C3E714220021200004F02FFA3D6005
:102560008FE714220021200004F028FA3E60B5E72E
:102570008402002014000020D0020020B4000020BB
:1025800040010020D402002010B5002809D0C36803
:102590009B68002B05D09847013843425841C0B290
:1025A00010BD0120FCE7C04610B5031E0DD0026926
:1025B000002A0AD0047801206A2C00D010BD926C49
:1025C000002AFBD018009047F8E70120F6E7C04644
:1025D00010B5031E0DD00269002A0AD0017801202F
:1025E0006A2900D010BDD26C002AFBD01800904799
:1025F000F8E70120F6E7C04610B5031E0DD00269CA
:10260000002A0AD0047801206A2C00D010BD526D37
:10261000002AFBD018009047F8E70120F6E7C046F3
:1026200010B5031E0DD00269002A0AD001780120DE
:102630006A2900D010BD926D002AFBD01800904787
:10264000F8E70120F6E7C04610B5031E10D0026976
:10265000002A0DD000290BD0047801206A2C00D06C
:1026600010BD2A341259002AFAD018009047F7E713
:102670000120F5E730B587B0002808D101240E4AC3
:10268000D16A2143D162D36A23400093009B202367
:1026900001931F3B02930023084D8400039301A97B
:1026A000033360590493FEF79BFB605900222021FD
:1026B000FEF780FC07B030BD00100240080000208B
:1026C00010B5044B8000C05801222021FEF772FC97
:1026D00010BDC0460800002010B5044B8000C05853
:1026E00000222021FEF766FC10BDC0460800002035
:1026F00030B587B0002808D10425184AD46A2C4385
:10270000D462D36A2B400093009B80239B010193EA
:102710000023039301330493002903D001290AD035
:1027200007B030BD0E4B800018180291406801A917
:10273000FEF756FBF4E70B4B80000293084B01A910
:1027400018184068FEF74CFB00220F210720FEF707
:10275000EDFA0720FEF71EFBE2E7C046001002403C
:102760000800002000002110802110B5034B8000DC
:10277000181840688901FEF717FC10BD08000020FA
:1027800010B5FFF775FD43425841C0B210BDC046B9
:1027900010B5FFF7C1FD43425841C0B210BDC0465D
:1027A00010B50A0001230F21FFF7B6FD434258413F
:1027B000C0B210BD70B582B06B46DC1D0E000123A7
:1027C000220023210500FFF7A7FD002802D00020EA
:1027D00002B070BD7F21237822001940314321705F
:1027E000012323212800FFF743FD43425841C0B293
:1027F000EEE7C04670B582B06B46DC1D0E000123CB
:10280000220023210500FFF787FD002802D00020C9
:1028100002B070BD302321782200994331432170EA
:102820002F3B23212800FFF723FD43425841C0B22C
:10283000EEE7C04610B50A000C0001232321FFF784
:102840006BFD002801D0002010BD3022237801202C
:1028500013402370F8E7C04610B50A00062328216C
:10286000FFF75AFD43425841C0B210BDF0B546468D
:102870004F46C0B485B06A468846012306322321FC
:102880000500FFF749FD002805D16B4608229B791A
:1028900013406A4693716A460123053220212800BD
:1028A000FFF73AFD6B465B79002803D108221340FD
:1028B0006A465371082B00D175E00020002B66D1C9
:1028C0006A469279002A67D10623012699466A460C
:1028D0000123073223212800FFF71EFD6B46DB7919
:1028E000002803D1302213406A46D371202B65D0D3
:1028F000302B61D0103B5C425C41062302AA2821A8
:102900002800B600FFF708FD34192D4BE4001C1910
:102910006B46656824680820185E4B461841220003
:102920002B00C117FA26FDF70FFD0027FA227600CB
:102930009200002380197941FDF7E2FC43461860BC
:102940006B460A20185E4B46184122002B00C11727
:10295000FDF7FAFCFA220023920080197941FDF775
:10296000CFFC434658606B460C20185E4B4618411E
:1029700022002B00C117FDF7E7FCFA220023801983
:1029800079419200FDF7BCFC43469860012005B0F8
:102990000CBC90469946F0BD1800082AF7D10433C4
:1029A0000026994693E76B469B790020002BEED1D9
:1029B0000823022699468AE703249EE702249CE71F
:1029C000106A000870B582B06B46DC1D0E00012352
:1029D000220020210500FFF79FFC002802D00020E4
:1029E00002B070BD0F2123782200194031432170BD
:1029F000012320212800FFF73BFC43425841C0B28D
:102A0000EEE7C04610B50A000C0001232021FFF7B5
:102A100083FC002801D0002010BD0F222378012064
:102A200093432370F8E7C04670B582B06B46DC1D57
:102A30000E000123220020210500FFF76DFC002875
:102A400002D0002002B070BD0123217822009943FA
:102A50003143217028002021FFF70AFC43425841EE
:102A6000C0B2EFE710B50A000C0001232021FFF7E8
:102A700053FC002801D0002010BD01222378012042
:102A800013402370F8E7C04670B582B06B46DC1D7A
:102A90000E000123220020210500FFF73DFC002845
:102AA00002D0002002B070BD022321782200994399
:102AB00031432170013B20212800FFF7D9FB43421D
:102AC0005841C0B2EEE7C04610B50A000C00012321
:102AD0002021FFF721FC002801D0002010BD022298
:102AE0002378012013402370F8E7C04670B582B008
:102AF0006B46DC1D0E000123220020210500FFF79C
:102B00000BFC002802D0002002B070BD0423217805
:102B10002200994331432170033B20212800FFF715
:102B2000A7FB43425841C0B2EEE7C04610B50A00C9
:102B30000C0001232021FFF7EFFB002801D000202B
:102B400010BD04222378012013402370F8E7C0460B
:102B500010B50A000C0001232021FFF7DDFB00283F
:102B600001D0002010BD08222378012013402370DB
:102B7000F8E7C04610B50A000C0001232321FFF737
:102B8000CBFB002801D0002010BD082223780120B3
:102B900013402370F8E7C04610B50A000C0001236B
:102BA0002721FFF7B9FB002801D0002010BD01222A
:102BB0002378012013402370F8E7C04670B582B037
:102BC0006B46DC1D0E00012322002E210500FFF7BD
:102BD000A3FB002802D0002002B070BD3F21237863
:102BE000220019403143217001232E212800FFF7D4
:102BF0003FFB43425841C0B2EEE7C04610B582B039
:102C00006B460C00D91DFFF7C7FF0123002807D032
:102C10006A46D279002A06D0012A01D12370002306
:102C2000180002B010BD22700023F9E700B583B090
:102C300013006A46073213700123FFF7A1FD4342D8
:102C40005841C0B203B000BD10B50123FFF7A0FD8D
:102C500043425841C0B210BD30B583B06B460D0041
:102C6000591D0400FFF7FEFE002802D1012003B029
:102C700030BD6B462000991DFFF726FF0028F5D0D8
:102C80006B462000D91DFFF751FF0028EED06B46A0
:102C90005B790020013B5A4253412B706B469B7974
:102CA000023B5A4253416B706B46DB79043B5A42FC
:102CB0005341AB70DBE7C04670B50C1C80210500AA
:102CC000C905201CFDF7FEFA0021002807D181214B
:102CD000201CC905FDF7F6FA1021002806D02800AF
:102CE000FFF788FD43425841C0B270BD8221201CCD
:102CF000C905FDF7E7FA20210028F0D11031EEE7F1
:102D000010B502290ED004290AD0002901D00120D3
:102D100010BD0021FFF76EFD43425841C0B2F7E7F6
:102D20002021F7E71021F5E710B582B06B460C00C3
:102D3000D91DFFF77FFD012300280CD06B46DB79FE
:102D4000102B10D014D9202B08D0302B17D183236F
:102D5000DB0523600023180002B010BD8223DB05D1
:102D600023600023F7E78123DB0523600023F2E7DC
:102D7000002B04D18023DB0523600023EBE7024B0B
:102D800023600123E7E7C046000080BF10B582B092
:102D90006B460C00D91DFFF735FE012300280ED02D
:102DA0006B46DB79302B2AD00CD9502B23D013D98A
:102DB000602B1CD0702B0BD1174B23600023180005
:102DC00002B010BD102B0DD0202B20D0002B1AD01C
:102DD000124B23600123F2E7402BF9D1104B236003
:102DE0000023ECE7FE239B0523600023E7E70D4B60
:102DF00023600023E3E70C4B23600023DFE70B4B4A
:102E000023600023DBE7002323600023D7E7084B80
:102E100023600023D3E7C0460000C843000080BF02
:102E200000004842000048430000C8420000C8417A
:102E30000000204130B583B06B460D00591D0400E1
:102E4000FFF786FE002802D1012003B030BD6B469B
:102E50002000991DFFF78EFE0028F5D06B465B79A8
:102E6000002B1BD16B469B79002B33D0082BEBD169
:102E70006B462000D91DFFF7DDFC03000120002B6D
:102E8000E3D06B46DB79102B4FD048D9202B3CD0B8
:102E9000302B37D12D4B00202B60D6E7082BD3D118
:102EA0006B469B79002BCFD16B462000D91DFFF7D5
:102EB000C1FC03000120002BC7D06B46DB79102B2F
:102EC0003FD026D9202B38D0302B1BD1204B0020CF
:102ED0002B60BAE76B462000D91DFFF7ABFC03005F
:102EE0000120002BB1D06B46DB79102B21D007D904
:102EF000202B10D0302B05D1164B00202B60A4E7DF
:102F0000002B02D0144B2B609EE7144B00202B604B
:102F10009BE7002BF6D1124B00202B6095E7002B8E
:102F2000F0D1104B00202B608FE70F4B00202B605F
:102F30008BE70E4B00202B6087E70D4B00202B60AA
:102F400083E70C4B00202B607FE7C0461F853B4189
:102F50007B943B439A993B42000080BF9A99794009
:102F60007B147A4148E17A3F9A99F93F713DFA40E2
:102F70007B147A427B14FA41F0B585B06B460C00A5
:102F8000D91D0700FFF7F6FD002802D1012005B08A
:102F9000F0BD6B463800991DFFF7DAFD0028F5D02B
:102FA0006B469B79082B1BD0002BEFD16B46DB794E
:102FB000002B1BD1062602AD29003800FFF74CFC80
:102FC0000028E3D00023E95E0223EA5E04202B5EA2
:102FD00031413241334121806280A3800020D6E715
:102FE0006B46DB79002BD1D10826E4E70426082BB9
:102FF000CCD1E0E710B586B00C0003A9FFF736FC92
:103000000123002807D0039B2360049B0193636086
:10301000059BA3600023180006B010BD10B5FFF794
:10302000BFFB43425841C0B210BDC04610B582B08C
:103030006A460023D11D0400D371FFF7B1FB0028BD
:1030400002D1013002B010BD6A462378D079181A37
:10305000431E9841C0B2F5E770B50D000978040031
:1030600001394B425941C9B2FFF7DEFC002815D0A7
:103070006978200001394B4259414900FFF704FDAE
:1030800000280BD0A978200001394B425941890012
:10309000FFF72CFD43425841C0B200E0012070BD53
:1030A00070B5837905000C1C012B31D0FE2183689B
:1030B0008905201C1D68FDF705F9002823D1314939
:1030C000201CFDF7FFF8002803D02E4B00206B607A
:1030D00070BD2D49201CFDF7F5F8002816D12B49AD
:1030E000201CFDF7EFF8002844D12949201CFDF7EA
:1030F000E9F8002840D12749201CFDF7E3F8002813
:103100003ED1254BE2E7FE239B05DFE71E4BDDE7C3
:10311000FE21201C8905FDF7D5F800282ED119497C
:10312000201CFDF7CFF8202100281CD11649201CB7
:10313000FDF7C8F83021002815D11449201CFDF7EF
:10314000C1F8402100280ED11149201CFDF7BAF822
:103150005021002807D10F49201CFDF7B3F860214A
:10316000002800D110312800FFF72CFC43425841C1
:10317000C0B2ADE7054BA9E7054BA7E71021F2E781
:10318000044BA3E7000020410000C8410000484272
:103190000000C842000048430000C84310B58379CE
:1031A000012B18D083681B6804291FD8144A890092
:1031B00052589746134A5A60002010BD124A5A606E
:1031C000FAE7FE2292055A60F6E7104A5A60F3E7E2
:1031D0000F4A5A60F0E7042908D80E4B89005B5863
:1031E0009F461021FFF7EEFB0028E5D10120E4E720
:1031F0002021F7E73021F5E75021F3E74021F1E7FF
:10320000706A0008000048420000C84200002041E7
:103210000000C841846A000870B58379040000206A
:10322000012B1FD0FE21A36889051B685D68281C3F
:10323000FDF748F8002818D11849281CFDF742F876
:103240002021002806D11649281CFDF73BF8302123
:1032500000280CD02000FFF7B5FB002803D0012385
:103260000020A37170BD0130FCE71021F2E70D4989
:10327000281CFDF727F840210028EBD10A49281C1B
:10328000FDF720F850210028E4D10849281CFDF75B
:1032900019F860210028DDD11031DBE70000204162
:1032A0000000C841000048420000C84200004843F6
:1032B00030B58379040083B00020002B01D103B026
:1032C00030BDA36820001D686B46D91DFFF79AFB2F
:1032D000002821D06B46DB79302B34D014D9502B09
:1032E0002ED021D9602B1CD0702B13D1174B6B60C3
:1032F00000212000FFF766FB03000120002BDED039
:1033000000230020A371DAE7102B12D0202B05D068
:10331000002B12D00E4B6B600120D0E70D4B6B6081
:10332000E6E70D4B6B60E3E7402BF3D10B4B6B6093
:10333000DEE7FE239B056B60DAE700236B60D7E7CF
:10334000074B6B60D4E7074B6B60D1E70000C843C5
:10335000000080BF000020410000484300004842B8
:103360000000C8420000C841F0B5836883B06A46D7
:103370001D680023D11D2E680400D371FFF710FAD9
:10338000002802D1012003B0F0BD6B462278DB7922
:1033900001209A42F7D1A379002B06D100236B605C
:1033A0000023002033706371EDE7A36820001F68DD
:1033B0006B46D91DFFF726FB0028E3D06B46DB796F
:1033C000302B2DD013D9502B27D01AD9602B21D0D8
:1033D000702B12D1174B7B6000212000FFF7F2FA0F
:1033E00003000120002BCED00023A371D6E7102BC1
:1033F0000CD0202B1AD0002B15D00F4B01207B6056
:10340000C1E7402BF9D10D4B7B60E5E7FE239B051F
:103410007B60E1E70A4B7B60DEE70A4B7B60DBE722
:10342000094B7B60D8E700237B60D5E7074B7B60C7
:10343000D2E7C0460000C843000080BF00004842F9
:10344000000048430000C8420000C841000020417D
:1034500070B5836882B06A461D680023D11D2E684E
:103460000400D371FFF79CF9002804D06B46227842
:10347000DB799A4202D0012002B070BD8021200089
:10348000FFF798F90028F6D000212000FFF796FBFF
:103490000028F0D0124B00216B602000FFF792FA59
:1034A0000028E8D000212000FFF7A4F90028E2D08E
:1034B00001212000FFF7B8FA0028DCD0022120000B
:1034C000FFF7E2FA0028D6D004212000FFF70EFB18
:1034D0000028D0D00123002033706371CCE7C046B0
:1034E0000000C84210B5FEF717FF43425841C0B272
:1034F00010BDC04610B5FEF7BBFE43425841C0B2F6
:1035000010BDC04610B50A0001230F21FEF704FFCD
:1035100043425841C0B210BD70B582B06B46DC1D4D
:103520000E000123220012210500FEF7F5FE0028FF
:1035300002D0002002B070BD4023217822009943C0
:10354000314321703F3B12212800FEF791FE434298
:103550005841C0B2EEE7C04670B582B06B46DC1D84
:103560000E000123220010210500FEF7D5FE0028E1
:1035700002D0002002B070BD0C23217822009943B4
:10358000314321700B3B10212800FEF771FE4342AE
:103590005841C0B2EEE7C04610B50A000C00012346
:1035A0001021FEF7B9FE002801D0002010BD0C222A
:1035B0002378012013402370F8E7C046F0B5474652
:1035C000032680B480460F000024A51CEDB2210024
:1035D00028313A19C9B201234046FEF79DFE002862
:1035E0000CD10134E4B2A542F1D1013EF6B22C0077
:1035F000002EEAD1012004BC9046F0BD0020FAE77D
:1036000070B582B06B46DC1D0E0001232200102134
:103610000500FEF781FE002802D0002002B070BD38
:103620000F212378220019403143217001231021FA
:103630002800FEF71DFE43425841C0B2EEE7C046E7
:1036400010B50A000C0001231021FEF765FE0028CA
:1036500001D0002010BD0F22237801209343237056
:10366000F8E7C04670B582B06B46DC1D0E00012342
:10367000220011210500FEF74FFE002802D0002095
:1036800002B070BD0C232178220099433143217090
:103690000B3B11212800FEF7EBFD43425841C0B21D
:1036A000EEE7C04610B50A000C0001231121FEF719
:1036B00033FE002801D0002010BD0C222378012009
:1036C00013402370F8E7C046F0B54746032680B4A0
:1036D00080460F000024A51CEDB2210022313A19CA
:1036E000C9B201234046FEF717FE00280CD1013471
:1036F000E4B2A542F1D1013EF6B22C00002EEAD18F
:10370000012004BC9046F0BD0020FAE770B582B0FD
:103710006B46DC1D0E000123220011210500FEF77F
:10372000FBFD002802D0002002B070BD0F212378DD
:103730002200194031432170012311212800FEF796
:1037400097FD43425841C0B2EEE7C04610B50A00AB
:103750000C0001231121FEF7DFFD002801D000201D
:1037600010BD0F222378012093432370F8E7C04651
:1037700070B582B06B46DC1D0E00012322001121C2
:103780000500FEF7C9FD002802D0002002B070BD80
:10379000022321782200994331432170013B1121FA
:1037A0002800FEF765FD43425841C0B2EEE7C0462F
:1037B00010B50A000C0001231121FEF7ADFD002811
:1037C00001D0002010BD0222237801201340237075
:1037D000F8E7C04630B583B06A460D0001230732D2
:1037E00006210400FEF798FD00280AD16B466A46C0
:1037F000DD710732012306212000FEF739FD002884
:1038000002D0002003B030BD6A46012307320721F1
:103810002000FEF781FD0028F3D16A462B0A072518
:10382000D2790721AA431D4015436B466A46DD71D4
:10383000073201232000FEF71BFD43425841C0B26E
:10384000E0E7C04670B582B06B46DC1D0E00012378
:10385000220008210500FEF75FFD002802D00020AD
:1038600002B070BD072321782200994331432170B3
:10387000063B08212800FEF7FBFC43425841C0B23A
:10388000EEE7C04670B582B06B46DC1D0E0001232A
:10389000220008210500FEF73FFD002802D000208D
:1038A00002B070BD38232178220099433143217042
:1038B000373B08212800FEF7DBFC43425841C0B2E9
:1038C000EEE7C04670B582B06B46DC1D0E000123EA
:1038D000220009210500FEF71FFD002802D000206C
:1038E00002B070BD7F21237822001940314321703E
:1038F000012309212800FEF7BBFC43425841C0B216
:10390000EEE7C04670B582B06B46DC1D0E000123A9
:1039100022000A210500FEF7FFFC002802D000204B
:1039200002B070BD072321782200994331432170F2
:10393000063B0A212800FEF79BFC43425841C0B2D7
:10394000EEE7C04670B582B06B46DC1D0E00012369
:1039500022000A210500FEF7DFFC002802D000202B
:1039600002B070BD78232178220099433143217041
:10397000773B0A212800FEF77BFC43425841C0B246
:10398000EEE7C04670B582B06B46DC1D0E00012329
:1039900022000D210500FEF7BFFC002802D0002008
:1039A00002B070BD20232178220099433143217059
:1039B0001F3B0D212800FEF75BFC43425841C0B27B
:1039C000EEE7C04670B582B06B46DC1D0E000123E9
:1039D00022000D210500FEF79FFC002802D00020E8
:1039E00002B070BD7F21237822001940314321703D
:1039F00001230D212800FEF73BFC43425841C0B291
:103A0000EEE7C04670B582B06B46DC1D0E000123A8
:103A1000220012210500FEF77FFC002802D00020C2
:103A200002B070BD042321782200994331432170F4
:103A3000033B12212800FEF71BFC43425841C0B251
:103A4000EEE7C04670B582B06B46DC1D0E00012368
:103A5000220014210500FEF75FFC002802D00020A0
:103A600002B070BD032321782200994331432170B5
:103A7000023B14212800FEF7FBFB43425841C0B231
:103A8000EEE7C04670B582B06B46DC1D0E00012328
:103A9000220014210500FEF73FFC002802D0002080
:103AA00002B070BD0C23217822009943314321706C
:103AB0000B3B14212800FEF7DBFB43425841C0B208
:103AC000EEE7C04670B582B06B46DC1D0E000123E8
:103AD000220019210500FEF71FFC002802D000205B
:103AE00002B070BD02232178220099433143217036
:103AF000013B19212800FEF7BBFB43425841C0B2ED
:103B0000EEE7C04670B582B06B46DC1D0E000123A7
:103B1000220019210500FEF7FFFB002802D000203B
:103B200002B070BD082321782200994331432170EF
:103B3000073B19212800FEF79BFB43425841C0B2C6
:103B4000EEE7C04670B582B06B46DC1D0E00012367
:103B5000220019210500FEF7DFFB002802D000201B
:103B600002B070BD102321782200994331432170A7
:103B70000F3B19212800FEF77BFB43425841C0B29E
:103B8000EEE7C04670B582B06B46DC1D0E00012327
:103B9000220019210500FEF7BFFB002802D00020FB
:103BA00002B070BD04232178220099433143217073
:103BB000033B19212800FEF75BFB43425841C0B28A
:103BC000EEE7C04610B50A000C0001231B21FEF7EA
:103BD000A3FB002801D0002010BD0822237801207B
:103BE00013402370F8E7C04610B50A000C0001230B
:103BF0001B21FEF791FB002801D0002010BD2022E0
:103C00002378012013402370F8E7C04610B50A005E
:103C10000C0001231C21FEF77FFB002801D00020AF
:103C200010BD10222378012013402370F8E7C0460E
:103C300010B50A000C0001231C21FEF76DFB0028C3
:103C400001D0002010BD20222378012013402370D2
:103C5000F8E7C04610B50A000C0001231D21FEF74D
:103C60005BFB002801D0002010BD01222378012039
:103C700013402370F8E7C04610B50A000C0001237A
:103C80001D21FEF749FB002801D0002010BD0222B3
:103C90002378012013402370F8E7C04610B50A00CE
:103CA0000C0001231D21FEF737FB002801D0002066
:103CB00010BD04222378012013402370F8E7C0468A
:103CC00010B50A000C0001231D21FEF725FB00287A
:103CD00001D0002010BD082223780120134023705A
:103CE000F8E7C04610B50A000C0001231D21FEF7BD
:103CF00013FB002801D0002010BD102223780120E2
:103D000013402370F8E7C04610B50A000C000123E9
:103D10001D21FEF701FB002801D0002010BD20224C
:103D20002378012013402370F8E7C04610B50A003D
:103D30000C0001231D21FEF7EFFA002801D000201E
:103D400010BD40222378012013402370F8E7C046BD
:103D500010B50A000C0001231E21FEF7DDFA002831
:103D600001D0002010BD01222378012013402370D0
:103D7000F8E7C04610B50A000C0001231E21FEF72B
:103D8000CBFA002801D0002010BD022223780120A8
:103D900013402370F8E7C04630B583B06A460D0083
:103DA000012307323A210400FEF7B6FA002808D1B1
:103DB0006A46012306323B212000FEF7ADFA0028B7
:103DC00002D0002003B030BD6B460F229B7901303A
:103DD00013406A46D2791B0213432B80F2E7C04698
:103DE00010B50A000C0001233B21FEF795FA0028CC
:103DF00001D0002010BD1022237801201340237031
:103E0000F8E7C04610B50A000C0001233B21FEF77D
:103E100083FA002801D0002010BD20222378012041
:103E200013402370F8E7C04610B50A000C000123C8
:103E30003B21FEF771FA002801D0002010BD40227E
:103E40002378012013402370F8E7C04630B583B0D3
:103E50006A460D00012307323C210400FEF75CFA9C
:103E6000002808D16A46012306323D212000FEF7D2
:103E700053FA002802D0002003B030BD6B46032265
:103E80009B79013013406A46D2791B0213432B8081
:103E9000F2E7C04610B50A000C0001235321FEF7DB
:103EA0003BFA002801D0002010BD10222378012009
:103EB00013402370F8E7C04610B50A000C00012338
:103EC0005321FEF729FA002801D0002010BD20223E
:103ED0002378012013402370F8E7C04670B582B004
:103EE0006B46DC1D0E000123220058210500FEF761
:103EF00013FA002802D0002002B070BD01232178FF
:103F0000220099433143217028005821FEF7B0F96F
:103F100043425841C0B2EFE770B582B06B46DC1D3A
:103F20000E000123220058210500FEF7F5F90028B4
:103F300002D0002002B070BD0223217822009943F4
:103F400031432170013B58212800FEF791F943428B
:103F50005841C0B2EEE7C04670B582B06B46DC1D7A
:103F60000E000123220058210500FEF7D5F9002894
:103F700002D0002002B070BD0423217822009943B2
:103F800031432170033B58212800FEF771F9434269
:103F90005841C0B2EEE7C04670B582B06B46DC1D3A
:103FA0000E000123220058210500FEF7B5F9002874
:103FB00002D0002002B070BD08232178220099436E
:103FC00031432170073B58212800FEF751F9434245
:103FD0005841C0B2EEE7C04670B582B06B46DC1DFA
:103FE0000E000123220058210500FEF795F9002854
:103FF00002D0002002B070BD7F212378220019403A
:1040000031432170012358212800FEF731F9434242
:104010005841C0B2EEE7C04670B582B06B46DC1DB9
:104020000D000123220059210600FEF775F9002832
:1040300002D0002002B070BD1F22237815409343A8
:104040001D4322000123592130002570FEF710F98D
:1040500043425841C0B2EDE770B582B06B46DC1DFB
:104060000E000123220059210500FEF755F9002812
:1040700002D0002002B070BD602321782200994355
:10408000314321705F3B59212800FEF7F1F843428C
:104090005841C0B2EEE7C04670B582B06B46DC1D39
:1040A0000D00012322005A210600FEF735F90028F1
:1040B00002D0002002B070BD032223781540934344
:1040C0001D43220001235A2130002570FEF7D0F84D
:1040D00043425841C0B2EDE770B582B06B46DC1D7B
:1040E0000E00012322005A210500FEF715F90028D1
:1040F00002D0002002B070BD0C232278B6009A4393
:10410000334013432370220001235A212800FEF775
:10411000AFF843425841C0B2ECE7C04670B582B038
:104120006B46DC1D0D00012322005A210600FEF71C
:10413000F3F8002802D0002002B070BD0F222378CF
:104140002D0113401D43220001235A213000257008
:10415000FEF78EF843425841C0B2EDE770B582B029
:104160006B46DC1D0D00012322005B210600FEF7DB
:10417000D3F8002802D0002002B070BD3F2223787F
:10418000154093431D43220001235B21300025701D
:10419000FEF76EF843425841C0B2EDE770B582B009
:1041A0006B46DC1D0E00012322005B210500FEF79B
:1041B000B3F8002802D0002002B070BD7F21237820
:1041C000220019403143217001235B212800FEF7B2
:1041D0004FF843425841C0B2EEE7C04670B582B0D6
:1041E0006B46DC1D0D00012322005C210600FEF75A
:1041F00093F8002802D0002002B070BD0F2223786F
:10420000154093431D43220001235C21300025709B
:10421000FEF72EF843425841C0B2EDE770B582B0C8
:104220006B46DC1D0E00012322005C210500FEF719
:1042300073F8002802D0002002B070BD102321784E
:1042400022009943314321700F3B5C212800FEF787
:104250000FF843425841C0B2EEE7C04670B582B095
:104260006B46DC1D0E00012322005C210500FEF7D9
:1042700053F8002802D0002002B070BD60232278DD
:1042800076019A43334013432370220001235C21BB
:104290002800FDF7EDFF43425841C0B2ECE7C046AD
:1042A00070B582B06B46DC1D0E00012322005D213B
:1042B0000500FEF731F8002802D0002002B070BDE2
:1042C000072321782200994331432170063B5D2169
:1042D0002800FDF7CDFF43425841C0B2EEE7C0468B
:1042E00030B583B06A460D00012307325D2104001A
:1042F000FEF712F800280FD16B460722DB795D210B
:104300001340EA0013436A462000D37101230732A9
:10431000FDF7AEFF002802D0002003B030BD6A4692
:10432000012307325C212000FDF7F6FF0028F3D1BE
:104330006B467F22DB796D091340ED011D436A4610
:104340006B460732DD715C2101232000FDF790FFF1
:1043500043425841C0B2E0E770B582B06B46DC1D05
:104360000E00012322005E210500FDF7D5FF002885
:1043700002D0002002B070BD0223217822009943B0
:1043800031432170013B5E212800FDF771FF43425C
:104390005841C0B2EEE7C04670B582B06B46DC1D36
:1043A0000E00012322005E210500FDF7B5FF002865
:1043B00002D0002002B070BD04232178220099436E
:1043C00031432170033B5E212800FDF751FF43423A
:1043D0005841C0B2EEE7C04670B582B06B46DC1DF6
:1043E0000E00012322005E210500FDF795FF002845
:1043F00002D0002002B070BD08232178220099432A
:1044000031432170073B5E212800FDF731FF434215
:104410005841C0B2EEE7C04670B582B06B46DC1DB5
:104420000E00012322005E210500FDF775FF002824
:1044300002D0002002B070BD1023217822009943E1
:10444000314321700F3B5E212800FDF711FF4342ED
:104450005841C0B2EEE7C04670B582B06B46DC1D75
:104460000E00012322005E210500FDF755FF002804
:1044700002D0002002B070BD202321782200994391
:10448000314321701F3B5E212800FDF7F1FE4342BE
:104490005841C0B2EEE7C04670B582B06B46DC1D35
:1044A0000E00012322005E210500FDF735FF0028E4
:1044B00002D0002002B070BD402321782200994331
:1044C000314321703F3B5E212800FDF7D1FE43427E
:1044D0005841C0B2EEE7C04670B582B06B46DC1DF5
:1044E0000E00012322005F210500FDF715FF0028C3
:1044F00002D0002002B070BD02232178220099432F
:1045000031432170013B5F212800FDF7B1FE43429A
:104510005841C0B2EEE7C04670B582B06B46DC1DB4
:104520000E00012322005F210500FDF7F5FE0028A3
:1045300002D0002002B070BD0423217822009943EC
:1045400031432170033B5F212800FDF791FE434278
:104550005841C0B2EEE7C04670B582B06B46DC1D74
:104560000E00012322005F210500FDF7D5FE002883
:1045700002D0002002B070BD0823217822009943A8
:1045800031432170073B5F212800FDF771FE434254
:104590005841C0B2EEE7C04670B582B06B46DC1D34
:1045A0000E00012322005F210500FDF7B5FE002863
:1045B00002D0002002B070BD102321782200994360
:1045C000314321700F3B5F212800FDF751FE43422C
:1045D0005841C0B2EEE7C04670B582B06B46DC1DF4
:1045E0000E00012322005F210500FDF795FE002843
:1045F00002D0002002B070BD202321782200994310
:10460000314321701F3B5F212800FDF731FE4342FB
:104610005841C0B2EEE7C04670B582B06B46DC1DB3
:104620000E00012322005F210500FDF775FE002822
:1046300002D0002002B070BD4023217822009943AF
:10464000314321703F3B5F212800FDF711FE4342BB
:104650005841C0B2EEE7C04670B50A000C00012315
:104660003E210500FDF758FE002809D10123621CF8
:104670003F212800FDF750FE43425841C0B270BDB3
:104680000020FCE770B50A000C0001234B21050057
:10469000FDF742FE002809D10123621C4C212800AD
:1046A000FDF73AFE43425841C0B270BD0020FCE71E
:1046B000F0B583B06B46DC1D0F0001232200012101
:1046C0000600FDF729FE00280AD1802322785B42EC
:1046D000134323702200012301213000FDF7C8FDA0
:1046E0006B469D1D2A0001230F213000FDF714FEAB
:1046F0001F212B782A008B4339401943297001234D
:104700000F213000FDF7B4FD01232200012130000C
:10471000FDF702FE002809D17F22237801211340F2
:104720002370220001233000FDF7A2FD012003B019
:10473000F0BDC04610B5FFF74DF843425841C0B236
:1047400010BDC04610B582B06B460C00D91DFEF7F7
:1047500023FF012300280BD06B46DB79042B0ED0FE
:1047600011D9082B07D00C2B13D10C4B236000233D
:10477000180002B010BD0A4B23600023F8E7094B74
:1047800023600023F4E7002B03D1074B23600023B1
:10479000EEE7064B23600123EAE7C04623DB793EC0
:1047A00023DBF93D23DBF93E23DB793D000080BFAD
:1047B00010B582B06B460C00D91DFEF7EDFE01234B
:1047C00000280CD06B46DB79042B10D014D9082BB1
:1047D00008D00C2B17D18223DB052360002318009F
:1047E00002B010BD8123DB0523600023F7E783239C
:1047F000DB0523600023F2E7002B04D18023DB05D7
:1048000023600023EBE7024B23600123E7E7C04668
:10481000000080BF10B5FFF7BFFA43425841C0B255
:1048200010BDC04610B5FFF717FF43425841C0B254
:1048300010BDC04610B5FFF709FB43425841C0B256
:1048400010BDC04610B582B06B460C00D91DFFF7F5
:10485000EBFA0123002807D06A46D279002A06D055
:10486000402A01D123700023180002B010BD22702D
:104870000023F9E710B582B06B460C00D91DFFF795
:10488000AFFA0123002807D06A46D279002A06D061
:10489000102A01D123700023180002B010BD22702D
:1048A0000023F9E710B582B06B460C00D91DFFF765
:1048B000A9FA0123002807D06A46D279002A06D037
:1048C000202A01D123700023180002B010BD2270ED
:1048D0000023F9E770B50C1C05002449201CFBF7E8
:1048E000F1FC0821002806D12149201CFBF7EAFC35
:1048F0001021002806D02800FFF724F84342584131
:10490000C0B270BD1B49201CFBF7DCFC182100283D
:10491000F1D11949201CFBF7D5FC20210028EAD150
:104920001649201CFBF7CEFC28210028E3D11449AE
:10493000201CFBF7C7FC30210028DCD11149201CCA
:10494000FBF7C0FC38210028D5D10F49201CFBF70C
:10495000B9FC40210028CED10C49201CFBF7B2FC49
:1049600048210028C7D10831C5E7C04600002041D2
:104970000000C841000048420000C842000048430F
:104980000000C843000048440000C84400404E45B1
:1049900030B583B000236A460D0053709370D37016
:1049A000137153719371D371040004220021280004
:1049B00002F004F86A46012301321B212000FEF7B1
:1049C00091FD002800D199E06A46012302321C21A2
:1049D0002000FEF787FD002800D18FE06A46012302
:1049E00003321D212000FEF77DFD002800D185E067
:1049F000012301AA53212000FEF774FD00287DD079
:104A00006A46012305325E212000FEF76BFD002877
:104A100074D06A46012306325F212000FEF762FD52
:104A200000286BD06A46012307320D212000FEF7D3
:104A300059FD002862D06B4610225B791A4203D1DF
:104A4000694689790A4207D06A465278920603D5A8
:104A5000012229780A432A7020221A4203D169468A
:104A600089790A4207D06A465278120703D508228C
:104A700029780A432A7040221A4203D1694689796B
:104A80000A4207D06A469278920603D50222297814
:104A90000A432A7008221A4203D1694689790A42D8
:104AA00007D06A469278D20603D5042229780A43B1
:104AB0002A7004221A4203D1694689790A4207D032
:104AC0006A46D278520603D5402229780A432A70D2
:104AD0006A46D2797F2A14D802221A4204D16B4640
:104AE0009B7900201A420AD06B461B7900209B0656
:104AF00005D520232A7813432B7000E0012003B052
:104B000030BD6A461279D206E6D5102229780A43CA
:104B10002A70E1E710B50123FEF7E4FC4342584157
:104B2000C0B210BD10B582B06B460C00D91DFFF7A6
:104B3000EBF80123002807D06A46D279002A06D074
:104B4000202A01D123700023180002B010BD22706A
:104B50000023F9E710B582B06B460C00D91DFFF7B2
:104B6000C1F80123002807D06A46D279002A06D06E
:104B7000102A01D123700023180002B010BD22704A
:104B80000023F9E710B582B06B460C00D91DFFF782
:104B900097F80123002807D06A46D279002A06D068
:104BA000082A01D123700023180002B010BD227022
:104BB0000023F9E710B582B06B460C00D91DFFF752
:104BC0006DF80123002807D06A46D279002A06D062
:104BD000042A01D123700023180002B010BD2270F6
:104BE0000023F9E710B582B06B460C00D91DFFF722
:104BF00043F80123002807D06A46D279002A06D05C
:104C0000022A01D123700023180002B010BD2270C7
:104C10000023F9E710B582B06B460C00D91DFFF7F1
:104C200019F80123002807D06A46D279002A06D055
:104C3000012A01D123700023180002B010BD227098
:104C40000023F9E710B582B06B460C00D91DFFF7C1
:104C50006DF80123002807D06A46D279002A06D0D1
:104C6000402A01D123700023180002B010BD227029
:104C70000023F9E770B50C1C80210500C905201C34
:104C8000FBF720FB0021002807D18121201CC9054A
:104C9000FBF718FB0821002806D02800FEF75CFC73
:104CA00043425841C0B270BD8221201CC905FBF7A8
:104CB00009FB0C210028F0D10839EEE710B50229D4
:104CC0000ED004290AD0002901D0012010BD0021F6
:104CD000FEF742FC43425841C0B2F7E70C21F7E728
:104CE0000821F5E710B5FFF719FA43425841C0B261
:104CF00010BDC04610B5FFF7EFF943425841C0B2AE
:104D000010BDC04610B5FFF7C7F943425841C0B2C5
:104D100010BDC04610B5FFF77FF943425841C0B2FD
:104D200010BDC04610B582B06B460C00D91DFEF711
:104D30006DFF0123002807D06A46D279002A06D0E9
:104D4000102A01D123700023180002B010BD227078
:104D50000023F9E710B582B06B460C00D91DFEF7B1
:104D600067FF0123002807D06A46D279002A06D0BF
:104D7000202A01D123700023180002B010BD227038
:104D80000023F9E710B5FFF7E9F943425841C0B2F3
:104D900010BDC04610B582B06B460C00D91DFEF7A1
:104DA00011FF0123002807D06A46D279002A06D0D5
:104DB000082A01D123700023180002B010BD227010
:104DC0000023F9E710B582B06B460C00D91DFFF740
:104DD00073F80123002807D06A46D279002A06D04A
:104DE000202A01D123700023180002B010BD2270C8
:104DF0000023F9E710B5FFF75BFC43425841C0B20E
:104E000010BDC04610B50021FEF75CFE434258417C
:104E1000C0B210BD10B50221FEF754FE4342584106
:104E2000C0B210BD10B5FFF72DFC43425841C0B2CF
:104E300010BDC04610B582B06B460C00D91DFFF7FF
:104E400029F80123002807D06A46D279002A06D023
:104E5000102A01D123700023180002B010BD227067
:104E60000023F9E710B5FFF71BFA43425841C0B2DF
:104E700010BDC04610B582B06B460C00D91DFEF7C0
:104E8000B3FE0123002807D06A46D279002A06D053
:104E9000202A01D123700023180002B010BD227017
:104EA0000023F9E730B583B06B460D00D91D04002F
:104EB000FEF77EFC002802D1012003B030BD6B4616
:104EC0002000991DFEF7EEFB0028F5D06B46DB793C
:104ED000022B12D06B469B79042B15D007D9082BD7
:104EE00016D00C2B0DD10C4B00202B60E5E7002BCE
:104EF00007D10A4B00202B60DFE7094B00202B6015
:104F0000DBE7084B2B60D7E7074B00202B60D4E78B
:104F1000064B00202B60D0E70000FA4400007543E8
:104F20000000FA42000080BF0000FA4300007A440B
:104F300010B582B06B460C00D91DFEF709FF0123A6
:104F4000002807D06A46D279002A06D0012A01D16A
:104F500023700023180002B010BD22700023F9E76F
:104F600000B583B013006A46073213700123FEF7C1
:104F7000C1FA43425841C0B203B000BD10B582B07F
:104F80006B460C00D91DFEF75BFB012300280ED0F9
:104F90006B46DB79502B38D00CD8202B25D014D978
:104FA000302B36D0402B28D1204B23600023180013
:104FB00002B010BD802B30D00FD9902B19D0A02B70
:104FC0001BD11B4B23600023F1E7002B19D0102BC2
:104FD00013D1184B23600023E9E7602B21D0702BFD
:104FE0000BD1154B23600023E1E7144B2360002312
:104FF000DDE7134B23600023D9E7124B2360012325
:10500000D5E7002323600023D1E70F4B2360002363
:10501000CDE70E4B23600023C9E70D4B236000232F
:10502000C5E70C4B23600023C1E7C0460000D04217
:105030000020D04500005041004050440000D041C5
:1050400000205045000080BF000050430000504247
:105050000080CF440000D04310B5FEF753FA43421E
:105060005841C0B210BDC04610B582B06B460C00AE
:10507000D91DFEF77FFE0123002807D06A46D279AA
:10508000002A06D0022A01D123700023180002B0A2
:1050900010BD22700023F9E710B502290ED00429B3
:1050A0000AD0002901D0012010BD0021FEF7DAFA54
:1050B00043425841C0B2F7E70C21F7E70421F5E776
:1050C00010B582B06B460C00D91DFEF73FFB0123E3
:1050D00000280ED06B46DB79502B38D00CD8202B13
:1050E00025D014D9302B36D0402B28D1204B23602B
:1050F0000023180002B010BD802B30D00FD9902BA8
:1051000019D0A02B1BD11B4B23600023F1E7002BF0
:1051100019D0102B13D1184B23600023E9E7602B23
:1051200021D0702B0BD1154B23600023E1E7144BEA
:1051300023600023DDE7134B23600023D9E7124BE4
:1051400023600123D5E7002323600023D1E70F4B21
:1051500023600023CDE70E4B23600023C9E70D4BEE
:1051600023600023C5E70C4B23600023C1E7C04642
:105170000000D0420020D045000050410040504483
:105180000000D04100205045000080BF0000504387
:10519000000050420080CF440000D04310B50123EE
:1051A000032904D8FEF74EFC43424341DBB218000A
:1051B00010BDC04610B50123012904D8FEF78EFEAC
:1051C00043424341DBB2180010BDC04610B5002970
:1051D00003D0802901D0012010BDFEF773FB4342AC
:1051E0005841C0B2F8E7C04610B5002903D02029C5
:1051F00001D0012010BDFEF7C5FB43425841C0B2AB
:10520000F8E7C04610B50123062904D81A005B242C
:105210008A40144201D1180010BDFEF773FB4342CF
:105220004341DBB2F7E7C04610B50123072904D894
:10523000FEF708FB43424341DBB2180010BDC046F5
:1052400010B500210400FFF7A7F8002801D10120C4
:1052500010BD00212000FFF75FF90028F7D00021E2
:105260002000FEF7B9FE0028F1D000212000FEF753
:10527000F3FE43425841C0B2EAE7C04610B5837915
:10528000012B14D083681B6804291BD8114A89009C
:1052900052589746104A5A60002010BD0F4A5A6073
:1052A000FAE70F4A5A60F7E70E4A5A60F4E7042912
:1052B00008D80D4B89005B589F461021FEF7A0F9D6
:1052C0000028E9D10120E8E73021F7E72021F5E7C0
:1052D0004021F3E7986A0008000050410000504266
:1052E0000000D0410000D042AC6A000810B5002197
:1052F0000400FFF771F8002801D1012010BD002142
:105300002000FFF729F90028F7D000212000FEF740
:1053100063FE0028F1D000212000FEF77DFE00286A
:10532000EBD000212000FEF7B7FE0028E5D00021D9
:105330002000FEF7D1FE0028DFD000212000FEF77C
:10534000EDFE0028D9D000212000FEF727FF00281D
:10535000D3D000212000FEF7DFFD0028CDD00021B2
:105360002000FEF7F9FD0028C7D000212000FEF73D
:1053700013FE43425841C0B2C0E7C04610B50021F9
:105380000400FFF789F8002801D1012010BD002199
:105390002000FFF741F90028F7D000212000FEF798
:1053A0001BFE0028F1D000212000FEF735FE00286A
:1053B000EBD000212000FEF76FFE0028E5D0002191
:1053C0002000FEF789FE0028DFD000212000FEF734
:1053D000A3FD0028D9D000212000FEF7BDFD002844
:1053E000D3D000212000FEF7D7FD43425841C0B280
:1053F000CCE7C04610B500210400FFF72DF80028C7
:1054000001D1012010BD00212000FFF7E5F80028A0
:10541000F7D000212000FEF7DFFD0028F1D00021A9
:105420002000FEF71BFF0028EBD000212000FEF734
:1054300095FE43425841C0B2E4E7C04610B5002192
:105440000400FEF789FF002801D1012010BD0021D2
:105450002000FFF741F80028F7D000212000FEF7D8
:1054600051FB0028F1D000212000FEF78BFB4342C6
:105470005841C0B2EAE7C04610B500210400FEF76B
:10548000A1FA002801D1012010BD00212000FEF763
:1054900059FB0028F7D000212000FEF773FB0028FD
:1054A000F1D000212000FFF703F943425841C0B278
:1054B000EAE7C04610B500210400FEF7ADFF002862
:1054C00001D1012010BD00212000FFF765F8002860
:1054D000F7D000212000FEF77FFD0028F1D0002149
:1054E0002000FEF7FDFE0028EBD000212000FEF793
:1054F000D7FE43425841C0B2E4E7C04610B501238D
:105500000C2904D81A008A40054C224201D1180007
:1055100010BDFEF7B7FA43424341DBB2F7E7C0469E
:105520001111000070B582B06B460E00991D050088
:10553000FEF73EF90124002816D06B469B79022B1A
:1055400015D06B462800D91DFEF7ACF800280BD00B
:105550006B46DB79042B14D00DD9082B19D00C2BFA
:1055600013D100240D4B3360200002B070BD0C4BF2
:1055700000243360F8E7002B07D10A4B0024336086
:10558000F2E7094B00243360EEE7084B0124336057
:10559000EAE7074B00243360E6E7C04600008C4290
:1055A00000008C4000000C4100008C41000080BFD6
:1055B00000000C4210B5382903D8064A8B00D35896
:1055C0009F46012010BDFEF75DF943425841C0B22D
:1055D000F8E7C046C06A000870B50C1C05001B49FE
:1055E000201CFAF76FFE002827D11949201CFAF772
:1055F00069FE0026002808D000212800FEF7B8F830
:1056000003000120002B10D170BD1249201CFAF7B5
:1056100059FE04360028EFD10F49201CFAF752FE3C
:1056200004360028E8D10436E6E731002800FEF70A
:1056300019F843425841C0B2E6E702212800FEF7BC
:1056400097F843425841C0B2DEE7C0460000FA4234
:10565000000075430000FA4300007A4470B5837976
:1056600005000C1C012B41D083684C49201C1D688F
:10567000FAF728FE002835D14949201CFAF722FE06
:10568000002800D07BE04749201CFAF71BFE0028C9
:1056900000D072E04449201CFAF714FE002800D024
:1056A0006FE04249201CFAF70DFE002800D06CE0A4
:1056B0003F49201CFAF706FE002864D13D49201C12
:1056C000FAF700FE002862D13B49201CFAF7FAFDE8
:1056D00000285ED13949201CFAF7F4FD00285AD180
:1056E000374B00E02D4B00206B6070BD2B49201C18
:1056F000FAF7E8FD1021002838D12949201CFAF7D3
:10570000E1FD2021002831D12649201CFAF7DAFDDD
:10571000302100282AD12449201CFAF7D3FD40214A
:10572000002823D12149201CFAF7CCFD5021002864
:105730001CD11F49201CFAF7C5FD6021002815D196
:105740001C49201CFAF7BEFD702100280ED11A4911
:10575000201CFAF7B7FD8021002807D11749201C2B
:10576000FAF7B0FD9021002800D110312800FDF794
:10577000CDFF43425841C0B2B7E70A4BB3E7084BED
:10578000B1E7094BAFE70A4BADE7084BABE7094B75
:10579000A9E7094BA7E7094BA5E7C0460000504120
:1057A0000000D041000050420000D04200005043B1
:1057B0000000D043004050440080CF4400205045BA
:1057C0000020D04510B58379012B14D083681B6865
:1057D00004291BD8114A890052589746104A5A602A
:1057E000002010BD0F4A5A60FAE70F4A5A60F7E7E7
:1057F0000E4A5A60F4E7042908D80D4B89005B581B
:105800009F461021FDF782FF0028E9D10120E8E73B
:105810003021F7E72021F5E74021F3E7A46B0008EA
:1058200000005041000050420000D0410000D04232
:10583000B86B000810B5FDF765FE43425841C0B291
:1058400010BDC04670B5837905000C1C012B41D0FA
:1058500083684C49201C1D68FAF734FD002835D1B7
:105860004949201CFAF72EFD002800D07BE047496B
:10587000201CFAF727FD002800D072E04449201CC4
:10588000FAF720FD002800D06FE04249201CFAF70B
:1058900019FD002800D06CE03F49201CFAF712FDEA
:1058A000002864D13D49201CFAF70CFD002862D184
:1058B0003B49201CFAF706FD00285ED13949201C1F
:1058C000FAF700FD00285AD1374B00E02D4B00209D
:1058D0006B6070BD2B49201CFAF7F4FC10210028E6
:1058E00038D12949201CFAF7EDFC2021002831D1BC
:1058F0002649201CFAF7E6FC302100282AD1244949
:10590000201CFAF7DFFC4021002823D12149201C6C
:10591000FAF7D8FC502100281CD11F49201CFAF7A7
:10592000D1FC6021002815D11C49201CFAF7CAFCC3
:10593000702100280ED11A49201CFAF7C3FC8021DF
:10594000002807D11749201CFAF7BCFC9021002839
:1059500000D110312800FDF753FE43425841C0B238
:10596000B7E70A4BB3E7084BB1E7094BAFE70A4B80
:10597000ADE7084BABE7094BA9E7094BA7E7094B94
:10598000A5E7C046000050410000D0410000504251
:105990000000D042000050430000D043004050447B
:1059A0000080CF44002050450020D04510B5012391
:1059B000012904D8FEF792FA43424341DBB21800B2
:1059C00010BDC04610B50123FDF78CFD4342584180
:1059D000C0B210BD00B583B013006A460732137021
:1059E0000123FDF787FD43425841C0B203B000BD1B
:1059F00070B5837904000D00012B3BD08368244AE5
:105A00001B685A6000212000FDF7A6FD002801D187
:105A1000012070BD06212000FEF762FC0028F7D0AF
:105A200000212000FEF71AFC0028F1D00021200000
:105A3000FEF7F4FB0028EBD000212000FEF7CEFBA0
:105A40000028E5D003212000FEF72AFC0028DFD043
:105A500080212000FEF7C0FA0028D9D0002D0FD0F9
:105A6000012DD5D110212000FEF796FD434258416B
:105A7000C0B2CEE76021FDF7C3FD0028C8D0C1E762
:105A800010212000FEF7C8FC43425841C0B2C0E7D5
:105A90000000D04370B5837904000D00012B23D0A2
:105AA0008368184A1B685A6000212000FDF754FDE6
:105AB000002801D1012070BD04212000FEF762F80A
:105AC0000028F7D008212000FEF71CF80028F1D0AC
:105AD000002D0FD0012DEDD102212000FEF7FCFC9E
