:020000040000FA
:10600000703E0020156100002F610000316100002A
:106010000000000000000000000000000000000080
:1060200000000000000000000000000033610000DC
:106030000000000000000000356100003761000032
:1060400039610000DD6A000039610000396100003B
:10605000856B00000000000039610000396100001C
:1060600039610000396100003961000039610000C8
:1060700039610000396100003961000039610000B8
:10608000396100005D6B000039610000396100007A
:10609000156C0000396100003961000039610000B1
:1060A00039610000396100000000000000000000BC
:1060B00000000000000000000000000000000000E0
:1060C0000348854600F060FB00480047258000003B
:1060D000703E0020401E00BF00BF00BF00BF00BFD9
:1060E00000BF00BF00BF00BF00BF00BF00BFF1D1B5
:1060F00070470000401E00BF00BF00BF00BF00BFD0
:1061000000BF00BF00BF00BF00BF00BF00BFF1D194
:10611000704700000321094802680A4302600848EA
:1061200002680A4302600748804707480047FEE7C5
:10613000FEE7FEE7FEE7FEE7FEE70000240500407D
:10614000540500401D6C0000C160000030B50B46D6
:10615000014600202022012409E00D46D5409D4241
:1061600005D31D469540491B2546954040191546C7
:10617000521E002DF1DC30BD03460B439B0703D0BC
:1061800009E008C9121F08C0042AFAD203E00B78FC
:106190000370401C491C521EF9D27047D2B201E074
:1061A0000270401C491EFBD270470022F6E710B572
:1061B00013460A4604461946FFF7F0FF204610BD75
:1061C0000321001D401E037812021A43491EF9D50F
:1061D00010467047034603220870000A491C521EED
:1061E000FAD51846704770B502464A40D50F4000B0
:1061F0004A00ED0740085208002814D0002A12D0A7
:10620000C40DD30D41020120C0055202490A520AB1
:10621000E41A091812187D34914201D3641C00E07D
:106220004900002C01DA002070BD0023914201D307
:10623000891A0343400849000028F7D100290AD0F1
:10624000914202D10121C90705E0914201D2012109
:1062500001E00121C943E005C018401900F042F9EE
:1062600070BD0000F0B51FB488B00B9909980024E8
:1062700048400999C00F490049080991C0070B9986
:106280000090490049080B9109990898A6460843CF
:106290001CD00B990A98084318D009980124400093
:1062A000420D4800410D099824050003000B2043CE
:1062B00009900B980003000B20430B9050181C49C9
:1062C0004018002201901446104605E000200146C7
:1062D0000DB0F0BD032801DA034600E003239C461D
:1062E000C11A0AAE0AE05F0008ADED5B4F00F75B34
:1062F0007D430027AA187C41491C5B1E6145F2DDE5
:10630000410004AB5A522104120C0A43240C401CD5
:106310000828DFDB019802900099704601910090F7
:10632000059B049A0799069800F02AF9D0E7000027
:106330000DFCFFFFF0B50C465C4085B0E40FE407B0
:1063400003944C000026640859009446490802460C
:106350000296224321D062460A431ED06200570DA6
:106360004A000E032303550D012402462C4924053F
:10637000781B1B0B360B40182343264361460090C5
:106380001C46501AB44103D30098401C009002E010
:10639000921800985B41002803DA0020014605B0FE
:1063A000F0BD0020012109050746864611E064463C
:1063B0001D46141BB54106D36546521BB3417446B6
:1063C00007430C43A646CD074008490828439218C6
:1063D0005B4105460D43EAD11046184313D0604691
:1063E000194650407140084306D06046101AB34128
:1063F00006D20122002306E000220123DB0702E08F
:106400000122D2435310009874460105381C6141A3
:10641000029C039D0019694100F0A5F8BFE7000048
:10642000FD030000C217C10F504010B54018CA0745
:106430009623002100F05EF810BD00000EB5C217D3
:10644000C10F5040CA0740180021054B029301922A
:1064500000910A460B4600F093F803B000BD00001F
:1064600033040000C20F410040020123400ADB0553
:10647000D207090EC0187F2901DA0020704796293B
:1064800003DC9623591AC84001E096398840002A57
:10649000F4D040427047CB0FDB07490010B54908E4
:1064A00002460A4307D00A0D07240903E401090B39
:1064B000121B002A01DC002010BDC900440F0C4350
:1064C000C100E018D205801800F00CF810BD0000E3
:1064D0000122D207002800DB101A002900DB511A24
:1064E00081427047002904DA401C490001D140086C
:1064F0004000704770B40024050C05D1102400043E
:1065000002D1002921D01124050E01D10002083446
:10651000050F01D10001241D850F01D18000A41CAD
:10652000002801DB4000641C002908D020252E1B18
:106530000D46F540A14000D0012129430843010642
:106540001B1B000ADB1D02D5002070BC7047DB0559
:10655000181880180029F8DA401C4900F5D170BCE1
:1065600040084000704710B5002B08DA0024401C9A
:10657000614192185B411A4301D14008400010BDAF
:10658000F0B51FB482B005460C0003D0084600F0F9
:1065900061FB02E000F05EFB2030024600902146E5
:1065A000284600F003F9049B059A04460F46184359
:1065B0001143084314D0184610431BD000984021C3
:1065C0000A1A1846059900F001F905460E46009A88
:1065D0000599049800F0EAF8084305D0012004E08A
:1065E0002046394607B0F0BD0020C11705430E43D1
:1065F0002C43374300990E986305401A7905E40A45
:1066000000220C43FD0A0A3002D500200146E9E7CA
:106610000105101969410C9C0D9D00196941FFF796
:10662000A2FFDFE7F0B507460846584087B0C00F25
:10663000049048000E46590040084908BC1A884199
:1066400005D2384631461E4617460B4602465800CC
:10665000400810434CD0300D039040055900400DC8
:10666000490D0590401A0290402872DA1803012162
:10667000000B09050843019004980092002805D0FA
:1066800001995242002088410092019002984021D5
:106690000A1A0199009800F089F805460C466B46E5
:1066A00007CB00F0A4F8C0197141039A0E0D002326
:1066B000D71756401A467A40164344D0049A002A07
:1066C0002DD0029A012A039A15DC1205C01A9141B5
:1066D00001263605001C7141D20F059ED20700939A
:1066E000019202962A462346FFF74AFF07B0F0BD03
:1066F00038463146FAE71605224A0F46B218C01A44
:10670000B74101210905001C4F4100187F41114686
:1067100018187941E20F10436D19644113E0E20744
:106720006D0815436408C2071443039A0126120535
:10673000C01A91413605001C7141CE074008304314
:106740004908C01851412A462346FFF70CFFCDE700
:10675000FFE7049801224000C117121A00238B4161
:1067600004983146C417381AA141EEE730B4012429
:10677000E407634030BC55E730B40124E4076140CE
:1067800030BC4FE70000E0FF064C0125064E05E057
:10679000E36807CC2B430C3C98471034B442F7D342
:1067A000FFF792FC78A9000098A9000010B5202AF4
:1067B00004DB0146203A9140002010BD9140202387
:1067C0009C1A0346E3401943904010BD10B5202A9F
:1067D00004DB0846203AD040002110BD0B46D340D0
:1067E000D0402024A21A91400843194610BD10B58C
:1067F000202A06DBCB170846203A1041C1170B436D
:1068000006E00B461341D0402024A21A91400843D1
:10681000194610BD70B54B005B0803430BD04B000D
:106820005C0D002633466542B341D417AD1AA3412F
:1068300002DB0020014670BD12053018514170BDC9
:106840000EB505490291002100910A460B460191BF
:10685000FFF796FE03B000BD3304000070B5CD0F06
:106860004A0009030123090B1B0519430B4BED07D4
:106870000024520D9A4201DA002070BD074B3433D8
:106880009A4203DC9A1AFFF7A1FF02E0044951186B
:1068900088402C43F1D0404270BD0000FF0300004F
:1068A000CDFBFFFF70B58C180578401C6B075B0FA4
:1068B00001D10378401C2A1106D10278401C03E064
:1068C00006780E70401C491C5B1EF9D12B0705D4BD
:1068D0000023521E0DD40B70491CFAE70378401CAC
:1068E000CB1A921C03E01D780D70491C5B1C521ED4
:1068F000F9D5A142D8D3002070BD0000C206D20E47
:1069000001219140014A11607047000080E200E0DF
:10691000C206D20E01219140014A11607047000069
:1069200080E200E0C206D20E01219140014A1160CE
:106930007047000080E100E0C206D20E01219140C4
:10694000014A11607047000000E100E0C206D20E6B
:1069500001219140014A11607047000000E100E010
:10696000C206D20E01219140014A11607047000019
:1069700000E200E010B5002819DA1A4A03071B0FDD
:10698000083B9B089B00D2588307DC0EFF23A340E3
:106990009A438B071B0E8407E40EA3401A43114B46
:1069A0000407240F083CA408A4001A5118E00E4A5A
:1069B00003231B02D21883089B00D2588307DC0EE6
:1069C000FF23A3409A438B071B0E8407E40EA340CA
:1069D0001A43054B032424021B198408A4001A51EE
:1069E00010BD00001CED00E000E100E010B5002843
:1069F00019DA1A4A03071B0F083B9B089B00D25861
:106A00008307DC0EFF23A3409A438B071B0E8407EA
:106A1000E40EA3401A43114B0407240F083CA408BA
:106A2000A4001A5118E00E4A03231B02D21883084F
:106A30009B00D2588307DC0EFF23A3409A438B07A9
:106A40001B0E8407E40EA3401A43054B03242402C3
:106A50001B198408A4001A5110BD00001CED00E0B1
:106A600000E100E010B5002819DA1A4A03071B0FED
:106A7000083B9B089B00D2588307DC0EFF23A340F2
:106A80009A438B071B0E8407E40EA3401A43114B55
:106A90000407240F083CA408A4001A5118E00E4A69
:106AA00003231B02D21883089B00D2588307DC0EF5
:106AB000FF23A3409A438B071B0E8407E40EA340D9
:106AC0001A43054B032424021B198408A4001A51FD
:106AD00010BD00001CED00E000E100E010B51B4817
:106AE0000068002808D01A484068C007C00F002876
:106AF00002D00020154908601448C06800280FD053
:106B00001348406808210840002809D000200F4998
:106B1000C86010480068002802D00E48006880470E
:106B20000A48006900280FD0094840681021084031
:106B3000002809D00020054908610748006800289E
:106B400002D005480068804710BD000000110040D9
:106B50000013004000010020FC00002010B50020C0
:106B6000074908600021064841608160C16000203B
:106B7000034940390860486003F062FA10BD000024
:106B80004011014010B51B48806A00281FD000202A
:106B90001849886218480078012816D117480068FB
:106BA0001749486017480068154940394863164836
:106BB00000688863154800681149886001201449FD
:106BC0008862022002F02EFC00E000BF00BF0948EE
:106BD000406800280CD0002006494860064800782C
:106BE000022803D1032002F01DFC00E000BF00BF1B
:106BF00010BD00000041004050050020400500206D
:106C000040450040440500204C0500204805002078
:106C10000040004010B503F0C3F810BD10B501F0FE
:106C2000CBF8002805D0074807494860C813074932
:106C3000886101F0A5F8002802D00120044988608D
:106C400010BD0000DFFF07C000050040006C0040E1
:106C5000000600402021020C01D010211046020A3B
:106C600001D010460839020901D01046091F8208D8
:106C700001D01046891E420801D0881E7047081AAC
:106C80007047F0B4040C8BB2264682B25E430D0C02
:106C90001046370C584336048019002179411646B6
:106CA0006E43370C36048019794126466E438919A4
:106CB000F0BC704730B47446641E2578641CAB4247
:106CC00004D3635D5B00E31830BC18471D46F8E74A
:106CD0004900CA020243100000D004204A0D01D02E
:106CE00001221043044A490D914201D10221084377
:106CF000012800D105207047FF070000F7B596B0C6
:106D000014460021A160D160179909914D00CD4929
:106D10006D088D4205DC179961602060002019B074
:106D2000F0BDC949C94E8D4238DAD32709997F058C
:106D30000029C74A1799334617DDFFF717FDB542FB
:106D400006D0C44AC44BFFF711FD6160206009E022
:106D50003A46C14BFFF70AFDC04AC14BFFF706FD9B
:106D600061602060012019B0F0BDFFF75BFCB54207
:106D700006D0B84AB84BFFF755FC6160206009E0C7
:106D80003A46B54BFFF74EFCB44AB54BFFF74AFC09
:106D9000616020600020C04319B0F0BDB1498D4250
:106DA000179977DC490049080746AF4AAF4B049171
:106DB000FFF758FA0022AE4BFFF734FCFFF74EFD09
:106DC0000A90FFF73BFBA24A334603910290FFF77C
:106DD00049FA3A46049BFFF7CFFC06460F469D4A08
:106DE0009D4B03990298FFF73DFA2A0D01250C925D
:106DF00032463B46FFF7C0FC61602060032D39D06E
:106E00004800410D0C98401A6901691811398142F6
:106E100030DA98492801794408960D9008180497AB
:106E20004368026803990298FFF71CFA02460B4672
:106E30000791069004990898FFF798FC06460F46BC
:106E4000049B089AFFF798FC079B069AFFF78EFCB5
:106E500005918949049079440D984018C368826867
:106E600003990298FFF7FEF9059B049AFFF77EFC51
:106E70006D1CBDE70998002809DA01226068D20775
:106E8000504060600A9819B04042F0BD02E00A9894
:106E900019B0F0BD09030122090B12050E908918E3
:106EA0001798109140007549400D40184111C006D7
:106EB000C00E0D9113902021081A14900020069006
:106EC00005250790139800280D980CD040198200D2
:106ED0006B487844875813998F401018416814986C
:106EE000C1400F4304E04019810066487844475888
:106EF00010993846FFF7C5FE06460A9138460E99A6
:106F0000FFF7BFFE8A190A9B8A4201D2012100E0E5
:106F10000021C9188C46AF00694679188B684E6805
:106F2000C318834201D2012000E0002096193618D0
:106F3000002802D0964202D903E0964201D20120F5
:106F400000E00020624612184E6068468B60C25115
:106F500028466D1E0028B5DC01210298490740181B
:106F6000800F1390029805998000039E049D0B9159
:106F7000FFF764FA074630460891FFF761FC1D22CF
:106F8000D243FFF747FC10900F912846FFF758FCBB
:106F90003D22D243FFF73EFC0E900D910B98FFF778
:106FA0004FFC5D22D243FFF735FC0B910C900D9BFB
:106FB0000E9AFFF737FB0F9B109AFFF733FB3A4609
:106FC000089BFFF72FFB00250E463A462846089BF4
:106FD000FFF7CCFB0F9B109AFFF7C8FB0D9B0E9A97
:106FE000FFF7C4FB0B9B0C9AFFF7C6FB264A274B07
:106FF000FFF738F907460D91254A264B31462846BA
:10700000FFF730F93A460D9BFFF70CFB0F461522B0
:107010000C9092061D4B31462846FFF723F93B465C
:107020000C9AFFF7FFFA179A002A05DA139A5242D0
:1070300013920122D207514061602060139819B069
:10704000F0BD0000FB21E93F7CD90240FB21F93F64
:10705000000040543163621A61B4D03D7370032E56
:107060008A19A33BFB21394183C8C96D305FE43FD6
:107070000000E03F6E3A00002E3A00000BFCFFFFDC
:10708000E2390000C8390000182D4454FB21F93DB5
:107090003326A611460B113CF0B51FB44E00F92063
:1070A0007608800584B00F46864204DA0498FFF71C
:1070B000D5FB002838D0049A3B4610461946FFF706
:1070C000D1F8044602462C480D460B46062178446A
:1070D00000F05CF822462B46FFF7C4F801910090BF
:1070E0003946079B069A0498FFF7BCF807460291B9
:1070F00020462946019B009AFFF7B4F83A46029BC6
:10710000FFF734FB074600220091D2432046294670
:10711000FFF780FB194A96420ADA3A46009BFFF7CE
:1071200025FB0022164B23E00020154909B0F0BDD5
:10713000144A964202DD0024134D03E00122520559
:10714000B51A002422462B46FFF710FB0646019194
:1071500022462B4600200A49FFF708FB0D4604464D
:107160003A463046009B0199FFF700FB22462B462A
:10717000FFF702FB09B0F0BD863700003333D33F81
:107180000000F03F0000E93F0000D23FF8B50446A0
:107190004F1EC8000838211815461E460868496861
:1071A0003A4606239A4310D02A463346FFF75AF848
:1071B0003A46D200083AA3181A687F1E5B68FFF7A8
:1071C00031FA06223B469343EED1022F23D0042FFF
:1071D00011D0062F2FD12A463346FFF743F8E36A32
:1071E000A26AFFF71FFA2A463346FFF73BF8636AA5
:1071F000226AFFF717FA2A463346FFF733F8E369A6
:10720000A269FFF70FFA2A463346FFF72BF86369A6
:107210002269FFF707FA2A463346FFF723F8E368A7
:10722000A268FFF7FFF92A463346FFF71BF86368A9
:107230002268FFF7F7F9F8BDF0B51FB4054648001E
:107240000C46F9214008890586B088420BDA2846A9
:107250002146FFF73DFD042801D100F071F82846D2
:1072600021460BB0F0BD2A46234610461946FEF7CC
:10727000F9FF06460F462A462346FEF7F3FF009025
:107280002548019132463B4605217844FFF77EFFB1
:10729000029010980391002829D0204A204B019990
:1072A0000098FEF7DFFF0490059168460FC8FEF7CF
:1072B000D9FF002201910090D24309990898FFF765
:1072C000A9FA019B009AFFF751FA32463B46FEF7B6
:1072D000C9FF099B089AFFF749FA059B049AFFF733
:1072E00045FA2A462346FFF747FA0BB0F0BD0B4696
:1072F00030463946029AFEF7B5FF084A084BFFF7B9
:1073000091F9019B009AFEF7ADFF2A462346FFF74D
:1073100089F90BB0F0BD0000C23600004955555543
:107320005555C5BF10B50122FFF774FA10BD0022F4
:1073300010B5134610461146FEF7FCFF10BD0000C5
:10734000034A10B500201107FFF764FA10BD0000D2
:1073500001FDFFFF02E008C8121F08C1002AFAD190
:1073600070477047002001E001C1121F002AFBD1C5
:107370007047000001490860704700008805002040
:1073800000BF00BF00BF00BF00BFBFF34F8F00BFF3
:1073900000BF00BF06480749C86000BF00BF00BF6C
:1073A000BFF34F8F00BF00BF00BF00BF00BFFDE7AE
:1073B0000400FA0500ED00E010B5044601F074FE8B
:1073C0002060002010BD000070B503460C4619482F
:1073D0000068002801D1082070BD002A01D10720D3
:1073E000FAE7002B01D10720F6E700211CE024205A
:1073F0004843104D2D68285C002814D10125242015
:1074000048430C4E3668355424204843094D2D68B6
:107410004019447024204843064D2D68401982616C
:1074200019600020D8E7491C034800788142DEDB60
:107430000420D1E75C05002058050020FFB581B08D
:107440000E4617461C4620468107890F002901D1A8
:10745000012100E00021002902D1072005B0F0BD84
:10746000002C01D10720F9E701F04EFE26490A98C9
:107470000860264806702648046000250CE00021BC
:1074800024206843224A1268115424206843204A69
:107490001268801801756D1CB542F0DB2420704322
:1074A000041903201B4908701B4804601834002588
:1074B0000CE0E900184A1268881800210170417038
:1074C00087704460182179430C196D1C032DF0DB83
:1074D0000020C0431149086000201149087011497B
:1074E00008701420FFF714FA03211420FFF7BAFAEA
:1074F0001420FFF72BFA019801F0DCFD01F0D4FD18
:10750000094908600020A9E77C05002058050020F3
:107510005C0500206005002064050020680500204F
:1075200078050020790500206C050020FEB5044692
:107530000D46164616480068002801D10820FEBDF9
:1075400014480078844201D2052D01D20720F6E7C5
:10755000242060430E490968085C012801D00820F6
:10756000EDE7242060430A49096840184078012863
:1075700001D1284600E00020074603F0DFF83B4633
:107580002A4621460096019002F010FDD7E7000040
:107590005C0500205805002070B504460D480068C1
:1075A000002801D1082070BD0B480078844201D327
:1075B0000720F8E72420604306490968085C012891
:1075C00001D00820EFE703F0B9F80546214602F0A4
:1075D00017FDE8E75C0500205805002001460D482E
:1075E000084000090B4AD2430A40120110430146E9
:1075F000094808408008084AD2430A4092001043D4
:107600000146064808404008044AD2430A40520056
:1076100010437047F0F0F0F0CCCCCCCCAAAAAAAAC8
:107620000146002901D10420704700203F22520169
:107630008A1810750F22D2018A18D0660F22D20143
:107640008A1810670F22D2018A1890670F22D20180
:107650008A18D06700BFE7E700B50346002B01D1C9
:10766000012000BD184600F014F8002801D10120C7
:10767000F7E70020F5E700B50346002B00D100BD79
:10768000184600F006F8502801D10120F7E7002045
:10769000F5E701460F20C0010818806F0F22D201C4
:1076A0008A18D26F801A704770B504460D46002CB8
:1076B00001D1042070BD2046FFF7CEFF00281ED167
:1076C0000F20C0012018C06E19225043011928460E
:1076D000FEF752FD0F21C9016118C86E00F06EFD62
:1076E0000F21C9016118C8660F20C0012018C06FA2
:1076F000401C0F21C9016118C8670020DAE7042087
:10770000D8E710B50446002C01D1042010BD204656
:10771000FFF7A2FF002814D10F21C9016118C86E1C
:1077200000F04CFD0F21C9016118C8660F20C0018F
:107730002018C06F401C0F21C9016118C8670020C4
:10774000E4E70420E2E70FB410B50446002C04D1AE
:10775000042010BC08BC04B018472046FFF78BFF7C
:10776000002801D00420F4E70F21C9016118096F36
:1077700019225143081903A9FEF7FEFC0F21C90184
:107780006118086F00F01AFD0F21C9016118086720
:107790000F20C0012018806F401C0F21C901611803
:1077A00088670020D5E7000070B5084804880020ED
:1077B0000649088000222421044800F051F80546BB
:1077C000A54201D0012070BD0020FCE7082C00205C
:1077D000FEB51E480068401C002834D01B480068D5
:1077E000242148431A4909684018456801F05CFCA7
:1077F0000190184804682146019802F0ABFAC61CB3
:1078000015480078002801D101F060FCAE4201D299
:10781000284600E0304604192402240A20460F4975
:10782000086000BF01F040FC00900199009802F050
:1078300091FAC71C2046019902F08CFA874201D9BF
:1078400002F04CFC01E001F05FFCFEBD6805002089
:107850005C0500206C0500208005002040150140DB
:1078600070B503460C46002A01D10D4D00E0158885
:107870002846002110E0051206023543A8B25D5CDF
:10788000684005062D0F684005034540A8B205066F
:107890002D0D6D006840491CA142ECD370BD000065
:1078A000FFFF000030B503460C46DB4309E02078BB
:1078B000641C58400006800D054D28581D0A68407C
:1078C00003461046521E0028F1D1D84330BD0000B7
:1078D0002801002010B502460B46FF2000210BE0D6
:1078E000545C60400406A40E604084014440E0B251
:1078F000C4004440E0B2491C9942F1D310BD0000DD
:1079000072B603480068401C0149086070470000D7
:107910008405002005480068401E044908600846A8
:107920000068002800D162B670470000840500207E
:1079300010B514484068C105C90D002920D00A4679
:10794000103A50B200280DDA0E4B1C330407240FF6
:10795000083CA408A4001B598407E40EE3401B065E
:107960009B0F0BE0084B032424021B198408A4007E
:107970001B598407E40EE3401B069B0FD8B210BDD1
:107980000420FCE700ED00E000E100E001461448BF
:107990000078144A127890421DD011480078401C9B
:1079A0000F4A107010460078022801D10020107094
:1079B0000B48007880000C4A105808600B4A086891
:1079C00012688018094A1060104600680002000A18
:1079D0001060012070470020086000BFFAE7000037
:1079E0007805002079050020700500206C05002036
:1079F00070470000F0B50346002426E0164E3668B6
:107A000024277E43154F3F68F01946689E4203D9EC
:107A10004668F61A46601DE046689B1B46683419A6
:107A20000026466006750C4E35680B4F066A3E60B0
:107A30000669002E08D00E193602360A86600669DD
:107A4000C66016680662156000BF03480068401CE7
:107A50000028D3D100BFF0BD680500205C050020E0
:107A6000024800684100401870470000980000205C
:107A700010B50146FF22002008E08300074CE358C0
:107A80008B4201D1024605E0431CD8B2044B1B686F
:107A90009842F2D300BF104610BD00000400002041
:107AA00000000020024800684100401870470000B4
:107AB0009800002010B5F2B0394802F083FB384836
:107AC0000078C007C00F00280BD000BF00BF012006
:107AD0003449087034480068401C3349086002F09B
:107AE00035F82F48006802210840002812D000BF56
:107AF00000BF02202B4908702C480068401C2B490D
:107B000008602B480068002802D029480068804798
:107B100002F01CF8224800680421084000283AD0EE
:107B200000BF00BF01202349087023480068401CA3
:107B3000214908601B480078012802D002280CD196
:107B400005E01E480068401C1C49086006E01C480F
:107B50000068401C1A49086000E000BF00BF41A84F
:107B600002F094FB40A80079082813D3882242A988
:107B70001FA8FEF701FB40A80079882809D37822C6
:107B800023A96846FEF7F8FA0E4C1FA80FC8246810
:107B9000A04700BF00BF0C4802F026FB72B010BD2A
:107BA000CC000020C8000020B4000020B800002055
:107BB000A40000209C000020BC000020C000002089
:107BC000C4000020A0000020D000002008B56846B6
:107BD000FFF7F2FB0098002803D100F051F800F005
:107BE00029F80098400908BDF8B500BF00200E4BE9
:107BF000052203210090FFF721FC044600BF254623
:107C0000002D06D000BF002211462846FFF7B8FB22
:107C100000BF00BF00BF054A01210548FFF7D4FBA4
:107C200006463046F8BD00002C300020F1790000F7
:107C30002401002070B5054D002229460448006843
:107C4000FFF774FC0446204670BD0000FFFF7F0074
:107C5000240100200120084988610020074948606C
:107C600001208107886000BF044840680028FBD0DD
:107C700000200249486070470005004000010040B4
:107C800010B502480068FFF787FC10BD24010020F2
:107C900000B591B01DA003C810910F901DA103C99C
:107CA0000E910D9066210C912C221C4901A8FEF723
:107CB00063FA1B48017868468173002141730121F2
:107CC0008185FF212D314185012108A841720221C2
:107CD0006846017101210173042141741148029029
:107CE00001A802F093FA002802D001A802F048FA95
:107CF0000FA9002002F012FB0DA9012002F00EFBDB
:107D00000CA9022002F00AFB11B000BD1234567813
:107D10009A000000BCDEF012230000002CA8000036
:107D2000AC000020B57A00000020114908614861CC
:107D3000886100BF07E0C42141430E4A89188200D0
:107D40000B4B9950401C0428F5DB00200A490861C0
:107D50004861886100BF07E0C4214143074A891890
:107D60008200054B9950401C0428F5DB7047000049
:107D7000841C002074190020B01F0020A01C0020CB
:107D80000C48008CC0B2012812D10A48808C000730
:107D9000000F00280CD10748806AF02108404028D5
:107DA00006D10448C06A0840002801D1012070476C
:107DB0000020FCE7C00F00F01948008CC0B2012879
:107DC0002CD11748808C0007000F002826D11448BA
:107DD000806AF0210840002806D11148C06A084096
:107DE000002801D1012070470D48806AF021084029
:107DF000102806D10A48C06A0840002801D1012095
:107E0000F1E70748806AF0210840302806D104488D
:107E1000C06A0840002801D10120E4E70020E2E721
:107E2000C00F00F001461C2901DC01207047002032
:107E3000FCE70000FEB52B48006801902A48007856
:107E4000009040E00098C00028490968441825784F
:107E500035E01820684361680F18681CC5B2A07827
:107E6000A84200D100253878022802D0032823D167
:107E70000EE02421786848431D4909684618307D82
:107E8000002804D0786802F02BF80020307514E048
:107E90000CE01449096824225143154A12688818D5
:107EA000002101750F4A016A116000BF0D4800688A
:107EB000401C0028EDD100E000BF00BF00BF60788B
:107EC000A842C6D100BF0098411EC9B20091002847
:107ED000B8D1044801680198814201D00120FEBD5B
:107EE0000020FCE7680500206005002064050020F4
:107EF0005C050020FEB507464348006802904348F1
:107F00000078019071E00198C00041490968451866
:107F100063E0781C002807D03E46242070433D498A
:107F200009684418276A29E02978182359436A68A0
:107F300050182978491C29702978AA78914201D1D2
:107F400000212970466824217143324A12688C1836
:107F50000178012902D1217D002900D03DE081680E
:107F6000A160C168E160016921614169E1612A495B
:107F70000978002901D00021A16000BF2749A0682D
:107F80000968401A0002000A2549884208D223499C
:107F9000A068096801F0DEFEE1684018606011E049
:107FA0001E48A168006801F0D5FE0090E1680098C5
:107FB000814204D9E1680098081A606001E000205D
:107FC000606000BF0020A060E06001202075801E7E
:107FD0002062304601F016FF00BF781C002898D1BF
:107FE00028786978884294D100BF0198411EC9B2AF
:107FF0000191002887D1044801680298814201D08C
:108000000120FEBD0020FCE768050020600500207F
:10801000640500205C050020810500206C0500201F
:10802000FFFF7F00002044490860012081070860AD
:1080300000BF414800680028FBD0404800F06EFFB8
:1080400001F0CAFA00F040FFFFF704FEFFF7CCFD95
:10805000FFF7F0FD002017E00021C943C201384BB3
:10806000D21851670022C101C918CA730A74C1012C
:10807000C9184A748A74C101C918CA740A75C10141
:10808000C9184A758A75401C2E4909688842E3D38D
:1080900002F08CF94EE02C480078002815D02B48CF
:1080A00000682B490860FFF791FD2A49086000200D
:1080B0002549087028480088401C2749088001206D
:1080C0002649087000202649088013E000F0C4FE0D
:1080D00007461C480068401E800022490958B942E2
:1080E00008D1012000F07AF801F050FDFFF76EFD95
:1080F0001D490860114800F02DFF0028E6D0FFF769
:1081000065FD044619490968651A17490968661A20
:108110001748006885420DD9681C00280AD0144809
:108120000068864206D9701C002803D001F02EFD9D
:108130000D480460AFE7000000010040D40A0020B1
:108140002406002000000020210100200C01002056
:108150004000002044000020480000204A00002089
:108160004C0000200400002074000020700000205B
:108170005C00002070470000F8B504460D46164626
:108180001F46094804600948056009480760094816
:108190000660002008490870FFF77AFD02F006F932
:1081A00000BF00BFF8BD0000A0000020A400002018
:1081B000AC000020A8000020C800002010B5044634
:1081C0005121601CFDF7C2FF084610BD10B50446E2
:1081D0001521601CFDF7BAFF084610BD01B505E08A
:1081E0000098401E00900348FDF774FF0098002897
:1081F000F6D108BDE703000070B500240025012575
:10820000002C78D0FF201C30624908606248C068AA
:1082100062490968884206D1614840784010614946
:10822000097888422CD060480078072817D15F4829
:108230008069002813D05D484069401C5B49486153
:10824000042801D30020486158488069401E5749DE
:108250008861574800680121084355490860012595
:108260004F48407840104F4908705248407A0028E3
:1082700001D1401E01E04848C0684849086004E058
:108280004D480068401C4C4908604A480078022864
:1082900032D14648806900281ED044484069800099
:1082A00042490858454908600968087844490968FE
:1082B0008847424800680078424908703F48006893
:1082C00002783E480168091D3E48801CFDF754FFB6
:1082D00007203549087009E00020394909688847B6
:1082E00000203849087006202F4908702C48407833
:1082F000344948700DE016E02E480078012808D176
:10830000274800782F490870002048700620264929
:108310000870214880682C49C8622A4848602B4868
:108320002B49086020E0FF2014301A4908602149D9
:10833000C87A2349096888471948234948600020BA
:108340002449086101202449086100BF21480069CF
:108350000028FBD000201F490861FF2018300D497C
:10836000086001201C494860002D11D00A49896825
:10837000C8B200F0F5FE0E480068042108430C491D
:10838000086016480068002802D01448006880473A
:1083900070BD00000012004000140040EC000020FE
:1083A0008E200020E8000020F8000020841C00201F
:1083B000D80000204819002008010020F400002007
:1083C00004010020CC1F002000150040E1830000C4
:1083D000FC0000200011004000100040D4000020EC
:1083E00010B5FF2018300A4908600A49C87A0A49BE
:1083F0000968884709480A4948600A480A490860E4
:108400000A480078062802D105200849087010BDE6
:108410000012004048190020040100208E20002096
:1084200000150040F9810000FC000020F800002049
:1084300010B5FF2014301849086018480068184922
:1084400008601848C08C8238174915229201891893
:10845000486001201449C8600020144908600021C8
:1084600012484160702012494860802088600020D6
:108470001049C8600B480078012803D100200E493C
:10848000096888470D480E4948600E480E49086043
:1084900004200E49087010BD00120040F0000020BA
:1084A00040A500404819002000A0004040A1004025
:1084B00000F5014000110040040100208E20002042
:1084C0000015004025850000FC000020F800002079
:1084D00010B510480068012108430E49086001F0FA
:1084E00003FE0D48806900280AD101200B4908705D
:1084F0000B48006800280CD009480068804708E055
:1085000007480068002802D005480068804701F04D
:10851000CDF910BDD8000020841C0020F8000020F8
:10852000D400002010B57020494988604948C068CF
:10853000002848D048480068002844D00120474916
:10854000486080204249886045480068012108430E
:10855000434908604348008D43490968401A401C5C
:108560004249086001F0C0FD4148007800280CDD58
:108570004049C96AC8B200F0F3FD002805D0384868
:10858000006804210843364908603B488069002898
:1085900004D034482030807A01280AD1012037499C
:1085A000087037480068002850D035480068804778
:1085B0004CE033480068002802D03148006880470A
:1085C00001F074F942E028490868411E264A11600A
:1085D00000281BD101202149486080201C49886067
:1085E0002048008D401C214908601D480068022178
:1085F00008431B4908600120204908702048006892
:10860000002823D01E48006880471FE0FF201C3050
:108610001C4908601C49096808781C490968884792
:108620001B48144948601B481B4908600320134934
:1086300008700120094908608020054948601748F2
:108640004068002802D001201549086010BD0000D4
:1086500000F50140001100400014004000A000405F
:10866000D800002048190020E0000020E40000208D
:108670008E20002000150040841C0020F8000020FF
:10868000D400002000120040F4000020040100206B
:10869000CC1F002031840000FC00002040A10040DD
:1086A0000010004010B50C480068002813D00A499B
:1086B0008968C8B200F054FD00280CD00748006853
:1086C000042108430549086005480068002802D0D5
:1086D00003480068804710BD00140040D800002007
:1086E000D400002010B5284800680121084326491D
:1086F000086001F0F9FC2548807A012803D024485D
:108700008069002818D100202249086101202249EF
:10871000086100BF1F4800690028FBD000201D49E8
:10872000086101201D4908701D48006800282AD0F2
:108730001B480068804726E01548406980001449BE
:10874000085818490860096808781749096888476F
:1087500014480068027813480168091D1348FDF7A2
:108760000BFD1048006840781149C8620120FEF7EF
:10877000C5F80120FEF7E0F800200649886048604F
:1087800001200549886010BDD8000020681900202C
:10879000841C00200011004000100040F800002060
:1087A000D4000020F400002004010020CC1F002091
:1087B000001500401348144951221201891808621B
:1087C00012491148801841620E48001D0E4989184F
:1087D00088620E49091D0C488018C1620C480A497C
:1087E000891808630749F039074880184163084829
:1087F000001D054989188863064903488018C1632C
:10880000704700000011004000F0014000A000404F
:1088100040A100400010004010B50446E722214668
:108820000948FDF7A9FC0022E7210748FFF718F8DF
:108830000549891E088008460088802108430249AE
:10884000891E088010BD00005229002010B5FEF7D7
:10885000ABFF002800D010BD4248006942490860C3
:1088600008460468414884420AD101204049087002
:108870000020404908604048FEF7D2FE00BF00BF1C
:108880003A48401E844209D13648C069002805D0C4
:1088900034480C3000F04CFD00BF00BF022C0FD15B
:1088A0003049898A88B2FFF7BDFA01462D48C16177
:1088B000C069002808D02B4840693049086003E0AF
:1088C000032C01D100F012FB062C05D101202C490C
:1088D00008700A202B490860072C08D1002028497D
:1088E00008700A20274908602348FEF799FE2648A9
:1088F000844203D11B484069244908602248401C37
:10890000844216D11749898A88B2FFF78BFA01464B
:108910001448C161C06900280BD01248406917494A
:108920000860098888B200F0F1FC002801D000F04E
:10893000CBFA0C480C3001F0E5FDFB2080008442AE
:108940000ED10849898888B2FFF76CFA002805D053
:10895000044840680949086000BF01E000BF00BF4B
:1089600000BF78E7082C00201C010020EB0300006A
:10897000210100200C0100205021002024000020B3
:10898000200100205C00002041420F002800002050
:10899000F3B58BB00C468D48007800281DD07A20A6
:1089A000005B8B490988884217D101200B998840C8
:1089B0008849098808438749088087480178012049
:1089C0008840401E83490988884206D100207F499B
:1089D000087082490120FDF7FDFB606F401C0028F4
:1089E0007ED0676F7C20005D7D4908700025E3E044
:1089F00017206843001986787C20005DA84200DCBF
:108A0000DFE0B00077490858401CB100754A50506B
:108A1000B100754A5750384604A90131FDF7DAFB19
:108A200017206843205C00287DD168460674172013
:108A3000684300190179C0780906091401436846A2
:108A40004175090A817517206843001982794179B7
:108A500010060014084304A9C871000A0872172000
:108A600068430019027AC17910060014084304A96A
:108A70004872000A8872172068430019817A427A86
:108A800008060014104304A9C872000A08731720CE
:108A900068430019027BC17A10060014084304A938
:108AA0004873000A8873172068430019827B417B52
:108AB00010060014084304A9C873000A087417209C
:108AC00068430019027CC17B10060014084304A906
:108AD0004874000A8874172068430019817C00E0FC
:108AE00071E0427C08060014104304A9C874000A0F
:108AF0000875172068430019027DC17C1006001418
:108B0000084304A94875000A8875172068430019AE
:108B1000827D417D10060014084304A9C875000A2F
:108B200008761DE0FFE7FF216846017400214175CA
:108B3000817504A8C171017217206843215404A8EB
:108B400041728172C172017341738173C173017487
:108B500041748174C174017541758175C175017667
:108B60002248FEF788FD002807D02048FEF7C9FDFF
:108B70001F480068401C1E4908600D2207A968466E
:108B8000FDF7FAFA194804A90EC9FEF7DCFD002822
:108B900004D118480068401C16490860681C052864
:108BA00009DA7C20015D681C814204DD17214843FD
:108BB00000194078C7196D1C09480078854200DA11
:108BC00016E700BF00BF0DB0F0BD00004A00002056
:108BD000480000204C00002000000020392A00201E
:108BE0004E00002004060020C40500205021002073
:108BF00014010020100100200FB400B59FB00F48F1
:108C00000068401C0D490860FEF7E0FF0C49086051
:108C10000C4800F0AEF9002802D00A4800F0EFF945
:108C20007C2223A96846FDF7A7FA064820A90EC9A9
:108C300000F007FA1FB008BC04B0184780000020FD
:108C400070000020D40A00200FB4F0B5A3B0044691
:108C500075480068401C7449086080222BA903A84D
:108C6000FDF78AFA20A8468900214181002280214F
:108C700003A8FEF7F5FD61006C4A505260001146F2
:108C8000085AB04204D16A480068401C684908602C
:108C900060006649085AB0420FD06648005D6649D8
:108CA0000978884209DA6348005D401C614908552B
:108CB00023B0F0BC08BC04B0184700205D4908553B
:108CC00061005A4A5052A0005C490858401CA1005B
:108CD0005A4A50505A480068401C594908600025BB
:108CE00085E0E0015749411817206843085C02906D
:108CF0000021E001534A8218172068431154E10112
:108D0000504A8A181721694350181721FEF7E2FDCF
:108D10000299884263D1E1014A4A8A1817216943BE
:108D200051180A7CCB7B1106091419430846FDF73C
:108D300079FB45490090FDF756FA0746FDF792FB8F
:108D400000B2019001986F283BD1E0013D494118E4
:108D5000172068430818807880003C490858401C58
:108D6000E101384A8A181721694351188978890026
:108D7000364A5050A0001146085A4004400CE10108
:108D8000304A8A18172169435118C872000A0873BB
:108D9000FEF71CFFA1002E4A515A471A6420474390
:108DA000FEF714FF38182B490988401A01B2E00178
:108DB000244A82181720684310184173090A8173E6
:108DC0000CE00198702809D10821E0011D4A8218A1
:108DD00017206843101841730021817306E0E101F8
:108DE000184A8A1817216943029850546D1CE001F3
:108DF000144940187430007AA84200DD71E7FEF78C
:108E0000E5FEA100124A5050E0010E4A81182046AA
:108E1000FFF7BEFDE1010B4A8818802203A9FDF788
:108E2000ABF900BF44E7000034000020240A002012
:108E3000880000204F0000202D000020A405002005
:108E4000300000202406002000008442340A002064
:108E5000B40A00205800002070B5C2B00025ED43D0
:108E6000FEF74EFD20A9164800F09CF80446FEF7D8
:108E700051FD002C20D1209D2098FEF7F9FD0646DB
:108E80007C2223A96846FDF777F9304620A90EC950
:108E900000F0D2F900280ED00A480068401C0949A9
:108EA00008607C2223A96846FDF766F9304620A9B0
:108EB0000EC9FFF7C9FE00BF284642B070BD0000D2
:108EC000D40A00208400002070B5FEF7C9FD0446D6
:108ED000FEF7E8FD054623462A4602490248FFF709
:108EE0004BF970BD75810000F98B0000002008E08F
:108EF00000218200064B99508200064B9950411C7C
:108F0000C8B21028F4DB0021034A1160704700004A
:108F1000340A0020740A0020800000200146002945
:108F200001D1042070470020592252018A18107480
:108F30000B2212028A1890620B2212028A18D06247
:108F40000B2212028A1850630B2212028A189063B5
:108F500000BFE7E700B50346002B01D1012000BDAB
:108F6000184600F014F8002801D10120F7E700208E
:108F7000F5E700B50346002B00D100BD184600F010
:108F800006F8142801D10120F7E70020F5E7014693
:108F90000B2000020818406B0B2212028A18926BF9
:108FA000801A704770B504460D46002C01D104208C
:108FB00070BD2046FFF7CEFF00281ED10B20000217
:108FC0002018806A8822504301192846FDF7D4F8FA
:108FD0000B2109026118886AFFF7F8F80B210902D2
:108FE000611888620B2000022018806B401C0B2146
:108FF0000902611888630020DAE70420D8E710B579
:109000000446002C01D1042010BD2046FFF7A2FF2A
:10901000002814D10B2109026118886AFFF7D6F8DD
:109020000B210902611888620B2000022018806B56
:10903000401C0B210902611888630020E4E704202A
:10904000E2E70FB410B50446002C04D1042010BC94
:1090500008BC04B018472046FFF78BFF002803D058
:1090600000BF00BF0420F2E70B2109026118C96AA2
:1090700088225143081903A9FDF77EF80B21090244
:109080006118C86AFFF7A2F80B2109026118C862CB
:109090000B2000022018406B401C0B2109026118B4
:1090A00048630020D3E70000014840687047000093
:1090B0000015014010B504460348846003211120C7
:1090C000FDF7D0FC10BD00000015014010B50120D7
:1090D00000040A4948600949403948601120FDF7F9
:1090E00017FC1120FDF732FC0120054908602F20F4
:1090F000FDF700F801200349087010BD401301403E
:10910000001001408005002010B511200121814090
:109110000E4A116000BF012000040D4988600C490F
:109120004039886001200B4948602F20FCF7E2FF9E
:109130000120084988600020074908602F20FCF7BB
:10914000D9FF00200549087010BD000080E100E053
:1091500040130140001001406C05002080050020F4
:1091600010B504463048806904285AD22F48007848
:1091700002280ED12E480078C02801DD002010BD45
:109180002B480078284909698900274A51580870F6
:1091900007E02648C07A244909698900224A5158C3
:1091A00008702248007800280ED11F4909698900FB
:1091B0001D4B59580A781946096989005958081DE4
:1091C0001B49FCF7D9FF0EE0174909698900164BC6
:1091D00059580A781946096989005958081D1449CF
:1091E000891CFCF7C9FF1048006980000E49085827
:1091F00044701048806840B2096989000A4A515891
:10920000887010460069401C11460861042801D38B
:109210000020086104488069401C034988610120DE
:10922000ADE70020ABE70000B01F00204819002088
:109230008E200020401500400FB430B5A1B0054687
:10924000FF2D05D1002021B030BC08BC04B0184768
:10925000104909788900104A51582598884204D04D
:109260000E480068401C0D490860802227A901A80B
:10927000FCF782FF1E980090002204216846FEF74A
:10928000EFFA04461EA88088A04201D10120DAE747
:109290000020D8E73C000020040000203800002017
:1092A0000FB410B5B2B00021684641714821017178
:1092B0000121C171482234A902A8FCF75DFF00BF5B
:1092C00000BF01F0DDF8002805D0002032B010BC4E
:1092D00008BC04B018470B480068401C09490860E6
:1092E00001A801F0FDF8002801D1012000E00020D4
:1092F0000446002004490870002C01D000BF00BFC4
:109300002046E3E7B0000020C800002010B5044666
:109310001C2C01DD002010BD04480068A04203D0D1
:1093200002480460FFF7D0FD0120F4E79800002018
:1093300010B5124A0169116081681268914209D220
:10934000826892000E4BC1689950017D0D4B826876
:10935000995405E00021C94382689200084B995056
:10936000064A116806E000228B00054CE250054BCE
:109370005A54491C0829F6DB10BD000000000020EB
:10938000040000202C05002000B54A00234B5208A1
:1093900087B09A4203DC00221346009229E0204B5A
:1093A0009A4208D1002808D10120FDF7E3FFFDF71C
:1093B000BEFF07B000BD9A4203DBFDF7B3FF07B065
:1093C00000BD02AAFDF79AFC8107890F0120002940
:1093D0000CD0012911D0022915D002A80FC8FDF721
:1093E0005BFE0122D207514007B000BD009002A8E9
:1093F0000FC8FDF721FF07B000BD02A80FC8FDF799
:109400004BFE07B000BD009002A80FC8FDF714FF87
:109410000122D207514007B000BD0000FB21E93F07
:109420000000F07F10B504460248047000F034FBE1
:1094300010BD000050050020FFB581B005460E4666
:109440001746002D01D0002E02D10E2005B0F0BD30
:1094500010480078002806D0012814D0022804D033
:10946000032812D100E000BF00BF0B4805600B4885
:1094700006600B4807600B4904980860002401202F
:10948000FFF7D0FF03E0082401E0032400BF00BF82
:109490002046DBE750050020400500204405002061
:1094A000480500204C050020F7B588B008A80078D2
:1094B000012874D13B480078002825D0002420E002
:1094C00001A93948FEF7F0F80746002F0DD13748BB
:1094D0000068401C3549086019216143344A8818E6
:1094E000192201A9FCF748FE0AE019226243314B18
:1094F000D118192262432E4BD0181922FCF73CFEDA
:10950000641C092CDCDB1EE02948801FFCF758FE98
:10951000002811D02648801FFCF752FE0646E7229D
:109520002449891F2248801FFCF726FE2049891FF5
:109530003046FCF74FFE06E0E7221E49891F1C4813
:10954000801FFCF719FE1A48801FFFF765F92423D6
:10955000E92219491948FFF76FFF054600BF2C465D
:10956000002C06D000BF002211462046FDF708FF60
:1095700000BF00BF0E48801FFCF722FEC007C00FCF
:1095800000280AD00A48801FFCF71AFE440864002D
:109590000749891F2046FCF71DFEFFF757F90BB05E
:1095A000F0BD000020010020502100201801002003
:1095B0003F2A0020262B0020082C002050290020C4
:1095C0000146044801600068002801D0002070476F
:1095D0000E20FCE754050020F0B58BB05448FEF790
:1095E0001FF8544908680021FCF772FF1DD10027BD
:1095F00019E03846FCF722FF05464F4A4F4BFCF76F
:1096000031FE00224E4B01910090FCF793FE039136
:109610000290FFF7B9FE05910490FCF73CFFB900FA
:10962000484A50507F1CFF2FE3DD4748FFF7C8FF33
:10963000044600BF2546002D06D000BF002211467B
:109640002846FDF79DFE00BF00BF082006900920B8
:1096500007900A2008900B200990002108A80172A9
:1096600001214172FF218172C17206A800F076F8D3
:10967000044600BF2546002D06D000BF002211463B
:109680002846FDF77DFE00BF00BF00252FE0192012
:1096900068432E4A8018411C0020C043FCF79AFD05
:1096A000FF221920684329490A54AA221920294671
:1096B000414326480818427400218174BB221920B6
:1096C000684322494018C27400210175CC22192038
:1096D00068431E494018427500218175DD2219201A
:1096E00068431A494018C275002101766D1C092D86
:1096F000CDDB17490020FCF76DFD1448801FFFF7F4
:109700008BF82423E92213491348FFF795FE0446FA
:1097100000BF2546002D06D000BF00221146284676
:10972000FDF72EFE00BF00BF00200BB0F0BD000013
:10973000502100202C2D00201F85EB51B81E194010
:10974000000070402C2C0020A9940000262B002043
:10975000392A0020082C00205029002070B504462A
:10976000002C01D10E2070BD464800680002052182
:10977000090707221202891822689200885042487D
:109780000068800005210907072212028918E26893
:10979000920088500020052109070722120289182B
:1097A00062689200885000210520000707221202FB
:1097B0008018A268920081503449E0684861A0682E
:1097C0008860606808612068C860002088632F494D
:1097D0004031886000250026207C002806D0012822
:1097E00006D0022806D0032808D105E0002507E0AE
:1097F000022505E0042503E0062501E0072600BF59
:1098000000BF002E01D03046ADE7607C00280BD1B0
:10981000012028431D4940314861A07CC861E07C9B
:109820001A49C03108600AE0184840304561A07C00
:1098300016494031C861E07C1449C03108600020FD
:1098400013494860886204201249086000201249C8
:10985000087003210420FDF7C9F80420012181408C
:109860000E4A116000BF0E480E49486004200121D5
:1098700081400D4A116000BF022004490860304653
:1098800071E700003C05002038050020004500403D
:1098900000410040004200405005002080E200E00E
:1098A000020400000043004000E100E010B5012088
:1098B00068490860684840698000674908586749F6
:1098C000086067480078401C8007800F6449086082
:1098D00064480078002804D001281ED002281BD13B
:1098E00045E05E49096808785F49096888475B4830
:1098F0000068027859480168091D5C48FCF73CFC87
:1099000001205B49086008205A4948605A485B4971
:10991000086002205A4908707BE0504909680878BD
:109920005149096888474E480078CC2108434F497F
:10993000087000204870494800680278474801686C
:10994000091D4A48801CFCF717FCFF201C304849C1
:1099500008601120474948604248008D4949086025
:1099600049484649086003204549087051E03B4892
:109970000068C078002804D03A4820304079002898
:1099800001D1012000E0002004463448006800783E
:109990003649087031480068C078002806D131483F
:1099A00020304079002801D0012000E000202C491F
:1099B0000978490008432D49487028480068027812
:1099C00026480168091D2948801CFCF7D5FB002C9E
:1099D00011D0FF201C30264908601120254948601D
:1099E0002048008D27490860274824490860032043
:1099F000234908700CE0FF2014301D490860102036
:109A00001C4948601C481D49086002201C49087018
:109A100000BF00BF1148006840781C49C8620F4869
:109A20000068417801208840184908630D48807A11
:109A300088600E4848600120FCF760FF0120FCF7B9
:109A40007BFF0020124908618860486001201149AD
:109A5000086010BDE4000020841C0020F4000020F9
:109A6000DC0000204819002004010020CC1F002049
:109A70000012004000130040D1840000FC000020D0
:109A8000F8000020E00000203184000000150040B4
:109A900000110040001000403EB528480078012821
:109AA00004D0022806D0032845D121E00120244912
:109AB000486241E00020694608700190029000BFB2
:109AC00020480068002801D0012000E00020044662
:109AD000002C06D100BF002211461046FDF750FCB5
:109AE00000BF00BF174B684607C81B68984723E0B4
:109AF0000120694608701448C06B0190124840303C
:109B0000C068029000BF0F480068002801D0012003
:109B100000E000200446002C06D100BF00221146C0
:109B20001046FDF72DFC00BF00BF064B684607C876
:109B30001B68984700E000BF00BF3EBD50050020F5
:109B400000400040540500200045004010B500BF13
:109B500000BF00F0FBFA00F029FC002803D100BF91
:109B600000BF012010BD0020FCE7000004200449D4
:109B700008610020886003480349086070470000BE
:109B800000A500400202000000A2004070B5A0B095
:109B9000FEF71CF85D4908605D48007800285DD03C
:109BA0005B480078401E5A4908705A4840685A4934
:109BB000884215D1FEF70AF8054658490968681A1F
:109BC00057490968401856490860084600685149D5
:109BD000886052490D60534800884E49C86045E08E
:109BE0004C484068FB218900884203D049484068BE
:109BF00002280DD146480078002809D14A49098831
:109C000088B2FFF783FB002830D0FFF75DF92DE025
:109C100040484068242818D13E488068002803D076
:109C20003C488068414908603A48C068002803D031
:109C30003848C0683E49086036480069002815D099
:109C4000344800693B49086010E0324840682728E2
:109C50000CD13048007B3849087007E000202D49BE
:109C6000086048608860C8600861486148210EA8A3
:109C7000FCF79BFA314800680E90264801681A915B
:109C8000014648682E49884202D0491E884201D1C7
:109C9000012100E00021002902D11E4841681B91EA
:109CA0001C4881681C91C1681D9101691E91416920
:109CB0001F912448007880002349095818910024F6
:109CC00007E060002149095AA20010A88150601CD9
:109CD000C4B21F4800688442F3D300211991402286
:109CE00010A90020C043FDF7DDFD06461996382275
:109CF00012A96846FCF740FA0EA80FC8FFF7D0FA81
:109D0000002801D1FFF7E0F820B070BD5800002016
:109D10002C0000208C050020EB03000044000020F4
:109D20004000002048000020240000206C0000209B
:109D300064000020680000202D0000202800002082
:109D400042420F003C00002004000020240A0020B2
:109D5000000000200246501A0002000A704700006E
:109D600070B504460D480068002812D00B4AE1691E
:109D7000A06912689047054600BF2E46002E06D007
:109D800000BF002211463046FDF7FAFA00BF00BFBF
:109D900002E0A169E069884770BD00007C050020F1
:109DA000FEB50020C04301901048046810480768C1
:109DB0006846FDF7EBFD0546FEF73CF80646002D2C
:109DC00005D001AA21460098FDF714FE012601984E
:109DD000FEF790F8002800D00126002E02D0384669
:109DE000FDF7F6FC002003490870FEBD6C0500205D
:109DF000680500208105002010B51420FCF7B0FD97
:109E000010BD0000F0B5024624205043324B1B68C1
:109E1000C11832480068401C002802D12F48026057
:109E200059E02E484B680068242460432A4C24687B
:109E300000194068834217D82848006824235843F3
:109E4000254B1B68C01840684B68C31A234800683C
:109E500024246043204C2468001943601F48006894
:109E600008621E48026036E04B681C4D2C6828686A
:109E70000DE024254543184E3668AD196D685B1B0F
:109E8000044624254543144E3668AD19286A451CFE
:109E9000002D07D0242545430F4E3668AD196D6857
:109EA0009D42E6D3451C002D0CD0242545430A4E87
:109EB0003668AD196D68EE1A24254543064F3F6894
:109EC000ED196E604B60086224256543024E3668CA
:109ED000AD192A6200BFF0BD5C05002068050020B6
:109EE00070B502462C4C2168084609E0904200D12A
:109EF00009E0014624244443284D2D686419206A52
:109F0000441C002CF2D100BF441C002C00D170BDB9
:109F1000814217D1204C246824256C431F4D2D68A5
:109F20006419246A1C4D2C602C462468641C002C87
:109F300008D101241A4DAC6000241A4D2C60012474
:109F4000194D2C7024244443144D2D686419636802
:109F500024244443114D2D686419256A24244C435C
:109F60000E4E3668A419256224244C430B4D2D68EF
:109F70006419206A441C002C0CD024244443074D4F
:109F80002D6864196468E51824244443034E366838
:109F9000A419656000BFBAE7680500205C050020D1
:109FA000001001406C05002081050020FFB581B044
:109FB00005460E461746E900104A12688818694699
:109FC00000F0CDFB0446002C02D1042005B0F0BD0A
:109FD000012020706660FFF767F8A060E7600498D2
:109FE00020610A986061E900044A126888180099A3
:109FF00000F0CBFBFFF700FF0020E7E7640500203F
:10A00000F8B504460E46E1000C4A12688818694605
:10A0100000F0A5FB0546002D01D10420F8BD02206B
:10A0200028706E60E100054A12688818009900F0F7
:10A03000ACFBFFF7E1FE0020F0E700006405002024
:10A04000F8B520480068401C00283AD00027FFF7E8
:10A050002BF804461C4801682046FFF77BFE0646A5
:10A060001848056811E02420684318490968441815
:10A070006068B04200D90BE06068361A6068C719A2
:10A08000256A2046FFF76CFE00BF681C0028EAD155
:10A0900000BF0F4800780F490978884209D10D4860
:10A0A0000078401CC0B20B490870022801D1002082
:10A0B000087008480078800007490F50FFF79CFEA1
:10A0C00000BFF8BD680500206C0500205C0500207D
:10A0D00078050020790500207005002010B51120BA
:10A0E000FCF73EFC10BD000010B50D48806900284B
:10A0F00014D00120FCF716FC09488069401E08496D
:10A10000886108464069401C486108464069042847
:10A1100001D3002048610120FCF70EFC10BD0000B7
:10A12000841C002007480078012802D0FF2004305A
:10A130007047F0200449886000200249087000BF81
:10A14000F6E70000F800002000F5014010B50A48CD
:10A150000078012802D0FF20043010BD0120FCF758
:10A16000E1FB002005498861486108610120FCF796
:10A17000E3FB0020F1E70000F8000020841C002031
:10A1800010B504460E4800780300FCF793FD081054
:10A19000110506070B0C0D1200BF00BF0120084976
:10A1A000087006E000BF00BF00F06AF901E000BFE0
:10A1B00000BF00BFFFF7B6FF204600F027F810BD34
:10A1C000F800002010B504460120FCF7ABFB054861
:10A1D000006820600020034908600120FCF7ACFB08
:10A1E000002010BDD8000020014606480078002855
:10A1F00002D1FF2002307047034800680860002049
:10A20000F9E70000F8000020E400002010B5044643
:10A2100017480078002802D0FF20033010BD1549F0
:10A22000606808602C2221461348FBF7A5FF002038
:10A230001249086012490860FF2012490870002086
:10A24000C0431149086000F079F9FDF76DFDFFF793
:10A250008DFCFEF7AFFA08482030C07A8107890FDD
:10A260000120FCF787FB0120014908700020D5E799
:10A27000F8000020D400002048190020D800002059
:10A28000DC000020E8000020EC00002010B50446AF
:10A290001F480078002802D1FF20023010BD1D4861
:10A2A0008069002801D11C48F8E70120FCF73AFB3F
:10A2B00018484069800017490858007820700846FF
:10A2C0004069800008584078607008464069800006
:10A2D00008588078A07022780846406980000B46B4
:10A2E0001858011D201DFBF747FF0A484069401C14
:10A2F00008494861042801D3002048610548806965
:10A30000401E044988610120FCF716FB0020C5E7C8
:10A31000F8000020B01F00200303000070B50546C0
:10A320000C4620480078012802D0FF20043070BD80
:10A330002B00FCF7BFFC08050C13171B1F24292E4C
:10A340001948027B21461330FBF716FF24E016481C
:10A35000027B21461830FBF70FFF1DE020781249E1
:10A36000487719E020781049887715E020780E4961
:10A37000C87711E021780C48203001700CE021787A
:10A3800009482030417007E021780748203081706B
:10A3900002E001204002CAE700BF00F0CFF8002031
:10A3A000C5E70000F80000204819002010B52A4831
:10A3B0000078012802D0FF20043010BD0020C043E7
:10A3C00026498860002026490861264826490860F9
:10A3D00026480078002804D001280CD0022820D17B
:10A3E00014E021202249086008201C49486005200B
:10A3F0001949087015E0FF2018301D490860102029
:10A40000164948600520144908700AE0FF201830FA
:10A410001749086010201149486005200E4908704E
:10A4200000BF00BF11482030C078124908630F48B0
:10A43000807A8860104848600120FCF75FFA0120AC
:10A44000FCF77AFA0020064908618860486001201C
:10A450000A4948600020B0E7F800002000130040DF
:10A4600000110040F9810000FC0000204819002084
:10A4700000120040001500408E2000200010004017
:10A4800011480078052803D00F480078072817D115
:10A4900000200E490860401E0D49886000200D49CB
:10A4A00008600D49086101200C49086100BF0A4895
:10A4B00000690028FBD00120034908700020704784
:10A4C000FF200530FBE70000F800002000120040EC
:10A4D00000130040FC00002000110040001000406C
:10A4E00010B5044605484079002801D1044810BD44
:10A4F0000121204600F04CF9F9E70000681900201E
:10A50000010200004168002913D00A490978002996
:10A510000FD1094A016811604168516081689160FA
:10A52000C168D16001691161416951610321014A2A
:10A53000117070472C0000208C05002010B5534886
:10A54000007800280BD0012805D0022814D15048EB
:10A550005049086010E050484E4908600CE04F48F0
:10A560004C49086049484078002801D14C4800E037
:10A570004C484D49086000BF00BF4448407B4B49F0
:10A58000C8604248007A08614048007A002808D034
:10A59000012802D002280CD107E03020444908608D
:10A5A00007E040204249086003E0FA204049086083
:10A5B00000BF00BF3548407A3C4948633348407A81
:10A5C000022804D13B48C8633B48886309E02F4810
:10A5D000407A012805D1FF203449C863FF200830A4
:10A5E00088632A49C87A2B49096888472749897F9F
:10A5F0000906264A527F12041143244A127E12028F
:10A600001143224AD27C11430846FCF7E7FF274951
:10A6100048621E492031897809061C4A2032527846
:10A6200012041143194A2032127812021143174AB8
:10A63000D27F11430846FCF7D1FF1C4988621349B9
:10A64000097D0906114A527D120411430F4A927D79
:10A65000120211430D4AD27D11430846FCF7BEFF9A
:10A660001249C8610949497E0906084A927E1204C6
:10A670001143064AD27E12021143044A127F11434B
:10A680000846FCF7ABFF0949086210BD48190020D5
:10A69000E9A6000004010020BDA6000015A70000E7
:10A6A000E5860000A586000000010020001500409E
:10A6B000F0000020FFFF0000211001000749084AB8
:10A6C00051610849097B491E090401221206114300
:10A6D000020211430143024A9161704700010100E7
:10A6E000001500404819002001460748074A5061FC
:10A6F0000748007B401E0004012212061043C030B0
:10A70000024A9061704700000800030000150040F5
:10A71000481900200021074A51610749097B491E59
:10A720000904012212061143020211430143014AA6
:10A7300091617047001500404819002010B5FDF7E1
:10A74000F7F8012802D0032804D101E0002403E037
:10A75000012401E0022400BF00BF204610BD70B5F7
:10A7600002460B465078411C9078884200D1002167
:10A770001078884201D1002070BD196050781826E9
:10A78000704355682C182046F6E74170704700006A
:10A7900070B504460D4621480078002802D1FF20FC
:10A7A000023070BD1E488069042801D31D48F8E7B7
:10A7B0000120FCF7B7F8002D06D01B48407900288F
:10A7C00002D00120E07001E00020E0701449096926
:10A7D0008900134A5058C4222146FBF7CDFC10488B
:10A7E0000069401C0E49086108460069042801D32D
:10A7F000002008610A488069401C094988610120DD
:10A80000FCF79AF80848807A002805D103480078B8
:10A81000012801D1FFF74AF80020C2E7F800002024
:10A82000841C0020010300006819002002000000C1
:10A83000000000000102023D05000000000000E7EA
:10A84000E7E7E7E7C2C2C2C2C2C3C4C5C6C7C83FC2
:10A850000100FA00030000014C5555555555A53F20
:10A860007751C1166CC156BF9015CB19A001FA3EA5
:10A87000AD529C804F7E92BEC4B1B4BD9EEE213ECF
:10A88000D43888BEE9FAA8BD00004054FB21F93F46
:10A890003163621A61B4D03D0000601A61B4D03DEA
:10A8A0007370032E8A19A33B0000002E8A19A33B64
:10A8B000C14920259A837B39000000000000000078
:10A8C0006E83F9A22915444ED15727FCC0DD34F51B
:10A8D000999562DB4190433CAB6351FE61C5BBDEA1
:10A8E0003A6E24B7E0D24D42EA2E49061C92D109B5
:10A8F0001CEB1DFE3EA729B1F53582E88444BB2E32
:10A9000026709CE9417E5FB439D69139F43953837E
:10A910008B5F849C3B28F9BDFF97F81F0F9805DEDD
:10A920008B112FEF1F6D0A5ACF7E366DB709CB27DB
:10A93000663F464F2DEA5F9EC7BA27757BF1E5EB70
:10A94000F739073DEA92528AB15FFB6B085D8D1FB4
:10A95000A6F810111111813FD561C119A0012ABFBC
:10A960007DFEB157E31DC73EEB9C2B8AE6E55ABE40
:10A970007CD5CF5A3AD9E53D98A9000000000020C7
:10A980008C050000A4680000E0AD00008C050020EC
:10A99000E4380000647300003208320132023203EE
:10A9A000320432053206320769203D70D2C01119D7
:10A9B000F11AFF010118720A32141A904529600138
:10A9C000282974C15A6704013829A5091AAC012441
:10A9D00010C2963007772C610EEEBA51099919C44E
:10A9E0006D078FF46A7035A563E9A395649E32887C
:10A9F000DB0EA4B8DC791EE9D5E088D9D2972B4CC0
:10AA0000B609BD7CB17E072DB8E7911DBF906410DB
:10AA1000B71DF220B06A4871B9F3DE41BE847DD41F
:10AA2000DA1AEBE4DD6D51B5D4F4C785D3835698BB
:10AA30006C13C0A86B647AF962FDECC9658A4F5C3F
:10AA40000114D96C0663633D0FFAF50D088DC8201B
:10AA50006E3B5E10694CE44160D5727167A2D1E42F
:10AA6000033C47D4044BFD850DD26BB50AA5FAA86B
:10AA7000B5356C98B242D6C9BBDB40F9BCACE36CCF
:10AA8000D832755CDF45CF0DD6DC593DD1ABAC304B
:10AA9000D9263A1061DE518051D7C81661D0BFB5B2
:10AAA000F4B42123C4B3569995BACF0FA5BDB89E6F
:10AAB000B802280888055FB2D90CC624E90BB18713
:10AAC0007C6F2F114C6858AB1D61C13D2D66B6904F
:10AAD00041DC760671DB01BC20D2982A10D5EF89C3
:10AAE00085B1711FB5B606A5E4BF9F33D4B8E8A2FF
:10AAF000C9077834F910270F8EA8099618980EE127
:10AB0000BB0D6A7F2D3D6D08976C6491015C63E617
:10AB1000F4516B6B62616C1CD83065854E103C62E1
:10AB2000F2ED95066C7BA5011BC1F4088257C40F9A
:10AB3000F5C6D9B06550E9B712EAB8BE8B7C88B9C2
:10AB4000FCDF1DDD62492DDA15F37CD38C654CD416
:10AB5000FB5861B24DCE51B53A7410B1BCA3E2308E
:10AB6000BBD441A5DF4AD795D83D6DC4D1A4FBF431
:10AB7000D6D36AE96943FCD96E34468867ADD0B84C
:10AB800060DA732D0444E51D03335F4C0AAAC97CC7
:10AB90000DDD3C710550AA41022710100BBE862026
:10ABA0000CC925B56857B3856F2009D466B99FE4F1
:10ABB00061CE0EF9DE5E98C9D9292298D0B0B4A82A
:10ABC000D7C7173DB359810DB42E3B5CBDB7AD6CF3
:10ABD000BAC02083B8EDB6B3BF9A0CE2B6039AD2DE
:10ABE000B1743947D5EAAF77D29D1526DB048316B9
:10ABF000DC73120B63E3843B64943E6A6D0DA85AC8
:10AC00006A7A0BCF0EE49DFF099327AE10E40AB1D8
:10AC10009E077D44930FF0D2A3088768F2011EFEC1
:10AC2000C206695D5762F7CB67658071366C19E7BC
:10AC3000066B6E761BD4FEE02BD3895A7ADA10CCE1
:10AC40004ADD676FDFB9F9F9EFBE8E43BEB717D59E
:10AC50008EB060E8A3D6D67E93D1A1C4C2D83852B4
:10AC6000F2DF4FF167BBD16757BCA6DD06B53F4B9E
:10AC700036B248DA2B0DD84C1B0AAFF64A033660C1
:10AC80007A0441C3EF60DF55DF67A8EF8E6E31793C
:10AC9000BE69468CB361CB1A8366BCA0D26F2536E1
:10ACA000E2685295770CCC03470BBBB91602222FF2
:10ACB000260555BE3BBAC5280BBDB2925AB42B042B
:10ACC0006AB35CA7FFD7C231CFD0B58B9ED92C1DFC
:10ACD000AEDE5BB0C2649B26F263EC9CA36A750A8D
:10ACE000936D02A906099C3F360EEB856707721328
:10ACF0005730E305824ABF95147AB8E2AE2BB17B98
:10AD0000381BB60C9B8ED2920DBED5E5B7EFDC7C1E
:10AD100021DFDB0BD4D2D38642E2D4F1F8B3DD6875
:10AD20006E83DA1FCD16BE815B26B9F6E177B06F70
:10AD30007747B718E65A0888706A0FFFCA3B06665D
:10AD40005C0B0111FF9E658F69AE62F8D3FF6B61EA
:10AD500045CF6C1678E20AA0EED20DD75483044E8C
:10AD6000C2B30339612667A7F71660D04D4769491A
:10AD7000DB776E3E4A6AD1AEDC5AD6D9660BDF402D
:10AD8000F03BD83753AEBCA9C59EBBDE7FCFB247E0
:10AD9000E9FFB5301CF2BDBD8AC2BACA3093B353C5
:10ADA000A6A3B4240536D0BA9306D7CD2957DE54CE
:10ADB000BF67D9232E7A66B3B84A61C4021B685DA7
:10ADC000942B6F2A37BE0BB4A18E0CC31BDF055A20
:10ADD0008DEF022D1037010404050101035524F401
:04000005000060C1D6
:00000001FF
