:020000040800F2
:1000000000200020F1160008951600089916000837
:1000100000000000000000000000000000000000E0
:100020000000000000000000000000004117000870
:100030000000000000000000411700089D160008A5
:100040004117000841170008411700084117000830
:10005000411700084117000841170008A5160008BD
:100060004117000841170008411700084117000810
:100070004117000841170008000000004117000860
:100080000000000041170008000000000000000010
:100090004117000800000000411700084117000840
:1000A00041170008411700084117000841170008D0
:1000B00041170008411700084117000841170008C0
:1000C000054B0648033310B51B1A062B03D9044B06
:1000D000002B00D0984710BD780200207802002045
:1000E000000000000648074910B5091A8910CB0F17
:1000F0005918491003D0044B002B00D0984710BD6D
:1001000078020020780200200000000010B5074CA3
:100110002378002B09D1FFF7D3FF054B002B02D02A
:10012000044800E000BF0123237010BD78020020C6
:1001300000000000689B0008094B10B5002B03D09D
:100140000849094800E000BF08480368002B02D1B5
:10015000FFF7C8FF10BD064B002BF9D09847F7E713
:10016000000000007C020020689B0008780200204C
:10017000000000000023C25C0133002AFBD1581E9E
:1001800070470000002243088B4274D303098B425E
:100190005FD3030A8B4244D3030B8B4228D3030C57
:1001A0008B420DD3FF22090212BA030C8B4202D3F9
:1001B0001212090265D0030B8B4219D300E0090A21
:1001C000C30B8B4201D3CB03C01A5241830B8B422A
:1001D00001D38B03C01A5241430B8B4201D34B0313
:1001E000C01A5241030B8B4201D30B03C01A524178
:1001F000C30A8B4201D3CB02C01A5241830A8B42FD
:1002000001D38B02C01A5241430A8B4201D34B02E5
:10021000C01A5241030A8B4201D30B02C01A524149
:10022000CDD2C3098B4201D3CB01C01A52418309FD
:100230008B4201D38B01C01A524143098B4201D337
:100240004B01C01A524103098B4201D30B01C01A62
:100250005241C3088B4201D3CB00C01A52418308DC
:100260008B4201D38B00C01A524143088B4201D309
:100270004B00C01A5241411A00D201465241104669
:100280007047FFE701B5002000F0F0F802BDC0465E
:100290000029F7D076E7704703460B437FD400224E
:1002A00043088B4274D303098B425FD3030A8B420A
:1002B00044D3030B8B4228D3030C8B420DD3FF2274
:1002C000090212BA030C8B4202D31212090265D042
:1002D000030B8B4219D300E0090AC30B8B4201D3F5
:1002E000CB03C01A5241830B8B4201D38B03C01A3C
:1002F0005241430B8B4201D34B03C01A5241030BB3
:100300008B4201D30B03C01A5241C30A8B4201D363
:10031000CB02C01A5241830A8B4201D38B02C01A0E
:100320005241430A8B4201D34B02C01A5241030A85
:100330008B4201D30B02C01A5241CDD2C3098B426A
:1003400001D3CB01C01A524183098B4201D38B01E7
:10035000C01A524143098B4201D34B01C01A52418A
:1003600003098B4201D30B01C01A5241C3088B42CF
:1003700001D3CB00C01A524183088B4201D38B00BA
:10038000C01A524143088B4201D34B00C01A52415C
:10039000411A00D201465241104670475DE0CA0F33
:1003A00000D04942031000D34042534000229C46F3
:1003B00003098B422DD3030A8B4212D3FC228901FD
:1003C00012BA030A8B420CD3890192118B4208D3D3
:1003D000890192118B4204D389013AD0921100E035
:1003E0008909C3098B4201D3CB01C01A5241830949
:1003F0008B4201D38B01C01A524143098B4201D376
:100400004B01C01A524103098B4201D30B01C01AA0
:100410005241C3088B4201D3CB00C01A524183081A
:100420008B4201D38B00C01A5241D9D243088B4270
:1004300001D34B00C01A5241411A00D20146634613
:1004400052415B10104601D34042002B00D5494277
:10045000704763465B1000D3404201B5002000F0B6
:1004600005F802BD0029F8D016E770477047C0466E
:100470008446081C6146FFE71FB500F0EBF9002831
:1004800001D40021C8421FBD10B500F077F94042E9
:10049000013010BD10B500F0DDF9002801DB0020AF
:1004A00010BD012010BDC04610B500F0D3F90028E2
:1004B00001DD002010BD012010BDC04610B500F0C8
:1004C00085F9002801DC002010BD012010BDC046C8
:1004D00010B500F07BF9002801DA002010BD0120E2
:1004E00010BDC046002B15D1002A13D1002906DB10
:1004F00001DC002806D00020C043410802E0802132
:100500000906002007B4024801A14018029003BD6B
:100510005DFFFFFF03B4684601B5029800F012F9D1
:10052000019B9E4602B00CBC7047C046002B11D107
:10053000002A0FD1002900D1002802D00021C94390
:10054000081C07B4024802A14018029003BDC0462F
:100550001DFFFFFF03B4684601B5029800F032F8B2
:10056000019B9E4602B00CBC7047C046F0B54F469A
:100570004646C0B41604360C9946330005042C0CCC
:10058000070C150C63437E436F4365431C0CAD1988
:1005900064199C46A64203D980235B0298464744CF
:1005A0006346250CEF191D044B464A4343432D0C6B
:1005B000240464199918C91920000CBC9046994666
:1005C000F0BDC046F0B54D46564644465F46F0B4D1
:1005D000924683B004000D0099468B422FD82CD050
:1005E0004946504600F016FB29000600200000F0A6
:1005F00011FB331A9846203B9B4600D574E05346C6
:100600005A4693401F005346424693401E00AF4255
:1006100029D826D05B46A41BBD41002B00DA79E027
:10062000002200230092019301235A469340019334
:10063000012342469340009319E08242D0D9002220
:100640000023009201930C9B002B01D01C605D6085
:100650000098019903B03CBC90469946A246AB462F
:10066000F0BDA342D6D90022002300920193434655
:10067000002BE8D0FB0772081A4346467B080EE0C1
:10068000AB4201D1A2420CD8A41A9D4101202419E9
:100690006D410021013E24184D41002E06D0AB4291
:1006A000EED9013E24196D41002EF8D15B46009829
:1006B000019900196941002B22DB2B005A46D340D7
:1006C0002A004446E2401C005B461500002B2CDB50
:1006D00026009E40330026004746BE403200801A66
:1006E000994100900191AEE7424620239B1A524661
:1006F000DA40414613004A468A4017001F4382E70A
:10070000424620239B1A2A0046469A402300F34083
:100710001343D5E74246202300219B1A0022009173
:1007200001920122DA40019282E74246202326000C
:100730009B1ADE402F00B446974066463B00334389
:10074000C9E7C046F0B583B016001F0000900191C4
:1007500000F06CFA04000D0002000B0030003900BC
:10076000FFF704FF009A019B121A8B4108992000A1
:100770000A604B60290003B0F0BDC046430270B56B
:1007800042004C005D0AC30F4802120E460A240EB6
:10079000C90FFF2A0FD0FF2C11D00120A24200D098
:1007A00070BDB542FCD18B420DD0002AF8D1280093
:1007B000431E9841F4E70120002DF1D1EBE7012021
:1007C000002EEDD1E9E70020EAE7C0464302F0B58C
:1007D00042005D0AC30F4802440A4800120E000E90
:1007E000C90FFF2A1FD0FF2822D0002A09D16E424C
:1007F0006E4100280FD1002C0DD10020002D09D012
:1008000005E0002801D1002C01D08B4213D05842C2
:1008100001231843F0BD002EF7D04842414101208A
:1008200049420843F6E7002DDDD002204042F1E7BF
:10083000002CDAD0F9E78242E9DC04DBA542E6D8F5
:100840000020A542E6D25842434101205B421843B2
:10085000E0E7C0464302F0B542004C005E0AC30F19
:100860004802120E450A240EC90FFF2A17D0FF2C8A
:1008700019D0002A0BD170427041002C17D00028EB
:1008800007D048424141012049420843F0BD002CB5
:1008900013D08B4214D0584201231843F6E70220AC
:1008A000002EF3D1E3E70220002DEFD1E1E7002D88
:1008B000E5D10020002EE9D0EDE7002DE9D1EAE7EF
:1008C000A242E8DC04DBAE42E5D80020AE42DDD235
:1008D0005842434101205B421843D7E7F0B55746E1
:1008E0004E4645464300E0B446028846760A1F0E4F
:1008F000C40F002F47D0FF2F25D0002380259A4614
:100900009946F600ED042E437F3F434642465D0282
:10091000D20F5B006D0A1B0E904640D0FF2B39D0E2
:1009200080220020ED00D20415437F3BFB18424695
:100930005746591C62408C4607430F2F5CD86F49BD
:10094000BF00C9598F46002E45D108239A46063B61
:100950009946DAE7424602282DD0032800D1C3E0A9
:10096000012800D0A2E0002500260240D4B2760281
:10097000ED05760A2E43E407264330001CBC904662
:100980009946A246F0BD002E1AD104239A46033B95
:100990009946BAE72A00511E8A41901CC6E70120F9
:1009A000002DC3D0280000F017F9431F76309D407A
:1009B00043420020BAE70124FF2514400026D6E771
:1009C000300000F009F9431F9E4000237630474273
:1009D0009A46994699E70C239A46093B994694E72B
:1009E00080260024F603FF25C1E735004846B2E71C
:1009F000350022004846AEE72904090C0800370CF0
:100A00003604360C2C0C7943704367437443060C50
:100A100064183619B14203D98021490288464744F7
:100A20000004000C310409188D01681E8541890EEF
:100A30002943350CED19AD010D43290104D50123DE
:100A400069081D4063460D4319007F31002925DDEB
:100A5000680704D00F202840042800D0043528015E
:100A600003D5274980330D401900FE29A3DC01245A
:100A7000AD016E0A1440CDB279E78020C003064272
:100A800007D0054205D128434602760A4446FF2591
:100A90006DE706437602760AFF2568E70124611AAE
:100AA0001B2905DD14400025002660E76346CBE7DF
:100AB0002E002023CE40591A8D406B1E9D412E439F
:100AC000730704D00F233340042B00D00436730186
:100AD00004D5012401251440002648E70124B6016D
:100AE000760A1440002542E780260124F6032E43AF
:100AF0007602760A1440FF2539E7C046DC9E0008DE
:100B0000FFFFFFF74302590A4300C20F1B0E0020EC
:100B10007E2B0EDD9D2B0DDC802000040143952BE8
:100B20000BDC9620C31AD9400B005842002A00D192
:100B300018007047034BD018FBE7963B99400B0019
:100B4000F3E7C046FFFFFF7F70B5002830D0C31722
:100B5000C5185D40C40F280000F03EF89E231B1A04
:100B6000962B0DDC9622D21A95406A02520AD8B210
:100B70005202C005520AE40702432243100070BD2E
:100B8000992B19DC9922D21A9540124A2A406907FA
:100B900004D00F210D40042D00D00432510103D5A3
:100BA0000C4B1A409F231B1A9201520AD8B2DFE75E
:100BB000002400200022DBE705222E00121AB921B2
:100BC000D6402A00C91A8A40551EAA41350015434D
:100BD000DBE7C046FFFFFFFB1C2101231B049842FB
:100BE00001D3000C10391B0A984201D3000A0839BE
:100BF0001B09984201D30009043902A2105C401875
:100C00007047C04604030202010101010000000018
:100C10000000000010B5002903D1FFF7DDFF2030F0
:100C200002E0081CFFF7D8FF10BDC046F0B54446EF
:100C30005F4656464D46F0B41C0083B0002900DAEA
:100C400092E00F00002106008A4610001900002CD7
:100C500000DA80E034003D0081468846B94269D818
:100C600066D041464846FFF7D5FF8346390030003D
:100C7000FFF7D0FF5B461B1A9C46203B9B4600D5E6
:100C800086E04946584681400B004946604681400F
:100C90000A00BB4200D971E06DD034003D005946D6
:100CA000A41A9D41002900DA89E0002100200126D4
:100CB0000090019159468E400196614601268E4072
:100CC00061460096002960D0D90756080E435F0898
:100CD0006146012200230CE0AF4201D1A6420AD8AE
:100CE000A41BBD4124196D410139A4185D4100299F
:100CF00006D0AF42F0D9013924196D410029F8D14D
:100D00005B460098019900196941002B4CDB2E00CD
:100D1000DE4063462C00DC405B46002B5ADB34008F
:100D20009C4023006446A6403200801A994103E0AB
:100D3000B04296D9002000215346002B04D0030076
:100D40000C0000215842A14103B03CBC904699469A
:100D5000A246AB46F0BD5346DB430C009A46130057
:100D600000215842A14175E7002746428F410121E9
:100D700049428A4669E7B14200D88EE70021002047
:100D800000900191614600299ED100980199D3E716
:100D9000624640462023494690409B1AD9400300B2
:100DA000009100990B4370E7624620239B1A2A00AA
:100DB0009A40260013006246D6401E43A9E76146CA
:100DC00020260127761A00200021F740009001918B
:100DD000019772E762462023350094409B1ADD405C
:100DE00023002B439EE7C0460122234B30B5D96A2E
:100DF00089B01143D962D96AA020114001910199AB
:100E0000D96A00251143D962D96A04240A40802195
:100E10000292029A9A6B89020A439A63022303A9F7
:100E2000C0050394049306930794059500F01CFDF8
:100E3000A0200823C00503A90393079400F014FD24
:100E40000E4C0F4B20002360E1235B0263600C23F8
:100E5000A560E5602561A561636102F079FD002868
:100E600000D0FEE7074B8022636558235200E25210
:100E7000E06609B030BDC046001002406C0400209E
:100E800000440040DC040020802270B5174C52055D
:100E9000A36B94B01343164AA3631168154B002645
:100EA0000B40802109010B4313600223069310932A
:100EB0008023DB021293802310220125DB0306A886
:100EC00009950A921393119601F0C6F90F23012197
:100ED000019301A80C3B029303960496059601F03A
:100EE000E7FC636B1D43656314B070BD00100240E6
:100EF00000700040FFE7FFFFF0B55F4656464D46E5
:100F00004446F0B499B000F033FCFFF7BDFF002079
:100F100004F058F80020012104F086F8FFF764FF80
:100F20000C2380220A93002352000AA814930C92E7
:100F30000F9301F091F9002818D00122D14BD24D26
:100F40001A607F23D14AAB60B133EB600592136026
:100F5000CF4B28002B6040236B6000232B61AB61DB
:100F6000EB6101F0FFFF00280BD0FEE7C54BC64D3B
:100F700018607F23C54AAB608033EB600592136035
:100F8000E6E7C44B012209A92800099302F054F9AD
:100F9000002800D0FEE70A900D900E9001220AA9C9
:100FA000280002F03BF8002800D0FEE729000020CE
:100FB000243103F041FD012800D1C7E2686A03F043
:100FC0001FFEB54B08AE9A46B44B2F009846B44B63
:100FD00099462C239B46AB4408E04B461B78002BDC
:100FE00039D12F2443461B5D002B68D12823EA5CAE
:100FF000002AF2D000223100786AFA5403F0CCFFC4
:101000000028EAD13378DA0600D579E1DA0700D58D
:1010100065E19A0700D54FE15A0700D51FE19A060E
:1010200000D507E15A0675D41B07D6D529002C3107
:101030000B008C469B4A13CA13C303CA03C312880E
:1010400061461A805046984B152202F0DBF94B4658
:101050001B78002BC5D0686A03F014FE0028C0D1AD
:101060000021786A03F04CFE0028BAD10021786A8A
:1010700003F0E0FD0028B4D10021786A03F090FE6F
:101080000028AED10021786A03F0B2FE0028A8D172
:101090000021786A03F0D4FE0028A2D10121786AE9
:1010A00003F056FE00289CD12E2301224146CA544B
:1010B0004B462F24187043461B5D002B96D0686A60
:1010C00003F0F4FD002891D1786A03F02DFE00288A
:1010D0008CD1786A03F0C2FD002887D1786A03F0CA
:1010E00073FE002882D1786A03F096FE002800D0B3
:1010F0007CE7786A03F0B8FE002800D076E7786ACB
:1011000003F03AFE002800D070E742462E23D05468
:1011100010556BE7002302AA0AA9686AD3741375F5
:1011200053759375D375137703F07AFD02AA1323D1
:10113000944663441900686A03F0AAFE012800D1AE
:101140003FE107A9786A03F0B9FE012800D14DE11B
:1011500002AA1523944663441900786A03F0C4FE7A
:10116000012800D153E102AA1623944663441900D2
:10117000786A03F0CFFE012800D14EE102AA1723BE
:10118000944663441900786A03F0DAFE012800D11E
:101190006CE109A9786A03F0E9FE02AB012800D1ED
:1011A000A1E1DB7C002B00D03DE102AB5B7D002B9D
:1011B00000D061E102ABDB7D002B08D102AB1B7DCF
:1011C000002B04D102AB9B7D012B00D1A1E102AB2E
:1011D000DB7D002B04D102AB1B7D012B00D187E10D
:1011E00002ABDB7D002B00D064E102AB1B7D002B4A
:1011F00008D102AB9B7D002B04D102AB1B7F012BDE
:1012000000D192E120222800802102AB9B181B789C
:101210002C30264A490008F085F82C002C34200098
:10122000FEF7A8FF204B82B22100504602F0EAF8F8
:101230003378F9E629002C310B008C461C4A13CA7E
:1012400013C3106861461860908898809279504660
:101250009A71154B122202F0D5F83378E2E6290094
:101260002C310B008C46134A13CA13C313CA13C381
:10127000127861461A7050460B4B182202F0C2F8E1
:101280003378CCE6C403002094020020DC06002062
:1012900000280040010101006C040020940300209C
:1012A0000000002054A500088813000008A50008CD
:1012B000E49F0008C89F000829002C310B008C46D1
:1012C000A44A13CA13C313CA13C3127861461A700F
:1012D0005046A14B182202F095F833789CE629007D
:1012E0002C310B008C469D4A13CA13C313CA13C377
:1012F000994B17226146504602F084F8337888E60D
:1013000000220AA9380001F059FF002209A938007B
:1013100002F048F8059B19680B9BC81A04936423D4
:1013200001315843FEF7B8FF5A468D4B04001B8825
:10133000594613808A4B50469B789370864B022205
:1013400002F060F82022222102AB9B18DF32144009
:1013500002AA1B785218029412780139019202AA4B
:1013600052181278DF31009258467E4A07F0DAFFB1
:101370005846FEF7FFFE784B82B25946504602F0BF
:1013800041F80AA9786A03F04BFC4146786A2C318F
:1013900003F0A0FC01282FD0434680219B8D724A88
:1013A0004900584607F0BEFF2C002C342000FEF701
:1013B000E1FE694B82B22100504602F023F83378F7
:1013C00024E6202202AB9B181B78684A80215846ED
:1013D000490007F0A7FF5846FEF7CCFE5E4B82B2ED
:1013E0005946504602F00EF833781DE6202202AB33
:1013F0009B181B785E4AE9E72022802102AB9B18EC
:101400001B785C4A4900584607F08CFFCCE7202245
:1014100002AB9B181B78584AD8E7202202AB9B18D6
:101420001B78564AD2E7012B00D0EBE602AB5B7D7E
:10143000002B00D0E6E602ABDB7D002B00D0E1E61E
:1014400002AB1B7D002B00D0DCE602AB9B7D002BAA
:1014500000D0D7E602AB1B7F002B00D0D2E62800DD
:10146000B32247492C3007F04BFFD6E6202202ABCF
:101470009B181B78434AA9E7012B00D0C2E602ABB8
:10148000DB7D002B00D0BDE602AB1B7D002B00D026
:10149000B8E602AB9B7D002B00D0B3E602AB1B7F0E
:1014A000002B00D0AEE62800B32237492C3007F0DD
:1014B00027FFB2E6012B00D0A4E602AB1B7D002B78
:1014C00000D09FE602AB9B7D002B00D09AE602ABDA
:1014D0001B7F002B00D095E6280045222B492C309D
:1014E00007F00EFF99E620229B181B78284A6DE72B
:1014F00002AB9B7D002B00D072E602AB1B7F002B62
:1015000000D06DE62800B32222492C3007F0F8FE07
:1015100083E602AB1B7F002B00D058E62800B322E5
:101520001D492C3007F0ECFE77E629002C310B002A
:101530001A4A13CA13C313CA13C313CA13C303CA61
:1015400003C31188198092789A7066E6002003F030
:101550005FFDFEE7AC9F000888130000949F000821
:10156000BCA400081C9F0008809F0008F89F00088A
:1015700044A00008409F000890A00008DCA00008DC
:1015800074A2000828A10008DCA30008C0A4000879
:1015900074A1000828A30008C0A1000890A40008B6
:1015A000802310B59B01984209D00E4B1038184289
:1015B00000D010BD012128230B4AD154F9E70020A7
:1015C00003F06EFD0028F4D12E22084B9A5C002A0D
:1015D00003D001212F229954EBE70122044B1A700A
:1015E000E7E7C046EFFF00009402002094030020CC
:1015F00000000020FEE7C04600B5244B99B01B68F0
:10160000002B24D10C220AA80A92F43214930C92D3
:101610000F9300F021FE002832D120230193802374
:1016200001A85B02029301F0ADFA002825D18021C8
:10163000174AC902136D02200B4313650F210022C4
:1016400000F0B8F8022000F0E9F819B000BD0C2352
:1016500001220A9300230AA814930F920C9300F01E
:10166000FBFD00280FD120230193802301A89B02BA
:10167000029301F087FA0028D9D0FFF7BBFFD6E725
:10168000FFF7B8FFC9E7FFF7B5FFECE7C403002099
:10169000001002407047C046FEE7C04610B500F09B
:1016A0007BF810BD10B5202000F0CEF9102000F01E
:1016B000CBF98020800100F0C7F910BD0A4A10B5AF
:1016C0001368002B0CD069461818884202D81060A5
:1016D000180010BD07F0E8FD0C2303600D3BF7E791
:1016E000024B1360EFE7C046C8030020F00600205D
:1016F0000D488546002103E00C4B5B5843500431F4
:101700000B480C4B42189A42F6D30B4A02E00023D6
:1017100013600432094B9A42F9D302F0C9FF07F073
:10172000C9FDFFF7E9FBFEE700200020B4A5000893
:10173000000000207802002078020020F00600203F
:10174000FEE700007047C046FA21084B10B589003B
:1017500004001868FEF716FD00F06AF80120002268
:101760002100404200F026F8002010BD04000020B7
:101770004022084B10B5196803200A431A60022260
:1017800019680A431A60FFF7DFFFFFF7DBFF00204D
:1017900010BDC04600200240024A136801331360A6
:1017A0007047C046E0060020014B18687047C046ED
:1017B000E006002070B5002814DB032483082040D5
:1017C000FC342600134AC0259446C0008901864097
:1017D000214081409B006344AD005A59B2431143FC
:1017E000595170BD03240F23C0B203402040FC3484
:1017F0002500094AC0009446890185402140814066
:10180000083B9B089B006344DA69AA431143D961F2
:10181000E7E7C04600E100E000ED00E01F231840CC
:101820001E3B8340014A13607047C04600E100E060
:101830000A4A431E012093420ED8C020084A094993
:1018400053600B6A00061B021B0A03430B62002352
:1018500000209360073313607047C046FFFFFF000E
:1018600010E000E000ED00E0F0B544465F4656466B
:101870004D46F0B48846096883B00024002300294F
:1018800000D1AEE001229346624A8A46944667E060
:10189000013E012E00D884E00326A640F6430568E9
:1018A00035402F0003251540A5403D430560C56820
:1018B0002E404546AD68A5402E4380256D05C66087
:1018C0002A4248D0544903274D6B59460D4352498B
:1018D0001F404D6351499D088946B9000F27AD004F
:1018E0004D448F408946A021AE68C905BE43884259
:1018F00000D17DE04A4FB84200D17BE0494FB84269
:1019000000D17BE0484FB84200D17BE0474FB8425E
:1019100000D17BE0062749468F4061463E43AE60DA
:101920000D680099CE43D10358D4354061460D600F
:101930004D6891034FD4354061464D608D68D102AA
:1019400046D4354061468D60CD6892023DD4290071
:1019500031406246D160524601330234DA4040D011
:101960005D4651469D4029400091F4D04246526860
:1019700010271600BE43022E8AD1DE08B600811958
:101980000191096A093F89460F211F40BF00B940F4
:101990004E468E4341460969B9400F0001993743CD
:1019A0000F6203264146A640C968F643A1408768F6
:1019B00037400F43594687604768AF433D001709DA
:1019C0000F409F403D43456069E700992943C0E7C8
:1019D00000990D43B6E700990D43ADE700990D431B
:1019E000A4E703B03CBC90469946A246AB46F0BD86
:1019F000002792E75F4649468F408EE70227494617
:101A00008F408AE7032749468F4086E705274946E6
:101A10008F4082E7000401400010024000000140B6
:101A20000004005000080050000C0050001C005042
:101A300000690840411E8841C0B27047002A01D1A8
:101A4000816270478161FCE7044B10B55A6910420E
:101A500002D05861FFF7A4FD10BDC046000401404C
:101A6000F0B510234746040080B40D00160002278D
:101A7000984622686B1C2DD10221102093691942CF
:101A80002BD193691842F9D0202193691942FCD0D7
:101A90001023D3611033D36193699B0701D50023D1
:101AA0009362012391690B4202D191690B439361C7
:101AB00051681E4B0B405360042363642022412372
:101AC000E254002301202232A354023AA35404BC5E
:101AD0009046F0BD93691F4201D00020F7E74146D0
:101AE0009369194213D1002D04D0FFF75DFE801BCE
:101AF0008542BED22022636C0320134363644123DA
:101B0000E25400232232A354023AA354DFE72027F1
:101B100007E0002DD2D0FFF747FE801B8542CDD3D2
:101B2000226893691F42F4D0B2E7C04600E800FE85
:101B3000F0B54746040080B40D001600002945D0DA
:101B400010232027984604E0FFF72EFE801B8542D5
:101B500043D3226893691F424CD14146936919428D
:101B6000F2D020276B1C25D1202193691942FCD08B
:101B70001023D3611033D36193699B0701D50023F0
:101B80009362012391690B4202D191690B439361E6
:101B90005168194B0B405360042363642022412396
:101BA000E254002301202232A354023AA35404BC7D
:101BB0009046F0BD93691F42DAD1002DEED0FFF7B9
:101BC000F3FD801B8542E9D32268CBE70268936965
:101BD0009B060FD49369DB06C3D42022636C0320D9
:101BE000134363644123E25400232232A354023A94
:101BF000A354DCE70020DAE700E800FEF8B51E0099
:101C0000040015000268254B5068890503402448EC
:101C1000890D03431943F3B21B041943516020009B
:101C2000079A0699FFF71CFF071E17D1012E09D04E
:101C300023682A0A9A620699079A2000FFF710FF84
:101C400000280BD12168EDB28D624025069B01333F
:101C50000BD140228B691A42FCD004E0636C01274F
:101C6000042B00D003273800F8BD8B691D42FAD140
:101C7000069B002B08D0FFF797FD079BC01A069B19
:101C8000834201D32168E2E720224123E25400236A
:101C90002232A354023AA354E4E7C046009800FC61
:101CA00000200080F8B51E00040015000268254BD6
:101CB0005068890503402448890D03431943F3B252
:101CC0001B04194351602000079A0699FFF7C8FECC
:101CD000071E17D1012E09D023682A0A9A62069995
:101CE000079A2000FFF7BCFE00280BD12168EDB257
:101CF0008D628025069B01330BD180228B691A42AD
:101D0000FCD004E0636C0127042B00D003273800CB
:101D1000F8BD8B691D42FAD1069B002B08D0FFF756
:101D200043FD079BC01A069B834201D32168E2E76B
:101D300020224123E25400232232A354023AA35426
:101D4000E4E7C046009800FC002000817047C046D0
:101D500010B5041E4ED04123C35CDBB2002B3ED035
:101D6000242241230121E25423681A688A431A601D
:101D70006168214A0A401A619968204A0A40E1686C
:101D80009A60012930D08422A068120202439A602E
:101D9000022920D05A681A4900200A435A60D9689B
:101DA000164A0A40DA60216962691143A269120287
:101DB0000A43DA60216AE2690A431A60012219685B
:101DC0000A431A602021002341226364A154013296
:101DD0002363A35410BD802212015A60DAE7402227
:101DE0008354FFF7B3FFBBE78022A16812020A43C6
:101DF0009A60CFE70120EDE7FFFFFFF0FF7FFFFFD5
:101E0000008000027047C04670B5041E13D0412503
:101E1000242301210268435513688B431360FFF7A5
:101E2000F1FF002342220020636463552363A3541F
:101E3000023AA35470BD0120FCE7C046F0B54D4600
:101E400044465F465646F0B483B099460CAB20CB6F
:101E500004001E884123C35C0F0090460220202B03
:101E600006D003B03CBC90469946A246AB46F0BDB6
:101E7000002D3DD0002E3BD04023E25C012AF0D063
:101E80000122E254FFF790FC80231B0282469B460E
:101E900005E0FFF789FC5346C01A19282AD85A468C
:101EA00023689B6913405B45F3D021224123E25410
:101EB00001331F32E254002363649B46636353463D
:101EC00001930E9B6562009366854B46424639003E
:101ED0002000FFF7E7FE002816D0636C042B04D027
:101EE00040235A460320E254BBE75A463C33E254AF
:101EF0000120B6E720224123E25400232232A354DA
:101F0000023AA3540320ACE7638DFF2B63D9FF2370
:101F1000226823855168434BBF050B404249BF0DE2
:101F20000B433B435360FF231B04802598463D4EE3
:101F300002E0638D002B60D052460E992000FFF71F
:101F40008FFD002842D1636A2268591C61621B78A8
:101F50009362638D013B9BB26385238D013B9BB2F2
:101F60002385002BE5D1638D002BE2D00E9B01333E
:101F70000ED193691D42FCD0638DFF2B17D9FF232F
:101F800023855368284933400B433B435360D0E7D4
:101F900093691D42F0D10E9B002BABD0FFF704FCE0
:101FA0005346C01A0E9B8342A4D32268DFE7404603
:101FB000638D51689BB223851B04184080233140F8
:101FC0009B040B4303433B435360B2E7636C042B16
:101FD0008ED0032045E72068618D124A436889B29C
:101FE0001A40802321859B04C9B2BF05090413430D
:101FF000BF0D0B433B43436095E752460E992000CB
:10200000FFF796FD0028E1D120212368074AD96116
:102010005D682A405A604123E1540133E054023B99
:10202000E0541EE7009C00FC0000FF0100E800FEF9
:10203000F0B54D4644465F465646F0B483B09946E7
:102040000CAB20CB04001E884123C35C0F009046DC
:102050000220202B06D003B03CBC90469946A246F5
:10206000AB46F0BD002D3DD0002E3BD04023E25CBE
:10207000012AF0D00122E254FFF796FB80231B02D5
:1020800082469B4605E0FFF78FFB5346C01A19288E
:1020900037D85A4623689B6913405B45F3D0222208
:1020A0004123E25401331E32E254002363649B4611
:1020B0006363534601930E9B6562009366854B46AE
:1020C000424639002000FFF799FD002823D0636CB9
:1020D000042B04D040235A460320E254BBE75A465F
:1020E0003C33E2540120B6E793691E425BD10E9B5C
:1020F000002B06D0FFF758FB5346C01A0E9B8342B5
:102100004BD220224123E25400232232A354023A2C
:10211000A35403209FE7638DFF2B61D9FF2322681F
:1021200023855168444BBF050B404449BF0D0B4309
:102130003B435360FF23042580261B0498460E9BD7
:1021400001331AD193691D42FCD0636A526A591C4B
:1021500061621A70238D628D013B013A9BB292B28B
:1021600023856285002B02D1638D002B14D1638DF2
:10217000002B46D022680E9BE2E793691D42E4D112
:102180000E9B002BBDD0FFF70FFB5346C01A0E9BD2
:102190008342B6D32268D3E70E9B22680133A3D1D2
:1021A00093691E42FCD0638DFF2B09D9FF23516830
:1021B0002385234B0B4023490B433B435360D6E716
:1021C0004146608D536880B22085000408401C4958
:1021D000194080239B040B4303433B435360C6E7F2
:1021E0002268608D1449536880B21940164B2085CF
:1021F000C0B2BF0500040B43BF0D03433B43536014
:1022000098E752460E992000FFF792FC002805D06F
:10221000636C042B00D165E703201CE720212368B1
:102220000A4AD9615D682A405A604123E15401336A
:10223000E054023BE0540EE7009800FC0024FF81CC
:10224000009C00FC0000FF010024008200E800FE6A
:102250004123C05CC0B27047F0B54F464646C0B49B
:10226000036883B00400DA0736D50C20C849CA6871
:102270000240082A00D13EE1CA6802400C2A00D17F
:1022800035E1802361685B02994200D111E2A0220E
:10229000D202914200D19DE1BD4DBE4A2868024064
:1022A0002A602A6813400193019B2A68BA4B1340A5
:1022B0002B60002900D096E1FFF776FA8026070010
:1022C000B60205E0FFF770FAC01B642800D9D6E11A
:1022D0002B683342F6D123689A072CD50C20AC49E1
:1022E000CA680240042A00D1CFE1CA6802400C2A21
:1022F00000D1C6E1E368A64D002B00D12BE10921F6
:102300002A6804278A4313432B60FFF74DFA06001F
:1023100005E0FFF749FA801B022800D9AFE12B68DE
:102320009B4A1F42F5D02169536808029B490B4024
:10233000034353602368DA0600D582E01A0717D5F5
:102340006369934D002B00D119E101232A6D022608
:1023500013432B65FFF728FA070005E0FFF724FA7F
:10236000C01B022800D98AE12B6D1E42F6D02368DB
:102370005A0741D580220020854B5205996B804633
:10238000114204D1996B0A439A630123984680272E
:10239000834E7F0033683B4200D161E18022A36815
:1023A0005200934200D10FE2002B00D19AE1A0210C
:1023B000C9008B4200D1FDE1754B7A4A196D0A4084
:1023C0001A65196D784A0A401A65FFF7EDF98026FB
:1023D00081466F4FB600754D06E0FFF7E5F94B46B5
:1023E000C01AA84200D94AE13B6D3342F5D04346BA
:1023F000012B00D1D7E123689B0600D58AE0A36AB0
:10240000002B1CD00C21624DEA680A400C2A7BD0BC
:102410002A68022B00D1DCE1654B2C0013402B60B5
:10242000FFF7C2F980250600AD0405E0FFF7BCF90F
:10243000801B022800D922E123682B42F6D100201C
:1024400063E00C22524DEB681A4227D0E369002B5F
:1024500000D133E180222B68520013432B60FFF739
:10246000A3F980260700B60005E0FFF79DF9C01B21
:10247000022800D903E12B68454A3342F5D0516860
:102480004C4B0B40616A0B4353605368216A1B023B
:1024900009061B0A0B43536023684FE72B689B0513
:1024A00002D5E369002B2FD0E021394B626A5868CE
:1024B000090201408A4200D845E1F020D96808426B
:1024C00000D0A1E08021986B4905084200D1B4E119
:1024D000334B1968C0235B011940C0235B0199424B
:1024E00000D091E0344BD018464246418DE0CA6896
:1024F000D20300D4C5E6264A1268920300D4EBE664
:102500006268002A00D0E7E6012003B00CBC9046C8
:102510009946F0BDA3691E4D002B00D1FCE00123BC
:102520008021AA6889011A43AA606A6B02261343B4
:10253000224A6B63136A0B431362FFF735F90700F6
:1025400005E0FFF731F9C01B022800D997E0AB681E
:102550001E42F6D053E701222B68042693432B60DA
:10256000FFF722F9070005E0FFF71EF9C01B02285C
:1025700000D984E02B681E42F6D12368DBE60122F5
:102580002B6D022693432B65FFF70EF907001CE025
:1025900000100240FFFFFEFFFFFFFBFFFFE0FFFF19
:1025A00000700040FFFEFFFFFFFBFFFF88130000ED
:1025B000FFFFFFFEFF1FFFFF0040FFFF0000014085
:1025C000FFF7F2F8C01B022859D82B6D1E42F7D135
:1025D0002368CDE68020A64AC0021168014311603D
:1025E00011680B431360FFF7DFF880250700A04E4A
:1025F000AD0204E0FFF7D8F8C01B64283FD8336869
:102600002B42F7D0236867E60026012599490B681D
:10261000AB4333430B600B682B409E4200D073E703
:102620009349954B4868034013434B604B68206ABD
:102630001B0200061B0A03434B608D4B520BD968EB
:10264000802301321B0293400A068C49120F8A5CD8
:102650000320D3408A4A1360FFF776F823686DE6BB
:1026600033683B433360FFF79FF8050033683B4214
:1026700000D093E6FFF798F8401B6428F6D90320B2
:1026800043E7CA68D20300D534E6794A1268520794
:1026900003D5E268012A00D036E72169744D0802AB
:1026A0006A6878490A4002436A60DA0600D445E65F
:1026B000C7E66F4A13680B43136094E72A68724BAE
:1026C000802613402B60FFF76FF8B600070004E088
:1026D000FFF76AF8C01B0228D1D82B683342F7D124
:1026E00023682BE6624E684B326D802713403365BA
:1026F000326D664BBF0013403365FFF755F8644DEC
:10270000814605E0FFF750F84B46C01AA842B6D8FC
:10271000336D3B42F6D16AE60122AB680226934351
:102720005C4AAB60116A5C4B0B401362FFF73CF8EC
:10273000070004E0FFF738F8C01B02289FD8AB68F9
:102740001E42F7D15BE658684B490140114359607E
:102750005968206A09020006090A0143F0205960FD
:10276000D968084212D18021986B4905084271D07E
:102770004A4B1968C0235B011940C0235B01994291
:1027800004D1474BD0184642464100E000260125BF
:1027900038490B68AB4333430B600B682B409E42B8
:1027A00000D0B1E649E7324A3E4B916B0B40936350
:1027B000236821E680202E4BC000196D0143196566
:1027C000196D0A431A6500E629490A6D13430B6522
:1027D000FBE5354B802713402B60FEF7E5FFBF0478
:1027E000804606E0FEF7E0FF4346C01A022800D903
:1027F00045E72B681E4E3B42F4D1226BE16AF36839
:102800001143626B80241143284AA40413408022A0
:102810000B43F3603368520413433360FEF7C4FF85
:10282000050005E0FEF7C0FF401B022800D926E79F
:1028300033682342F6D0002067E6986B0143996322
:1028400016490868C02149019D6B01401548284080
:10285000986342E6986B0143996310490868C02168
:1028600049019D6B01400F482840986385E7C046A9
:102870000010024000200240FF1FFFFF089D0008DB
:1028800004000020FFE0FFFFFFFEFFFFFFFBFFFF54
:102890008813000000000140FFDFFFFF00700040D0
:1028A0000040FFFFFFFFFFEFFFFFFFFEFFFF02FF04
:1028B000F8B546464F460C000121764AC0B413686D
:1028C00006000B40A3420CD213688B4323431360D2
:1028D000136819408C4204D001200CBC90469946E4
:1028E000F8BD33689A0706D5F0206B49CA68824361
:1028F000B0680243CA60DB072BD5674A7368126869
:10290000022B7DD0032B76D0012B00D192E09205D3
:10291000E2D50321604DEA688A431343EB60FEF77A
:1029200043FF73680700022B74D0032B00D18CE0A7
:10293000012B00D199E00C239846584B994604E0AE
:10294000FEF732FFC01B484558D84246EB681A4292
:10295000F6D101214F4A13680B409C4205D21368FF
:102960008B43136013681942B6D133685A0706D5F2
:1029700049494B4AC8680240F0680243CA601B07D5
:102980001ED40C23444AD1680B40082B3BD00C2B9F
:102990001FD0042B39D08020536800021B045B0F2A
:1029A000013398403C4B3F4ADB681B061B0FD35C4E
:1029B000D8403D4B18600320FEF7C6FE00208CE790
:1029C00035483169C368394AC90013400B43C360B5
:1029D000D7E78B0236481B0FC45C0902D368890F06
:1029E0000131DB032CD41368DB064ED5314860433C
:1029F000FDF7C8FBD6E792018BD46DE703206CE7A7
:102A0000920386D468E72C48CCE71368DB0615D51B
:102A10002848C7E70A339846204B994604E0FEF75A
:102A2000C3FEC01B4845E9D84246EB681340082B5B
:102A3000F5D18EE7520700D56BE74DE71F48B1E7A8
:102A40001D486043FDF79EFBACE709339846134BE6
:102A5000994604E0FEF7A8FEC01B4845CED8424682
:102A6000EB6813400C2BF5D173E70B3398460B4BF7
:102A7000994604E0FEF798FEC01B4845BED8424682
:102A8000EB681340042BF5D163E70C486043FDF776
:102A900079FB87E700200240001002408813000005
:102AA000FFF8FFFF089D000804000020FFC7FFFF9C
:102AB000FC9C000800093D0000127A000024F4008C
:102AC0000C231B4A10B5D1680B40082B22D00C2BCD
:102AD0000ED0042B07D08020536800021B045B0F2C
:102AE0000133984010BD1368DB0615D51148F9E78E
:102AF0008B0211481B0FC45C0902D368890F013196
:102B0000DB030BD41368DB060DD50A486043FDF7E1
:102B100039FBE7E70948E5E70948E3E70748604389
:102B2000FDF730FBDEE706486043FDF72BFBD9E7F6
:102B30000010024000093D00FC9C000800127A00D1
:102B40000024F400044B054ADB685B055B0FD35C93
:102B5000034A1068D840704700100240189D0008D2
:102B600004000020044B054ADB689B045B0FD35C28
:102B7000034A1068D840704700100240189D0008B2
:102B800004000020F8B582234F46464602681B0128
:102B9000C0B404001A422ED080220020724B52058D
:102BA000996B8046114204D1996B0A439A630123C1
:102BB000984680266D4D76002B68334258D0616868
:102BC000C0220D0068489203036815401340AB42D1
:102BD00000D1B9E0C0230A009B021A409A425FD09C
:102BE0006148006D034063D15F490B6D1A43434652
:102BF0000A65012B4CD02368DA0706D503205A4911
:102C0000CA6C8243E0680243CA649A0706D50C2066
:102C10005549CA6C824320690243CA645A0706D5E3
:102C20005149534AC86C024060690243CA641A079A
:102C300006D54D494F4AC86C0240A0690243CA6498
:102C40005A060DD400201B0606D547494A4BCA6CCC
:102C50001340E2691343CB640CBC90469946F8BD1F
:102C60004149464AC86C0240206A0243CA64E9E707
:102C70002B6833432B60FEF797FD070004E0FEF757
:102C800093FDC01B64286CD82B683342F7D096E7BD
:102C90008A6B3B4B13408B632368DA07B5D5ADE7EE
:102CA000314B01201D68AD03D6D41B6D134012D0EB
:102CB000934202D02068800621D4C020A5688002FB
:102CC0002840984202D023681B0518D4C0239B02D9
:102CD0009A4200D088E724482A4B02681A40C02351
:102CE0009B0319401143C02201601F4992020B6DE2
:102CF0001A4343460A65012B00D07CE7C8E78027CA
:102D0000194D3F032E6D286D1F4B384328652F6DDD
:102D10001E483340384028652B65F305D6D5FEF7AD
:102D200043FD80261A4B0700B600994604E0FEF7E3
:102D30003BFDC01B484514D82B6D3342F7D0C02251
:102D4000616892020A40C1E7A5682A40934200D018
:102D500040E7C022036D920213400A40002BA7D126
:102D6000B4E7032078E7C04600100240007000403E
:102D7000FFF3FFFFFFCFFFFFFFFFF3FFFFFFFFFBAF
:102D8000FFFFFFEFFFFFCFFFFFFFFCFFFFFFF7FF9E
:102D90008813000010B5082800D195E026D9202816
:102DA00047D000D87AE040283FD18021634AC90447
:102DB000D36C0B4000D09FE0136800209B011CD512
:102DC000D3685F48D1689B021B0FC35C0902D068BF
:102DD000890F0131C00300D5A6E01268D20600D5E4
:102DE000A4E058485843FDF7CDF906E002285ED02C
:102DF000042803D0012840D0002010BDC0224F4934
:102E00001201CB6C13404FD080242401A34200D187
:102E100081E08020C000834265D000209342ECD145
:102E2000086D8005C00FC003E7E780231B019842AF
:102E3000E2D1C0218024414A8902106D136D6402E1
:102E40000B40A34226D08024A402A3425ED00020DF
:102E50008B42D2D113682342CFD01368C022802185
:102E60009203134089038B4266D0934262D0802242
:102E7000520393425CD03448BFE703212F4AD36CFE
:102E80000B404ED0022B31D0012B2CD00020032B35
:102E9000B3D1106D8005C00FC003AEE71028ABD1D1
:102EA000264B9B6B5B02A7D5FFF74CFEA5E70C21D9
:102EB000224AD36C0B40F7D0082B17D0042B12D02A
:102EC00000200C2B99D1E4E7C0231C4A9B01D16C54
:102ED0000B40E9D0802189018B4207D0802252012A
:102EE000934200D088E7FFF7EBFD86E713685B07A6
:102EF00000D481E7134880E700208B4200D07CE7B4
:102F000093689B0700D478E7104876E7830700D4DE
:102F100072E70F4871E70B68184200D16CE7094867
:102F20006BE7FFF71FFE68E70A485BE7064859E7CB
:102F3000094862E7094860E709485EE70010024077
:102F4000FC9C00080024F40000093D00006CDC0239
:102F50008890000000127A0080841E0020A10700E3
:102F600040420F00F8B5041E4FD02123C35CDBB2F2
:102F7000002B4CD002222123E2542368C8325A622B
:102F8000773A5A62DA68520627D59968224A0020B1
:102F90000A409A609A6861680A4321690A43A169F4
:102FA0000A439A60E268A1681A611A6909040A432F
:102FB00080211A61DA688A43DA60DA6C7D398A43E3
:102FC000DA64DA6CE1690A4361690A43DA64FF2270
:102FD0005A622123FE3AE254F8BD01225242DA60DD
:102FE000FEF7E2FBFA2607004025B6002368DA6800
:102FF0001542CAD1FEF7D8FBC01BB042F6D9FF225A
:1030000023685A622123FB3AE2540120E4E720229C
:103010008354FEF7F1FAADE7BFFF8FFFF0B54546E9
:1030200057464E462023E0B40D00C15C0400022048
:10303000012960D00121E1540133E0542068402689
:103040008368002A5CD11E4000D08DE0EE702068BD
:1030500029780023092906D90A39C9B20133092977
:10306000FAD81B01DBB26A78194309040027092A40
:1030700006D90A3AD2B20137092AFAD83F01FFB27B
:10308000AB783A4317020022092B00D890E00A3BA4
:10309000DBB20132092BFAD81201D2B294460E43A8
:1030A000320061463A430B431A43CA234362773BDB
:1030B0004362C36891465B0637D54E463D4B1E4082
:1030C000066082683C4B134083608368EA68134360
:1030D0002A69134380228360C3689343C360836873
:1030E0009B0647D5FF2301224362DE3BE2540022C8
:1030F0000020013BE2541CBC90469946A246F0BD1C
:1031000032001A4033D1EA7020682E786B7836048A
:103110001B021E43AB781E43CA234362773B4362C4
:10312000C3681643B1465B06C7D401235B42C36044
:10313000FEF73AFB4023FA2682469846B6004346FD
:103140002068C7681F40B8D1FEF72EFB5346C01A4F
:10315000B042F4D9FF22236801205A622123FB3AAE
:10316000E254013BE754C6E7EE78360470E7EE78A8
:103170003204CAE7A022C368FA279343C360FEF76C
:1031800013FB20268046BF002068C5683540A9D1C2
:10319000FEF70AFB4346C01AB842F5D9FF2223685E
:1031A00001205A622123FB3AE254013BE554A2E795
:1031B000944674E77F7F7F00FFFFFBFF0068F0B558
:1031C000836A47464B60036900685B045B0C8B6055
:1031D000184B9046034040227F2080B41F0C06000D
:1031E0003A403F24CA7042461D0AEDB2DBB23C4071
:1031F0002E4018400C704E708870002A15D124099A
:10320000A20014190F2264001740E41936090009BE
:103210000C70B400A61984002018760015404000F8
:1032200013407619C0184E708870002004BC904678
:10323000F0BDC0467F7F7F00F8B54F46464620234D
:10324000C0B4C55C04000220012D2CD00125E5543A
:103250000133E054002A2AD0C8784B7800041B02BE
:103260001843CA238E780A78216830434B62773B33
:103270004B625203CB68104380465B064FD54346F2
:103280008022474803404B60CB689343CB608B68F8
:103290009B0666D5FF2301224B62DE3BE2540022EF
:1032A0000020013BE2540CBC90469946F8BD4B7897
:1032B00010321A4250D1CA780020092A06D90A3A97
:1032C000D2B20130092AFAD80001C0B20243120476
:1032D0000025092B06D90A3BDBB20135092BFAD8A8
:1032E0002D01EDB288782B431D020026092806D94E
:1032F0000A38C0B201360928FAD83601F6B20B787E
:1033000030435B031A4313002B4303439846CA23FD
:1033100021684B62773B4B62CB685B06AFD40123DD
:103320005B42CB60FEF740FAFA2681464025B600A4
:103330002168CF682F40A2D1FEF736FA4B46C01A5B
:10334000B042F5D9FF22236801205A622123FB3ABB
:10335000E254013BE754A6E793430A33DBB24B70D8
:10336000A9E7A022CB68FA279343CB60FEF71CFAAB
:1033700020268046BF002168CD68354000D089E70F
:10338000FEF712FA4346C01AB842F4D9FF22236866
:1033900001205A622123FB3AE254013BE55482E7C3
:1033A0003FFFFF000368F0B55868144B03401F202F
:1033B0001C0A1F0CDDB2E4B21B0420405B0FCF706F
:1033C00048708D700B70002A15D13B099A00D318F4
:1033D0000F225B0000091740DF1983001818400016
:1033E00014402B09001948709800C3185B00154061
:1033F0005B19CF708B700020F0BDC0463FFFFF000F
:103400007047C046F0B557464E464546E0B41E00EC
:103410006923C35C05000F0014000220202B04D098
:103420001CBC90469946A246F0BD002963D00138E5
:10343000002AF5D08023AA685B019A4255D0682300
:10344000EA5C0220012AEBD00122EA540023203258
:10345000EB666933EA54FEF7A7F95023EC520233C6
:10346000EC52984680235B018246802499462A6864
:103470004346EB5A002B40D043464146EB5A013BB2
:103480009BB26B52731C09D1D3691C42FCD0AB6850
:103490004B4521D03B7801379362E9E7D3691C4261
:1034A000F5D1002E06D0FEF77FF953462A68C01AE0
:1034B0008642E7D211681F4B03200B4001211360A5
:1034C00093688B43936020236922AB540132AB5441
:1034D00000224833EA54A3E72B69002BDAD13B885A
:1034E0000237DB05DB0D9362C2E72B69002BA6D107
:1034F0000142A4D094E7012092E74024731C0BD131
:103500004021D3691942FCD020226923EA540022C9
:10351000013BEA54002083E7D3691C42F4D1002E1A
:10352000C8D0FEF741F953462A68C01A8642E5D250
:10353000C0E7C0465FFEFFFF02698168F8B511432E
:10354000426905681143C2692B681143974A040018
:1035500013400B432B606A68954B81691340C26826
:1035600013436B60934B9D421DD0026AAB681143BD
:10357000914A13400B43AB60904B9D4200D173E0E6
:103580008F4B9D424AD00220FFF704FC2668894BEE
:103590009E4205D08023E2691B029A4200D16BE073
:1035A00001252800F8BDAA68834B13401943A96080
:1035B000C0218022834B0901DB6CD2000B40934277
:1035C00000D1B5E000D899E080221201934200D1E9
:1035D00082E08B42D7D10220FFF7DCFB2668AE42A7
:1035E00035D1802000026268012553009B18834278
:1035F000D7D813038342D4D30021070E0602500804
:10360000002380197941FCF791FF6F4BC2186F4B73
:103610009A42C6D823680025D860C2E70C22694BBD
:10362000DB6C13406A4AD55C0220FFF7B3FB2668C7
:10363000604B9E420CD1022D54D059D9042D00D09C
:103640008BE0FFF73DFA00250028CCD1A9E708253B
:103650008023E2691B029A4200D095E0082D0BD826
:103660005C4BAD005B599F460322564BDB6C13400D
:10367000574AD3181D7CD7E700230125F36090E754
:10368000802361685B0248089C466044FCF77AFD31
:103690000F2203075B0F9043184383B20025F360AA
:1036A0007FE7FFF75FFA636840005B08C018616856
:1036B000FCF768FD2668EBE7616840004B08C0181E
:1036C000E4E7404B61681B684808DB0641D5424B84
:1036D000DAE7FFF7F5F9E6E70220FFF75BFB26687C
:1036E000AE4240D1374B1B68DB0634D53B487AE706
:1036F000002D00D054E7FFF725FAA4E7002B00D0F7
:1037000041E70220FFF746FB2668AE42F3D0802354
:10371000E2691B029A42CFD0FFF714FA61684B08A6
:103720001818FCF72FFD0004000CF060002538E7A6
:103730000220FFF72FFB2668AE4282D08023E26989
:103740001B029A42C5D0FFF7BBF961684B081818F5
:10375000E7E7234B98E7234845E780200002082D40
:1037600000D140E71CE78023E2691B029A42A8D0FF
:10377000144B61681B684808DB0603D5174B9C4651
:103780006044CEE7174BFAE7082D00D908E7164B3F
:10379000AD005B599F46FFF7E5F961684B081818C3
:1037A000BFE7802361681B024808E8E7F369FFEF81
:1037B000FFCFFFFF00480040FFF4FFFF003801404B
:1037C000004400400010024000FDFFFFFFFC0F001E
:1037D000E89C0008809B000800127A0000093D0068
:1037E0000048E8010024F400A49B0008436A30B5B7
:1037F000DA0706D50168284A4C682240846A2243C9
:103800004A609A0706D50168244A4C682240C46A77
:1038100022434A605A0706D50168214A4C68224073
:10382000046B22434A601A0706D501681D4A4C689A
:103830002240446B22434A60DA0606D501681A4AE0
:103840008C682240846B22438A609A0606D5016800
:10385000164A8C682240C46B22438A605A060AD5F5
:103860000168134A4D68046C2A4022434A60802252
:103870005203944209D01B0606D501680D4B4A68D5
:103880001340826C13434B6030BD4C680A4A22409F
:10389000446C22434A60EEE7FFFFFDFFFFFFFEFF9F
:1038A000FFFFFBFFFF7FFFFFFFEFFFFFFFDFFFFFDC
:1038B000FFFFEFFFFFFFF7FFFFFF9FFFF8B50023BC
:1038C0000400C366FDF770FF236806001A6812073C
:1038D0000CD41A68520728D420236922A354013239
:1038E000A354002200204833E254F8BD8025164F2F
:1038F000AD03DA692A40AA42EBD0FDF755FF2368F1
:10390000801BB842F5D91968104A03200A400121EA
:103910001A609A688A439A6020236922A35401326C
:10392000A35400224833E254DFE78025064FED031D
:10393000DB692B40AB42CFD0FDF736FF2368801BFD
:10394000B842F5D9DFE7C046FFFFFF015FFEFFFF8A
:10395000F8B5041E40D06923C35CDBB2002B42D013
:10396000242269232568E2542B68233A93432B6071
:10397000636A002B32D12269A1682B681143626906
:103980001143E2691143AF4A13400B432B606A684D
:10399000AD4BA1691340E26813436B60AB4B9D4292
:1039A00026D0226AAB681143A94A13400B43AB608F
:1039B000A84B9D4200D17FE0A74B9D4252D00220F0
:1039C000FFF7E8F92368A14A934205D08022E16914
:1039D0001202914200D185E00120F8BD2000FFF7DE
:1039E00005FF2568C7E768228354FFF709FDB7E79D
:1039F000AA68974B13401943A960C0218022974BB6
:103A00000901DB6CD2000B40934200D1CCE000D81E
:103A1000BEE080221201934200D192E08B42CED1CF
:103A20000220FFF7B7F927683E1EAE424CD1802036
:103A30000002626853009B188342CDD8130383426F
:103A4000CAD30021070E06025008002380197941CD
:103A5000FCF76CFD824BC218824B9A42BCD8266898
:103A6000F06019E00C227D4BDB6C13407E4AD55C84
:103A70000220FFF78FF92768744B3E1E9E4224D127
:103A8000022D7BD000D8ADE0042D00D0AFE0FFF7D1
:103A900017F80028CDD126687268744B20001340B7
:103AA0002A227360B3689343B360012332681343DF
:103AB0003360FFF703FF90E70322684BDB6C134092
:103AC000694AD3181D7CD3E708258023E2691B02CD
:103AD0009A4200D09CE0082D00D996E0644BAD00DE
:103AE0005B599F460022DA6076E7636858088023B6
:103AF0005B029C4660446168FCF744FB0F220307AD
:103B00005B0F9043184383B2F360C5E7FFF72AF8D1
:103B1000636840005B08C0186168FCF733FB2668E7
:103B2000ECE7636840005B08C018E4E7FEF7C8FFF5
:103B3000EEE74A4B1B68DB0650D5636858084D4BCF
:103B4000D7E70220FFF726F927683E1EAE4215D0C0
:103B50008023E2691B029A42EBD0404B1B68DB06D4
:103B600012D563685808444B9C4661686044FCF772
:103B700009FB0004000CF8603E008DE7374B1B6822
:103B8000DB0632D53C4854E7636858083B4BEBE70B
:103B9000002B00D013E70220FFF7FCF82668AE42A6
:103BA0002BD1FEF7CFFF74E70220FFF7F3F826686A
:103BB000AE4200D16BE78023E2691B029A42B5D086
:103BC000FEF77EFF636861685B081818FCF7DAFA95
:103BD00027680004000CF0603E005DE76368580849
:103BE000274B86E7002DDCD0F6E6244821E780202D
:103BF0000002082D00D11CE7EEE68023E2691B02DB
:103C00009A428ED0FEF79EFFDCE70023FB60E3E6DE
:103C1000082D00D9E0E61B4BAD005B599F46FEF72F
:103C2000A1FF636861685B081818FCF7ABFA000431
:103C3000000CF86027683E002EE763685808802370
:103C40001B0291E7F369FFEFFFCFFFFF0048004041
:103C5000FFF4FFFF00380140004400400010024024
:103C600000FDFFFFFFFC0F00E89C0008FFB7FFFF0F
:103C7000C89B000800127A0000093D000024F400EF
:103C80000048E801EC9B0008F8B5041E40D0692309
:103C9000C35CDBB2002B42D0242269232568E254A6
:103CA0002B68233A93432B60636A002B32D122693D
:103CB000A1682B68114362691143E2691143B24A5A
:103CC00013400B432B606A68B04BA1691340E26854
:103CD00013436B60AE4B9D4226D0226AAB68114302
:103CE000AC4A13400B43AB60AB4B9D4200D184E028
:103CF000AA4B9D4252D00220FFF74CF82368A44AF9
:103D0000934205D08022E1691202914200D18AE0FB
:103D10000120F8BD2000FFF769FD2568C7E768228C
:103D20008354FFF76DFBB7E7AA689A4B134019431A
:103D3000A960C02180229A4B0901DB6CD2000B40A4
:103D4000934200D1D1E000D8C3E080221201934217
:103D500000D197E08B42CED10220FFF71BF82768F5
:103D60003E1EAE4251D180200002626853009B1873
:103D70008342CDD813038342CAD30021070E060223
:103D80005008002380197941FCF7D0FB854BC218FD
:103D9000854B9A42BCD82668F0601AE00C22804B12
:103DA000DB6C1340814AD55C0220FEF7F3FF2768E5
:103DB000774B3E1E9E4229D1022D00D17FE000D8D4
:103DC000B1E0042D00D0B3E0FEF77AFE0028CCD19C
:103DD00026687268764B2000134022227360B36815
:103DE0009343B3600823B2681343B360012332687E
:103DF00013433360FFF762FD8BE70322684BDB6CF4
:103E000013406A4AD3181D7CCEE708258023E26957
:103E10001B029A4200D09CE0082D00D996E0654B29
:103E2000AD005B599F460022DA6071E7636858086D
:103E300080235B029C4660446168FCF7A3F90F2273
:103E400003075B0F9043184383B2F360C1E7FEF7AB
:103E500089FE636840005B08C0186168FCF792F94E
:103E60002668ECE7636840005B08C018E4E7FEF7EB
:103E700027FEEEE74A4B1B68DB0650D563685808FF
:103E80004D4BD7E70220FEF785FF27683E1EAE4266
:103E900015D08023E2691B029A42EBD0404B1B688D
:103EA000DB0612D563685808444B9C466168604441
:103EB000FCF768F90004000CF8603E0089E7384B15
:103EC0001B68DB0632D53D484FE7636858083C4B1A
:103ED000EBE7002B00D00EE70220FEF75BFF266821
:103EE000AE422BD1FEF72EFE70E70220FEF752FF06
:103EF0002668AE4200D167E78023E2691B029A423E
:103F0000B5D0FEF7DDFD636861685B081818FCF743
:103F100039F927680004000CF0603E0059E7636837
:103F20005808284B86E7002DDCD0F1E624481CE732
:103F300080200002082D00D117E7E9E68023E2691E
:103F40001B029A428ED0FEF7FDFDDCE70023FB60EA
:103F5000DEE6082D00D9DBE61B4BAD005B599F4622
:103F6000FEF700FE636861685B081818FCF70AF941
:103F70000004000CF86027683E002AE763685808D0
:103F800080231B0291E7C046F369FFEFFFCFFFFFDD
:103F900000480040FFF4FFFF0038014000440040AB
:103FA0000010024000FDFFFFFFFC0F00E89C00082E
:103FB000FFB7FFFF109C000800127A0000093D00C7
:103FC0000024F4000048E801349C0008F0B547469E
:103FD000040080B48846002849D08023C2691B02AF
:103FE0009A4244D08368002B41D16933C35CDBB271
:103FF000002B45D0242269232568E2542B68233AFC
:1040000093432B60636A002B35D12269A1682B682A
:10401000114362691143E2691143B74A13400B43EC
:104020002B606A68B54BA1691340E26813436B606B
:10403000B34B9D4229D0226AAB681143B14A134069
:104040000B43AB60B04B9D4200D1D6E0AF4B9D42DD
:1040500000D16DE00220FEF79DFE2368A84A93423E
:1040600005D08022E1691202914200D1B2E0012024
:1040700004BC9046F0BD2000FFF7B8FB2568C4E7FC
:1040800068228354FFF7BCF9B4E7AA689D4B13403C
:104090001943A960C02180229D4B0901DB6CD2002D
:1040A0000B40934200D1D7E06BD98022120193429A
:1040B00000D1B0E08B42CDD10220FEF76BFE276825
:1040C0003E1EAE424FD180200002626853009B1812
:1040D0008342CCD813038342C9D30021070E0602C2
:1040E0005008002380197941FCF720FA894BC21847
:1040F000894B9A42BBD82668F0607268874B2000D3
:1041000013402A227360B36893438022B3607368BC
:10411000D2011343202273607368934342461343D2
:1041200073600123326813433360FFF7C7FB9FE7D7
:104130000C22774BDB6C1340794AD55C0220FEF7EA
:1041400029FE27686E4B3E1E9E420DD1022D5CD08B
:1041500000D89FE0042D00D0A2E0FEF7B1FC0028BB
:10416000B3D12668C9E708258023E2691B029A4279
:1041700000D0A6E0082D00D9A0E06A4BAD005B5945
:104180009F46002B00D065E70220FEF703FE26685D
:10419000AE4200D08AE0FEF7D5FCE0E7636858083D
:1041A00080235B029C4660446168FBF7EBFF0F22B3
:1041B00003075B0F9043184383B2F3609DE7FEF75C
:1041C000D1FC636840005B08C0186168FBF7DAFF48
:1041D0002668ECE70022DA6049E7636840005B0884
:1041E000C018E1E7FEF76CFCEBE7494B1B68DB0608
:1041F0004CD5636858084C4BD4E70322444BDB6C26
:104200001340474AD3181D7C98E7414B1B68DB06D7
:1042100044D5464859E70220FEF7BCFD27683E1EFC
:10422000AE42F2D08023E2691B029A42DDD0384BC5
:104230001B68DB060CD5636858083C4B9C466168DC
:104240006044FBF79FFF0004000CF8603E0054E759
:1042500063685808364BF1E70220FEF79BFD26689D
:10426000AE4200D179E78023E2691B029A42B9D0BD
:10427000FEF726FC636861685B081818FBF782FF8D
:1042800027680004000CF0603E0036E763685808B9
:10429000284B87E7002D00D17DE7E8E6244814E7A6
:1042A00080200002082D00D10FE7E0E68023E269BC
:1042B0001B029A4291D0FEF745FCDBE70023FB602E
:1042C000D5E6082D00D9D2E61B4BAD005B599F46C1
:1042D000FEF748FC636861685B081818FBF752FF3B
:1042E0000004000CF86027683E0006E76368580881
:1042F00080231B02A2E7C046F369FFEFFFCFFFFF59
:1043000000480040FFF4FFFF003801400044004037
:104310000010024000FDFFFFFFFC0F00FFF7FFFF52
:10432000E89C0008589C000800127A0000093D0033
:104330000024F4000048E8017C9C0008F8B54F46D2
:1043400046460400C0B489469046002840D0692300
:10435000C35CDBB2002B45D0242269232568E254DC
:104360002B68233A93432B60636A002B35D1226973
:10437000A1682B68114362691143E2691143BA4A8B
:1043800013400B432B606A68B84BA1691340E26885
:1043900013436B60B64B9D4229D0226AAB68114330
:1043A000B44A13400B43AB60B34B9D4200D18DE048
:1043B000B24B9D4255D00220FEF7ECFC2368AC4A7C
:1043C000934205D08022E1691202914200D193E02C
:1043D00001200CBC90469946F8BD2000FFF706FA74
:1043E0002568C4E768228354FFF70AF8B4E7AA688F
:1043F000A04B13401943A960C0218022A04B0901A2
:10440000DB6CD2000B40934200D1DFE000D8D1E05A
:1044100080221201934200D19DE08B42CBD1022039
:10442000FEF7B8FC27683E1EAE4257D1802000023E
:10443000626853009B188342CAD813038342C7D3D0
:104440000021070E06025008002380197941FCF76D
:104450006DF88C4BC2188C4B9A42B9D82668F06024
:104460001AE00C22864BDB6C1340884AD55C022094
:10447000FEF790FC27687E4B3E1E9E422FD1022DF8
:1044800000D185E000D8BFE0042D00D0C1E0FEF7E8
:1044900017FB0028CCD1266872687D4B13402A2276
:1044A0007360B3689343B36080231B01984575D054
:1044B0003268784B20001340424613433360012397
:1044C000326813433360FFF7F9F982E703226C4B3C
:1044D000DB6C13406D4AD3181D7CC8E70825802388
:1044E000E2691B029A4200D0A4E0082D00D99EE0A8
:1044F000694BAD005B599F460022DA6068E763684C
:10450000580880235B029C4660446168FBF73AFED2
:104510000F2203075B0F9043184383B2F360BBE79E
:10452000FEF720FB636840005B08C0186168FBF77A
:1045300029FE2668ECE7636840005B08C018E4E7E2
:10454000FEF7BEFAEEE74E4B1B68DB0658D56368F4
:104550005808524BD7E70220FEF71CFC27683E1E86
:10456000AE4215D08023E2691B029A42EBD0444B45
:104570001B68DB061AD563685808494B9C4661687E
:104580006044FBF7FFFD0004000CF8603E0083E789
:104590003B4B1B68DB063AD5414849E74A467368FE
:1045A00012061B021B0A1343736081E763685808F5
:1045B0003C4BE3E7002B00D0FDE60220FEF7EAFBD0
:1045C0002668AE422BD1FEF7BDFA62E70220FEF765
:1045D000E1FB2668AE4200D159E78023E2691B0265
:1045E0009A42ADD0FEF76CFA636861685B081818F0
:1045F000FBF7C8FD27680004000CF0603E004BE7A5
:1046000063685808284B7EE7002DDCD0E0E625489B
:104610000EE780200002082D00D109E7D8E68023AC
:10462000E2691B029A4286D0FEF78CFADCE700238F
:10463000FB60CDE6082D00D9CAE61C4BAD005B59E6
:104640009F46FEF78FFA636861685B081818FBF7EE
:1046500099FD0004000CF86027683E001CE76368C1
:10466000580880231B0289E7F369FFEFFFCFFFFFA4
:1046700000480040FFF4FFFF0038014000440040C4
:104680000010024000FDFFFFFFFC0F00E89C000847
:10469000FFB7FFFFFFF7FFFFA09C000800127A00A2
:1046A00000093D000024F4000048E801C49C000813
:1046B0008021104B49001A680A431A60D9680E4AD3
:1046C0000A40DA6019680D4A0A4001211A609A68A6
:1046D0008A439A6019680A4A0A401A60D968094AE6
:1046E0000A40DA6000221A618022074B12059A60A4
:1046F0007047C046001002400C40FF88F6FFF6FEEF
:10470000FFFFFBFFFFFF02FF00ED00E030B5234C91
:1047100087B02000FDF79CFD002808D02000FDF7A1
:1047200097FD2038431E9841C0B207B030BD1C4BE6
:104730001C4D63603323A360323BE3601A4BEA6A8B
:10474000236002231A43EA62EA6A01A91A4000922E
:10475000009AC02292000192122204930390023325
:10476000124802920593FDF77FF88021AA6B890316
:104770000A43AA63AB6A17200B43AB62AA6A0C4BCD
:1047800000211340AB620022FDF714F81720FDF75B
:1047900045F82000FDF7DCFAC0E7C046D003002052
:1047A0002E11B100001002400054004000040050DF
:1047B000FFFFDFFF30B5234C87B02000FDF748FD39
:1047C000002808D02000FDF743FD2038431E984103
:1047D000C0B207B030BD1C4B1C4D63603323A360D7
:1047E000323BE3601A4BEA6A236002231A43EA620F
:1047F000EA6A01A91A400092009AC022920001922E
:104800001222049303900233124802920593FDF79B
:104810002BF88021AA6B89030A43AA63AB6A17208D
:104820000B43AB62AA6A0C4B00211340AB6200221F
:10483000FCF7C0FF1720FCF7F1FF2000FDF788FA16
:10484000C0E7C046D00300202E11B1000010024086
:104850000054004000040050FFFFDFFFF0B5474662
:1048600002241E4D80B4EB6A8CB02343EB62EB6AEA
:10487000002723400093009B2023194E0293194BDD
:1048800002A930009846039305940497FCF7ECFFC7
:10489000002200210720FCF78DFF0720FCF7BEFF58
:1048A000EB6A07A92343EB62EB6A300023400193D4
:1048B000019B1023079343460A9408930997FCF73A
:1048C000D3FF002200210720FCF774FF0720FCF72C
:1048D000A5FF00200CB004BC9046F0BD00100240C3
:1048E0000004005000001110F0B557464E464546F2
:1048F000E0B40700007884B0402842D03FD9B12806
:104900002AD1002B39D0984680235B019A46012397
:10491000150090440C001D4E994604E00134013509
:10492000E4B2454529D05346B97802934B46A2B22A
:104930000193009501233000FDF780FA0028EDD0A7
:104940003000FDF761FAFFF7E1FE012004B01CBC66
:1049500090469946A246F0BDBC2812D080200B4E4E
:104960008CB24001B9780290019300920123220099
:104970003000FDF763FA0028E2D10020E6E7332893
:10498000ECD1012BEAD980200143E7E7D0030020D6
:10499000F0B557464E464546E0B40700007884B06F
:1049A000402842D03FD9B1282AD1002B39D098468F
:1049B00080235B019A460123150090440C001D4E94
:1049C000994604E001340135E4B2454529D0534607
:1049D000B97802934B46A2B20193009501233000AF
:1049E000FDF726FB0028EDD03000FDF70DFAFFF7AC
:1049F0008DFE012004B01CBC90469946A246F0BD35
:104A0000BC2812D080200B4E8CB24001B9780290A5
:104A100001930092012322003000FDF709FB0028DA
:104A2000E2D10020E6E73328ECD1012BEAD980203F
:104A30000143E7E7D0030020F8B5002605000F008A
:104A40000E60694C002800D186E0012828D1637EE1
:104A5000012B7FD0FFF7AEFE01287BD0332320004F
:104A60002375013BA375614B30302362604BE061DD
:104A7000236403001C381033667525766676A676A7
:104A8000E5762363666266633860236A1B68002BE1
:104A900000D192E09847012800D187E000205AE039
:104AA0006379012B29D0FFF785FE012825D06A23E1
:104AB00023706C33A370D53BE37123004D4A283338
:104AC000E2604D4AA36022614C4A10336670267141
:104AD0006671A671A362A263E6623C60E3681D682A
:104AE000002D00D172E02000A84701285AD11422DD
:104AF0000021386804F00DFC3E60637E012B29D054
:104B0000FFF758FE012825D0332320002375013BF1
:104B1000A375313B2376E376344B30302362344B3C
:104B2000002523640300E06110331C386575657649
:104B3000A5762363656265633860236A1B68002B72
:104B40003BD098470128A9D114220021386804F0ED
:104B5000E0FB3D600120F8BD6379012BFAD0FFF73F
:104B600029FE0128F6D06A2323706C33A370D53B4D
:104B7000E37123001F4A2833E2601F4AA3602261C9
:104B80001E4A1033657025716571A571A362A26319
:104B9000E5623C60E3681E68002E1ED02000B0472E
:104BA0000128D1D0FFF75AFE0020D4E714220021BB
:104BB000386804F0AEFB3E60CCE7200014221430CD
:104BC000002104F0A6FB00233B60C3E71422002170
:104BD000200004F09EFB3D608FE71422002120009E
:104BE00004F097FB3E60B5E71C0400201400002091
:104BF000E4060020B400002040010020E806002068
:104C000010B5002809D0C3689B68002B05D09847D1
:104C1000013843425841C0B210BD0120FCE7C046F4
:104C2000002805D0002903D0037900200B707047BD
:104C30000120FCE710B5031E0DD00269002A0AD03E
:104C4000047801206A2C00D010BD1268002AFBD025
:104C500018009047F8E70120F6E7C04610B5031E9C
:104C60000DD00269002A0AD0017801206A2900D0FB
:104C700010BD5268002AFBD018009047F8E70120C9
:104C8000F6E7C04610B5031E0DD00269002A0AD00F
:104C9000017801206A2900D010BD1269002AFBD0DA
:104CA00018009047F8E70120F6E7C04610B5031E4C
:104CB0000DD00269002A0AD0017801206A2900D0AB
:104CC00010BD5269002AFBD018009047F8E7012078
:104CD000F6E7C04610B5031E0FD00269002A0CD0BB
:104CE00000290AD0047801206A2C00D010BDD269B6
:104CF000002AFBD018009047F8E70120F6E7C046ED
:104D000010B5031E0DD00269002A0AD004780120D4
:104D10006A2C00D010BDD26A002AFBD01800904740
:104D2000F8E70120F6E7C04610B5031E0DD0026972
:104D3000002A0AD0017801206A2900D010BD126B28
:104D4000002AFBD018009047F8E70120F6E7C0469C
:104D500010B5031E0DD00269002A0AD00478012084
:104D60006A2C00D010BD926B002AFBD0180090472F
:104D7000F8E70120F6E7C04610B5031E0DD0026922
:104D8000002A0AD0017801206A2900D010BDD26B18
:104D9000002AFBD018009047F8E70120F6E7C0464C
:104DA00010B5031E0DD00269002A0AD00478012034
:104DB0006A2C00D010BD926C002AFBD018009047DE
:104DC000F8E70120F6E7C04610B5031E0DD00269D2
:104DD000002A0AD0017801206A2900D010BDD26CC7
:104DE000002AFBD018009047F8E70120F6E7C046FC
:104DF00010B5031E0DD00269002A0AD004780120E4
:104E00006A2C00D010BD526D002AFBD018009047CC
:104E1000F8E70120F6E7C04610B5031E0DD0026981
:104E2000002A0AD0017801206A2900D010BD926DB5
:104E3000002AFBD018009047F8E70120F6E7C046AB
:104E400010B5031E0DD00269002A0AD00478012093
:104E50006A2C00D010BD126F002AFBD018009047BA
:104E6000F8E70120F6E7C04610B5031E0DD0026931
:104E7000002A0AD0017801206A2900D010BD526FA3
:104E8000002AFBD018009047F8E70120F6E7C0465B
:104E900010B5031E0FD00269002A0CD000290AD0D9
:104EA000047801206A2C00D010BDD26F002AFBD0FC
:104EB00018009047F8E70120F6E7C04610B5031E3A
:104EC00010D00269002A0DD000290BD004780120EF
:104ED0006A2C00D010BD16341259002AFAD01800DE
:104EE0009047F7E70120F5E710B5031E10D00269DF
:104EF000002A0DD000290BD0047801206A2C00D0A4
:104F000010BD1A341259002AFAD018009047F7E75A
:104F10000120F5E710B5031E10D00269002A0DD05C
:104F200000290BD0047801206A2C00D010BD1E345B
:104F30001259002AFAD018009047F7E70120F5E748
:104F400010B5031E10D00269002A0DD000290BD025
:104F5000047801206A2C00D010BD22341259002A96
:104F6000FAD018009047F7E70120F5E710B5031EC7
:104F700010D00269002A0DD000290BD0047801203E
:104F80006A2C00D010BD26341259002AFAD018001D
:104F90009047F7E70120F5E710B5031E10D002692E
:104FA000002A0DD000290BD0047801206A2C00D0F3
:104FB00010BD2A341259002AFAD018009047F7E79A
:104FC0000120F5E730B587B0002808D101240E4A4A
:104FD000D16A2143D162D36A23400093009B2023EE
:104FE00001931F3B02930023084D8400039301A902
:104FF000033360590493FCF737FC605900222021E9
:10500000FCF71CFD07B030BD001002400800002076
:1050100010B5044B8000C05801222021FCF70EFD82
:1050200010BDC0460800002030B587B0002808D168
:105030000425184AD46A2C43D462D36A2B400093C7
:10504000009B80239B01019300230393013304936E
:10505000002903D001290AD007B030BD0E4B8000D3
:1050600018180291406801A9FCF7FEFBF4E70B4B0E
:1050700080000293084B01A918184068FCF7F4FB64
:1050800000220F210720FCF795FB0720FCF7C6FB49
:10509000E2E7C04600100240080000200000211096
:1050A000802110B5034B8000181840688901FCF777
:1050B000BFFC10BD0800002010B5FFF715FC4342EF
:1050C0005841C0B210BDC04610B5FFF761FC434265
:1050D0005841C0B210BDC04610B50A0001230F21CF
:1050E000FFF756FC43425841C0B210BD70B582B0C4
:1050F0006B46DC1D0E000123220023210500FFF773
:1051000047FC002802D0002002B070BD7F21237828
:105110002200194031432170012323212800FFF789
:10512000E3FB43425841C0B2EEE7C04670B582B0DF
:105130006B46DC1D0E000123220023210500FFF732
:1051400027FC002802D0002002B070BD3023217857
:1051500022009943314321702F3B23212800FFF780
:10516000C3FB43425841C0B2EEE7C04610B50A0047
:105170000C0001232321FFF70BFC002801D00020A5
:1051800010BD30222378012013402370F8E7C04679
:1051900010B50A0006232821FFF7FAFB43425841C5
:1051A000C0B210BDF0B546464F46C0B485B06A46A1
:1051B00088460123063223210500FFF7E9FB00287A
:1051C00005D16B4608229B7913406A4693716A4663
:1051D0000123053220212800FFF7DAFB6B465B79BB
:1051E000002803D1082213406A465371082B00D1CE
:1051F00075E00020002B66D16A469279002A67D1BB
:105200000623012699466A460123073223212800F6
:10521000FFF7BEFB6B46DB79002803D13022134039
:105220006A46D371202B65D0302B61D0103B5C4295
:105230005C41062302AA28212800B600FFF7A8FB3C
:1052400034192D4BE4001C196B466568246808204E
:10525000185E4B46184122002B00C117FA26FBF7B7
:1052600085F90027FA2276009200002380197941FF
:10527000FBF738F9434618606B460A20185E4B4628
:10528000184122002B00C117FBF770F9FA22002306
:10529000920080197941FBF725F9434658606B4627
:1052A0000C20185E4B46184122002B00C117FBF75B
:1052B0005DF9FA220023801979419200FBF712F977
:1052C00043469860012005B00CBC90469946F0BD5D
:1052D0001800082AF7D104330026994693E76B4655
:1052E0009B790020002BEED10823022699468AE7FD
:1052F00003249EE702249CE7209D000870B582B03D
:105300006B46DC1D0E000123220020210500FFF763
:105310003FFB002802D0002002B070BD0F2123788F
:105320002200194031432170012320212800FFF77A
:10533000DBFA43425841C0B2EEE7C04610B50A005E
:105340000C0001232021FFF723FB002801D00020BF
:1053500010BD0F222378012093432370F8E7C04645
:1053600070B582B06B46DC1D0E00012322002021A7
:105370000500FFF70DFB002802D0002002B070BD31
:1053800001232178220099433143217028002021F4
:10539000FFF7AAFA43425841C0B2EFE710B50A003E
:1053A0000C0001232021FFF7F3FA002801D0002090
:1053B00010BD01222378012013402370F8E7C04676
:1053C00070B582B06B46DC1D0E0001232200202147
:1053D0000500FFF7DDFA002802D0002002B070BD02
:1053E000022321782200994331432170013B20217F
:1053F0002800FFF779FA43425841C0B2EEE7C046B1
:1054000010B50A000C0001232021FFF7C1FA002883
:1054100001D0002010BD0222237801201340237008
:10542000F8E7C04670B582B06B46DC1D0E00012364
:10543000220020210500FFF7ABFA002802D000204F
:1054400002B070BD042321782200994331432170BA
:10545000033B20212800FFF747FA43425841C0B2DE
:10546000EEE7C04610B50A000C0001232021FFF72B
:105470008FFA002801D0002010BD042223780120DB
:1054800013402370F8E7C04610B50A000C00012352
:105490002021FFF77DFA002801D0002010BD08224E
:1054A0002378012013402370F8E7C04610B50A00A6
:1054B0000C0001232321FFF76BFA002801D0002004
:1054C00010BD08222378012013402370F8E7C0465E
:1054D00010B50A000C0001232721FFF759FA002814
:1054E00001D0002010BD0122237801201340237039
:1054F000F8E7C04670B582B06B46DC1D0E00012394
:1055000022002E210500FFF743FA002802D00020D8
:1055100002B070BD3F212378220019403143217031
:1055200001232E212800FFF7DFF943425841C0B282
:10553000EEE7C04610B582B06B460C00D91DFFF7F0
:10554000C7FF0123002807D06A46D279002A06D077
:10555000012A01D123700023180002B010BD22706F
:105560000023F9E700B583B013006A4607321370D1
:105570000123FFF7A1FD43425841C0B203B000BD73
:1055800010B50123FFF7A0FD43425841C0B210BD42
:1055900030B583B06B460D00591D0400FFF7FEFEC9
:1055A000002802D1012003B030BD6B462000991DB8
:1055B000FFF726FF0028F5D06B462000D91DFFF726
:1055C00051FF0028EED06B465B790020013B5A4228
:1055D00053412B706B469B79023B5A4253416B708F
:1055E0006B46DB79043B5A425341AB70DBE7C04664
:1055F00070B50C1C80210500C905201CFAF754FF6A
:105600000021002807D18121201CC905FAF74CFF91
:105610001021002806D02800FFF788FD434258419A
:10562000C0B270BD8221201CC905FAF73DFF2021C0
:105630000028F0D11031EEE710B502290ED0042970
:105640000AD0002901D0012010BD0021FFF76EFD16
:1056500043425841C0B2F7E72021F7E71021F5E7B0
:1056600010B582B06B460C00D91DFFF77FFD0123FA
:1056700000280CD06B46DB79102B10D014D9202BCE
:1056800008D0302B17D18323DB05236000231800BB
:1056900002B010BD8223DB0523600023F7E78123DE
:1056A000DB0523600023F2E7002B04D18023DB0518
:1056B00023600023EBE7024B23600123E7E7C046AA
:1056C000000080BF10B582B06B460C00D91DFFF7FB
:1056D00035FE012300280ED06B46DB79302B2AD013
:1056E0000CD9502B23D013D9602B1CD0702B0BD18D
:1056F000174B23600023180002B010BD102B0DD0F3
:10570000202B20D0002B1AD0124B23600123F2E76C
:10571000402BF9D1104B23600023ECE7FE239B05BF
:1057200023600023E7E70D4B23600023E3E70C4BE6
:1057300023600023DFE70B4B23600023DBE700231C
:1057400023600023D7E7084B23600023D3E7C0463C
:105750000000C843000080BF0000484200004843EA
:105760000000C8420000C8410000204130B583B0AD
:105770006B460D00591D0400FFF786FE002802D17C
:10578000012003B030BD6B462000991DFFF78EFE4F
:105790000028F5D06B465B79002B1BD16B469B79BB
:1057A000002B33D0082BEBD16B462000D91DFFF71F
:1057B000DDFC03000120002BE3D06B46DB79102BCE
:1057C0004FD048D9202B3CD0302B37D12D4B002047
:1057D0002B60D6E7082BD3D16B469B79002BCFD11A
:1057E0006B462000D91DFFF7C1FC03000120002BF0
:1057F000C7D06B46DB79102B3FD026D9202B38D071
:10580000302B1BD1204B00202B60BAE76B462000C9
:10581000D91DFFF7ABFC03000120002BB1D06B4674
:10582000DB79102B21D007D9202B10D0302B05D1BC
:10583000164B00202B60A4E7002B02D0144B2B60EA
:105840009EE7144B00202B609BE7002BF6D1124BF8
:1058500000202B6095E7002BF0D1104B00202B602F
:105860008FE70F4B00202B608BE70E4B00202B6047
:1058700087E70D4B00202B6083E70C4B00202B604B
:105880007FE7C0461F853B417B943B439A993B424F
:10589000000080BF9A9979407B147A4148E17A3FB1
:1058A0009A99F93F713DFA407B147A427B14FA4190
:1058B000F0B585B06B460C00D91D0700FFF7F6FD6B
:1058C000002802D1012005B0F0BD6B463800991DBB
:1058D000FFF7DAFD0028F5D06B469B79082B1BD02B
:1058E000002BEFD16B46DB79002B1BD1062602ADD6
:1058F00029003800FFF74CFC0028E3D00023E95EC4
:105900000223EA5E04202B5E314132413341218083
:105910006280A3800020D6E76B46DB79002BD1D1D3
:105920000826E4E70426082BCCD1E0E710B586B0C2
:105930000C0003A9FFF736FC0123002807D0039BC6
:105940002360049B01936360059BA3600023180000
:1059500006B010BD10B5FFF7BFFB43425841C0B2BF
:1059600010BDC04610B582B06A460023D11D0400A8
:10597000D371FFF7B1FB002802D1013002B010BD96
:105980006A462378D079181A431E9841C0B2F5E7C9
:1059900070B50D000978040001394B425941C9B274
:1059A000FFF7DEFC002815D06978200001394B4252
:1059B00059414900FFF704FD00280BD0A9782000C9
:1059C00001394B4259418900FFF72CFD43425841B0
:1059D000C0B200E0012070BD70B5837905000C1CD9
:1059E000012B31D0FE2183688905201C1D68FAF740
:1059F0005BFD002823D13149201CFAF755FD002812
:105A000003D02E4B00206B6070BD2D49201CFAF78F
:105A10004BFD002816D12B49201CFAF745FD002824
:105A200044D12949201CFAF73FFD002840D12749DD
:105A3000201CFAF739FD00283ED1254BE2E7FE2372
:105A40009B05DFE71E4BDDE7FE21201C8905FAF7E9
:105A50002BFD00282ED11949201CFAF725FD202105
:105A600000281CD11649201CFAF71EFD3021002801
:105A700015D11449201CFAF717FD402100280ED13A
:105A80001149201CFAF710FD5021002807D10F49B9
:105A9000201CFAF709FD6021002800D110312800F0
:105AA000FFF72CFC43425841C0B2ADE7054BA9E7D4
:105AB000054BA7E71021F2E7044BA3E700002041C4
:105AC0000000C841000048420000C84200004843AE
:105AD0000000C84310B58379012B18D083681B6878
